{
	"voting.sol": {
		"Voting": {
			"abi": [
				{
					"inputs": [],
					"stateMutability": "nonpayable",
					"type": "constructor"
				},
				{
					"inputs": [
						{
							"internalType": "string",
							"name": "name",
							"type": "string"
						},
						{
							"internalType": "string",
							"name": "description",
							"type": "string"
						}
					],
					"name": "candidateEnrollment",
					"outputs": [
						{
							"internalType": "string",
							"name": "",
							"type": "string"
						}
					],
					"stateMutability": "nonpayable",
					"type": "function"
				},
				{
					"inputs": [
						{
							"internalType": "string",
							"name": "name",
							"type": "string"
						}
					],
					"name": "candidateIdGenerator",
					"outputs": [
						{
							"internalType": "uint256",
							"name": "",
							"type": "uint256"
						}
					],
					"stateMutability": "nonpayable",
					"type": "function"
				},
				{
					"inputs": [
						{
							"internalType": "uint256",
							"name": "",
							"type": "uint256"
						}
					],
					"name": "candidates",
					"outputs": [
						{
							"internalType": "string",
							"name": "candidate_name",
							"type": "string"
						},
						{
							"internalType": "string",
							"name": "candidate_description",
							"type": "string"
						}
					],
					"stateMutability": "view",
					"type": "function"
				},
				{
					"inputs": [
						{
							"internalType": "string",
							"name": "name",
							"type": "string"
						},
						{
							"internalType": "uint256",
							"name": "candidateID",
							"type": "uint256"
						}
					],
					"name": "voterEnrollment",
					"outputs": [
						{
							"internalType": "string",
							"name": "",
							"type": "string"
						}
					],
					"stateMutability": "nonpayable",
					"type": "function"
				},
				{
					"inputs": [
						{
							"internalType": "string",
							"name": "",
							"type": "string"
						}
					],
					"name": "voters",
					"outputs": [
						{
							"internalType": "uint256",
							"name": "candidate_id",
							"type": "uint256"
						},
						{
							"internalType": "bool",
							"name": "hasVoted",
							"type": "bool"
						}
					],
					"stateMutability": "view",
					"type": "function"
				}
			],
			"devdoc": {
				"kind": "dev",
				"methods": {},
				"version": 1
			},
			"evm": {
				"assembly": "    /* \"voting.sol\":59:1240  contract Voting{\r... */\n  mstore(0x40, 0x80)\n    /* \"voting.sol\":426:476  constructor(){\r... */\n  callvalue\n  dup1\n  iszero\n  tag_1\n  jumpi\n  0x00\n  dup1\n  revert\ntag_1:\n  pop\n    /* \"voting.sol\":458:468  msg.sender */\n  caller\n    /* \"voting.sol\":450:455  admin */\n  0x02\n  0x00\n    /* \"voting.sol\":450:468  admin = msg.sender */\n  0x0100\n  exp\n  dup2\n  sload\n  dup2\n  0xffffffffffffffffffffffffffffffffffffffff\n  mul\n  not\n  and\n  swap1\n  dup4\n  0xffffffffffffffffffffffffffffffffffffffff\n  and\n  mul\n  or\n  swap1\n  sstore\n  pop\n    /* \"voting.sol\":59:1240  contract Voting{\r... */\n  dataSize(sub_0)\n  dup1\n  dataOffset(sub_0)\n  0x00\n  codecopy\n  0x00\n  return\nstop\n\nsub_0: assembly {\n        /* \"voting.sol\":59:1240  contract Voting{\r... */\n      mstore(0x40, 0x80)\n      callvalue\n      dup1\n      iszero\n      tag_1\n      jumpi\n      0x00\n      dup1\n      revert\n    tag_1:\n      pop\n      jumpi(tag_2, lt(calldatasize, 0x04))\n      shr(0xe0, calldataload(0x00))\n      dup1\n      0x0621f170\n      eq\n      tag_3\n      jumpi\n      dup1\n      0x0fd94e64\n      eq\n      tag_4\n      jumpi\n      dup1\n      0x17678bc3\n      eq\n      tag_5\n      jumpi\n      dup1\n      0x3477ee2e\n      eq\n      tag_6\n      jumpi\n      dup1\n      0x53fa2e64\n      eq\n      tag_7\n      jumpi\n    tag_2:\n      0x00\n      dup1\n      revert\n        /* \"voting.sol\":915:1003  function candidateIdGenerator(string memory name) public returns(uint){\r... */\n    tag_3:\n      tag_8\n      0x04\n      dup1\n      calldatasize\n      sub\n      dup2\n      add\n      swap1\n      tag_9\n      swap2\n      swap1\n      tag_10\n      jump\t// in\n    tag_9:\n      tag_11\n      jump\t// in\n    tag_8:\n      mload(0x40)\n      tag_12\n      swap2\n      swap1\n      tag_13\n      jump\t// in\n    tag_12:\n      mload(0x40)\n      dup1\n      swap2\n      sub\n      swap1\n      return\n        /* \"voting.sol\":1009:1237  function voterEnrollment(string memory name,uint candidateID) public onlyAdmin returns(string memory){\r... */\n    tag_4:\n      tag_14\n      0x04\n      dup1\n      calldatasize\n      sub\n      dup2\n      add\n      swap1\n      tag_15\n      swap2\n      swap1\n      tag_16\n      jump\t// in\n    tag_15:\n      tag_17\n      jump\t// in\n    tag_14:\n      mload(0x40)\n      tag_18\n      swap2\n      swap1\n      tag_19\n      jump\t// in\n    tag_18:\n      mload(0x40)\n      dup1\n      swap2\n      sub\n      swap1\n      return\n        /* \"voting.sol\":586:909  function candidateEnrollment(string memory name,string memory description) public onlyAdmin returns(string memory){\r... */\n    tag_5:\n      tag_20\n      0x04\n      dup1\n      calldatasize\n      sub\n      dup2\n      add\n      swap1\n      tag_21\n      swap2\n      swap1\n      tag_22\n      jump\t// in\n    tag_21:\n      tag_23\n      jump\t// in\n    tag_20:\n      mload(0x40)\n      tag_24\n      swap2\n      swap1\n      tag_19\n      jump\t// in\n    tag_24:\n      mload(0x40)\n      dup1\n      swap2\n      sub\n      swap1\n      return\n        /* \"voting.sol\":149:194  mapping (uint => Candidate) public candidates */\n    tag_6:\n      tag_25\n      0x04\n      dup1\n      calldatasize\n      sub\n      dup2\n      add\n      swap1\n      tag_26\n      swap2\n      swap1\n      tag_27\n      jump\t// in\n    tag_26:\n      tag_28\n      jump\t// in\n    tag_25:\n      mload(0x40)\n      tag_29\n      swap3\n      swap2\n      swap1\n      tag_30\n      jump\t// in\n    tag_29:\n      mload(0x40)\n      dup1\n      swap2\n      sub\n      swap1\n      return\n        /* \"voting.sol\":201:240  mapping (string => Voter) public voters */\n    tag_7:\n      tag_31\n      0x04\n      dup1\n      calldatasize\n      sub\n      dup2\n      add\n      swap1\n      tag_32\n      swap2\n      swap1\n      tag_10\n      jump\t// in\n    tag_32:\n      tag_33\n      jump\t// in\n    tag_31:\n      mload(0x40)\n      tag_34\n      swap3\n      swap2\n      swap1\n      tag_35\n      jump\t// in\n    tag_34:\n      mload(0x40)\n      dup1\n      swap2\n      sub\n      swap1\n      return\n        /* \"voting.sol\":915:1003  function candidateIdGenerator(string memory name) public returns(uint){\r... */\n    tag_11:\n        /* \"voting.sol\":980:984  uint */\n      0x00\n        /* \"voting.sol\":915:1003  function candidateIdGenerator(string memory name) public returns(uint){\r... */\n      swap2\n      swap1\n      pop\n      jump\t// out\n        /* \"voting.sol\":1009:1237  function voterEnrollment(string memory name,uint candidateID) public onlyAdmin returns(string memory){\r... */\n    tag_17:\n        /* \"voting.sol\":1096:1109  string memory */\n      0x60\n        /* \"voting.sol\":535:540  admin */\n      0x02\n      0x00\n      swap1\n      sload\n      swap1\n      0x0100\n      exp\n      swap1\n      div\n      0xffffffffffffffffffffffffffffffffffffffff\n      and\n        /* \"voting.sol\":521:540  msg.sender == admin */\n      0xffffffffffffffffffffffffffffffffffffffff\n      and\n        /* \"voting.sol\":521:531  msg.sender */\n      caller\n        /* \"voting.sol\":521:540  msg.sender == admin */\n      0xffffffffffffffffffffffffffffffffffffffff\n      and\n      eq\n        /* \"voting.sol\":513:560  require(msg.sender == admin,\"Access is Denied\") */\n      tag_38\n      jumpi\n      mload(0x40)\n      0x08c379a000000000000000000000000000000000000000000000000000000000\n      dup2\n      mstore\n      0x04\n      add\n      tag_39\n      swap1\n      tag_40\n      jump\t// in\n    tag_39:\n      mload(0x40)\n      dup1\n      swap2\n      sub\n      swap1\n      revert\n    tag_38:\n        /* \"voting.sol\":1123:1133  noOfVoters */\n      0x00\n      dup1\n        /* \"voting.sol\":1121:1133  ++noOfVoters */\n      dup2\n      sload\n      tag_42\n      swap1\n      tag_43\n      jump\t// in\n    tag_42:\n      swap2\n      swap1\n      pop\n      dup2\n      swap1\n      sstore\n      pop\n        /* \"voting.sol\":1159:1182  Voter(candidateID,true) */\n      mload(0x40)\n      dup1\n      0x40\n      add\n      0x40\n      mstore\n      dup1\n        /* \"voting.sol\":1165:1176  candidateID */\n      dup4\n        /* \"voting.sol\":1159:1182  Voter(candidateID,true) */\n      dup2\n      mstore\n      0x20\n      add\n        /* \"voting.sol\":1177:1181  true */\n      0x01\n        /* \"voting.sol\":1159:1182  Voter(candidateID,true) */\n      iszero\n      iszero\n      dup2\n      mstore\n      pop\n        /* \"voting.sol\":1144:1150  voters */\n      0x04\n        /* \"voting.sol\":1151:1155  name */\n      dup5\n        /* \"voting.sol\":1144:1156  voters[name] */\n      mload(0x40)\n      tag_44\n      swap2\n      swap1\n      tag_45\n      jump\t// in\n    tag_44:\n      swap1\n      dup2\n      mstore\n      0x20\n      add\n      mload(0x40)\n      dup1\n      swap2\n      sub\n      swap1\n      keccak256\n        /* \"voting.sol\":1144:1182  voters[name] = Voter(candidateID,true) */\n      0x00\n      dup3\n      add\n      mload\n      dup2\n      0x00\n      add\n      sstore\n      0x20\n      dup3\n      add\n      mload\n      dup2\n      0x01\n      add\n      exp(0x0100, 0x00)\n      dup2\n      sload\n      dup2\n      0xff\n      mul\n      not\n      and\n      swap1\n      dup4\n      iszero\n      iszero\n      mul\n      or\n      swap1\n      sstore\n      pop\n      swap1\n      pop\n      pop\n        /* \"voting.sol\":1193:1229  return \"You have successfully voted\" */\n      mload(0x40)\n      dup1\n      0x40\n      add\n      0x40\n      mstore\n      dup1\n      0x1b\n      dup2\n      mstore\n      0x20\n      add\n      0x596f752068617665207375636365737366756c6c7920766f7465640000000000\n      dup2\n      mstore\n      pop\n      swap1\n      pop\n        /* \"voting.sol\":1009:1237  function voterEnrollment(string memory name,uint candidateID) public onlyAdmin returns(string memory){\r... */\n      swap3\n      swap2\n      pop\n      pop\n      jump\t// out\n        /* \"voting.sol\":586:909  function candidateEnrollment(string memory name,string memory description) public onlyAdmin returns(string memory){\r... */\n    tag_23:\n        /* \"voting.sol\":686:699  string memory */\n      0x60\n        /* \"voting.sol\":535:540  admin */\n      0x02\n      0x00\n      swap1\n      sload\n      swap1\n      0x0100\n      exp\n      swap1\n      div\n      0xffffffffffffffffffffffffffffffffffffffff\n      and\n        /* \"voting.sol\":521:540  msg.sender == admin */\n      0xffffffffffffffffffffffffffffffffffffffff\n      and\n        /* \"voting.sol\":521:531  msg.sender */\n      caller\n        /* \"voting.sol\":521:540  msg.sender == admin */\n      0xffffffffffffffffffffffffffffffffffffffff\n      and\n      eq\n        /* \"voting.sol\":513:560  require(msg.sender == admin,\"Access is Denied\") */\n      tag_47\n      jumpi\n      mload(0x40)\n      0x08c379a000000000000000000000000000000000000000000000000000000000\n      dup2\n      mstore\n      0x04\n      add\n      tag_48\n      swap1\n      tag_40\n      jump\t// in\n    tag_48:\n      mload(0x40)\n      dup1\n      swap2\n      sub\n      swap1\n      revert\n    tag_47:\n        /* \"voting.sol\":711:727  uint candidateID */\n      0x00\n        /* \"voting.sol\":730:744  noOfCandidates */\n      0x01\n      0x00\n        /* \"voting.sol\":730:746  noOfCandidates++ */\n      dup2\n      sload\n      dup1\n      swap3\n      swap2\n      swap1\n      tag_50\n      swap1\n      tag_43\n      jump\t// in\n    tag_50:\n      swap2\n      swap1\n      pop\n      sstore\n        /* \"voting.sol\":711:746  uint candidateID = noOfCandidates++ */\n      swap1\n      pop\n        /* \"voting.sol\":783:810  Candidate(name,description) */\n      mload(0x40)\n      dup1\n      0x40\n      add\n      0x40\n      mstore\n      dup1\n        /* \"voting.sol\":793:797  name */\n      dup6\n        /* \"voting.sol\":783:810  Candidate(name,description) */\n      dup2\n      mstore\n      0x20\n      add\n        /* \"voting.sol\":798:809  description */\n      dup5\n        /* \"voting.sol\":783:810  Candidate(name,description) */\n      dup2\n      mstore\n      pop\n        /* \"voting.sol\":757:767  candidates */\n      0x03\n        /* \"voting.sol\":757:780  candidates[candidateID] */\n      0x00\n        /* \"voting.sol\":768:779  candidateID */\n      dup4\n        /* \"voting.sol\":757:780  candidates[candidateID] */\n      dup2\n      mstore\n      0x20\n      add\n      swap1\n      dup2\n      mstore\n      0x20\n      add\n      0x00\n      keccak256\n        /* \"voting.sol\":757:810  candidates[candidateID] = Candidate(name,description) */\n      0x00\n      dup3\n      add\n      mload\n      dup2\n      0x00\n      add\n      swap1\n      dup1\n      mload\n      swap1\n      0x20\n      add\n      swap1\n      tag_51\n      swap3\n      swap2\n      swap1\n      tag_52\n      jump\t// in\n    tag_51:\n      pop\n      0x20\n      dup3\n      add\n      mload\n      dup2\n      0x01\n      add\n      swap1\n      dup1\n      mload\n      swap1\n      0x20\n      add\n      swap1\n      tag_53\n      swap3\n      swap2\n      swap1\n      tag_52\n      jump\t// in\n    tag_53:\n      pop\n      swap1\n      pop\n      pop\n        /* \"voting.sol\":821:901  return \"You will be added to candidate list once you are validated by the admin\" */\n      mload(0x40)\n      dup1\n      0x80\n      add\n      0x40\n      mstore\n      dup1\n      0x47\n      dup2\n      mstore\n      0x20\n      add\n      data_346ae9e229890c1b5467b3280ac50efb3a563831aa4e9bb9392fe53f7d7de7e2\n      0x47\n      swap2\n      codecopy\n      swap2\n      pop\n      pop\n        /* \"voting.sol\":586:909  function candidateEnrollment(string memory name,string memory description) public onlyAdmin returns(string memory){\r... */\n      swap3\n      swap2\n      pop\n      pop\n      jump\t// out\n        /* \"voting.sol\":149:194  mapping (uint => Candidate) public candidates */\n    tag_28:\n      mstore(0x20, 0x03)\n      dup1\n      0x00\n      mstore\n      keccak256(0x00, 0x40)\n      0x00\n      swap2\n      pop\n      swap1\n      pop\n      dup1\n      0x00\n      add\n      dup1\n      sload\n      tag_54\n      swap1\n      tag_55\n      jump\t// in\n    tag_54:\n      dup1\n      0x1f\n      add\n      0x20\n      dup1\n      swap2\n      div\n      mul\n      0x20\n      add\n      mload(0x40)\n      swap1\n      dup2\n      add\n      0x40\n      mstore\n      dup1\n      swap3\n      swap2\n      swap1\n      dup2\n      dup2\n      mstore\n      0x20\n      add\n      dup3\n      dup1\n      sload\n      tag_56\n      swap1\n      tag_55\n      jump\t// in\n    tag_56:\n      dup1\n      iszero\n      tag_57\n      jumpi\n      dup1\n      0x1f\n      lt\n      tag_58\n      jumpi\n      0x0100\n      dup1\n      dup4\n      sload\n      div\n      mul\n      dup4\n      mstore\n      swap2\n      0x20\n      add\n      swap2\n      jump(tag_57)\n    tag_58:\n      dup3\n      add\n      swap2\n      swap1\n      0x00\n      mstore\n      keccak256(0x00, 0x20)\n      swap1\n    tag_59:\n      dup2\n      sload\n      dup2\n      mstore\n      swap1\n      0x01\n      add\n      swap1\n      0x20\n      add\n      dup1\n      dup4\n      gt\n      tag_59\n      jumpi\n      dup3\n      swap1\n      sub\n      0x1f\n      and\n      dup3\n      add\n      swap2\n    tag_57:\n      pop\n      pop\n      pop\n      pop\n      pop\n      swap1\n      dup1\n      0x01\n      add\n      dup1\n      sload\n      tag_60\n      swap1\n      tag_55\n      jump\t// in\n    tag_60:\n      dup1\n      0x1f\n      add\n      0x20\n      dup1\n      swap2\n      div\n      mul\n      0x20\n      add\n      mload(0x40)\n      swap1\n      dup2\n      add\n      0x40\n      mstore\n      dup1\n      swap3\n      swap2\n      swap1\n      dup2\n      dup2\n      mstore\n      0x20\n      add\n      dup3\n      dup1\n      sload\n      tag_61\n      swap1\n      tag_55\n      jump\t// in\n    tag_61:\n      dup1\n      iszero\n      tag_62\n      jumpi\n      dup1\n      0x1f\n      lt\n      tag_63\n      jumpi\n      0x0100\n      dup1\n      dup4\n      sload\n      div\n      mul\n      dup4\n      mstore\n      swap2\n      0x20\n      add\n      swap2\n      jump(tag_62)\n    tag_63:\n      dup3\n      add\n      swap2\n      swap1\n      0x00\n      mstore\n      keccak256(0x00, 0x20)\n      swap1\n    tag_64:\n      dup2\n      sload\n      dup2\n      mstore\n      swap1\n      0x01\n      add\n      swap1\n      0x20\n      add\n      dup1\n      dup4\n      gt\n      tag_64\n      jumpi\n      dup3\n      swap1\n      sub\n      0x1f\n      and\n      dup3\n      add\n      swap2\n    tag_62:\n      pop\n      pop\n      pop\n      pop\n      pop\n      swap1\n      pop\n      dup3\n      jump\t// out\n        /* \"voting.sol\":201:240  mapping (string => Voter) public voters */\n    tag_33:\n      0x04\n      dup2\n      dup1\n      mload\n      0x20\n      dup2\n      add\n      dup3\n      add\n      dup1\n      mload\n      dup5\n      dup3\n      mstore\n      0x20\n      dup4\n      add\n      0x20\n      dup6\n      add\n      keccak256\n      dup2\n      dup4\n      mstore\n      dup1\n      swap6\n      pop\n      pop\n      pop\n      pop\n      pop\n      pop\n      0x00\n      swap2\n      pop\n      swap1\n      pop\n      dup1\n      0x00\n      add\n      sload\n      swap1\n      dup1\n      0x01\n      add\n      0x00\n      swap1\n      sload\n      swap1\n      0x0100\n      exp\n      swap1\n      div\n      0xff\n      and\n      swap1\n      pop\n      dup3\n      jump\t// out\n    tag_52:\n      dup3\n      dup1\n      sload\n      tag_65\n      swap1\n      tag_55\n      jump\t// in\n    tag_65:\n      swap1\n      0x00\n      mstore\n      keccak256(0x00, 0x20)\n      swap1\n      0x1f\n      add\n      0x20\n      swap1\n      div\n      dup2\n      add\n      swap3\n      dup3\n      tag_67\n      jumpi\n      0x00\n      dup6\n      sstore\n      jump(tag_66)\n    tag_67:\n      dup3\n      0x1f\n      lt\n      tag_68\n      jumpi\n      dup1\n      mload\n      not(0xff)\n      and\n      dup4\n      dup1\n      add\n      or\n      dup6\n      sstore\n      jump(tag_66)\n    tag_68:\n      dup3\n      dup1\n      add\n      0x01\n      add\n      dup6\n      sstore\n      dup3\n      iszero\n      tag_66\n      jumpi\n      swap2\n      dup3\n      add\n    tag_69:\n      dup3\n      dup2\n      gt\n      iszero\n      tag_70\n      jumpi\n      dup3\n      mload\n      dup3\n      sstore\n      swap2\n      0x20\n      add\n      swap2\n      swap1\n      0x01\n      add\n      swap1\n      jump(tag_69)\n    tag_70:\n    tag_66:\n      pop\n      swap1\n      pop\n      tag_71\n      swap2\n      swap1\n      tag_72\n      jump\t// in\n    tag_71:\n      pop\n      swap1\n      jump\t// out\n    tag_72:\n    tag_73:\n      dup1\n      dup3\n      gt\n      iszero\n      tag_74\n      jumpi\n      0x00\n      dup2\n      0x00\n      swap1\n      sstore\n      pop\n      0x01\n      add\n      jump(tag_73)\n    tag_74:\n      pop\n      swap1\n      jump\t// out\n        /* \"#utility.yul\":7:419   */\n    tag_76:\n        /* \"#utility.yul\":85:90   */\n      0x00\n        /* \"#utility.yul\":110:176   */\n      tag_78\n        /* \"#utility.yul\":126:175   */\n      tag_79\n        /* \"#utility.yul\":168:174   */\n      dup5\n        /* \"#utility.yul\":126:175   */\n      tag_80\n      jump\t// in\n    tag_79:\n        /* \"#utility.yul\":110:176   */\n      tag_81\n      jump\t// in\n    tag_78:\n        /* \"#utility.yul\":101:176   */\n      swap1\n      pop\n        /* \"#utility.yul\":199:205   */\n      dup3\n        /* \"#utility.yul\":192:197   */\n      dup2\n        /* \"#utility.yul\":185:206   */\n      mstore\n        /* \"#utility.yul\":237:241   */\n      0x20\n        /* \"#utility.yul\":230:235   */\n      dup2\n        /* \"#utility.yul\":226:242   */\n      add\n        /* \"#utility.yul\":275:278   */\n      dup5\n        /* \"#utility.yul\":266:272   */\n      dup5\n        /* \"#utility.yul\":261:264   */\n      dup5\n        /* \"#utility.yul\":257:273   */\n      add\n        /* \"#utility.yul\":254:279   */\n      gt\n        /* \"#utility.yul\":251:363   */\n      iszero\n      tag_82\n      jumpi\n        /* \"#utility.yul\":282:361   */\n      tag_83\n      tag_84\n      jump\t// in\n    tag_83:\n        /* \"#utility.yul\":251:363   */\n    tag_82:\n        /* \"#utility.yul\":372:413   */\n      tag_85\n        /* \"#utility.yul\":406:412   */\n      dup5\n        /* \"#utility.yul\":401:404   */\n      dup3\n        /* \"#utility.yul\":396:399   */\n      dup6\n        /* \"#utility.yul\":372:413   */\n      tag_86\n      jump\t// in\n    tag_85:\n        /* \"#utility.yul\":91:419   */\n      pop\n        /* \"#utility.yul\":7:419   */\n      swap4\n      swap3\n      pop\n      pop\n      pop\n      jump\t// out\n        /* \"#utility.yul\":439:779   */\n    tag_87:\n        /* \"#utility.yul\":495:500   */\n      0x00\n        /* \"#utility.yul\":544:547   */\n      dup3\n        /* \"#utility.yul\":537:541   */\n      0x1f\n        /* \"#utility.yul\":529:535   */\n      dup4\n        /* \"#utility.yul\":525:542   */\n      add\n        /* \"#utility.yul\":521:548   */\n      slt\n        /* \"#utility.yul\":511:633   */\n      tag_89\n      jumpi\n        /* \"#utility.yul\":552:631   */\n      tag_90\n      tag_91\n      jump\t// in\n    tag_90:\n        /* \"#utility.yul\":511:633   */\n    tag_89:\n        /* \"#utility.yul\":669:675   */\n      dup2\n        /* \"#utility.yul\":656:676   */\n      calldataload\n        /* \"#utility.yul\":694:773   */\n      tag_92\n        /* \"#utility.yul\":769:772   */\n      dup5\n        /* \"#utility.yul\":761:767   */\n      dup3\n        /* \"#utility.yul\":754:758   */\n      0x20\n        /* \"#utility.yul\":746:752   */\n      dup7\n        /* \"#utility.yul\":742:759   */\n      add\n        /* \"#utility.yul\":694:773   */\n      tag_76\n      jump\t// in\n    tag_92:\n        /* \"#utility.yul\":685:773   */\n      swap2\n      pop\n        /* \"#utility.yul\":501:779   */\n      pop\n        /* \"#utility.yul\":439:779   */\n      swap3\n      swap2\n      pop\n      pop\n      jump\t// out\n        /* \"#utility.yul\":785:924   */\n    tag_93:\n        /* \"#utility.yul\":831:836   */\n      0x00\n        /* \"#utility.yul\":869:875   */\n      dup2\n        /* \"#utility.yul\":856:876   */\n      calldataload\n        /* \"#utility.yul\":847:876   */\n      swap1\n      pop\n        /* \"#utility.yul\":885:918   */\n      tag_95\n        /* \"#utility.yul\":912:917   */\n      dup2\n        /* \"#utility.yul\":885:918   */\n      tag_96\n      jump\t// in\n    tag_95:\n        /* \"#utility.yul\":785:924   */\n      swap3\n      swap2\n      pop\n      pop\n      jump\t// out\n        /* \"#utility.yul\":930:1439   */\n    tag_10:\n        /* \"#utility.yul\":999:1005   */\n      0x00\n        /* \"#utility.yul\":1048:1050   */\n      0x20\n        /* \"#utility.yul\":1036:1045   */\n      dup3\n        /* \"#utility.yul\":1027:1034   */\n      dup5\n        /* \"#utility.yul\":1023:1046   */\n      sub\n        /* \"#utility.yul\":1019:1051   */\n      slt\n        /* \"#utility.yul\":1016:1135   */\n      iszero\n      tag_98\n      jumpi\n        /* \"#utility.yul\":1054:1133   */\n      tag_99\n      tag_100\n      jump\t// in\n    tag_99:\n        /* \"#utility.yul\":1016:1135   */\n    tag_98:\n        /* \"#utility.yul\":1202:1203   */\n      0x00\n        /* \"#utility.yul\":1191:1200   */\n      dup3\n        /* \"#utility.yul\":1187:1204   */\n      add\n        /* \"#utility.yul\":1174:1205   */\n      calldataload\n        /* \"#utility.yul\":1232:1250   */\n      0xffffffffffffffff\n        /* \"#utility.yul\":1224:1230   */\n      dup2\n        /* \"#utility.yul\":1221:1251   */\n      gt\n        /* \"#utility.yul\":1218:1335   */\n      iszero\n      tag_101\n      jumpi\n        /* \"#utility.yul\":1254:1333   */\n      tag_102\n      tag_103\n      jump\t// in\n    tag_102:\n        /* \"#utility.yul\":1218:1335   */\n    tag_101:\n        /* \"#utility.yul\":1359:1422   */\n      tag_104\n        /* \"#utility.yul\":1414:1421   */\n      dup5\n        /* \"#utility.yul\":1405:1411   */\n      dup3\n        /* \"#utility.yul\":1394:1403   */\n      dup6\n        /* \"#utility.yul\":1390:1412   */\n      add\n        /* \"#utility.yul\":1359:1422   */\n      tag_87\n      jump\t// in\n    tag_104:\n        /* \"#utility.yul\":1349:1422   */\n      swap2\n      pop\n        /* \"#utility.yul\":1145:1432   */\n      pop\n        /* \"#utility.yul\":930:1439   */\n      swap3\n      swap2\n      pop\n      pop\n      jump\t// out\n        /* \"#utility.yul\":1445:2279   */\n    tag_22:\n        /* \"#utility.yul\":1533:1539   */\n      0x00\n        /* \"#utility.yul\":1541:1547   */\n      dup1\n        /* \"#utility.yul\":1590:1592   */\n      0x40\n        /* \"#utility.yul\":1578:1587   */\n      dup4\n        /* \"#utility.yul\":1569:1576   */\n      dup6\n        /* \"#utility.yul\":1565:1588   */\n      sub\n        /* \"#utility.yul\":1561:1593   */\n      slt\n        /* \"#utility.yul\":1558:1677   */\n      iszero\n      tag_106\n      jumpi\n        /* \"#utility.yul\":1596:1675   */\n      tag_107\n      tag_100\n      jump\t// in\n    tag_107:\n        /* \"#utility.yul\":1558:1677   */\n    tag_106:\n        /* \"#utility.yul\":1744:1745   */\n      0x00\n        /* \"#utility.yul\":1733:1742   */\n      dup4\n        /* \"#utility.yul\":1729:1746   */\n      add\n        /* \"#utility.yul\":1716:1747   */\n      calldataload\n        /* \"#utility.yul\":1774:1792   */\n      0xffffffffffffffff\n        /* \"#utility.yul\":1766:1772   */\n      dup2\n        /* \"#utility.yul\":1763:1793   */\n      gt\n        /* \"#utility.yul\":1760:1877   */\n      iszero\n      tag_108\n      jumpi\n        /* \"#utility.yul\":1796:1875   */\n      tag_109\n      tag_103\n      jump\t// in\n    tag_109:\n        /* \"#utility.yul\":1760:1877   */\n    tag_108:\n        /* \"#utility.yul\":1901:1964   */\n      tag_110\n        /* \"#utility.yul\":1956:1963   */\n      dup6\n        /* \"#utility.yul\":1947:1953   */\n      dup3\n        /* \"#utility.yul\":1936:1945   */\n      dup7\n        /* \"#utility.yul\":1932:1954   */\n      add\n        /* \"#utility.yul\":1901:1964   */\n      tag_87\n      jump\t// in\n    tag_110:\n        /* \"#utility.yul\":1891:1964   */\n      swap3\n      pop\n        /* \"#utility.yul\":1687:1974   */\n      pop\n        /* \"#utility.yul\":2041:2043   */\n      0x20\n        /* \"#utility.yul\":2030:2039   */\n      dup4\n        /* \"#utility.yul\":2026:2044   */\n      add\n        /* \"#utility.yul\":2013:2045   */\n      calldataload\n        /* \"#utility.yul\":2072:2090   */\n      0xffffffffffffffff\n        /* \"#utility.yul\":2064:2070   */\n      dup2\n        /* \"#utility.yul\":2061:2091   */\n      gt\n        /* \"#utility.yul\":2058:2175   */\n      iszero\n      tag_111\n      jumpi\n        /* \"#utility.yul\":2094:2173   */\n      tag_112\n      tag_103\n      jump\t// in\n    tag_112:\n        /* \"#utility.yul\":2058:2175   */\n    tag_111:\n        /* \"#utility.yul\":2199:2262   */\n      tag_113\n        /* \"#utility.yul\":2254:2261   */\n      dup6\n        /* \"#utility.yul\":2245:2251   */\n      dup3\n        /* \"#utility.yul\":2234:2243   */\n      dup7\n        /* \"#utility.yul\":2230:2252   */\n      add\n        /* \"#utility.yul\":2199:2262   */\n      tag_87\n      jump\t// in\n    tag_113:\n        /* \"#utility.yul\":2189:2262   */\n      swap2\n      pop\n        /* \"#utility.yul\":1984:2272   */\n      pop\n        /* \"#utility.yul\":1445:2279   */\n      swap3\n      pop\n      swap3\n      swap1\n      pop\n      jump\t// out\n        /* \"#utility.yul\":2285:2939   */\n    tag_16:\n        /* \"#utility.yul\":2363:2369   */\n      0x00\n        /* \"#utility.yul\":2371:2377   */\n      dup1\n        /* \"#utility.yul\":2420:2422   */\n      0x40\n        /* \"#utility.yul\":2408:2417   */\n      dup4\n        /* \"#utility.yul\":2399:2406   */\n      dup6\n        /* \"#utility.yul\":2395:2418   */\n      sub\n        /* \"#utility.yul\":2391:2423   */\n      slt\n        /* \"#utility.yul\":2388:2507   */\n      iszero\n      tag_115\n      jumpi\n        /* \"#utility.yul\":2426:2505   */\n      tag_116\n      tag_100\n      jump\t// in\n    tag_116:\n        /* \"#utility.yul\":2388:2507   */\n    tag_115:\n        /* \"#utility.yul\":2574:2575   */\n      0x00\n        /* \"#utility.yul\":2563:2572   */\n      dup4\n        /* \"#utility.yul\":2559:2576   */\n      add\n        /* \"#utility.yul\":2546:2577   */\n      calldataload\n        /* \"#utility.yul\":2604:2622   */\n      0xffffffffffffffff\n        /* \"#utility.yul\":2596:2602   */\n      dup2\n        /* \"#utility.yul\":2593:2623   */\n      gt\n        /* \"#utility.yul\":2590:2707   */\n      iszero\n      tag_117\n      jumpi\n        /* \"#utility.yul\":2626:2705   */\n      tag_118\n      tag_103\n      jump\t// in\n    tag_118:\n        /* \"#utility.yul\":2590:2707   */\n    tag_117:\n        /* \"#utility.yul\":2731:2794   */\n      tag_119\n        /* \"#utility.yul\":2786:2793   */\n      dup6\n        /* \"#utility.yul\":2777:2783   */\n      dup3\n        /* \"#utility.yul\":2766:2775   */\n      dup7\n        /* \"#utility.yul\":2762:2784   */\n      add\n        /* \"#utility.yul\":2731:2794   */\n      tag_87\n      jump\t// in\n    tag_119:\n        /* \"#utility.yul\":2721:2794   */\n      swap3\n      pop\n        /* \"#utility.yul\":2517:2804   */\n      pop\n        /* \"#utility.yul\":2843:2845   */\n      0x20\n        /* \"#utility.yul\":2869:2922   */\n      tag_120\n        /* \"#utility.yul\":2914:2921   */\n      dup6\n        /* \"#utility.yul\":2905:2911   */\n      dup3\n        /* \"#utility.yul\":2894:2903   */\n      dup7\n        /* \"#utility.yul\":2890:2912   */\n      add\n        /* \"#utility.yul\":2869:2922   */\n      tag_93\n      jump\t// in\n    tag_120:\n        /* \"#utility.yul\":2859:2922   */\n      swap2\n      pop\n        /* \"#utility.yul\":2814:2932   */\n      pop\n        /* \"#utility.yul\":2285:2939   */\n      swap3\n      pop\n      swap3\n      swap1\n      pop\n      jump\t// out\n        /* \"#utility.yul\":2945:3274   */\n    tag_27:\n        /* \"#utility.yul\":3004:3010   */\n      0x00\n        /* \"#utility.yul\":3053:3055   */\n      0x20\n        /* \"#utility.yul\":3041:3050   */\n      dup3\n        /* \"#utility.yul\":3032:3039   */\n      dup5\n        /* \"#utility.yul\":3028:3051   */\n      sub\n        /* \"#utility.yul\":3024:3056   */\n      slt\n        /* \"#utility.yul\":3021:3140   */\n      iszero\n      tag_122\n      jumpi\n        /* \"#utility.yul\":3059:3138   */\n      tag_123\n      tag_100\n      jump\t// in\n    tag_123:\n        /* \"#utility.yul\":3021:3140   */\n    tag_122:\n        /* \"#utility.yul\":3179:3180   */\n      0x00\n        /* \"#utility.yul\":3204:3257   */\n      tag_124\n        /* \"#utility.yul\":3249:3256   */\n      dup5\n        /* \"#utility.yul\":3240:3246   */\n      dup3\n        /* \"#utility.yul\":3229:3238   */\n      dup6\n        /* \"#utility.yul\":3225:3247   */\n      add\n        /* \"#utility.yul\":3204:3257   */\n      tag_93\n      jump\t// in\n    tag_124:\n        /* \"#utility.yul\":3194:3257   */\n      swap2\n      pop\n        /* \"#utility.yul\":3150:3267   */\n      pop\n        /* \"#utility.yul\":2945:3274   */\n      swap3\n      swap2\n      pop\n      pop\n      jump\t// out\n        /* \"#utility.yul\":3280:3389   */\n    tag_125:\n        /* \"#utility.yul\":3361:3382   */\n      tag_127\n        /* \"#utility.yul\":3376:3381   */\n      dup2\n        /* \"#utility.yul\":3361:3382   */\n      tag_128\n      jump\t// in\n    tag_127:\n        /* \"#utility.yul\":3356:3359   */\n      dup3\n        /* \"#utility.yul\":3349:3383   */\n      mstore\n        /* \"#utility.yul\":3280:3389   */\n      pop\n      pop\n      jump\t// out\n        /* \"#utility.yul\":3395:3759   */\n    tag_129:\n        /* \"#utility.yul\":3483:3486   */\n      0x00\n        /* \"#utility.yul\":3511:3550   */\n      tag_131\n        /* \"#utility.yul\":3544:3549   */\n      dup3\n        /* \"#utility.yul\":3511:3550   */\n      tag_132\n      jump\t// in\n    tag_131:\n        /* \"#utility.yul\":3566:3637   */\n      tag_133\n        /* \"#utility.yul\":3630:3636   */\n      dup2\n        /* \"#utility.yul\":3625:3628   */\n      dup6\n        /* \"#utility.yul\":3566:3637   */\n      tag_134\n      jump\t// in\n    tag_133:\n        /* \"#utility.yul\":3559:3637   */\n      swap4\n      pop\n        /* \"#utility.yul\":3646:3698   */\n      tag_135\n        /* \"#utility.yul\":3691:3697   */\n      dup2\n        /* \"#utility.yul\":3686:3689   */\n      dup6\n        /* \"#utility.yul\":3679:3683   */\n      0x20\n        /* \"#utility.yul\":3672:3677   */\n      dup7\n        /* \"#utility.yul\":3668:3684   */\n      add\n        /* \"#utility.yul\":3646:3698   */\n      tag_136\n      jump\t// in\n    tag_135:\n        /* \"#utility.yul\":3723:3752   */\n      tag_137\n        /* \"#utility.yul\":3745:3751   */\n      dup2\n        /* \"#utility.yul\":3723:3752   */\n      tag_138\n      jump\t// in\n    tag_137:\n        /* \"#utility.yul\":3718:3721   */\n      dup5\n        /* \"#utility.yul\":3714:3753   */\n      add\n        /* \"#utility.yul\":3707:3753   */\n      swap2\n      pop\n        /* \"#utility.yul\":3487:3759   */\n      pop\n        /* \"#utility.yul\":3395:3759   */\n      swap3\n      swap2\n      pop\n      pop\n      jump\t// out\n        /* \"#utility.yul\":3765:4142   */\n    tag_139:\n        /* \"#utility.yul\":3871:3874   */\n      0x00\n        /* \"#utility.yul\":3899:3938   */\n      tag_141\n        /* \"#utility.yul\":3932:3937   */\n      dup3\n        /* \"#utility.yul\":3899:3938   */\n      tag_132\n      jump\t// in\n    tag_141:\n        /* \"#utility.yul\":3954:4043   */\n      tag_142\n        /* \"#utility.yul\":4036:4042   */\n      dup2\n        /* \"#utility.yul\":4031:4034   */\n      dup6\n        /* \"#utility.yul\":3954:4043   */\n      tag_143\n      jump\t// in\n    tag_142:\n        /* \"#utility.yul\":3947:4043   */\n      swap4\n      pop\n        /* \"#utility.yul\":4052:4104   */\n      tag_144\n        /* \"#utility.yul\":4097:4103   */\n      dup2\n        /* \"#utility.yul\":4092:4095   */\n      dup6\n        /* \"#utility.yul\":4085:4089   */\n      0x20\n        /* \"#utility.yul\":4078:4083   */\n      dup7\n        /* \"#utility.yul\":4074:4090   */\n      add\n        /* \"#utility.yul\":4052:4104   */\n      tag_136\n      jump\t// in\n    tag_144:\n        /* \"#utility.yul\":4129:4135   */\n      dup1\n        /* \"#utility.yul\":4124:4127   */\n      dup5\n        /* \"#utility.yul\":4120:4136   */\n      add\n        /* \"#utility.yul\":4113:4136   */\n      swap2\n      pop\n        /* \"#utility.yul\":3875:4142   */\n      pop\n        /* \"#utility.yul\":3765:4142   */\n      swap3\n      swap2\n      pop\n      pop\n      jump\t// out\n        /* \"#utility.yul\":4148:4514   */\n    tag_145:\n        /* \"#utility.yul\":4290:4293   */\n      0x00\n        /* \"#utility.yul\":4311:4378   */\n      tag_147\n        /* \"#utility.yul\":4375:4377   */\n      0x10\n        /* \"#utility.yul\":4370:4373   */\n      dup4\n        /* \"#utility.yul\":4311:4378   */\n      tag_134\n      jump\t// in\n    tag_147:\n        /* \"#utility.yul\":4304:4378   */\n      swap2\n      pop\n        /* \"#utility.yul\":4387:4480   */\n      tag_148\n        /* \"#utility.yul\":4476:4479   */\n      dup3\n        /* \"#utility.yul\":4387:4480   */\n      tag_149\n      jump\t// in\n    tag_148:\n        /* \"#utility.yul\":4505:4507   */\n      0x20\n        /* \"#utility.yul\":4500:4503   */\n      dup3\n        /* \"#utility.yul\":4496:4508   */\n      add\n        /* \"#utility.yul\":4489:4508   */\n      swap1\n      pop\n        /* \"#utility.yul\":4148:4514   */\n      swap2\n      swap1\n      pop\n      jump\t// out\n        /* \"#utility.yul\":4520:4638   */\n    tag_150:\n        /* \"#utility.yul\":4607:4631   */\n      tag_152\n        /* \"#utility.yul\":4625:4630   */\n      dup2\n        /* \"#utility.yul\":4607:4631   */\n      tag_153\n      jump\t// in\n    tag_152:\n        /* \"#utility.yul\":4602:4605   */\n      dup3\n        /* \"#utility.yul\":4595:4632   */\n      mstore\n        /* \"#utility.yul\":4520:4638   */\n      pop\n      pop\n      jump\t// out\n        /* \"#utility.yul\":4644:4919   */\n    tag_45:\n        /* \"#utility.yul\":4776:4779   */\n      0x00\n        /* \"#utility.yul\":4798:4893   */\n      tag_155\n        /* \"#utility.yul\":4889:4892   */\n      dup3\n        /* \"#utility.yul\":4880:4886   */\n      dup5\n        /* \"#utility.yul\":4798:4893   */\n      tag_139\n      jump\t// in\n    tag_155:\n        /* \"#utility.yul\":4791:4893   */\n      swap2\n      pop\n        /* \"#utility.yul\":4910:4913   */\n      dup2\n        /* \"#utility.yul\":4903:4913   */\n      swap1\n      pop\n        /* \"#utility.yul\":4644:4919   */\n      swap3\n      swap2\n      pop\n      pop\n      jump\t// out\n        /* \"#utility.yul\":4925:5238   */\n    tag_19:\n        /* \"#utility.yul\":5038:5042   */\n      0x00\n        /* \"#utility.yul\":5076:5078   */\n      0x20\n        /* \"#utility.yul\":5065:5074   */\n      dup3\n        /* \"#utility.yul\":5061:5079   */\n      add\n        /* \"#utility.yul\":5053:5079   */\n      swap1\n      pop\n        /* \"#utility.yul\":5125:5134   */\n      dup2\n        /* \"#utility.yul\":5119:5123   */\n      dup2\n        /* \"#utility.yul\":5115:5135   */\n      sub\n        /* \"#utility.yul\":5111:5112   */\n      0x00\n        /* \"#utility.yul\":5100:5109   */\n      dup4\n        /* \"#utility.yul\":5096:5113   */\n      add\n        /* \"#utility.yul\":5089:5136   */\n      mstore\n        /* \"#utility.yul\":5153:5231   */\n      tag_157\n        /* \"#utility.yul\":5226:5230   */\n      dup2\n        /* \"#utility.yul\":5217:5223   */\n      dup5\n        /* \"#utility.yul\":5153:5231   */\n      tag_129\n      jump\t// in\n    tag_157:\n        /* \"#utility.yul\":5145:5231   */\n      swap1\n      pop\n        /* \"#utility.yul\":4925:5238   */\n      swap3\n      swap2\n      pop\n      pop\n      jump\t// out\n        /* \"#utility.yul\":5244:5758   */\n    tag_30:\n        /* \"#utility.yul\":5405:5409   */\n      0x00\n        /* \"#utility.yul\":5443:5445   */\n      0x40\n        /* \"#utility.yul\":5432:5441   */\n      dup3\n        /* \"#utility.yul\":5428:5446   */\n      add\n        /* \"#utility.yul\":5420:5446   */\n      swap1\n      pop\n        /* \"#utility.yul\":5492:5501   */\n      dup2\n        /* \"#utility.yul\":5486:5490   */\n      dup2\n        /* \"#utility.yul\":5482:5502   */\n      sub\n        /* \"#utility.yul\":5478:5479   */\n      0x00\n        /* \"#utility.yul\":5467:5476   */\n      dup4\n        /* \"#utility.yul\":5463:5480   */\n      add\n        /* \"#utility.yul\":5456:5503   */\n      mstore\n        /* \"#utility.yul\":5520:5598   */\n      tag_159\n        /* \"#utility.yul\":5593:5597   */\n      dup2\n        /* \"#utility.yul\":5584:5590   */\n      dup6\n        /* \"#utility.yul\":5520:5598   */\n      tag_129\n      jump\t// in\n    tag_159:\n        /* \"#utility.yul\":5512:5598   */\n      swap1\n      pop\n        /* \"#utility.yul\":5645:5654   */\n      dup2\n        /* \"#utility.yul\":5639:5643   */\n      dup2\n        /* \"#utility.yul\":5635:5655   */\n      sub\n        /* \"#utility.yul\":5630:5632   */\n      0x20\n        /* \"#utility.yul\":5619:5628   */\n      dup4\n        /* \"#utility.yul\":5615:5633   */\n      add\n        /* \"#utility.yul\":5608:5656   */\n      mstore\n        /* \"#utility.yul\":5673:5751   */\n      tag_160\n        /* \"#utility.yul\":5746:5750   */\n      dup2\n        /* \"#utility.yul\":5737:5743   */\n      dup5\n        /* \"#utility.yul\":5673:5751   */\n      tag_129\n      jump\t// in\n    tag_160:\n        /* \"#utility.yul\":5665:5751   */\n      swap1\n      pop\n        /* \"#utility.yul\":5244:5758   */\n      swap4\n      swap3\n      pop\n      pop\n      pop\n      jump\t// out\n        /* \"#utility.yul\":5764:6183   */\n    tag_40:\n        /* \"#utility.yul\":5930:5934   */\n      0x00\n        /* \"#utility.yul\":5968:5970   */\n      0x20\n        /* \"#utility.yul\":5957:5966   */\n      dup3\n        /* \"#utility.yul\":5953:5971   */\n      add\n        /* \"#utility.yul\":5945:5971   */\n      swap1\n      pop\n        /* \"#utility.yul\":6017:6026   */\n      dup2\n        /* \"#utility.yul\":6011:6015   */\n      dup2\n        /* \"#utility.yul\":6007:6027   */\n      sub\n        /* \"#utility.yul\":6003:6004   */\n      0x00\n        /* \"#utility.yul\":5992:6001   */\n      dup4\n        /* \"#utility.yul\":5988:6005   */\n      add\n        /* \"#utility.yul\":5981:6028   */\n      mstore\n        /* \"#utility.yul\":6045:6176   */\n      tag_162\n        /* \"#utility.yul\":6171:6175   */\n      dup2\n        /* \"#utility.yul\":6045:6176   */\n      tag_145\n      jump\t// in\n    tag_162:\n        /* \"#utility.yul\":6037:6176   */\n      swap1\n      pop\n        /* \"#utility.yul\":5764:6183   */\n      swap2\n      swap1\n      pop\n      jump\t// out\n        /* \"#utility.yul\":6189:6411   */\n    tag_13:\n        /* \"#utility.yul\":6282:6286   */\n      0x00\n        /* \"#utility.yul\":6320:6322   */\n      0x20\n        /* \"#utility.yul\":6309:6318   */\n      dup3\n        /* \"#utility.yul\":6305:6323   */\n      add\n        /* \"#utility.yul\":6297:6323   */\n      swap1\n      pop\n        /* \"#utility.yul\":6333:6404   */\n      tag_164\n        /* \"#utility.yul\":6401:6402   */\n      0x00\n        /* \"#utility.yul\":6390:6399   */\n      dup4\n        /* \"#utility.yul\":6386:6403   */\n      add\n        /* \"#utility.yul\":6377:6383   */\n      dup5\n        /* \"#utility.yul\":6333:6404   */\n      tag_150\n      jump\t// in\n    tag_164:\n        /* \"#utility.yul\":6189:6411   */\n      swap3\n      swap2\n      pop\n      pop\n      jump\t// out\n        /* \"#utility.yul\":6417:6737   */\n    tag_35:\n        /* \"#utility.yul\":6532:6536   */\n      0x00\n        /* \"#utility.yul\":6570:6572   */\n      0x40\n        /* \"#utility.yul\":6559:6568   */\n      dup3\n        /* \"#utility.yul\":6555:6573   */\n      add\n        /* \"#utility.yul\":6547:6573   */\n      swap1\n      pop\n        /* \"#utility.yul\":6583:6654   */\n      tag_166\n        /* \"#utility.yul\":6651:6652   */\n      0x00\n        /* \"#utility.yul\":6640:6649   */\n      dup4\n        /* \"#utility.yul\":6636:6653   */\n      add\n        /* \"#utility.yul\":6627:6633   */\n      dup6\n        /* \"#utility.yul\":6583:6654   */\n      tag_150\n      jump\t// in\n    tag_166:\n        /* \"#utility.yul\":6664:6730   */\n      tag_167\n        /* \"#utility.yul\":6726:6728   */\n      0x20\n        /* \"#utility.yul\":6715:6724   */\n      dup4\n        /* \"#utility.yul\":6711:6729   */\n      add\n        /* \"#utility.yul\":6702:6708   */\n      dup5\n        /* \"#utility.yul\":6664:6730   */\n      tag_125\n      jump\t// in\n    tag_167:\n        /* \"#utility.yul\":6417:6737   */\n      swap4\n      swap3\n      pop\n      pop\n      pop\n      jump\t// out\n        /* \"#utility.yul\":6743:6872   */\n    tag_81:\n        /* \"#utility.yul\":6777:6783   */\n      0x00\n        /* \"#utility.yul\":6804:6824   */\n      tag_169\n      tag_170\n      jump\t// in\n    tag_169:\n        /* \"#utility.yul\":6794:6824   */\n      swap1\n      pop\n        /* \"#utility.yul\":6833:6866   */\n      tag_171\n        /* \"#utility.yul\":6861:6865   */\n      dup3\n        /* \"#utility.yul\":6853:6859   */\n      dup3\n        /* \"#utility.yul\":6833:6866   */\n      tag_172\n      jump\t// in\n    tag_171:\n        /* \"#utility.yul\":6743:6872   */\n      swap2\n      swap1\n      pop\n      jump\t// out\n        /* \"#utility.yul\":6878:6953   */\n    tag_170:\n        /* \"#utility.yul\":6911:6917   */\n      0x00\n        /* \"#utility.yul\":6944:6946   */\n      0x40\n        /* \"#utility.yul\":6938:6947   */\n      mload\n        /* \"#utility.yul\":6928:6947   */\n      swap1\n      pop\n        /* \"#utility.yul\":6878:6953   */\n      swap1\n      jump\t// out\n        /* \"#utility.yul\":6959:7267   */\n    tag_80:\n        /* \"#utility.yul\":7021:7025   */\n      0x00\n        /* \"#utility.yul\":7111:7129   */\n      0xffffffffffffffff\n        /* \"#utility.yul\":7103:7109   */\n      dup3\n        /* \"#utility.yul\":7100:7130   */\n      gt\n        /* \"#utility.yul\":7097:7153   */\n      iszero\n      tag_175\n      jumpi\n        /* \"#utility.yul\":7133:7151   */\n      tag_176\n      tag_177\n      jump\t// in\n    tag_176:\n        /* \"#utility.yul\":7097:7153   */\n    tag_175:\n        /* \"#utility.yul\":7171:7200   */\n      tag_178\n        /* \"#utility.yul\":7193:7199   */\n      dup3\n        /* \"#utility.yul\":7171:7200   */\n      tag_138\n      jump\t// in\n    tag_178:\n        /* \"#utility.yul\":7163:7200   */\n      swap1\n      pop\n        /* \"#utility.yul\":7255:7259   */\n      0x20\n        /* \"#utility.yul\":7249:7253   */\n      dup2\n        /* \"#utility.yul\":7245:7260   */\n      add\n        /* \"#utility.yul\":7237:7260   */\n      swap1\n      pop\n        /* \"#utility.yul\":6959:7267   */\n      swap2\n      swap1\n      pop\n      jump\t// out\n        /* \"#utility.yul\":7273:7372   */\n    tag_132:\n        /* \"#utility.yul\":7325:7331   */\n      0x00\n        /* \"#utility.yul\":7359:7364   */\n      dup2\n        /* \"#utility.yul\":7353:7365   */\n      mload\n        /* \"#utility.yul\":7343:7365   */\n      swap1\n      pop\n        /* \"#utility.yul\":7273:7372   */\n      swap2\n      swap1\n      pop\n      jump\t// out\n        /* \"#utility.yul\":7378:7547   */\n    tag_134:\n        /* \"#utility.yul\":7462:7473   */\n      0x00\n        /* \"#utility.yul\":7496:7502   */\n      dup3\n        /* \"#utility.yul\":7491:7494   */\n      dup3\n        /* \"#utility.yul\":7484:7503   */\n      mstore\n        /* \"#utility.yul\":7536:7540   */\n      0x20\n        /* \"#utility.yul\":7531:7534   */\n      dup3\n        /* \"#utility.yul\":7527:7541   */\n      add\n        /* \"#utility.yul\":7512:7541   */\n      swap1\n      pop\n        /* \"#utility.yul\":7378:7547   */\n      swap3\n      swap2\n      pop\n      pop\n      jump\t// out\n        /* \"#utility.yul\":7553:7701   */\n    tag_143:\n        /* \"#utility.yul\":7655:7666   */\n      0x00\n        /* \"#utility.yul\":7692:7695   */\n      dup2\n        /* \"#utility.yul\":7677:7695   */\n      swap1\n      pop\n        /* \"#utility.yul\":7553:7701   */\n      swap3\n      swap2\n      pop\n      pop\n      jump\t// out\n        /* \"#utility.yul\":7707:7797   */\n    tag_128:\n        /* \"#utility.yul\":7741:7748   */\n      0x00\n        /* \"#utility.yul\":7784:7789   */\n      dup2\n        /* \"#utility.yul\":7777:7790   */\n      iszero\n        /* \"#utility.yul\":7770:7791   */\n      iszero\n        /* \"#utility.yul\":7759:7791   */\n      swap1\n      pop\n        /* \"#utility.yul\":7707:7797   */\n      swap2\n      swap1\n      pop\n      jump\t// out\n        /* \"#utility.yul\":7803:7880   */\n    tag_153:\n        /* \"#utility.yul\":7840:7847   */\n      0x00\n        /* \"#utility.yul\":7869:7874   */\n      dup2\n        /* \"#utility.yul\":7858:7874   */\n      swap1\n      pop\n        /* \"#utility.yul\":7803:7880   */\n      swap2\n      swap1\n      pop\n      jump\t// out\n        /* \"#utility.yul\":7886:8040   */\n    tag_86:\n        /* \"#utility.yul\":7970:7976   */\n      dup3\n        /* \"#utility.yul\":7965:7968   */\n      dup2\n        /* \"#utility.yul\":7960:7963   */\n      dup4\n        /* \"#utility.yul\":7947:7977   */\n      calldatacopy\n        /* \"#utility.yul\":8032:8033   */\n      0x00\n        /* \"#utility.yul\":8023:8029   */\n      dup4\n        /* \"#utility.yul\":8018:8021   */\n      dup4\n        /* \"#utility.yul\":8014:8030   */\n      add\n        /* \"#utility.yul\":8007:8034   */\n      mstore\n        /* \"#utility.yul\":7886:8040   */\n      pop\n      pop\n      pop\n      jump\t// out\n        /* \"#utility.yul\":8046:8353   */\n    tag_136:\n        /* \"#utility.yul\":8114:8115   */\n      0x00\n        /* \"#utility.yul\":8124:8237   */\n    tag_186:\n        /* \"#utility.yul\":8138:8144   */\n      dup4\n        /* \"#utility.yul\":8135:8136   */\n      dup2\n        /* \"#utility.yul\":8132:8145   */\n      lt\n        /* \"#utility.yul\":8124:8237   */\n      iszero\n      tag_188\n      jumpi\n        /* \"#utility.yul\":8223:8224   */\n      dup1\n        /* \"#utility.yul\":8218:8221   */\n      dup3\n        /* \"#utility.yul\":8214:8225   */\n      add\n        /* \"#utility.yul\":8208:8226   */\n      mload\n        /* \"#utility.yul\":8204:8205   */\n      dup2\n        /* \"#utility.yul\":8199:8202   */\n      dup5\n        /* \"#utility.yul\":8195:8206   */\n      add\n        /* \"#utility.yul\":8188:8227   */\n      mstore\n        /* \"#utility.yul\":8160:8162   */\n      0x20\n        /* \"#utility.yul\":8157:8158   */\n      dup2\n        /* \"#utility.yul\":8153:8163   */\n      add\n        /* \"#utility.yul\":8148:8163   */\n      swap1\n      pop\n        /* \"#utility.yul\":8124:8237   */\n      jump(tag_186)\n    tag_188:\n        /* \"#utility.yul\":8255:8261   */\n      dup4\n        /* \"#utility.yul\":8252:8253   */\n      dup2\n        /* \"#utility.yul\":8249:8262   */\n      gt\n        /* \"#utility.yul\":8246:8347   */\n      iszero\n      tag_189\n      jumpi\n        /* \"#utility.yul\":8335:8336   */\n      0x00\n        /* \"#utility.yul\":8326:8332   */\n      dup5\n        /* \"#utility.yul\":8321:8324   */\n      dup5\n        /* \"#utility.yul\":8317:8333   */\n      add\n        /* \"#utility.yul\":8310:8337   */\n      mstore\n        /* \"#utility.yul\":8246:8347   */\n    tag_189:\n        /* \"#utility.yul\":8095:8353   */\n      pop\n        /* \"#utility.yul\":8046:8353   */\n      pop\n      pop\n      pop\n      jump\t// out\n        /* \"#utility.yul\":8359:8679   */\n    tag_55:\n        /* \"#utility.yul\":8403:8409   */\n      0x00\n        /* \"#utility.yul\":8440:8441   */\n      0x02\n        /* \"#utility.yul\":8434:8438   */\n      dup3\n        /* \"#utility.yul\":8430:8442   */\n      div\n        /* \"#utility.yul\":8420:8442   */\n      swap1\n      pop\n        /* \"#utility.yul\":8487:8488   */\n      0x01\n        /* \"#utility.yul\":8481:8485   */\n      dup3\n        /* \"#utility.yul\":8477:8489   */\n      and\n        /* \"#utility.yul\":8508:8526   */\n      dup1\n        /* \"#utility.yul\":8498:8579   */\n      tag_191\n      jumpi\n        /* \"#utility.yul\":8564:8568   */\n      0x7f\n        /* \"#utility.yul\":8556:8562   */\n      dup3\n        /* \"#utility.yul\":8552:8569   */\n      and\n        /* \"#utility.yul\":8542:8569   */\n      swap2\n      pop\n        /* \"#utility.yul\":8498:8579   */\n    tag_191:\n        /* \"#utility.yul\":8626:8628   */\n      0x20\n        /* \"#utility.yul\":8618:8624   */\n      dup3\n        /* \"#utility.yul\":8615:8629   */\n      lt\n        /* \"#utility.yul\":8595:8613   */\n      dup2\n        /* \"#utility.yul\":8592:8630   */\n      eq\n        /* \"#utility.yul\":8589:8673   */\n      iszero\n      tag_192\n      jumpi\n        /* \"#utility.yul\":8645:8663   */\n      tag_193\n      tag_194\n      jump\t// in\n    tag_193:\n        /* \"#utility.yul\":8589:8673   */\n    tag_192:\n        /* \"#utility.yul\":8410:8679   */\n      pop\n        /* \"#utility.yul\":8359:8679   */\n      swap2\n      swap1\n      pop\n      jump\t// out\n        /* \"#utility.yul\":8685:8966   */\n    tag_172:\n        /* \"#utility.yul\":8768:8795   */\n      tag_196\n        /* \"#utility.yul\":8790:8794   */\n      dup3\n        /* \"#utility.yul\":8768:8795   */\n      tag_138\n      jump\t// in\n    tag_196:\n        /* \"#utility.yul\":8760:8766   */\n      dup2\n        /* \"#utility.yul\":8756:8796   */\n      add\n        /* \"#utility.yul\":8898:8904   */\n      dup2\n        /* \"#utility.yul\":8886:8896   */\n      dup2\n        /* \"#utility.yul\":8883:8905   */\n      lt\n        /* \"#utility.yul\":8862:8880   */\n      0xffffffffffffffff\n        /* \"#utility.yul\":8850:8860   */\n      dup3\n        /* \"#utility.yul\":8847:8881   */\n      gt\n        /* \"#utility.yul\":8844:8906   */\n      or\n        /* \"#utility.yul\":8841:8929   */\n      iszero\n      tag_197\n      jumpi\n        /* \"#utility.yul\":8909:8927   */\n      tag_198\n      tag_177\n      jump\t// in\n    tag_198:\n        /* \"#utility.yul\":8841:8929   */\n    tag_197:\n        /* \"#utility.yul\":8949:8959   */\n      dup1\n        /* \"#utility.yul\":8945:8947   */\n      0x40\n        /* \"#utility.yul\":8938:8960   */\n      mstore\n        /* \"#utility.yul\":8728:8966   */\n      pop\n        /* \"#utility.yul\":8685:8966   */\n      pop\n      pop\n      jump\t// out\n        /* \"#utility.yul\":8972:9205   */\n    tag_43:\n        /* \"#utility.yul\":9011:9014   */\n      0x00\n        /* \"#utility.yul\":9034:9058   */\n      tag_200\n        /* \"#utility.yul\":9052:9057   */\n      dup3\n        /* \"#utility.yul\":9034:9058   */\n      tag_153\n      jump\t// in\n    tag_200:\n        /* \"#utility.yul\":9025:9058   */\n      swap2\n      pop\n        /* \"#utility.yul\":9080:9146   */\n      0xffffffffffffffffffffffffffffffffffffffffffffffffffffffffffffffff\n        /* \"#utility.yul\":9073:9078   */\n      dup3\n        /* \"#utility.yul\":9070:9147   */\n      eq\n        /* \"#utility.yul\":9067:9170   */\n      iszero\n      tag_201\n      jumpi\n        /* \"#utility.yul\":9150:9168   */\n      tag_202\n      tag_203\n      jump\t// in\n    tag_202:\n        /* \"#utility.yul\":9067:9170   */\n    tag_201:\n        /* \"#utility.yul\":9197:9198   */\n      0x01\n        /* \"#utility.yul\":9190:9195   */\n      dup3\n        /* \"#utility.yul\":9186:9199   */\n      add\n        /* \"#utility.yul\":9179:9199   */\n      swap1\n      pop\n        /* \"#utility.yul\":8972:9205   */\n      swap2\n      swap1\n      pop\n      jump\t// out\n        /* \"#utility.yul\":9211:9391   */\n    tag_203:\n        /* \"#utility.yul\":9259:9336   */\n      0x4e487b7100000000000000000000000000000000000000000000000000000000\n        /* \"#utility.yul\":9256:9257   */\n      0x00\n        /* \"#utility.yul\":9249:9337   */\n      mstore\n        /* \"#utility.yul\":9356:9360   */\n      0x11\n        /* \"#utility.yul\":9353:9354   */\n      0x04\n        /* \"#utility.yul\":9346:9361   */\n      mstore\n        /* \"#utility.yul\":9380:9384   */\n      0x24\n        /* \"#utility.yul\":9377:9378   */\n      0x00\n        /* \"#utility.yul\":9370:9385   */\n      revert\n        /* \"#utility.yul\":9397:9577   */\n    tag_194:\n        /* \"#utility.yul\":9445:9522   */\n      0x4e487b7100000000000000000000000000000000000000000000000000000000\n        /* \"#utility.yul\":9442:9443   */\n      0x00\n        /* \"#utility.yul\":9435:9523   */\n      mstore\n        /* \"#utility.yul\":9542:9546   */\n      0x22\n        /* \"#utility.yul\":9539:9540   */\n      0x04\n        /* \"#utility.yul\":9532:9547   */\n      mstore\n        /* \"#utility.yul\":9566:9570   */\n      0x24\n        /* \"#utility.yul\":9563:9564   */\n      0x00\n        /* \"#utility.yul\":9556:9571   */\n      revert\n        /* \"#utility.yul\":9583:9763   */\n    tag_177:\n        /* \"#utility.yul\":9631:9708   */\n      0x4e487b7100000000000000000000000000000000000000000000000000000000\n        /* \"#utility.yul\":9628:9629   */\n      0x00\n        /* \"#utility.yul\":9621:9709   */\n      mstore\n        /* \"#utility.yul\":9728:9732   */\n      0x41\n        /* \"#utility.yul\":9725:9726   */\n      0x04\n        /* \"#utility.yul\":9718:9733   */\n      mstore\n        /* \"#utility.yul\":9752:9756   */\n      0x24\n        /* \"#utility.yul\":9749:9750   */\n      0x00\n        /* \"#utility.yul\":9742:9757   */\n      revert\n        /* \"#utility.yul\":9769:9886   */\n    tag_91:\n        /* \"#utility.yul\":9878:9879   */\n      0x00\n        /* \"#utility.yul\":9875:9876   */\n      dup1\n        /* \"#utility.yul\":9868:9880   */\n      revert\n        /* \"#utility.yul\":9892:10009   */\n    tag_84:\n        /* \"#utility.yul\":10001:10002   */\n      0x00\n        /* \"#utility.yul\":9998:9999   */\n      dup1\n        /* \"#utility.yul\":9991:10003   */\n      revert\n        /* \"#utility.yul\":10015:10132   */\n    tag_103:\n        /* \"#utility.yul\":10124:10125   */\n      0x00\n        /* \"#utility.yul\":10121:10122   */\n      dup1\n        /* \"#utility.yul\":10114:10126   */\n      revert\n        /* \"#utility.yul\":10138:10255   */\n    tag_100:\n        /* \"#utility.yul\":10247:10248   */\n      0x00\n        /* \"#utility.yul\":10244:10245   */\n      dup1\n        /* \"#utility.yul\":10237:10249   */\n      revert\n        /* \"#utility.yul\":10261:10363   */\n    tag_138:\n        /* \"#utility.yul\":10302:10308   */\n      0x00\n        /* \"#utility.yul\":10353:10355   */\n      0x1f\n        /* \"#utility.yul\":10349:10356   */\n      not\n        /* \"#utility.yul\":10344:10346   */\n      0x1f\n        /* \"#utility.yul\":10337:10342   */\n      dup4\n        /* \"#utility.yul\":10333:10347   */\n      add\n        /* \"#utility.yul\":10329:10357   */\n      and\n        /* \"#utility.yul\":10319:10357   */\n      swap1\n      pop\n        /* \"#utility.yul\":10261:10363   */\n      swap2\n      swap1\n      pop\n      jump\t// out\n        /* \"#utility.yul\":10369:10535   */\n    tag_149:\n        /* \"#utility.yul\":10509:10527   */\n      0x4163636573732069732044656e69656400000000000000000000000000000000\n        /* \"#utility.yul\":10505:10506   */\n      0x00\n        /* \"#utility.yul\":10497:10503   */\n      dup3\n        /* \"#utility.yul\":10493:10507   */\n      add\n        /* \"#utility.yul\":10486:10528   */\n      mstore\n        /* \"#utility.yul\":10369:10535   */\n      pop\n      jump\t// out\n        /* \"#utility.yul\":10541:10663   */\n    tag_96:\n        /* \"#utility.yul\":10614:10638   */\n      tag_214\n        /* \"#utility.yul\":10632:10637   */\n      dup2\n        /* \"#utility.yul\":10614:10638   */\n      tag_153\n      jump\t// in\n    tag_214:\n        /* \"#utility.yul\":10607:10612   */\n      dup2\n        /* \"#utility.yul\":10604:10639   */\n      eq\n        /* \"#utility.yul\":10594:10657   */\n      tag_215\n      jumpi\n        /* \"#utility.yul\":10653:10654   */\n      0x00\n        /* \"#utility.yul\":10650:10651   */\n      dup1\n        /* \"#utility.yul\":10643:10655   */\n      revert\n        /* \"#utility.yul\":10594:10657   */\n    tag_215:\n        /* \"#utility.yul\":10541:10663   */\n      pop\n      jump\t// out\n    stop\n    data_346ae9e229890c1b5467b3280ac50efb3a563831aa4e9bb9392fe53f7d7de7e2 596f752077696c6c20626520616464656420746f2063616e646964617465206c697374206f6e636520796f75206172652076616c696461746564206279207468652061646d696e\n\n    auxdata: 0xa2646970667358221220899b8ae5e975b7e8b852da95a49b01a0c3a1fe532c7f7f3ebc8f32b909981a7164736f6c63430008070033\n}\n",
				"bytecode": {
					"linkReferences": {},
					"object": "608060405234801561001057600080fd5b5033600260006101000a81548173ffffffffffffffffffffffffffffffffffffffff021916908373ffffffffffffffffffffffffffffffffffffffff160217905550610c2d806100616000396000f3fe608060405234801561001057600080fd5b50600436106100575760003560e01c80630621f1701461005c5780630fd94e641461008c57806317678bc3146100bc5780633477ee2e146100ec57806353fa2e641461011d575b600080fd5b61007660048036038101906100719190610674565b61014e565b60405161008391906108f9565b60405180910390f35b6100a660048036038101906100a19190610735565b610155565b6040516100b39190610880565b60405180910390f35b6100d660048036038101906100d191906106bd565b61029d565b6040516100e39190610880565b60405180910390f35b61010660048036038101906101019190610791565b6103d1565b6040516101149291906108a2565b60405180910390f35b61013760048036038101906101329190610674565b610505565b604051610145929190610914565b60405180910390f35b6000919050565b6060600260009054906101000a900473ffffffffffffffffffffffffffffffffffffffff1673ffffffffffffffffffffffffffffffffffffffff163373ffffffffffffffffffffffffffffffffffffffff16146101e7576040517f08c379a00000000000000000000000000000000000000000000000000000000081526004016101de906108d9565b60405180910390fd5b60008081546101f590610a75565b919050819055506040518060400160405280838152602001600115158152506004846040516102249190610869565b90815260200160405180910390206000820151816000015560208201518160010160006101000a81548160ff0219169083151502179055509050506040518060400160405280601b81526020017f596f752068617665207375636365737366756c6c7920766f7465640000000000815250905092915050565b6060600260009054906101000a900473ffffffffffffffffffffffffffffffffffffffff1673ffffffffffffffffffffffffffffffffffffffff163373ffffffffffffffffffffffffffffffffffffffff161461032f576040517f08c379a0000000000000000000000000000000000000000000000000000000008152600401610326906108d9565b60405180910390fd5b60006001600081548092919061034490610a75565b91905055905060405180604001604052808581526020018481525060036000838152602001908152602001600020600082015181600001908051906020019061038e92919061054c565b5060208201518160010190805190602001906103ab92919061054c565b50905050604051806080016040528060478152602001610bb16047913991505092915050565b60036020528060005260406000206000915090508060000180546103f490610a12565b80601f016020809104026020016040519081016040528092919081815260200182805461042090610a12565b801561046d5780601f106104425761010080835404028352916020019161046d565b820191906000526020600020905b81548152906001019060200180831161045057829003601f168201915b50505050509080600101805461048290610a12565b80601f01602080910402602001604051908101604052809291908181526020018280546104ae90610a12565b80156104fb5780601f106104d0576101008083540402835291602001916104fb565b820191906000526020600020905b8154815290600101906020018083116104de57829003601f168201915b5050505050905082565b6004818051602081018201805184825260208301602085012081835280955050505050506000915090508060000154908060010160009054906101000a900460ff16905082565b82805461055890610a12565b90600052602060002090601f01602090048101928261057a57600085556105c1565b82601f1061059357805160ff19168380011785556105c1565b828001600101855582156105c1579182015b828111156105c05782518255916020019190600101906105a5565b5b5090506105ce91906105d2565b5090565b5b808211156105eb5760008160009055506001016105d3565b5090565b60006106026105fd84610962565b61093d565b90508281526020810184848401111561061e5761061d610b50565b5b6106298482856109d0565b509392505050565b600082601f83011261064657610645610b4b565b5b81356106568482602086016105ef565b91505092915050565b60008135905061066e81610b99565b92915050565b60006020828403121561068a57610689610b5a565b5b600082013567ffffffffffffffff8111156106a8576106a7610b55565b5b6106b484828501610631565b91505092915050565b600080604083850312156106d4576106d3610b5a565b5b600083013567ffffffffffffffff8111156106f2576106f1610b55565b5b6106fe85828601610631565b925050602083013567ffffffffffffffff81111561071f5761071e610b55565b5b61072b85828601610631565b9150509250929050565b6000806040838503121561074c5761074b610b5a565b5b600083013567ffffffffffffffff81111561076a57610769610b55565b5b61077685828601610631565b92505060206107878582860161065f565b9150509250929050565b6000602082840312156107a7576107a6610b5a565b5b60006107b58482850161065f565b91505092915050565b6107c7816109ba565b82525050565b60006107d882610993565b6107e2818561099e565b93506107f28185602086016109df565b6107fb81610b5f565b840191505092915050565b600061081182610993565b61081b81856109af565b935061082b8185602086016109df565b80840191505092915050565b600061084460108361099e565b915061084f82610b70565b602082019050919050565b610863816109c6565b82525050565b60006108758284610806565b915081905092915050565b6000602082019050818103600083015261089a81846107cd565b905092915050565b600060408201905081810360008301526108bc81856107cd565b905081810360208301526108d081846107cd565b90509392505050565b600060208201905081810360008301526108f281610837565b9050919050565b600060208201905061090e600083018461085a565b92915050565b6000604082019050610929600083018561085a565b61093660208301846107be565b9392505050565b6000610947610958565b90506109538282610a44565b919050565b6000604051905090565b600067ffffffffffffffff82111561097d5761097c610b1c565b5b61098682610b5f565b9050602081019050919050565b600081519050919050565b600082825260208201905092915050565b600081905092915050565b60008115159050919050565b6000819050919050565b82818337600083830152505050565b60005b838110156109fd5780820151818401526020810190506109e2565b83811115610a0c576000848401525b50505050565b60006002820490506001821680610a2a57607f821691505b60208210811415610a3e57610a3d610aed565b5b50919050565b610a4d82610b5f565b810181811067ffffffffffffffff82111715610a6c57610a6b610b1c565b5b80604052505050565b6000610a80826109c6565b91507fffffffffffffffffffffffffffffffffffffffffffffffffffffffffffffffff821415610ab357610ab2610abe565b5b600182019050919050565b7f4e487b7100000000000000000000000000000000000000000000000000000000600052601160045260246000fd5b7f4e487b7100000000000000000000000000000000000000000000000000000000600052602260045260246000fd5b7f4e487b7100000000000000000000000000000000000000000000000000000000600052604160045260246000fd5b600080fd5b600080fd5b600080fd5b600080fd5b6000601f19601f8301169050919050565b7f4163636573732069732044656e69656400000000000000000000000000000000600082015250565b610ba2816109c6565b8114610bad57600080fd5b5056fe596f752077696c6c20626520616464656420746f2063616e646964617465206c697374206f6e636520796f75206172652076616c696461746564206279207468652061646d696ea2646970667358221220899b8ae5e975b7e8b852da95a49b01a0c3a1fe532c7f7f3ebc8f32b909981a7164736f6c63430008070033",
					"opcodes": "PUSH1 0x80 PUSH1 0x40 MSTORE CALLVALUE DUP1 ISZERO PUSH2 0x10 JUMPI PUSH1 0x0 DUP1 REVERT JUMPDEST POP CALLER PUSH1 0x2 PUSH1 0x0 PUSH2 0x100 EXP DUP2 SLOAD DUP2 PUSH20 0xFFFFFFFFFFFFFFFFFFFFFFFFFFFFFFFFFFFFFFFF MUL NOT AND SWAP1 DUP4 PUSH20 0xFFFFFFFFFFFFFFFFFFFFFFFFFFFFFFFFFFFFFFFF AND MUL OR SWAP1 SSTORE POP PUSH2 0xC2D DUP1 PUSH2 0x61 PUSH1 0x0 CODECOPY PUSH1 0x0 RETURN INVALID PUSH1 0x80 PUSH1 0x40 MSTORE CALLVALUE DUP1 ISZERO PUSH2 0x10 JUMPI PUSH1 0x0 DUP1 REVERT JUMPDEST POP PUSH1 0x4 CALLDATASIZE LT PUSH2 0x57 JUMPI PUSH1 0x0 CALLDATALOAD PUSH1 0xE0 SHR DUP1 PUSH4 0x621F170 EQ PUSH2 0x5C JUMPI DUP1 PUSH4 0xFD94E64 EQ PUSH2 0x8C JUMPI DUP1 PUSH4 0x17678BC3 EQ PUSH2 0xBC JUMPI DUP1 PUSH4 0x3477EE2E EQ PUSH2 0xEC JUMPI DUP1 PUSH4 0x53FA2E64 EQ PUSH2 0x11D JUMPI JUMPDEST PUSH1 0x0 DUP1 REVERT JUMPDEST PUSH2 0x76 PUSH1 0x4 DUP1 CALLDATASIZE SUB DUP2 ADD SWAP1 PUSH2 0x71 SWAP2 SWAP1 PUSH2 0x674 JUMP JUMPDEST PUSH2 0x14E JUMP JUMPDEST PUSH1 0x40 MLOAD PUSH2 0x83 SWAP2 SWAP1 PUSH2 0x8F9 JUMP JUMPDEST PUSH1 0x40 MLOAD DUP1 SWAP2 SUB SWAP1 RETURN JUMPDEST PUSH2 0xA6 PUSH1 0x4 DUP1 CALLDATASIZE SUB DUP2 ADD SWAP1 PUSH2 0xA1 SWAP2 SWAP1 PUSH2 0x735 JUMP JUMPDEST PUSH2 0x155 JUMP JUMPDEST PUSH1 0x40 MLOAD PUSH2 0xB3 SWAP2 SWAP1 PUSH2 0x880 JUMP JUMPDEST PUSH1 0x40 MLOAD DUP1 SWAP2 SUB SWAP1 RETURN JUMPDEST PUSH2 0xD6 PUSH1 0x4 DUP1 CALLDATASIZE SUB DUP2 ADD SWAP1 PUSH2 0xD1 SWAP2 SWAP1 PUSH2 0x6BD JUMP JUMPDEST PUSH2 0x29D JUMP JUMPDEST PUSH1 0x40 MLOAD PUSH2 0xE3 SWAP2 SWAP1 PUSH2 0x880 JUMP JUMPDEST PUSH1 0x40 MLOAD DUP1 SWAP2 SUB SWAP1 RETURN JUMPDEST PUSH2 0x106 PUSH1 0x4 DUP1 CALLDATASIZE SUB DUP2 ADD SWAP1 PUSH2 0x101 SWAP2 SWAP1 PUSH2 0x791 JUMP JUMPDEST PUSH2 0x3D1 JUMP JUMPDEST PUSH1 0x40 MLOAD PUSH2 0x114 SWAP3 SWAP2 SWAP1 PUSH2 0x8A2 JUMP JUMPDEST PUSH1 0x40 MLOAD DUP1 SWAP2 SUB SWAP1 RETURN JUMPDEST PUSH2 0x137 PUSH1 0x4 DUP1 CALLDATASIZE SUB DUP2 ADD SWAP1 PUSH2 0x132 SWAP2 SWAP1 PUSH2 0x674 JUMP JUMPDEST PUSH2 0x505 JUMP JUMPDEST PUSH1 0x40 MLOAD PUSH2 0x145 SWAP3 SWAP2 SWAP1 PUSH2 0x914 JUMP JUMPDEST PUSH1 0x40 MLOAD DUP1 SWAP2 SUB SWAP1 RETURN JUMPDEST PUSH1 0x0 SWAP2 SWAP1 POP JUMP JUMPDEST PUSH1 0x60 PUSH1 0x2 PUSH1 0x0 SWAP1 SLOAD SWAP1 PUSH2 0x100 EXP SWAP1 DIV PUSH20 0xFFFFFFFFFFFFFFFFFFFFFFFFFFFFFFFFFFFFFFFF AND PUSH20 0xFFFFFFFFFFFFFFFFFFFFFFFFFFFFFFFFFFFFFFFF AND CALLER PUSH20 0xFFFFFFFFFFFFFFFFFFFFFFFFFFFFFFFFFFFFFFFF AND EQ PUSH2 0x1E7 JUMPI PUSH1 0x40 MLOAD PUSH32 0x8C379A000000000000000000000000000000000000000000000000000000000 DUP2 MSTORE PUSH1 0x4 ADD PUSH2 0x1DE SWAP1 PUSH2 0x8D9 JUMP JUMPDEST PUSH1 0x40 MLOAD DUP1 SWAP2 SUB SWAP1 REVERT JUMPDEST PUSH1 0x0 DUP1 DUP2 SLOAD PUSH2 0x1F5 SWAP1 PUSH2 0xA75 JUMP JUMPDEST SWAP2 SWAP1 POP DUP2 SWAP1 SSTORE POP PUSH1 0x40 MLOAD DUP1 PUSH1 0x40 ADD PUSH1 0x40 MSTORE DUP1 DUP4 DUP2 MSTORE PUSH1 0x20 ADD PUSH1 0x1 ISZERO ISZERO DUP2 MSTORE POP PUSH1 0x4 DUP5 PUSH1 0x40 MLOAD PUSH2 0x224 SWAP2 SWAP1 PUSH2 0x869 JUMP JUMPDEST SWAP1 DUP2 MSTORE PUSH1 0x20 ADD PUSH1 0x40 MLOAD DUP1 SWAP2 SUB SWAP1 KECCAK256 PUSH1 0x0 DUP3 ADD MLOAD DUP2 PUSH1 0x0 ADD SSTORE PUSH1 0x20 DUP3 ADD MLOAD DUP2 PUSH1 0x1 ADD PUSH1 0x0 PUSH2 0x100 EXP DUP2 SLOAD DUP2 PUSH1 0xFF MUL NOT AND SWAP1 DUP4 ISZERO ISZERO MUL OR SWAP1 SSTORE POP SWAP1 POP POP PUSH1 0x40 MLOAD DUP1 PUSH1 0x40 ADD PUSH1 0x40 MSTORE DUP1 PUSH1 0x1B DUP2 MSTORE PUSH1 0x20 ADD PUSH32 0x596F752068617665207375636365737366756C6C7920766F7465640000000000 DUP2 MSTORE POP SWAP1 POP SWAP3 SWAP2 POP POP JUMP JUMPDEST PUSH1 0x60 PUSH1 0x2 PUSH1 0x0 SWAP1 SLOAD SWAP1 PUSH2 0x100 EXP SWAP1 DIV PUSH20 0xFFFFFFFFFFFFFFFFFFFFFFFFFFFFFFFFFFFFFFFF AND PUSH20 0xFFFFFFFFFFFFFFFFFFFFFFFFFFFFFFFFFFFFFFFF AND CALLER PUSH20 0xFFFFFFFFFFFFFFFFFFFFFFFFFFFFFFFFFFFFFFFF AND EQ PUSH2 0x32F JUMPI PUSH1 0x40 MLOAD PUSH32 0x8C379A000000000000000000000000000000000000000000000000000000000 DUP2 MSTORE PUSH1 0x4 ADD PUSH2 0x326 SWAP1 PUSH2 0x8D9 JUMP JUMPDEST PUSH1 0x40 MLOAD DUP1 SWAP2 SUB SWAP1 REVERT JUMPDEST PUSH1 0x0 PUSH1 0x1 PUSH1 0x0 DUP2 SLOAD DUP1 SWAP3 SWAP2 SWAP1 PUSH2 0x344 SWAP1 PUSH2 0xA75 JUMP JUMPDEST SWAP2 SWAP1 POP SSTORE SWAP1 POP PUSH1 0x40 MLOAD DUP1 PUSH1 0x40 ADD PUSH1 0x40 MSTORE DUP1 DUP6 DUP2 MSTORE PUSH1 0x20 ADD DUP5 DUP2 MSTORE POP PUSH1 0x3 PUSH1 0x0 DUP4 DUP2 MSTORE PUSH1 0x20 ADD SWAP1 DUP2 MSTORE PUSH1 0x20 ADD PUSH1 0x0 KECCAK256 PUSH1 0x0 DUP3 ADD MLOAD DUP2 PUSH1 0x0 ADD SWAP1 DUP1 MLOAD SWAP1 PUSH1 0x20 ADD SWAP1 PUSH2 0x38E SWAP3 SWAP2 SWAP1 PUSH2 0x54C JUMP JUMPDEST POP PUSH1 0x20 DUP3 ADD MLOAD DUP2 PUSH1 0x1 ADD SWAP1 DUP1 MLOAD SWAP1 PUSH1 0x20 ADD SWAP1 PUSH2 0x3AB SWAP3 SWAP2 SWAP1 PUSH2 0x54C JUMP JUMPDEST POP SWAP1 POP POP PUSH1 0x40 MLOAD DUP1 PUSH1 0x80 ADD PUSH1 0x40 MSTORE DUP1 PUSH1 0x47 DUP2 MSTORE PUSH1 0x20 ADD PUSH2 0xBB1 PUSH1 0x47 SWAP2 CODECOPY SWAP2 POP POP SWAP3 SWAP2 POP POP JUMP JUMPDEST PUSH1 0x3 PUSH1 0x20 MSTORE DUP1 PUSH1 0x0 MSTORE PUSH1 0x40 PUSH1 0x0 KECCAK256 PUSH1 0x0 SWAP2 POP SWAP1 POP DUP1 PUSH1 0x0 ADD DUP1 SLOAD PUSH2 0x3F4 SWAP1 PUSH2 0xA12 JUMP JUMPDEST DUP1 PUSH1 0x1F ADD PUSH1 0x20 DUP1 SWAP2 DIV MUL PUSH1 0x20 ADD PUSH1 0x40 MLOAD SWAP1 DUP2 ADD PUSH1 0x40 MSTORE DUP1 SWAP3 SWAP2 SWAP1 DUP2 DUP2 MSTORE PUSH1 0x20 ADD DUP3 DUP1 SLOAD PUSH2 0x420 SWAP1 PUSH2 0xA12 JUMP JUMPDEST DUP1 ISZERO PUSH2 0x46D JUMPI DUP1 PUSH1 0x1F LT PUSH2 0x442 JUMPI PUSH2 0x100 DUP1 DUP4 SLOAD DIV MUL DUP4 MSTORE SWAP2 PUSH1 0x20 ADD SWAP2 PUSH2 0x46D JUMP JUMPDEST DUP3 ADD SWAP2 SWAP1 PUSH1 0x0 MSTORE PUSH1 0x20 PUSH1 0x0 KECCAK256 SWAP1 JUMPDEST DUP2 SLOAD DUP2 MSTORE SWAP1 PUSH1 0x1 ADD SWAP1 PUSH1 0x20 ADD DUP1 DUP4 GT PUSH2 0x450 JUMPI DUP3 SWAP1 SUB PUSH1 0x1F AND DUP3 ADD SWAP2 JUMPDEST POP POP POP POP POP SWAP1 DUP1 PUSH1 0x1 ADD DUP1 SLOAD PUSH2 0x482 SWAP1 PUSH2 0xA12 JUMP JUMPDEST DUP1 PUSH1 0x1F ADD PUSH1 0x20 DUP1 SWAP2 DIV MUL PUSH1 0x20 ADD PUSH1 0x40 MLOAD SWAP1 DUP2 ADD PUSH1 0x40 MSTORE DUP1 SWAP3 SWAP2 SWAP1 DUP2 DUP2 MSTORE PUSH1 0x20 ADD DUP3 DUP1 SLOAD PUSH2 0x4AE SWAP1 PUSH2 0xA12 JUMP JUMPDEST DUP1 ISZERO PUSH2 0x4FB JUMPI DUP1 PUSH1 0x1F LT PUSH2 0x4D0 JUMPI PUSH2 0x100 DUP1 DUP4 SLOAD DIV MUL DUP4 MSTORE SWAP2 PUSH1 0x20 ADD SWAP2 PUSH2 0x4FB JUMP JUMPDEST DUP3 ADD SWAP2 SWAP1 PUSH1 0x0 MSTORE PUSH1 0x20 PUSH1 0x0 KECCAK256 SWAP1 JUMPDEST DUP2 SLOAD DUP2 MSTORE SWAP1 PUSH1 0x1 ADD SWAP1 PUSH1 0x20 ADD DUP1 DUP4 GT PUSH2 0x4DE JUMPI DUP3 SWAP1 SUB PUSH1 0x1F AND DUP3 ADD SWAP2 JUMPDEST POP POP POP POP POP SWAP1 POP DUP3 JUMP JUMPDEST PUSH1 0x4 DUP2 DUP1 MLOAD PUSH1 0x20 DUP2 ADD DUP3 ADD DUP1 MLOAD DUP5 DUP3 MSTORE PUSH1 0x20 DUP4 ADD PUSH1 0x20 DUP6 ADD KECCAK256 DUP2 DUP4 MSTORE DUP1 SWAP6 POP POP POP POP POP POP PUSH1 0x0 SWAP2 POP SWAP1 POP DUP1 PUSH1 0x0 ADD SLOAD SWAP1 DUP1 PUSH1 0x1 ADD PUSH1 0x0 SWAP1 SLOAD SWAP1 PUSH2 0x100 EXP SWAP1 DIV PUSH1 0xFF AND SWAP1 POP DUP3 JUMP JUMPDEST DUP3 DUP1 SLOAD PUSH2 0x558 SWAP1 PUSH2 0xA12 JUMP JUMPDEST SWAP1 PUSH1 0x0 MSTORE PUSH1 0x20 PUSH1 0x0 KECCAK256 SWAP1 PUSH1 0x1F ADD PUSH1 0x20 SWAP1 DIV DUP2 ADD SWAP3 DUP3 PUSH2 0x57A JUMPI PUSH1 0x0 DUP6 SSTORE PUSH2 0x5C1 JUMP JUMPDEST DUP3 PUSH1 0x1F LT PUSH2 0x593 JUMPI DUP1 MLOAD PUSH1 0xFF NOT AND DUP4 DUP1 ADD OR DUP6 SSTORE PUSH2 0x5C1 JUMP JUMPDEST DUP3 DUP1 ADD PUSH1 0x1 ADD DUP6 SSTORE DUP3 ISZERO PUSH2 0x5C1 JUMPI SWAP2 DUP3 ADD JUMPDEST DUP3 DUP2 GT ISZERO PUSH2 0x5C0 JUMPI DUP3 MLOAD DUP3 SSTORE SWAP2 PUSH1 0x20 ADD SWAP2 SWAP1 PUSH1 0x1 ADD SWAP1 PUSH2 0x5A5 JUMP JUMPDEST JUMPDEST POP SWAP1 POP PUSH2 0x5CE SWAP2 SWAP1 PUSH2 0x5D2 JUMP JUMPDEST POP SWAP1 JUMP JUMPDEST JUMPDEST DUP1 DUP3 GT ISZERO PUSH2 0x5EB JUMPI PUSH1 0x0 DUP2 PUSH1 0x0 SWAP1 SSTORE POP PUSH1 0x1 ADD PUSH2 0x5D3 JUMP JUMPDEST POP SWAP1 JUMP JUMPDEST PUSH1 0x0 PUSH2 0x602 PUSH2 0x5FD DUP5 PUSH2 0x962 JUMP JUMPDEST PUSH2 0x93D JUMP JUMPDEST SWAP1 POP DUP3 DUP2 MSTORE PUSH1 0x20 DUP2 ADD DUP5 DUP5 DUP5 ADD GT ISZERO PUSH2 0x61E JUMPI PUSH2 0x61D PUSH2 0xB50 JUMP JUMPDEST JUMPDEST PUSH2 0x629 DUP5 DUP3 DUP6 PUSH2 0x9D0 JUMP JUMPDEST POP SWAP4 SWAP3 POP POP POP JUMP JUMPDEST PUSH1 0x0 DUP3 PUSH1 0x1F DUP4 ADD SLT PUSH2 0x646 JUMPI PUSH2 0x645 PUSH2 0xB4B JUMP JUMPDEST JUMPDEST DUP2 CALLDATALOAD PUSH2 0x656 DUP5 DUP3 PUSH1 0x20 DUP7 ADD PUSH2 0x5EF JUMP JUMPDEST SWAP2 POP POP SWAP3 SWAP2 POP POP JUMP JUMPDEST PUSH1 0x0 DUP2 CALLDATALOAD SWAP1 POP PUSH2 0x66E DUP2 PUSH2 0xB99 JUMP JUMPDEST SWAP3 SWAP2 POP POP JUMP JUMPDEST PUSH1 0x0 PUSH1 0x20 DUP3 DUP5 SUB SLT ISZERO PUSH2 0x68A JUMPI PUSH2 0x689 PUSH2 0xB5A JUMP JUMPDEST JUMPDEST PUSH1 0x0 DUP3 ADD CALLDATALOAD PUSH8 0xFFFFFFFFFFFFFFFF DUP2 GT ISZERO PUSH2 0x6A8 JUMPI PUSH2 0x6A7 PUSH2 0xB55 JUMP JUMPDEST JUMPDEST PUSH2 0x6B4 DUP5 DUP3 DUP6 ADD PUSH2 0x631 JUMP JUMPDEST SWAP2 POP POP SWAP3 SWAP2 POP POP JUMP JUMPDEST PUSH1 0x0 DUP1 PUSH1 0x40 DUP4 DUP6 SUB SLT ISZERO PUSH2 0x6D4 JUMPI PUSH2 0x6D3 PUSH2 0xB5A JUMP JUMPDEST JUMPDEST PUSH1 0x0 DUP4 ADD CALLDATALOAD PUSH8 0xFFFFFFFFFFFFFFFF DUP2 GT ISZERO PUSH2 0x6F2 JUMPI PUSH2 0x6F1 PUSH2 0xB55 JUMP JUMPDEST JUMPDEST PUSH2 0x6FE DUP6 DUP3 DUP7 ADD PUSH2 0x631 JUMP JUMPDEST SWAP3 POP POP PUSH1 0x20 DUP4 ADD CALLDATALOAD PUSH8 0xFFFFFFFFFFFFFFFF DUP2 GT ISZERO PUSH2 0x71F JUMPI PUSH2 0x71E PUSH2 0xB55 JUMP JUMPDEST JUMPDEST PUSH2 0x72B DUP6 DUP3 DUP7 ADD PUSH2 0x631 JUMP JUMPDEST SWAP2 POP POP SWAP3 POP SWAP3 SWAP1 POP JUMP JUMPDEST PUSH1 0x0 DUP1 PUSH1 0x40 DUP4 DUP6 SUB SLT ISZERO PUSH2 0x74C JUMPI PUSH2 0x74B PUSH2 0xB5A JUMP JUMPDEST JUMPDEST PUSH1 0x0 DUP4 ADD CALLDATALOAD PUSH8 0xFFFFFFFFFFFFFFFF DUP2 GT ISZERO PUSH2 0x76A JUMPI PUSH2 0x769 PUSH2 0xB55 JUMP JUMPDEST JUMPDEST PUSH2 0x776 DUP6 DUP3 DUP7 ADD PUSH2 0x631 JUMP JUMPDEST SWAP3 POP POP PUSH1 0x20 PUSH2 0x787 DUP6 DUP3 DUP7 ADD PUSH2 0x65F JUMP JUMPDEST SWAP2 POP POP SWAP3 POP SWAP3 SWAP1 POP JUMP JUMPDEST PUSH1 0x0 PUSH1 0x20 DUP3 DUP5 SUB SLT ISZERO PUSH2 0x7A7 JUMPI PUSH2 0x7A6 PUSH2 0xB5A JUMP JUMPDEST JUMPDEST PUSH1 0x0 PUSH2 0x7B5 DUP5 DUP3 DUP6 ADD PUSH2 0x65F JUMP JUMPDEST SWAP2 POP POP SWAP3 SWAP2 POP POP JUMP JUMPDEST PUSH2 0x7C7 DUP2 PUSH2 0x9BA JUMP JUMPDEST DUP3 MSTORE POP POP JUMP JUMPDEST PUSH1 0x0 PUSH2 0x7D8 DUP3 PUSH2 0x993 JUMP JUMPDEST PUSH2 0x7E2 DUP2 DUP6 PUSH2 0x99E JUMP JUMPDEST SWAP4 POP PUSH2 0x7F2 DUP2 DUP6 PUSH1 0x20 DUP7 ADD PUSH2 0x9DF JUMP JUMPDEST PUSH2 0x7FB DUP2 PUSH2 0xB5F JUMP JUMPDEST DUP5 ADD SWAP2 POP POP SWAP3 SWAP2 POP POP JUMP JUMPDEST PUSH1 0x0 PUSH2 0x811 DUP3 PUSH2 0x993 JUMP JUMPDEST PUSH2 0x81B DUP2 DUP6 PUSH2 0x9AF JUMP JUMPDEST SWAP4 POP PUSH2 0x82B DUP2 DUP6 PUSH1 0x20 DUP7 ADD PUSH2 0x9DF JUMP JUMPDEST DUP1 DUP5 ADD SWAP2 POP POP SWAP3 SWAP2 POP POP JUMP JUMPDEST PUSH1 0x0 PUSH2 0x844 PUSH1 0x10 DUP4 PUSH2 0x99E JUMP JUMPDEST SWAP2 POP PUSH2 0x84F DUP3 PUSH2 0xB70 JUMP JUMPDEST PUSH1 0x20 DUP3 ADD SWAP1 POP SWAP2 SWAP1 POP JUMP JUMPDEST PUSH2 0x863 DUP2 PUSH2 0x9C6 JUMP JUMPDEST DUP3 MSTORE POP POP JUMP JUMPDEST PUSH1 0x0 PUSH2 0x875 DUP3 DUP5 PUSH2 0x806 JUMP JUMPDEST SWAP2 POP DUP2 SWAP1 POP SWAP3 SWAP2 POP POP JUMP JUMPDEST PUSH1 0x0 PUSH1 0x20 DUP3 ADD SWAP1 POP DUP2 DUP2 SUB PUSH1 0x0 DUP4 ADD MSTORE PUSH2 0x89A DUP2 DUP5 PUSH2 0x7CD JUMP JUMPDEST SWAP1 POP SWAP3 SWAP2 POP POP JUMP JUMPDEST PUSH1 0x0 PUSH1 0x40 DUP3 ADD SWAP1 POP DUP2 DUP2 SUB PUSH1 0x0 DUP4 ADD MSTORE PUSH2 0x8BC DUP2 DUP6 PUSH2 0x7CD JUMP JUMPDEST SWAP1 POP DUP2 DUP2 SUB PUSH1 0x20 DUP4 ADD MSTORE PUSH2 0x8D0 DUP2 DUP5 PUSH2 0x7CD JUMP JUMPDEST SWAP1 POP SWAP4 SWAP3 POP POP POP JUMP JUMPDEST PUSH1 0x0 PUSH1 0x20 DUP3 ADD SWAP1 POP DUP2 DUP2 SUB PUSH1 0x0 DUP4 ADD MSTORE PUSH2 0x8F2 DUP2 PUSH2 0x837 JUMP JUMPDEST SWAP1 POP SWAP2 SWAP1 POP JUMP JUMPDEST PUSH1 0x0 PUSH1 0x20 DUP3 ADD SWAP1 POP PUSH2 0x90E PUSH1 0x0 DUP4 ADD DUP5 PUSH2 0x85A JUMP JUMPDEST SWAP3 SWAP2 POP POP JUMP JUMPDEST PUSH1 0x0 PUSH1 0x40 DUP3 ADD SWAP1 POP PUSH2 0x929 PUSH1 0x0 DUP4 ADD DUP6 PUSH2 0x85A JUMP JUMPDEST PUSH2 0x936 PUSH1 0x20 DUP4 ADD DUP5 PUSH2 0x7BE JUMP JUMPDEST SWAP4 SWAP3 POP POP POP JUMP JUMPDEST PUSH1 0x0 PUSH2 0x947 PUSH2 0x958 JUMP JUMPDEST SWAP1 POP PUSH2 0x953 DUP3 DUP3 PUSH2 0xA44 JUMP JUMPDEST SWAP2 SWAP1 POP JUMP JUMPDEST PUSH1 0x0 PUSH1 0x40 MLOAD SWAP1 POP SWAP1 JUMP JUMPDEST PUSH1 0x0 PUSH8 0xFFFFFFFFFFFFFFFF DUP3 GT ISZERO PUSH2 0x97D JUMPI PUSH2 0x97C PUSH2 0xB1C JUMP JUMPDEST JUMPDEST PUSH2 0x986 DUP3 PUSH2 0xB5F JUMP JUMPDEST SWAP1 POP PUSH1 0x20 DUP2 ADD SWAP1 POP SWAP2 SWAP1 POP JUMP JUMPDEST PUSH1 0x0 DUP2 MLOAD SWAP1 POP SWAP2 SWAP1 POP JUMP JUMPDEST PUSH1 0x0 DUP3 DUP3 MSTORE PUSH1 0x20 DUP3 ADD SWAP1 POP SWAP3 SWAP2 POP POP JUMP JUMPDEST PUSH1 0x0 DUP2 SWAP1 POP SWAP3 SWAP2 POP POP JUMP JUMPDEST PUSH1 0x0 DUP2 ISZERO ISZERO SWAP1 POP SWAP2 SWAP1 POP JUMP JUMPDEST PUSH1 0x0 DUP2 SWAP1 POP SWAP2 SWAP1 POP JUMP JUMPDEST DUP3 DUP2 DUP4 CALLDATACOPY PUSH1 0x0 DUP4 DUP4 ADD MSTORE POP POP POP JUMP JUMPDEST PUSH1 0x0 JUMPDEST DUP4 DUP2 LT ISZERO PUSH2 0x9FD JUMPI DUP1 DUP3 ADD MLOAD DUP2 DUP5 ADD MSTORE PUSH1 0x20 DUP2 ADD SWAP1 POP PUSH2 0x9E2 JUMP JUMPDEST DUP4 DUP2 GT ISZERO PUSH2 0xA0C JUMPI PUSH1 0x0 DUP5 DUP5 ADD MSTORE JUMPDEST POP POP POP POP JUMP JUMPDEST PUSH1 0x0 PUSH1 0x2 DUP3 DIV SWAP1 POP PUSH1 0x1 DUP3 AND DUP1 PUSH2 0xA2A JUMPI PUSH1 0x7F DUP3 AND SWAP2 POP JUMPDEST PUSH1 0x20 DUP3 LT DUP2 EQ ISZERO PUSH2 0xA3E JUMPI PUSH2 0xA3D PUSH2 0xAED JUMP JUMPDEST JUMPDEST POP SWAP2 SWAP1 POP JUMP JUMPDEST PUSH2 0xA4D DUP3 PUSH2 0xB5F JUMP JUMPDEST DUP2 ADD DUP2 DUP2 LT PUSH8 0xFFFFFFFFFFFFFFFF DUP3 GT OR ISZERO PUSH2 0xA6C JUMPI PUSH2 0xA6B PUSH2 0xB1C JUMP JUMPDEST JUMPDEST DUP1 PUSH1 0x40 MSTORE POP POP POP JUMP JUMPDEST PUSH1 0x0 PUSH2 0xA80 DUP3 PUSH2 0x9C6 JUMP JUMPDEST SWAP2 POP PUSH32 0xFFFFFFFFFFFFFFFFFFFFFFFFFFFFFFFFFFFFFFFFFFFFFFFFFFFFFFFFFFFFFFFF DUP3 EQ ISZERO PUSH2 0xAB3 JUMPI PUSH2 0xAB2 PUSH2 0xABE JUMP JUMPDEST JUMPDEST PUSH1 0x1 DUP3 ADD SWAP1 POP SWAP2 SWAP1 POP JUMP JUMPDEST PUSH32 0x4E487B7100000000000000000000000000000000000000000000000000000000 PUSH1 0x0 MSTORE PUSH1 0x11 PUSH1 0x4 MSTORE PUSH1 0x24 PUSH1 0x0 REVERT JUMPDEST PUSH32 0x4E487B7100000000000000000000000000000000000000000000000000000000 PUSH1 0x0 MSTORE PUSH1 0x22 PUSH1 0x4 MSTORE PUSH1 0x24 PUSH1 0x0 REVERT JUMPDEST PUSH32 0x4E487B7100000000000000000000000000000000000000000000000000000000 PUSH1 0x0 MSTORE PUSH1 0x41 PUSH1 0x4 MSTORE PUSH1 0x24 PUSH1 0x0 REVERT JUMPDEST PUSH1 0x0 DUP1 REVERT JUMPDEST PUSH1 0x0 DUP1 REVERT JUMPDEST PUSH1 0x0 DUP1 REVERT JUMPDEST PUSH1 0x0 DUP1 REVERT JUMPDEST PUSH1 0x0 PUSH1 0x1F NOT PUSH1 0x1F DUP4 ADD AND SWAP1 POP SWAP2 SWAP1 POP JUMP JUMPDEST PUSH32 0x4163636573732069732044656E69656400000000000000000000000000000000 PUSH1 0x0 DUP3 ADD MSTORE POP JUMP JUMPDEST PUSH2 0xBA2 DUP2 PUSH2 0x9C6 JUMP JUMPDEST DUP2 EQ PUSH2 0xBAD JUMPI PUSH1 0x0 DUP1 REVERT JUMPDEST POP JUMP INVALID MSIZE PUSH16 0x752077696C6C20626520616464656420 PUSH21 0x6F2063616E646964617465206C697374206F6E6365 KECCAK256 PUSH26 0x6F75206172652076616C69646174656420627920746865206164 PUSH14 0x696EA2646970667358221220899B DUP11 0xE5 0xE9 PUSH22 0xB7E8B852DA95A49B01A0C3A1FE532C7F7F3EBC8F32B9 MULMOD SWAP9 BYTE PUSH18 0x64736F6C6343000807003300000000000000 "
				},
				"gasEstimates": {
					"creation": {
						"codeDepositCost": "623400",
						"executionCost": "24923",
						"totalCost": "648323"
					},
					"external": {
						"candidateEnrollment(string,string)": "infinite",
						"candidateIdGenerator(string)": "infinite",
						"candidates(uint256)": "infinite",
						"voterEnrollment(string,uint256)": "infinite",
						"voters(string)": "infinite"
					}
				},
				"methodIdentifiers": {
					"candidateEnrollment(string,string)": "17678bc3",
					"candidateIdGenerator(string)": "0621f170",
					"candidates(uint256)": "3477ee2e",
					"voterEnrollment(string,uint256)": "0fd94e64",
					"voters(string)": "53fa2e64"
				}
			},
			"storageLayout": {
				"storage": [
					{
						"astId": 3,
						"contract": "voting.sol:Voting",
						"label": "noOfVoters",
						"offset": 0,
						"slot": "0",
						"type": "t_uint256"
					},
					{
						"astId": 5,
						"contract": "voting.sol:Voting",
						"label": "noOfCandidates",
						"offset": 0,
						"slot": "1",
						"type": "t_uint256"
					},
					{
						"astId": 7,
						"contract": "voting.sol:Voting",
						"label": "admin",
						"offset": 0,
						"slot": "2",
						"type": "t_address"
					},
					{
						"astId": 12,
						"contract": "voting.sol:Voting",
						"label": "candidates",
						"offset": 0,
						"slot": "3",
						"type": "t_mapping(t_uint256,t_struct(Candidate)22_storage)"
					},
					{
						"astId": 17,
						"contract": "voting.sol:Voting",
						"label": "voters",
						"offset": 0,
						"slot": "4",
						"type": "t_mapping(t_string_memory_ptr,t_struct(Voter)27_storage)"
					}
				],
				"types": {
					"t_address": {
						"encoding": "inplace",
						"label": "address",
						"numberOfBytes": "20"
					},
					"t_bool": {
						"encoding": "inplace",
						"label": "bool",
						"numberOfBytes": "1"
					},
					"t_mapping(t_string_memory_ptr,t_struct(Voter)27_storage)": {
						"encoding": "mapping",
						"key": "t_string_memory_ptr",
						"label": "mapping(string => struct Voting.Voter)",
						"numberOfBytes": "32",
						"value": "t_struct(Voter)27_storage"
					},
					"t_mapping(t_uint256,t_struct(Candidate)22_storage)": {
						"encoding": "mapping",
						"key": "t_uint256",
						"label": "mapping(uint256 => struct Voting.Candidate)",
						"numberOfBytes": "32",
						"value": "t_struct(Candidate)22_storage"
					},
					"t_string_memory_ptr": {
						"encoding": "bytes",
						"label": "string",
						"numberOfBytes": "32"
					},
					"t_string_storage": {
						"encoding": "bytes",
						"label": "string",
						"numberOfBytes": "32"
					},
					"t_struct(Candidate)22_storage": {
						"encoding": "inplace",
						"label": "struct Voting.Candidate",
						"members": [
							{
								"astId": 19,
								"contract": "voting.sol:Voting",
								"label": "candidate_name",
								"offset": 0,
								"slot": "0",
								"type": "t_string_storage"
							},
							{
								"astId": 21,
								"contract": "voting.sol:Voting",
								"label": "candidate_description",
								"offset": 0,
								"slot": "1",
								"type": "t_string_storage"
							}
						],
						"numberOfBytes": "64"
					},
					"t_struct(Voter)27_storage": {
						"encoding": "inplace",
						"label": "struct Voting.Voter",
						"members": [
							{
								"astId": 24,
								"contract": "voting.sol:Voting",
								"label": "candidate_id",
								"offset": 0,
								"slot": "0",
								"type": "t_uint256"
							},
							{
								"astId": 26,
								"contract": "voting.sol:Voting",
								"label": "hasVoted",
								"offset": 0,
								"slot": "1",
								"type": "t_bool"
							}
						],
						"numberOfBytes": "64"
					},
					"t_uint256": {
						"encoding": "inplace",
						"label": "uint256",
						"numberOfBytes": "32"
					}
				}
			},
			"userdoc": {
				"kind": "user",
				"methods": {},
				"version": 1
			}
		}
	}
}