{
	"voting.sol": {
		"Voting": {
			"abi": [
				{
					"inputs": [],
					"stateMutability": "nonpayable",
					"type": "constructor"
				},
				{
					"inputs": [
						{
							"internalType": "string",
							"name": "name",
							"type": "string"
						},
						{
							"internalType": "string",
							"name": "description",
							"type": "string"
						}
					],
					"name": "candidateEnrollment",
					"outputs": [
						{
							"internalType": "string",
							"name": "",
							"type": "string"
						}
					],
					"stateMutability": "nonpayable",
					"type": "function"
				},
				{
					"inputs": [
						{
							"internalType": "uint256",
							"name": "",
							"type": "uint256"
						}
					],
					"name": "candidates",
					"outputs": [
						{
							"internalType": "string",
							"name": "candidate_name",
							"type": "string"
						},
						{
							"internalType": "string",
							"name": "candidate_description",
							"type": "string"
						},
						{
							"internalType": "uint256",
							"name": "noOfVotes",
							"type": "uint256"
						}
					],
					"stateMutability": "view",
					"type": "function"
				},
				{
					"inputs": [
						{
							"internalType": "string",
							"name": "name",
							"type": "string"
						},
						{
							"internalType": "uint256",
							"name": "candidateID",
							"type": "uint256"
						}
					],
					"name": "voterEnrollment",
					"outputs": [
						{
							"internalType": "string",
							"name": "",
							"type": "string"
						}
					],
					"stateMutability": "nonpayable",
					"type": "function"
				},
				{
					"inputs": [
						{
							"internalType": "string",
							"name": "",
							"type": "string"
						}
					],
					"name": "voters",
					"outputs": [
						{
							"internalType": "uint256",
							"name": "candidate_id",
							"type": "uint256"
						},
						{
							"internalType": "bool",
							"name": "hasVoted",
							"type": "bool"
						}
					],
					"stateMutability": "view",
					"type": "function"
				}
			],
			"devdoc": {
				"kind": "dev",
				"methods": {},
				"version": 1
			},
			"evm": {
				"assembly": "    /* \"voting.sol\":59:1437  contract Voting{\r... */\n  mstore(0x40, 0x80)\n    /* \"voting.sol\":451:501  constructor(){\r... */\n  callvalue\n  dup1\n  iszero\n  tag_1\n  jumpi\n  0x00\n  dup1\n  revert\ntag_1:\n  pop\n    /* \"voting.sol\":483:493  msg.sender */\n  caller\n    /* \"voting.sol\":475:480  admin */\n  0x02\n  0x00\n    /* \"voting.sol\":475:493  admin = msg.sender */\n  0x0100\n  exp\n  dup2\n  sload\n  dup2\n  0xffffffffffffffffffffffffffffffffffffffff\n  mul\n  not\n  and\n  swap1\n  dup4\n  0xffffffffffffffffffffffffffffffffffffffff\n  and\n  mul\n  or\n  swap1\n  sstore\n  pop\n    /* \"voting.sol\":59:1437  contract Voting{\r... */\n  dataSize(sub_0)\n  dup1\n  dataOffset(sub_0)\n  0x00\n  codecopy\n  0x00\n  return\nstop\n\nsub_0: assembly {\n        /* \"voting.sol\":59:1437  contract Voting{\r... */\n      mstore(0x40, 0x80)\n      callvalue\n      dup1\n      iszero\n      tag_1\n      jumpi\n      0x00\n      dup1\n      revert\n    tag_1:\n      pop\n      jumpi(tag_2, lt(calldatasize, 0x04))\n      shr(0xe0, calldataload(0x00))\n      dup1\n      0x0fd94e64\n      eq\n      tag_3\n      jumpi\n      dup1\n      0x17678bc3\n      eq\n      tag_4\n      jumpi\n      dup1\n      0x3477ee2e\n      eq\n      tag_5\n      jumpi\n      dup1\n      0x53fa2e64\n      eq\n      tag_6\n      jumpi\n    tag_2:\n      0x00\n      dup1\n      revert\n        /* \"voting.sol\":1107:1434  function voterEnrollment(string memory name,uint candidateID) public onlyAdmin returns(string memory){\r... */\n    tag_3:\n      tag_7\n      0x04\n      dup1\n      calldatasize\n      sub\n      dup2\n      add\n      swap1\n      tag_8\n      swap2\n      swap1\n      tag_9\n      jump\t// in\n    tag_8:\n      tag_10\n      jump\t// in\n    tag_7:\n      mload(0x40)\n      tag_11\n      swap2\n      swap1\n      tag_12\n      jump\t// in\n    tag_11:\n      mload(0x40)\n      dup1\n      swap2\n      sub\n      swap1\n      return\n        /* \"voting.sol\":611:936  function candidateEnrollment(string memory name,string memory description) public onlyAdmin returns(string memory){\r... */\n    tag_4:\n      tag_13\n      0x04\n      dup1\n      calldatasize\n      sub\n      dup2\n      add\n      swap1\n      tag_14\n      swap2\n      swap1\n      tag_15\n      jump\t// in\n    tag_14:\n      tag_16\n      jump\t// in\n    tag_13:\n      mload(0x40)\n      tag_17\n      swap2\n      swap1\n      tag_12\n      jump\t// in\n    tag_17:\n      mload(0x40)\n      dup1\n      swap2\n      sub\n      swap1\n      return\n        /* \"voting.sol\":149:194  mapping (uint => Candidate) public candidates */\n    tag_5:\n      tag_18\n      0x04\n      dup1\n      calldatasize\n      sub\n      dup2\n      add\n      swap1\n      tag_19\n      swap2\n      swap1\n      tag_20\n      jump\t// in\n    tag_19:\n      tag_21\n      jump\t// in\n    tag_18:\n      mload(0x40)\n      tag_22\n      swap4\n      swap3\n      swap2\n      swap1\n      tag_23\n      jump\t// in\n    tag_22:\n      mload(0x40)\n      dup1\n      swap2\n      sub\n      swap1\n      return\n        /* \"voting.sol\":201:240  mapping (string => Voter) public voters */\n    tag_6:\n      tag_24\n      0x04\n      dup1\n      calldatasize\n      sub\n      dup2\n      add\n      swap1\n      tag_25\n      swap2\n      swap1\n      tag_26\n      jump\t// in\n    tag_25:\n      tag_27\n      jump\t// in\n    tag_24:\n      mload(0x40)\n      tag_28\n      swap3\n      swap2\n      swap1\n      tag_29\n      jump\t// in\n    tag_28:\n      mload(0x40)\n      dup1\n      swap2\n      sub\n      swap1\n      return\n        /* \"voting.sol\":1107:1434  function voterEnrollment(string memory name,uint candidateID) public onlyAdmin returns(string memory){\r... */\n    tag_10:\n        /* \"voting.sol\":1194:1207  string memory */\n      0x60\n        /* \"voting.sol\":560:565  admin */\n      0x02\n      0x00\n      swap1\n      sload\n      swap1\n      0x0100\n      exp\n      swap1\n      div\n      0xffffffffffffffffffffffffffffffffffffffff\n      and\n        /* \"voting.sol\":546:565  msg.sender == admin */\n      0xffffffffffffffffffffffffffffffffffffffff\n      and\n        /* \"voting.sol\":546:556  msg.sender */\n      caller\n        /* \"voting.sol\":546:565  msg.sender == admin */\n      0xffffffffffffffffffffffffffffffffffffffff\n      and\n      eq\n        /* \"voting.sol\":538:585  require(msg.sender == admin,\"Access is Denied\") */\n      tag_31\n      jumpi\n      mload(0x40)\n      0x08c379a000000000000000000000000000000000000000000000000000000000\n      dup2\n      mstore\n      0x04\n      add\n      tag_32\n      swap1\n      tag_33\n      jump\t// in\n    tag_32:\n      mload(0x40)\n      dup1\n      swap2\n      sub\n      swap1\n      revert\n    tag_31:\n        /* \"voting.sol\":1252:1257  false */\n      0x00\n        /* \"voting.sol\":1227:1257  voters[name].hasVoted == false */\n      iszero\n      iszero\n        /* \"voting.sol\":1227:1233  voters */\n      0x04\n        /* \"voting.sol\":1234:1238  name */\n      dup5\n        /* \"voting.sol\":1227:1239  voters[name] */\n      mload(0x40)\n      tag_35\n      swap2\n      swap1\n      tag_36\n      jump\t// in\n    tag_35:\n      swap1\n      dup2\n      mstore\n      0x20\n      add\n      mload(0x40)\n      dup1\n      swap2\n      sub\n      swap1\n      keccak256\n        /* \"voting.sol\":1227:1248  voters[name].hasVoted */\n      0x01\n      add\n      0x00\n      swap1\n      sload\n      swap1\n      0x0100\n      exp\n      swap1\n      div\n      0xff\n      and\n        /* \"voting.sol\":1227:1257  voters[name].hasVoted == false */\n      iszero\n      iszero\n      eq\n        /* \"voting.sol\":1219:1258  require(voters[name].hasVoted == false) */\n      tag_37\n      jumpi\n      0x00\n      dup1\n      revert\n    tag_37:\n        /* \"voting.sol\":1271:1281  noOfVoters */\n      0x00\n      dup1\n        /* \"voting.sol\":1269:1281  ++noOfVoters */\n      dup2\n      sload\n      tag_38\n      swap1\n      tag_39\n      jump\t// in\n    tag_38:\n      swap2\n      swap1\n      pop\n      dup2\n      swap1\n      sstore\n      pop\n        /* \"voting.sol\":1307:1330  Voter(candidateID,true) */\n      mload(0x40)\n      dup1\n      0x40\n      add\n      0x40\n      mstore\n      dup1\n        /* \"voting.sol\":1313:1324  candidateID */\n      dup4\n        /* \"voting.sol\":1307:1330  Voter(candidateID,true) */\n      dup2\n      mstore\n      0x20\n      add\n        /* \"voting.sol\":1325:1329  true */\n      0x01\n        /* \"voting.sol\":1307:1330  Voter(candidateID,true) */\n      iszero\n      iszero\n      dup2\n      mstore\n      pop\n        /* \"voting.sol\":1292:1298  voters */\n      0x04\n        /* \"voting.sol\":1299:1303  name */\n      dup5\n        /* \"voting.sol\":1292:1304  voters[name] */\n      mload(0x40)\n      tag_40\n      swap2\n      swap1\n      tag_36\n      jump\t// in\n    tag_40:\n      swap1\n      dup2\n      mstore\n      0x20\n      add\n      mload(0x40)\n      dup1\n      swap2\n      sub\n      swap1\n      keccak256\n        /* \"voting.sol\":1292:1330  voters[name] = Voter(candidateID,true) */\n      0x00\n      dup3\n      add\n      mload\n      dup2\n      0x00\n      add\n      sstore\n      0x20\n      dup3\n      add\n      mload\n      dup2\n      0x01\n      add\n      exp(0x0100, 0x00)\n      dup2\n      sload\n      dup2\n      0xff\n      mul\n      not\n      and\n      swap1\n      dup4\n      iszero\n      iszero\n      mul\n      or\n      swap1\n      sstore\n      pop\n      swap1\n      pop\n      pop\n        /* \"voting.sol\":1378:1379  1 */\n      0x01\n        /* \"voting.sol\":1341:1351  candidates */\n      0x03\n        /* \"voting.sol\":1341:1364  candidates[candidateID] */\n      0x00\n        /* \"voting.sol\":1352:1363  candidateID */\n      dup5\n        /* \"voting.sol\":1341:1364  candidates[candidateID] */\n      dup2\n      mstore\n      0x20\n      add\n      swap1\n      dup2\n      mstore\n      0x20\n      add\n      0x00\n      keccak256\n        /* \"voting.sol\":1341:1374  candidates[candidateID].noOfVotes */\n      0x02\n      add\n      0x00\n        /* \"voting.sol\":1341:1379  candidates[candidateID].noOfVotes += 1 */\n      dup3\n      dup3\n      sload\n      tag_41\n      swap2\n      swap1\n      tag_42\n      jump\t// in\n    tag_41:\n      swap3\n      pop\n      pop\n      dup2\n      swap1\n      sstore\n      pop\n        /* \"voting.sol\":1390:1426  return \"You have successfully voted\" */\n      mload(0x40)\n      dup1\n      0x40\n      add\n      0x40\n      mstore\n      dup1\n      0x1b\n      dup2\n      mstore\n      0x20\n      add\n      0x596f752068617665207375636365737366756c6c7920766f7465640000000000\n      dup2\n      mstore\n      pop\n      swap1\n      pop\n        /* \"voting.sol\":1107:1434  function voterEnrollment(string memory name,uint candidateID) public onlyAdmin returns(string memory){\r... */\n      swap3\n      swap2\n      pop\n      pop\n      jump\t// out\n        /* \"voting.sol\":611:936  function candidateEnrollment(string memory name,string memory description) public onlyAdmin returns(string memory){\r... */\n    tag_16:\n        /* \"voting.sol\":711:724  string memory */\n      0x60\n        /* \"voting.sol\":560:565  admin */\n      0x02\n      0x00\n      swap1\n      sload\n      swap1\n      0x0100\n      exp\n      swap1\n      div\n      0xffffffffffffffffffffffffffffffffffffffff\n      and\n        /* \"voting.sol\":546:565  msg.sender == admin */\n      0xffffffffffffffffffffffffffffffffffffffff\n      and\n        /* \"voting.sol\":546:556  msg.sender */\n      caller\n        /* \"voting.sol\":546:565  msg.sender == admin */\n      0xffffffffffffffffffffffffffffffffffffffff\n      and\n      eq\n        /* \"voting.sol\":538:585  require(msg.sender == admin,\"Access is Denied\") */\n      tag_44\n      jumpi\n      mload(0x40)\n      0x08c379a000000000000000000000000000000000000000000000000000000000\n      dup2\n      mstore\n      0x04\n      add\n      tag_45\n      swap1\n      tag_33\n      jump\t// in\n    tag_45:\n      mload(0x40)\n      dup1\n      swap2\n      sub\n      swap1\n      revert\n    tag_44:\n        /* \"voting.sol\":736:752  uint candidateID */\n      0x00\n        /* \"voting.sol\":755:769  noOfCandidates */\n      0x01\n      0x00\n        /* \"voting.sol\":755:771  noOfCandidates++ */\n      dup2\n      sload\n      dup1\n      swap3\n      swap2\n      swap1\n      tag_47\n      swap1\n      tag_39\n      jump\t// in\n    tag_47:\n      swap2\n      swap1\n      pop\n      sstore\n        /* \"voting.sol\":736:771  uint candidateID = noOfCandidates++ */\n      swap1\n      pop\n        /* \"voting.sol\":808:837  Candidate(name,description,0) */\n      mload(0x40)\n      dup1\n      0x60\n      add\n      0x40\n      mstore\n      dup1\n        /* \"voting.sol\":818:822  name */\n      dup6\n        /* \"voting.sol\":808:837  Candidate(name,description,0) */\n      dup2\n      mstore\n      0x20\n      add\n        /* \"voting.sol\":823:834  description */\n      dup5\n        /* \"voting.sol\":808:837  Candidate(name,description,0) */\n      dup2\n      mstore\n      0x20\n      add\n        /* \"voting.sol\":835:836  0 */\n      0x00\n        /* \"voting.sol\":808:837  Candidate(name,description,0) */\n      dup2\n      mstore\n      pop\n        /* \"voting.sol\":782:792  candidates */\n      0x03\n        /* \"voting.sol\":782:805  candidates[candidateID] */\n      0x00\n        /* \"voting.sol\":793:804  candidateID */\n      dup4\n        /* \"voting.sol\":782:805  candidates[candidateID] */\n      dup2\n      mstore\n      0x20\n      add\n      swap1\n      dup2\n      mstore\n      0x20\n      add\n      0x00\n      keccak256\n        /* \"voting.sol\":782:837  candidates[candidateID] = Candidate(name,description,0) */\n      0x00\n      dup3\n      add\n      mload\n      dup2\n      0x00\n      add\n      swap1\n      dup1\n      mload\n      swap1\n      0x20\n      add\n      swap1\n      tag_48\n      swap3\n      swap2\n      swap1\n      tag_49\n      jump\t// in\n    tag_48:\n      pop\n      0x20\n      dup3\n      add\n      mload\n      dup2\n      0x01\n      add\n      swap1\n      dup1\n      mload\n      swap1\n      0x20\n      add\n      swap1\n      tag_50\n      swap3\n      swap2\n      swap1\n      tag_49\n      jump\t// in\n    tag_50:\n      pop\n      0x40\n      dup3\n      add\n      mload\n      dup2\n      0x02\n      add\n      sstore\n      swap1\n      pop\n      pop\n        /* \"voting.sol\":848:928  return \"You will be added to candidate list once you are validated by the admin\" */\n      mload(0x40)\n      dup1\n      0x80\n      add\n      0x40\n      mstore\n      dup1\n      0x47\n      dup2\n      mstore\n      0x20\n      add\n      data_346ae9e229890c1b5467b3280ac50efb3a563831aa4e9bb9392fe53f7d7de7e2\n      0x47\n      swap2\n      codecopy\n      swap2\n      pop\n      pop\n        /* \"voting.sol\":611:936  function candidateEnrollment(string memory name,string memory description) public onlyAdmin returns(string memory){\r... */\n      swap3\n      swap2\n      pop\n      pop\n      jump\t// out\n        /* \"voting.sol\":149:194  mapping (uint => Candidate) public candidates */\n    tag_21:\n      mstore(0x20, 0x03)\n      dup1\n      0x00\n      mstore\n      keccak256(0x00, 0x40)\n      0x00\n      swap2\n      pop\n      swap1\n      pop\n      dup1\n      0x00\n      add\n      dup1\n      sload\n      tag_51\n      swap1\n      tag_52\n      jump\t// in\n    tag_51:\n      dup1\n      0x1f\n      add\n      0x20\n      dup1\n      swap2\n      div\n      mul\n      0x20\n      add\n      mload(0x40)\n      swap1\n      dup2\n      add\n      0x40\n      mstore\n      dup1\n      swap3\n      swap2\n      swap1\n      dup2\n      dup2\n      mstore\n      0x20\n      add\n      dup3\n      dup1\n      sload\n      tag_53\n      swap1\n      tag_52\n      jump\t// in\n    tag_53:\n      dup1\n      iszero\n      tag_54\n      jumpi\n      dup1\n      0x1f\n      lt\n      tag_55\n      jumpi\n      0x0100\n      dup1\n      dup4\n      sload\n      div\n      mul\n      dup4\n      mstore\n      swap2\n      0x20\n      add\n      swap2\n      jump(tag_54)\n    tag_55:\n      dup3\n      add\n      swap2\n      swap1\n      0x00\n      mstore\n      keccak256(0x00, 0x20)\n      swap1\n    tag_56:\n      dup2\n      sload\n      dup2\n      mstore\n      swap1\n      0x01\n      add\n      swap1\n      0x20\n      add\n      dup1\n      dup4\n      gt\n      tag_56\n      jumpi\n      dup3\n      swap1\n      sub\n      0x1f\n      and\n      dup3\n      add\n      swap2\n    tag_54:\n      pop\n      pop\n      pop\n      pop\n      pop\n      swap1\n      dup1\n      0x01\n      add\n      dup1\n      sload\n      tag_57\n      swap1\n      tag_52\n      jump\t// in\n    tag_57:\n      dup1\n      0x1f\n      add\n      0x20\n      dup1\n      swap2\n      div\n      mul\n      0x20\n      add\n      mload(0x40)\n      swap1\n      dup2\n      add\n      0x40\n      mstore\n      dup1\n      swap3\n      swap2\n      swap1\n      dup2\n      dup2\n      mstore\n      0x20\n      add\n      dup3\n      dup1\n      sload\n      tag_58\n      swap1\n      tag_52\n      jump\t// in\n    tag_58:\n      dup1\n      iszero\n      tag_59\n      jumpi\n      dup1\n      0x1f\n      lt\n      tag_60\n      jumpi\n      0x0100\n      dup1\n      dup4\n      sload\n      div\n      mul\n      dup4\n      mstore\n      swap2\n      0x20\n      add\n      swap2\n      jump(tag_59)\n    tag_60:\n      dup3\n      add\n      swap2\n      swap1\n      0x00\n      mstore\n      keccak256(0x00, 0x20)\n      swap1\n    tag_61:\n      dup2\n      sload\n      dup2\n      mstore\n      swap1\n      0x01\n      add\n      swap1\n      0x20\n      add\n      dup1\n      dup4\n      gt\n      tag_61\n      jumpi\n      dup3\n      swap1\n      sub\n      0x1f\n      and\n      dup3\n      add\n      swap2\n    tag_59:\n      pop\n      pop\n      pop\n      pop\n      pop\n      swap1\n      dup1\n      0x02\n      add\n      sload\n      swap1\n      pop\n      dup4\n      jump\t// out\n        /* \"voting.sol\":201:240  mapping (string => Voter) public voters */\n    tag_27:\n      0x04\n      dup2\n      dup1\n      mload\n      0x20\n      dup2\n      add\n      dup3\n      add\n      dup1\n      mload\n      dup5\n      dup3\n      mstore\n      0x20\n      dup4\n      add\n      0x20\n      dup6\n      add\n      keccak256\n      dup2\n      dup4\n      mstore\n      dup1\n      swap6\n      pop\n      pop\n      pop\n      pop\n      pop\n      pop\n      0x00\n      swap2\n      pop\n      swap1\n      pop\n      dup1\n      0x00\n      add\n      sload\n      swap1\n      dup1\n      0x01\n      add\n      0x00\n      swap1\n      sload\n      swap1\n      0x0100\n      exp\n      swap1\n      div\n      0xff\n      and\n      swap1\n      pop\n      dup3\n      jump\t// out\n    tag_49:\n      dup3\n      dup1\n      sload\n      tag_62\n      swap1\n      tag_52\n      jump\t// in\n    tag_62:\n      swap1\n      0x00\n      mstore\n      keccak256(0x00, 0x20)\n      swap1\n      0x1f\n      add\n      0x20\n      swap1\n      div\n      dup2\n      add\n      swap3\n      dup3\n      tag_64\n      jumpi\n      0x00\n      dup6\n      sstore\n      jump(tag_63)\n    tag_64:\n      dup3\n      0x1f\n      lt\n      tag_65\n      jumpi\n      dup1\n      mload\n      not(0xff)\n      and\n      dup4\n      dup1\n      add\n      or\n      dup6\n      sstore\n      jump(tag_63)\n    tag_65:\n      dup3\n      dup1\n      add\n      0x01\n      add\n      dup6\n      sstore\n      dup3\n      iszero\n      tag_63\n      jumpi\n      swap2\n      dup3\n      add\n    tag_66:\n      dup3\n      dup2\n      gt\n      iszero\n      tag_67\n      jumpi\n      dup3\n      mload\n      dup3\n      sstore\n      swap2\n      0x20\n      add\n      swap2\n      swap1\n      0x01\n      add\n      swap1\n      jump(tag_66)\n    tag_67:\n    tag_63:\n      pop\n      swap1\n      pop\n      tag_68\n      swap2\n      swap1\n      tag_69\n      jump\t// in\n    tag_68:\n      pop\n      swap1\n      jump\t// out\n    tag_69:\n    tag_70:\n      dup1\n      dup3\n      gt\n      iszero\n      tag_71\n      jumpi\n      0x00\n      dup2\n      0x00\n      swap1\n      sstore\n      pop\n      0x01\n      add\n      jump(tag_70)\n    tag_71:\n      pop\n      swap1\n      jump\t// out\n        /* \"#utility.yul\":7:419   */\n    tag_73:\n        /* \"#utility.yul\":85:90   */\n      0x00\n        /* \"#utility.yul\":110:176   */\n      tag_75\n        /* \"#utility.yul\":126:175   */\n      tag_76\n        /* \"#utility.yul\":168:174   */\n      dup5\n        /* \"#utility.yul\":126:175   */\n      tag_77\n      jump\t// in\n    tag_76:\n        /* \"#utility.yul\":110:176   */\n      tag_78\n      jump\t// in\n    tag_75:\n        /* \"#utility.yul\":101:176   */\n      swap1\n      pop\n        /* \"#utility.yul\":199:205   */\n      dup3\n        /* \"#utility.yul\":192:197   */\n      dup2\n        /* \"#utility.yul\":185:206   */\n      mstore\n        /* \"#utility.yul\":237:241   */\n      0x20\n        /* \"#utility.yul\":230:235   */\n      dup2\n        /* \"#utility.yul\":226:242   */\n      add\n        /* \"#utility.yul\":275:278   */\n      dup5\n        /* \"#utility.yul\":266:272   */\n      dup5\n        /* \"#utility.yul\":261:264   */\n      dup5\n        /* \"#utility.yul\":257:273   */\n      add\n        /* \"#utility.yul\":254:279   */\n      gt\n        /* \"#utility.yul\":251:363   */\n      iszero\n      tag_79\n      jumpi\n        /* \"#utility.yul\":282:361   */\n      tag_80\n      tag_81\n      jump\t// in\n    tag_80:\n        /* \"#utility.yul\":251:363   */\n    tag_79:\n        /* \"#utility.yul\":372:413   */\n      tag_82\n        /* \"#utility.yul\":406:412   */\n      dup5\n        /* \"#utility.yul\":401:404   */\n      dup3\n        /* \"#utility.yul\":396:399   */\n      dup6\n        /* \"#utility.yul\":372:413   */\n      tag_83\n      jump\t// in\n    tag_82:\n        /* \"#utility.yul\":91:419   */\n      pop\n        /* \"#utility.yul\":7:419   */\n      swap4\n      swap3\n      pop\n      pop\n      pop\n      jump\t// out\n        /* \"#utility.yul\":439:779   */\n    tag_84:\n        /* \"#utility.yul\":495:500   */\n      0x00\n        /* \"#utility.yul\":544:547   */\n      dup3\n        /* \"#utility.yul\":537:541   */\n      0x1f\n        /* \"#utility.yul\":529:535   */\n      dup4\n        /* \"#utility.yul\":525:542   */\n      add\n        /* \"#utility.yul\":521:548   */\n      slt\n        /* \"#utility.yul\":511:633   */\n      tag_86\n      jumpi\n        /* \"#utility.yul\":552:631   */\n      tag_87\n      tag_88\n      jump\t// in\n    tag_87:\n        /* \"#utility.yul\":511:633   */\n    tag_86:\n        /* \"#utility.yul\":669:675   */\n      dup2\n        /* \"#utility.yul\":656:676   */\n      calldataload\n        /* \"#utility.yul\":694:773   */\n      tag_89\n        /* \"#utility.yul\":769:772   */\n      dup5\n        /* \"#utility.yul\":761:767   */\n      dup3\n        /* \"#utility.yul\":754:758   */\n      0x20\n        /* \"#utility.yul\":746:752   */\n      dup7\n        /* \"#utility.yul\":742:759   */\n      add\n        /* \"#utility.yul\":694:773   */\n      tag_73\n      jump\t// in\n    tag_89:\n        /* \"#utility.yul\":685:773   */\n      swap2\n      pop\n        /* \"#utility.yul\":501:779   */\n      pop\n        /* \"#utility.yul\":439:779   */\n      swap3\n      swap2\n      pop\n      pop\n      jump\t// out\n        /* \"#utility.yul\":785:924   */\n    tag_90:\n        /* \"#utility.yul\":831:836   */\n      0x00\n        /* \"#utility.yul\":869:875   */\n      dup2\n        /* \"#utility.yul\":856:876   */\n      calldataload\n        /* \"#utility.yul\":847:876   */\n      swap1\n      pop\n        /* \"#utility.yul\":885:918   */\n      tag_92\n        /* \"#utility.yul\":912:917   */\n      dup2\n        /* \"#utility.yul\":885:918   */\n      tag_93\n      jump\t// in\n    tag_92:\n        /* \"#utility.yul\":785:924   */\n      swap3\n      swap2\n      pop\n      pop\n      jump\t// out\n        /* \"#utility.yul\":930:1439   */\n    tag_26:\n        /* \"#utility.yul\":999:1005   */\n      0x00\n        /* \"#utility.yul\":1048:1050   */\n      0x20\n        /* \"#utility.yul\":1036:1045   */\n      dup3\n        /* \"#utility.yul\":1027:1034   */\n      dup5\n        /* \"#utility.yul\":1023:1046   */\n      sub\n        /* \"#utility.yul\":1019:1051   */\n      slt\n        /* \"#utility.yul\":1016:1135   */\n      iszero\n      tag_95\n      jumpi\n        /* \"#utility.yul\":1054:1133   */\n      tag_96\n      tag_97\n      jump\t// in\n    tag_96:\n        /* \"#utility.yul\":1016:1135   */\n    tag_95:\n        /* \"#utility.yul\":1202:1203   */\n      0x00\n        /* \"#utility.yul\":1191:1200   */\n      dup3\n        /* \"#utility.yul\":1187:1204   */\n      add\n        /* \"#utility.yul\":1174:1205   */\n      calldataload\n        /* \"#utility.yul\":1232:1250   */\n      0xffffffffffffffff\n        /* \"#utility.yul\":1224:1230   */\n      dup2\n        /* \"#utility.yul\":1221:1251   */\n      gt\n        /* \"#utility.yul\":1218:1335   */\n      iszero\n      tag_98\n      jumpi\n        /* \"#utility.yul\":1254:1333   */\n      tag_99\n      tag_100\n      jump\t// in\n    tag_99:\n        /* \"#utility.yul\":1218:1335   */\n    tag_98:\n        /* \"#utility.yul\":1359:1422   */\n      tag_101\n        /* \"#utility.yul\":1414:1421   */\n      dup5\n        /* \"#utility.yul\":1405:1411   */\n      dup3\n        /* \"#utility.yul\":1394:1403   */\n      dup6\n        /* \"#utility.yul\":1390:1412   */\n      add\n        /* \"#utility.yul\":1359:1422   */\n      tag_84\n      jump\t// in\n    tag_101:\n        /* \"#utility.yul\":1349:1422   */\n      swap2\n      pop\n        /* \"#utility.yul\":1145:1432   */\n      pop\n        /* \"#utility.yul\":930:1439   */\n      swap3\n      swap2\n      pop\n      pop\n      jump\t// out\n        /* \"#utility.yul\":1445:2279   */\n    tag_15:\n        /* \"#utility.yul\":1533:1539   */\n      0x00\n        /* \"#utility.yul\":1541:1547   */\n      dup1\n        /* \"#utility.yul\":1590:1592   */\n      0x40\n        /* \"#utility.yul\":1578:1587   */\n      dup4\n        /* \"#utility.yul\":1569:1576   */\n      dup6\n        /* \"#utility.yul\":1565:1588   */\n      sub\n        /* \"#utility.yul\":1561:1593   */\n      slt\n        /* \"#utility.yul\":1558:1677   */\n      iszero\n      tag_103\n      jumpi\n        /* \"#utility.yul\":1596:1675   */\n      tag_104\n      tag_97\n      jump\t// in\n    tag_104:\n        /* \"#utility.yul\":1558:1677   */\n    tag_103:\n        /* \"#utility.yul\":1744:1745   */\n      0x00\n        /* \"#utility.yul\":1733:1742   */\n      dup4\n        /* \"#utility.yul\":1729:1746   */\n      add\n        /* \"#utility.yul\":1716:1747   */\n      calldataload\n        /* \"#utility.yul\":1774:1792   */\n      0xffffffffffffffff\n        /* \"#utility.yul\":1766:1772   */\n      dup2\n        /* \"#utility.yul\":1763:1793   */\n      gt\n        /* \"#utility.yul\":1760:1877   */\n      iszero\n      tag_105\n      jumpi\n        /* \"#utility.yul\":1796:1875   */\n      tag_106\n      tag_100\n      jump\t// in\n    tag_106:\n        /* \"#utility.yul\":1760:1877   */\n    tag_105:\n        /* \"#utility.yul\":1901:1964   */\n      tag_107\n        /* \"#utility.yul\":1956:1963   */\n      dup6\n        /* \"#utility.yul\":1947:1953   */\n      dup3\n        /* \"#utility.yul\":1936:1945   */\n      dup7\n        /* \"#utility.yul\":1932:1954   */\n      add\n        /* \"#utility.yul\":1901:1964   */\n      tag_84\n      jump\t// in\n    tag_107:\n        /* \"#utility.yul\":1891:1964   */\n      swap3\n      pop\n        /* \"#utility.yul\":1687:1974   */\n      pop\n        /* \"#utility.yul\":2041:2043   */\n      0x20\n        /* \"#utility.yul\":2030:2039   */\n      dup4\n        /* \"#utility.yul\":2026:2044   */\n      add\n        /* \"#utility.yul\":2013:2045   */\n      calldataload\n        /* \"#utility.yul\":2072:2090   */\n      0xffffffffffffffff\n        /* \"#utility.yul\":2064:2070   */\n      dup2\n        /* \"#utility.yul\":2061:2091   */\n      gt\n        /* \"#utility.yul\":2058:2175   */\n      iszero\n      tag_108\n      jumpi\n        /* \"#utility.yul\":2094:2173   */\n      tag_109\n      tag_100\n      jump\t// in\n    tag_109:\n        /* \"#utility.yul\":2058:2175   */\n    tag_108:\n        /* \"#utility.yul\":2199:2262   */\n      tag_110\n        /* \"#utility.yul\":2254:2261   */\n      dup6\n        /* \"#utility.yul\":2245:2251   */\n      dup3\n        /* \"#utility.yul\":2234:2243   */\n      dup7\n        /* \"#utility.yul\":2230:2252   */\n      add\n        /* \"#utility.yul\":2199:2262   */\n      tag_84\n      jump\t// in\n    tag_110:\n        /* \"#utility.yul\":2189:2262   */\n      swap2\n      pop\n        /* \"#utility.yul\":1984:2272   */\n      pop\n        /* \"#utility.yul\":1445:2279   */\n      swap3\n      pop\n      swap3\n      swap1\n      pop\n      jump\t// out\n        /* \"#utility.yul\":2285:2939   */\n    tag_9:\n        /* \"#utility.yul\":2363:2369   */\n      0x00\n        /* \"#utility.yul\":2371:2377   */\n      dup1\n        /* \"#utility.yul\":2420:2422   */\n      0x40\n        /* \"#utility.yul\":2408:2417   */\n      dup4\n        /* \"#utility.yul\":2399:2406   */\n      dup6\n        /* \"#utility.yul\":2395:2418   */\n      sub\n        /* \"#utility.yul\":2391:2423   */\n      slt\n        /* \"#utility.yul\":2388:2507   */\n      iszero\n      tag_112\n      jumpi\n        /* \"#utility.yul\":2426:2505   */\n      tag_113\n      tag_97\n      jump\t// in\n    tag_113:\n        /* \"#utility.yul\":2388:2507   */\n    tag_112:\n        /* \"#utility.yul\":2574:2575   */\n      0x00\n        /* \"#utility.yul\":2563:2572   */\n      dup4\n        /* \"#utility.yul\":2559:2576   */\n      add\n        /* \"#utility.yul\":2546:2577   */\n      calldataload\n        /* \"#utility.yul\":2604:2622   */\n      0xffffffffffffffff\n        /* \"#utility.yul\":2596:2602   */\n      dup2\n        /* \"#utility.yul\":2593:2623   */\n      gt\n        /* \"#utility.yul\":2590:2707   */\n      iszero\n      tag_114\n      jumpi\n        /* \"#utility.yul\":2626:2705   */\n      tag_115\n      tag_100\n      jump\t// in\n    tag_115:\n        /* \"#utility.yul\":2590:2707   */\n    tag_114:\n        /* \"#utility.yul\":2731:2794   */\n      tag_116\n        /* \"#utility.yul\":2786:2793   */\n      dup6\n        /* \"#utility.yul\":2777:2783   */\n      dup3\n        /* \"#utility.yul\":2766:2775   */\n      dup7\n        /* \"#utility.yul\":2762:2784   */\n      add\n        /* \"#utility.yul\":2731:2794   */\n      tag_84\n      jump\t// in\n    tag_116:\n        /* \"#utility.yul\":2721:2794   */\n      swap3\n      pop\n        /* \"#utility.yul\":2517:2804   */\n      pop\n        /* \"#utility.yul\":2843:2845   */\n      0x20\n        /* \"#utility.yul\":2869:2922   */\n      tag_117\n        /* \"#utility.yul\":2914:2921   */\n      dup6\n        /* \"#utility.yul\":2905:2911   */\n      dup3\n        /* \"#utility.yul\":2894:2903   */\n      dup7\n        /* \"#utility.yul\":2890:2912   */\n      add\n        /* \"#utility.yul\":2869:2922   */\n      tag_90\n      jump\t// in\n    tag_117:\n        /* \"#utility.yul\":2859:2922   */\n      swap2\n      pop\n        /* \"#utility.yul\":2814:2932   */\n      pop\n        /* \"#utility.yul\":2285:2939   */\n      swap3\n      pop\n      swap3\n      swap1\n      pop\n      jump\t// out\n        /* \"#utility.yul\":2945:3274   */\n    tag_20:\n        /* \"#utility.yul\":3004:3010   */\n      0x00\n        /* \"#utility.yul\":3053:3055   */\n      0x20\n        /* \"#utility.yul\":3041:3050   */\n      dup3\n        /* \"#utility.yul\":3032:3039   */\n      dup5\n        /* \"#utility.yul\":3028:3051   */\n      sub\n        /* \"#utility.yul\":3024:3056   */\n      slt\n        /* \"#utility.yul\":3021:3140   */\n      iszero\n      tag_119\n      jumpi\n        /* \"#utility.yul\":3059:3138   */\n      tag_120\n      tag_97\n      jump\t// in\n    tag_120:\n        /* \"#utility.yul\":3021:3140   */\n    tag_119:\n        /* \"#utility.yul\":3179:3180   */\n      0x00\n        /* \"#utility.yul\":3204:3257   */\n      tag_121\n        /* \"#utility.yul\":3249:3256   */\n      dup5\n        /* \"#utility.yul\":3240:3246   */\n      dup3\n        /* \"#utility.yul\":3229:3238   */\n      dup6\n        /* \"#utility.yul\":3225:3247   */\n      add\n        /* \"#utility.yul\":3204:3257   */\n      tag_90\n      jump\t// in\n    tag_121:\n        /* \"#utility.yul\":3194:3257   */\n      swap2\n      pop\n        /* \"#utility.yul\":3150:3267   */\n      pop\n        /* \"#utility.yul\":2945:3274   */\n      swap3\n      swap2\n      pop\n      pop\n      jump\t// out\n        /* \"#utility.yul\":3280:3389   */\n    tag_122:\n        /* \"#utility.yul\":3361:3382   */\n      tag_124\n        /* \"#utility.yul\":3376:3381   */\n      dup2\n        /* \"#utility.yul\":3361:3382   */\n      tag_125\n      jump\t// in\n    tag_124:\n        /* \"#utility.yul\":3356:3359   */\n      dup3\n        /* \"#utility.yul\":3349:3383   */\n      mstore\n        /* \"#utility.yul\":3280:3389   */\n      pop\n      pop\n      jump\t// out\n        /* \"#utility.yul\":3395:3759   */\n    tag_126:\n        /* \"#utility.yul\":3483:3486   */\n      0x00\n        /* \"#utility.yul\":3511:3550   */\n      tag_128\n        /* \"#utility.yul\":3544:3549   */\n      dup3\n        /* \"#utility.yul\":3511:3550   */\n      tag_129\n      jump\t// in\n    tag_128:\n        /* \"#utility.yul\":3566:3637   */\n      tag_130\n        /* \"#utility.yul\":3630:3636   */\n      dup2\n        /* \"#utility.yul\":3625:3628   */\n      dup6\n        /* \"#utility.yul\":3566:3637   */\n      tag_131\n      jump\t// in\n    tag_130:\n        /* \"#utility.yul\":3559:3637   */\n      swap4\n      pop\n        /* \"#utility.yul\":3646:3698   */\n      tag_132\n        /* \"#utility.yul\":3691:3697   */\n      dup2\n        /* \"#utility.yul\":3686:3689   */\n      dup6\n        /* \"#utility.yul\":3679:3683   */\n      0x20\n        /* \"#utility.yul\":3672:3677   */\n      dup7\n        /* \"#utility.yul\":3668:3684   */\n      add\n        /* \"#utility.yul\":3646:3698   */\n      tag_133\n      jump\t// in\n    tag_132:\n        /* \"#utility.yul\":3723:3752   */\n      tag_134\n        /* \"#utility.yul\":3745:3751   */\n      dup2\n        /* \"#utility.yul\":3723:3752   */\n      tag_135\n      jump\t// in\n    tag_134:\n        /* \"#utility.yul\":3718:3721   */\n      dup5\n        /* \"#utility.yul\":3714:3753   */\n      add\n        /* \"#utility.yul\":3707:3753   */\n      swap2\n      pop\n        /* \"#utility.yul\":3487:3759   */\n      pop\n        /* \"#utility.yul\":3395:3759   */\n      swap3\n      swap2\n      pop\n      pop\n      jump\t// out\n        /* \"#utility.yul\":3765:4142   */\n    tag_136:\n        /* \"#utility.yul\":3871:3874   */\n      0x00\n        /* \"#utility.yul\":3899:3938   */\n      tag_138\n        /* \"#utility.yul\":3932:3937   */\n      dup3\n        /* \"#utility.yul\":3899:3938   */\n      tag_129\n      jump\t// in\n    tag_138:\n        /* \"#utility.yul\":3954:4043   */\n      tag_139\n        /* \"#utility.yul\":4036:4042   */\n      dup2\n        /* \"#utility.yul\":4031:4034   */\n      dup6\n        /* \"#utility.yul\":3954:4043   */\n      tag_140\n      jump\t// in\n    tag_139:\n        /* \"#utility.yul\":3947:4043   */\n      swap4\n      pop\n        /* \"#utility.yul\":4052:4104   */\n      tag_141\n        /* \"#utility.yul\":4097:4103   */\n      dup2\n        /* \"#utility.yul\":4092:4095   */\n      dup6\n        /* \"#utility.yul\":4085:4089   */\n      0x20\n        /* \"#utility.yul\":4078:4083   */\n      dup7\n        /* \"#utility.yul\":4074:4090   */\n      add\n        /* \"#utility.yul\":4052:4104   */\n      tag_133\n      jump\t// in\n    tag_141:\n        /* \"#utility.yul\":4129:4135   */\n      dup1\n        /* \"#utility.yul\":4124:4127   */\n      dup5\n        /* \"#utility.yul\":4120:4136   */\n      add\n        /* \"#utility.yul\":4113:4136   */\n      swap2\n      pop\n        /* \"#utility.yul\":3875:4142   */\n      pop\n        /* \"#utility.yul\":3765:4142   */\n      swap3\n      swap2\n      pop\n      pop\n      jump\t// out\n        /* \"#utility.yul\":4148:4514   */\n    tag_142:\n        /* \"#utility.yul\":4290:4293   */\n      0x00\n        /* \"#utility.yul\":4311:4378   */\n      tag_144\n        /* \"#utility.yul\":4375:4377   */\n      0x10\n        /* \"#utility.yul\":4370:4373   */\n      dup4\n        /* \"#utility.yul\":4311:4378   */\n      tag_131\n      jump\t// in\n    tag_144:\n        /* \"#utility.yul\":4304:4378   */\n      swap2\n      pop\n        /* \"#utility.yul\":4387:4480   */\n      tag_145\n        /* \"#utility.yul\":4476:4479   */\n      dup3\n        /* \"#utility.yul\":4387:4480   */\n      tag_146\n      jump\t// in\n    tag_145:\n        /* \"#utility.yul\":4505:4507   */\n      0x20\n        /* \"#utility.yul\":4500:4503   */\n      dup3\n        /* \"#utility.yul\":4496:4508   */\n      add\n        /* \"#utility.yul\":4489:4508   */\n      swap1\n      pop\n        /* \"#utility.yul\":4148:4514   */\n      swap2\n      swap1\n      pop\n      jump\t// out\n        /* \"#utility.yul\":4520:4638   */\n    tag_147:\n        /* \"#utility.yul\":4607:4631   */\n      tag_149\n        /* \"#utility.yul\":4625:4630   */\n      dup2\n        /* \"#utility.yul\":4607:4631   */\n      tag_150\n      jump\t// in\n    tag_149:\n        /* \"#utility.yul\":4602:4605   */\n      dup3\n        /* \"#utility.yul\":4595:4632   */\n      mstore\n        /* \"#utility.yul\":4520:4638   */\n      pop\n      pop\n      jump\t// out\n        /* \"#utility.yul\":4644:4919   */\n    tag_36:\n        /* \"#utility.yul\":4776:4779   */\n      0x00\n        /* \"#utility.yul\":4798:4893   */\n      tag_152\n        /* \"#utility.yul\":4889:4892   */\n      dup3\n        /* \"#utility.yul\":4880:4886   */\n      dup5\n        /* \"#utility.yul\":4798:4893   */\n      tag_136\n      jump\t// in\n    tag_152:\n        /* \"#utility.yul\":4791:4893   */\n      swap2\n      pop\n        /* \"#utility.yul\":4910:4913   */\n      dup2\n        /* \"#utility.yul\":4903:4913   */\n      swap1\n      pop\n        /* \"#utility.yul\":4644:4919   */\n      swap3\n      swap2\n      pop\n      pop\n      jump\t// out\n        /* \"#utility.yul\":4925:5238   */\n    tag_12:\n        /* \"#utility.yul\":5038:5042   */\n      0x00\n        /* \"#utility.yul\":5076:5078   */\n      0x20\n        /* \"#utility.yul\":5065:5074   */\n      dup3\n        /* \"#utility.yul\":5061:5079   */\n      add\n        /* \"#utility.yul\":5053:5079   */\n      swap1\n      pop\n        /* \"#utility.yul\":5125:5134   */\n      dup2\n        /* \"#utility.yul\":5119:5123   */\n      dup2\n        /* \"#utility.yul\":5115:5135   */\n      sub\n        /* \"#utility.yul\":5111:5112   */\n      0x00\n        /* \"#utility.yul\":5100:5109   */\n      dup4\n        /* \"#utility.yul\":5096:5113   */\n      add\n        /* \"#utility.yul\":5089:5136   */\n      mstore\n        /* \"#utility.yul\":5153:5231   */\n      tag_154\n        /* \"#utility.yul\":5226:5230   */\n      dup2\n        /* \"#utility.yul\":5217:5223   */\n      dup5\n        /* \"#utility.yul\":5153:5231   */\n      tag_126\n      jump\t// in\n    tag_154:\n        /* \"#utility.yul\":5145:5231   */\n      swap1\n      pop\n        /* \"#utility.yul\":4925:5238   */\n      swap3\n      swap2\n      pop\n      pop\n      jump\t// out\n        /* \"#utility.yul\":5244:5868   */\n    tag_23:\n        /* \"#utility.yul\":5433:5437   */\n      0x00\n        /* \"#utility.yul\":5471:5473   */\n      0x60\n        /* \"#utility.yul\":5460:5469   */\n      dup3\n        /* \"#utility.yul\":5456:5474   */\n      add\n        /* \"#utility.yul\":5448:5474   */\n      swap1\n      pop\n        /* \"#utility.yul\":5520:5529   */\n      dup2\n        /* \"#utility.yul\":5514:5518   */\n      dup2\n        /* \"#utility.yul\":5510:5530   */\n      sub\n        /* \"#utility.yul\":5506:5507   */\n      0x00\n        /* \"#utility.yul\":5495:5504   */\n      dup4\n        /* \"#utility.yul\":5491:5508   */\n      add\n        /* \"#utility.yul\":5484:5531   */\n      mstore\n        /* \"#utility.yul\":5548:5626   */\n      tag_156\n        /* \"#utility.yul\":5621:5625   */\n      dup2\n        /* \"#utility.yul\":5612:5618   */\n      dup7\n        /* \"#utility.yul\":5548:5626   */\n      tag_126\n      jump\t// in\n    tag_156:\n        /* \"#utility.yul\":5540:5626   */\n      swap1\n      pop\n        /* \"#utility.yul\":5673:5682   */\n      dup2\n        /* \"#utility.yul\":5667:5671   */\n      dup2\n        /* \"#utility.yul\":5663:5683   */\n      sub\n        /* \"#utility.yul\":5658:5660   */\n      0x20\n        /* \"#utility.yul\":5647:5656   */\n      dup4\n        /* \"#utility.yul\":5643:5661   */\n      add\n        /* \"#utility.yul\":5636:5684   */\n      mstore\n        /* \"#utility.yul\":5701:5779   */\n      tag_157\n        /* \"#utility.yul\":5774:5778   */\n      dup2\n        /* \"#utility.yul\":5765:5771   */\n      dup6\n        /* \"#utility.yul\":5701:5779   */\n      tag_126\n      jump\t// in\n    tag_157:\n        /* \"#utility.yul\":5693:5779   */\n      swap1\n      pop\n        /* \"#utility.yul\":5789:5861   */\n      tag_158\n        /* \"#utility.yul\":5857:5859   */\n      0x40\n        /* \"#utility.yul\":5846:5855   */\n      dup4\n        /* \"#utility.yul\":5842:5860   */\n      add\n        /* \"#utility.yul\":5833:5839   */\n      dup5\n        /* \"#utility.yul\":5789:5861   */\n      tag_147\n      jump\t// in\n    tag_158:\n        /* \"#utility.yul\":5244:5868   */\n      swap5\n      swap4\n      pop\n      pop\n      pop\n      pop\n      jump\t// out\n        /* \"#utility.yul\":5874:6293   */\n    tag_33:\n        /* \"#utility.yul\":6040:6044   */\n      0x00\n        /* \"#utility.yul\":6078:6080   */\n      0x20\n        /* \"#utility.yul\":6067:6076   */\n      dup3\n        /* \"#utility.yul\":6063:6081   */\n      add\n        /* \"#utility.yul\":6055:6081   */\n      swap1\n      pop\n        /* \"#utility.yul\":6127:6136   */\n      dup2\n        /* \"#utility.yul\":6121:6125   */\n      dup2\n        /* \"#utility.yul\":6117:6137   */\n      sub\n        /* \"#utility.yul\":6113:6114   */\n      0x00\n        /* \"#utility.yul\":6102:6111   */\n      dup4\n        /* \"#utility.yul\":6098:6115   */\n      add\n        /* \"#utility.yul\":6091:6138   */\n      mstore\n        /* \"#utility.yul\":6155:6286   */\n      tag_160\n        /* \"#utility.yul\":6281:6285   */\n      dup2\n        /* \"#utility.yul\":6155:6286   */\n      tag_142\n      jump\t// in\n    tag_160:\n        /* \"#utility.yul\":6147:6286   */\n      swap1\n      pop\n        /* \"#utility.yul\":5874:6293   */\n      swap2\n      swap1\n      pop\n      jump\t// out\n        /* \"#utility.yul\":6299:6619   */\n    tag_29:\n        /* \"#utility.yul\":6414:6418   */\n      0x00\n        /* \"#utility.yul\":6452:6454   */\n      0x40\n        /* \"#utility.yul\":6441:6450   */\n      dup3\n        /* \"#utility.yul\":6437:6455   */\n      add\n        /* \"#utility.yul\":6429:6455   */\n      swap1\n      pop\n        /* \"#utility.yul\":6465:6536   */\n      tag_162\n        /* \"#utility.yul\":6533:6534   */\n      0x00\n        /* \"#utility.yul\":6522:6531   */\n      dup4\n        /* \"#utility.yul\":6518:6535   */\n      add\n        /* \"#utility.yul\":6509:6515   */\n      dup6\n        /* \"#utility.yul\":6465:6536   */\n      tag_147\n      jump\t// in\n    tag_162:\n        /* \"#utility.yul\":6546:6612   */\n      tag_163\n        /* \"#utility.yul\":6608:6610   */\n      0x20\n        /* \"#utility.yul\":6597:6606   */\n      dup4\n        /* \"#utility.yul\":6593:6611   */\n      add\n        /* \"#utility.yul\":6584:6590   */\n      dup5\n        /* \"#utility.yul\":6546:6612   */\n      tag_122\n      jump\t// in\n    tag_163:\n        /* \"#utility.yul\":6299:6619   */\n      swap4\n      swap3\n      pop\n      pop\n      pop\n      jump\t// out\n        /* \"#utility.yul\":6625:6754   */\n    tag_78:\n        /* \"#utility.yul\":6659:6665   */\n      0x00\n        /* \"#utility.yul\":6686:6706   */\n      tag_165\n      tag_166\n      jump\t// in\n    tag_165:\n        /* \"#utility.yul\":6676:6706   */\n      swap1\n      pop\n        /* \"#utility.yul\":6715:6748   */\n      tag_167\n        /* \"#utility.yul\":6743:6747   */\n      dup3\n        /* \"#utility.yul\":6735:6741   */\n      dup3\n        /* \"#utility.yul\":6715:6748   */\n      tag_168\n      jump\t// in\n    tag_167:\n        /* \"#utility.yul\":6625:6754   */\n      swap2\n      swap1\n      pop\n      jump\t// out\n        /* \"#utility.yul\":6760:6835   */\n    tag_166:\n        /* \"#utility.yul\":6793:6799   */\n      0x00\n        /* \"#utility.yul\":6826:6828   */\n      0x40\n        /* \"#utility.yul\":6820:6829   */\n      mload\n        /* \"#utility.yul\":6810:6829   */\n      swap1\n      pop\n        /* \"#utility.yul\":6760:6835   */\n      swap1\n      jump\t// out\n        /* \"#utility.yul\":6841:7149   */\n    tag_77:\n        /* \"#utility.yul\":6903:6907   */\n      0x00\n        /* \"#utility.yul\":6993:7011   */\n      0xffffffffffffffff\n        /* \"#utility.yul\":6985:6991   */\n      dup3\n        /* \"#utility.yul\":6982:7012   */\n      gt\n        /* \"#utility.yul\":6979:7035   */\n      iszero\n      tag_171\n      jumpi\n        /* \"#utility.yul\":7015:7033   */\n      tag_172\n      tag_173\n      jump\t// in\n    tag_172:\n        /* \"#utility.yul\":6979:7035   */\n    tag_171:\n        /* \"#utility.yul\":7053:7082   */\n      tag_174\n        /* \"#utility.yul\":7075:7081   */\n      dup3\n        /* \"#utility.yul\":7053:7082   */\n      tag_135\n      jump\t// in\n    tag_174:\n        /* \"#utility.yul\":7045:7082   */\n      swap1\n      pop\n        /* \"#utility.yul\":7137:7141   */\n      0x20\n        /* \"#utility.yul\":7131:7135   */\n      dup2\n        /* \"#utility.yul\":7127:7142   */\n      add\n        /* \"#utility.yul\":7119:7142   */\n      swap1\n      pop\n        /* \"#utility.yul\":6841:7149   */\n      swap2\n      swap1\n      pop\n      jump\t// out\n        /* \"#utility.yul\":7155:7254   */\n    tag_129:\n        /* \"#utility.yul\":7207:7213   */\n      0x00\n        /* \"#utility.yul\":7241:7246   */\n      dup2\n        /* \"#utility.yul\":7235:7247   */\n      mload\n        /* \"#utility.yul\":7225:7247   */\n      swap1\n      pop\n        /* \"#utility.yul\":7155:7254   */\n      swap2\n      swap1\n      pop\n      jump\t// out\n        /* \"#utility.yul\":7260:7429   */\n    tag_131:\n        /* \"#utility.yul\":7344:7355   */\n      0x00\n        /* \"#utility.yul\":7378:7384   */\n      dup3\n        /* \"#utility.yul\":7373:7376   */\n      dup3\n        /* \"#utility.yul\":7366:7385   */\n      mstore\n        /* \"#utility.yul\":7418:7422   */\n      0x20\n        /* \"#utility.yul\":7413:7416   */\n      dup3\n        /* \"#utility.yul\":7409:7423   */\n      add\n        /* \"#utility.yul\":7394:7423   */\n      swap1\n      pop\n        /* \"#utility.yul\":7260:7429   */\n      swap3\n      swap2\n      pop\n      pop\n      jump\t// out\n        /* \"#utility.yul\":7435:7583   */\n    tag_140:\n        /* \"#utility.yul\":7537:7548   */\n      0x00\n        /* \"#utility.yul\":7574:7577   */\n      dup2\n        /* \"#utility.yul\":7559:7577   */\n      swap1\n      pop\n        /* \"#utility.yul\":7435:7583   */\n      swap3\n      swap2\n      pop\n      pop\n      jump\t// out\n        /* \"#utility.yul\":7589:7894   */\n    tag_42:\n        /* \"#utility.yul\":7629:7632   */\n      0x00\n        /* \"#utility.yul\":7648:7668   */\n      tag_179\n        /* \"#utility.yul\":7666:7667   */\n      dup3\n        /* \"#utility.yul\":7648:7668   */\n      tag_150\n      jump\t// in\n    tag_179:\n        /* \"#utility.yul\":7643:7668   */\n      swap2\n      pop\n        /* \"#utility.yul\":7682:7702   */\n      tag_180\n        /* \"#utility.yul\":7700:7701   */\n      dup4\n        /* \"#utility.yul\":7682:7702   */\n      tag_150\n      jump\t// in\n    tag_180:\n        /* \"#utility.yul\":7677:7702   */\n      swap3\n      pop\n        /* \"#utility.yul\":7836:7837   */\n      dup3\n        /* \"#utility.yul\":7768:7834   */\n      0xffffffffffffffffffffffffffffffffffffffffffffffffffffffffffffffff\n        /* \"#utility.yul\":7764:7838   */\n      sub\n        /* \"#utility.yul\":7761:7762   */\n      dup3\n        /* \"#utility.yul\":7758:7839   */\n      gt\n        /* \"#utility.yul\":7755:7862   */\n      iszero\n      tag_181\n      jumpi\n        /* \"#utility.yul\":7842:7860   */\n      tag_182\n      tag_183\n      jump\t// in\n    tag_182:\n        /* \"#utility.yul\":7755:7862   */\n    tag_181:\n        /* \"#utility.yul\":7886:7887   */\n      dup3\n        /* \"#utility.yul\":7883:7884   */\n      dup3\n        /* \"#utility.yul\":7879:7888   */\n      add\n        /* \"#utility.yul\":7872:7888   */\n      swap1\n      pop\n        /* \"#utility.yul\":7589:7894   */\n      swap3\n      swap2\n      pop\n      pop\n      jump\t// out\n        /* \"#utility.yul\":7900:7990   */\n    tag_125:\n        /* \"#utility.yul\":7934:7941   */\n      0x00\n        /* \"#utility.yul\":7977:7982   */\n      dup2\n        /* \"#utility.yul\":7970:7983   */\n      iszero\n        /* \"#utility.yul\":7963:7984   */\n      iszero\n        /* \"#utility.yul\":7952:7984   */\n      swap1\n      pop\n        /* \"#utility.yul\":7900:7990   */\n      swap2\n      swap1\n      pop\n      jump\t// out\n        /* \"#utility.yul\":7996:8073   */\n    tag_150:\n        /* \"#utility.yul\":8033:8040   */\n      0x00\n        /* \"#utility.yul\":8062:8067   */\n      dup2\n        /* \"#utility.yul\":8051:8067   */\n      swap1\n      pop\n        /* \"#utility.yul\":7996:8073   */\n      swap2\n      swap1\n      pop\n      jump\t// out\n        /* \"#utility.yul\":8079:8233   */\n    tag_83:\n        /* \"#utility.yul\":8163:8169   */\n      dup3\n        /* \"#utility.yul\":8158:8161   */\n      dup2\n        /* \"#utility.yul\":8153:8156   */\n      dup4\n        /* \"#utility.yul\":8140:8170   */\n      calldatacopy\n        /* \"#utility.yul\":8225:8226   */\n      0x00\n        /* \"#utility.yul\":8216:8222   */\n      dup4\n        /* \"#utility.yul\":8211:8214   */\n      dup4\n        /* \"#utility.yul\":8207:8223   */\n      add\n        /* \"#utility.yul\":8200:8227   */\n      mstore\n        /* \"#utility.yul\":8079:8233   */\n      pop\n      pop\n      pop\n      jump\t// out\n        /* \"#utility.yul\":8239:8546   */\n    tag_133:\n        /* \"#utility.yul\":8307:8308   */\n      0x00\n        /* \"#utility.yul\":8317:8430   */\n    tag_188:\n        /* \"#utility.yul\":8331:8337   */\n      dup4\n        /* \"#utility.yul\":8328:8329   */\n      dup2\n        /* \"#utility.yul\":8325:8338   */\n      lt\n        /* \"#utility.yul\":8317:8430   */\n      iszero\n      tag_190\n      jumpi\n        /* \"#utility.yul\":8416:8417   */\n      dup1\n        /* \"#utility.yul\":8411:8414   */\n      dup3\n        /* \"#utility.yul\":8407:8418   */\n      add\n        /* \"#utility.yul\":8401:8419   */\n      mload\n        /* \"#utility.yul\":8397:8398   */\n      dup2\n        /* \"#utility.yul\":8392:8395   */\n      dup5\n        /* \"#utility.yul\":8388:8399   */\n      add\n        /* \"#utility.yul\":8381:8420   */\n      mstore\n        /* \"#utility.yul\":8353:8355   */\n      0x20\n        /* \"#utility.yul\":8350:8351   */\n      dup2\n        /* \"#utility.yul\":8346:8356   */\n      add\n        /* \"#utility.yul\":8341:8356   */\n      swap1\n      pop\n        /* \"#utility.yul\":8317:8430   */\n      jump(tag_188)\n    tag_190:\n        /* \"#utility.yul\":8448:8454   */\n      dup4\n        /* \"#utility.yul\":8445:8446   */\n      dup2\n        /* \"#utility.yul\":8442:8455   */\n      gt\n        /* \"#utility.yul\":8439:8540   */\n      iszero\n      tag_191\n      jumpi\n        /* \"#utility.yul\":8528:8529   */\n      0x00\n        /* \"#utility.yul\":8519:8525   */\n      dup5\n        /* \"#utility.yul\":8514:8517   */\n      dup5\n        /* \"#utility.yul\":8510:8526   */\n      add\n        /* \"#utility.yul\":8503:8530   */\n      mstore\n        /* \"#utility.yul\":8439:8540   */\n    tag_191:\n        /* \"#utility.yul\":8288:8546   */\n      pop\n        /* \"#utility.yul\":8239:8546   */\n      pop\n      pop\n      pop\n      jump\t// out\n        /* \"#utility.yul\":8552:8872   */\n    tag_52:\n        /* \"#utility.yul\":8596:8602   */\n      0x00\n        /* \"#utility.yul\":8633:8634   */\n      0x02\n        /* \"#utility.yul\":8627:8631   */\n      dup3\n        /* \"#utility.yul\":8623:8635   */\n      div\n        /* \"#utility.yul\":8613:8635   */\n      swap1\n      pop\n        /* \"#utility.yul\":8680:8681   */\n      0x01\n        /* \"#utility.yul\":8674:8678   */\n      dup3\n        /* \"#utility.yul\":8670:8682   */\n      and\n        /* \"#utility.yul\":8701:8719   */\n      dup1\n        /* \"#utility.yul\":8691:8772   */\n      tag_193\n      jumpi\n        /* \"#utility.yul\":8757:8761   */\n      0x7f\n        /* \"#utility.yul\":8749:8755   */\n      dup3\n        /* \"#utility.yul\":8745:8762   */\n      and\n        /* \"#utility.yul\":8735:8762   */\n      swap2\n      pop\n        /* \"#utility.yul\":8691:8772   */\n    tag_193:\n        /* \"#utility.yul\":8819:8821   */\n      0x20\n        /* \"#utility.yul\":8811:8817   */\n      dup3\n        /* \"#utility.yul\":8808:8822   */\n      lt\n        /* \"#utility.yul\":8788:8806   */\n      dup2\n        /* \"#utility.yul\":8785:8823   */\n      eq\n        /* \"#utility.yul\":8782:8866   */\n      iszero\n      tag_194\n      jumpi\n        /* \"#utility.yul\":8838:8856   */\n      tag_195\n      tag_196\n      jump\t// in\n    tag_195:\n        /* \"#utility.yul\":8782:8866   */\n    tag_194:\n        /* \"#utility.yul\":8603:8872   */\n      pop\n        /* \"#utility.yul\":8552:8872   */\n      swap2\n      swap1\n      pop\n      jump\t// out\n        /* \"#utility.yul\":8878:9159   */\n    tag_168:\n        /* \"#utility.yul\":8961:8988   */\n      tag_198\n        /* \"#utility.yul\":8983:8987   */\n      dup3\n        /* \"#utility.yul\":8961:8988   */\n      tag_135\n      jump\t// in\n    tag_198:\n        /* \"#utility.yul\":8953:8959   */\n      dup2\n        /* \"#utility.yul\":8949:8989   */\n      add\n        /* \"#utility.yul\":9091:9097   */\n      dup2\n        /* \"#utility.yul\":9079:9089   */\n      dup2\n        /* \"#utility.yul\":9076:9098   */\n      lt\n        /* \"#utility.yul\":9055:9073   */\n      0xffffffffffffffff\n        /* \"#utility.yul\":9043:9053   */\n      dup3\n        /* \"#utility.yul\":9040:9074   */\n      gt\n        /* \"#utility.yul\":9037:9099   */\n      or\n        /* \"#utility.yul\":9034:9122   */\n      iszero\n      tag_199\n      jumpi\n        /* \"#utility.yul\":9102:9120   */\n      tag_200\n      tag_173\n      jump\t// in\n    tag_200:\n        /* \"#utility.yul\":9034:9122   */\n    tag_199:\n        /* \"#utility.yul\":9142:9152   */\n      dup1\n        /* \"#utility.yul\":9138:9140   */\n      0x40\n        /* \"#utility.yul\":9131:9153   */\n      mstore\n        /* \"#utility.yul\":8921:9159   */\n      pop\n        /* \"#utility.yul\":8878:9159   */\n      pop\n      pop\n      jump\t// out\n        /* \"#utility.yul\":9165:9398   */\n    tag_39:\n        /* \"#utility.yul\":9204:9207   */\n      0x00\n        /* \"#utility.yul\":9227:9251   */\n      tag_202\n        /* \"#utility.yul\":9245:9250   */\n      dup3\n        /* \"#utility.yul\":9227:9251   */\n      tag_150\n      jump\t// in\n    tag_202:\n        /* \"#utility.yul\":9218:9251   */\n      swap2\n      pop\n        /* \"#utility.yul\":9273:9339   */\n      0xffffffffffffffffffffffffffffffffffffffffffffffffffffffffffffffff\n        /* \"#utility.yul\":9266:9271   */\n      dup3\n        /* \"#utility.yul\":9263:9340   */\n      eq\n        /* \"#utility.yul\":9260:9363   */\n      iszero\n      tag_203\n      jumpi\n        /* \"#utility.yul\":9343:9361   */\n      tag_204\n      tag_183\n      jump\t// in\n    tag_204:\n        /* \"#utility.yul\":9260:9363   */\n    tag_203:\n        /* \"#utility.yul\":9390:9391   */\n      0x01\n        /* \"#utility.yul\":9383:9388   */\n      dup3\n        /* \"#utility.yul\":9379:9392   */\n      add\n        /* \"#utility.yul\":9372:9392   */\n      swap1\n      pop\n        /* \"#utility.yul\":9165:9398   */\n      swap2\n      swap1\n      pop\n      jump\t// out\n        /* \"#utility.yul\":9404:9584   */\n    tag_183:\n        /* \"#utility.yul\":9452:9529   */\n      0x4e487b7100000000000000000000000000000000000000000000000000000000\n        /* \"#utility.yul\":9449:9450   */\n      0x00\n        /* \"#utility.yul\":9442:9530   */\n      mstore\n        /* \"#utility.yul\":9549:9553   */\n      0x11\n        /* \"#utility.yul\":9546:9547   */\n      0x04\n        /* \"#utility.yul\":9539:9554   */\n      mstore\n        /* \"#utility.yul\":9573:9577   */\n      0x24\n        /* \"#utility.yul\":9570:9571   */\n      0x00\n        /* \"#utility.yul\":9563:9578   */\n      revert\n        /* \"#utility.yul\":9590:9770   */\n    tag_196:\n        /* \"#utility.yul\":9638:9715   */\n      0x4e487b7100000000000000000000000000000000000000000000000000000000\n        /* \"#utility.yul\":9635:9636   */\n      0x00\n        /* \"#utility.yul\":9628:9716   */\n      mstore\n        /* \"#utility.yul\":9735:9739   */\n      0x22\n        /* \"#utility.yul\":9732:9733   */\n      0x04\n        /* \"#utility.yul\":9725:9740   */\n      mstore\n        /* \"#utility.yul\":9759:9763   */\n      0x24\n        /* \"#utility.yul\":9756:9757   */\n      0x00\n        /* \"#utility.yul\":9749:9764   */\n      revert\n        /* \"#utility.yul\":9776:9956   */\n    tag_173:\n        /* \"#utility.yul\":9824:9901   */\n      0x4e487b7100000000000000000000000000000000000000000000000000000000\n        /* \"#utility.yul\":9821:9822   */\n      0x00\n        /* \"#utility.yul\":9814:9902   */\n      mstore\n        /* \"#utility.yul\":9921:9925   */\n      0x41\n        /* \"#utility.yul\":9918:9919   */\n      0x04\n        /* \"#utility.yul\":9911:9926   */\n      mstore\n        /* \"#utility.yul\":9945:9949   */\n      0x24\n        /* \"#utility.yul\":9942:9943   */\n      0x00\n        /* \"#utility.yul\":9935:9950   */\n      revert\n        /* \"#utility.yul\":9962:10079   */\n    tag_88:\n        /* \"#utility.yul\":10071:10072   */\n      0x00\n        /* \"#utility.yul\":10068:10069   */\n      dup1\n        /* \"#utility.yul\":10061:10073   */\n      revert\n        /* \"#utility.yul\":10085:10202   */\n    tag_81:\n        /* \"#utility.yul\":10194:10195   */\n      0x00\n        /* \"#utility.yul\":10191:10192   */\n      dup1\n        /* \"#utility.yul\":10184:10196   */\n      revert\n        /* \"#utility.yul\":10208:10325   */\n    tag_100:\n        /* \"#utility.yul\":10317:10318   */\n      0x00\n        /* \"#utility.yul\":10314:10315   */\n      dup1\n        /* \"#utility.yul\":10307:10319   */\n      revert\n        /* \"#utility.yul\":10331:10448   */\n    tag_97:\n        /* \"#utility.yul\":10440:10441   */\n      0x00\n        /* \"#utility.yul\":10437:10438   */\n      dup1\n        /* \"#utility.yul\":10430:10442   */\n      revert\n        /* \"#utility.yul\":10454:10556   */\n    tag_135:\n        /* \"#utility.yul\":10495:10501   */\n      0x00\n        /* \"#utility.yul\":10546:10548   */\n      0x1f\n        /* \"#utility.yul\":10542:10549   */\n      not\n        /* \"#utility.yul\":10537:10539   */\n      0x1f\n        /* \"#utility.yul\":10530:10535   */\n      dup4\n        /* \"#utility.yul\":10526:10540   */\n      add\n        /* \"#utility.yul\":10522:10550   */\n      and\n        /* \"#utility.yul\":10512:10550   */\n      swap1\n      pop\n        /* \"#utility.yul\":10454:10556   */\n      swap2\n      swap1\n      pop\n      jump\t// out\n        /* \"#utility.yul\":10562:10728   */\n    tag_146:\n        /* \"#utility.yul\":10702:10720   */\n      0x4163636573732069732044656e69656400000000000000000000000000000000\n        /* \"#utility.yul\":10698:10699   */\n      0x00\n        /* \"#utility.yul\":10690:10696   */\n      dup3\n        /* \"#utility.yul\":10686:10700   */\n      add\n        /* \"#utility.yul\":10679:10721   */\n      mstore\n        /* \"#utility.yul\":10562:10728   */\n      pop\n      jump\t// out\n        /* \"#utility.yul\":10734:10856   */\n    tag_93:\n        /* \"#utility.yul\":10807:10831   */\n      tag_215\n        /* \"#utility.yul\":10825:10830   */\n      dup2\n        /* \"#utility.yul\":10807:10831   */\n      tag_150\n      jump\t// in\n    tag_215:\n        /* \"#utility.yul\":10800:10805   */\n      dup2\n        /* \"#utility.yul\":10797:10832   */\n      eq\n        /* \"#utility.yul\":10787:10850   */\n      tag_216\n      jumpi\n        /* \"#utility.yul\":10846:10847   */\n      0x00\n        /* \"#utility.yul\":10843:10844   */\n      dup1\n        /* \"#utility.yul\":10836:10848   */\n      revert\n        /* \"#utility.yul\":10787:10850   */\n    tag_216:\n        /* \"#utility.yul\":10734:10856   */\n      pop\n      jump\t// out\n    stop\n    data_346ae9e229890c1b5467b3280ac50efb3a563831aa4e9bb9392fe53f7d7de7e2 596f752077696c6c20626520616464656420746f2063616e646964617465206c697374206f6e636520796f75206172652076616c696461746564206279207468652061646d696e\n\n    auxdata: 0xa26469706673582212201884733ddae204133058f1154d56b98484e84743f81dc7336db7fa690144ca4264736f6c63430008070033\n}\n",
				"bytecode": {
					"linkReferences": {},
					"object": "608060405234801561001057600080fd5b5033600260006101000a81548173ffffffffffffffffffffffffffffffffffffffff021916908373ffffffffffffffffffffffffffffffffffffffff160217905550610cb9806100616000396000f3fe608060405234801561001057600080fd5b506004361061004c5760003560e01c80630fd94e641461005157806317678bc3146100815780633477ee2e146100b157806353fa2e64146100e3575b600080fd5b61006b60048036038101906100669190610778565b610114565b60405161007891906108c3565b60405180910390f35b61009b60048036038101906100969190610700565b6102c9565b6040516100a891906108c3565b60405180910390f35b6100cb60048036038101906100c691906107d4565b61040e565b6040516100da939291906108e5565b60405180910390f35b6100fd60048036038101906100f891906106b7565b610548565b60405161010b92919061094a565b60405180910390f35b6060600260009054906101000a900473ffffffffffffffffffffffffffffffffffffffff1673ffffffffffffffffffffffffffffffffffffffff163373ffffffffffffffffffffffffffffffffffffffff16146101a6576040517f08c379a000000000000000000000000000000000000000000000000000000000815260040161019d9061092a565b60405180910390fd5b600015156004846040516101ba91906108ac565b908152602001604051809103902060010160009054906101000a900460ff161515146101e557600080fd5b60008081546101f390610b01565b9190508190555060405180604001604052808381526020016001151581525060048460405161022291906108ac565b90815260200160405180910390206000820151816000015560208201518160010160006101000a81548160ff021916908315150217905550905050600160036000848152602001908152602001600020600201600082825461028491906109f0565b925050819055506040518060400160405280601b81526020017f596f752068617665207375636365737366756c6c7920766f7465640000000000815250905092915050565b6060600260009054906101000a900473ffffffffffffffffffffffffffffffffffffffff1673ffffffffffffffffffffffffffffffffffffffff163373ffffffffffffffffffffffffffffffffffffffff161461035b576040517f08c379a00000000000000000000000000000000000000000000000000000000081526004016103529061092a565b60405180910390fd5b60006001600081548092919061037090610b01565b919050559050604051806060016040528085815260200184815260200160008152506003600083815260200190815260200160002060008201518160000190805190602001906103c192919061058f565b5060208201518160010190805190602001906103de92919061058f565b5060408201518160020155905050604051806080016040528060478152602001610c3d6047913991505092915050565b600360205280600052604060002060009150905080600001805461043190610a9e565b80601f016020809104026020016040519081016040528092919081815260200182805461045d90610a9e565b80156104aa5780601f1061047f576101008083540402835291602001916104aa565b820191906000526020600020905b81548152906001019060200180831161048d57829003601f168201915b5050505050908060010180546104bf90610a9e565b80601f01602080910402602001604051908101604052809291908181526020018280546104eb90610a9e565b80156105385780601f1061050d57610100808354040283529160200191610538565b820191906000526020600020905b81548152906001019060200180831161051b57829003601f168201915b5050505050908060020154905083565b6004818051602081018201805184825260208301602085012081835280955050505050506000915090508060000154908060010160009054906101000a900460ff16905082565b82805461059b90610a9e565b90600052602060002090601f0160209004810192826105bd5760008555610604565b82601f106105d657805160ff1916838001178555610604565b82800160010185558215610604579182015b828111156106035782518255916020019190600101906105e8565b5b5090506106119190610615565b5090565b5b8082111561062e576000816000905550600101610616565b5090565b600061064561064084610998565b610973565b90508281526020810184848401111561066157610660610bdc565b5b61066c848285610a5c565b509392505050565b600082601f83011261068957610688610bd7565b5b8135610699848260208601610632565b91505092915050565b6000813590506106b181610c25565b92915050565b6000602082840312156106cd576106cc610be6565b5b600082013567ffffffffffffffff8111156106eb576106ea610be1565b5b6106f784828501610674565b91505092915050565b6000806040838503121561071757610716610be6565b5b600083013567ffffffffffffffff81111561073557610734610be1565b5b61074185828601610674565b925050602083013567ffffffffffffffff81111561076257610761610be1565b5b61076e85828601610674565b9150509250929050565b6000806040838503121561078f5761078e610be6565b5b600083013567ffffffffffffffff8111156107ad576107ac610be1565b5b6107b985828601610674565b92505060206107ca858286016106a2565b9150509250929050565b6000602082840312156107ea576107e9610be6565b5b60006107f8848285016106a2565b91505092915050565b61080a81610a46565b82525050565b600061081b826109c9565b61082581856109d4565b9350610835818560208601610a6b565b61083e81610beb565b840191505092915050565b6000610854826109c9565b61085e81856109e5565b935061086e818560208601610a6b565b80840191505092915050565b60006108876010836109d4565b915061089282610bfc565b602082019050919050565b6108a681610a52565b82525050565b60006108b88284610849565b915081905092915050565b600060208201905081810360008301526108dd8184610810565b905092915050565b600060608201905081810360008301526108ff8186610810565b905081810360208301526109138185610810565b9050610922604083018461089d565b949350505050565b600060208201905081810360008301526109438161087a565b9050919050565b600060408201905061095f600083018561089d565b61096c6020830184610801565b9392505050565b600061097d61098e565b90506109898282610ad0565b919050565b6000604051905090565b600067ffffffffffffffff8211156109b3576109b2610ba8565b5b6109bc82610beb565b9050602081019050919050565b600081519050919050565b600082825260208201905092915050565b600081905092915050565b60006109fb82610a52565b9150610a0683610a52565b9250827fffffffffffffffffffffffffffffffffffffffffffffffffffffffffffffffff03821115610a3b57610a3a610b4a565b5b828201905092915050565b60008115159050919050565b6000819050919050565b82818337600083830152505050565b60005b83811015610a89578082015181840152602081019050610a6e565b83811115610a98576000848401525b50505050565b60006002820490506001821680610ab657607f821691505b60208210811415610aca57610ac9610b79565b5b50919050565b610ad982610beb565b810181811067ffffffffffffffff82111715610af857610af7610ba8565b5b80604052505050565b6000610b0c82610a52565b91507fffffffffffffffffffffffffffffffffffffffffffffffffffffffffffffffff821415610b3f57610b3e610b4a565b5b600182019050919050565b7f4e487b7100000000000000000000000000000000000000000000000000000000600052601160045260246000fd5b7f4e487b7100000000000000000000000000000000000000000000000000000000600052602260045260246000fd5b7f4e487b7100000000000000000000000000000000000000000000000000000000600052604160045260246000fd5b600080fd5b600080fd5b600080fd5b600080fd5b6000601f19601f8301169050919050565b7f4163636573732069732044656e69656400000000000000000000000000000000600082015250565b610c2e81610a52565b8114610c3957600080fd5b5056fe596f752077696c6c20626520616464656420746f2063616e646964617465206c697374206f6e636520796f75206172652076616c696461746564206279207468652061646d696ea26469706673582212201884733ddae204133058f1154d56b98484e84743f81dc7336db7fa690144ca4264736f6c63430008070033",
					"opcodes": "PUSH1 0x80 PUSH1 0x40 MSTORE CALLVALUE DUP1 ISZERO PUSH2 0x10 JUMPI PUSH1 0x0 DUP1 REVERT JUMPDEST POP CALLER PUSH1 0x2 PUSH1 0x0 PUSH2 0x100 EXP DUP2 SLOAD DUP2 PUSH20 0xFFFFFFFFFFFFFFFFFFFFFFFFFFFFFFFFFFFFFFFF MUL NOT AND SWAP1 DUP4 PUSH20 0xFFFFFFFFFFFFFFFFFFFFFFFFFFFFFFFFFFFFFFFF AND MUL OR SWAP1 SSTORE POP PUSH2 0xCB9 DUP1 PUSH2 0x61 PUSH1 0x0 CODECOPY PUSH1 0x0 RETURN INVALID PUSH1 0x80 PUSH1 0x40 MSTORE CALLVALUE DUP1 ISZERO PUSH2 0x10 JUMPI PUSH1 0x0 DUP1 REVERT JUMPDEST POP PUSH1 0x4 CALLDATASIZE LT PUSH2 0x4C JUMPI PUSH1 0x0 CALLDATALOAD PUSH1 0xE0 SHR DUP1 PUSH4 0xFD94E64 EQ PUSH2 0x51 JUMPI DUP1 PUSH4 0x17678BC3 EQ PUSH2 0x81 JUMPI DUP1 PUSH4 0x3477EE2E EQ PUSH2 0xB1 JUMPI DUP1 PUSH4 0x53FA2E64 EQ PUSH2 0xE3 JUMPI JUMPDEST PUSH1 0x0 DUP1 REVERT JUMPDEST PUSH2 0x6B PUSH1 0x4 DUP1 CALLDATASIZE SUB DUP2 ADD SWAP1 PUSH2 0x66 SWAP2 SWAP1 PUSH2 0x778 JUMP JUMPDEST PUSH2 0x114 JUMP JUMPDEST PUSH1 0x40 MLOAD PUSH2 0x78 SWAP2 SWAP1 PUSH2 0x8C3 JUMP JUMPDEST PUSH1 0x40 MLOAD DUP1 SWAP2 SUB SWAP1 RETURN JUMPDEST PUSH2 0x9B PUSH1 0x4 DUP1 CALLDATASIZE SUB DUP2 ADD SWAP1 PUSH2 0x96 SWAP2 SWAP1 PUSH2 0x700 JUMP JUMPDEST PUSH2 0x2C9 JUMP JUMPDEST PUSH1 0x40 MLOAD PUSH2 0xA8 SWAP2 SWAP1 PUSH2 0x8C3 JUMP JUMPDEST PUSH1 0x40 MLOAD DUP1 SWAP2 SUB SWAP1 RETURN JUMPDEST PUSH2 0xCB PUSH1 0x4 DUP1 CALLDATASIZE SUB DUP2 ADD SWAP1 PUSH2 0xC6 SWAP2 SWAP1 PUSH2 0x7D4 JUMP JUMPDEST PUSH2 0x40E JUMP JUMPDEST PUSH1 0x40 MLOAD PUSH2 0xDA SWAP4 SWAP3 SWAP2 SWAP1 PUSH2 0x8E5 JUMP JUMPDEST PUSH1 0x40 MLOAD DUP1 SWAP2 SUB SWAP1 RETURN JUMPDEST PUSH2 0xFD PUSH1 0x4 DUP1 CALLDATASIZE SUB DUP2 ADD SWAP1 PUSH2 0xF8 SWAP2 SWAP1 PUSH2 0x6B7 JUMP JUMPDEST PUSH2 0x548 JUMP JUMPDEST PUSH1 0x40 MLOAD PUSH2 0x10B SWAP3 SWAP2 SWAP1 PUSH2 0x94A JUMP JUMPDEST PUSH1 0x40 MLOAD DUP1 SWAP2 SUB SWAP1 RETURN JUMPDEST PUSH1 0x60 PUSH1 0x2 PUSH1 0x0 SWAP1 SLOAD SWAP1 PUSH2 0x100 EXP SWAP1 DIV PUSH20 0xFFFFFFFFFFFFFFFFFFFFFFFFFFFFFFFFFFFFFFFF AND PUSH20 0xFFFFFFFFFFFFFFFFFFFFFFFFFFFFFFFFFFFFFFFF AND CALLER PUSH20 0xFFFFFFFFFFFFFFFFFFFFFFFFFFFFFFFFFFFFFFFF AND EQ PUSH2 0x1A6 JUMPI PUSH1 0x40 MLOAD PUSH32 0x8C379A000000000000000000000000000000000000000000000000000000000 DUP2 MSTORE PUSH1 0x4 ADD PUSH2 0x19D SWAP1 PUSH2 0x92A JUMP JUMPDEST PUSH1 0x40 MLOAD DUP1 SWAP2 SUB SWAP1 REVERT JUMPDEST PUSH1 0x0 ISZERO ISZERO PUSH1 0x4 DUP5 PUSH1 0x40 MLOAD PUSH2 0x1BA SWAP2 SWAP1 PUSH2 0x8AC JUMP JUMPDEST SWAP1 DUP2 MSTORE PUSH1 0x20 ADD PUSH1 0x40 MLOAD DUP1 SWAP2 SUB SWAP1 KECCAK256 PUSH1 0x1 ADD PUSH1 0x0 SWAP1 SLOAD SWAP1 PUSH2 0x100 EXP SWAP1 DIV PUSH1 0xFF AND ISZERO ISZERO EQ PUSH2 0x1E5 JUMPI PUSH1 0x0 DUP1 REVERT JUMPDEST PUSH1 0x0 DUP1 DUP2 SLOAD PUSH2 0x1F3 SWAP1 PUSH2 0xB01 JUMP JUMPDEST SWAP2 SWAP1 POP DUP2 SWAP1 SSTORE POP PUSH1 0x40 MLOAD DUP1 PUSH1 0x40 ADD PUSH1 0x40 MSTORE DUP1 DUP4 DUP2 MSTORE PUSH1 0x20 ADD PUSH1 0x1 ISZERO ISZERO DUP2 MSTORE POP PUSH1 0x4 DUP5 PUSH1 0x40 MLOAD PUSH2 0x222 SWAP2 SWAP1 PUSH2 0x8AC JUMP JUMPDEST SWAP1 DUP2 MSTORE PUSH1 0x20 ADD PUSH1 0x40 MLOAD DUP1 SWAP2 SUB SWAP1 KECCAK256 PUSH1 0x0 DUP3 ADD MLOAD DUP2 PUSH1 0x0 ADD SSTORE PUSH1 0x20 DUP3 ADD MLOAD DUP2 PUSH1 0x1 ADD PUSH1 0x0 PUSH2 0x100 EXP DUP2 SLOAD DUP2 PUSH1 0xFF MUL NOT AND SWAP1 DUP4 ISZERO ISZERO MUL OR SWAP1 SSTORE POP SWAP1 POP POP PUSH1 0x1 PUSH1 0x3 PUSH1 0x0 DUP5 DUP2 MSTORE PUSH1 0x20 ADD SWAP1 DUP2 MSTORE PUSH1 0x20 ADD PUSH1 0x0 KECCAK256 PUSH1 0x2 ADD PUSH1 0x0 DUP3 DUP3 SLOAD PUSH2 0x284 SWAP2 SWAP1 PUSH2 0x9F0 JUMP JUMPDEST SWAP3 POP POP DUP2 SWAP1 SSTORE POP PUSH1 0x40 MLOAD DUP1 PUSH1 0x40 ADD PUSH1 0x40 MSTORE DUP1 PUSH1 0x1B DUP2 MSTORE PUSH1 0x20 ADD PUSH32 0x596F752068617665207375636365737366756C6C7920766F7465640000000000 DUP2 MSTORE POP SWAP1 POP SWAP3 SWAP2 POP POP JUMP JUMPDEST PUSH1 0x60 PUSH1 0x2 PUSH1 0x0 SWAP1 SLOAD SWAP1 PUSH2 0x100 EXP SWAP1 DIV PUSH20 0xFFFFFFFFFFFFFFFFFFFFFFFFFFFFFFFFFFFFFFFF AND PUSH20 0xFFFFFFFFFFFFFFFFFFFFFFFFFFFFFFFFFFFFFFFF AND CALLER PUSH20 0xFFFFFFFFFFFFFFFFFFFFFFFFFFFFFFFFFFFFFFFF AND EQ PUSH2 0x35B JUMPI PUSH1 0x40 MLOAD PUSH32 0x8C379A000000000000000000000000000000000000000000000000000000000 DUP2 MSTORE PUSH1 0x4 ADD PUSH2 0x352 SWAP1 PUSH2 0x92A JUMP JUMPDEST PUSH1 0x40 MLOAD DUP1 SWAP2 SUB SWAP1 REVERT JUMPDEST PUSH1 0x0 PUSH1 0x1 PUSH1 0x0 DUP2 SLOAD DUP1 SWAP3 SWAP2 SWAP1 PUSH2 0x370 SWAP1 PUSH2 0xB01 JUMP JUMPDEST SWAP2 SWAP1 POP SSTORE SWAP1 POP PUSH1 0x40 MLOAD DUP1 PUSH1 0x60 ADD PUSH1 0x40 MSTORE DUP1 DUP6 DUP2 MSTORE PUSH1 0x20 ADD DUP5 DUP2 MSTORE PUSH1 0x20 ADD PUSH1 0x0 DUP2 MSTORE POP PUSH1 0x3 PUSH1 0x0 DUP4 DUP2 MSTORE PUSH1 0x20 ADD SWAP1 DUP2 MSTORE PUSH1 0x20 ADD PUSH1 0x0 KECCAK256 PUSH1 0x0 DUP3 ADD MLOAD DUP2 PUSH1 0x0 ADD SWAP1 DUP1 MLOAD SWAP1 PUSH1 0x20 ADD SWAP1 PUSH2 0x3C1 SWAP3 SWAP2 SWAP1 PUSH2 0x58F JUMP JUMPDEST POP PUSH1 0x20 DUP3 ADD MLOAD DUP2 PUSH1 0x1 ADD SWAP1 DUP1 MLOAD SWAP1 PUSH1 0x20 ADD SWAP1 PUSH2 0x3DE SWAP3 SWAP2 SWAP1 PUSH2 0x58F JUMP JUMPDEST POP PUSH1 0x40 DUP3 ADD MLOAD DUP2 PUSH1 0x2 ADD SSTORE SWAP1 POP POP PUSH1 0x40 MLOAD DUP1 PUSH1 0x80 ADD PUSH1 0x40 MSTORE DUP1 PUSH1 0x47 DUP2 MSTORE PUSH1 0x20 ADD PUSH2 0xC3D PUSH1 0x47 SWAP2 CODECOPY SWAP2 POP POP SWAP3 SWAP2 POP POP JUMP JUMPDEST PUSH1 0x3 PUSH1 0x20 MSTORE DUP1 PUSH1 0x0 MSTORE PUSH1 0x40 PUSH1 0x0 KECCAK256 PUSH1 0x0 SWAP2 POP SWAP1 POP DUP1 PUSH1 0x0 ADD DUP1 SLOAD PUSH2 0x431 SWAP1 PUSH2 0xA9E JUMP JUMPDEST DUP1 PUSH1 0x1F ADD PUSH1 0x20 DUP1 SWAP2 DIV MUL PUSH1 0x20 ADD PUSH1 0x40 MLOAD SWAP1 DUP2 ADD PUSH1 0x40 MSTORE DUP1 SWAP3 SWAP2 SWAP1 DUP2 DUP2 MSTORE PUSH1 0x20 ADD DUP3 DUP1 SLOAD PUSH2 0x45D SWAP1 PUSH2 0xA9E JUMP JUMPDEST DUP1 ISZERO PUSH2 0x4AA JUMPI DUP1 PUSH1 0x1F LT PUSH2 0x47F JUMPI PUSH2 0x100 DUP1 DUP4 SLOAD DIV MUL DUP4 MSTORE SWAP2 PUSH1 0x20 ADD SWAP2 PUSH2 0x4AA JUMP JUMPDEST DUP3 ADD SWAP2 SWAP1 PUSH1 0x0 MSTORE PUSH1 0x20 PUSH1 0x0 KECCAK256 SWAP1 JUMPDEST DUP2 SLOAD DUP2 MSTORE SWAP1 PUSH1 0x1 ADD SWAP1 PUSH1 0x20 ADD DUP1 DUP4 GT PUSH2 0x48D JUMPI DUP3 SWAP1 SUB PUSH1 0x1F AND DUP3 ADD SWAP2 JUMPDEST POP POP POP POP POP SWAP1 DUP1 PUSH1 0x1 ADD DUP1 SLOAD PUSH2 0x4BF SWAP1 PUSH2 0xA9E JUMP JUMPDEST DUP1 PUSH1 0x1F ADD PUSH1 0x20 DUP1 SWAP2 DIV MUL PUSH1 0x20 ADD PUSH1 0x40 MLOAD SWAP1 DUP2 ADD PUSH1 0x40 MSTORE DUP1 SWAP3 SWAP2 SWAP1 DUP2 DUP2 MSTORE PUSH1 0x20 ADD DUP3 DUP1 SLOAD PUSH2 0x4EB SWAP1 PUSH2 0xA9E JUMP JUMPDEST DUP1 ISZERO PUSH2 0x538 JUMPI DUP1 PUSH1 0x1F LT PUSH2 0x50D JUMPI PUSH2 0x100 DUP1 DUP4 SLOAD DIV MUL DUP4 MSTORE SWAP2 PUSH1 0x20 ADD SWAP2 PUSH2 0x538 JUMP JUMPDEST DUP3 ADD SWAP2 SWAP1 PUSH1 0x0 MSTORE PUSH1 0x20 PUSH1 0x0 KECCAK256 SWAP1 JUMPDEST DUP2 SLOAD DUP2 MSTORE SWAP1 PUSH1 0x1 ADD SWAP1 PUSH1 0x20 ADD DUP1 DUP4 GT PUSH2 0x51B JUMPI DUP3 SWAP1 SUB PUSH1 0x1F AND DUP3 ADD SWAP2 JUMPDEST POP POP POP POP POP SWAP1 DUP1 PUSH1 0x2 ADD SLOAD SWAP1 POP DUP4 JUMP JUMPDEST PUSH1 0x4 DUP2 DUP1 MLOAD PUSH1 0x20 DUP2 ADD DUP3 ADD DUP1 MLOAD DUP5 DUP3 MSTORE PUSH1 0x20 DUP4 ADD PUSH1 0x20 DUP6 ADD KECCAK256 DUP2 DUP4 MSTORE DUP1 SWAP6 POP POP POP POP POP POP PUSH1 0x0 SWAP2 POP SWAP1 POP DUP1 PUSH1 0x0 ADD SLOAD SWAP1 DUP1 PUSH1 0x1 ADD PUSH1 0x0 SWAP1 SLOAD SWAP1 PUSH2 0x100 EXP SWAP1 DIV PUSH1 0xFF AND SWAP1 POP DUP3 JUMP JUMPDEST DUP3 DUP1 SLOAD PUSH2 0x59B SWAP1 PUSH2 0xA9E JUMP JUMPDEST SWAP1 PUSH1 0x0 MSTORE PUSH1 0x20 PUSH1 0x0 KECCAK256 SWAP1 PUSH1 0x1F ADD PUSH1 0x20 SWAP1 DIV DUP2 ADD SWAP3 DUP3 PUSH2 0x5BD JUMPI PUSH1 0x0 DUP6 SSTORE PUSH2 0x604 JUMP JUMPDEST DUP3 PUSH1 0x1F LT PUSH2 0x5D6 JUMPI DUP1 MLOAD PUSH1 0xFF NOT AND DUP4 DUP1 ADD OR DUP6 SSTORE PUSH2 0x604 JUMP JUMPDEST DUP3 DUP1 ADD PUSH1 0x1 ADD DUP6 SSTORE DUP3 ISZERO PUSH2 0x604 JUMPI SWAP2 DUP3 ADD JUMPDEST DUP3 DUP2 GT ISZERO PUSH2 0x603 JUMPI DUP3 MLOAD DUP3 SSTORE SWAP2 PUSH1 0x20 ADD SWAP2 SWAP1 PUSH1 0x1 ADD SWAP1 PUSH2 0x5E8 JUMP JUMPDEST JUMPDEST POP SWAP1 POP PUSH2 0x611 SWAP2 SWAP1 PUSH2 0x615 JUMP JUMPDEST POP SWAP1 JUMP JUMPDEST JUMPDEST DUP1 DUP3 GT ISZERO PUSH2 0x62E JUMPI PUSH1 0x0 DUP2 PUSH1 0x0 SWAP1 SSTORE POP PUSH1 0x1 ADD PUSH2 0x616 JUMP JUMPDEST POP SWAP1 JUMP JUMPDEST PUSH1 0x0 PUSH2 0x645 PUSH2 0x640 DUP5 PUSH2 0x998 JUMP JUMPDEST PUSH2 0x973 JUMP JUMPDEST SWAP1 POP DUP3 DUP2 MSTORE PUSH1 0x20 DUP2 ADD DUP5 DUP5 DUP5 ADD GT ISZERO PUSH2 0x661 JUMPI PUSH2 0x660 PUSH2 0xBDC JUMP JUMPDEST JUMPDEST PUSH2 0x66C DUP5 DUP3 DUP6 PUSH2 0xA5C JUMP JUMPDEST POP SWAP4 SWAP3 POP POP POP JUMP JUMPDEST PUSH1 0x0 DUP3 PUSH1 0x1F DUP4 ADD SLT PUSH2 0x689 JUMPI PUSH2 0x688 PUSH2 0xBD7 JUMP JUMPDEST JUMPDEST DUP2 CALLDATALOAD PUSH2 0x699 DUP5 DUP3 PUSH1 0x20 DUP7 ADD PUSH2 0x632 JUMP JUMPDEST SWAP2 POP POP SWAP3 SWAP2 POP POP JUMP JUMPDEST PUSH1 0x0 DUP2 CALLDATALOAD SWAP1 POP PUSH2 0x6B1 DUP2 PUSH2 0xC25 JUMP JUMPDEST SWAP3 SWAP2 POP POP JUMP JUMPDEST PUSH1 0x0 PUSH1 0x20 DUP3 DUP5 SUB SLT ISZERO PUSH2 0x6CD JUMPI PUSH2 0x6CC PUSH2 0xBE6 JUMP JUMPDEST JUMPDEST PUSH1 0x0 DUP3 ADD CALLDATALOAD PUSH8 0xFFFFFFFFFFFFFFFF DUP2 GT ISZERO PUSH2 0x6EB JUMPI PUSH2 0x6EA PUSH2 0xBE1 JUMP JUMPDEST JUMPDEST PUSH2 0x6F7 DUP5 DUP3 DUP6 ADD PUSH2 0x674 JUMP JUMPDEST SWAP2 POP POP SWAP3 SWAP2 POP POP JUMP JUMPDEST PUSH1 0x0 DUP1 PUSH1 0x40 DUP4 DUP6 SUB SLT ISZERO PUSH2 0x717 JUMPI PUSH2 0x716 PUSH2 0xBE6 JUMP JUMPDEST JUMPDEST PUSH1 0x0 DUP4 ADD CALLDATALOAD PUSH8 0xFFFFFFFFFFFFFFFF DUP2 GT ISZERO PUSH2 0x735 JUMPI PUSH2 0x734 PUSH2 0xBE1 JUMP JUMPDEST JUMPDEST PUSH2 0x741 DUP6 DUP3 DUP7 ADD PUSH2 0x674 JUMP JUMPDEST SWAP3 POP POP PUSH1 0x20 DUP4 ADD CALLDATALOAD PUSH8 0xFFFFFFFFFFFFFFFF DUP2 GT ISZERO PUSH2 0x762 JUMPI PUSH2 0x761 PUSH2 0xBE1 JUMP JUMPDEST JUMPDEST PUSH2 0x76E DUP6 DUP3 DUP7 ADD PUSH2 0x674 JUMP JUMPDEST SWAP2 POP POP SWAP3 POP SWAP3 SWAP1 POP JUMP JUMPDEST PUSH1 0x0 DUP1 PUSH1 0x40 DUP4 DUP6 SUB SLT ISZERO PUSH2 0x78F JUMPI PUSH2 0x78E PUSH2 0xBE6 JUMP JUMPDEST JUMPDEST PUSH1 0x0 DUP4 ADD CALLDATALOAD PUSH8 0xFFFFFFFFFFFFFFFF DUP2 GT ISZERO PUSH2 0x7AD JUMPI PUSH2 0x7AC PUSH2 0xBE1 JUMP JUMPDEST JUMPDEST PUSH2 0x7B9 DUP6 DUP3 DUP7 ADD PUSH2 0x674 JUMP JUMPDEST SWAP3 POP POP PUSH1 0x20 PUSH2 0x7CA DUP6 DUP3 DUP7 ADD PUSH2 0x6A2 JUMP JUMPDEST SWAP2 POP POP SWAP3 POP SWAP3 SWAP1 POP JUMP JUMPDEST PUSH1 0x0 PUSH1 0x20 DUP3 DUP5 SUB SLT ISZERO PUSH2 0x7EA JUMPI PUSH2 0x7E9 PUSH2 0xBE6 JUMP JUMPDEST JUMPDEST PUSH1 0x0 PUSH2 0x7F8 DUP5 DUP3 DUP6 ADD PUSH2 0x6A2 JUMP JUMPDEST SWAP2 POP POP SWAP3 SWAP2 POP POP JUMP JUMPDEST PUSH2 0x80A DUP2 PUSH2 0xA46 JUMP JUMPDEST DUP3 MSTORE POP POP JUMP JUMPDEST PUSH1 0x0 PUSH2 0x81B DUP3 PUSH2 0x9C9 JUMP JUMPDEST PUSH2 0x825 DUP2 DUP6 PUSH2 0x9D4 JUMP JUMPDEST SWAP4 POP PUSH2 0x835 DUP2 DUP6 PUSH1 0x20 DUP7 ADD PUSH2 0xA6B JUMP JUMPDEST PUSH2 0x83E DUP2 PUSH2 0xBEB JUMP JUMPDEST DUP5 ADD SWAP2 POP POP SWAP3 SWAP2 POP POP JUMP JUMPDEST PUSH1 0x0 PUSH2 0x854 DUP3 PUSH2 0x9C9 JUMP JUMPDEST PUSH2 0x85E DUP2 DUP6 PUSH2 0x9E5 JUMP JUMPDEST SWAP4 POP PUSH2 0x86E DUP2 DUP6 PUSH1 0x20 DUP7 ADD PUSH2 0xA6B JUMP JUMPDEST DUP1 DUP5 ADD SWAP2 POP POP SWAP3 SWAP2 POP POP JUMP JUMPDEST PUSH1 0x0 PUSH2 0x887 PUSH1 0x10 DUP4 PUSH2 0x9D4 JUMP JUMPDEST SWAP2 POP PUSH2 0x892 DUP3 PUSH2 0xBFC JUMP JUMPDEST PUSH1 0x20 DUP3 ADD SWAP1 POP SWAP2 SWAP1 POP JUMP JUMPDEST PUSH2 0x8A6 DUP2 PUSH2 0xA52 JUMP JUMPDEST DUP3 MSTORE POP POP JUMP JUMPDEST PUSH1 0x0 PUSH2 0x8B8 DUP3 DUP5 PUSH2 0x849 JUMP JUMPDEST SWAP2 POP DUP2 SWAP1 POP SWAP3 SWAP2 POP POP JUMP JUMPDEST PUSH1 0x0 PUSH1 0x20 DUP3 ADD SWAP1 POP DUP2 DUP2 SUB PUSH1 0x0 DUP4 ADD MSTORE PUSH2 0x8DD DUP2 DUP5 PUSH2 0x810 JUMP JUMPDEST SWAP1 POP SWAP3 SWAP2 POP POP JUMP JUMPDEST PUSH1 0x0 PUSH1 0x60 DUP3 ADD SWAP1 POP DUP2 DUP2 SUB PUSH1 0x0 DUP4 ADD MSTORE PUSH2 0x8FF DUP2 DUP7 PUSH2 0x810 JUMP JUMPDEST SWAP1 POP DUP2 DUP2 SUB PUSH1 0x20 DUP4 ADD MSTORE PUSH2 0x913 DUP2 DUP6 PUSH2 0x810 JUMP JUMPDEST SWAP1 POP PUSH2 0x922 PUSH1 0x40 DUP4 ADD DUP5 PUSH2 0x89D JUMP JUMPDEST SWAP5 SWAP4 POP POP POP POP JUMP JUMPDEST PUSH1 0x0 PUSH1 0x20 DUP3 ADD SWAP1 POP DUP2 DUP2 SUB PUSH1 0x0 DUP4 ADD MSTORE PUSH2 0x943 DUP2 PUSH2 0x87A JUMP JUMPDEST SWAP1 POP SWAP2 SWAP1 POP JUMP JUMPDEST PUSH1 0x0 PUSH1 0x40 DUP3 ADD SWAP1 POP PUSH2 0x95F PUSH1 0x0 DUP4 ADD DUP6 PUSH2 0x89D JUMP JUMPDEST PUSH2 0x96C PUSH1 0x20 DUP4 ADD DUP5 PUSH2 0x801 JUMP JUMPDEST SWAP4 SWAP3 POP POP POP JUMP JUMPDEST PUSH1 0x0 PUSH2 0x97D PUSH2 0x98E JUMP JUMPDEST SWAP1 POP PUSH2 0x989 DUP3 DUP3 PUSH2 0xAD0 JUMP JUMPDEST SWAP2 SWAP1 POP JUMP JUMPDEST PUSH1 0x0 PUSH1 0x40 MLOAD SWAP1 POP SWAP1 JUMP JUMPDEST PUSH1 0x0 PUSH8 0xFFFFFFFFFFFFFFFF DUP3 GT ISZERO PUSH2 0x9B3 JUMPI PUSH2 0x9B2 PUSH2 0xBA8 JUMP JUMPDEST JUMPDEST PUSH2 0x9BC DUP3 PUSH2 0xBEB JUMP JUMPDEST SWAP1 POP PUSH1 0x20 DUP2 ADD SWAP1 POP SWAP2 SWAP1 POP JUMP JUMPDEST PUSH1 0x0 DUP2 MLOAD SWAP1 POP SWAP2 SWAP1 POP JUMP JUMPDEST PUSH1 0x0 DUP3 DUP3 MSTORE PUSH1 0x20 DUP3 ADD SWAP1 POP SWAP3 SWAP2 POP POP JUMP JUMPDEST PUSH1 0x0 DUP2 SWAP1 POP SWAP3 SWAP2 POP POP JUMP JUMPDEST PUSH1 0x0 PUSH2 0x9FB DUP3 PUSH2 0xA52 JUMP JUMPDEST SWAP2 POP PUSH2 0xA06 DUP4 PUSH2 0xA52 JUMP JUMPDEST SWAP3 POP DUP3 PUSH32 0xFFFFFFFFFFFFFFFFFFFFFFFFFFFFFFFFFFFFFFFFFFFFFFFFFFFFFFFFFFFFFFFF SUB DUP3 GT ISZERO PUSH2 0xA3B JUMPI PUSH2 0xA3A PUSH2 0xB4A JUMP JUMPDEST JUMPDEST DUP3 DUP3 ADD SWAP1 POP SWAP3 SWAP2 POP POP JUMP JUMPDEST PUSH1 0x0 DUP2 ISZERO ISZERO SWAP1 POP SWAP2 SWAP1 POP JUMP JUMPDEST PUSH1 0x0 DUP2 SWAP1 POP SWAP2 SWAP1 POP JUMP JUMPDEST DUP3 DUP2 DUP4 CALLDATACOPY PUSH1 0x0 DUP4 DUP4 ADD MSTORE POP POP POP JUMP JUMPDEST PUSH1 0x0 JUMPDEST DUP4 DUP2 LT ISZERO PUSH2 0xA89 JUMPI DUP1 DUP3 ADD MLOAD DUP2 DUP5 ADD MSTORE PUSH1 0x20 DUP2 ADD SWAP1 POP PUSH2 0xA6E JUMP JUMPDEST DUP4 DUP2 GT ISZERO PUSH2 0xA98 JUMPI PUSH1 0x0 DUP5 DUP5 ADD MSTORE JUMPDEST POP POP POP POP JUMP JUMPDEST PUSH1 0x0 PUSH1 0x2 DUP3 DIV SWAP1 POP PUSH1 0x1 DUP3 AND DUP1 PUSH2 0xAB6 JUMPI PUSH1 0x7F DUP3 AND SWAP2 POP JUMPDEST PUSH1 0x20 DUP3 LT DUP2 EQ ISZERO PUSH2 0xACA JUMPI PUSH2 0xAC9 PUSH2 0xB79 JUMP JUMPDEST JUMPDEST POP SWAP2 SWAP1 POP JUMP JUMPDEST PUSH2 0xAD9 DUP3 PUSH2 0xBEB JUMP JUMPDEST DUP2 ADD DUP2 DUP2 LT PUSH8 0xFFFFFFFFFFFFFFFF DUP3 GT OR ISZERO PUSH2 0xAF8 JUMPI PUSH2 0xAF7 PUSH2 0xBA8 JUMP JUMPDEST JUMPDEST DUP1 PUSH1 0x40 MSTORE POP POP POP JUMP JUMPDEST PUSH1 0x0 PUSH2 0xB0C DUP3 PUSH2 0xA52 JUMP JUMPDEST SWAP2 POP PUSH32 0xFFFFFFFFFFFFFFFFFFFFFFFFFFFFFFFFFFFFFFFFFFFFFFFFFFFFFFFFFFFFFFFF DUP3 EQ ISZERO PUSH2 0xB3F JUMPI PUSH2 0xB3E PUSH2 0xB4A JUMP JUMPDEST JUMPDEST PUSH1 0x1 DUP3 ADD SWAP1 POP SWAP2 SWAP1 POP JUMP JUMPDEST PUSH32 0x4E487B7100000000000000000000000000000000000000000000000000000000 PUSH1 0x0 MSTORE PUSH1 0x11 PUSH1 0x4 MSTORE PUSH1 0x24 PUSH1 0x0 REVERT JUMPDEST PUSH32 0x4E487B7100000000000000000000000000000000000000000000000000000000 PUSH1 0x0 MSTORE PUSH1 0x22 PUSH1 0x4 MSTORE PUSH1 0x24 PUSH1 0x0 REVERT JUMPDEST PUSH32 0x4E487B7100000000000000000000000000000000000000000000000000000000 PUSH1 0x0 MSTORE PUSH1 0x41 PUSH1 0x4 MSTORE PUSH1 0x24 PUSH1 0x0 REVERT JUMPDEST PUSH1 0x0 DUP1 REVERT JUMPDEST PUSH1 0x0 DUP1 REVERT JUMPDEST PUSH1 0x0 DUP1 REVERT JUMPDEST PUSH1 0x0 DUP1 REVERT JUMPDEST PUSH1 0x0 PUSH1 0x1F NOT PUSH1 0x1F DUP4 ADD AND SWAP1 POP SWAP2 SWAP1 POP JUMP JUMPDEST PUSH32 0x4163636573732069732044656E69656400000000000000000000000000000000 PUSH1 0x0 DUP3 ADD MSTORE POP JUMP JUMPDEST PUSH2 0xC2E DUP2 PUSH2 0xA52 JUMP JUMPDEST DUP2 EQ PUSH2 0xC39 JUMPI PUSH1 0x0 DUP1 REVERT JUMPDEST POP JUMP INVALID MSIZE PUSH16 0x752077696C6C20626520616464656420 PUSH21 0x6F2063616E646964617465206C697374206F6E6365 KECCAK256 PUSH26 0x6F75206172652076616C69646174656420627920746865206164 PUSH14 0x696EA26469706673582212201884 PUSH20 0x3DDAE204133058F1154D56B98484E84743F81DC7 CALLER PUSH14 0xB7FA690144CA4264736F6C634300 ADDMOD SMOD STOP CALLER "
				},
				"gasEstimates": {
					"creation": {
						"codeDepositCost": "651400",
						"executionCost": "24949",
						"totalCost": "676349"
					},
					"external": {
						"candidateEnrollment(string,string)": "infinite",
						"candidates(uint256)": "infinite",
						"voterEnrollment(string,uint256)": "infinite",
						"voters(string)": "infinite"
					}
				},
				"methodIdentifiers": {
					"candidateEnrollment(string,string)": "17678bc3",
					"candidates(uint256)": "3477ee2e",
					"voterEnrollment(string,uint256)": "0fd94e64",
					"voters(string)": "53fa2e64"
				}
			},
			"storageLayout": {
				"storage": [
					{
						"astId": 3,
						"contract": "voting.sol:Voting",
						"label": "noOfVoters",
						"offset": 0,
						"slot": "0",
						"type": "t_uint256"
					},
					{
						"astId": 5,
						"contract": "voting.sol:Voting",
						"label": "noOfCandidates",
						"offset": 0,
						"slot": "1",
						"type": "t_uint256"
					},
					{
						"astId": 7,
						"contract": "voting.sol:Voting",
						"label": "admin",
						"offset": 0,
						"slot": "2",
						"type": "t_address"
					},
					{
						"astId": 12,
						"contract": "voting.sol:Voting",
						"label": "candidates",
						"offset": 0,
						"slot": "3",
						"type": "t_mapping(t_uint256,t_struct(Candidate)24_storage)"
					},
					{
						"astId": 17,
						"contract": "voting.sol:Voting",
						"label": "voters",
						"offset": 0,
						"slot": "4",
						"type": "t_mapping(t_string_memory_ptr,t_struct(Voter)29_storage)"
					}
				],
				"types": {
					"t_address": {
						"encoding": "inplace",
						"label": "address",
						"numberOfBytes": "20"
					},
					"t_bool": {
						"encoding": "inplace",
						"label": "bool",
						"numberOfBytes": "1"
					},
					"t_mapping(t_string_memory_ptr,t_struct(Voter)29_storage)": {
						"encoding": "mapping",
						"key": "t_string_memory_ptr",
						"label": "mapping(string => struct Voting.Voter)",
						"numberOfBytes": "32",
						"value": "t_struct(Voter)29_storage"
					},
					"t_mapping(t_uint256,t_struct(Candidate)24_storage)": {
						"encoding": "mapping",
						"key": "t_uint256",
						"label": "mapping(uint256 => struct Voting.Candidate)",
						"numberOfBytes": "32",
						"value": "t_struct(Candidate)24_storage"
					},
					"t_string_memory_ptr": {
						"encoding": "bytes",
						"label": "string",
						"numberOfBytes": "32"
					},
					"t_string_storage": {
						"encoding": "bytes",
						"label": "string",
						"numberOfBytes": "32"
					},
					"t_struct(Candidate)24_storage": {
						"encoding": "inplace",
						"label": "struct Voting.Candidate",
						"members": [
							{
								"astId": 19,
								"contract": "voting.sol:Voting",
								"label": "candidate_name",
								"offset": 0,
								"slot": "0",
								"type": "t_string_storage"
							},
							{
								"astId": 21,
								"contract": "voting.sol:Voting",
								"label": "candidate_description",
								"offset": 0,
								"slot": "1",
								"type": "t_string_storage"
							},
							{
								"astId": 23,
								"contract": "voting.sol:Voting",
								"label": "noOfVotes",
								"offset": 0,
								"slot": "2",
								"type": "t_uint256"
							}
						],
						"numberOfBytes": "96"
					},
					"t_struct(Voter)29_storage": {
						"encoding": "inplace",
						"label": "struct Voting.Voter",
						"members": [
							{
								"astId": 26,
								"contract": "voting.sol:Voting",
								"label": "candidate_id",
								"offset": 0,
								"slot": "0",
								"type": "t_uint256"
							},
							{
								"astId": 28,
								"contract": "voting.sol:Voting",
								"label": "hasVoted",
								"offset": 0,
								"slot": "1",
								"type": "t_bool"
							}
						],
						"numberOfBytes": "64"
					},
					"t_uint256": {
						"encoding": "inplace",
						"label": "uint256",
						"numberOfBytes": "32"
					}
				}
			},
			"userdoc": {
				"kind": "user",
				"methods": {},
				"version": 1
			}
		}
	}
}