{
	"voting.sol": {
		"Voting": {
			"abi": [
				{
					"inputs": [],
					"stateMutability": "nonpayable",
					"type": "constructor"
				},
				{
					"inputs": [
						{
							"internalType": "string",
							"name": "name",
							"type": "string"
						},
						{
							"internalType": "string",
							"name": "description",
							"type": "string"
						}
					],
					"name": "candidateEnrollment",
					"outputs": [
						{
							"internalType": "string",
							"name": "",
							"type": "string"
						}
					],
					"stateMutability": "nonpayable",
					"type": "function"
				},
				{
					"inputs": [
						{
							"internalType": "uint256",
							"name": "",
							"type": "uint256"
						}
					],
					"name": "candidates",
					"outputs": [
						{
							"internalType": "string",
							"name": "candidate_name",
							"type": "string"
						},
						{
							"internalType": "string",
							"name": "candidate_description",
							"type": "string"
						}
					],
					"stateMutability": "view",
					"type": "function"
				},
				{
					"inputs": [
						{
							"internalType": "string",
							"name": "name",
							"type": "string"
						},
						{
							"internalType": "string",
							"name": "description",
							"type": "string"
						}
					],
					"name": "voterEnrollment",
					"outputs": [
						{
							"internalType": "string",
							"name": "",
							"type": "string"
						}
					],
					"stateMutability": "nonpayable",
					"type": "function"
				},
				{
					"inputs": [
						{
							"internalType": "string",
							"name": "",
							"type": "string"
						}
					],
					"name": "voters",
					"outputs": [
						{
							"internalType": "uint256",
							"name": "candidate_id",
							"type": "uint256"
						},
						{
							"internalType": "bool",
							"name": "hasVoted",
							"type": "bool"
						}
					],
					"stateMutability": "view",
					"type": "function"
				}
			],
			"devdoc": {
				"kind": "dev",
				"methods": {},
				"version": 1
			},
			"evm": {
				"assembly": "    /* \"voting.sol\":59:1237  contract Voting{\r... */\n  mstore(0x40, 0x80)\n    /* \"voting.sol\":426:476  constructor(){\r... */\n  callvalue\n  dup1\n  iszero\n  tag_1\n  jumpi\n  0x00\n  dup1\n  revert\ntag_1:\n  pop\n    /* \"voting.sol\":458:468  msg.sender */\n  caller\n    /* \"voting.sol\":450:455  admin */\n  0x02\n  0x00\n    /* \"voting.sol\":450:468  admin = msg.sender */\n  0x0100\n  exp\n  dup2\n  sload\n  dup2\n  0xffffffffffffffffffffffffffffffffffffffff\n  mul\n  not\n  and\n  swap1\n  dup4\n  0xffffffffffffffffffffffffffffffffffffffff\n  and\n  mul\n  or\n  swap1\n  sstore\n  pop\n    /* \"voting.sol\":59:1237  contract Voting{\r... */\n  dataSize(sub_0)\n  dup1\n  dataOffset(sub_0)\n  0x00\n  codecopy\n  0x00\n  return\nstop\n\nsub_0: assembly {\n        /* \"voting.sol\":59:1237  contract Voting{\r... */\n      mstore(0x40, 0x80)\n      callvalue\n      dup1\n      iszero\n      tag_1\n      jumpi\n      0x00\n      dup1\n      revert\n    tag_1:\n      pop\n      jumpi(tag_2, lt(calldatasize, 0x04))\n      shr(0xe0, calldataload(0x00))\n      dup1\n      0x17678bc3\n      eq\n      tag_3\n      jumpi\n      dup1\n      0x3477ee2e\n      eq\n      tag_4\n      jumpi\n      dup1\n      0x53fa2e64\n      eq\n      tag_5\n      jumpi\n      dup1\n      0xc7431c4a\n      eq\n      tag_6\n      jumpi\n    tag_2:\n      0x00\n      dup1\n      revert\n        /* \"voting.sol\":586:909  function candidateEnrollment(string memory name,string memory description) public onlyAdmin returns(string memory){\r... */\n    tag_3:\n      tag_7\n      0x04\n      dup1\n      calldatasize\n      sub\n      dup2\n      add\n      swap1\n      tag_8\n      swap2\n      swap1\n      tag_9\n      jump\t// in\n    tag_8:\n      tag_10\n      jump\t// in\n    tag_7:\n      mload(0x40)\n      tag_11\n      swap2\n      swap1\n      tag_12\n      jump\t// in\n    tag_11:\n      mload(0x40)\n      dup1\n      swap2\n      sub\n      swap1\n      return\n        /* \"voting.sol\":149:194  mapping (uint => Candidate) public candidates */\n    tag_4:\n      tag_13\n      0x04\n      dup1\n      calldatasize\n      sub\n      dup2\n      add\n      swap1\n      tag_14\n      swap2\n      swap1\n      tag_15\n      jump\t// in\n    tag_14:\n      tag_16\n      jump\t// in\n    tag_13:\n      mload(0x40)\n      tag_17\n      swap3\n      swap2\n      swap1\n      tag_18\n      jump\t// in\n    tag_17:\n      mload(0x40)\n      dup1\n      swap2\n      sub\n      swap1\n      return\n        /* \"voting.sol\":201:240  mapping (string => Voter) public voters */\n    tag_5:\n      tag_19\n      0x04\n      dup1\n      calldatasize\n      sub\n      dup2\n      add\n      swap1\n      tag_20\n      swap2\n      swap1\n      tag_21\n      jump\t// in\n    tag_20:\n      tag_22\n      jump\t// in\n    tag_19:\n      mload(0x40)\n      tag_23\n      swap3\n      swap2\n      swap1\n      tag_24\n      jump\t// in\n    tag_23:\n      mload(0x40)\n      dup1\n      swap2\n      sub\n      swap1\n      return\n        /* \"voting.sol\":915:1234  function voterEnrollment(string memory name,string memory description) public onlyAdmin returns(string memory){\r... */\n    tag_6:\n      tag_25\n      0x04\n      dup1\n      calldatasize\n      sub\n      dup2\n      add\n      swap1\n      tag_26\n      swap2\n      swap1\n      tag_9\n      jump\t// in\n    tag_26:\n      tag_27\n      jump\t// in\n    tag_25:\n      mload(0x40)\n      tag_28\n      swap2\n      swap1\n      tag_12\n      jump\t// in\n    tag_28:\n      mload(0x40)\n      dup1\n      swap2\n      sub\n      swap1\n      return\n        /* \"voting.sol\":586:909  function candidateEnrollment(string memory name,string memory description) public onlyAdmin returns(string memory){\r... */\n    tag_10:\n        /* \"voting.sol\":686:699  string memory */\n      0x60\n        /* \"voting.sol\":535:540  admin */\n      0x02\n      0x00\n      swap1\n      sload\n      swap1\n      0x0100\n      exp\n      swap1\n      div\n      0xffffffffffffffffffffffffffffffffffffffff\n      and\n        /* \"voting.sol\":521:540  msg.sender == admin */\n      0xffffffffffffffffffffffffffffffffffffffff\n      and\n        /* \"voting.sol\":521:531  msg.sender */\n      caller\n        /* \"voting.sol\":521:540  msg.sender == admin */\n      0xffffffffffffffffffffffffffffffffffffffff\n      and\n      eq\n        /* \"voting.sol\":513:560  require(msg.sender == admin,\"Access is Denied\") */\n      tag_30\n      jumpi\n      mload(0x40)\n      0x08c379a000000000000000000000000000000000000000000000000000000000\n      dup2\n      mstore\n      0x04\n      add\n      tag_31\n      swap1\n      tag_32\n      jump\t// in\n    tag_31:\n      mload(0x40)\n      dup1\n      swap2\n      sub\n      swap1\n      revert\n    tag_30:\n        /* \"voting.sol\":711:727  uint candidateID */\n      0x00\n        /* \"voting.sol\":730:744  noOfCandidates */\n      0x01\n      0x00\n        /* \"voting.sol\":730:746  noOfCandidates++ */\n      dup2\n      sload\n      dup1\n      swap3\n      swap2\n      swap1\n      tag_34\n      swap1\n      tag_35\n      jump\t// in\n    tag_34:\n      swap2\n      swap1\n      pop\n      sstore\n        /* \"voting.sol\":711:746  uint candidateID = noOfCandidates++ */\n      swap1\n      pop\n        /* \"voting.sol\":783:810  Candidate(name,description) */\n      mload(0x40)\n      dup1\n      0x40\n      add\n      0x40\n      mstore\n      dup1\n        /* \"voting.sol\":793:797  name */\n      dup6\n        /* \"voting.sol\":783:810  Candidate(name,description) */\n      dup2\n      mstore\n      0x20\n      add\n        /* \"voting.sol\":798:809  description */\n      dup5\n        /* \"voting.sol\":783:810  Candidate(name,description) */\n      dup2\n      mstore\n      pop\n        /* \"voting.sol\":757:767  candidates */\n      0x03\n        /* \"voting.sol\":757:780  candidates[candidateID] */\n      0x00\n        /* \"voting.sol\":768:779  candidateID */\n      dup4\n        /* \"voting.sol\":757:780  candidates[candidateID] */\n      dup2\n      mstore\n      0x20\n      add\n      swap1\n      dup2\n      mstore\n      0x20\n      add\n      0x00\n      keccak256\n        /* \"voting.sol\":757:810  candidates[candidateID] = Candidate(name,description) */\n      0x00\n      dup3\n      add\n      mload\n      dup2\n      0x00\n      add\n      swap1\n      dup1\n      mload\n      swap1\n      0x20\n      add\n      swap1\n      tag_36\n      swap3\n      swap2\n      swap1\n      tag_37\n      jump\t// in\n    tag_36:\n      pop\n      0x20\n      dup3\n      add\n      mload\n      dup2\n      0x01\n      add\n      swap1\n      dup1\n      mload\n      swap1\n      0x20\n      add\n      swap1\n      tag_38\n      swap3\n      swap2\n      swap1\n      tag_37\n      jump\t// in\n    tag_38:\n      pop\n      swap1\n      pop\n      pop\n        /* \"voting.sol\":821:901  return \"You will be added to candidate list once you are validated by the admin\" */\n      mload(0x40)\n      dup1\n      0x80\n      add\n      0x40\n      mstore\n      dup1\n      0x47\n      dup2\n      mstore\n      0x20\n      add\n      data_346ae9e229890c1b5467b3280ac50efb3a563831aa4e9bb9392fe53f7d7de7e2\n      0x47\n      swap2\n      codecopy\n      swap2\n      pop\n      pop\n        /* \"voting.sol\":586:909  function candidateEnrollment(string memory name,string memory description) public onlyAdmin returns(string memory){\r... */\n      swap3\n      swap2\n      pop\n      pop\n      jump\t// out\n        /* \"voting.sol\":149:194  mapping (uint => Candidate) public candidates */\n    tag_16:\n      mstore(0x20, 0x03)\n      dup1\n      0x00\n      mstore\n      keccak256(0x00, 0x40)\n      0x00\n      swap2\n      pop\n      swap1\n      pop\n      dup1\n      0x00\n      add\n      dup1\n      sload\n      tag_39\n      swap1\n      tag_40\n      jump\t// in\n    tag_39:\n      dup1\n      0x1f\n      add\n      0x20\n      dup1\n      swap2\n      div\n      mul\n      0x20\n      add\n      mload(0x40)\n      swap1\n      dup2\n      add\n      0x40\n      mstore\n      dup1\n      swap3\n      swap2\n      swap1\n      dup2\n      dup2\n      mstore\n      0x20\n      add\n      dup3\n      dup1\n      sload\n      tag_41\n      swap1\n      tag_40\n      jump\t// in\n    tag_41:\n      dup1\n      iszero\n      tag_42\n      jumpi\n      dup1\n      0x1f\n      lt\n      tag_43\n      jumpi\n      0x0100\n      dup1\n      dup4\n      sload\n      div\n      mul\n      dup4\n      mstore\n      swap2\n      0x20\n      add\n      swap2\n      jump(tag_42)\n    tag_43:\n      dup3\n      add\n      swap2\n      swap1\n      0x00\n      mstore\n      keccak256(0x00, 0x20)\n      swap1\n    tag_44:\n      dup2\n      sload\n      dup2\n      mstore\n      swap1\n      0x01\n      add\n      swap1\n      0x20\n      add\n      dup1\n      dup4\n      gt\n      tag_44\n      jumpi\n      dup3\n      swap1\n      sub\n      0x1f\n      and\n      dup3\n      add\n      swap2\n    tag_42:\n      pop\n      pop\n      pop\n      pop\n      pop\n      swap1\n      dup1\n      0x01\n      add\n      dup1\n      sload\n      tag_45\n      swap1\n      tag_40\n      jump\t// in\n    tag_45:\n      dup1\n      0x1f\n      add\n      0x20\n      dup1\n      swap2\n      div\n      mul\n      0x20\n      add\n      mload(0x40)\n      swap1\n      dup2\n      add\n      0x40\n      mstore\n      dup1\n      swap3\n      swap2\n      swap1\n      dup2\n      dup2\n      mstore\n      0x20\n      add\n      dup3\n      dup1\n      sload\n      tag_46\n      swap1\n      tag_40\n      jump\t// in\n    tag_46:\n      dup1\n      iszero\n      tag_47\n      jumpi\n      dup1\n      0x1f\n      lt\n      tag_48\n      jumpi\n      0x0100\n      dup1\n      dup4\n      sload\n      div\n      mul\n      dup4\n      mstore\n      swap2\n      0x20\n      add\n      swap2\n      jump(tag_47)\n    tag_48:\n      dup3\n      add\n      swap2\n      swap1\n      0x00\n      mstore\n      keccak256(0x00, 0x20)\n      swap1\n    tag_49:\n      dup2\n      sload\n      dup2\n      mstore\n      swap1\n      0x01\n      add\n      swap1\n      0x20\n      add\n      dup1\n      dup4\n      gt\n      tag_49\n      jumpi\n      dup3\n      swap1\n      sub\n      0x1f\n      and\n      dup3\n      add\n      swap2\n    tag_47:\n      pop\n      pop\n      pop\n      pop\n      pop\n      swap1\n      pop\n      dup3\n      jump\t// out\n        /* \"voting.sol\":201:240  mapping (string => Voter) public voters */\n    tag_22:\n      0x04\n      dup2\n      dup1\n      mload\n      0x20\n      dup2\n      add\n      dup3\n      add\n      dup1\n      mload\n      dup5\n      dup3\n      mstore\n      0x20\n      dup4\n      add\n      0x20\n      dup6\n      add\n      keccak256\n      dup2\n      dup4\n      mstore\n      dup1\n      swap6\n      pop\n      pop\n      pop\n      pop\n      pop\n      pop\n      0x00\n      swap2\n      pop\n      swap1\n      pop\n      dup1\n      0x00\n      add\n      sload\n      swap1\n      dup1\n      0x01\n      add\n      0x00\n      swap1\n      sload\n      swap1\n      0x0100\n      exp\n      swap1\n      div\n      0xff\n      and\n      swap1\n      pop\n      dup3\n      jump\t// out\n        /* \"voting.sol\":915:1234  function voterEnrollment(string memory name,string memory description) public onlyAdmin returns(string memory){\r... */\n    tag_27:\n        /* \"voting.sol\":1011:1024  string memory */\n      0x60\n        /* \"voting.sol\":535:540  admin */\n      0x02\n      0x00\n      swap1\n      sload\n      swap1\n      0x0100\n      exp\n      swap1\n      div\n      0xffffffffffffffffffffffffffffffffffffffff\n      and\n        /* \"voting.sol\":521:540  msg.sender == admin */\n      0xffffffffffffffffffffffffffffffffffffffff\n      and\n        /* \"voting.sol\":521:531  msg.sender */\n      caller\n        /* \"voting.sol\":521:540  msg.sender == admin */\n      0xffffffffffffffffffffffffffffffffffffffff\n      and\n      eq\n        /* \"voting.sol\":513:560  require(msg.sender == admin,\"Access is Denied\") */\n      tag_51\n      jumpi\n      mload(0x40)\n      0x08c379a000000000000000000000000000000000000000000000000000000000\n      dup2\n      mstore\n      0x04\n      add\n      tag_52\n      swap1\n      tag_32\n      jump\t// in\n    tag_52:\n      mload(0x40)\n      dup1\n      swap2\n      sub\n      swap1\n      revert\n    tag_51:\n        /* \"voting.sol\":1036:1052  uint candidateID */\n      0x00\n        /* \"voting.sol\":1055:1069  noOfCandidates */\n      0x01\n      0x00\n        /* \"voting.sol\":1055:1071  noOfCandidates++ */\n      dup2\n      sload\n      dup1\n      swap3\n      swap2\n      swap1\n      tag_54\n      swap1\n      tag_35\n      jump\t// in\n    tag_54:\n      swap2\n      swap1\n      pop\n      sstore\n        /* \"voting.sol\":1036:1071  uint candidateID = noOfCandidates++ */\n      swap1\n      pop\n        /* \"voting.sol\":1108:1135  Candidate(name,description) */\n      mload(0x40)\n      dup1\n      0x40\n      add\n      0x40\n      mstore\n      dup1\n        /* \"voting.sol\":1118:1122  name */\n      dup6\n        /* \"voting.sol\":1108:1135  Candidate(name,description) */\n      dup2\n      mstore\n      0x20\n      add\n        /* \"voting.sol\":1123:1134  description */\n      dup5\n        /* \"voting.sol\":1108:1135  Candidate(name,description) */\n      dup2\n      mstore\n      pop\n        /* \"voting.sol\":1082:1092  candidates */\n      0x03\n        /* \"voting.sol\":1082:1105  candidates[candidateID] */\n      0x00\n        /* \"voting.sol\":1093:1104  candidateID */\n      dup4\n        /* \"voting.sol\":1082:1105  candidates[candidateID] */\n      dup2\n      mstore\n      0x20\n      add\n      swap1\n      dup2\n      mstore\n      0x20\n      add\n      0x00\n      keccak256\n        /* \"voting.sol\":1082:1135  candidates[candidateID] = Candidate(name,description) */\n      0x00\n      dup3\n      add\n      mload\n      dup2\n      0x00\n      add\n      swap1\n      dup1\n      mload\n      swap1\n      0x20\n      add\n      swap1\n      tag_55\n      swap3\n      swap2\n      swap1\n      tag_37\n      jump\t// in\n    tag_55:\n      pop\n      0x20\n      dup3\n      add\n      mload\n      dup2\n      0x01\n      add\n      swap1\n      dup1\n      mload\n      swap1\n      0x20\n      add\n      swap1\n      tag_56\n      swap3\n      swap2\n      swap1\n      tag_37\n      jump\t// in\n    tag_56:\n      pop\n      swap1\n      pop\n      pop\n        /* \"voting.sol\":1146:1226  return \"You will be added to candidate list once you are validated by the admin\" */\n      mload(0x40)\n      dup1\n      0x80\n      add\n      0x40\n      mstore\n      dup1\n      0x47\n      dup2\n      mstore\n      0x20\n      add\n      data_346ae9e229890c1b5467b3280ac50efb3a563831aa4e9bb9392fe53f7d7de7e2\n      0x47\n      swap2\n      codecopy\n      swap2\n      pop\n      pop\n        /* \"voting.sol\":915:1234  function voterEnrollment(string memory name,string memory description) public onlyAdmin returns(string memory){\r... */\n      swap3\n      swap2\n      pop\n      pop\n      jump\t// out\n    tag_37:\n      dup3\n      dup1\n      sload\n      tag_57\n      swap1\n      tag_40\n      jump\t// in\n    tag_57:\n      swap1\n      0x00\n      mstore\n      keccak256(0x00, 0x20)\n      swap1\n      0x1f\n      add\n      0x20\n      swap1\n      div\n      dup2\n      add\n      swap3\n      dup3\n      tag_59\n      jumpi\n      0x00\n      dup6\n      sstore\n      jump(tag_58)\n    tag_59:\n      dup3\n      0x1f\n      lt\n      tag_60\n      jumpi\n      dup1\n      mload\n      not(0xff)\n      and\n      dup4\n      dup1\n      add\n      or\n      dup6\n      sstore\n      jump(tag_58)\n    tag_60:\n      dup3\n      dup1\n      add\n      0x01\n      add\n      dup6\n      sstore\n      dup3\n      iszero\n      tag_58\n      jumpi\n      swap2\n      dup3\n      add\n    tag_61:\n      dup3\n      dup2\n      gt\n      iszero\n      tag_62\n      jumpi\n      dup3\n      mload\n      dup3\n      sstore\n      swap2\n      0x20\n      add\n      swap2\n      swap1\n      0x01\n      add\n      swap1\n      jump(tag_61)\n    tag_62:\n    tag_58:\n      pop\n      swap1\n      pop\n      tag_63\n      swap2\n      swap1\n      tag_64\n      jump\t// in\n    tag_63:\n      pop\n      swap1\n      jump\t// out\n    tag_64:\n    tag_65:\n      dup1\n      dup3\n      gt\n      iszero\n      tag_66\n      jumpi\n      0x00\n      dup2\n      0x00\n      swap1\n      sstore\n      pop\n      0x01\n      add\n      jump(tag_65)\n    tag_66:\n      pop\n      swap1\n      jump\t// out\n        /* \"#utility.yul\":7:419   */\n    tag_68:\n        /* \"#utility.yul\":85:90   */\n      0x00\n        /* \"#utility.yul\":110:176   */\n      tag_70\n        /* \"#utility.yul\":126:175   */\n      tag_71\n        /* \"#utility.yul\":168:174   */\n      dup5\n        /* \"#utility.yul\":126:175   */\n      tag_72\n      jump\t// in\n    tag_71:\n        /* \"#utility.yul\":110:176   */\n      tag_73\n      jump\t// in\n    tag_70:\n        /* \"#utility.yul\":101:176   */\n      swap1\n      pop\n        /* \"#utility.yul\":199:205   */\n      dup3\n        /* \"#utility.yul\":192:197   */\n      dup2\n        /* \"#utility.yul\":185:206   */\n      mstore\n        /* \"#utility.yul\":237:241   */\n      0x20\n        /* \"#utility.yul\":230:235   */\n      dup2\n        /* \"#utility.yul\":226:242   */\n      add\n        /* \"#utility.yul\":275:278   */\n      dup5\n        /* \"#utility.yul\":266:272   */\n      dup5\n        /* \"#utility.yul\":261:264   */\n      dup5\n        /* \"#utility.yul\":257:273   */\n      add\n        /* \"#utility.yul\":254:279   */\n      gt\n        /* \"#utility.yul\":251:363   */\n      iszero\n      tag_74\n      jumpi\n        /* \"#utility.yul\":282:361   */\n      tag_75\n      tag_76\n      jump\t// in\n    tag_75:\n        /* \"#utility.yul\":251:363   */\n    tag_74:\n        /* \"#utility.yul\":372:413   */\n      tag_77\n        /* \"#utility.yul\":406:412   */\n      dup5\n        /* \"#utility.yul\":401:404   */\n      dup3\n        /* \"#utility.yul\":396:399   */\n      dup6\n        /* \"#utility.yul\":372:413   */\n      tag_78\n      jump\t// in\n    tag_77:\n        /* \"#utility.yul\":91:419   */\n      pop\n        /* \"#utility.yul\":7:419   */\n      swap4\n      swap3\n      pop\n      pop\n      pop\n      jump\t// out\n        /* \"#utility.yul\":439:779   */\n    tag_79:\n        /* \"#utility.yul\":495:500   */\n      0x00\n        /* \"#utility.yul\":544:547   */\n      dup3\n        /* \"#utility.yul\":537:541   */\n      0x1f\n        /* \"#utility.yul\":529:535   */\n      dup4\n        /* \"#utility.yul\":525:542   */\n      add\n        /* \"#utility.yul\":521:548   */\n      slt\n        /* \"#utility.yul\":511:633   */\n      tag_81\n      jumpi\n        /* \"#utility.yul\":552:631   */\n      tag_82\n      tag_83\n      jump\t// in\n    tag_82:\n        /* \"#utility.yul\":511:633   */\n    tag_81:\n        /* \"#utility.yul\":669:675   */\n      dup2\n        /* \"#utility.yul\":656:676   */\n      calldataload\n        /* \"#utility.yul\":694:773   */\n      tag_84\n        /* \"#utility.yul\":769:772   */\n      dup5\n        /* \"#utility.yul\":761:767   */\n      dup3\n        /* \"#utility.yul\":754:758   */\n      0x20\n        /* \"#utility.yul\":746:752   */\n      dup7\n        /* \"#utility.yul\":742:759   */\n      add\n        /* \"#utility.yul\":694:773   */\n      tag_68\n      jump\t// in\n    tag_84:\n        /* \"#utility.yul\":685:773   */\n      swap2\n      pop\n        /* \"#utility.yul\":501:779   */\n      pop\n        /* \"#utility.yul\":439:779   */\n      swap3\n      swap2\n      pop\n      pop\n      jump\t// out\n        /* \"#utility.yul\":785:924   */\n    tag_85:\n        /* \"#utility.yul\":831:836   */\n      0x00\n        /* \"#utility.yul\":869:875   */\n      dup2\n        /* \"#utility.yul\":856:876   */\n      calldataload\n        /* \"#utility.yul\":847:876   */\n      swap1\n      pop\n        /* \"#utility.yul\":885:918   */\n      tag_87\n        /* \"#utility.yul\":912:917   */\n      dup2\n        /* \"#utility.yul\":885:918   */\n      tag_88\n      jump\t// in\n    tag_87:\n        /* \"#utility.yul\":785:924   */\n      swap3\n      swap2\n      pop\n      pop\n      jump\t// out\n        /* \"#utility.yul\":930:1439   */\n    tag_21:\n        /* \"#utility.yul\":999:1005   */\n      0x00\n        /* \"#utility.yul\":1048:1050   */\n      0x20\n        /* \"#utility.yul\":1036:1045   */\n      dup3\n        /* \"#utility.yul\":1027:1034   */\n      dup5\n        /* \"#utility.yul\":1023:1046   */\n      sub\n        /* \"#utility.yul\":1019:1051   */\n      slt\n        /* \"#utility.yul\":1016:1135   */\n      iszero\n      tag_90\n      jumpi\n        /* \"#utility.yul\":1054:1133   */\n      tag_91\n      tag_92\n      jump\t// in\n    tag_91:\n        /* \"#utility.yul\":1016:1135   */\n    tag_90:\n        /* \"#utility.yul\":1202:1203   */\n      0x00\n        /* \"#utility.yul\":1191:1200   */\n      dup3\n        /* \"#utility.yul\":1187:1204   */\n      add\n        /* \"#utility.yul\":1174:1205   */\n      calldataload\n        /* \"#utility.yul\":1232:1250   */\n      0xffffffffffffffff\n        /* \"#utility.yul\":1224:1230   */\n      dup2\n        /* \"#utility.yul\":1221:1251   */\n      gt\n        /* \"#utility.yul\":1218:1335   */\n      iszero\n      tag_93\n      jumpi\n        /* \"#utility.yul\":1254:1333   */\n      tag_94\n      tag_95\n      jump\t// in\n    tag_94:\n        /* \"#utility.yul\":1218:1335   */\n    tag_93:\n        /* \"#utility.yul\":1359:1422   */\n      tag_96\n        /* \"#utility.yul\":1414:1421   */\n      dup5\n        /* \"#utility.yul\":1405:1411   */\n      dup3\n        /* \"#utility.yul\":1394:1403   */\n      dup6\n        /* \"#utility.yul\":1390:1412   */\n      add\n        /* \"#utility.yul\":1359:1422   */\n      tag_79\n      jump\t// in\n    tag_96:\n        /* \"#utility.yul\":1349:1422   */\n      swap2\n      pop\n        /* \"#utility.yul\":1145:1432   */\n      pop\n        /* \"#utility.yul\":930:1439   */\n      swap3\n      swap2\n      pop\n      pop\n      jump\t// out\n        /* \"#utility.yul\":1445:2279   */\n    tag_9:\n        /* \"#utility.yul\":1533:1539   */\n      0x00\n        /* \"#utility.yul\":1541:1547   */\n      dup1\n        /* \"#utility.yul\":1590:1592   */\n      0x40\n        /* \"#utility.yul\":1578:1587   */\n      dup4\n        /* \"#utility.yul\":1569:1576   */\n      dup6\n        /* \"#utility.yul\":1565:1588   */\n      sub\n        /* \"#utility.yul\":1561:1593   */\n      slt\n        /* \"#utility.yul\":1558:1677   */\n      iszero\n      tag_98\n      jumpi\n        /* \"#utility.yul\":1596:1675   */\n      tag_99\n      tag_92\n      jump\t// in\n    tag_99:\n        /* \"#utility.yul\":1558:1677   */\n    tag_98:\n        /* \"#utility.yul\":1744:1745   */\n      0x00\n        /* \"#utility.yul\":1733:1742   */\n      dup4\n        /* \"#utility.yul\":1729:1746   */\n      add\n        /* \"#utility.yul\":1716:1747   */\n      calldataload\n        /* \"#utility.yul\":1774:1792   */\n      0xffffffffffffffff\n        /* \"#utility.yul\":1766:1772   */\n      dup2\n        /* \"#utility.yul\":1763:1793   */\n      gt\n        /* \"#utility.yul\":1760:1877   */\n      iszero\n      tag_100\n      jumpi\n        /* \"#utility.yul\":1796:1875   */\n      tag_101\n      tag_95\n      jump\t// in\n    tag_101:\n        /* \"#utility.yul\":1760:1877   */\n    tag_100:\n        /* \"#utility.yul\":1901:1964   */\n      tag_102\n        /* \"#utility.yul\":1956:1963   */\n      dup6\n        /* \"#utility.yul\":1947:1953   */\n      dup3\n        /* \"#utility.yul\":1936:1945   */\n      dup7\n        /* \"#utility.yul\":1932:1954   */\n      add\n        /* \"#utility.yul\":1901:1964   */\n      tag_79\n      jump\t// in\n    tag_102:\n        /* \"#utility.yul\":1891:1964   */\n      swap3\n      pop\n        /* \"#utility.yul\":1687:1974   */\n      pop\n        /* \"#utility.yul\":2041:2043   */\n      0x20\n        /* \"#utility.yul\":2030:2039   */\n      dup4\n        /* \"#utility.yul\":2026:2044   */\n      add\n        /* \"#utility.yul\":2013:2045   */\n      calldataload\n        /* \"#utility.yul\":2072:2090   */\n      0xffffffffffffffff\n        /* \"#utility.yul\":2064:2070   */\n      dup2\n        /* \"#utility.yul\":2061:2091   */\n      gt\n        /* \"#utility.yul\":2058:2175   */\n      iszero\n      tag_103\n      jumpi\n        /* \"#utility.yul\":2094:2173   */\n      tag_104\n      tag_95\n      jump\t// in\n    tag_104:\n        /* \"#utility.yul\":2058:2175   */\n    tag_103:\n        /* \"#utility.yul\":2199:2262   */\n      tag_105\n        /* \"#utility.yul\":2254:2261   */\n      dup6\n        /* \"#utility.yul\":2245:2251   */\n      dup3\n        /* \"#utility.yul\":2234:2243   */\n      dup7\n        /* \"#utility.yul\":2230:2252   */\n      add\n        /* \"#utility.yul\":2199:2262   */\n      tag_79\n      jump\t// in\n    tag_105:\n        /* \"#utility.yul\":2189:2262   */\n      swap2\n      pop\n        /* \"#utility.yul\":1984:2272   */\n      pop\n        /* \"#utility.yul\":1445:2279   */\n      swap3\n      pop\n      swap3\n      swap1\n      pop\n      jump\t// out\n        /* \"#utility.yul\":2285:2614   */\n    tag_15:\n        /* \"#utility.yul\":2344:2350   */\n      0x00\n        /* \"#utility.yul\":2393:2395   */\n      0x20\n        /* \"#utility.yul\":2381:2390   */\n      dup3\n        /* \"#utility.yul\":2372:2379   */\n      dup5\n        /* \"#utility.yul\":2368:2391   */\n      sub\n        /* \"#utility.yul\":2364:2396   */\n      slt\n        /* \"#utility.yul\":2361:2480   */\n      iszero\n      tag_107\n      jumpi\n        /* \"#utility.yul\":2399:2478   */\n      tag_108\n      tag_92\n      jump\t// in\n    tag_108:\n        /* \"#utility.yul\":2361:2480   */\n    tag_107:\n        /* \"#utility.yul\":2519:2520   */\n      0x00\n        /* \"#utility.yul\":2544:2597   */\n      tag_109\n        /* \"#utility.yul\":2589:2596   */\n      dup5\n        /* \"#utility.yul\":2580:2586   */\n      dup3\n        /* \"#utility.yul\":2569:2578   */\n      dup6\n        /* \"#utility.yul\":2565:2587   */\n      add\n        /* \"#utility.yul\":2544:2597   */\n      tag_85\n      jump\t// in\n    tag_109:\n        /* \"#utility.yul\":2534:2597   */\n      swap2\n      pop\n        /* \"#utility.yul\":2490:2607   */\n      pop\n        /* \"#utility.yul\":2285:2614   */\n      swap3\n      swap2\n      pop\n      pop\n      jump\t// out\n        /* \"#utility.yul\":2620:2729   */\n    tag_110:\n        /* \"#utility.yul\":2701:2722   */\n      tag_112\n        /* \"#utility.yul\":2716:2721   */\n      dup2\n        /* \"#utility.yul\":2701:2722   */\n      tag_113\n      jump\t// in\n    tag_112:\n        /* \"#utility.yul\":2696:2699   */\n      dup3\n        /* \"#utility.yul\":2689:2723   */\n      mstore\n        /* \"#utility.yul\":2620:2729   */\n      pop\n      pop\n      jump\t// out\n        /* \"#utility.yul\":2735:3099   */\n    tag_114:\n        /* \"#utility.yul\":2823:2826   */\n      0x00\n        /* \"#utility.yul\":2851:2890   */\n      tag_116\n        /* \"#utility.yul\":2884:2889   */\n      dup3\n        /* \"#utility.yul\":2851:2890   */\n      tag_117\n      jump\t// in\n    tag_116:\n        /* \"#utility.yul\":2906:2977   */\n      tag_118\n        /* \"#utility.yul\":2970:2976   */\n      dup2\n        /* \"#utility.yul\":2965:2968   */\n      dup6\n        /* \"#utility.yul\":2906:2977   */\n      tag_119\n      jump\t// in\n    tag_118:\n        /* \"#utility.yul\":2899:2977   */\n      swap4\n      pop\n        /* \"#utility.yul\":2986:3038   */\n      tag_120\n        /* \"#utility.yul\":3031:3037   */\n      dup2\n        /* \"#utility.yul\":3026:3029   */\n      dup6\n        /* \"#utility.yul\":3019:3023   */\n      0x20\n        /* \"#utility.yul\":3012:3017   */\n      dup7\n        /* \"#utility.yul\":3008:3024   */\n      add\n        /* \"#utility.yul\":2986:3038   */\n      tag_121\n      jump\t// in\n    tag_120:\n        /* \"#utility.yul\":3063:3092   */\n      tag_122\n        /* \"#utility.yul\":3085:3091   */\n      dup2\n        /* \"#utility.yul\":3063:3092   */\n      tag_123\n      jump\t// in\n    tag_122:\n        /* \"#utility.yul\":3058:3061   */\n      dup5\n        /* \"#utility.yul\":3054:3093   */\n      add\n        /* \"#utility.yul\":3047:3093   */\n      swap2\n      pop\n        /* \"#utility.yul\":2827:3099   */\n      pop\n        /* \"#utility.yul\":2735:3099   */\n      swap3\n      swap2\n      pop\n      pop\n      jump\t// out\n        /* \"#utility.yul\":3105:3471   */\n    tag_124:\n        /* \"#utility.yul\":3247:3250   */\n      0x00\n        /* \"#utility.yul\":3268:3335   */\n      tag_126\n        /* \"#utility.yul\":3332:3334   */\n      0x10\n        /* \"#utility.yul\":3327:3330   */\n      dup4\n        /* \"#utility.yul\":3268:3335   */\n      tag_119\n      jump\t// in\n    tag_126:\n        /* \"#utility.yul\":3261:3335   */\n      swap2\n      pop\n        /* \"#utility.yul\":3344:3437   */\n      tag_127\n        /* \"#utility.yul\":3433:3436   */\n      dup3\n        /* \"#utility.yul\":3344:3437   */\n      tag_128\n      jump\t// in\n    tag_127:\n        /* \"#utility.yul\":3462:3464   */\n      0x20\n        /* \"#utility.yul\":3457:3460   */\n      dup3\n        /* \"#utility.yul\":3453:3465   */\n      add\n        /* \"#utility.yul\":3446:3465   */\n      swap1\n      pop\n        /* \"#utility.yul\":3105:3471   */\n      swap2\n      swap1\n      pop\n      jump\t// out\n        /* \"#utility.yul\":3477:3595   */\n    tag_129:\n        /* \"#utility.yul\":3564:3588   */\n      tag_131\n        /* \"#utility.yul\":3582:3587   */\n      dup2\n        /* \"#utility.yul\":3564:3588   */\n      tag_132\n      jump\t// in\n    tag_131:\n        /* \"#utility.yul\":3559:3562   */\n      dup3\n        /* \"#utility.yul\":3552:3589   */\n      mstore\n        /* \"#utility.yul\":3477:3595   */\n      pop\n      pop\n      jump\t// out\n        /* \"#utility.yul\":3601:3914   */\n    tag_12:\n        /* \"#utility.yul\":3714:3718   */\n      0x00\n        /* \"#utility.yul\":3752:3754   */\n      0x20\n        /* \"#utility.yul\":3741:3750   */\n      dup3\n        /* \"#utility.yul\":3737:3755   */\n      add\n        /* \"#utility.yul\":3729:3755   */\n      swap1\n      pop\n        /* \"#utility.yul\":3801:3810   */\n      dup2\n        /* \"#utility.yul\":3795:3799   */\n      dup2\n        /* \"#utility.yul\":3791:3811   */\n      sub\n        /* \"#utility.yul\":3787:3788   */\n      0x00\n        /* \"#utility.yul\":3776:3785   */\n      dup4\n        /* \"#utility.yul\":3772:3789   */\n      add\n        /* \"#utility.yul\":3765:3812   */\n      mstore\n        /* \"#utility.yul\":3829:3907   */\n      tag_134\n        /* \"#utility.yul\":3902:3906   */\n      dup2\n        /* \"#utility.yul\":3893:3899   */\n      dup5\n        /* \"#utility.yul\":3829:3907   */\n      tag_114\n      jump\t// in\n    tag_134:\n        /* \"#utility.yul\":3821:3907   */\n      swap1\n      pop\n        /* \"#utility.yul\":3601:3914   */\n      swap3\n      swap2\n      pop\n      pop\n      jump\t// out\n        /* \"#utility.yul\":3920:4434   */\n    tag_18:\n        /* \"#utility.yul\":4081:4085   */\n      0x00\n        /* \"#utility.yul\":4119:4121   */\n      0x40\n        /* \"#utility.yul\":4108:4117   */\n      dup3\n        /* \"#utility.yul\":4104:4122   */\n      add\n        /* \"#utility.yul\":4096:4122   */\n      swap1\n      pop\n        /* \"#utility.yul\":4168:4177   */\n      dup2\n        /* \"#utility.yul\":4162:4166   */\n      dup2\n        /* \"#utility.yul\":4158:4178   */\n      sub\n        /* \"#utility.yul\":4154:4155   */\n      0x00\n        /* \"#utility.yul\":4143:4152   */\n      dup4\n        /* \"#utility.yul\":4139:4156   */\n      add\n        /* \"#utility.yul\":4132:4179   */\n      mstore\n        /* \"#utility.yul\":4196:4274   */\n      tag_136\n        /* \"#utility.yul\":4269:4273   */\n      dup2\n        /* \"#utility.yul\":4260:4266   */\n      dup6\n        /* \"#utility.yul\":4196:4274   */\n      tag_114\n      jump\t// in\n    tag_136:\n        /* \"#utility.yul\":4188:4274   */\n      swap1\n      pop\n        /* \"#utility.yul\":4321:4330   */\n      dup2\n        /* \"#utility.yul\":4315:4319   */\n      dup2\n        /* \"#utility.yul\":4311:4331   */\n      sub\n        /* \"#utility.yul\":4306:4308   */\n      0x20\n        /* \"#utility.yul\":4295:4304   */\n      dup4\n        /* \"#utility.yul\":4291:4309   */\n      add\n        /* \"#utility.yul\":4284:4332   */\n      mstore\n        /* \"#utility.yul\":4349:4427   */\n      tag_137\n        /* \"#utility.yul\":4422:4426   */\n      dup2\n        /* \"#utility.yul\":4413:4419   */\n      dup5\n        /* \"#utility.yul\":4349:4427   */\n      tag_114\n      jump\t// in\n    tag_137:\n        /* \"#utility.yul\":4341:4427   */\n      swap1\n      pop\n        /* \"#utility.yul\":3920:4434   */\n      swap4\n      swap3\n      pop\n      pop\n      pop\n      jump\t// out\n        /* \"#utility.yul\":4440:4859   */\n    tag_32:\n        /* \"#utility.yul\":4606:4610   */\n      0x00\n        /* \"#utility.yul\":4644:4646   */\n      0x20\n        /* \"#utility.yul\":4633:4642   */\n      dup3\n        /* \"#utility.yul\":4629:4647   */\n      add\n        /* \"#utility.yul\":4621:4647   */\n      swap1\n      pop\n        /* \"#utility.yul\":4693:4702   */\n      dup2\n        /* \"#utility.yul\":4687:4691   */\n      dup2\n        /* \"#utility.yul\":4683:4703   */\n      sub\n        /* \"#utility.yul\":4679:4680   */\n      0x00\n        /* \"#utility.yul\":4668:4677   */\n      dup4\n        /* \"#utility.yul\":4664:4681   */\n      add\n        /* \"#utility.yul\":4657:4704   */\n      mstore\n        /* \"#utility.yul\":4721:4852   */\n      tag_139\n        /* \"#utility.yul\":4847:4851   */\n      dup2\n        /* \"#utility.yul\":4721:4852   */\n      tag_124\n      jump\t// in\n    tag_139:\n        /* \"#utility.yul\":4713:4852   */\n      swap1\n      pop\n        /* \"#utility.yul\":4440:4859   */\n      swap2\n      swap1\n      pop\n      jump\t// out\n        /* \"#utility.yul\":4865:5185   */\n    tag_24:\n        /* \"#utility.yul\":4980:4984   */\n      0x00\n        /* \"#utility.yul\":5018:5020   */\n      0x40\n        /* \"#utility.yul\":5007:5016   */\n      dup3\n        /* \"#utility.yul\":5003:5021   */\n      add\n        /* \"#utility.yul\":4995:5021   */\n      swap1\n      pop\n        /* \"#utility.yul\":5031:5102   */\n      tag_141\n        /* \"#utility.yul\":5099:5100   */\n      0x00\n        /* \"#utility.yul\":5088:5097   */\n      dup4\n        /* \"#utility.yul\":5084:5101   */\n      add\n        /* \"#utility.yul\":5075:5081   */\n      dup6\n        /* \"#utility.yul\":5031:5102   */\n      tag_129\n      jump\t// in\n    tag_141:\n        /* \"#utility.yul\":5112:5178   */\n      tag_142\n        /* \"#utility.yul\":5174:5176   */\n      0x20\n        /* \"#utility.yul\":5163:5172   */\n      dup4\n        /* \"#utility.yul\":5159:5177   */\n      add\n        /* \"#utility.yul\":5150:5156   */\n      dup5\n        /* \"#utility.yul\":5112:5178   */\n      tag_110\n      jump\t// in\n    tag_142:\n        /* \"#utility.yul\":4865:5185   */\n      swap4\n      swap3\n      pop\n      pop\n      pop\n      jump\t// out\n        /* \"#utility.yul\":5191:5320   */\n    tag_73:\n        /* \"#utility.yul\":5225:5231   */\n      0x00\n        /* \"#utility.yul\":5252:5272   */\n      tag_144\n      tag_145\n      jump\t// in\n    tag_144:\n        /* \"#utility.yul\":5242:5272   */\n      swap1\n      pop\n        /* \"#utility.yul\":5281:5314   */\n      tag_146\n        /* \"#utility.yul\":5309:5313   */\n      dup3\n        /* \"#utility.yul\":5301:5307   */\n      dup3\n        /* \"#utility.yul\":5281:5314   */\n      tag_147\n      jump\t// in\n    tag_146:\n        /* \"#utility.yul\":5191:5320   */\n      swap2\n      swap1\n      pop\n      jump\t// out\n        /* \"#utility.yul\":5326:5401   */\n    tag_145:\n        /* \"#utility.yul\":5359:5365   */\n      0x00\n        /* \"#utility.yul\":5392:5394   */\n      0x40\n        /* \"#utility.yul\":5386:5395   */\n      mload\n        /* \"#utility.yul\":5376:5395   */\n      swap1\n      pop\n        /* \"#utility.yul\":5326:5401   */\n      swap1\n      jump\t// out\n        /* \"#utility.yul\":5407:5715   */\n    tag_72:\n        /* \"#utility.yul\":5469:5473   */\n      0x00\n        /* \"#utility.yul\":5559:5577   */\n      0xffffffffffffffff\n        /* \"#utility.yul\":5551:5557   */\n      dup3\n        /* \"#utility.yul\":5548:5578   */\n      gt\n        /* \"#utility.yul\":5545:5601   */\n      iszero\n      tag_150\n      jumpi\n        /* \"#utility.yul\":5581:5599   */\n      tag_151\n      tag_152\n      jump\t// in\n    tag_151:\n        /* \"#utility.yul\":5545:5601   */\n    tag_150:\n        /* \"#utility.yul\":5619:5648   */\n      tag_153\n        /* \"#utility.yul\":5641:5647   */\n      dup3\n        /* \"#utility.yul\":5619:5648   */\n      tag_123\n      jump\t// in\n    tag_153:\n        /* \"#utility.yul\":5611:5648   */\n      swap1\n      pop\n        /* \"#utility.yul\":5703:5707   */\n      0x20\n        /* \"#utility.yul\":5697:5701   */\n      dup2\n        /* \"#utility.yul\":5693:5708   */\n      add\n        /* \"#utility.yul\":5685:5708   */\n      swap1\n      pop\n        /* \"#utility.yul\":5407:5715   */\n      swap2\n      swap1\n      pop\n      jump\t// out\n        /* \"#utility.yul\":5721:5820   */\n    tag_117:\n        /* \"#utility.yul\":5773:5779   */\n      0x00\n        /* \"#utility.yul\":5807:5812   */\n      dup2\n        /* \"#utility.yul\":5801:5813   */\n      mload\n        /* \"#utility.yul\":5791:5813   */\n      swap1\n      pop\n        /* \"#utility.yul\":5721:5820   */\n      swap2\n      swap1\n      pop\n      jump\t// out\n        /* \"#utility.yul\":5826:5995   */\n    tag_119:\n        /* \"#utility.yul\":5910:5921   */\n      0x00\n        /* \"#utility.yul\":5944:5950   */\n      dup3\n        /* \"#utility.yul\":5939:5942   */\n      dup3\n        /* \"#utility.yul\":5932:5951   */\n      mstore\n        /* \"#utility.yul\":5984:5988   */\n      0x20\n        /* \"#utility.yul\":5979:5982   */\n      dup3\n        /* \"#utility.yul\":5975:5989   */\n      add\n        /* \"#utility.yul\":5960:5989   */\n      swap1\n      pop\n        /* \"#utility.yul\":5826:5995   */\n      swap3\n      swap2\n      pop\n      pop\n      jump\t// out\n        /* \"#utility.yul\":6001:6091   */\n    tag_113:\n        /* \"#utility.yul\":6035:6042   */\n      0x00\n        /* \"#utility.yul\":6078:6083   */\n      dup2\n        /* \"#utility.yul\":6071:6084   */\n      iszero\n        /* \"#utility.yul\":6064:6085   */\n      iszero\n        /* \"#utility.yul\":6053:6085   */\n      swap1\n      pop\n        /* \"#utility.yul\":6001:6091   */\n      swap2\n      swap1\n      pop\n      jump\t// out\n        /* \"#utility.yul\":6097:6174   */\n    tag_132:\n        /* \"#utility.yul\":6134:6141   */\n      0x00\n        /* \"#utility.yul\":6163:6168   */\n      dup2\n        /* \"#utility.yul\":6152:6168   */\n      swap1\n      pop\n        /* \"#utility.yul\":6097:6174   */\n      swap2\n      swap1\n      pop\n      jump\t// out\n        /* \"#utility.yul\":6180:6334   */\n    tag_78:\n        /* \"#utility.yul\":6264:6270   */\n      dup3\n        /* \"#utility.yul\":6259:6262   */\n      dup2\n        /* \"#utility.yul\":6254:6257   */\n      dup4\n        /* \"#utility.yul\":6241:6271   */\n      calldatacopy\n        /* \"#utility.yul\":6326:6327   */\n      0x00\n        /* \"#utility.yul\":6317:6323   */\n      dup4\n        /* \"#utility.yul\":6312:6315   */\n      dup4\n        /* \"#utility.yul\":6308:6324   */\n      add\n        /* \"#utility.yul\":6301:6328   */\n      mstore\n        /* \"#utility.yul\":6180:6334   */\n      pop\n      pop\n      pop\n      jump\t// out\n        /* \"#utility.yul\":6340:6647   */\n    tag_121:\n        /* \"#utility.yul\":6408:6409   */\n      0x00\n        /* \"#utility.yul\":6418:6531   */\n    tag_160:\n        /* \"#utility.yul\":6432:6438   */\n      dup4\n        /* \"#utility.yul\":6429:6430   */\n      dup2\n        /* \"#utility.yul\":6426:6439   */\n      lt\n        /* \"#utility.yul\":6418:6531   */\n      iszero\n      tag_162\n      jumpi\n        /* \"#utility.yul\":6517:6518   */\n      dup1\n        /* \"#utility.yul\":6512:6515   */\n      dup3\n        /* \"#utility.yul\":6508:6519   */\n      add\n        /* \"#utility.yul\":6502:6520   */\n      mload\n        /* \"#utility.yul\":6498:6499   */\n      dup2\n        /* \"#utility.yul\":6493:6496   */\n      dup5\n        /* \"#utility.yul\":6489:6500   */\n      add\n        /* \"#utility.yul\":6482:6521   */\n      mstore\n        /* \"#utility.yul\":6454:6456   */\n      0x20\n        /* \"#utility.yul\":6451:6452   */\n      dup2\n        /* \"#utility.yul\":6447:6457   */\n      add\n        /* \"#utility.yul\":6442:6457   */\n      swap1\n      pop\n        /* \"#utility.yul\":6418:6531   */\n      jump(tag_160)\n    tag_162:\n        /* \"#utility.yul\":6549:6555   */\n      dup4\n        /* \"#utility.yul\":6546:6547   */\n      dup2\n        /* \"#utility.yul\":6543:6556   */\n      gt\n        /* \"#utility.yul\":6540:6641   */\n      iszero\n      tag_163\n      jumpi\n        /* \"#utility.yul\":6629:6630   */\n      0x00\n        /* \"#utility.yul\":6620:6626   */\n      dup5\n        /* \"#utility.yul\":6615:6618   */\n      dup5\n        /* \"#utility.yul\":6611:6627   */\n      add\n        /* \"#utility.yul\":6604:6631   */\n      mstore\n        /* \"#utility.yul\":6540:6641   */\n    tag_163:\n        /* \"#utility.yul\":6389:6647   */\n      pop\n        /* \"#utility.yul\":6340:6647   */\n      pop\n      pop\n      pop\n      jump\t// out\n        /* \"#utility.yul\":6653:6973   */\n    tag_40:\n        /* \"#utility.yul\":6697:6703   */\n      0x00\n        /* \"#utility.yul\":6734:6735   */\n      0x02\n        /* \"#utility.yul\":6728:6732   */\n      dup3\n        /* \"#utility.yul\":6724:6736   */\n      div\n        /* \"#utility.yul\":6714:6736   */\n      swap1\n      pop\n        /* \"#utility.yul\":6781:6782   */\n      0x01\n        /* \"#utility.yul\":6775:6779   */\n      dup3\n        /* \"#utility.yul\":6771:6783   */\n      and\n        /* \"#utility.yul\":6802:6820   */\n      dup1\n        /* \"#utility.yul\":6792:6873   */\n      tag_165\n      jumpi\n        /* \"#utility.yul\":6858:6862   */\n      0x7f\n        /* \"#utility.yul\":6850:6856   */\n      dup3\n        /* \"#utility.yul\":6846:6863   */\n      and\n        /* \"#utility.yul\":6836:6863   */\n      swap2\n      pop\n        /* \"#utility.yul\":6792:6873   */\n    tag_165:\n        /* \"#utility.yul\":6920:6922   */\n      0x20\n        /* \"#utility.yul\":6912:6918   */\n      dup3\n        /* \"#utility.yul\":6909:6923   */\n      lt\n        /* \"#utility.yul\":6889:6907   */\n      dup2\n        /* \"#utility.yul\":6886:6924   */\n      eq\n        /* \"#utility.yul\":6883:6967   */\n      iszero\n      tag_166\n      jumpi\n        /* \"#utility.yul\":6939:6957   */\n      tag_167\n      tag_168\n      jump\t// in\n    tag_167:\n        /* \"#utility.yul\":6883:6967   */\n    tag_166:\n        /* \"#utility.yul\":6704:6973   */\n      pop\n        /* \"#utility.yul\":6653:6973   */\n      swap2\n      swap1\n      pop\n      jump\t// out\n        /* \"#utility.yul\":6979:7260   */\n    tag_147:\n        /* \"#utility.yul\":7062:7089   */\n      tag_170\n        /* \"#utility.yul\":7084:7088   */\n      dup3\n        /* \"#utility.yul\":7062:7089   */\n      tag_123\n      jump\t// in\n    tag_170:\n        /* \"#utility.yul\":7054:7060   */\n      dup2\n        /* \"#utility.yul\":7050:7090   */\n      add\n        /* \"#utility.yul\":7192:7198   */\n      dup2\n        /* \"#utility.yul\":7180:7190   */\n      dup2\n        /* \"#utility.yul\":7177:7199   */\n      lt\n        /* \"#utility.yul\":7156:7174   */\n      0xffffffffffffffff\n        /* \"#utility.yul\":7144:7154   */\n      dup3\n        /* \"#utility.yul\":7141:7175   */\n      gt\n        /* \"#utility.yul\":7138:7200   */\n      or\n        /* \"#utility.yul\":7135:7223   */\n      iszero\n      tag_171\n      jumpi\n        /* \"#utility.yul\":7203:7221   */\n      tag_172\n      tag_152\n      jump\t// in\n    tag_172:\n        /* \"#utility.yul\":7135:7223   */\n    tag_171:\n        /* \"#utility.yul\":7243:7253   */\n      dup1\n        /* \"#utility.yul\":7239:7241   */\n      0x40\n        /* \"#utility.yul\":7232:7254   */\n      mstore\n        /* \"#utility.yul\":7022:7260   */\n      pop\n        /* \"#utility.yul\":6979:7260   */\n      pop\n      pop\n      jump\t// out\n        /* \"#utility.yul\":7266:7499   */\n    tag_35:\n        /* \"#utility.yul\":7305:7308   */\n      0x00\n        /* \"#utility.yul\":7328:7352   */\n      tag_174\n        /* \"#utility.yul\":7346:7351   */\n      dup3\n        /* \"#utility.yul\":7328:7352   */\n      tag_132\n      jump\t// in\n    tag_174:\n        /* \"#utility.yul\":7319:7352   */\n      swap2\n      pop\n        /* \"#utility.yul\":7374:7440   */\n      0xffffffffffffffffffffffffffffffffffffffffffffffffffffffffffffffff\n        /* \"#utility.yul\":7367:7372   */\n      dup3\n        /* \"#utility.yul\":7364:7441   */\n      eq\n        /* \"#utility.yul\":7361:7464   */\n      iszero\n      tag_175\n      jumpi\n        /* \"#utility.yul\":7444:7462   */\n      tag_176\n      tag_177\n      jump\t// in\n    tag_176:\n        /* \"#utility.yul\":7361:7464   */\n    tag_175:\n        /* \"#utility.yul\":7491:7492   */\n      0x01\n        /* \"#utility.yul\":7484:7489   */\n      dup3\n        /* \"#utility.yul\":7480:7493   */\n      add\n        /* \"#utility.yul\":7473:7493   */\n      swap1\n      pop\n        /* \"#utility.yul\":7266:7499   */\n      swap2\n      swap1\n      pop\n      jump\t// out\n        /* \"#utility.yul\":7505:7685   */\n    tag_177:\n        /* \"#utility.yul\":7553:7630   */\n      0x4e487b7100000000000000000000000000000000000000000000000000000000\n        /* \"#utility.yul\":7550:7551   */\n      0x00\n        /* \"#utility.yul\":7543:7631   */\n      mstore\n        /* \"#utility.yul\":7650:7654   */\n      0x11\n        /* \"#utility.yul\":7647:7648   */\n      0x04\n        /* \"#utility.yul\":7640:7655   */\n      mstore\n        /* \"#utility.yul\":7674:7678   */\n      0x24\n        /* \"#utility.yul\":7671:7672   */\n      0x00\n        /* \"#utility.yul\":7664:7679   */\n      revert\n        /* \"#utility.yul\":7691:7871   */\n    tag_168:\n        /* \"#utility.yul\":7739:7816   */\n      0x4e487b7100000000000000000000000000000000000000000000000000000000\n        /* \"#utility.yul\":7736:7737   */\n      0x00\n        /* \"#utility.yul\":7729:7817   */\n      mstore\n        /* \"#utility.yul\":7836:7840   */\n      0x22\n        /* \"#utility.yul\":7833:7834   */\n      0x04\n        /* \"#utility.yul\":7826:7841   */\n      mstore\n        /* \"#utility.yul\":7860:7864   */\n      0x24\n        /* \"#utility.yul\":7857:7858   */\n      0x00\n        /* \"#utility.yul\":7850:7865   */\n      revert\n        /* \"#utility.yul\":7877:8057   */\n    tag_152:\n        /* \"#utility.yul\":7925:8002   */\n      0x4e487b7100000000000000000000000000000000000000000000000000000000\n        /* \"#utility.yul\":7922:7923   */\n      0x00\n        /* \"#utility.yul\":7915:8003   */\n      mstore\n        /* \"#utility.yul\":8022:8026   */\n      0x41\n        /* \"#utility.yul\":8019:8020   */\n      0x04\n        /* \"#utility.yul\":8012:8027   */\n      mstore\n        /* \"#utility.yul\":8046:8050   */\n      0x24\n        /* \"#utility.yul\":8043:8044   */\n      0x00\n        /* \"#utility.yul\":8036:8051   */\n      revert\n        /* \"#utility.yul\":8063:8180   */\n    tag_83:\n        /* \"#utility.yul\":8172:8173   */\n      0x00\n        /* \"#utility.yul\":8169:8170   */\n      dup1\n        /* \"#utility.yul\":8162:8174   */\n      revert\n        /* \"#utility.yul\":8186:8303   */\n    tag_76:\n        /* \"#utility.yul\":8295:8296   */\n      0x00\n        /* \"#utility.yul\":8292:8293   */\n      dup1\n        /* \"#utility.yul\":8285:8297   */\n      revert\n        /* \"#utility.yul\":8309:8426   */\n    tag_95:\n        /* \"#utility.yul\":8418:8419   */\n      0x00\n        /* \"#utility.yul\":8415:8416   */\n      dup1\n        /* \"#utility.yul\":8408:8420   */\n      revert\n        /* \"#utility.yul\":8432:8549   */\n    tag_92:\n        /* \"#utility.yul\":8541:8542   */\n      0x00\n        /* \"#utility.yul\":8538:8539   */\n      dup1\n        /* \"#utility.yul\":8531:8543   */\n      revert\n        /* \"#utility.yul\":8555:8657   */\n    tag_123:\n        /* \"#utility.yul\":8596:8602   */\n      0x00\n        /* \"#utility.yul\":8647:8649   */\n      0x1f\n        /* \"#utility.yul\":8643:8650   */\n      not\n        /* \"#utility.yul\":8638:8640   */\n      0x1f\n        /* \"#utility.yul\":8631:8636   */\n      dup4\n        /* \"#utility.yul\":8627:8641   */\n      add\n        /* \"#utility.yul\":8623:8651   */\n      and\n        /* \"#utility.yul\":8613:8651   */\n      swap1\n      pop\n        /* \"#utility.yul\":8555:8657   */\n      swap2\n      swap1\n      pop\n      jump\t// out\n        /* \"#utility.yul\":8663:8829   */\n    tag_128:\n        /* \"#utility.yul\":8803:8821   */\n      0x4163636573732069732044656e69656400000000000000000000000000000000\n        /* \"#utility.yul\":8799:8800   */\n      0x00\n        /* \"#utility.yul\":8791:8797   */\n      dup3\n        /* \"#utility.yul\":8787:8801   */\n      add\n        /* \"#utility.yul\":8780:8822   */\n      mstore\n        /* \"#utility.yul\":8663:8829   */\n      pop\n      jump\t// out\n        /* \"#utility.yul\":8835:8957   */\n    tag_88:\n        /* \"#utility.yul\":8908:8932   */\n      tag_188\n        /* \"#utility.yul\":8926:8931   */\n      dup2\n        /* \"#utility.yul\":8908:8932   */\n      tag_132\n      jump\t// in\n    tag_188:\n        /* \"#utility.yul\":8901:8906   */\n      dup2\n        /* \"#utility.yul\":8898:8933   */\n      eq\n        /* \"#utility.yul\":8888:8951   */\n      tag_189\n      jumpi\n        /* \"#utility.yul\":8947:8948   */\n      0x00\n        /* \"#utility.yul\":8944:8945   */\n      dup1\n        /* \"#utility.yul\":8937:8949   */\n      revert\n        /* \"#utility.yul\":8888:8951   */\n    tag_189:\n        /* \"#utility.yul\":8835:8957   */\n      pop\n      jump\t// out\n    stop\n    data_346ae9e229890c1b5467b3280ac50efb3a563831aa4e9bb9392fe53f7d7de7e2 596f752077696c6c20626520616464656420746f2063616e646964617465206c697374206f6e636520796f75206172652076616c696461746564206279207468652061646d696e\n\n    auxdata: 0xa26469706673582212200761858ce991be8b64d0a0d432766e14df3f90d029e03de5a6d0030fa549308d64736f6c63430008070033\n}\n",
				"bytecode": {
					"linkReferences": {},
					"object": "608060405234801561001057600080fd5b5033600260006101000a81548173ffffffffffffffffffffffffffffffffffffffff021916908373ffffffffffffffffffffffffffffffffffffffff160217905550610b0d806100616000396000f3fe608060405234801561001057600080fd5b506004361061004c5760003560e01c806317678bc3146100515780633477ee2e1461008157806353fa2e64146100b2578063c7431c4a146100e3575b600080fd5b61006b60048036038101906100669190610667565b610113565b6040516100789190610786565b60405180910390f35b61009b600480360381019061009691906106df565b610247565b6040516100a99291906107a8565b60405180910390f35b6100cc60048036038101906100c7919061061e565b61037b565b6040516100da9291906107ff565b60405180910390f35b6100fd60048036038101906100f89190610667565b6103c2565b60405161010a9190610786565b60405180910390f35b6060600260009054906101000a900473ffffffffffffffffffffffffffffffffffffffff1673ffffffffffffffffffffffffffffffffffffffff163373ffffffffffffffffffffffffffffffffffffffff16146101a5576040517f08c379a000000000000000000000000000000000000000000000000000000000815260040161019c906107df565b60405180910390fd5b6000600160008154809291906101ba90610955565b9190505590506040518060400160405280858152602001848152506003600083815260200190815260200160002060008201518160000190805190602001906102049291906104f6565b5060208201518160010190805190602001906102219291906104f6565b50905050604051806080016040528060478152602001610a916047913991505092915050565b600360205280600052604060002060009150905080600001805461026a906108f2565b80601f0160208091040260200160405190810160405280929190818152602001828054610296906108f2565b80156102e35780601f106102b8576101008083540402835291602001916102e3565b820191906000526020600020905b8154815290600101906020018083116102c657829003601f168201915b5050505050908060010180546102f8906108f2565b80601f0160208091040260200160405190810160405280929190818152602001828054610324906108f2565b80156103715780601f1061034657610100808354040283529160200191610371565b820191906000526020600020905b81548152906001019060200180831161035457829003601f168201915b5050505050905082565b6004818051602081018201805184825260208301602085012081835280955050505050506000915090508060000154908060010160009054906101000a900460ff16905082565b6060600260009054906101000a900473ffffffffffffffffffffffffffffffffffffffff1673ffffffffffffffffffffffffffffffffffffffff163373ffffffffffffffffffffffffffffffffffffffff1614610454576040517f08c379a000000000000000000000000000000000000000000000000000000000815260040161044b906107df565b60405180910390fd5b60006001600081548092919061046990610955565b9190505590506040518060400160405280858152602001848152506003600083815260200190815260200160002060008201518160000190805190602001906104b39291906104f6565b5060208201518160010190805190602001906104d09291906104f6565b50905050604051806080016040528060478152602001610a916047913991505092915050565b828054610502906108f2565b90600052602060002090601f016020900481019282610524576000855561056b565b82601f1061053d57805160ff191683800117855561056b565b8280016001018555821561056b579182015b8281111561056a57825182559160200191906001019061054f565b5b509050610578919061057c565b5090565b5b8082111561059557600081600090555060010161057d565b5090565b60006105ac6105a78461084d565b610828565b9050828152602081018484840111156105c8576105c7610a30565b5b6105d38482856108b0565b509392505050565b600082601f8301126105f0576105ef610a2b565b5b8135610600848260208601610599565b91505092915050565b60008135905061061881610a79565b92915050565b60006020828403121561063457610633610a3a565b5b600082013567ffffffffffffffff81111561065257610651610a35565b5b61065e848285016105db565b91505092915050565b6000806040838503121561067e5761067d610a3a565b5b600083013567ffffffffffffffff81111561069c5761069b610a35565b5b6106a8858286016105db565b925050602083013567ffffffffffffffff8111156106c9576106c8610a35565b5b6106d5858286016105db565b9150509250929050565b6000602082840312156106f5576106f4610a3a565b5b600061070384828501610609565b91505092915050565b6107158161089a565b82525050565b60006107268261087e565b6107308185610889565b93506107408185602086016108bf565b61074981610a3f565b840191505092915050565b6000610761601083610889565b915061076c82610a50565b602082019050919050565b610780816108a6565b82525050565b600060208201905081810360008301526107a0818461071b565b905092915050565b600060408201905081810360008301526107c2818561071b565b905081810360208301526107d6818461071b565b90509392505050565b600060208201905081810360008301526107f881610754565b9050919050565b60006040820190506108146000830185610777565b610821602083018461070c565b9392505050565b6000610832610843565b905061083e8282610924565b919050565b6000604051905090565b600067ffffffffffffffff821115610868576108676109fc565b5b61087182610a3f565b9050602081019050919050565b600081519050919050565b600082825260208201905092915050565b60008115159050919050565b6000819050919050565b82818337600083830152505050565b60005b838110156108dd5780820151818401526020810190506108c2565b838111156108ec576000848401525b50505050565b6000600282049050600182168061090a57607f821691505b6020821081141561091e5761091d6109cd565b5b50919050565b61092d82610a3f565b810181811067ffffffffffffffff8211171561094c5761094b6109fc565b5b80604052505050565b6000610960826108a6565b91507fffffffffffffffffffffffffffffffffffffffffffffffffffffffffffffffff8214156109935761099261099e565b5b600182019050919050565b7f4e487b7100000000000000000000000000000000000000000000000000000000600052601160045260246000fd5b7f4e487b7100000000000000000000000000000000000000000000000000000000600052602260045260246000fd5b7f4e487b7100000000000000000000000000000000000000000000000000000000600052604160045260246000fd5b600080fd5b600080fd5b600080fd5b600080fd5b6000601f19601f8301169050919050565b7f4163636573732069732044656e69656400000000000000000000000000000000600082015250565b610a82816108a6565b8114610a8d57600080fd5b5056fe596f752077696c6c20626520616464656420746f2063616e646964617465206c697374206f6e636520796f75206172652076616c696461746564206279207468652061646d696ea26469706673582212200761858ce991be8b64d0a0d432766e14df3f90d029e03de5a6d0030fa549308d64736f6c63430008070033",
					"opcodes": "PUSH1 0x80 PUSH1 0x40 MSTORE CALLVALUE DUP1 ISZERO PUSH2 0x10 JUMPI PUSH1 0x0 DUP1 REVERT JUMPDEST POP CALLER PUSH1 0x2 PUSH1 0x0 PUSH2 0x100 EXP DUP2 SLOAD DUP2 PUSH20 0xFFFFFFFFFFFFFFFFFFFFFFFFFFFFFFFFFFFFFFFF MUL NOT AND SWAP1 DUP4 PUSH20 0xFFFFFFFFFFFFFFFFFFFFFFFFFFFFFFFFFFFFFFFF AND MUL OR SWAP1 SSTORE POP PUSH2 0xB0D DUP1 PUSH2 0x61 PUSH1 0x0 CODECOPY PUSH1 0x0 RETURN INVALID PUSH1 0x80 PUSH1 0x40 MSTORE CALLVALUE DUP1 ISZERO PUSH2 0x10 JUMPI PUSH1 0x0 DUP1 REVERT JUMPDEST POP PUSH1 0x4 CALLDATASIZE LT PUSH2 0x4C JUMPI PUSH1 0x0 CALLDATALOAD PUSH1 0xE0 SHR DUP1 PUSH4 0x17678BC3 EQ PUSH2 0x51 JUMPI DUP1 PUSH4 0x3477EE2E EQ PUSH2 0x81 JUMPI DUP1 PUSH4 0x53FA2E64 EQ PUSH2 0xB2 JUMPI DUP1 PUSH4 0xC7431C4A EQ PUSH2 0xE3 JUMPI JUMPDEST PUSH1 0x0 DUP1 REVERT JUMPDEST PUSH2 0x6B PUSH1 0x4 DUP1 CALLDATASIZE SUB DUP2 ADD SWAP1 PUSH2 0x66 SWAP2 SWAP1 PUSH2 0x667 JUMP JUMPDEST PUSH2 0x113 JUMP JUMPDEST PUSH1 0x40 MLOAD PUSH2 0x78 SWAP2 SWAP1 PUSH2 0x786 JUMP JUMPDEST PUSH1 0x40 MLOAD DUP1 SWAP2 SUB SWAP1 RETURN JUMPDEST PUSH2 0x9B PUSH1 0x4 DUP1 CALLDATASIZE SUB DUP2 ADD SWAP1 PUSH2 0x96 SWAP2 SWAP1 PUSH2 0x6DF JUMP JUMPDEST PUSH2 0x247 JUMP JUMPDEST PUSH1 0x40 MLOAD PUSH2 0xA9 SWAP3 SWAP2 SWAP1 PUSH2 0x7A8 JUMP JUMPDEST PUSH1 0x40 MLOAD DUP1 SWAP2 SUB SWAP1 RETURN JUMPDEST PUSH2 0xCC PUSH1 0x4 DUP1 CALLDATASIZE SUB DUP2 ADD SWAP1 PUSH2 0xC7 SWAP2 SWAP1 PUSH2 0x61E JUMP JUMPDEST PUSH2 0x37B JUMP JUMPDEST PUSH1 0x40 MLOAD PUSH2 0xDA SWAP3 SWAP2 SWAP1 PUSH2 0x7FF JUMP JUMPDEST PUSH1 0x40 MLOAD DUP1 SWAP2 SUB SWAP1 RETURN JUMPDEST PUSH2 0xFD PUSH1 0x4 DUP1 CALLDATASIZE SUB DUP2 ADD SWAP1 PUSH2 0xF8 SWAP2 SWAP1 PUSH2 0x667 JUMP JUMPDEST PUSH2 0x3C2 JUMP JUMPDEST PUSH1 0x40 MLOAD PUSH2 0x10A SWAP2 SWAP1 PUSH2 0x786 JUMP JUMPDEST PUSH1 0x40 MLOAD DUP1 SWAP2 SUB SWAP1 RETURN JUMPDEST PUSH1 0x60 PUSH1 0x2 PUSH1 0x0 SWAP1 SLOAD SWAP1 PUSH2 0x100 EXP SWAP1 DIV PUSH20 0xFFFFFFFFFFFFFFFFFFFFFFFFFFFFFFFFFFFFFFFF AND PUSH20 0xFFFFFFFFFFFFFFFFFFFFFFFFFFFFFFFFFFFFFFFF AND CALLER PUSH20 0xFFFFFFFFFFFFFFFFFFFFFFFFFFFFFFFFFFFFFFFF AND EQ PUSH2 0x1A5 JUMPI PUSH1 0x40 MLOAD PUSH32 0x8C379A000000000000000000000000000000000000000000000000000000000 DUP2 MSTORE PUSH1 0x4 ADD PUSH2 0x19C SWAP1 PUSH2 0x7DF JUMP JUMPDEST PUSH1 0x40 MLOAD DUP1 SWAP2 SUB SWAP1 REVERT JUMPDEST PUSH1 0x0 PUSH1 0x1 PUSH1 0x0 DUP2 SLOAD DUP1 SWAP3 SWAP2 SWAP1 PUSH2 0x1BA SWAP1 PUSH2 0x955 JUMP JUMPDEST SWAP2 SWAP1 POP SSTORE SWAP1 POP PUSH1 0x40 MLOAD DUP1 PUSH1 0x40 ADD PUSH1 0x40 MSTORE DUP1 DUP6 DUP2 MSTORE PUSH1 0x20 ADD DUP5 DUP2 MSTORE POP PUSH1 0x3 PUSH1 0x0 DUP4 DUP2 MSTORE PUSH1 0x20 ADD SWAP1 DUP2 MSTORE PUSH1 0x20 ADD PUSH1 0x0 KECCAK256 PUSH1 0x0 DUP3 ADD MLOAD DUP2 PUSH1 0x0 ADD SWAP1 DUP1 MLOAD SWAP1 PUSH1 0x20 ADD SWAP1 PUSH2 0x204 SWAP3 SWAP2 SWAP1 PUSH2 0x4F6 JUMP JUMPDEST POP PUSH1 0x20 DUP3 ADD MLOAD DUP2 PUSH1 0x1 ADD SWAP1 DUP1 MLOAD SWAP1 PUSH1 0x20 ADD SWAP1 PUSH2 0x221 SWAP3 SWAP2 SWAP1 PUSH2 0x4F6 JUMP JUMPDEST POP SWAP1 POP POP PUSH1 0x40 MLOAD DUP1 PUSH1 0x80 ADD PUSH1 0x40 MSTORE DUP1 PUSH1 0x47 DUP2 MSTORE PUSH1 0x20 ADD PUSH2 0xA91 PUSH1 0x47 SWAP2 CODECOPY SWAP2 POP POP SWAP3 SWAP2 POP POP JUMP JUMPDEST PUSH1 0x3 PUSH1 0x20 MSTORE DUP1 PUSH1 0x0 MSTORE PUSH1 0x40 PUSH1 0x0 KECCAK256 PUSH1 0x0 SWAP2 POP SWAP1 POP DUP1 PUSH1 0x0 ADD DUP1 SLOAD PUSH2 0x26A SWAP1 PUSH2 0x8F2 JUMP JUMPDEST DUP1 PUSH1 0x1F ADD PUSH1 0x20 DUP1 SWAP2 DIV MUL PUSH1 0x20 ADD PUSH1 0x40 MLOAD SWAP1 DUP2 ADD PUSH1 0x40 MSTORE DUP1 SWAP3 SWAP2 SWAP1 DUP2 DUP2 MSTORE PUSH1 0x20 ADD DUP3 DUP1 SLOAD PUSH2 0x296 SWAP1 PUSH2 0x8F2 JUMP JUMPDEST DUP1 ISZERO PUSH2 0x2E3 JUMPI DUP1 PUSH1 0x1F LT PUSH2 0x2B8 JUMPI PUSH2 0x100 DUP1 DUP4 SLOAD DIV MUL DUP4 MSTORE SWAP2 PUSH1 0x20 ADD SWAP2 PUSH2 0x2E3 JUMP JUMPDEST DUP3 ADD SWAP2 SWAP1 PUSH1 0x0 MSTORE PUSH1 0x20 PUSH1 0x0 KECCAK256 SWAP1 JUMPDEST DUP2 SLOAD DUP2 MSTORE SWAP1 PUSH1 0x1 ADD SWAP1 PUSH1 0x20 ADD DUP1 DUP4 GT PUSH2 0x2C6 JUMPI DUP3 SWAP1 SUB PUSH1 0x1F AND DUP3 ADD SWAP2 JUMPDEST POP POP POP POP POP SWAP1 DUP1 PUSH1 0x1 ADD DUP1 SLOAD PUSH2 0x2F8 SWAP1 PUSH2 0x8F2 JUMP JUMPDEST DUP1 PUSH1 0x1F ADD PUSH1 0x20 DUP1 SWAP2 DIV MUL PUSH1 0x20 ADD PUSH1 0x40 MLOAD SWAP1 DUP2 ADD PUSH1 0x40 MSTORE DUP1 SWAP3 SWAP2 SWAP1 DUP2 DUP2 MSTORE PUSH1 0x20 ADD DUP3 DUP1 SLOAD PUSH2 0x324 SWAP1 PUSH2 0x8F2 JUMP JUMPDEST DUP1 ISZERO PUSH2 0x371 JUMPI DUP1 PUSH1 0x1F LT PUSH2 0x346 JUMPI PUSH2 0x100 DUP1 DUP4 SLOAD DIV MUL DUP4 MSTORE SWAP2 PUSH1 0x20 ADD SWAP2 PUSH2 0x371 JUMP JUMPDEST DUP3 ADD SWAP2 SWAP1 PUSH1 0x0 MSTORE PUSH1 0x20 PUSH1 0x0 KECCAK256 SWAP1 JUMPDEST DUP2 SLOAD DUP2 MSTORE SWAP1 PUSH1 0x1 ADD SWAP1 PUSH1 0x20 ADD DUP1 DUP4 GT PUSH2 0x354 JUMPI DUP3 SWAP1 SUB PUSH1 0x1F AND DUP3 ADD SWAP2 JUMPDEST POP POP POP POP POP SWAP1 POP DUP3 JUMP JUMPDEST PUSH1 0x4 DUP2 DUP1 MLOAD PUSH1 0x20 DUP2 ADD DUP3 ADD DUP1 MLOAD DUP5 DUP3 MSTORE PUSH1 0x20 DUP4 ADD PUSH1 0x20 DUP6 ADD KECCAK256 DUP2 DUP4 MSTORE DUP1 SWAP6 POP POP POP POP POP POP PUSH1 0x0 SWAP2 POP SWAP1 POP DUP1 PUSH1 0x0 ADD SLOAD SWAP1 DUP1 PUSH1 0x1 ADD PUSH1 0x0 SWAP1 SLOAD SWAP1 PUSH2 0x100 EXP SWAP1 DIV PUSH1 0xFF AND SWAP1 POP DUP3 JUMP JUMPDEST PUSH1 0x60 PUSH1 0x2 PUSH1 0x0 SWAP1 SLOAD SWAP1 PUSH2 0x100 EXP SWAP1 DIV PUSH20 0xFFFFFFFFFFFFFFFFFFFFFFFFFFFFFFFFFFFFFFFF AND PUSH20 0xFFFFFFFFFFFFFFFFFFFFFFFFFFFFFFFFFFFFFFFF AND CALLER PUSH20 0xFFFFFFFFFFFFFFFFFFFFFFFFFFFFFFFFFFFFFFFF AND EQ PUSH2 0x454 JUMPI PUSH1 0x40 MLOAD PUSH32 0x8C379A000000000000000000000000000000000000000000000000000000000 DUP2 MSTORE PUSH1 0x4 ADD PUSH2 0x44B SWAP1 PUSH2 0x7DF JUMP JUMPDEST PUSH1 0x40 MLOAD DUP1 SWAP2 SUB SWAP1 REVERT JUMPDEST PUSH1 0x0 PUSH1 0x1 PUSH1 0x0 DUP2 SLOAD DUP1 SWAP3 SWAP2 SWAP1 PUSH2 0x469 SWAP1 PUSH2 0x955 JUMP JUMPDEST SWAP2 SWAP1 POP SSTORE SWAP1 POP PUSH1 0x40 MLOAD DUP1 PUSH1 0x40 ADD PUSH1 0x40 MSTORE DUP1 DUP6 DUP2 MSTORE PUSH1 0x20 ADD DUP5 DUP2 MSTORE POP PUSH1 0x3 PUSH1 0x0 DUP4 DUP2 MSTORE PUSH1 0x20 ADD SWAP1 DUP2 MSTORE PUSH1 0x20 ADD PUSH1 0x0 KECCAK256 PUSH1 0x0 DUP3 ADD MLOAD DUP2 PUSH1 0x0 ADD SWAP1 DUP1 MLOAD SWAP1 PUSH1 0x20 ADD SWAP1 PUSH2 0x4B3 SWAP3 SWAP2 SWAP1 PUSH2 0x4F6 JUMP JUMPDEST POP PUSH1 0x20 DUP3 ADD MLOAD DUP2 PUSH1 0x1 ADD SWAP1 DUP1 MLOAD SWAP1 PUSH1 0x20 ADD SWAP1 PUSH2 0x4D0 SWAP3 SWAP2 SWAP1 PUSH2 0x4F6 JUMP JUMPDEST POP SWAP1 POP POP PUSH1 0x40 MLOAD DUP1 PUSH1 0x80 ADD PUSH1 0x40 MSTORE DUP1 PUSH1 0x47 DUP2 MSTORE PUSH1 0x20 ADD PUSH2 0xA91 PUSH1 0x47 SWAP2 CODECOPY SWAP2 POP POP SWAP3 SWAP2 POP POP JUMP JUMPDEST DUP3 DUP1 SLOAD PUSH2 0x502 SWAP1 PUSH2 0x8F2 JUMP JUMPDEST SWAP1 PUSH1 0x0 MSTORE PUSH1 0x20 PUSH1 0x0 KECCAK256 SWAP1 PUSH1 0x1F ADD PUSH1 0x20 SWAP1 DIV DUP2 ADD SWAP3 DUP3 PUSH2 0x524 JUMPI PUSH1 0x0 DUP6 SSTORE PUSH2 0x56B JUMP JUMPDEST DUP3 PUSH1 0x1F LT PUSH2 0x53D JUMPI DUP1 MLOAD PUSH1 0xFF NOT AND DUP4 DUP1 ADD OR DUP6 SSTORE PUSH2 0x56B JUMP JUMPDEST DUP3 DUP1 ADD PUSH1 0x1 ADD DUP6 SSTORE DUP3 ISZERO PUSH2 0x56B JUMPI SWAP2 DUP3 ADD JUMPDEST DUP3 DUP2 GT ISZERO PUSH2 0x56A JUMPI DUP3 MLOAD DUP3 SSTORE SWAP2 PUSH1 0x20 ADD SWAP2 SWAP1 PUSH1 0x1 ADD SWAP1 PUSH2 0x54F JUMP JUMPDEST JUMPDEST POP SWAP1 POP PUSH2 0x578 SWAP2 SWAP1 PUSH2 0x57C JUMP JUMPDEST POP SWAP1 JUMP JUMPDEST JUMPDEST DUP1 DUP3 GT ISZERO PUSH2 0x595 JUMPI PUSH1 0x0 DUP2 PUSH1 0x0 SWAP1 SSTORE POP PUSH1 0x1 ADD PUSH2 0x57D JUMP JUMPDEST POP SWAP1 JUMP JUMPDEST PUSH1 0x0 PUSH2 0x5AC PUSH2 0x5A7 DUP5 PUSH2 0x84D JUMP JUMPDEST PUSH2 0x828 JUMP JUMPDEST SWAP1 POP DUP3 DUP2 MSTORE PUSH1 0x20 DUP2 ADD DUP5 DUP5 DUP5 ADD GT ISZERO PUSH2 0x5C8 JUMPI PUSH2 0x5C7 PUSH2 0xA30 JUMP JUMPDEST JUMPDEST PUSH2 0x5D3 DUP5 DUP3 DUP6 PUSH2 0x8B0 JUMP JUMPDEST POP SWAP4 SWAP3 POP POP POP JUMP JUMPDEST PUSH1 0x0 DUP3 PUSH1 0x1F DUP4 ADD SLT PUSH2 0x5F0 JUMPI PUSH2 0x5EF PUSH2 0xA2B JUMP JUMPDEST JUMPDEST DUP2 CALLDATALOAD PUSH2 0x600 DUP5 DUP3 PUSH1 0x20 DUP7 ADD PUSH2 0x599 JUMP JUMPDEST SWAP2 POP POP SWAP3 SWAP2 POP POP JUMP JUMPDEST PUSH1 0x0 DUP2 CALLDATALOAD SWAP1 POP PUSH2 0x618 DUP2 PUSH2 0xA79 JUMP JUMPDEST SWAP3 SWAP2 POP POP JUMP JUMPDEST PUSH1 0x0 PUSH1 0x20 DUP3 DUP5 SUB SLT ISZERO PUSH2 0x634 JUMPI PUSH2 0x633 PUSH2 0xA3A JUMP JUMPDEST JUMPDEST PUSH1 0x0 DUP3 ADD CALLDATALOAD PUSH8 0xFFFFFFFFFFFFFFFF DUP2 GT ISZERO PUSH2 0x652 JUMPI PUSH2 0x651 PUSH2 0xA35 JUMP JUMPDEST JUMPDEST PUSH2 0x65E DUP5 DUP3 DUP6 ADD PUSH2 0x5DB JUMP JUMPDEST SWAP2 POP POP SWAP3 SWAP2 POP POP JUMP JUMPDEST PUSH1 0x0 DUP1 PUSH1 0x40 DUP4 DUP6 SUB SLT ISZERO PUSH2 0x67E JUMPI PUSH2 0x67D PUSH2 0xA3A JUMP JUMPDEST JUMPDEST PUSH1 0x0 DUP4 ADD CALLDATALOAD PUSH8 0xFFFFFFFFFFFFFFFF DUP2 GT ISZERO PUSH2 0x69C JUMPI PUSH2 0x69B PUSH2 0xA35 JUMP JUMPDEST JUMPDEST PUSH2 0x6A8 DUP6 DUP3 DUP7 ADD PUSH2 0x5DB JUMP JUMPDEST SWAP3 POP POP PUSH1 0x20 DUP4 ADD CALLDATALOAD PUSH8 0xFFFFFFFFFFFFFFFF DUP2 GT ISZERO PUSH2 0x6C9 JUMPI PUSH2 0x6C8 PUSH2 0xA35 JUMP JUMPDEST JUMPDEST PUSH2 0x6D5 DUP6 DUP3 DUP7 ADD PUSH2 0x5DB JUMP JUMPDEST SWAP2 POP POP SWAP3 POP SWAP3 SWAP1 POP JUMP JUMPDEST PUSH1 0x0 PUSH1 0x20 DUP3 DUP5 SUB SLT ISZERO PUSH2 0x6F5 JUMPI PUSH2 0x6F4 PUSH2 0xA3A JUMP JUMPDEST JUMPDEST PUSH1 0x0 PUSH2 0x703 DUP5 DUP3 DUP6 ADD PUSH2 0x609 JUMP JUMPDEST SWAP2 POP POP SWAP3 SWAP2 POP POP JUMP JUMPDEST PUSH2 0x715 DUP2 PUSH2 0x89A JUMP JUMPDEST DUP3 MSTORE POP POP JUMP JUMPDEST PUSH1 0x0 PUSH2 0x726 DUP3 PUSH2 0x87E JUMP JUMPDEST PUSH2 0x730 DUP2 DUP6 PUSH2 0x889 JUMP JUMPDEST SWAP4 POP PUSH2 0x740 DUP2 DUP6 PUSH1 0x20 DUP7 ADD PUSH2 0x8BF JUMP JUMPDEST PUSH2 0x749 DUP2 PUSH2 0xA3F JUMP JUMPDEST DUP5 ADD SWAP2 POP POP SWAP3 SWAP2 POP POP JUMP JUMPDEST PUSH1 0x0 PUSH2 0x761 PUSH1 0x10 DUP4 PUSH2 0x889 JUMP JUMPDEST SWAP2 POP PUSH2 0x76C DUP3 PUSH2 0xA50 JUMP JUMPDEST PUSH1 0x20 DUP3 ADD SWAP1 POP SWAP2 SWAP1 POP JUMP JUMPDEST PUSH2 0x780 DUP2 PUSH2 0x8A6 JUMP JUMPDEST DUP3 MSTORE POP POP JUMP JUMPDEST PUSH1 0x0 PUSH1 0x20 DUP3 ADD SWAP1 POP DUP2 DUP2 SUB PUSH1 0x0 DUP4 ADD MSTORE PUSH2 0x7A0 DUP2 DUP5 PUSH2 0x71B JUMP JUMPDEST SWAP1 POP SWAP3 SWAP2 POP POP JUMP JUMPDEST PUSH1 0x0 PUSH1 0x40 DUP3 ADD SWAP1 POP DUP2 DUP2 SUB PUSH1 0x0 DUP4 ADD MSTORE PUSH2 0x7C2 DUP2 DUP6 PUSH2 0x71B JUMP JUMPDEST SWAP1 POP DUP2 DUP2 SUB PUSH1 0x20 DUP4 ADD MSTORE PUSH2 0x7D6 DUP2 DUP5 PUSH2 0x71B JUMP JUMPDEST SWAP1 POP SWAP4 SWAP3 POP POP POP JUMP JUMPDEST PUSH1 0x0 PUSH1 0x20 DUP3 ADD SWAP1 POP DUP2 DUP2 SUB PUSH1 0x0 DUP4 ADD MSTORE PUSH2 0x7F8 DUP2 PUSH2 0x754 JUMP JUMPDEST SWAP1 POP SWAP2 SWAP1 POP JUMP JUMPDEST PUSH1 0x0 PUSH1 0x40 DUP3 ADD SWAP1 POP PUSH2 0x814 PUSH1 0x0 DUP4 ADD DUP6 PUSH2 0x777 JUMP JUMPDEST PUSH2 0x821 PUSH1 0x20 DUP4 ADD DUP5 PUSH2 0x70C JUMP JUMPDEST SWAP4 SWAP3 POP POP POP JUMP JUMPDEST PUSH1 0x0 PUSH2 0x832 PUSH2 0x843 JUMP JUMPDEST SWAP1 POP PUSH2 0x83E DUP3 DUP3 PUSH2 0x924 JUMP JUMPDEST SWAP2 SWAP1 POP JUMP JUMPDEST PUSH1 0x0 PUSH1 0x40 MLOAD SWAP1 POP SWAP1 JUMP JUMPDEST PUSH1 0x0 PUSH8 0xFFFFFFFFFFFFFFFF DUP3 GT ISZERO PUSH2 0x868 JUMPI PUSH2 0x867 PUSH2 0x9FC JUMP JUMPDEST JUMPDEST PUSH2 0x871 DUP3 PUSH2 0xA3F JUMP JUMPDEST SWAP1 POP PUSH1 0x20 DUP2 ADD SWAP1 POP SWAP2 SWAP1 POP JUMP JUMPDEST PUSH1 0x0 DUP2 MLOAD SWAP1 POP SWAP2 SWAP1 POP JUMP JUMPDEST PUSH1 0x0 DUP3 DUP3 MSTORE PUSH1 0x20 DUP3 ADD SWAP1 POP SWAP3 SWAP2 POP POP JUMP JUMPDEST PUSH1 0x0 DUP2 ISZERO ISZERO SWAP1 POP SWAP2 SWAP1 POP JUMP JUMPDEST PUSH1 0x0 DUP2 SWAP1 POP SWAP2 SWAP1 POP JUMP JUMPDEST DUP3 DUP2 DUP4 CALLDATACOPY PUSH1 0x0 DUP4 DUP4 ADD MSTORE POP POP POP JUMP JUMPDEST PUSH1 0x0 JUMPDEST DUP4 DUP2 LT ISZERO PUSH2 0x8DD JUMPI DUP1 DUP3 ADD MLOAD DUP2 DUP5 ADD MSTORE PUSH1 0x20 DUP2 ADD SWAP1 POP PUSH2 0x8C2 JUMP JUMPDEST DUP4 DUP2 GT ISZERO PUSH2 0x8EC JUMPI PUSH1 0x0 DUP5 DUP5 ADD MSTORE JUMPDEST POP POP POP POP JUMP JUMPDEST PUSH1 0x0 PUSH1 0x2 DUP3 DIV SWAP1 POP PUSH1 0x1 DUP3 AND DUP1 PUSH2 0x90A JUMPI PUSH1 0x7F DUP3 AND SWAP2 POP JUMPDEST PUSH1 0x20 DUP3 LT DUP2 EQ ISZERO PUSH2 0x91E JUMPI PUSH2 0x91D PUSH2 0x9CD JUMP JUMPDEST JUMPDEST POP SWAP2 SWAP1 POP JUMP JUMPDEST PUSH2 0x92D DUP3 PUSH2 0xA3F JUMP JUMPDEST DUP2 ADD DUP2 DUP2 LT PUSH8 0xFFFFFFFFFFFFFFFF DUP3 GT OR ISZERO PUSH2 0x94C JUMPI PUSH2 0x94B PUSH2 0x9FC JUMP JUMPDEST JUMPDEST DUP1 PUSH1 0x40 MSTORE POP POP POP JUMP JUMPDEST PUSH1 0x0 PUSH2 0x960 DUP3 PUSH2 0x8A6 JUMP JUMPDEST SWAP2 POP PUSH32 0xFFFFFFFFFFFFFFFFFFFFFFFFFFFFFFFFFFFFFFFFFFFFFFFFFFFFFFFFFFFFFFFF DUP3 EQ ISZERO PUSH2 0x993 JUMPI PUSH2 0x992 PUSH2 0x99E JUMP JUMPDEST JUMPDEST PUSH1 0x1 DUP3 ADD SWAP1 POP SWAP2 SWAP1 POP JUMP JUMPDEST PUSH32 0x4E487B7100000000000000000000000000000000000000000000000000000000 PUSH1 0x0 MSTORE PUSH1 0x11 PUSH1 0x4 MSTORE PUSH1 0x24 PUSH1 0x0 REVERT JUMPDEST PUSH32 0x4E487B7100000000000000000000000000000000000000000000000000000000 PUSH1 0x0 MSTORE PUSH1 0x22 PUSH1 0x4 MSTORE PUSH1 0x24 PUSH1 0x0 REVERT JUMPDEST PUSH32 0x4E487B7100000000000000000000000000000000000000000000000000000000 PUSH1 0x0 MSTORE PUSH1 0x41 PUSH1 0x4 MSTORE PUSH1 0x24 PUSH1 0x0 REVERT JUMPDEST PUSH1 0x0 DUP1 REVERT JUMPDEST PUSH1 0x0 DUP1 REVERT JUMPDEST PUSH1 0x0 DUP1 REVERT JUMPDEST PUSH1 0x0 DUP1 REVERT JUMPDEST PUSH1 0x0 PUSH1 0x1F NOT PUSH1 0x1F DUP4 ADD AND SWAP1 POP SWAP2 SWAP1 POP JUMP JUMPDEST PUSH32 0x4163636573732069732044656E69656400000000000000000000000000000000 PUSH1 0x0 DUP3 ADD MSTORE POP JUMP JUMPDEST PUSH2 0xA82 DUP2 PUSH2 0x8A6 JUMP JUMPDEST DUP2 EQ PUSH2 0xA8D JUMPI PUSH1 0x0 DUP1 REVERT JUMPDEST POP JUMP INVALID MSIZE PUSH16 0x752077696C6C20626520616464656420 PUSH21 0x6F2063616E646964617465206C697374206F6E6365 KECCAK256 PUSH26 0x6F75206172652076616C69646174656420627920746865206164 PUSH14 0x696EA26469706673582212200761 DUP6 DUP13 0xE9 SWAP2 0xBE DUP12 PUSH5 0xD0A0D43276 PUSH15 0x14DF3F90D029E03DE5A6D0030FA549 ADDRESS DUP14 PUSH5 0x736F6C6343 STOP ADDMOD SMOD STOP CALLER "
				},
				"gasEstimates": {
					"creation": {
						"codeDepositCost": "565800",
						"executionCost": "24866",
						"totalCost": "590666"
					},
					"external": {
						"candidateEnrollment(string,string)": "infinite",
						"candidates(uint256)": "infinite",
						"voterEnrollment(string,string)": "infinite",
						"voters(string)": "infinite"
					}
				},
				"methodIdentifiers": {
					"candidateEnrollment(string,string)": "17678bc3",
					"candidates(uint256)": "3477ee2e",
					"voterEnrollment(string,string)": "c7431c4a",
					"voters(string)": "53fa2e64"
				}
			},
			"storageLayout": {
				"storage": [
					{
						"astId": 3,
						"contract": "voting.sol:Voting",
						"label": "noOfVoters",
						"offset": 0,
						"slot": "0",
						"type": "t_uint256"
					},
					{
						"astId": 5,
						"contract": "voting.sol:Voting",
						"label": "noOfCandidates",
						"offset": 0,
						"slot": "1",
						"type": "t_uint256"
					},
					{
						"astId": 7,
						"contract": "voting.sol:Voting",
						"label": "admin",
						"offset": 0,
						"slot": "2",
						"type": "t_address"
					},
					{
						"astId": 12,
						"contract": "voting.sol:Voting",
						"label": "candidates",
						"offset": 0,
						"slot": "3",
						"type": "t_mapping(t_uint256,t_struct(Candidate)22_storage)"
					},
					{
						"astId": 17,
						"contract": "voting.sol:Voting",
						"label": "voters",
						"offset": 0,
						"slot": "4",
						"type": "t_mapping(t_string_memory_ptr,t_struct(Voter)27_storage)"
					}
				],
				"types": {
					"t_address": {
						"encoding": "inplace",
						"label": "address",
						"numberOfBytes": "20"
					},
					"t_bool": {
						"encoding": "inplace",
						"label": "bool",
						"numberOfBytes": "1"
					},
					"t_mapping(t_string_memory_ptr,t_struct(Voter)27_storage)": {
						"encoding": "mapping",
						"key": "t_string_memory_ptr",
						"label": "mapping(string => struct Voting.Voter)",
						"numberOfBytes": "32",
						"value": "t_struct(Voter)27_storage"
					},
					"t_mapping(t_uint256,t_struct(Candidate)22_storage)": {
						"encoding": "mapping",
						"key": "t_uint256",
						"label": "mapping(uint256 => struct Voting.Candidate)",
						"numberOfBytes": "32",
						"value": "t_struct(Candidate)22_storage"
					},
					"t_string_memory_ptr": {
						"encoding": "bytes",
						"label": "string",
						"numberOfBytes": "32"
					},
					"t_string_storage": {
						"encoding": "bytes",
						"label": "string",
						"numberOfBytes": "32"
					},
					"t_struct(Candidate)22_storage": {
						"encoding": "inplace",
						"label": "struct Voting.Candidate",
						"members": [
							{
								"astId": 19,
								"contract": "voting.sol:Voting",
								"label": "candidate_name",
								"offset": 0,
								"slot": "0",
								"type": "t_string_storage"
							},
							{
								"astId": 21,
								"contract": "voting.sol:Voting",
								"label": "candidate_description",
								"offset": 0,
								"slot": "1",
								"type": "t_string_storage"
							}
						],
						"numberOfBytes": "64"
					},
					"t_struct(Voter)27_storage": {
						"encoding": "inplace",
						"label": "struct Voting.Voter",
						"members": [
							{
								"astId": 24,
								"contract": "voting.sol:Voting",
								"label": "candidate_id",
								"offset": 0,
								"slot": "0",
								"type": "t_uint256"
							},
							{
								"astId": 26,
								"contract": "voting.sol:Voting",
								"label": "hasVoted",
								"offset": 0,
								"slot": "1",
								"type": "t_bool"
							}
						],
						"numberOfBytes": "64"
					},
					"t_uint256": {
						"encoding": "inplace",
						"label": "uint256",
						"numberOfBytes": "32"
					}
				}
			},
			"userdoc": {
				"kind": "user",
				"methods": {},
				"version": 1
			}
		}
	}
}