{
	"voting.sol": {
		"Voting": {
			"abi": [
				{
					"inputs": [],
					"stateMutability": "nonpayable",
					"type": "constructor"
				},
				{
					"inputs": [
						{
							"internalType": "string",
							"name": "name",
							"type": "string"
						},
						{
							"internalType": "string",
							"name": "description",
							"type": "string"
						}
					],
					"name": "candidateEnrollment",
					"outputs": [
						{
							"internalType": "string",
							"name": "",
							"type": "string"
						}
					],
					"stateMutability": "nonpayable",
					"type": "function"
				},
				{
					"inputs": [
						{
							"internalType": "string",
							"name": "name",
							"type": "string"
						}
					],
					"name": "validCandidate",
					"outputs": [
						{
							"internalType": "string",
							"name": "",
							"type": "string"
						}
					],
					"stateMutability": "nonpayable",
					"type": "function"
				},
				{
					"inputs": [
						{
							"internalType": "uint256",
							"name": "",
							"type": "uint256"
						}
					],
					"name": "validCandidates",
					"outputs": [
						{
							"internalType": "string",
							"name": "candidate_name",
							"type": "string"
						},
						{
							"internalType": "string",
							"name": "candidate_description",
							"type": "string"
						},
						{
							"internalType": "bool",
							"name": "isValid",
							"type": "bool"
						}
					],
					"stateMutability": "view",
					"type": "function"
				}
			],
			"devdoc": {
				"kind": "dev",
				"methods": {},
				"version": 1
			},
			"evm": {
				"assembly": "    /* \"voting.sol\":59:1102  contract Voting{\r... */\n  mstore(0x40, 0x80)\n    /* \"voting.sol\":513:563  constructor(){\r... */\n  callvalue\n  dup1\n  iszero\n  tag_1\n  jumpi\n  0x00\n  dup1\n  revert\ntag_1:\n  pop\n    /* \"voting.sol\":545:555  msg.sender */\n  caller\n    /* \"voting.sol\":537:542  admin */\n  0x03\n  0x00\n    /* \"voting.sol\":537:555  admin = msg.sender */\n  0x0100\n  exp\n  dup2\n  sload\n  dup2\n  0xffffffffffffffffffffffffffffffffffffffff\n  mul\n  not\n  and\n  swap1\n  dup4\n  0xffffffffffffffffffffffffffffffffffffffff\n  and\n  mul\n  or\n  swap1\n  sstore\n  pop\n    /* \"voting.sol\":59:1102  contract Voting{\r... */\n  dataSize(sub_0)\n  dup1\n  dataOffset(sub_0)\n  0x00\n  codecopy\n  0x00\n  return\nstop\n\nsub_0: assembly {\n        /* \"voting.sol\":59:1102  contract Voting{\r... */\n      mstore(0x40, 0x80)\n      callvalue\n      dup1\n      iszero\n      tag_1\n      jumpi\n      0x00\n      dup1\n      revert\n    tag_1:\n      pop\n      jumpi(tag_2, lt(calldatasize, 0x04))\n      shr(0xe0, calldataload(0x00))\n      dup1\n      0x17678bc3\n      eq\n      tag_3\n      jumpi\n      dup1\n      0x538c91b2\n      eq\n      tag_4\n      jumpi\n      dup1\n      0xb0d18814\n      eq\n      tag_5\n      jumpi\n    tag_2:\n      0x00\n      dup1\n      revert\n        /* \"voting.sol\":673:1000  function candidateEnrollment(string memory name,string memory description) public returns(string memory){\r... */\n    tag_3:\n      tag_6\n      0x04\n      dup1\n      calldatasize\n      sub\n      dup2\n      add\n      swap1\n      tag_7\n      swap2\n      swap1\n      tag_8\n      jump\t// in\n    tag_7:\n      tag_9\n      jump\t// in\n    tag_6:\n      mload(0x40)\n      tag_10\n      swap2\n      swap1\n      tag_11\n      jump\t// in\n    tag_10:\n      mload(0x40)\n      dup1\n      swap2\n      sub\n      swap1\n      return\n        /* \"voting.sol\":1006:1099  function validCandidate(string memory name) public onlyOwner returns(string memory){\r... */\n    tag_4:\n      tag_12\n      0x04\n      dup1\n      calldatasize\n      sub\n      dup2\n      add\n      swap1\n      tag_13\n      swap2\n      swap1\n      tag_14\n      jump\t// in\n    tag_13:\n      tag_15\n      jump\t// in\n    tag_12:\n      mload(0x40)\n      tag_16\n      swap2\n      swap1\n      tag_11\n      jump\t// in\n    tag_16:\n      mload(0x40)\n      dup1\n      swap2\n      sub\n      swap1\n      return\n        /* \"voting.sol\":231:281  mapping (uint => Candidate) public validCandidates */\n    tag_5:\n      tag_17\n      0x04\n      dup1\n      calldatasize\n      sub\n      dup2\n      add\n      swap1\n      tag_18\n      swap2\n      swap1\n      tag_19\n      jump\t// in\n    tag_18:\n      tag_20\n      jump\t// in\n    tag_17:\n      mload(0x40)\n      tag_21\n      swap4\n      swap3\n      swap2\n      swap1\n      tag_22\n      jump\t// in\n    tag_21:\n      mload(0x40)\n      dup1\n      swap2\n      sub\n      swap1\n      return\n        /* \"voting.sol\":673:1000  function candidateEnrollment(string memory name,string memory description) public returns(string memory){\r... */\n    tag_9:\n        /* \"voting.sol\":763:776  string memory */\n      0x60\n        /* \"voting.sol\":788:804  uint candidateID */\n      0x00\n        /* \"voting.sol\":807:821  noOfCandidates */\n      0x01\n      0x00\n        /* \"voting.sol\":807:823  noOfCandidates++ */\n      dup2\n      sload\n      dup1\n      swap3\n      swap2\n      swap1\n      tag_24\n      swap1\n      tag_25\n      jump\t// in\n    tag_24:\n      swap2\n      swap1\n      pop\n      sstore\n        /* \"voting.sol\":788:823  uint candidateID = noOfCandidates++ */\n      swap1\n      pop\n        /* \"voting.sol\":868:901  Candidate(name,description,false) */\n      mload(0x40)\n      dup1\n      0x60\n      add\n      0x40\n      mstore\n      dup1\n        /* \"voting.sol\":878:882  name */\n      dup6\n        /* \"voting.sol\":868:901  Candidate(name,description,false) */\n      dup2\n      mstore\n      0x20\n      add\n        /* \"voting.sol\":883:894  description */\n      dup5\n        /* \"voting.sol\":868:901  Candidate(name,description,false) */\n      dup2\n      mstore\n      0x20\n      add\n        /* \"voting.sol\":895:900  false */\n      0x00\n        /* \"voting.sol\":868:901  Candidate(name,description,false) */\n      iszero\n      iszero\n      dup2\n      mstore\n      pop\n        /* \"voting.sol\":834:852  enrolledCandidates */\n      0x04\n        /* \"voting.sol\":834:865  enrolledCandidates[candidateID] */\n      0x00\n        /* \"voting.sol\":853:864  candidateID */\n      dup4\n        /* \"voting.sol\":834:865  enrolledCandidates[candidateID] */\n      dup2\n      mstore\n      0x20\n      add\n      swap1\n      dup2\n      mstore\n      0x20\n      add\n      0x00\n      keccak256\n        /* \"voting.sol\":834:901  enrolledCandidates[candidateID] = Candidate(name,description,false) */\n      0x00\n      dup3\n      add\n      mload\n      dup2\n      0x00\n      add\n      swap1\n      dup1\n      mload\n      swap1\n      0x20\n      add\n      swap1\n      tag_26\n      swap3\n      swap2\n      swap1\n      tag_27\n      jump\t// in\n    tag_26:\n      pop\n      0x20\n      dup3\n      add\n      mload\n      dup2\n      0x01\n      add\n      swap1\n      dup1\n      mload\n      swap1\n      0x20\n      add\n      swap1\n      tag_28\n      swap3\n      swap2\n      swap1\n      tag_27\n      jump\t// in\n    tag_28:\n      pop\n      0x40\n      dup3\n      add\n      mload\n      dup2\n      0x02\n      add\n      exp(0x0100, 0x00)\n      dup2\n      sload\n      dup2\n      0xff\n      mul\n      not\n      and\n      swap1\n      dup4\n      iszero\n      iszero\n      mul\n      or\n      swap1\n      sstore\n      pop\n      swap1\n      pop\n      pop\n        /* \"voting.sol\":912:992  return \"You will be added to candidate list once you are validated by the admin\" */\n      mload(0x40)\n      dup1\n      0x80\n      add\n      0x40\n      mstore\n      dup1\n      0x47\n      dup2\n      mstore\n      0x20\n      add\n      data_346ae9e229890c1b5467b3280ac50efb3a563831aa4e9bb9392fe53f7d7de7e2\n      0x47\n      swap2\n      codecopy\n      swap2\n      pop\n      pop\n        /* \"voting.sol\":673:1000  function candidateEnrollment(string memory name,string memory description) public returns(string memory){\r... */\n      swap3\n      swap2\n      pop\n      pop\n      jump\t// out\n        /* \"voting.sol\":1006:1099  function validCandidate(string memory name) public onlyOwner returns(string memory){\r... */\n    tag_15:\n        /* \"voting.sol\":1075:1088  string memory */\n      0x60\n        /* \"voting.sol\":622:627  admin */\n      0x03\n      0x00\n      swap1\n      sload\n      swap1\n      0x0100\n      exp\n      swap1\n      div\n      0xffffffffffffffffffffffffffffffffffffffff\n      and\n        /* \"voting.sol\":608:627  msg.sender == admin */\n      0xffffffffffffffffffffffffffffffffffffffff\n      and\n        /* \"voting.sol\":608:618  msg.sender */\n      caller\n        /* \"voting.sol\":608:627  msg.sender == admin */\n      0xffffffffffffffffffffffffffffffffffffffff\n      and\n      eq\n        /* \"voting.sol\":600:647  require(msg.sender == admin,\"Access is Denied\") */\n      tag_30\n      jumpi\n      mload(0x40)\n      0x08c379a000000000000000000000000000000000000000000000000000000000\n      dup2\n      mstore\n      0x04\n      add\n      tag_31\n      swap1\n      tag_32\n      jump\t// in\n    tag_31:\n      mload(0x40)\n      dup1\n      swap2\n      sub\n      swap1\n      revert\n    tag_30:\n        /* \"voting.sol\":1006:1099  function validCandidate(string memory name) public onlyOwner returns(string memory){\r... */\n      swap2\n      swap1\n      pop\n      jump\t// out\n        /* \"voting.sol\":231:281  mapping (uint => Candidate) public validCandidates */\n    tag_20:\n      mstore(0x20, 0x05)\n      dup1\n      0x00\n      mstore\n      keccak256(0x00, 0x40)\n      0x00\n      swap2\n      pop\n      swap1\n      pop\n      dup1\n      0x00\n      add\n      dup1\n      sload\n      tag_34\n      swap1\n      tag_35\n      jump\t// in\n    tag_34:\n      dup1\n      0x1f\n      add\n      0x20\n      dup1\n      swap2\n      div\n      mul\n      0x20\n      add\n      mload(0x40)\n      swap1\n      dup2\n      add\n      0x40\n      mstore\n      dup1\n      swap3\n      swap2\n      swap1\n      dup2\n      dup2\n      mstore\n      0x20\n      add\n      dup3\n      dup1\n      sload\n      tag_36\n      swap1\n      tag_35\n      jump\t// in\n    tag_36:\n      dup1\n      iszero\n      tag_37\n      jumpi\n      dup1\n      0x1f\n      lt\n      tag_38\n      jumpi\n      0x0100\n      dup1\n      dup4\n      sload\n      div\n      mul\n      dup4\n      mstore\n      swap2\n      0x20\n      add\n      swap2\n      jump(tag_37)\n    tag_38:\n      dup3\n      add\n      swap2\n      swap1\n      0x00\n      mstore\n      keccak256(0x00, 0x20)\n      swap1\n    tag_39:\n      dup2\n      sload\n      dup2\n      mstore\n      swap1\n      0x01\n      add\n      swap1\n      0x20\n      add\n      dup1\n      dup4\n      gt\n      tag_39\n      jumpi\n      dup3\n      swap1\n      sub\n      0x1f\n      and\n      dup3\n      add\n      swap2\n    tag_37:\n      pop\n      pop\n      pop\n      pop\n      pop\n      swap1\n      dup1\n      0x01\n      add\n      dup1\n      sload\n      tag_40\n      swap1\n      tag_35\n      jump\t// in\n    tag_40:\n      dup1\n      0x1f\n      add\n      0x20\n      dup1\n      swap2\n      div\n      mul\n      0x20\n      add\n      mload(0x40)\n      swap1\n      dup2\n      add\n      0x40\n      mstore\n      dup1\n      swap3\n      swap2\n      swap1\n      dup2\n      dup2\n      mstore\n      0x20\n      add\n      dup3\n      dup1\n      sload\n      tag_41\n      swap1\n      tag_35\n      jump\t// in\n    tag_41:\n      dup1\n      iszero\n      tag_42\n      jumpi\n      dup1\n      0x1f\n      lt\n      tag_43\n      jumpi\n      0x0100\n      dup1\n      dup4\n      sload\n      div\n      mul\n      dup4\n      mstore\n      swap2\n      0x20\n      add\n      swap2\n      jump(tag_42)\n    tag_43:\n      dup3\n      add\n      swap2\n      swap1\n      0x00\n      mstore\n      keccak256(0x00, 0x20)\n      swap1\n    tag_44:\n      dup2\n      sload\n      dup2\n      mstore\n      swap1\n      0x01\n      add\n      swap1\n      0x20\n      add\n      dup1\n      dup4\n      gt\n      tag_44\n      jumpi\n      dup3\n      swap1\n      sub\n      0x1f\n      and\n      dup3\n      add\n      swap2\n    tag_42:\n      pop\n      pop\n      pop\n      pop\n      pop\n      swap1\n      dup1\n      0x02\n      add\n      0x00\n      swap1\n      sload\n      swap1\n      0x0100\n      exp\n      swap1\n      div\n      0xff\n      and\n      swap1\n      pop\n      dup4\n      jump\t// out\n    tag_27:\n      dup3\n      dup1\n      sload\n      tag_45\n      swap1\n      tag_35\n      jump\t// in\n    tag_45:\n      swap1\n      0x00\n      mstore\n      keccak256(0x00, 0x20)\n      swap1\n      0x1f\n      add\n      0x20\n      swap1\n      div\n      dup2\n      add\n      swap3\n      dup3\n      tag_47\n      jumpi\n      0x00\n      dup6\n      sstore\n      jump(tag_46)\n    tag_47:\n      dup3\n      0x1f\n      lt\n      tag_48\n      jumpi\n      dup1\n      mload\n      not(0xff)\n      and\n      dup4\n      dup1\n      add\n      or\n      dup6\n      sstore\n      jump(tag_46)\n    tag_48:\n      dup3\n      dup1\n      add\n      0x01\n      add\n      dup6\n      sstore\n      dup3\n      iszero\n      tag_46\n      jumpi\n      swap2\n      dup3\n      add\n    tag_49:\n      dup3\n      dup2\n      gt\n      iszero\n      tag_50\n      jumpi\n      dup3\n      mload\n      dup3\n      sstore\n      swap2\n      0x20\n      add\n      swap2\n      swap1\n      0x01\n      add\n      swap1\n      jump(tag_49)\n    tag_50:\n    tag_46:\n      pop\n      swap1\n      pop\n      tag_51\n      swap2\n      swap1\n      tag_52\n      jump\t// in\n    tag_51:\n      pop\n      swap1\n      jump\t// out\n    tag_52:\n    tag_53:\n      dup1\n      dup3\n      gt\n      iszero\n      tag_54\n      jumpi\n      0x00\n      dup2\n      0x00\n      swap1\n      sstore\n      pop\n      0x01\n      add\n      jump(tag_53)\n    tag_54:\n      pop\n      swap1\n      jump\t// out\n        /* \"#utility.yul\":7:419   */\n    tag_56:\n        /* \"#utility.yul\":85:90   */\n      0x00\n        /* \"#utility.yul\":110:176   */\n      tag_58\n        /* \"#utility.yul\":126:175   */\n      tag_59\n        /* \"#utility.yul\":168:174   */\n      dup5\n        /* \"#utility.yul\":126:175   */\n      tag_60\n      jump\t// in\n    tag_59:\n        /* \"#utility.yul\":110:176   */\n      tag_61\n      jump\t// in\n    tag_58:\n        /* \"#utility.yul\":101:176   */\n      swap1\n      pop\n        /* \"#utility.yul\":199:205   */\n      dup3\n        /* \"#utility.yul\":192:197   */\n      dup2\n        /* \"#utility.yul\":185:206   */\n      mstore\n        /* \"#utility.yul\":237:241   */\n      0x20\n        /* \"#utility.yul\":230:235   */\n      dup2\n        /* \"#utility.yul\":226:242   */\n      add\n        /* \"#utility.yul\":275:278   */\n      dup5\n        /* \"#utility.yul\":266:272   */\n      dup5\n        /* \"#utility.yul\":261:264   */\n      dup5\n        /* \"#utility.yul\":257:273   */\n      add\n        /* \"#utility.yul\":254:279   */\n      gt\n        /* \"#utility.yul\":251:363   */\n      iszero\n      tag_62\n      jumpi\n        /* \"#utility.yul\":282:361   */\n      tag_63\n      tag_64\n      jump\t// in\n    tag_63:\n        /* \"#utility.yul\":251:363   */\n    tag_62:\n        /* \"#utility.yul\":372:413   */\n      tag_65\n        /* \"#utility.yul\":406:412   */\n      dup5\n        /* \"#utility.yul\":401:404   */\n      dup3\n        /* \"#utility.yul\":396:399   */\n      dup6\n        /* \"#utility.yul\":372:413   */\n      tag_66\n      jump\t// in\n    tag_65:\n        /* \"#utility.yul\":91:419   */\n      pop\n        /* \"#utility.yul\":7:419   */\n      swap4\n      swap3\n      pop\n      pop\n      pop\n      jump\t// out\n        /* \"#utility.yul\":439:779   */\n    tag_67:\n        /* \"#utility.yul\":495:500   */\n      0x00\n        /* \"#utility.yul\":544:547   */\n      dup3\n        /* \"#utility.yul\":537:541   */\n      0x1f\n        /* \"#utility.yul\":529:535   */\n      dup4\n        /* \"#utility.yul\":525:542   */\n      add\n        /* \"#utility.yul\":521:548   */\n      slt\n        /* \"#utility.yul\":511:633   */\n      tag_69\n      jumpi\n        /* \"#utility.yul\":552:631   */\n      tag_70\n      tag_71\n      jump\t// in\n    tag_70:\n        /* \"#utility.yul\":511:633   */\n    tag_69:\n        /* \"#utility.yul\":669:675   */\n      dup2\n        /* \"#utility.yul\":656:676   */\n      calldataload\n        /* \"#utility.yul\":694:773   */\n      tag_72\n        /* \"#utility.yul\":769:772   */\n      dup5\n        /* \"#utility.yul\":761:767   */\n      dup3\n        /* \"#utility.yul\":754:758   */\n      0x20\n        /* \"#utility.yul\":746:752   */\n      dup7\n        /* \"#utility.yul\":742:759   */\n      add\n        /* \"#utility.yul\":694:773   */\n      tag_56\n      jump\t// in\n    tag_72:\n        /* \"#utility.yul\":685:773   */\n      swap2\n      pop\n        /* \"#utility.yul\":501:779   */\n      pop\n        /* \"#utility.yul\":439:779   */\n      swap3\n      swap2\n      pop\n      pop\n      jump\t// out\n        /* \"#utility.yul\":785:924   */\n    tag_73:\n        /* \"#utility.yul\":831:836   */\n      0x00\n        /* \"#utility.yul\":869:875   */\n      dup2\n        /* \"#utility.yul\":856:876   */\n      calldataload\n        /* \"#utility.yul\":847:876   */\n      swap1\n      pop\n        /* \"#utility.yul\":885:918   */\n      tag_75\n        /* \"#utility.yul\":912:917   */\n      dup2\n        /* \"#utility.yul\":885:918   */\n      tag_76\n      jump\t// in\n    tag_75:\n        /* \"#utility.yul\":785:924   */\n      swap3\n      swap2\n      pop\n      pop\n      jump\t// out\n        /* \"#utility.yul\":930:1439   */\n    tag_14:\n        /* \"#utility.yul\":999:1005   */\n      0x00\n        /* \"#utility.yul\":1048:1050   */\n      0x20\n        /* \"#utility.yul\":1036:1045   */\n      dup3\n        /* \"#utility.yul\":1027:1034   */\n      dup5\n        /* \"#utility.yul\":1023:1046   */\n      sub\n        /* \"#utility.yul\":1019:1051   */\n      slt\n        /* \"#utility.yul\":1016:1135   */\n      iszero\n      tag_78\n      jumpi\n        /* \"#utility.yul\":1054:1133   */\n      tag_79\n      tag_80\n      jump\t// in\n    tag_79:\n        /* \"#utility.yul\":1016:1135   */\n    tag_78:\n        /* \"#utility.yul\":1202:1203   */\n      0x00\n        /* \"#utility.yul\":1191:1200   */\n      dup3\n        /* \"#utility.yul\":1187:1204   */\n      add\n        /* \"#utility.yul\":1174:1205   */\n      calldataload\n        /* \"#utility.yul\":1232:1250   */\n      0xffffffffffffffff\n        /* \"#utility.yul\":1224:1230   */\n      dup2\n        /* \"#utility.yul\":1221:1251   */\n      gt\n        /* \"#utility.yul\":1218:1335   */\n      iszero\n      tag_81\n      jumpi\n        /* \"#utility.yul\":1254:1333   */\n      tag_82\n      tag_83\n      jump\t// in\n    tag_82:\n        /* \"#utility.yul\":1218:1335   */\n    tag_81:\n        /* \"#utility.yul\":1359:1422   */\n      tag_84\n        /* \"#utility.yul\":1414:1421   */\n      dup5\n        /* \"#utility.yul\":1405:1411   */\n      dup3\n        /* \"#utility.yul\":1394:1403   */\n      dup6\n        /* \"#utility.yul\":1390:1412   */\n      add\n        /* \"#utility.yul\":1359:1422   */\n      tag_67\n      jump\t// in\n    tag_84:\n        /* \"#utility.yul\":1349:1422   */\n      swap2\n      pop\n        /* \"#utility.yul\":1145:1432   */\n      pop\n        /* \"#utility.yul\":930:1439   */\n      swap3\n      swap2\n      pop\n      pop\n      jump\t// out\n        /* \"#utility.yul\":1445:2279   */\n    tag_8:\n        /* \"#utility.yul\":1533:1539   */\n      0x00\n        /* \"#utility.yul\":1541:1547   */\n      dup1\n        /* \"#utility.yul\":1590:1592   */\n      0x40\n        /* \"#utility.yul\":1578:1587   */\n      dup4\n        /* \"#utility.yul\":1569:1576   */\n      dup6\n        /* \"#utility.yul\":1565:1588   */\n      sub\n        /* \"#utility.yul\":1561:1593   */\n      slt\n        /* \"#utility.yul\":1558:1677   */\n      iszero\n      tag_86\n      jumpi\n        /* \"#utility.yul\":1596:1675   */\n      tag_87\n      tag_80\n      jump\t// in\n    tag_87:\n        /* \"#utility.yul\":1558:1677   */\n    tag_86:\n        /* \"#utility.yul\":1744:1745   */\n      0x00\n        /* \"#utility.yul\":1733:1742   */\n      dup4\n        /* \"#utility.yul\":1729:1746   */\n      add\n        /* \"#utility.yul\":1716:1747   */\n      calldataload\n        /* \"#utility.yul\":1774:1792   */\n      0xffffffffffffffff\n        /* \"#utility.yul\":1766:1772   */\n      dup2\n        /* \"#utility.yul\":1763:1793   */\n      gt\n        /* \"#utility.yul\":1760:1877   */\n      iszero\n      tag_88\n      jumpi\n        /* \"#utility.yul\":1796:1875   */\n      tag_89\n      tag_83\n      jump\t// in\n    tag_89:\n        /* \"#utility.yul\":1760:1877   */\n    tag_88:\n        /* \"#utility.yul\":1901:1964   */\n      tag_90\n        /* \"#utility.yul\":1956:1963   */\n      dup6\n        /* \"#utility.yul\":1947:1953   */\n      dup3\n        /* \"#utility.yul\":1936:1945   */\n      dup7\n        /* \"#utility.yul\":1932:1954   */\n      add\n        /* \"#utility.yul\":1901:1964   */\n      tag_67\n      jump\t// in\n    tag_90:\n        /* \"#utility.yul\":1891:1964   */\n      swap3\n      pop\n        /* \"#utility.yul\":1687:1974   */\n      pop\n        /* \"#utility.yul\":2041:2043   */\n      0x20\n        /* \"#utility.yul\":2030:2039   */\n      dup4\n        /* \"#utility.yul\":2026:2044   */\n      add\n        /* \"#utility.yul\":2013:2045   */\n      calldataload\n        /* \"#utility.yul\":2072:2090   */\n      0xffffffffffffffff\n        /* \"#utility.yul\":2064:2070   */\n      dup2\n        /* \"#utility.yul\":2061:2091   */\n      gt\n        /* \"#utility.yul\":2058:2175   */\n      iszero\n      tag_91\n      jumpi\n        /* \"#utility.yul\":2094:2173   */\n      tag_92\n      tag_83\n      jump\t// in\n    tag_92:\n        /* \"#utility.yul\":2058:2175   */\n    tag_91:\n        /* \"#utility.yul\":2199:2262   */\n      tag_93\n        /* \"#utility.yul\":2254:2261   */\n      dup6\n        /* \"#utility.yul\":2245:2251   */\n      dup3\n        /* \"#utility.yul\":2234:2243   */\n      dup7\n        /* \"#utility.yul\":2230:2252   */\n      add\n        /* \"#utility.yul\":2199:2262   */\n      tag_67\n      jump\t// in\n    tag_93:\n        /* \"#utility.yul\":2189:2262   */\n      swap2\n      pop\n        /* \"#utility.yul\":1984:2272   */\n      pop\n        /* \"#utility.yul\":1445:2279   */\n      swap3\n      pop\n      swap3\n      swap1\n      pop\n      jump\t// out\n        /* \"#utility.yul\":2285:2614   */\n    tag_19:\n        /* \"#utility.yul\":2344:2350   */\n      0x00\n        /* \"#utility.yul\":2393:2395   */\n      0x20\n        /* \"#utility.yul\":2381:2390   */\n      dup3\n        /* \"#utility.yul\":2372:2379   */\n      dup5\n        /* \"#utility.yul\":2368:2391   */\n      sub\n        /* \"#utility.yul\":2364:2396   */\n      slt\n        /* \"#utility.yul\":2361:2480   */\n      iszero\n      tag_95\n      jumpi\n        /* \"#utility.yul\":2399:2478   */\n      tag_96\n      tag_80\n      jump\t// in\n    tag_96:\n        /* \"#utility.yul\":2361:2480   */\n    tag_95:\n        /* \"#utility.yul\":2519:2520   */\n      0x00\n        /* \"#utility.yul\":2544:2597   */\n      tag_97\n        /* \"#utility.yul\":2589:2596   */\n      dup5\n        /* \"#utility.yul\":2580:2586   */\n      dup3\n        /* \"#utility.yul\":2569:2578   */\n      dup6\n        /* \"#utility.yul\":2565:2587   */\n      add\n        /* \"#utility.yul\":2544:2597   */\n      tag_73\n      jump\t// in\n    tag_97:\n        /* \"#utility.yul\":2534:2597   */\n      swap2\n      pop\n        /* \"#utility.yul\":2490:2607   */\n      pop\n        /* \"#utility.yul\":2285:2614   */\n      swap3\n      swap2\n      pop\n      pop\n      jump\t// out\n        /* \"#utility.yul\":2620:2729   */\n    tag_98:\n        /* \"#utility.yul\":2701:2722   */\n      tag_100\n        /* \"#utility.yul\":2716:2721   */\n      dup2\n        /* \"#utility.yul\":2701:2722   */\n      tag_101\n      jump\t// in\n    tag_100:\n        /* \"#utility.yul\":2696:2699   */\n      dup3\n        /* \"#utility.yul\":2689:2723   */\n      mstore\n        /* \"#utility.yul\":2620:2729   */\n      pop\n      pop\n      jump\t// out\n        /* \"#utility.yul\":2735:3099   */\n    tag_102:\n        /* \"#utility.yul\":2823:2826   */\n      0x00\n        /* \"#utility.yul\":2851:2890   */\n      tag_104\n        /* \"#utility.yul\":2884:2889   */\n      dup3\n        /* \"#utility.yul\":2851:2890   */\n      tag_105\n      jump\t// in\n    tag_104:\n        /* \"#utility.yul\":2906:2977   */\n      tag_106\n        /* \"#utility.yul\":2970:2976   */\n      dup2\n        /* \"#utility.yul\":2965:2968   */\n      dup6\n        /* \"#utility.yul\":2906:2977   */\n      tag_107\n      jump\t// in\n    tag_106:\n        /* \"#utility.yul\":2899:2977   */\n      swap4\n      pop\n        /* \"#utility.yul\":2986:3038   */\n      tag_108\n        /* \"#utility.yul\":3031:3037   */\n      dup2\n        /* \"#utility.yul\":3026:3029   */\n      dup6\n        /* \"#utility.yul\":3019:3023   */\n      0x20\n        /* \"#utility.yul\":3012:3017   */\n      dup7\n        /* \"#utility.yul\":3008:3024   */\n      add\n        /* \"#utility.yul\":2986:3038   */\n      tag_109\n      jump\t// in\n    tag_108:\n        /* \"#utility.yul\":3063:3092   */\n      tag_110\n        /* \"#utility.yul\":3085:3091   */\n      dup2\n        /* \"#utility.yul\":3063:3092   */\n      tag_111\n      jump\t// in\n    tag_110:\n        /* \"#utility.yul\":3058:3061   */\n      dup5\n        /* \"#utility.yul\":3054:3093   */\n      add\n        /* \"#utility.yul\":3047:3093   */\n      swap2\n      pop\n        /* \"#utility.yul\":2827:3099   */\n      pop\n        /* \"#utility.yul\":2735:3099   */\n      swap3\n      swap2\n      pop\n      pop\n      jump\t// out\n        /* \"#utility.yul\":3105:3471   */\n    tag_112:\n        /* \"#utility.yul\":3247:3250   */\n      0x00\n        /* \"#utility.yul\":3268:3335   */\n      tag_114\n        /* \"#utility.yul\":3332:3334   */\n      0x10\n        /* \"#utility.yul\":3327:3330   */\n      dup4\n        /* \"#utility.yul\":3268:3335   */\n      tag_107\n      jump\t// in\n    tag_114:\n        /* \"#utility.yul\":3261:3335   */\n      swap2\n      pop\n        /* \"#utility.yul\":3344:3437   */\n      tag_115\n        /* \"#utility.yul\":3433:3436   */\n      dup3\n        /* \"#utility.yul\":3344:3437   */\n      tag_116\n      jump\t// in\n    tag_115:\n        /* \"#utility.yul\":3462:3464   */\n      0x20\n        /* \"#utility.yul\":3457:3460   */\n      dup3\n        /* \"#utility.yul\":3453:3465   */\n      add\n        /* \"#utility.yul\":3446:3465   */\n      swap1\n      pop\n        /* \"#utility.yul\":3105:3471   */\n      swap2\n      swap1\n      pop\n      jump\t// out\n        /* \"#utility.yul\":3477:3790   */\n    tag_11:\n        /* \"#utility.yul\":3590:3594   */\n      0x00\n        /* \"#utility.yul\":3628:3630   */\n      0x20\n        /* \"#utility.yul\":3617:3626   */\n      dup3\n        /* \"#utility.yul\":3613:3631   */\n      add\n        /* \"#utility.yul\":3605:3631   */\n      swap1\n      pop\n        /* \"#utility.yul\":3677:3686   */\n      dup2\n        /* \"#utility.yul\":3671:3675   */\n      dup2\n        /* \"#utility.yul\":3667:3687   */\n      sub\n        /* \"#utility.yul\":3663:3664   */\n      0x00\n        /* \"#utility.yul\":3652:3661   */\n      dup4\n        /* \"#utility.yul\":3648:3665   */\n      add\n        /* \"#utility.yul\":3641:3688   */\n      mstore\n        /* \"#utility.yul\":3705:3783   */\n      tag_118\n        /* \"#utility.yul\":3778:3782   */\n      dup2\n        /* \"#utility.yul\":3769:3775   */\n      dup5\n        /* \"#utility.yul\":3705:3783   */\n      tag_102\n      jump\t// in\n    tag_118:\n        /* \"#utility.yul\":3697:3783   */\n      swap1\n      pop\n        /* \"#utility.yul\":3477:3790   */\n      swap3\n      swap2\n      pop\n      pop\n      jump\t// out\n        /* \"#utility.yul\":3796:4408   */\n    tag_22:\n        /* \"#utility.yul\":3979:3983   */\n      0x00\n        /* \"#utility.yul\":4017:4019   */\n      0x60\n        /* \"#utility.yul\":4006:4015   */\n      dup3\n        /* \"#utility.yul\":4002:4020   */\n      add\n        /* \"#utility.yul\":3994:4020   */\n      swap1\n      pop\n        /* \"#utility.yul\":4066:4075   */\n      dup2\n        /* \"#utility.yul\":4060:4064   */\n      dup2\n        /* \"#utility.yul\":4056:4076   */\n      sub\n        /* \"#utility.yul\":4052:4053   */\n      0x00\n        /* \"#utility.yul\":4041:4050   */\n      dup4\n        /* \"#utility.yul\":4037:4054   */\n      add\n        /* \"#utility.yul\":4030:4077   */\n      mstore\n        /* \"#utility.yul\":4094:4172   */\n      tag_120\n        /* \"#utility.yul\":4167:4171   */\n      dup2\n        /* \"#utility.yul\":4158:4164   */\n      dup7\n        /* \"#utility.yul\":4094:4172   */\n      tag_102\n      jump\t// in\n    tag_120:\n        /* \"#utility.yul\":4086:4172   */\n      swap1\n      pop\n        /* \"#utility.yul\":4219:4228   */\n      dup2\n        /* \"#utility.yul\":4213:4217   */\n      dup2\n        /* \"#utility.yul\":4209:4229   */\n      sub\n        /* \"#utility.yul\":4204:4206   */\n      0x20\n        /* \"#utility.yul\":4193:4202   */\n      dup4\n        /* \"#utility.yul\":4189:4207   */\n      add\n        /* \"#utility.yul\":4182:4230   */\n      mstore\n        /* \"#utility.yul\":4247:4325   */\n      tag_121\n        /* \"#utility.yul\":4320:4324   */\n      dup2\n        /* \"#utility.yul\":4311:4317   */\n      dup6\n        /* \"#utility.yul\":4247:4325   */\n      tag_102\n      jump\t// in\n    tag_121:\n        /* \"#utility.yul\":4239:4325   */\n      swap1\n      pop\n        /* \"#utility.yul\":4335:4401   */\n      tag_122\n        /* \"#utility.yul\":4397:4399   */\n      0x40\n        /* \"#utility.yul\":4386:4395   */\n      dup4\n        /* \"#utility.yul\":4382:4400   */\n      add\n        /* \"#utility.yul\":4373:4379   */\n      dup5\n        /* \"#utility.yul\":4335:4401   */\n      tag_98\n      jump\t// in\n    tag_122:\n        /* \"#utility.yul\":3796:4408   */\n      swap5\n      swap4\n      pop\n      pop\n      pop\n      pop\n      jump\t// out\n        /* \"#utility.yul\":4414:4833   */\n    tag_32:\n        /* \"#utility.yul\":4580:4584   */\n      0x00\n        /* \"#utility.yul\":4618:4620   */\n      0x20\n        /* \"#utility.yul\":4607:4616   */\n      dup3\n        /* \"#utility.yul\":4603:4621   */\n      add\n        /* \"#utility.yul\":4595:4621   */\n      swap1\n      pop\n        /* \"#utility.yul\":4667:4676   */\n      dup2\n        /* \"#utility.yul\":4661:4665   */\n      dup2\n        /* \"#utility.yul\":4657:4677   */\n      sub\n        /* \"#utility.yul\":4653:4654   */\n      0x00\n        /* \"#utility.yul\":4642:4651   */\n      dup4\n        /* \"#utility.yul\":4638:4655   */\n      add\n        /* \"#utility.yul\":4631:4678   */\n      mstore\n        /* \"#utility.yul\":4695:4826   */\n      tag_124\n        /* \"#utility.yul\":4821:4825   */\n      dup2\n        /* \"#utility.yul\":4695:4826   */\n      tag_112\n      jump\t// in\n    tag_124:\n        /* \"#utility.yul\":4687:4826   */\n      swap1\n      pop\n        /* \"#utility.yul\":4414:4833   */\n      swap2\n      swap1\n      pop\n      jump\t// out\n        /* \"#utility.yul\":4839:4968   */\n    tag_61:\n        /* \"#utility.yul\":4873:4879   */\n      0x00\n        /* \"#utility.yul\":4900:4920   */\n      tag_126\n      tag_127\n      jump\t// in\n    tag_126:\n        /* \"#utility.yul\":4890:4920   */\n      swap1\n      pop\n        /* \"#utility.yul\":4929:4962   */\n      tag_128\n        /* \"#utility.yul\":4957:4961   */\n      dup3\n        /* \"#utility.yul\":4949:4955   */\n      dup3\n        /* \"#utility.yul\":4929:4962   */\n      tag_129\n      jump\t// in\n    tag_128:\n        /* \"#utility.yul\":4839:4968   */\n      swap2\n      swap1\n      pop\n      jump\t// out\n        /* \"#utility.yul\":4974:5049   */\n    tag_127:\n        /* \"#utility.yul\":5007:5013   */\n      0x00\n        /* \"#utility.yul\":5040:5042   */\n      0x40\n        /* \"#utility.yul\":5034:5043   */\n      mload\n        /* \"#utility.yul\":5024:5043   */\n      swap1\n      pop\n        /* \"#utility.yul\":4974:5049   */\n      swap1\n      jump\t// out\n        /* \"#utility.yul\":5055:5363   */\n    tag_60:\n        /* \"#utility.yul\":5117:5121   */\n      0x00\n        /* \"#utility.yul\":5207:5225   */\n      0xffffffffffffffff\n        /* \"#utility.yul\":5199:5205   */\n      dup3\n        /* \"#utility.yul\":5196:5226   */\n      gt\n        /* \"#utility.yul\":5193:5249   */\n      iszero\n      tag_132\n      jumpi\n        /* \"#utility.yul\":5229:5247   */\n      tag_133\n      tag_134\n      jump\t// in\n    tag_133:\n        /* \"#utility.yul\":5193:5249   */\n    tag_132:\n        /* \"#utility.yul\":5267:5296   */\n      tag_135\n        /* \"#utility.yul\":5289:5295   */\n      dup3\n        /* \"#utility.yul\":5267:5296   */\n      tag_111\n      jump\t// in\n    tag_135:\n        /* \"#utility.yul\":5259:5296   */\n      swap1\n      pop\n        /* \"#utility.yul\":5351:5355   */\n      0x20\n        /* \"#utility.yul\":5345:5349   */\n      dup2\n        /* \"#utility.yul\":5341:5356   */\n      add\n        /* \"#utility.yul\":5333:5356   */\n      swap1\n      pop\n        /* \"#utility.yul\":5055:5363   */\n      swap2\n      swap1\n      pop\n      jump\t// out\n        /* \"#utility.yul\":5369:5468   */\n    tag_105:\n        /* \"#utility.yul\":5421:5427   */\n      0x00\n        /* \"#utility.yul\":5455:5460   */\n      dup2\n        /* \"#utility.yul\":5449:5461   */\n      mload\n        /* \"#utility.yul\":5439:5461   */\n      swap1\n      pop\n        /* \"#utility.yul\":5369:5468   */\n      swap2\n      swap1\n      pop\n      jump\t// out\n        /* \"#utility.yul\":5474:5643   */\n    tag_107:\n        /* \"#utility.yul\":5558:5569   */\n      0x00\n        /* \"#utility.yul\":5592:5598   */\n      dup3\n        /* \"#utility.yul\":5587:5590   */\n      dup3\n        /* \"#utility.yul\":5580:5599   */\n      mstore\n        /* \"#utility.yul\":5632:5636   */\n      0x20\n        /* \"#utility.yul\":5627:5630   */\n      dup3\n        /* \"#utility.yul\":5623:5637   */\n      add\n        /* \"#utility.yul\":5608:5637   */\n      swap1\n      pop\n        /* \"#utility.yul\":5474:5643   */\n      swap3\n      swap2\n      pop\n      pop\n      jump\t// out\n        /* \"#utility.yul\":5649:5739   */\n    tag_101:\n        /* \"#utility.yul\":5683:5690   */\n      0x00\n        /* \"#utility.yul\":5726:5731   */\n      dup2\n        /* \"#utility.yul\":5719:5732   */\n      iszero\n        /* \"#utility.yul\":5712:5733   */\n      iszero\n        /* \"#utility.yul\":5701:5733   */\n      swap1\n      pop\n        /* \"#utility.yul\":5649:5739   */\n      swap2\n      swap1\n      pop\n      jump\t// out\n        /* \"#utility.yul\":5745:5822   */\n    tag_139:\n        /* \"#utility.yul\":5782:5789   */\n      0x00\n        /* \"#utility.yul\":5811:5816   */\n      dup2\n        /* \"#utility.yul\":5800:5816   */\n      swap1\n      pop\n        /* \"#utility.yul\":5745:5822   */\n      swap2\n      swap1\n      pop\n      jump\t// out\n        /* \"#utility.yul\":5828:5982   */\n    tag_66:\n        /* \"#utility.yul\":5912:5918   */\n      dup3\n        /* \"#utility.yul\":5907:5910   */\n      dup2\n        /* \"#utility.yul\":5902:5905   */\n      dup4\n        /* \"#utility.yul\":5889:5919   */\n      calldatacopy\n        /* \"#utility.yul\":5974:5975   */\n      0x00\n        /* \"#utility.yul\":5965:5971   */\n      dup4\n        /* \"#utility.yul\":5960:5963   */\n      dup4\n        /* \"#utility.yul\":5956:5972   */\n      add\n        /* \"#utility.yul\":5949:5976   */\n      mstore\n        /* \"#utility.yul\":5828:5982   */\n      pop\n      pop\n      pop\n      jump\t// out\n        /* \"#utility.yul\":5988:6295   */\n    tag_109:\n        /* \"#utility.yul\":6056:6057   */\n      0x00\n        /* \"#utility.yul\":6066:6179   */\n    tag_143:\n        /* \"#utility.yul\":6080:6086   */\n      dup4\n        /* \"#utility.yul\":6077:6078   */\n      dup2\n        /* \"#utility.yul\":6074:6087   */\n      lt\n        /* \"#utility.yul\":6066:6179   */\n      iszero\n      tag_145\n      jumpi\n        /* \"#utility.yul\":6165:6166   */\n      dup1\n        /* \"#utility.yul\":6160:6163   */\n      dup3\n        /* \"#utility.yul\":6156:6167   */\n      add\n        /* \"#utility.yul\":6150:6168   */\n      mload\n        /* \"#utility.yul\":6146:6147   */\n      dup2\n        /* \"#utility.yul\":6141:6144   */\n      dup5\n        /* \"#utility.yul\":6137:6148   */\n      add\n        /* \"#utility.yul\":6130:6169   */\n      mstore\n        /* \"#utility.yul\":6102:6104   */\n      0x20\n        /* \"#utility.yul\":6099:6100   */\n      dup2\n        /* \"#utility.yul\":6095:6105   */\n      add\n        /* \"#utility.yul\":6090:6105   */\n      swap1\n      pop\n        /* \"#utility.yul\":6066:6179   */\n      jump(tag_143)\n    tag_145:\n        /* \"#utility.yul\":6197:6203   */\n      dup4\n        /* \"#utility.yul\":6194:6195   */\n      dup2\n        /* \"#utility.yul\":6191:6204   */\n      gt\n        /* \"#utility.yul\":6188:6289   */\n      iszero\n      tag_146\n      jumpi\n        /* \"#utility.yul\":6277:6278   */\n      0x00\n        /* \"#utility.yul\":6268:6274   */\n      dup5\n        /* \"#utility.yul\":6263:6266   */\n      dup5\n        /* \"#utility.yul\":6259:6275   */\n      add\n        /* \"#utility.yul\":6252:6279   */\n      mstore\n        /* \"#utility.yul\":6188:6289   */\n    tag_146:\n        /* \"#utility.yul\":6037:6295   */\n      pop\n        /* \"#utility.yul\":5988:6295   */\n      pop\n      pop\n      pop\n      jump\t// out\n        /* \"#utility.yul\":6301:6621   */\n    tag_35:\n        /* \"#utility.yul\":6345:6351   */\n      0x00\n        /* \"#utility.yul\":6382:6383   */\n      0x02\n        /* \"#utility.yul\":6376:6380   */\n      dup3\n        /* \"#utility.yul\":6372:6384   */\n      div\n        /* \"#utility.yul\":6362:6384   */\n      swap1\n      pop\n        /* \"#utility.yul\":6429:6430   */\n      0x01\n        /* \"#utility.yul\":6423:6427   */\n      dup3\n        /* \"#utility.yul\":6419:6431   */\n      and\n        /* \"#utility.yul\":6450:6468   */\n      dup1\n        /* \"#utility.yul\":6440:6521   */\n      tag_148\n      jumpi\n        /* \"#utility.yul\":6506:6510   */\n      0x7f\n        /* \"#utility.yul\":6498:6504   */\n      dup3\n        /* \"#utility.yul\":6494:6511   */\n      and\n        /* \"#utility.yul\":6484:6511   */\n      swap2\n      pop\n        /* \"#utility.yul\":6440:6521   */\n    tag_148:\n        /* \"#utility.yul\":6568:6570   */\n      0x20\n        /* \"#utility.yul\":6560:6566   */\n      dup3\n        /* \"#utility.yul\":6557:6571   */\n      lt\n        /* \"#utility.yul\":6537:6555   */\n      dup2\n        /* \"#utility.yul\":6534:6572   */\n      eq\n        /* \"#utility.yul\":6531:6615   */\n      iszero\n      tag_149\n      jumpi\n        /* \"#utility.yul\":6587:6605   */\n      tag_150\n      tag_151\n      jump\t// in\n    tag_150:\n        /* \"#utility.yul\":6531:6615   */\n    tag_149:\n        /* \"#utility.yul\":6352:6621   */\n      pop\n        /* \"#utility.yul\":6301:6621   */\n      swap2\n      swap1\n      pop\n      jump\t// out\n        /* \"#utility.yul\":6627:6908   */\n    tag_129:\n        /* \"#utility.yul\":6710:6737   */\n      tag_153\n        /* \"#utility.yul\":6732:6736   */\n      dup3\n        /* \"#utility.yul\":6710:6737   */\n      tag_111\n      jump\t// in\n    tag_153:\n        /* \"#utility.yul\":6702:6708   */\n      dup2\n        /* \"#utility.yul\":6698:6738   */\n      add\n        /* \"#utility.yul\":6840:6846   */\n      dup2\n        /* \"#utility.yul\":6828:6838   */\n      dup2\n        /* \"#utility.yul\":6825:6847   */\n      lt\n        /* \"#utility.yul\":6804:6822   */\n      0xffffffffffffffff\n        /* \"#utility.yul\":6792:6802   */\n      dup3\n        /* \"#utility.yul\":6789:6823   */\n      gt\n        /* \"#utility.yul\":6786:6848   */\n      or\n        /* \"#utility.yul\":6783:6871   */\n      iszero\n      tag_154\n      jumpi\n        /* \"#utility.yul\":6851:6869   */\n      tag_155\n      tag_134\n      jump\t// in\n    tag_155:\n        /* \"#utility.yul\":6783:6871   */\n    tag_154:\n        /* \"#utility.yul\":6891:6901   */\n      dup1\n        /* \"#utility.yul\":6887:6889   */\n      0x40\n        /* \"#utility.yul\":6880:6902   */\n      mstore\n        /* \"#utility.yul\":6670:6908   */\n      pop\n        /* \"#utility.yul\":6627:6908   */\n      pop\n      pop\n      jump\t// out\n        /* \"#utility.yul\":6914:7147   */\n    tag_25:\n        /* \"#utility.yul\":6953:6956   */\n      0x00\n        /* \"#utility.yul\":6976:7000   */\n      tag_157\n        /* \"#utility.yul\":6994:6999   */\n      dup3\n        /* \"#utility.yul\":6976:7000   */\n      tag_139\n      jump\t// in\n    tag_157:\n        /* \"#utility.yul\":6967:7000   */\n      swap2\n      pop\n        /* \"#utility.yul\":7022:7088   */\n      0xffffffffffffffffffffffffffffffffffffffffffffffffffffffffffffffff\n        /* \"#utility.yul\":7015:7020   */\n      dup3\n        /* \"#utility.yul\":7012:7089   */\n      eq\n        /* \"#utility.yul\":7009:7112   */\n      iszero\n      tag_158\n      jumpi\n        /* \"#utility.yul\":7092:7110   */\n      tag_159\n      tag_160\n      jump\t// in\n    tag_159:\n        /* \"#utility.yul\":7009:7112   */\n    tag_158:\n        /* \"#utility.yul\":7139:7140   */\n      0x01\n        /* \"#utility.yul\":7132:7137   */\n      dup3\n        /* \"#utility.yul\":7128:7141   */\n      add\n        /* \"#utility.yul\":7121:7141   */\n      swap1\n      pop\n        /* \"#utility.yul\":6914:7147   */\n      swap2\n      swap1\n      pop\n      jump\t// out\n        /* \"#utility.yul\":7153:7333   */\n    tag_160:\n        /* \"#utility.yul\":7201:7278   */\n      0x4e487b7100000000000000000000000000000000000000000000000000000000\n        /* \"#utility.yul\":7198:7199   */\n      0x00\n        /* \"#utility.yul\":7191:7279   */\n      mstore\n        /* \"#utility.yul\":7298:7302   */\n      0x11\n        /* \"#utility.yul\":7295:7296   */\n      0x04\n        /* \"#utility.yul\":7288:7303   */\n      mstore\n        /* \"#utility.yul\":7322:7326   */\n      0x24\n        /* \"#utility.yul\":7319:7320   */\n      0x00\n        /* \"#utility.yul\":7312:7327   */\n      revert\n        /* \"#utility.yul\":7339:7519   */\n    tag_151:\n        /* \"#utility.yul\":7387:7464   */\n      0x4e487b7100000000000000000000000000000000000000000000000000000000\n        /* \"#utility.yul\":7384:7385   */\n      0x00\n        /* \"#utility.yul\":7377:7465   */\n      mstore\n        /* \"#utility.yul\":7484:7488   */\n      0x22\n        /* \"#utility.yul\":7481:7482   */\n      0x04\n        /* \"#utility.yul\":7474:7489   */\n      mstore\n        /* \"#utility.yul\":7508:7512   */\n      0x24\n        /* \"#utility.yul\":7505:7506   */\n      0x00\n        /* \"#utility.yul\":7498:7513   */\n      revert\n        /* \"#utility.yul\":7525:7705   */\n    tag_134:\n        /* \"#utility.yul\":7573:7650   */\n      0x4e487b7100000000000000000000000000000000000000000000000000000000\n        /* \"#utility.yul\":7570:7571   */\n      0x00\n        /* \"#utility.yul\":7563:7651   */\n      mstore\n        /* \"#utility.yul\":7670:7674   */\n      0x41\n        /* \"#utility.yul\":7667:7668   */\n      0x04\n        /* \"#utility.yul\":7660:7675   */\n      mstore\n        /* \"#utility.yul\":7694:7698   */\n      0x24\n        /* \"#utility.yul\":7691:7692   */\n      0x00\n        /* \"#utility.yul\":7684:7699   */\n      revert\n        /* \"#utility.yul\":7711:7828   */\n    tag_71:\n        /* \"#utility.yul\":7820:7821   */\n      0x00\n        /* \"#utility.yul\":7817:7818   */\n      dup1\n        /* \"#utility.yul\":7810:7822   */\n      revert\n        /* \"#utility.yul\":7834:7951   */\n    tag_64:\n        /* \"#utility.yul\":7943:7944   */\n      0x00\n        /* \"#utility.yul\":7940:7941   */\n      dup1\n        /* \"#utility.yul\":7933:7945   */\n      revert\n        /* \"#utility.yul\":7957:8074   */\n    tag_83:\n        /* \"#utility.yul\":8066:8067   */\n      0x00\n        /* \"#utility.yul\":8063:8064   */\n      dup1\n        /* \"#utility.yul\":8056:8068   */\n      revert\n        /* \"#utility.yul\":8080:8197   */\n    tag_80:\n        /* \"#utility.yul\":8189:8190   */\n      0x00\n        /* \"#utility.yul\":8186:8187   */\n      dup1\n        /* \"#utility.yul\":8179:8191   */\n      revert\n        /* \"#utility.yul\":8203:8305   */\n    tag_111:\n        /* \"#utility.yul\":8244:8250   */\n      0x00\n        /* \"#utility.yul\":8295:8297   */\n      0x1f\n        /* \"#utility.yul\":8291:8298   */\n      not\n        /* \"#utility.yul\":8286:8288   */\n      0x1f\n        /* \"#utility.yul\":8279:8284   */\n      dup4\n        /* \"#utility.yul\":8275:8289   */\n      add\n        /* \"#utility.yul\":8271:8299   */\n      and\n        /* \"#utility.yul\":8261:8299   */\n      swap1\n      pop\n        /* \"#utility.yul\":8203:8305   */\n      swap2\n      swap1\n      pop\n      jump\t// out\n        /* \"#utility.yul\":8311:8477   */\n    tag_116:\n        /* \"#utility.yul\":8451:8469   */\n      0x4163636573732069732044656e69656400000000000000000000000000000000\n        /* \"#utility.yul\":8447:8448   */\n      0x00\n        /* \"#utility.yul\":8439:8445   */\n      dup3\n        /* \"#utility.yul\":8435:8449   */\n      add\n        /* \"#utility.yul\":8428:8470   */\n      mstore\n        /* \"#utility.yul\":8311:8477   */\n      pop\n      jump\t// out\n        /* \"#utility.yul\":8483:8605   */\n    tag_76:\n        /* \"#utility.yul\":8556:8580   */\n      tag_171\n        /* \"#utility.yul\":8574:8579   */\n      dup2\n        /* \"#utility.yul\":8556:8580   */\n      tag_139\n      jump\t// in\n    tag_171:\n        /* \"#utility.yul\":8549:8554   */\n      dup2\n        /* \"#utility.yul\":8546:8581   */\n      eq\n        /* \"#utility.yul\":8536:8599   */\n      tag_172\n      jumpi\n        /* \"#utility.yul\":8595:8596   */\n      0x00\n        /* \"#utility.yul\":8592:8593   */\n      dup1\n        /* \"#utility.yul\":8585:8597   */\n      revert\n        /* \"#utility.yul\":8536:8599   */\n    tag_172:\n        /* \"#utility.yul\":8483:8605   */\n      pop\n      jump\t// out\n    stop\n    data_346ae9e229890c1b5467b3280ac50efb3a563831aa4e9bb9392fe53f7d7de7e2 596f752077696c6c20626520616464656420746f2063616e646964617465206c697374206f6e636520796f75206172652076616c696461746564206279207468652061646d696e\n\n    auxdata: 0xa264697066735822122039aaf1fe753f93277ea48d133f6a83280d64aabaf60be5f440b113c5abe1f20764736f6c63430008070033\n}\n",
				"bytecode": {
					"linkReferences": {},
					"object": "608060405234801561001057600080fd5b5033600360006101000a81548173ffffffffffffffffffffffffffffffffffffffff021916908373ffffffffffffffffffffffffffffffffffffffff160217905550610970806100616000396000f3fe608060405234801561001057600080fd5b50600436106100415760003560e01c806317678bc314610046578063538c91b214610076578063b0d18814146100a6575b600080fd5b610060600480360381019061005b91906104f4565b6100d8565b60405161006d9190610604565b60405180910390f35b610090600480360381019061008b91906104ab565b6101a5565b60405161009d9190610604565b60405180910390f35b6100c060048036038101906100bb919061056c565b61023c565b6040516100cf93929190610626565b60405180910390f35b60606000600160008154809291906100ef906107b8565b919050559050604051806060016040528085815260200184815260200160001515815250600460008381526020019081526020016000206000820151816000019080519060200190610142929190610383565b50602082015181600101908051906020019061015f929190610383565b5060408201518160020160006101000a81548160ff0219169083151502179055509050506040518060800160405280604781526020016108f46047913991505092915050565b6060600360009054906101000a900473ffffffffffffffffffffffffffffffffffffffff1673ffffffffffffffffffffffffffffffffffffffff163373ffffffffffffffffffffffffffffffffffffffff1614610237576040517f08c379a000000000000000000000000000000000000000000000000000000000815260040161022e9061066b565b60405180910390fd5b919050565b600560205280600052604060002060009150905080600001805461025f90610755565b80601f016020809104026020016040519081016040528092919081815260200182805461028b90610755565b80156102d85780601f106102ad576101008083540402835291602001916102d8565b820191906000526020600020905b8154815290600101906020018083116102bb57829003601f168201915b5050505050908060010180546102ed90610755565b80601f016020809104026020016040519081016040528092919081815260200182805461031990610755565b80156103665780601f1061033b57610100808354040283529160200191610366565b820191906000526020600020905b81548152906001019060200180831161034957829003601f168201915b5050505050908060020160009054906101000a900460ff16905083565b82805461038f90610755565b90600052602060002090601f0160209004810192826103b157600085556103f8565b82601f106103ca57805160ff19168380011785556103f8565b828001600101855582156103f8579182015b828111156103f75782518255916020019190600101906103dc565b5b5090506104059190610409565b5090565b5b8082111561042257600081600090555060010161040a565b5090565b6000610439610434846106b0565b61068b565b90508281526020810184848401111561045557610454610893565b5b610460848285610713565b509392505050565b600082601f83011261047d5761047c61088e565b5b813561048d848260208601610426565b91505092915050565b6000813590506104a5816108dc565b92915050565b6000602082840312156104c1576104c061089d565b5b600082013567ffffffffffffffff8111156104df576104de610898565b5b6104eb84828501610468565b91505092915050565b6000806040838503121561050b5761050a61089d565b5b600083013567ffffffffffffffff81111561052957610528610898565b5b61053585828601610468565b925050602083013567ffffffffffffffff81111561055657610555610898565b5b61056285828601610468565b9150509250929050565b6000602082840312156105825761058161089d565b5b600061059084828501610496565b91505092915050565b6105a2816106fd565b82525050565b60006105b3826106e1565b6105bd81856106ec565b93506105cd818560208601610722565b6105d6816108a2565b840191505092915050565b60006105ee6010836106ec565b91506105f9826108b3565b602082019050919050565b6000602082019050818103600083015261061e81846105a8565b905092915050565b6000606082019050818103600083015261064081866105a8565b9050818103602083015261065481856105a8565b90506106636040830184610599565b949350505050565b60006020820190508181036000830152610684816105e1565b9050919050565b60006106956106a6565b90506106a18282610787565b919050565b6000604051905090565b600067ffffffffffffffff8211156106cb576106ca61085f565b5b6106d4826108a2565b9050602081019050919050565b600081519050919050565b600082825260208201905092915050565b60008115159050919050565b6000819050919050565b82818337600083830152505050565b60005b83811015610740578082015181840152602081019050610725565b8381111561074f576000848401525b50505050565b6000600282049050600182168061076d57607f821691505b6020821081141561078157610780610830565b5b50919050565b610790826108a2565b810181811067ffffffffffffffff821117156107af576107ae61085f565b5b80604052505050565b60006107c382610709565b91507fffffffffffffffffffffffffffffffffffffffffffffffffffffffffffffffff8214156107f6576107f5610801565b5b600182019050919050565b7f4e487b7100000000000000000000000000000000000000000000000000000000600052601160045260246000fd5b7f4e487b7100000000000000000000000000000000000000000000000000000000600052602260045260246000fd5b7f4e487b7100000000000000000000000000000000000000000000000000000000600052604160045260246000fd5b600080fd5b600080fd5b600080fd5b600080fd5b6000601f19601f8301169050919050565b7f4163636573732069732044656e69656400000000000000000000000000000000600082015250565b6108e581610709565b81146108f057600080fd5b5056fe596f752077696c6c20626520616464656420746f2063616e646964617465206c697374206f6e636520796f75206172652076616c696461746564206279207468652061646d696ea264697066735822122039aaf1fe753f93277ea48d133f6a83280d64aabaf60be5f440b113c5abe1f20764736f6c63430008070033",
					"opcodes": "PUSH1 0x80 PUSH1 0x40 MSTORE CALLVALUE DUP1 ISZERO PUSH2 0x10 JUMPI PUSH1 0x0 DUP1 REVERT JUMPDEST POP CALLER PUSH1 0x3 PUSH1 0x0 PUSH2 0x100 EXP DUP2 SLOAD DUP2 PUSH20 0xFFFFFFFFFFFFFFFFFFFFFFFFFFFFFFFFFFFFFFFF MUL NOT AND SWAP1 DUP4 PUSH20 0xFFFFFFFFFFFFFFFFFFFFFFFFFFFFFFFFFFFFFFFF AND MUL OR SWAP1 SSTORE POP PUSH2 0x970 DUP1 PUSH2 0x61 PUSH1 0x0 CODECOPY PUSH1 0x0 RETURN INVALID PUSH1 0x80 PUSH1 0x40 MSTORE CALLVALUE DUP1 ISZERO PUSH2 0x10 JUMPI PUSH1 0x0 DUP1 REVERT JUMPDEST POP PUSH1 0x4 CALLDATASIZE LT PUSH2 0x41 JUMPI PUSH1 0x0 CALLDATALOAD PUSH1 0xE0 SHR DUP1 PUSH4 0x17678BC3 EQ PUSH2 0x46 JUMPI DUP1 PUSH4 0x538C91B2 EQ PUSH2 0x76 JUMPI DUP1 PUSH4 0xB0D18814 EQ PUSH2 0xA6 JUMPI JUMPDEST PUSH1 0x0 DUP1 REVERT JUMPDEST PUSH2 0x60 PUSH1 0x4 DUP1 CALLDATASIZE SUB DUP2 ADD SWAP1 PUSH2 0x5B SWAP2 SWAP1 PUSH2 0x4F4 JUMP JUMPDEST PUSH2 0xD8 JUMP JUMPDEST PUSH1 0x40 MLOAD PUSH2 0x6D SWAP2 SWAP1 PUSH2 0x604 JUMP JUMPDEST PUSH1 0x40 MLOAD DUP1 SWAP2 SUB SWAP1 RETURN JUMPDEST PUSH2 0x90 PUSH1 0x4 DUP1 CALLDATASIZE SUB DUP2 ADD SWAP1 PUSH2 0x8B SWAP2 SWAP1 PUSH2 0x4AB JUMP JUMPDEST PUSH2 0x1A5 JUMP JUMPDEST PUSH1 0x40 MLOAD PUSH2 0x9D SWAP2 SWAP1 PUSH2 0x604 JUMP JUMPDEST PUSH1 0x40 MLOAD DUP1 SWAP2 SUB SWAP1 RETURN JUMPDEST PUSH2 0xC0 PUSH1 0x4 DUP1 CALLDATASIZE SUB DUP2 ADD SWAP1 PUSH2 0xBB SWAP2 SWAP1 PUSH2 0x56C JUMP JUMPDEST PUSH2 0x23C JUMP JUMPDEST PUSH1 0x40 MLOAD PUSH2 0xCF SWAP4 SWAP3 SWAP2 SWAP1 PUSH2 0x626 JUMP JUMPDEST PUSH1 0x40 MLOAD DUP1 SWAP2 SUB SWAP1 RETURN JUMPDEST PUSH1 0x60 PUSH1 0x0 PUSH1 0x1 PUSH1 0x0 DUP2 SLOAD DUP1 SWAP3 SWAP2 SWAP1 PUSH2 0xEF SWAP1 PUSH2 0x7B8 JUMP JUMPDEST SWAP2 SWAP1 POP SSTORE SWAP1 POP PUSH1 0x40 MLOAD DUP1 PUSH1 0x60 ADD PUSH1 0x40 MSTORE DUP1 DUP6 DUP2 MSTORE PUSH1 0x20 ADD DUP5 DUP2 MSTORE PUSH1 0x20 ADD PUSH1 0x0 ISZERO ISZERO DUP2 MSTORE POP PUSH1 0x4 PUSH1 0x0 DUP4 DUP2 MSTORE PUSH1 0x20 ADD SWAP1 DUP2 MSTORE PUSH1 0x20 ADD PUSH1 0x0 KECCAK256 PUSH1 0x0 DUP3 ADD MLOAD DUP2 PUSH1 0x0 ADD SWAP1 DUP1 MLOAD SWAP1 PUSH1 0x20 ADD SWAP1 PUSH2 0x142 SWAP3 SWAP2 SWAP1 PUSH2 0x383 JUMP JUMPDEST POP PUSH1 0x20 DUP3 ADD MLOAD DUP2 PUSH1 0x1 ADD SWAP1 DUP1 MLOAD SWAP1 PUSH1 0x20 ADD SWAP1 PUSH2 0x15F SWAP3 SWAP2 SWAP1 PUSH2 0x383 JUMP JUMPDEST POP PUSH1 0x40 DUP3 ADD MLOAD DUP2 PUSH1 0x2 ADD PUSH1 0x0 PUSH2 0x100 EXP DUP2 SLOAD DUP2 PUSH1 0xFF MUL NOT AND SWAP1 DUP4 ISZERO ISZERO MUL OR SWAP1 SSTORE POP SWAP1 POP POP PUSH1 0x40 MLOAD DUP1 PUSH1 0x80 ADD PUSH1 0x40 MSTORE DUP1 PUSH1 0x47 DUP2 MSTORE PUSH1 0x20 ADD PUSH2 0x8F4 PUSH1 0x47 SWAP2 CODECOPY SWAP2 POP POP SWAP3 SWAP2 POP POP JUMP JUMPDEST PUSH1 0x60 PUSH1 0x3 PUSH1 0x0 SWAP1 SLOAD SWAP1 PUSH2 0x100 EXP SWAP1 DIV PUSH20 0xFFFFFFFFFFFFFFFFFFFFFFFFFFFFFFFFFFFFFFFF AND PUSH20 0xFFFFFFFFFFFFFFFFFFFFFFFFFFFFFFFFFFFFFFFF AND CALLER PUSH20 0xFFFFFFFFFFFFFFFFFFFFFFFFFFFFFFFFFFFFFFFF AND EQ PUSH2 0x237 JUMPI PUSH1 0x40 MLOAD PUSH32 0x8C379A000000000000000000000000000000000000000000000000000000000 DUP2 MSTORE PUSH1 0x4 ADD PUSH2 0x22E SWAP1 PUSH2 0x66B JUMP JUMPDEST PUSH1 0x40 MLOAD DUP1 SWAP2 SUB SWAP1 REVERT JUMPDEST SWAP2 SWAP1 POP JUMP JUMPDEST PUSH1 0x5 PUSH1 0x20 MSTORE DUP1 PUSH1 0x0 MSTORE PUSH1 0x40 PUSH1 0x0 KECCAK256 PUSH1 0x0 SWAP2 POP SWAP1 POP DUP1 PUSH1 0x0 ADD DUP1 SLOAD PUSH2 0x25F SWAP1 PUSH2 0x755 JUMP JUMPDEST DUP1 PUSH1 0x1F ADD PUSH1 0x20 DUP1 SWAP2 DIV MUL PUSH1 0x20 ADD PUSH1 0x40 MLOAD SWAP1 DUP2 ADD PUSH1 0x40 MSTORE DUP1 SWAP3 SWAP2 SWAP1 DUP2 DUP2 MSTORE PUSH1 0x20 ADD DUP3 DUP1 SLOAD PUSH2 0x28B SWAP1 PUSH2 0x755 JUMP JUMPDEST DUP1 ISZERO PUSH2 0x2D8 JUMPI DUP1 PUSH1 0x1F LT PUSH2 0x2AD JUMPI PUSH2 0x100 DUP1 DUP4 SLOAD DIV MUL DUP4 MSTORE SWAP2 PUSH1 0x20 ADD SWAP2 PUSH2 0x2D8 JUMP JUMPDEST DUP3 ADD SWAP2 SWAP1 PUSH1 0x0 MSTORE PUSH1 0x20 PUSH1 0x0 KECCAK256 SWAP1 JUMPDEST DUP2 SLOAD DUP2 MSTORE SWAP1 PUSH1 0x1 ADD SWAP1 PUSH1 0x20 ADD DUP1 DUP4 GT PUSH2 0x2BB JUMPI DUP3 SWAP1 SUB PUSH1 0x1F AND DUP3 ADD SWAP2 JUMPDEST POP POP POP POP POP SWAP1 DUP1 PUSH1 0x1 ADD DUP1 SLOAD PUSH2 0x2ED SWAP1 PUSH2 0x755 JUMP JUMPDEST DUP1 PUSH1 0x1F ADD PUSH1 0x20 DUP1 SWAP2 DIV MUL PUSH1 0x20 ADD PUSH1 0x40 MLOAD SWAP1 DUP2 ADD PUSH1 0x40 MSTORE DUP1 SWAP3 SWAP2 SWAP1 DUP2 DUP2 MSTORE PUSH1 0x20 ADD DUP3 DUP1 SLOAD PUSH2 0x319 SWAP1 PUSH2 0x755 JUMP JUMPDEST DUP1 ISZERO PUSH2 0x366 JUMPI DUP1 PUSH1 0x1F LT PUSH2 0x33B JUMPI PUSH2 0x100 DUP1 DUP4 SLOAD DIV MUL DUP4 MSTORE SWAP2 PUSH1 0x20 ADD SWAP2 PUSH2 0x366 JUMP JUMPDEST DUP3 ADD SWAP2 SWAP1 PUSH1 0x0 MSTORE PUSH1 0x20 PUSH1 0x0 KECCAK256 SWAP1 JUMPDEST DUP2 SLOAD DUP2 MSTORE SWAP1 PUSH1 0x1 ADD SWAP1 PUSH1 0x20 ADD DUP1 DUP4 GT PUSH2 0x349 JUMPI DUP3 SWAP1 SUB PUSH1 0x1F AND DUP3 ADD SWAP2 JUMPDEST POP POP POP POP POP SWAP1 DUP1 PUSH1 0x2 ADD PUSH1 0x0 SWAP1 SLOAD SWAP1 PUSH2 0x100 EXP SWAP1 DIV PUSH1 0xFF AND SWAP1 POP DUP4 JUMP JUMPDEST DUP3 DUP1 SLOAD PUSH2 0x38F SWAP1 PUSH2 0x755 JUMP JUMPDEST SWAP1 PUSH1 0x0 MSTORE PUSH1 0x20 PUSH1 0x0 KECCAK256 SWAP1 PUSH1 0x1F ADD PUSH1 0x20 SWAP1 DIV DUP2 ADD SWAP3 DUP3 PUSH2 0x3B1 JUMPI PUSH1 0x0 DUP6 SSTORE PUSH2 0x3F8 JUMP JUMPDEST DUP3 PUSH1 0x1F LT PUSH2 0x3CA JUMPI DUP1 MLOAD PUSH1 0xFF NOT AND DUP4 DUP1 ADD OR DUP6 SSTORE PUSH2 0x3F8 JUMP JUMPDEST DUP3 DUP1 ADD PUSH1 0x1 ADD DUP6 SSTORE DUP3 ISZERO PUSH2 0x3F8 JUMPI SWAP2 DUP3 ADD JUMPDEST DUP3 DUP2 GT ISZERO PUSH2 0x3F7 JUMPI DUP3 MLOAD DUP3 SSTORE SWAP2 PUSH1 0x20 ADD SWAP2 SWAP1 PUSH1 0x1 ADD SWAP1 PUSH2 0x3DC JUMP JUMPDEST JUMPDEST POP SWAP1 POP PUSH2 0x405 SWAP2 SWAP1 PUSH2 0x409 JUMP JUMPDEST POP SWAP1 JUMP JUMPDEST JUMPDEST DUP1 DUP3 GT ISZERO PUSH2 0x422 JUMPI PUSH1 0x0 DUP2 PUSH1 0x0 SWAP1 SSTORE POP PUSH1 0x1 ADD PUSH2 0x40A JUMP JUMPDEST POP SWAP1 JUMP JUMPDEST PUSH1 0x0 PUSH2 0x439 PUSH2 0x434 DUP5 PUSH2 0x6B0 JUMP JUMPDEST PUSH2 0x68B JUMP JUMPDEST SWAP1 POP DUP3 DUP2 MSTORE PUSH1 0x20 DUP2 ADD DUP5 DUP5 DUP5 ADD GT ISZERO PUSH2 0x455 JUMPI PUSH2 0x454 PUSH2 0x893 JUMP JUMPDEST JUMPDEST PUSH2 0x460 DUP5 DUP3 DUP6 PUSH2 0x713 JUMP JUMPDEST POP SWAP4 SWAP3 POP POP POP JUMP JUMPDEST PUSH1 0x0 DUP3 PUSH1 0x1F DUP4 ADD SLT PUSH2 0x47D JUMPI PUSH2 0x47C PUSH2 0x88E JUMP JUMPDEST JUMPDEST DUP2 CALLDATALOAD PUSH2 0x48D DUP5 DUP3 PUSH1 0x20 DUP7 ADD PUSH2 0x426 JUMP JUMPDEST SWAP2 POP POP SWAP3 SWAP2 POP POP JUMP JUMPDEST PUSH1 0x0 DUP2 CALLDATALOAD SWAP1 POP PUSH2 0x4A5 DUP2 PUSH2 0x8DC JUMP JUMPDEST SWAP3 SWAP2 POP POP JUMP JUMPDEST PUSH1 0x0 PUSH1 0x20 DUP3 DUP5 SUB SLT ISZERO PUSH2 0x4C1 JUMPI PUSH2 0x4C0 PUSH2 0x89D JUMP JUMPDEST JUMPDEST PUSH1 0x0 DUP3 ADD CALLDATALOAD PUSH8 0xFFFFFFFFFFFFFFFF DUP2 GT ISZERO PUSH2 0x4DF JUMPI PUSH2 0x4DE PUSH2 0x898 JUMP JUMPDEST JUMPDEST PUSH2 0x4EB DUP5 DUP3 DUP6 ADD PUSH2 0x468 JUMP JUMPDEST SWAP2 POP POP SWAP3 SWAP2 POP POP JUMP JUMPDEST PUSH1 0x0 DUP1 PUSH1 0x40 DUP4 DUP6 SUB SLT ISZERO PUSH2 0x50B JUMPI PUSH2 0x50A PUSH2 0x89D JUMP JUMPDEST JUMPDEST PUSH1 0x0 DUP4 ADD CALLDATALOAD PUSH8 0xFFFFFFFFFFFFFFFF DUP2 GT ISZERO PUSH2 0x529 JUMPI PUSH2 0x528 PUSH2 0x898 JUMP JUMPDEST JUMPDEST PUSH2 0x535 DUP6 DUP3 DUP7 ADD PUSH2 0x468 JUMP JUMPDEST SWAP3 POP POP PUSH1 0x20 DUP4 ADD CALLDATALOAD PUSH8 0xFFFFFFFFFFFFFFFF DUP2 GT ISZERO PUSH2 0x556 JUMPI PUSH2 0x555 PUSH2 0x898 JUMP JUMPDEST JUMPDEST PUSH2 0x562 DUP6 DUP3 DUP7 ADD PUSH2 0x468 JUMP JUMPDEST SWAP2 POP POP SWAP3 POP SWAP3 SWAP1 POP JUMP JUMPDEST PUSH1 0x0 PUSH1 0x20 DUP3 DUP5 SUB SLT ISZERO PUSH2 0x582 JUMPI PUSH2 0x581 PUSH2 0x89D JUMP JUMPDEST JUMPDEST PUSH1 0x0 PUSH2 0x590 DUP5 DUP3 DUP6 ADD PUSH2 0x496 JUMP JUMPDEST SWAP2 POP POP SWAP3 SWAP2 POP POP JUMP JUMPDEST PUSH2 0x5A2 DUP2 PUSH2 0x6FD JUMP JUMPDEST DUP3 MSTORE POP POP JUMP JUMPDEST PUSH1 0x0 PUSH2 0x5B3 DUP3 PUSH2 0x6E1 JUMP JUMPDEST PUSH2 0x5BD DUP2 DUP6 PUSH2 0x6EC JUMP JUMPDEST SWAP4 POP PUSH2 0x5CD DUP2 DUP6 PUSH1 0x20 DUP7 ADD PUSH2 0x722 JUMP JUMPDEST PUSH2 0x5D6 DUP2 PUSH2 0x8A2 JUMP JUMPDEST DUP5 ADD SWAP2 POP POP SWAP3 SWAP2 POP POP JUMP JUMPDEST PUSH1 0x0 PUSH2 0x5EE PUSH1 0x10 DUP4 PUSH2 0x6EC JUMP JUMPDEST SWAP2 POP PUSH2 0x5F9 DUP3 PUSH2 0x8B3 JUMP JUMPDEST PUSH1 0x20 DUP3 ADD SWAP1 POP SWAP2 SWAP1 POP JUMP JUMPDEST PUSH1 0x0 PUSH1 0x20 DUP3 ADD SWAP1 POP DUP2 DUP2 SUB PUSH1 0x0 DUP4 ADD MSTORE PUSH2 0x61E DUP2 DUP5 PUSH2 0x5A8 JUMP JUMPDEST SWAP1 POP SWAP3 SWAP2 POP POP JUMP JUMPDEST PUSH1 0x0 PUSH1 0x60 DUP3 ADD SWAP1 POP DUP2 DUP2 SUB PUSH1 0x0 DUP4 ADD MSTORE PUSH2 0x640 DUP2 DUP7 PUSH2 0x5A8 JUMP JUMPDEST SWAP1 POP DUP2 DUP2 SUB PUSH1 0x20 DUP4 ADD MSTORE PUSH2 0x654 DUP2 DUP6 PUSH2 0x5A8 JUMP JUMPDEST SWAP1 POP PUSH2 0x663 PUSH1 0x40 DUP4 ADD DUP5 PUSH2 0x599 JUMP JUMPDEST SWAP5 SWAP4 POP POP POP POP JUMP JUMPDEST PUSH1 0x0 PUSH1 0x20 DUP3 ADD SWAP1 POP DUP2 DUP2 SUB PUSH1 0x0 DUP4 ADD MSTORE PUSH2 0x684 DUP2 PUSH2 0x5E1 JUMP JUMPDEST SWAP1 POP SWAP2 SWAP1 POP JUMP JUMPDEST PUSH1 0x0 PUSH2 0x695 PUSH2 0x6A6 JUMP JUMPDEST SWAP1 POP PUSH2 0x6A1 DUP3 DUP3 PUSH2 0x787 JUMP JUMPDEST SWAP2 SWAP1 POP JUMP JUMPDEST PUSH1 0x0 PUSH1 0x40 MLOAD SWAP1 POP SWAP1 JUMP JUMPDEST PUSH1 0x0 PUSH8 0xFFFFFFFFFFFFFFFF DUP3 GT ISZERO PUSH2 0x6CB JUMPI PUSH2 0x6CA PUSH2 0x85F JUMP JUMPDEST JUMPDEST PUSH2 0x6D4 DUP3 PUSH2 0x8A2 JUMP JUMPDEST SWAP1 POP PUSH1 0x20 DUP2 ADD SWAP1 POP SWAP2 SWAP1 POP JUMP JUMPDEST PUSH1 0x0 DUP2 MLOAD SWAP1 POP SWAP2 SWAP1 POP JUMP JUMPDEST PUSH1 0x0 DUP3 DUP3 MSTORE PUSH1 0x20 DUP3 ADD SWAP1 POP SWAP3 SWAP2 POP POP JUMP JUMPDEST PUSH1 0x0 DUP2 ISZERO ISZERO SWAP1 POP SWAP2 SWAP1 POP JUMP JUMPDEST PUSH1 0x0 DUP2 SWAP1 POP SWAP2 SWAP1 POP JUMP JUMPDEST DUP3 DUP2 DUP4 CALLDATACOPY PUSH1 0x0 DUP4 DUP4 ADD MSTORE POP POP POP JUMP JUMPDEST PUSH1 0x0 JUMPDEST DUP4 DUP2 LT ISZERO PUSH2 0x740 JUMPI DUP1 DUP3 ADD MLOAD DUP2 DUP5 ADD MSTORE PUSH1 0x20 DUP2 ADD SWAP1 POP PUSH2 0x725 JUMP JUMPDEST DUP4 DUP2 GT ISZERO PUSH2 0x74F JUMPI PUSH1 0x0 DUP5 DUP5 ADD MSTORE JUMPDEST POP POP POP POP JUMP JUMPDEST PUSH1 0x0 PUSH1 0x2 DUP3 DIV SWAP1 POP PUSH1 0x1 DUP3 AND DUP1 PUSH2 0x76D JUMPI PUSH1 0x7F DUP3 AND SWAP2 POP JUMPDEST PUSH1 0x20 DUP3 LT DUP2 EQ ISZERO PUSH2 0x781 JUMPI PUSH2 0x780 PUSH2 0x830 JUMP JUMPDEST JUMPDEST POP SWAP2 SWAP1 POP JUMP JUMPDEST PUSH2 0x790 DUP3 PUSH2 0x8A2 JUMP JUMPDEST DUP2 ADD DUP2 DUP2 LT PUSH8 0xFFFFFFFFFFFFFFFF DUP3 GT OR ISZERO PUSH2 0x7AF JUMPI PUSH2 0x7AE PUSH2 0x85F JUMP JUMPDEST JUMPDEST DUP1 PUSH1 0x40 MSTORE POP POP POP JUMP JUMPDEST PUSH1 0x0 PUSH2 0x7C3 DUP3 PUSH2 0x709 JUMP JUMPDEST SWAP2 POP PUSH32 0xFFFFFFFFFFFFFFFFFFFFFFFFFFFFFFFFFFFFFFFFFFFFFFFFFFFFFFFFFFFFFFFF DUP3 EQ ISZERO PUSH2 0x7F6 JUMPI PUSH2 0x7F5 PUSH2 0x801 JUMP JUMPDEST JUMPDEST PUSH1 0x1 DUP3 ADD SWAP1 POP SWAP2 SWAP1 POP JUMP JUMPDEST PUSH32 0x4E487B7100000000000000000000000000000000000000000000000000000000 PUSH1 0x0 MSTORE PUSH1 0x11 PUSH1 0x4 MSTORE PUSH1 0x24 PUSH1 0x0 REVERT JUMPDEST PUSH32 0x4E487B7100000000000000000000000000000000000000000000000000000000 PUSH1 0x0 MSTORE PUSH1 0x22 PUSH1 0x4 MSTORE PUSH1 0x24 PUSH1 0x0 REVERT JUMPDEST PUSH32 0x4E487B7100000000000000000000000000000000000000000000000000000000 PUSH1 0x0 MSTORE PUSH1 0x41 PUSH1 0x4 MSTORE PUSH1 0x24 PUSH1 0x0 REVERT JUMPDEST PUSH1 0x0 DUP1 REVERT JUMPDEST PUSH1 0x0 DUP1 REVERT JUMPDEST PUSH1 0x0 DUP1 REVERT JUMPDEST PUSH1 0x0 DUP1 REVERT JUMPDEST PUSH1 0x0 PUSH1 0x1F NOT PUSH1 0x1F DUP4 ADD AND SWAP1 POP SWAP2 SWAP1 POP JUMP JUMPDEST PUSH32 0x4163636573732069732044656E69656400000000000000000000000000000000 PUSH1 0x0 DUP3 ADD MSTORE POP JUMP JUMPDEST PUSH2 0x8E5 DUP2 PUSH2 0x709 JUMP JUMPDEST DUP2 EQ PUSH2 0x8F0 JUMPI PUSH1 0x0 DUP1 REVERT JUMPDEST POP JUMP INVALID MSIZE PUSH16 0x752077696C6C20626520616464656420 PUSH21 0x6F2063616E646964617465206C697374206F6E6365 KECCAK256 PUSH26 0x6F75206172652076616C69646174656420627920746865206164 PUSH14 0x696EA264697066735822122039AA CALL INVALID PUSH22 0x3F93277EA48D133F6A83280D64AABAF60BE5F440B113 0xC5 0xAB 0xE1 CALLCODE SMOD PUSH5 0x736F6C6343 STOP ADDMOD SMOD STOP CALLER "
				},
				"gasEstimates": {
					"creation": {
						"codeDepositCost": "483200",
						"executionCost": "24784",
						"totalCost": "507984"
					},
					"external": {
						"candidateEnrollment(string,string)": "infinite",
						"validCandidate(string)": "infinite",
						"validCandidates(uint256)": "infinite"
					}
				},
				"methodIdentifiers": {
					"candidateEnrollment(string,string)": "17678bc3",
					"validCandidate(string)": "538c91b2",
					"validCandidates(uint256)": "b0d18814"
				}
			},
			"storageLayout": {
				"storage": [
					{
						"astId": 3,
						"contract": "voting.sol:Voting",
						"label": "noOfVoters",
						"offset": 0,
						"slot": "0",
						"type": "t_uint256"
					},
					{
						"astId": 5,
						"contract": "voting.sol:Voting",
						"label": "noOfCandidates",
						"offset": 0,
						"slot": "1",
						"type": "t_uint256"
					},
					{
						"astId": 7,
						"contract": "voting.sol:Voting",
						"label": "noOfValCandidates",
						"offset": 0,
						"slot": "2",
						"type": "t_uint256"
					},
					{
						"astId": 9,
						"contract": "voting.sol:Voting",
						"label": "admin",
						"offset": 0,
						"slot": "3",
						"type": "t_address"
					},
					{
						"astId": 14,
						"contract": "voting.sol:Voting",
						"label": "enrolledCandidates",
						"offset": 0,
						"slot": "4",
						"type": "t_mapping(t_uint256,t_struct(Candidate)26_storage)"
					},
					{
						"astId": 19,
						"contract": "voting.sol:Voting",
						"label": "validCandidates",
						"offset": 0,
						"slot": "5",
						"type": "t_mapping(t_uint256,t_struct(Candidate)26_storage)"
					}
				],
				"types": {
					"t_address": {
						"encoding": "inplace",
						"label": "address",
						"numberOfBytes": "20"
					},
					"t_bool": {
						"encoding": "inplace",
						"label": "bool",
						"numberOfBytes": "1"
					},
					"t_mapping(t_uint256,t_struct(Candidate)26_storage)": {
						"encoding": "mapping",
						"key": "t_uint256",
						"label": "mapping(uint256 => struct Voting.Candidate)",
						"numberOfBytes": "32",
						"value": "t_struct(Candidate)26_storage"
					},
					"t_string_storage": {
						"encoding": "bytes",
						"label": "string",
						"numberOfBytes": "32"
					},
					"t_struct(Candidate)26_storage": {
						"encoding": "inplace",
						"label": "struct Voting.Candidate",
						"members": [
							{
								"astId": 21,
								"contract": "voting.sol:Voting",
								"label": "candidate_name",
								"offset": 0,
								"slot": "0",
								"type": "t_string_storage"
							},
							{
								"astId": 23,
								"contract": "voting.sol:Voting",
								"label": "candidate_description",
								"offset": 0,
								"slot": "1",
								"type": "t_string_storage"
							},
							{
								"astId": 25,
								"contract": "voting.sol:Voting",
								"label": "isValid",
								"offset": 0,
								"slot": "2",
								"type": "t_bool"
							}
						],
						"numberOfBytes": "96"
					},
					"t_uint256": {
						"encoding": "inplace",
						"label": "uint256",
						"numberOfBytes": "32"
					}
				}
			},
			"userdoc": {
				"kind": "user",
				"methods": {},
				"version": 1
			}
		}
	}
}