{
	"voting.sol": {
		"Voting": {
			"abi": [
				{
					"inputs": [],
					"stateMutability": "nonpayable",
					"type": "constructor"
				},
				{
					"inputs": [
						{
							"internalType": "string",
							"name": "name",
							"type": "string"
						},
						{
							"internalType": "string",
							"name": "description",
							"type": "string"
						}
					],
					"name": "candidateEnrollment",
					"outputs": [
						{
							"internalType": "string",
							"name": "",
							"type": "string"
						}
					],
					"stateMutability": "nonpayable",
					"type": "function"
				},
				{
					"inputs": [
						{
							"internalType": "uint256",
							"name": "",
							"type": "uint256"
						}
					],
					"name": "validCandidates",
					"outputs": [
						{
							"internalType": "string",
							"name": "candidate_name",
							"type": "string"
						},
						{
							"internalType": "string",
							"name": "candidate_description",
							"type": "string"
						},
						{
							"internalType": "bool",
							"name": "isValid",
							"type": "bool"
						}
					],
					"stateMutability": "view",
					"type": "function"
				}
			],
			"devdoc": {
				"kind": "dev",
				"methods": {},
				"version": 1
			},
			"evm": {
				"assembly": "    /* \"voting.sol\":59:1005  contract Voting{\r... */\n  mstore(0x40, 0x80)\n    /* \"voting.sol\":515:565  constructor(){\r... */\n  callvalue\n  dup1\n  iszero\n  tag_1\n  jumpi\n  0x00\n  dup1\n  revert\ntag_1:\n  pop\n    /* \"voting.sol\":547:557  msg.sender */\n  caller\n    /* \"voting.sol\":539:544  admin */\n  0x03\n  0x00\n    /* \"voting.sol\":539:557  admin = msg.sender */\n  0x0100\n  exp\n  dup2\n  sload\n  dup2\n  0xffffffffffffffffffffffffffffffffffffffff\n  mul\n  not\n  and\n  swap1\n  dup4\n  0xffffffffffffffffffffffffffffffffffffffff\n  and\n  mul\n  or\n  swap1\n  sstore\n  pop\n    /* \"voting.sol\":59:1005  contract Voting{\r... */\n  dataSize(sub_0)\n  dup1\n  dataOffset(sub_0)\n  0x00\n  codecopy\n  0x00\n  return\nstop\n\nsub_0: assembly {\n        /* \"voting.sol\":59:1005  contract Voting{\r... */\n      mstore(0x40, 0x80)\n      callvalue\n      dup1\n      iszero\n      tag_1\n      jumpi\n      0x00\n      dup1\n      revert\n    tag_1:\n      pop\n      jumpi(tag_2, lt(calldatasize, 0x04))\n      shr(0xe0, calldataload(0x00))\n      dup1\n      0x17678bc3\n      eq\n      tag_3\n      jumpi\n      dup1\n      0xb0d18814\n      eq\n      tag_4\n      jumpi\n    tag_2:\n      0x00\n      dup1\n      revert\n        /* \"voting.sol\":675:1002  function candidateEnrollment(string memory name,string memory description) public returns(string memory){\r... */\n    tag_3:\n      tag_5\n      0x04\n      dup1\n      calldatasize\n      sub\n      dup2\n      add\n      swap1\n      tag_6\n      swap2\n      swap1\n      tag_7\n      jump\t// in\n    tag_6:\n      tag_8\n      jump\t// in\n    tag_5:\n      mload(0x40)\n      tag_9\n      swap2\n      swap1\n      tag_10\n      jump\t// in\n    tag_9:\n      mload(0x40)\n      dup1\n      swap2\n      sub\n      swap1\n      return\n        /* \"voting.sol\":233:283  mapping (uint => Candidate) public validCandidates */\n    tag_4:\n      tag_11\n      0x04\n      dup1\n      calldatasize\n      sub\n      dup2\n      add\n      swap1\n      tag_12\n      swap2\n      swap1\n      tag_13\n      jump\t// in\n    tag_12:\n      tag_14\n      jump\t// in\n    tag_11:\n      mload(0x40)\n      tag_15\n      swap4\n      swap3\n      swap2\n      swap1\n      tag_16\n      jump\t// in\n    tag_15:\n      mload(0x40)\n      dup1\n      swap2\n      sub\n      swap1\n      return\n        /* \"voting.sol\":675:1002  function candidateEnrollment(string memory name,string memory description) public returns(string memory){\r... */\n    tag_8:\n        /* \"voting.sol\":765:778  string memory */\n      0x60\n        /* \"voting.sol\":790:806  uint candidateID */\n      0x00\n        /* \"voting.sol\":809:823  noOfCandidates */\n      0x01\n      0x00\n        /* \"voting.sol\":809:825  noOfCandidates++ */\n      dup2\n      sload\n      dup1\n      swap3\n      swap2\n      swap1\n      tag_18\n      swap1\n      tag_19\n      jump\t// in\n    tag_18:\n      swap2\n      swap1\n      pop\n      sstore\n        /* \"voting.sol\":790:825  uint candidateID = noOfCandidates++ */\n      swap1\n      pop\n        /* \"voting.sol\":870:903  Candidate(name,description,false) */\n      mload(0x40)\n      dup1\n      0x60\n      add\n      0x40\n      mstore\n      dup1\n        /* \"voting.sol\":880:884  name */\n      dup6\n        /* \"voting.sol\":870:903  Candidate(name,description,false) */\n      dup2\n      mstore\n      0x20\n      add\n        /* \"voting.sol\":885:896  description */\n      dup5\n        /* \"voting.sol\":870:903  Candidate(name,description,false) */\n      dup2\n      mstore\n      0x20\n      add\n        /* \"voting.sol\":897:902  false */\n      0x00\n        /* \"voting.sol\":870:903  Candidate(name,description,false) */\n      iszero\n      iszero\n      dup2\n      mstore\n      pop\n        /* \"voting.sol\":836:854  enrolledCandidates */\n      0x04\n        /* \"voting.sol\":836:867  enrolledCandidates[candidateID] */\n      0x00\n        /* \"voting.sol\":855:866  candidateID */\n      dup4\n        /* \"voting.sol\":836:867  enrolledCandidates[candidateID] */\n      dup2\n      mstore\n      0x20\n      add\n      swap1\n      dup2\n      mstore\n      0x20\n      add\n      0x00\n      keccak256\n        /* \"voting.sol\":836:903  enrolledCandidates[candidateID] = Candidate(name,description,false) */\n      0x00\n      dup3\n      add\n      mload\n      dup2\n      0x00\n      add\n      swap1\n      dup1\n      mload\n      swap1\n      0x20\n      add\n      swap1\n      tag_20\n      swap3\n      swap2\n      swap1\n      tag_21\n      jump\t// in\n    tag_20:\n      pop\n      0x20\n      dup3\n      add\n      mload\n      dup2\n      0x01\n      add\n      swap1\n      dup1\n      mload\n      swap1\n      0x20\n      add\n      swap1\n      tag_22\n      swap3\n      swap2\n      swap1\n      tag_21\n      jump\t// in\n    tag_22:\n      pop\n      0x40\n      dup3\n      add\n      mload\n      dup2\n      0x02\n      add\n      exp(0x0100, 0x00)\n      dup2\n      sload\n      dup2\n      0xff\n      mul\n      not\n      and\n      swap1\n      dup4\n      iszero\n      iszero\n      mul\n      or\n      swap1\n      sstore\n      pop\n      swap1\n      pop\n      pop\n        /* \"voting.sol\":914:994  return \"You will be added to candidate list once you are validated by the admin\" */\n      mload(0x40)\n      dup1\n      0x80\n      add\n      0x40\n      mstore\n      dup1\n      0x47\n      dup2\n      mstore\n      0x20\n      add\n      data_346ae9e229890c1b5467b3280ac50efb3a563831aa4e9bb9392fe53f7d7de7e2\n      0x47\n      swap2\n      codecopy\n      swap2\n      pop\n      pop\n        /* \"voting.sol\":675:1002  function candidateEnrollment(string memory name,string memory description) public returns(string memory){\r... */\n      swap3\n      swap2\n      pop\n      pop\n      jump\t// out\n        /* \"voting.sol\":233:283  mapping (uint => Candidate) public validCandidates */\n    tag_14:\n      mstore(0x20, 0x05)\n      dup1\n      0x00\n      mstore\n      keccak256(0x00, 0x40)\n      0x00\n      swap2\n      pop\n      swap1\n      pop\n      dup1\n      0x00\n      add\n      dup1\n      sload\n      tag_23\n      swap1\n      tag_24\n      jump\t// in\n    tag_23:\n      dup1\n      0x1f\n      add\n      0x20\n      dup1\n      swap2\n      div\n      mul\n      0x20\n      add\n      mload(0x40)\n      swap1\n      dup2\n      add\n      0x40\n      mstore\n      dup1\n      swap3\n      swap2\n      swap1\n      dup2\n      dup2\n      mstore\n      0x20\n      add\n      dup3\n      dup1\n      sload\n      tag_25\n      swap1\n      tag_24\n      jump\t// in\n    tag_25:\n      dup1\n      iszero\n      tag_26\n      jumpi\n      dup1\n      0x1f\n      lt\n      tag_27\n      jumpi\n      0x0100\n      dup1\n      dup4\n      sload\n      div\n      mul\n      dup4\n      mstore\n      swap2\n      0x20\n      add\n      swap2\n      jump(tag_26)\n    tag_27:\n      dup3\n      add\n      swap2\n      swap1\n      0x00\n      mstore\n      keccak256(0x00, 0x20)\n      swap1\n    tag_28:\n      dup2\n      sload\n      dup2\n      mstore\n      swap1\n      0x01\n      add\n      swap1\n      0x20\n      add\n      dup1\n      dup4\n      gt\n      tag_28\n      jumpi\n      dup3\n      swap1\n      sub\n      0x1f\n      and\n      dup3\n      add\n      swap2\n    tag_26:\n      pop\n      pop\n      pop\n      pop\n      pop\n      swap1\n      dup1\n      0x01\n      add\n      dup1\n      sload\n      tag_29\n      swap1\n      tag_24\n      jump\t// in\n    tag_29:\n      dup1\n      0x1f\n      add\n      0x20\n      dup1\n      swap2\n      div\n      mul\n      0x20\n      add\n      mload(0x40)\n      swap1\n      dup2\n      add\n      0x40\n      mstore\n      dup1\n      swap3\n      swap2\n      swap1\n      dup2\n      dup2\n      mstore\n      0x20\n      add\n      dup3\n      dup1\n      sload\n      tag_30\n      swap1\n      tag_24\n      jump\t// in\n    tag_30:\n      dup1\n      iszero\n      tag_31\n      jumpi\n      dup1\n      0x1f\n      lt\n      tag_32\n      jumpi\n      0x0100\n      dup1\n      dup4\n      sload\n      div\n      mul\n      dup4\n      mstore\n      swap2\n      0x20\n      add\n      swap2\n      jump(tag_31)\n    tag_32:\n      dup3\n      add\n      swap2\n      swap1\n      0x00\n      mstore\n      keccak256(0x00, 0x20)\n      swap1\n    tag_33:\n      dup2\n      sload\n      dup2\n      mstore\n      swap1\n      0x01\n      add\n      swap1\n      0x20\n      add\n      dup1\n      dup4\n      gt\n      tag_33\n      jumpi\n      dup3\n      swap1\n      sub\n      0x1f\n      and\n      dup3\n      add\n      swap2\n    tag_31:\n      pop\n      pop\n      pop\n      pop\n      pop\n      swap1\n      dup1\n      0x02\n      add\n      0x00\n      swap1\n      sload\n      swap1\n      0x0100\n      exp\n      swap1\n      div\n      0xff\n      and\n      swap1\n      pop\n      dup4\n      jump\t// out\n    tag_21:\n      dup3\n      dup1\n      sload\n      tag_34\n      swap1\n      tag_24\n      jump\t// in\n    tag_34:\n      swap1\n      0x00\n      mstore\n      keccak256(0x00, 0x20)\n      swap1\n      0x1f\n      add\n      0x20\n      swap1\n      div\n      dup2\n      add\n      swap3\n      dup3\n      tag_36\n      jumpi\n      0x00\n      dup6\n      sstore\n      jump(tag_35)\n    tag_36:\n      dup3\n      0x1f\n      lt\n      tag_37\n      jumpi\n      dup1\n      mload\n      not(0xff)\n      and\n      dup4\n      dup1\n      add\n      or\n      dup6\n      sstore\n      jump(tag_35)\n    tag_37:\n      dup3\n      dup1\n      add\n      0x01\n      add\n      dup6\n      sstore\n      dup3\n      iszero\n      tag_35\n      jumpi\n      swap2\n      dup3\n      add\n    tag_38:\n      dup3\n      dup2\n      gt\n      iszero\n      tag_39\n      jumpi\n      dup3\n      mload\n      dup3\n      sstore\n      swap2\n      0x20\n      add\n      swap2\n      swap1\n      0x01\n      add\n      swap1\n      jump(tag_38)\n    tag_39:\n    tag_35:\n      pop\n      swap1\n      pop\n      tag_40\n      swap2\n      swap1\n      tag_41\n      jump\t// in\n    tag_40:\n      pop\n      swap1\n      jump\t// out\n    tag_41:\n    tag_42:\n      dup1\n      dup3\n      gt\n      iszero\n      tag_43\n      jumpi\n      0x00\n      dup2\n      0x00\n      swap1\n      sstore\n      pop\n      0x01\n      add\n      jump(tag_42)\n    tag_43:\n      pop\n      swap1\n      jump\t// out\n        /* \"#utility.yul\":7:419   */\n    tag_45:\n        /* \"#utility.yul\":85:90   */\n      0x00\n        /* \"#utility.yul\":110:176   */\n      tag_47\n        /* \"#utility.yul\":126:175   */\n      tag_48\n        /* \"#utility.yul\":168:174   */\n      dup5\n        /* \"#utility.yul\":126:175   */\n      tag_49\n      jump\t// in\n    tag_48:\n        /* \"#utility.yul\":110:176   */\n      tag_50\n      jump\t// in\n    tag_47:\n        /* \"#utility.yul\":101:176   */\n      swap1\n      pop\n        /* \"#utility.yul\":199:205   */\n      dup3\n        /* \"#utility.yul\":192:197   */\n      dup2\n        /* \"#utility.yul\":185:206   */\n      mstore\n        /* \"#utility.yul\":237:241   */\n      0x20\n        /* \"#utility.yul\":230:235   */\n      dup2\n        /* \"#utility.yul\":226:242   */\n      add\n        /* \"#utility.yul\":275:278   */\n      dup5\n        /* \"#utility.yul\":266:272   */\n      dup5\n        /* \"#utility.yul\":261:264   */\n      dup5\n        /* \"#utility.yul\":257:273   */\n      add\n        /* \"#utility.yul\":254:279   */\n      gt\n        /* \"#utility.yul\":251:363   */\n      iszero\n      tag_51\n      jumpi\n        /* \"#utility.yul\":282:361   */\n      tag_52\n      tag_53\n      jump\t// in\n    tag_52:\n        /* \"#utility.yul\":251:363   */\n    tag_51:\n        /* \"#utility.yul\":372:413   */\n      tag_54\n        /* \"#utility.yul\":406:412   */\n      dup5\n        /* \"#utility.yul\":401:404   */\n      dup3\n        /* \"#utility.yul\":396:399   */\n      dup6\n        /* \"#utility.yul\":372:413   */\n      tag_55\n      jump\t// in\n    tag_54:\n        /* \"#utility.yul\":91:419   */\n      pop\n        /* \"#utility.yul\":7:419   */\n      swap4\n      swap3\n      pop\n      pop\n      pop\n      jump\t// out\n        /* \"#utility.yul\":439:779   */\n    tag_56:\n        /* \"#utility.yul\":495:500   */\n      0x00\n        /* \"#utility.yul\":544:547   */\n      dup3\n        /* \"#utility.yul\":537:541   */\n      0x1f\n        /* \"#utility.yul\":529:535   */\n      dup4\n        /* \"#utility.yul\":525:542   */\n      add\n        /* \"#utility.yul\":521:548   */\n      slt\n        /* \"#utility.yul\":511:633   */\n      tag_58\n      jumpi\n        /* \"#utility.yul\":552:631   */\n      tag_59\n      tag_60\n      jump\t// in\n    tag_59:\n        /* \"#utility.yul\":511:633   */\n    tag_58:\n        /* \"#utility.yul\":669:675   */\n      dup2\n        /* \"#utility.yul\":656:676   */\n      calldataload\n        /* \"#utility.yul\":694:773   */\n      tag_61\n        /* \"#utility.yul\":769:772   */\n      dup5\n        /* \"#utility.yul\":761:767   */\n      dup3\n        /* \"#utility.yul\":754:758   */\n      0x20\n        /* \"#utility.yul\":746:752   */\n      dup7\n        /* \"#utility.yul\":742:759   */\n      add\n        /* \"#utility.yul\":694:773   */\n      tag_45\n      jump\t// in\n    tag_61:\n        /* \"#utility.yul\":685:773   */\n      swap2\n      pop\n        /* \"#utility.yul\":501:779   */\n      pop\n        /* \"#utility.yul\":439:779   */\n      swap3\n      swap2\n      pop\n      pop\n      jump\t// out\n        /* \"#utility.yul\":785:924   */\n    tag_62:\n        /* \"#utility.yul\":831:836   */\n      0x00\n        /* \"#utility.yul\":869:875   */\n      dup2\n        /* \"#utility.yul\":856:876   */\n      calldataload\n        /* \"#utility.yul\":847:876   */\n      swap1\n      pop\n        /* \"#utility.yul\":885:918   */\n      tag_64\n        /* \"#utility.yul\":912:917   */\n      dup2\n        /* \"#utility.yul\":885:918   */\n      tag_65\n      jump\t// in\n    tag_64:\n        /* \"#utility.yul\":785:924   */\n      swap3\n      swap2\n      pop\n      pop\n      jump\t// out\n        /* \"#utility.yul\":930:1764   */\n    tag_7:\n        /* \"#utility.yul\":1018:1024   */\n      0x00\n        /* \"#utility.yul\":1026:1032   */\n      dup1\n        /* \"#utility.yul\":1075:1077   */\n      0x40\n        /* \"#utility.yul\":1063:1072   */\n      dup4\n        /* \"#utility.yul\":1054:1061   */\n      dup6\n        /* \"#utility.yul\":1050:1073   */\n      sub\n        /* \"#utility.yul\":1046:1078   */\n      slt\n        /* \"#utility.yul\":1043:1162   */\n      iszero\n      tag_67\n      jumpi\n        /* \"#utility.yul\":1081:1160   */\n      tag_68\n      tag_69\n      jump\t// in\n    tag_68:\n        /* \"#utility.yul\":1043:1162   */\n    tag_67:\n        /* \"#utility.yul\":1229:1230   */\n      0x00\n        /* \"#utility.yul\":1218:1227   */\n      dup4\n        /* \"#utility.yul\":1214:1231   */\n      add\n        /* \"#utility.yul\":1201:1232   */\n      calldataload\n        /* \"#utility.yul\":1259:1277   */\n      0xffffffffffffffff\n        /* \"#utility.yul\":1251:1257   */\n      dup2\n        /* \"#utility.yul\":1248:1278   */\n      gt\n        /* \"#utility.yul\":1245:1362   */\n      iszero\n      tag_70\n      jumpi\n        /* \"#utility.yul\":1281:1360   */\n      tag_71\n      tag_72\n      jump\t// in\n    tag_71:\n        /* \"#utility.yul\":1245:1362   */\n    tag_70:\n        /* \"#utility.yul\":1386:1449   */\n      tag_73\n        /* \"#utility.yul\":1441:1448   */\n      dup6\n        /* \"#utility.yul\":1432:1438   */\n      dup3\n        /* \"#utility.yul\":1421:1430   */\n      dup7\n        /* \"#utility.yul\":1417:1439   */\n      add\n        /* \"#utility.yul\":1386:1449   */\n      tag_56\n      jump\t// in\n    tag_73:\n        /* \"#utility.yul\":1376:1449   */\n      swap3\n      pop\n        /* \"#utility.yul\":1172:1459   */\n      pop\n        /* \"#utility.yul\":1526:1528   */\n      0x20\n        /* \"#utility.yul\":1515:1524   */\n      dup4\n        /* \"#utility.yul\":1511:1529   */\n      add\n        /* \"#utility.yul\":1498:1530   */\n      calldataload\n        /* \"#utility.yul\":1557:1575   */\n      0xffffffffffffffff\n        /* \"#utility.yul\":1549:1555   */\n      dup2\n        /* \"#utility.yul\":1546:1576   */\n      gt\n        /* \"#utility.yul\":1543:1660   */\n      iszero\n      tag_74\n      jumpi\n        /* \"#utility.yul\":1579:1658   */\n      tag_75\n      tag_72\n      jump\t// in\n    tag_75:\n        /* \"#utility.yul\":1543:1660   */\n    tag_74:\n        /* \"#utility.yul\":1684:1747   */\n      tag_76\n        /* \"#utility.yul\":1739:1746   */\n      dup6\n        /* \"#utility.yul\":1730:1736   */\n      dup3\n        /* \"#utility.yul\":1719:1728   */\n      dup7\n        /* \"#utility.yul\":1715:1737   */\n      add\n        /* \"#utility.yul\":1684:1747   */\n      tag_56\n      jump\t// in\n    tag_76:\n        /* \"#utility.yul\":1674:1747   */\n      swap2\n      pop\n        /* \"#utility.yul\":1469:1757   */\n      pop\n        /* \"#utility.yul\":930:1764   */\n      swap3\n      pop\n      swap3\n      swap1\n      pop\n      jump\t// out\n        /* \"#utility.yul\":1770:2099   */\n    tag_13:\n        /* \"#utility.yul\":1829:1835   */\n      0x00\n        /* \"#utility.yul\":1878:1880   */\n      0x20\n        /* \"#utility.yul\":1866:1875   */\n      dup3\n        /* \"#utility.yul\":1857:1864   */\n      dup5\n        /* \"#utility.yul\":1853:1876   */\n      sub\n        /* \"#utility.yul\":1849:1881   */\n      slt\n        /* \"#utility.yul\":1846:1965   */\n      iszero\n      tag_78\n      jumpi\n        /* \"#utility.yul\":1884:1963   */\n      tag_79\n      tag_69\n      jump\t// in\n    tag_79:\n        /* \"#utility.yul\":1846:1965   */\n    tag_78:\n        /* \"#utility.yul\":2004:2005   */\n      0x00\n        /* \"#utility.yul\":2029:2082   */\n      tag_80\n        /* \"#utility.yul\":2074:2081   */\n      dup5\n        /* \"#utility.yul\":2065:2071   */\n      dup3\n        /* \"#utility.yul\":2054:2063   */\n      dup6\n        /* \"#utility.yul\":2050:2072   */\n      add\n        /* \"#utility.yul\":2029:2082   */\n      tag_62\n      jump\t// in\n    tag_80:\n        /* \"#utility.yul\":2019:2082   */\n      swap2\n      pop\n        /* \"#utility.yul\":1975:2092   */\n      pop\n        /* \"#utility.yul\":1770:2099   */\n      swap3\n      swap2\n      pop\n      pop\n      jump\t// out\n        /* \"#utility.yul\":2105:2214   */\n    tag_81:\n        /* \"#utility.yul\":2186:2207   */\n      tag_83\n        /* \"#utility.yul\":2201:2206   */\n      dup2\n        /* \"#utility.yul\":2186:2207   */\n      tag_84\n      jump\t// in\n    tag_83:\n        /* \"#utility.yul\":2181:2184   */\n      dup3\n        /* \"#utility.yul\":2174:2208   */\n      mstore\n        /* \"#utility.yul\":2105:2214   */\n      pop\n      pop\n      jump\t// out\n        /* \"#utility.yul\":2220:2584   */\n    tag_85:\n        /* \"#utility.yul\":2308:2311   */\n      0x00\n        /* \"#utility.yul\":2336:2375   */\n      tag_87\n        /* \"#utility.yul\":2369:2374   */\n      dup3\n        /* \"#utility.yul\":2336:2375   */\n      tag_88\n      jump\t// in\n    tag_87:\n        /* \"#utility.yul\":2391:2462   */\n      tag_89\n        /* \"#utility.yul\":2455:2461   */\n      dup2\n        /* \"#utility.yul\":2450:2453   */\n      dup6\n        /* \"#utility.yul\":2391:2462   */\n      tag_90\n      jump\t// in\n    tag_89:\n        /* \"#utility.yul\":2384:2462   */\n      swap4\n      pop\n        /* \"#utility.yul\":2471:2523   */\n      tag_91\n        /* \"#utility.yul\":2516:2522   */\n      dup2\n        /* \"#utility.yul\":2511:2514   */\n      dup6\n        /* \"#utility.yul\":2504:2508   */\n      0x20\n        /* \"#utility.yul\":2497:2502   */\n      dup7\n        /* \"#utility.yul\":2493:2509   */\n      add\n        /* \"#utility.yul\":2471:2523   */\n      tag_92\n      jump\t// in\n    tag_91:\n        /* \"#utility.yul\":2548:2577   */\n      tag_93\n        /* \"#utility.yul\":2570:2576   */\n      dup2\n        /* \"#utility.yul\":2548:2577   */\n      tag_94\n      jump\t// in\n    tag_93:\n        /* \"#utility.yul\":2543:2546   */\n      dup5\n        /* \"#utility.yul\":2539:2578   */\n      add\n        /* \"#utility.yul\":2532:2578   */\n      swap2\n      pop\n        /* \"#utility.yul\":2312:2584   */\n      pop\n        /* \"#utility.yul\":2220:2584   */\n      swap3\n      swap2\n      pop\n      pop\n      jump\t// out\n        /* \"#utility.yul\":2590:2903   */\n    tag_10:\n        /* \"#utility.yul\":2703:2707   */\n      0x00\n        /* \"#utility.yul\":2741:2743   */\n      0x20\n        /* \"#utility.yul\":2730:2739   */\n      dup3\n        /* \"#utility.yul\":2726:2744   */\n      add\n        /* \"#utility.yul\":2718:2744   */\n      swap1\n      pop\n        /* \"#utility.yul\":2790:2799   */\n      dup2\n        /* \"#utility.yul\":2784:2788   */\n      dup2\n        /* \"#utility.yul\":2780:2800   */\n      sub\n        /* \"#utility.yul\":2776:2777   */\n      0x00\n        /* \"#utility.yul\":2765:2774   */\n      dup4\n        /* \"#utility.yul\":2761:2778   */\n      add\n        /* \"#utility.yul\":2754:2801   */\n      mstore\n        /* \"#utility.yul\":2818:2896   */\n      tag_96\n        /* \"#utility.yul\":2891:2895   */\n      dup2\n        /* \"#utility.yul\":2882:2888   */\n      dup5\n        /* \"#utility.yul\":2818:2896   */\n      tag_85\n      jump\t// in\n    tag_96:\n        /* \"#utility.yul\":2810:2896   */\n      swap1\n      pop\n        /* \"#utility.yul\":2590:2903   */\n      swap3\n      swap2\n      pop\n      pop\n      jump\t// out\n        /* \"#utility.yul\":2909:3521   */\n    tag_16:\n        /* \"#utility.yul\":3092:3096   */\n      0x00\n        /* \"#utility.yul\":3130:3132   */\n      0x60\n        /* \"#utility.yul\":3119:3128   */\n      dup3\n        /* \"#utility.yul\":3115:3133   */\n      add\n        /* \"#utility.yul\":3107:3133   */\n      swap1\n      pop\n        /* \"#utility.yul\":3179:3188   */\n      dup2\n        /* \"#utility.yul\":3173:3177   */\n      dup2\n        /* \"#utility.yul\":3169:3189   */\n      sub\n        /* \"#utility.yul\":3165:3166   */\n      0x00\n        /* \"#utility.yul\":3154:3163   */\n      dup4\n        /* \"#utility.yul\":3150:3167   */\n      add\n        /* \"#utility.yul\":3143:3190   */\n      mstore\n        /* \"#utility.yul\":3207:3285   */\n      tag_98\n        /* \"#utility.yul\":3280:3284   */\n      dup2\n        /* \"#utility.yul\":3271:3277   */\n      dup7\n        /* \"#utility.yul\":3207:3285   */\n      tag_85\n      jump\t// in\n    tag_98:\n        /* \"#utility.yul\":3199:3285   */\n      swap1\n      pop\n        /* \"#utility.yul\":3332:3341   */\n      dup2\n        /* \"#utility.yul\":3326:3330   */\n      dup2\n        /* \"#utility.yul\":3322:3342   */\n      sub\n        /* \"#utility.yul\":3317:3319   */\n      0x20\n        /* \"#utility.yul\":3306:3315   */\n      dup4\n        /* \"#utility.yul\":3302:3320   */\n      add\n        /* \"#utility.yul\":3295:3343   */\n      mstore\n        /* \"#utility.yul\":3360:3438   */\n      tag_99\n        /* \"#utility.yul\":3433:3437   */\n      dup2\n        /* \"#utility.yul\":3424:3430   */\n      dup6\n        /* \"#utility.yul\":3360:3438   */\n      tag_85\n      jump\t// in\n    tag_99:\n        /* \"#utility.yul\":3352:3438   */\n      swap1\n      pop\n        /* \"#utility.yul\":3448:3514   */\n      tag_100\n        /* \"#utility.yul\":3510:3512   */\n      0x40\n        /* \"#utility.yul\":3499:3508   */\n      dup4\n        /* \"#utility.yul\":3495:3513   */\n      add\n        /* \"#utility.yul\":3486:3492   */\n      dup5\n        /* \"#utility.yul\":3448:3514   */\n      tag_81\n      jump\t// in\n    tag_100:\n        /* \"#utility.yul\":2909:3521   */\n      swap5\n      swap4\n      pop\n      pop\n      pop\n      pop\n      jump\t// out\n        /* \"#utility.yul\":3527:3656   */\n    tag_50:\n        /* \"#utility.yul\":3561:3567   */\n      0x00\n        /* \"#utility.yul\":3588:3608   */\n      tag_102\n      tag_103\n      jump\t// in\n    tag_102:\n        /* \"#utility.yul\":3578:3608   */\n      swap1\n      pop\n        /* \"#utility.yul\":3617:3650   */\n      tag_104\n        /* \"#utility.yul\":3645:3649   */\n      dup3\n        /* \"#utility.yul\":3637:3643   */\n      dup3\n        /* \"#utility.yul\":3617:3650   */\n      tag_105\n      jump\t// in\n    tag_104:\n        /* \"#utility.yul\":3527:3656   */\n      swap2\n      swap1\n      pop\n      jump\t// out\n        /* \"#utility.yul\":3662:3737   */\n    tag_103:\n        /* \"#utility.yul\":3695:3701   */\n      0x00\n        /* \"#utility.yul\":3728:3730   */\n      0x40\n        /* \"#utility.yul\":3722:3731   */\n      mload\n        /* \"#utility.yul\":3712:3731   */\n      swap1\n      pop\n        /* \"#utility.yul\":3662:3737   */\n      swap1\n      jump\t// out\n        /* \"#utility.yul\":3743:4051   */\n    tag_49:\n        /* \"#utility.yul\":3805:3809   */\n      0x00\n        /* \"#utility.yul\":3895:3913   */\n      0xffffffffffffffff\n        /* \"#utility.yul\":3887:3893   */\n      dup3\n        /* \"#utility.yul\":3884:3914   */\n      gt\n        /* \"#utility.yul\":3881:3937   */\n      iszero\n      tag_108\n      jumpi\n        /* \"#utility.yul\":3917:3935   */\n      tag_109\n      tag_110\n      jump\t// in\n    tag_109:\n        /* \"#utility.yul\":3881:3937   */\n    tag_108:\n        /* \"#utility.yul\":3955:3984   */\n      tag_111\n        /* \"#utility.yul\":3977:3983   */\n      dup3\n        /* \"#utility.yul\":3955:3984   */\n      tag_94\n      jump\t// in\n    tag_111:\n        /* \"#utility.yul\":3947:3984   */\n      swap1\n      pop\n        /* \"#utility.yul\":4039:4043   */\n      0x20\n        /* \"#utility.yul\":4033:4037   */\n      dup2\n        /* \"#utility.yul\":4029:4044   */\n      add\n        /* \"#utility.yul\":4021:4044   */\n      swap1\n      pop\n        /* \"#utility.yul\":3743:4051   */\n      swap2\n      swap1\n      pop\n      jump\t// out\n        /* \"#utility.yul\":4057:4156   */\n    tag_88:\n        /* \"#utility.yul\":4109:4115   */\n      0x00\n        /* \"#utility.yul\":4143:4148   */\n      dup2\n        /* \"#utility.yul\":4137:4149   */\n      mload\n        /* \"#utility.yul\":4127:4149   */\n      swap1\n      pop\n        /* \"#utility.yul\":4057:4156   */\n      swap2\n      swap1\n      pop\n      jump\t// out\n        /* \"#utility.yul\":4162:4331   */\n    tag_90:\n        /* \"#utility.yul\":4246:4257   */\n      0x00\n        /* \"#utility.yul\":4280:4286   */\n      dup3\n        /* \"#utility.yul\":4275:4278   */\n      dup3\n        /* \"#utility.yul\":4268:4287   */\n      mstore\n        /* \"#utility.yul\":4320:4324   */\n      0x20\n        /* \"#utility.yul\":4315:4318   */\n      dup3\n        /* \"#utility.yul\":4311:4325   */\n      add\n        /* \"#utility.yul\":4296:4325   */\n      swap1\n      pop\n        /* \"#utility.yul\":4162:4331   */\n      swap3\n      swap2\n      pop\n      pop\n      jump\t// out\n        /* \"#utility.yul\":4337:4427   */\n    tag_84:\n        /* \"#utility.yul\":4371:4378   */\n      0x00\n        /* \"#utility.yul\":4414:4419   */\n      dup2\n        /* \"#utility.yul\":4407:4420   */\n      iszero\n        /* \"#utility.yul\":4400:4421   */\n      iszero\n        /* \"#utility.yul\":4389:4421   */\n      swap1\n      pop\n        /* \"#utility.yul\":4337:4427   */\n      swap2\n      swap1\n      pop\n      jump\t// out\n        /* \"#utility.yul\":4433:4510   */\n    tag_115:\n        /* \"#utility.yul\":4470:4477   */\n      0x00\n        /* \"#utility.yul\":4499:4504   */\n      dup2\n        /* \"#utility.yul\":4488:4504   */\n      swap1\n      pop\n        /* \"#utility.yul\":4433:4510   */\n      swap2\n      swap1\n      pop\n      jump\t// out\n        /* \"#utility.yul\":4516:4670   */\n    tag_55:\n        /* \"#utility.yul\":4600:4606   */\n      dup3\n        /* \"#utility.yul\":4595:4598   */\n      dup2\n        /* \"#utility.yul\":4590:4593   */\n      dup4\n        /* \"#utility.yul\":4577:4607   */\n      calldatacopy\n        /* \"#utility.yul\":4662:4663   */\n      0x00\n        /* \"#utility.yul\":4653:4659   */\n      dup4\n        /* \"#utility.yul\":4648:4651   */\n      dup4\n        /* \"#utility.yul\":4644:4660   */\n      add\n        /* \"#utility.yul\":4637:4664   */\n      mstore\n        /* \"#utility.yul\":4516:4670   */\n      pop\n      pop\n      pop\n      jump\t// out\n        /* \"#utility.yul\":4676:4983   */\n    tag_92:\n        /* \"#utility.yul\":4744:4745   */\n      0x00\n        /* \"#utility.yul\":4754:4867   */\n    tag_119:\n        /* \"#utility.yul\":4768:4774   */\n      dup4\n        /* \"#utility.yul\":4765:4766   */\n      dup2\n        /* \"#utility.yul\":4762:4775   */\n      lt\n        /* \"#utility.yul\":4754:4867   */\n      iszero\n      tag_121\n      jumpi\n        /* \"#utility.yul\":4853:4854   */\n      dup1\n        /* \"#utility.yul\":4848:4851   */\n      dup3\n        /* \"#utility.yul\":4844:4855   */\n      add\n        /* \"#utility.yul\":4838:4856   */\n      mload\n        /* \"#utility.yul\":4834:4835   */\n      dup2\n        /* \"#utility.yul\":4829:4832   */\n      dup5\n        /* \"#utility.yul\":4825:4836   */\n      add\n        /* \"#utility.yul\":4818:4857   */\n      mstore\n        /* \"#utility.yul\":4790:4792   */\n      0x20\n        /* \"#utility.yul\":4787:4788   */\n      dup2\n        /* \"#utility.yul\":4783:4793   */\n      add\n        /* \"#utility.yul\":4778:4793   */\n      swap1\n      pop\n        /* \"#utility.yul\":4754:4867   */\n      jump(tag_119)\n    tag_121:\n        /* \"#utility.yul\":4885:4891   */\n      dup4\n        /* \"#utility.yul\":4882:4883   */\n      dup2\n        /* \"#utility.yul\":4879:4892   */\n      gt\n        /* \"#utility.yul\":4876:4977   */\n      iszero\n      tag_122\n      jumpi\n        /* \"#utility.yul\":4965:4966   */\n      0x00\n        /* \"#utility.yul\":4956:4962   */\n      dup5\n        /* \"#utility.yul\":4951:4954   */\n      dup5\n        /* \"#utility.yul\":4947:4963   */\n      add\n        /* \"#utility.yul\":4940:4967   */\n      mstore\n        /* \"#utility.yul\":4876:4977   */\n    tag_122:\n        /* \"#utility.yul\":4725:4983   */\n      pop\n        /* \"#utility.yul\":4676:4983   */\n      pop\n      pop\n      pop\n      jump\t// out\n        /* \"#utility.yul\":4989:5309   */\n    tag_24:\n        /* \"#utility.yul\":5033:5039   */\n      0x00\n        /* \"#utility.yul\":5070:5071   */\n      0x02\n        /* \"#utility.yul\":5064:5068   */\n      dup3\n        /* \"#utility.yul\":5060:5072   */\n      div\n        /* \"#utility.yul\":5050:5072   */\n      swap1\n      pop\n        /* \"#utility.yul\":5117:5118   */\n      0x01\n        /* \"#utility.yul\":5111:5115   */\n      dup3\n        /* \"#utility.yul\":5107:5119   */\n      and\n        /* \"#utility.yul\":5138:5156   */\n      dup1\n        /* \"#utility.yul\":5128:5209   */\n      tag_124\n      jumpi\n        /* \"#utility.yul\":5194:5198   */\n      0x7f\n        /* \"#utility.yul\":5186:5192   */\n      dup3\n        /* \"#utility.yul\":5182:5199   */\n      and\n        /* \"#utility.yul\":5172:5199   */\n      swap2\n      pop\n        /* \"#utility.yul\":5128:5209   */\n    tag_124:\n        /* \"#utility.yul\":5256:5258   */\n      0x20\n        /* \"#utility.yul\":5248:5254   */\n      dup3\n        /* \"#utility.yul\":5245:5259   */\n      lt\n        /* \"#utility.yul\":5225:5243   */\n      dup2\n        /* \"#utility.yul\":5222:5260   */\n      eq\n        /* \"#utility.yul\":5219:5303   */\n      iszero\n      tag_125\n      jumpi\n        /* \"#utility.yul\":5275:5293   */\n      tag_126\n      tag_127\n      jump\t// in\n    tag_126:\n        /* \"#utility.yul\":5219:5303   */\n    tag_125:\n        /* \"#utility.yul\":5040:5309   */\n      pop\n        /* \"#utility.yul\":4989:5309   */\n      swap2\n      swap1\n      pop\n      jump\t// out\n        /* \"#utility.yul\":5315:5596   */\n    tag_105:\n        /* \"#utility.yul\":5398:5425   */\n      tag_129\n        /* \"#utility.yul\":5420:5424   */\n      dup3\n        /* \"#utility.yul\":5398:5425   */\n      tag_94\n      jump\t// in\n    tag_129:\n        /* \"#utility.yul\":5390:5396   */\n      dup2\n        /* \"#utility.yul\":5386:5426   */\n      add\n        /* \"#utility.yul\":5528:5534   */\n      dup2\n        /* \"#utility.yul\":5516:5526   */\n      dup2\n        /* \"#utility.yul\":5513:5535   */\n      lt\n        /* \"#utility.yul\":5492:5510   */\n      0xffffffffffffffff\n        /* \"#utility.yul\":5480:5490   */\n      dup3\n        /* \"#utility.yul\":5477:5511   */\n      gt\n        /* \"#utility.yul\":5474:5536   */\n      or\n        /* \"#utility.yul\":5471:5559   */\n      iszero\n      tag_130\n      jumpi\n        /* \"#utility.yul\":5539:5557   */\n      tag_131\n      tag_110\n      jump\t// in\n    tag_131:\n        /* \"#utility.yul\":5471:5559   */\n    tag_130:\n        /* \"#utility.yul\":5579:5589   */\n      dup1\n        /* \"#utility.yul\":5575:5577   */\n      0x40\n        /* \"#utility.yul\":5568:5590   */\n      mstore\n        /* \"#utility.yul\":5358:5596   */\n      pop\n        /* \"#utility.yul\":5315:5596   */\n      pop\n      pop\n      jump\t// out\n        /* \"#utility.yul\":5602:5835   */\n    tag_19:\n        /* \"#utility.yul\":5641:5644   */\n      0x00\n        /* \"#utility.yul\":5664:5688   */\n      tag_133\n        /* \"#utility.yul\":5682:5687   */\n      dup3\n        /* \"#utility.yul\":5664:5688   */\n      tag_115\n      jump\t// in\n    tag_133:\n        /* \"#utility.yul\":5655:5688   */\n      swap2\n      pop\n        /* \"#utility.yul\":5710:5776   */\n      0xffffffffffffffffffffffffffffffffffffffffffffffffffffffffffffffff\n        /* \"#utility.yul\":5703:5708   */\n      dup3\n        /* \"#utility.yul\":5700:5777   */\n      eq\n        /* \"#utility.yul\":5697:5800   */\n      iszero\n      tag_134\n      jumpi\n        /* \"#utility.yul\":5780:5798   */\n      tag_135\n      tag_136\n      jump\t// in\n    tag_135:\n        /* \"#utility.yul\":5697:5800   */\n    tag_134:\n        /* \"#utility.yul\":5827:5828   */\n      0x01\n        /* \"#utility.yul\":5820:5825   */\n      dup3\n        /* \"#utility.yul\":5816:5829   */\n      add\n        /* \"#utility.yul\":5809:5829   */\n      swap1\n      pop\n        /* \"#utility.yul\":5602:5835   */\n      swap2\n      swap1\n      pop\n      jump\t// out\n        /* \"#utility.yul\":5841:6021   */\n    tag_136:\n        /* \"#utility.yul\":5889:5966   */\n      0x4e487b7100000000000000000000000000000000000000000000000000000000\n        /* \"#utility.yul\":5886:5887   */\n      0x00\n        /* \"#utility.yul\":5879:5967   */\n      mstore\n        /* \"#utility.yul\":5986:5990   */\n      0x11\n        /* \"#utility.yul\":5983:5984   */\n      0x04\n        /* \"#utility.yul\":5976:5991   */\n      mstore\n        /* \"#utility.yul\":6010:6014   */\n      0x24\n        /* \"#utility.yul\":6007:6008   */\n      0x00\n        /* \"#utility.yul\":6000:6015   */\n      revert\n        /* \"#utility.yul\":6027:6207   */\n    tag_127:\n        /* \"#utility.yul\":6075:6152   */\n      0x4e487b7100000000000000000000000000000000000000000000000000000000\n        /* \"#utility.yul\":6072:6073   */\n      0x00\n        /* \"#utility.yul\":6065:6153   */\n      mstore\n        /* \"#utility.yul\":6172:6176   */\n      0x22\n        /* \"#utility.yul\":6169:6170   */\n      0x04\n        /* \"#utility.yul\":6162:6177   */\n      mstore\n        /* \"#utility.yul\":6196:6200   */\n      0x24\n        /* \"#utility.yul\":6193:6194   */\n      0x00\n        /* \"#utility.yul\":6186:6201   */\n      revert\n        /* \"#utility.yul\":6213:6393   */\n    tag_110:\n        /* \"#utility.yul\":6261:6338   */\n      0x4e487b7100000000000000000000000000000000000000000000000000000000\n        /* \"#utility.yul\":6258:6259   */\n      0x00\n        /* \"#utility.yul\":6251:6339   */\n      mstore\n        /* \"#utility.yul\":6358:6362   */\n      0x41\n        /* \"#utility.yul\":6355:6356   */\n      0x04\n        /* \"#utility.yul\":6348:6363   */\n      mstore\n        /* \"#utility.yul\":6382:6386   */\n      0x24\n        /* \"#utility.yul\":6379:6380   */\n      0x00\n        /* \"#utility.yul\":6372:6387   */\n      revert\n        /* \"#utility.yul\":6399:6516   */\n    tag_60:\n        /* \"#utility.yul\":6508:6509   */\n      0x00\n        /* \"#utility.yul\":6505:6506   */\n      dup1\n        /* \"#utility.yul\":6498:6510   */\n      revert\n        /* \"#utility.yul\":6522:6639   */\n    tag_53:\n        /* \"#utility.yul\":6631:6632   */\n      0x00\n        /* \"#utility.yul\":6628:6629   */\n      dup1\n        /* \"#utility.yul\":6621:6633   */\n      revert\n        /* \"#utility.yul\":6645:6762   */\n    tag_72:\n        /* \"#utility.yul\":6754:6755   */\n      0x00\n        /* \"#utility.yul\":6751:6752   */\n      dup1\n        /* \"#utility.yul\":6744:6756   */\n      revert\n        /* \"#utility.yul\":6768:6885   */\n    tag_69:\n        /* \"#utility.yul\":6877:6878   */\n      0x00\n        /* \"#utility.yul\":6874:6875   */\n      dup1\n        /* \"#utility.yul\":6867:6879   */\n      revert\n        /* \"#utility.yul\":6891:6993   */\n    tag_94:\n        /* \"#utility.yul\":6932:6938   */\n      0x00\n        /* \"#utility.yul\":6983:6985   */\n      0x1f\n        /* \"#utility.yul\":6979:6986   */\n      not\n        /* \"#utility.yul\":6974:6976   */\n      0x1f\n        /* \"#utility.yul\":6967:6972   */\n      dup4\n        /* \"#utility.yul\":6963:6977   */\n      add\n        /* \"#utility.yul\":6959:6987   */\n      and\n        /* \"#utility.yul\":6949:6987   */\n      swap1\n      pop\n        /* \"#utility.yul\":6891:6993   */\n      swap2\n      swap1\n      pop\n      jump\t// out\n        /* \"#utility.yul\":6999:7121   */\n    tag_65:\n        /* \"#utility.yul\":7072:7096   */\n      tag_146\n        /* \"#utility.yul\":7090:7095   */\n      dup2\n        /* \"#utility.yul\":7072:7096   */\n      tag_115\n      jump\t// in\n    tag_146:\n        /* \"#utility.yul\":7065:7070   */\n      dup2\n        /* \"#utility.yul\":7062:7097   */\n      eq\n        /* \"#utility.yul\":7052:7115   */\n      tag_147\n      jumpi\n        /* \"#utility.yul\":7111:7112   */\n      0x00\n        /* \"#utility.yul\":7108:7109   */\n      dup1\n        /* \"#utility.yul\":7101:7113   */\n      revert\n        /* \"#utility.yul\":7052:7115   */\n    tag_147:\n        /* \"#utility.yul\":6999:7121   */\n      pop\n      jump\t// out\n    stop\n    data_346ae9e229890c1b5467b3280ac50efb3a563831aa4e9bb9392fe53f7d7de7e2 596f752077696c6c20626520616464656420746f2063616e646964617465206c697374206f6e636520796f75206172652076616c696461746564206279207468652061646d696e\n\n    auxdata: 0xa2646970667358221220c24be67cfea8a68a9c3554764d86f5f21d87eed4d6a43af127c1efc3d724839c64736f6c63430008070033\n}\n",
				"bytecode": {
					"linkReferences": {},
					"object": "608060405234801561001057600080fd5b5033600360006101000a81548173ffffffffffffffffffffffffffffffffffffffff021916908373ffffffffffffffffffffffffffffffffffffffff1602179055506107e9806100616000396000f3fe608060405234801561001057600080fd5b50600436106100365760003560e01c806317678bc31461003b578063b0d188141461006b575b600080fd5b610055600480360381019061005091906103d9565b61009d565b60405161006291906104c6565b60405180910390f35b61008560048036038101906100809190610451565b61016a565b604051610094939291906104e8565b60405180910390f35b60606000600160008154809291906100b49061065a565b9190505590506040518060600160405280858152602001848152602001600015158152506004600083815260200190815260200160002060008201518160000190805190602001906101079291906102b1565b5060208201518160010190805190602001906101249291906102b1565b5060408201518160020160006101000a81548160ff02191690831515021790555090505060405180608001604052806047815260200161076d6047913991505092915050565b600560205280600052604060002060009150905080600001805461018d906105f7565b80601f01602080910402602001604051908101604052809291908181526020018280546101b9906105f7565b80156102065780601f106101db57610100808354040283529160200191610206565b820191906000526020600020905b8154815290600101906020018083116101e957829003601f168201915b50505050509080600101805461021b906105f7565b80601f0160208091040260200160405190810160405280929190818152602001828054610247906105f7565b80156102945780601f1061026957610100808354040283529160200191610294565b820191906000526020600020905b81548152906001019060200180831161027757829003601f168201915b5050505050908060020160009054906101000a900460ff16905083565b8280546102bd906105f7565b90600052602060002090601f0160209004810192826102df5760008555610326565b82601f106102f857805160ff1916838001178555610326565b82800160010185558215610326579182015b8281111561032557825182559160200191906001019061030a565b5b5090506103339190610337565b5090565b5b80821115610350576000816000905550600101610338565b5090565b600061036761036284610552565b61052d565b90508281526020810184848401111561038357610382610735565b5b61038e8482856105b5565b509392505050565b600082601f8301126103ab576103aa610730565b5b81356103bb848260208601610354565b91505092915050565b6000813590506103d381610755565b92915050565b600080604083850312156103f0576103ef61073f565b5b600083013567ffffffffffffffff81111561040e5761040d61073a565b5b61041a85828601610396565b925050602083013567ffffffffffffffff81111561043b5761043a61073a565b5b61044785828601610396565b9150509250929050565b6000602082840312156104675761046661073f565b5b6000610475848285016103c4565b91505092915050565b6104878161059f565b82525050565b600061049882610583565b6104a2818561058e565b93506104b28185602086016105c4565b6104bb81610744565b840191505092915050565b600060208201905081810360008301526104e0818461048d565b905092915050565b60006060820190508181036000830152610502818661048d565b90508181036020830152610516818561048d565b9050610525604083018461047e565b949350505050565b6000610537610548565b90506105438282610629565b919050565b6000604051905090565b600067ffffffffffffffff82111561056d5761056c610701565b5b61057682610744565b9050602081019050919050565b600081519050919050565b600082825260208201905092915050565b60008115159050919050565b6000819050919050565b82818337600083830152505050565b60005b838110156105e25780820151818401526020810190506105c7565b838111156105f1576000848401525b50505050565b6000600282049050600182168061060f57607f821691505b60208210811415610623576106226106d2565b5b50919050565b61063282610744565b810181811067ffffffffffffffff8211171561065157610650610701565b5b80604052505050565b6000610665826105ab565b91507fffffffffffffffffffffffffffffffffffffffffffffffffffffffffffffffff821415610698576106976106a3565b5b600182019050919050565b7f4e487b7100000000000000000000000000000000000000000000000000000000600052601160045260246000fd5b7f4e487b7100000000000000000000000000000000000000000000000000000000600052602260045260246000fd5b7f4e487b7100000000000000000000000000000000000000000000000000000000600052604160045260246000fd5b600080fd5b600080fd5b600080fd5b600080fd5b6000601f19601f8301169050919050565b61075e816105ab565b811461076957600080fd5b5056fe596f752077696c6c20626520616464656420746f2063616e646964617465206c697374206f6e636520796f75206172652076616c696461746564206279207468652061646d696ea2646970667358221220c24be67cfea8a68a9c3554764d86f5f21d87eed4d6a43af127c1efc3d724839c64736f6c63430008070033",
					"opcodes": "PUSH1 0x80 PUSH1 0x40 MSTORE CALLVALUE DUP1 ISZERO PUSH2 0x10 JUMPI PUSH1 0x0 DUP1 REVERT JUMPDEST POP CALLER PUSH1 0x3 PUSH1 0x0 PUSH2 0x100 EXP DUP2 SLOAD DUP2 PUSH20 0xFFFFFFFFFFFFFFFFFFFFFFFFFFFFFFFFFFFFFFFF MUL NOT AND SWAP1 DUP4 PUSH20 0xFFFFFFFFFFFFFFFFFFFFFFFFFFFFFFFFFFFFFFFF AND MUL OR SWAP1 SSTORE POP PUSH2 0x7E9 DUP1 PUSH2 0x61 PUSH1 0x0 CODECOPY PUSH1 0x0 RETURN INVALID PUSH1 0x80 PUSH1 0x40 MSTORE CALLVALUE DUP1 ISZERO PUSH2 0x10 JUMPI PUSH1 0x0 DUP1 REVERT JUMPDEST POP PUSH1 0x4 CALLDATASIZE LT PUSH2 0x36 JUMPI PUSH1 0x0 CALLDATALOAD PUSH1 0xE0 SHR DUP1 PUSH4 0x17678BC3 EQ PUSH2 0x3B JUMPI DUP1 PUSH4 0xB0D18814 EQ PUSH2 0x6B JUMPI JUMPDEST PUSH1 0x0 DUP1 REVERT JUMPDEST PUSH2 0x55 PUSH1 0x4 DUP1 CALLDATASIZE SUB DUP2 ADD SWAP1 PUSH2 0x50 SWAP2 SWAP1 PUSH2 0x3D9 JUMP JUMPDEST PUSH2 0x9D JUMP JUMPDEST PUSH1 0x40 MLOAD PUSH2 0x62 SWAP2 SWAP1 PUSH2 0x4C6 JUMP JUMPDEST PUSH1 0x40 MLOAD DUP1 SWAP2 SUB SWAP1 RETURN JUMPDEST PUSH2 0x85 PUSH1 0x4 DUP1 CALLDATASIZE SUB DUP2 ADD SWAP1 PUSH2 0x80 SWAP2 SWAP1 PUSH2 0x451 JUMP JUMPDEST PUSH2 0x16A JUMP JUMPDEST PUSH1 0x40 MLOAD PUSH2 0x94 SWAP4 SWAP3 SWAP2 SWAP1 PUSH2 0x4E8 JUMP JUMPDEST PUSH1 0x40 MLOAD DUP1 SWAP2 SUB SWAP1 RETURN JUMPDEST PUSH1 0x60 PUSH1 0x0 PUSH1 0x1 PUSH1 0x0 DUP2 SLOAD DUP1 SWAP3 SWAP2 SWAP1 PUSH2 0xB4 SWAP1 PUSH2 0x65A JUMP JUMPDEST SWAP2 SWAP1 POP SSTORE SWAP1 POP PUSH1 0x40 MLOAD DUP1 PUSH1 0x60 ADD PUSH1 0x40 MSTORE DUP1 DUP6 DUP2 MSTORE PUSH1 0x20 ADD DUP5 DUP2 MSTORE PUSH1 0x20 ADD PUSH1 0x0 ISZERO ISZERO DUP2 MSTORE POP PUSH1 0x4 PUSH1 0x0 DUP4 DUP2 MSTORE PUSH1 0x20 ADD SWAP1 DUP2 MSTORE PUSH1 0x20 ADD PUSH1 0x0 KECCAK256 PUSH1 0x0 DUP3 ADD MLOAD DUP2 PUSH1 0x0 ADD SWAP1 DUP1 MLOAD SWAP1 PUSH1 0x20 ADD SWAP1 PUSH2 0x107 SWAP3 SWAP2 SWAP1 PUSH2 0x2B1 JUMP JUMPDEST POP PUSH1 0x20 DUP3 ADD MLOAD DUP2 PUSH1 0x1 ADD SWAP1 DUP1 MLOAD SWAP1 PUSH1 0x20 ADD SWAP1 PUSH2 0x124 SWAP3 SWAP2 SWAP1 PUSH2 0x2B1 JUMP JUMPDEST POP PUSH1 0x40 DUP3 ADD MLOAD DUP2 PUSH1 0x2 ADD PUSH1 0x0 PUSH2 0x100 EXP DUP2 SLOAD DUP2 PUSH1 0xFF MUL NOT AND SWAP1 DUP4 ISZERO ISZERO MUL OR SWAP1 SSTORE POP SWAP1 POP POP PUSH1 0x40 MLOAD DUP1 PUSH1 0x80 ADD PUSH1 0x40 MSTORE DUP1 PUSH1 0x47 DUP2 MSTORE PUSH1 0x20 ADD PUSH2 0x76D PUSH1 0x47 SWAP2 CODECOPY SWAP2 POP POP SWAP3 SWAP2 POP POP JUMP JUMPDEST PUSH1 0x5 PUSH1 0x20 MSTORE DUP1 PUSH1 0x0 MSTORE PUSH1 0x40 PUSH1 0x0 KECCAK256 PUSH1 0x0 SWAP2 POP SWAP1 POP DUP1 PUSH1 0x0 ADD DUP1 SLOAD PUSH2 0x18D SWAP1 PUSH2 0x5F7 JUMP JUMPDEST DUP1 PUSH1 0x1F ADD PUSH1 0x20 DUP1 SWAP2 DIV MUL PUSH1 0x20 ADD PUSH1 0x40 MLOAD SWAP1 DUP2 ADD PUSH1 0x40 MSTORE DUP1 SWAP3 SWAP2 SWAP1 DUP2 DUP2 MSTORE PUSH1 0x20 ADD DUP3 DUP1 SLOAD PUSH2 0x1B9 SWAP1 PUSH2 0x5F7 JUMP JUMPDEST DUP1 ISZERO PUSH2 0x206 JUMPI DUP1 PUSH1 0x1F LT PUSH2 0x1DB JUMPI PUSH2 0x100 DUP1 DUP4 SLOAD DIV MUL DUP4 MSTORE SWAP2 PUSH1 0x20 ADD SWAP2 PUSH2 0x206 JUMP JUMPDEST DUP3 ADD SWAP2 SWAP1 PUSH1 0x0 MSTORE PUSH1 0x20 PUSH1 0x0 KECCAK256 SWAP1 JUMPDEST DUP2 SLOAD DUP2 MSTORE SWAP1 PUSH1 0x1 ADD SWAP1 PUSH1 0x20 ADD DUP1 DUP4 GT PUSH2 0x1E9 JUMPI DUP3 SWAP1 SUB PUSH1 0x1F AND DUP3 ADD SWAP2 JUMPDEST POP POP POP POP POP SWAP1 DUP1 PUSH1 0x1 ADD DUP1 SLOAD PUSH2 0x21B SWAP1 PUSH2 0x5F7 JUMP JUMPDEST DUP1 PUSH1 0x1F ADD PUSH1 0x20 DUP1 SWAP2 DIV MUL PUSH1 0x20 ADD PUSH1 0x40 MLOAD SWAP1 DUP2 ADD PUSH1 0x40 MSTORE DUP1 SWAP3 SWAP2 SWAP1 DUP2 DUP2 MSTORE PUSH1 0x20 ADD DUP3 DUP1 SLOAD PUSH2 0x247 SWAP1 PUSH2 0x5F7 JUMP JUMPDEST DUP1 ISZERO PUSH2 0x294 JUMPI DUP1 PUSH1 0x1F LT PUSH2 0x269 JUMPI PUSH2 0x100 DUP1 DUP4 SLOAD DIV MUL DUP4 MSTORE SWAP2 PUSH1 0x20 ADD SWAP2 PUSH2 0x294 JUMP JUMPDEST DUP3 ADD SWAP2 SWAP1 PUSH1 0x0 MSTORE PUSH1 0x20 PUSH1 0x0 KECCAK256 SWAP1 JUMPDEST DUP2 SLOAD DUP2 MSTORE SWAP1 PUSH1 0x1 ADD SWAP1 PUSH1 0x20 ADD DUP1 DUP4 GT PUSH2 0x277 JUMPI DUP3 SWAP1 SUB PUSH1 0x1F AND DUP3 ADD SWAP2 JUMPDEST POP POP POP POP POP SWAP1 DUP1 PUSH1 0x2 ADD PUSH1 0x0 SWAP1 SLOAD SWAP1 PUSH2 0x100 EXP SWAP1 DIV PUSH1 0xFF AND SWAP1 POP DUP4 JUMP JUMPDEST DUP3 DUP1 SLOAD PUSH2 0x2BD SWAP1 PUSH2 0x5F7 JUMP JUMPDEST SWAP1 PUSH1 0x0 MSTORE PUSH1 0x20 PUSH1 0x0 KECCAK256 SWAP1 PUSH1 0x1F ADD PUSH1 0x20 SWAP1 DIV DUP2 ADD SWAP3 DUP3 PUSH2 0x2DF JUMPI PUSH1 0x0 DUP6 SSTORE PUSH2 0x326 JUMP JUMPDEST DUP3 PUSH1 0x1F LT PUSH2 0x2F8 JUMPI DUP1 MLOAD PUSH1 0xFF NOT AND DUP4 DUP1 ADD OR DUP6 SSTORE PUSH2 0x326 JUMP JUMPDEST DUP3 DUP1 ADD PUSH1 0x1 ADD DUP6 SSTORE DUP3 ISZERO PUSH2 0x326 JUMPI SWAP2 DUP3 ADD JUMPDEST DUP3 DUP2 GT ISZERO PUSH2 0x325 JUMPI DUP3 MLOAD DUP3 SSTORE SWAP2 PUSH1 0x20 ADD SWAP2 SWAP1 PUSH1 0x1 ADD SWAP1 PUSH2 0x30A JUMP JUMPDEST JUMPDEST POP SWAP1 POP PUSH2 0x333 SWAP2 SWAP1 PUSH2 0x337 JUMP JUMPDEST POP SWAP1 JUMP JUMPDEST JUMPDEST DUP1 DUP3 GT ISZERO PUSH2 0x350 JUMPI PUSH1 0x0 DUP2 PUSH1 0x0 SWAP1 SSTORE POP PUSH1 0x1 ADD PUSH2 0x338 JUMP JUMPDEST POP SWAP1 JUMP JUMPDEST PUSH1 0x0 PUSH2 0x367 PUSH2 0x362 DUP5 PUSH2 0x552 JUMP JUMPDEST PUSH2 0x52D JUMP JUMPDEST SWAP1 POP DUP3 DUP2 MSTORE PUSH1 0x20 DUP2 ADD DUP5 DUP5 DUP5 ADD GT ISZERO PUSH2 0x383 JUMPI PUSH2 0x382 PUSH2 0x735 JUMP JUMPDEST JUMPDEST PUSH2 0x38E DUP5 DUP3 DUP6 PUSH2 0x5B5 JUMP JUMPDEST POP SWAP4 SWAP3 POP POP POP JUMP JUMPDEST PUSH1 0x0 DUP3 PUSH1 0x1F DUP4 ADD SLT PUSH2 0x3AB JUMPI PUSH2 0x3AA PUSH2 0x730 JUMP JUMPDEST JUMPDEST DUP2 CALLDATALOAD PUSH2 0x3BB DUP5 DUP3 PUSH1 0x20 DUP7 ADD PUSH2 0x354 JUMP JUMPDEST SWAP2 POP POP SWAP3 SWAP2 POP POP JUMP JUMPDEST PUSH1 0x0 DUP2 CALLDATALOAD SWAP1 POP PUSH2 0x3D3 DUP2 PUSH2 0x755 JUMP JUMPDEST SWAP3 SWAP2 POP POP JUMP JUMPDEST PUSH1 0x0 DUP1 PUSH1 0x40 DUP4 DUP6 SUB SLT ISZERO PUSH2 0x3F0 JUMPI PUSH2 0x3EF PUSH2 0x73F JUMP JUMPDEST JUMPDEST PUSH1 0x0 DUP4 ADD CALLDATALOAD PUSH8 0xFFFFFFFFFFFFFFFF DUP2 GT ISZERO PUSH2 0x40E JUMPI PUSH2 0x40D PUSH2 0x73A JUMP JUMPDEST JUMPDEST PUSH2 0x41A DUP6 DUP3 DUP7 ADD PUSH2 0x396 JUMP JUMPDEST SWAP3 POP POP PUSH1 0x20 DUP4 ADD CALLDATALOAD PUSH8 0xFFFFFFFFFFFFFFFF DUP2 GT ISZERO PUSH2 0x43B JUMPI PUSH2 0x43A PUSH2 0x73A JUMP JUMPDEST JUMPDEST PUSH2 0x447 DUP6 DUP3 DUP7 ADD PUSH2 0x396 JUMP JUMPDEST SWAP2 POP POP SWAP3 POP SWAP3 SWAP1 POP JUMP JUMPDEST PUSH1 0x0 PUSH1 0x20 DUP3 DUP5 SUB SLT ISZERO PUSH2 0x467 JUMPI PUSH2 0x466 PUSH2 0x73F JUMP JUMPDEST JUMPDEST PUSH1 0x0 PUSH2 0x475 DUP5 DUP3 DUP6 ADD PUSH2 0x3C4 JUMP JUMPDEST SWAP2 POP POP SWAP3 SWAP2 POP POP JUMP JUMPDEST PUSH2 0x487 DUP2 PUSH2 0x59F JUMP JUMPDEST DUP3 MSTORE POP POP JUMP JUMPDEST PUSH1 0x0 PUSH2 0x498 DUP3 PUSH2 0x583 JUMP JUMPDEST PUSH2 0x4A2 DUP2 DUP6 PUSH2 0x58E JUMP JUMPDEST SWAP4 POP PUSH2 0x4B2 DUP2 DUP6 PUSH1 0x20 DUP7 ADD PUSH2 0x5C4 JUMP JUMPDEST PUSH2 0x4BB DUP2 PUSH2 0x744 JUMP JUMPDEST DUP5 ADD SWAP2 POP POP SWAP3 SWAP2 POP POP JUMP JUMPDEST PUSH1 0x0 PUSH1 0x20 DUP3 ADD SWAP1 POP DUP2 DUP2 SUB PUSH1 0x0 DUP4 ADD MSTORE PUSH2 0x4E0 DUP2 DUP5 PUSH2 0x48D JUMP JUMPDEST SWAP1 POP SWAP3 SWAP2 POP POP JUMP JUMPDEST PUSH1 0x0 PUSH1 0x60 DUP3 ADD SWAP1 POP DUP2 DUP2 SUB PUSH1 0x0 DUP4 ADD MSTORE PUSH2 0x502 DUP2 DUP7 PUSH2 0x48D JUMP JUMPDEST SWAP1 POP DUP2 DUP2 SUB PUSH1 0x20 DUP4 ADD MSTORE PUSH2 0x516 DUP2 DUP6 PUSH2 0x48D JUMP JUMPDEST SWAP1 POP PUSH2 0x525 PUSH1 0x40 DUP4 ADD DUP5 PUSH2 0x47E JUMP JUMPDEST SWAP5 SWAP4 POP POP POP POP JUMP JUMPDEST PUSH1 0x0 PUSH2 0x537 PUSH2 0x548 JUMP JUMPDEST SWAP1 POP PUSH2 0x543 DUP3 DUP3 PUSH2 0x629 JUMP JUMPDEST SWAP2 SWAP1 POP JUMP JUMPDEST PUSH1 0x0 PUSH1 0x40 MLOAD SWAP1 POP SWAP1 JUMP JUMPDEST PUSH1 0x0 PUSH8 0xFFFFFFFFFFFFFFFF DUP3 GT ISZERO PUSH2 0x56D JUMPI PUSH2 0x56C PUSH2 0x701 JUMP JUMPDEST JUMPDEST PUSH2 0x576 DUP3 PUSH2 0x744 JUMP JUMPDEST SWAP1 POP PUSH1 0x20 DUP2 ADD SWAP1 POP SWAP2 SWAP1 POP JUMP JUMPDEST PUSH1 0x0 DUP2 MLOAD SWAP1 POP SWAP2 SWAP1 POP JUMP JUMPDEST PUSH1 0x0 DUP3 DUP3 MSTORE PUSH1 0x20 DUP3 ADD SWAP1 POP SWAP3 SWAP2 POP POP JUMP JUMPDEST PUSH1 0x0 DUP2 ISZERO ISZERO SWAP1 POP SWAP2 SWAP1 POP JUMP JUMPDEST PUSH1 0x0 DUP2 SWAP1 POP SWAP2 SWAP1 POP JUMP JUMPDEST DUP3 DUP2 DUP4 CALLDATACOPY PUSH1 0x0 DUP4 DUP4 ADD MSTORE POP POP POP JUMP JUMPDEST PUSH1 0x0 JUMPDEST DUP4 DUP2 LT ISZERO PUSH2 0x5E2 JUMPI DUP1 DUP3 ADD MLOAD DUP2 DUP5 ADD MSTORE PUSH1 0x20 DUP2 ADD SWAP1 POP PUSH2 0x5C7 JUMP JUMPDEST DUP4 DUP2 GT ISZERO PUSH2 0x5F1 JUMPI PUSH1 0x0 DUP5 DUP5 ADD MSTORE JUMPDEST POP POP POP POP JUMP JUMPDEST PUSH1 0x0 PUSH1 0x2 DUP3 DIV SWAP1 POP PUSH1 0x1 DUP3 AND DUP1 PUSH2 0x60F JUMPI PUSH1 0x7F DUP3 AND SWAP2 POP JUMPDEST PUSH1 0x20 DUP3 LT DUP2 EQ ISZERO PUSH2 0x623 JUMPI PUSH2 0x622 PUSH2 0x6D2 JUMP JUMPDEST JUMPDEST POP SWAP2 SWAP1 POP JUMP JUMPDEST PUSH2 0x632 DUP3 PUSH2 0x744 JUMP JUMPDEST DUP2 ADD DUP2 DUP2 LT PUSH8 0xFFFFFFFFFFFFFFFF DUP3 GT OR ISZERO PUSH2 0x651 JUMPI PUSH2 0x650 PUSH2 0x701 JUMP JUMPDEST JUMPDEST DUP1 PUSH1 0x40 MSTORE POP POP POP JUMP JUMPDEST PUSH1 0x0 PUSH2 0x665 DUP3 PUSH2 0x5AB JUMP JUMPDEST SWAP2 POP PUSH32 0xFFFFFFFFFFFFFFFFFFFFFFFFFFFFFFFFFFFFFFFFFFFFFFFFFFFFFFFFFFFFFFFF DUP3 EQ ISZERO PUSH2 0x698 JUMPI PUSH2 0x697 PUSH2 0x6A3 JUMP JUMPDEST JUMPDEST PUSH1 0x1 DUP3 ADD SWAP1 POP SWAP2 SWAP1 POP JUMP JUMPDEST PUSH32 0x4E487B7100000000000000000000000000000000000000000000000000000000 PUSH1 0x0 MSTORE PUSH1 0x11 PUSH1 0x4 MSTORE PUSH1 0x24 PUSH1 0x0 REVERT JUMPDEST PUSH32 0x4E487B7100000000000000000000000000000000000000000000000000000000 PUSH1 0x0 MSTORE PUSH1 0x22 PUSH1 0x4 MSTORE PUSH1 0x24 PUSH1 0x0 REVERT JUMPDEST PUSH32 0x4E487B7100000000000000000000000000000000000000000000000000000000 PUSH1 0x0 MSTORE PUSH1 0x41 PUSH1 0x4 MSTORE PUSH1 0x24 PUSH1 0x0 REVERT JUMPDEST PUSH1 0x0 DUP1 REVERT JUMPDEST PUSH1 0x0 DUP1 REVERT JUMPDEST PUSH1 0x0 DUP1 REVERT JUMPDEST PUSH1 0x0 DUP1 REVERT JUMPDEST PUSH1 0x0 PUSH1 0x1F NOT PUSH1 0x1F DUP4 ADD AND SWAP1 POP SWAP2 SWAP1 POP JUMP JUMPDEST PUSH2 0x75E DUP2 PUSH2 0x5AB JUMP JUMPDEST DUP2 EQ PUSH2 0x769 JUMPI PUSH1 0x0 DUP1 REVERT JUMPDEST POP JUMP INVALID MSIZE PUSH16 0x752077696C6C20626520616464656420 PUSH21 0x6F2063616E646964617465206C697374206F6E6365 KECCAK256 PUSH26 0x6F75206172652076616C69646174656420627920746865206164 PUSH14 0x696EA2646970667358221220C24B 0xE6 PUSH29 0xFEA8A68A9C3554764D86F5F21D87EED4D6A43AF127C1EFC3D724839C64 PUSH20 0x6F6C634300080700330000000000000000000000 "
				},
				"gasEstimates": {
					"creation": {
						"codeDepositCost": "405000",
						"executionCost": "24709",
						"totalCost": "429709"
					},
					"external": {
						"candidateEnrollment(string,string)": "infinite",
						"validCandidates(uint256)": "infinite"
					}
				},
				"methodIdentifiers": {
					"candidateEnrollment(string,string)": "17678bc3",
					"validCandidates(uint256)": "b0d18814"
				}
			},
			"storageLayout": {
				"storage": [
					{
						"astId": 3,
						"contract": "voting.sol:Voting",
						"label": "noOfVoters",
						"offset": 0,
						"slot": "0",
						"type": "t_uint256"
					},
					{
						"astId": 5,
						"contract": "voting.sol:Voting",
						"label": "noOfCandidates",
						"offset": 0,
						"slot": "1",
						"type": "t_uint256"
					},
					{
						"astId": 7,
						"contract": "voting.sol:Voting",
						"label": "noOfValidCandidates",
						"offset": 0,
						"slot": "2",
						"type": "t_uint256"
					},
					{
						"astId": 9,
						"contract": "voting.sol:Voting",
						"label": "admin",
						"offset": 0,
						"slot": "3",
						"type": "t_address"
					},
					{
						"astId": 14,
						"contract": "voting.sol:Voting",
						"label": "enrolledCandidates",
						"offset": 0,
						"slot": "4",
						"type": "t_mapping(t_uint256,t_struct(Candidate)26_storage)"
					},
					{
						"astId": 19,
						"contract": "voting.sol:Voting",
						"label": "validCandidates",
						"offset": 0,
						"slot": "5",
						"type": "t_mapping(t_uint256,t_struct(Candidate)26_storage)"
					}
				],
				"types": {
					"t_address": {
						"encoding": "inplace",
						"label": "address",
						"numberOfBytes": "20"
					},
					"t_bool": {
						"encoding": "inplace",
						"label": "bool",
						"numberOfBytes": "1"
					},
					"t_mapping(t_uint256,t_struct(Candidate)26_storage)": {
						"encoding": "mapping",
						"key": "t_uint256",
						"label": "mapping(uint256 => struct Voting.Candidate)",
						"numberOfBytes": "32",
						"value": "t_struct(Candidate)26_storage"
					},
					"t_string_storage": {
						"encoding": "bytes",
						"label": "string",
						"numberOfBytes": "32"
					},
					"t_struct(Candidate)26_storage": {
						"encoding": "inplace",
						"label": "struct Voting.Candidate",
						"members": [
							{
								"astId": 21,
								"contract": "voting.sol:Voting",
								"label": "candidate_name",
								"offset": 0,
								"slot": "0",
								"type": "t_string_storage"
							},
							{
								"astId": 23,
								"contract": "voting.sol:Voting",
								"label": "candidate_description",
								"offset": 0,
								"slot": "1",
								"type": "t_string_storage"
							},
							{
								"astId": 25,
								"contract": "voting.sol:Voting",
								"label": "isValid",
								"offset": 0,
								"slot": "2",
								"type": "t_bool"
							}
						],
						"numberOfBytes": "96"
					},
					"t_uint256": {
						"encoding": "inplace",
						"label": "uint256",
						"numberOfBytes": "32"
					}
				}
			},
			"userdoc": {
				"kind": "user",
				"methods": {},
				"version": 1
			}
		}
	}
}