{
	"voting.sol": {
		"Voting": {
			"abi": [
				{
					"inputs": [],
					"stateMutability": "nonpayable",
					"type": "constructor"
				},
				{
					"inputs": [
						{
							"internalType": "string",
							"name": "name",
							"type": "string"
						},
						{
							"internalType": "string",
							"name": "description",
							"type": "string"
						}
					],
					"name": "candidateEnrollment",
					"outputs": [
						{
							"internalType": "string",
							"name": "",
							"type": "string"
						}
					],
					"stateMutability": "nonpayable",
					"type": "function"
				},
				{
					"inputs": [
						{
							"internalType": "uint256",
							"name": "",
							"type": "uint256"
						}
					],
					"name": "candidates",
					"outputs": [
						{
							"internalType": "string",
							"name": "candidate_name",
							"type": "string"
						},
						{
							"internalType": "string",
							"name": "candidate_description",
							"type": "string"
						}
					],
					"stateMutability": "view",
					"type": "function"
				},
				{
					"inputs": [
						{
							"internalType": "string",
							"name": "name",
							"type": "string"
						},
						{
							"internalType": "uint256",
							"name": "candidateID",
							"type": "uint256"
						}
					],
					"name": "voterEnrollment",
					"outputs": [
						{
							"internalType": "string",
							"name": "",
							"type": "string"
						}
					],
					"stateMutability": "nonpayable",
					"type": "function"
				},
				{
					"inputs": [
						{
							"internalType": "string",
							"name": "",
							"type": "string"
						}
					],
					"name": "voters",
					"outputs": [
						{
							"internalType": "uint256",
							"name": "candidate_id",
							"type": "uint256"
						},
						{
							"internalType": "bool",
							"name": "hasVoted",
							"type": "bool"
						}
					],
					"stateMutability": "view",
					"type": "function"
				}
			],
			"devdoc": {
				"kind": "dev",
				"methods": {},
				"version": 1
			},
			"evm": {
				"assembly": "    /* \"voting.sol\":59:1120  contract Voting{\r... */\n  mstore(0x40, 0x80)\n    /* \"voting.sol\":426:476  constructor(){\r... */\n  callvalue\n  dup1\n  iszero\n  tag_1\n  jumpi\n  0x00\n  dup1\n  revert\ntag_1:\n  pop\n    /* \"voting.sol\":458:468  msg.sender */\n  caller\n    /* \"voting.sol\":450:455  admin */\n  0x02\n  0x00\n    /* \"voting.sol\":450:468  admin = msg.sender */\n  0x0100\n  exp\n  dup2\n  sload\n  dup2\n  0xffffffffffffffffffffffffffffffffffffffff\n  mul\n  not\n  and\n  swap1\n  dup4\n  0xffffffffffffffffffffffffffffffffffffffff\n  and\n  mul\n  or\n  swap1\n  sstore\n  pop\n    /* \"voting.sol\":59:1120  contract Voting{\r... */\n  dataSize(sub_0)\n  dup1\n  dataOffset(sub_0)\n  0x00\n  codecopy\n  0x00\n  return\nstop\n\nsub_0: assembly {\n        /* \"voting.sol\":59:1120  contract Voting{\r... */\n      mstore(0x40, 0x80)\n      callvalue\n      dup1\n      iszero\n      tag_1\n      jumpi\n      0x00\n      dup1\n      revert\n    tag_1:\n      pop\n      jumpi(tag_2, lt(calldatasize, 0x04))\n      shr(0xe0, calldataload(0x00))\n      dup1\n      0x0fd94e64\n      eq\n      tag_3\n      jumpi\n      dup1\n      0x17678bc3\n      eq\n      tag_4\n      jumpi\n      dup1\n      0x3477ee2e\n      eq\n      tag_5\n      jumpi\n      dup1\n      0x53fa2e64\n      eq\n      tag_6\n      jumpi\n    tag_2:\n      0x00\n      dup1\n      revert\n        /* \"voting.sol\":915:1117  function voterEnrollment(string memory name,uint candidateID) public onlyAdmin returns(string memory){\r... */\n    tag_3:\n      tag_7\n      0x04\n      dup1\n      calldatasize\n      sub\n      dup2\n      add\n      swap1\n      tag_8\n      swap2\n      swap1\n      tag_9\n      jump\t// in\n    tag_8:\n      tag_10\n      jump\t// in\n    tag_7:\n      mload(0x40)\n      tag_11\n      swap2\n      swap1\n      tag_12\n      jump\t// in\n    tag_11:\n      mload(0x40)\n      dup1\n      swap2\n      sub\n      swap1\n      return\n        /* \"voting.sol\":586:909  function candidateEnrollment(string memory name,string memory description) public onlyAdmin returns(string memory){\r... */\n    tag_4:\n      tag_13\n      0x04\n      dup1\n      calldatasize\n      sub\n      dup2\n      add\n      swap1\n      tag_14\n      swap2\n      swap1\n      tag_15\n      jump\t// in\n    tag_14:\n      tag_16\n      jump\t// in\n    tag_13:\n      mload(0x40)\n      tag_17\n      swap2\n      swap1\n      tag_12\n      jump\t// in\n    tag_17:\n      mload(0x40)\n      dup1\n      swap2\n      sub\n      swap1\n      return\n        /* \"voting.sol\":149:194  mapping (uint => Candidate) public candidates */\n    tag_5:\n      tag_18\n      0x04\n      dup1\n      calldatasize\n      sub\n      dup2\n      add\n      swap1\n      tag_19\n      swap2\n      swap1\n      tag_20\n      jump\t// in\n    tag_19:\n      tag_21\n      jump\t// in\n    tag_18:\n      mload(0x40)\n      tag_22\n      swap3\n      swap2\n      swap1\n      tag_23\n      jump\t// in\n    tag_22:\n      mload(0x40)\n      dup1\n      swap2\n      sub\n      swap1\n      return\n        /* \"voting.sol\":201:240  mapping (string => Voter) public voters */\n    tag_6:\n      tag_24\n      0x04\n      dup1\n      calldatasize\n      sub\n      dup2\n      add\n      swap1\n      tag_25\n      swap2\n      swap1\n      tag_26\n      jump\t// in\n    tag_25:\n      tag_27\n      jump\t// in\n    tag_24:\n      mload(0x40)\n      tag_28\n      swap3\n      swap2\n      swap1\n      tag_29\n      jump\t// in\n    tag_28:\n      mload(0x40)\n      dup1\n      swap2\n      sub\n      swap1\n      return\n        /* \"voting.sol\":915:1117  function voterEnrollment(string memory name,uint candidateID) public onlyAdmin returns(string memory){\r... */\n    tag_10:\n        /* \"voting.sol\":1002:1015  string memory */\n      0x60\n        /* \"voting.sol\":535:540  admin */\n      0x02\n      0x00\n      swap1\n      sload\n      swap1\n      0x0100\n      exp\n      swap1\n      div\n      0xffffffffffffffffffffffffffffffffffffffff\n      and\n        /* \"voting.sol\":521:540  msg.sender == admin */\n      0xffffffffffffffffffffffffffffffffffffffff\n      and\n        /* \"voting.sol\":521:531  msg.sender */\n      caller\n        /* \"voting.sol\":521:540  msg.sender == admin */\n      0xffffffffffffffffffffffffffffffffffffffff\n      and\n      eq\n        /* \"voting.sol\":513:560  require(msg.sender == admin,\"Access is Denied\") */\n      tag_31\n      jumpi\n      mload(0x40)\n      0x08c379a000000000000000000000000000000000000000000000000000000000\n      dup2\n      mstore\n      0x04\n      add\n      tag_32\n      swap1\n      tag_33\n      jump\t// in\n    tag_32:\n      mload(0x40)\n      dup1\n      swap2\n      sub\n      swap1\n      revert\n    tag_31:\n        /* \"voting.sol\":1027:1039  uint voterID */\n      0x00\n        /* \"voting.sol\":1042:1052  noOfVoters */\n      dup1\n      0x00\n        /* \"voting.sol\":1042:1054  noOfVoters++ */\n      dup2\n      sload\n      dup1\n      swap3\n      swap2\n      swap1\n      tag_35\n      swap1\n      tag_36\n      jump\t// in\n    tag_35:\n      swap2\n      swap1\n      pop\n      sstore\n        /* \"voting.sol\":1027:1054  uint voterID = noOfVoters++ */\n      swap1\n      pop\n        /* \"voting.sol\":1080:1103  Voter(candidateID,true) */\n      mload(0x40)\n      dup1\n      0x40\n      add\n      0x40\n      mstore\n      dup1\n        /* \"voting.sol\":1086:1097  candidateID */\n      dup5\n        /* \"voting.sol\":1080:1103  Voter(candidateID,true) */\n      dup2\n      mstore\n      0x20\n      add\n        /* \"voting.sol\":1098:1102  true */\n      0x01\n        /* \"voting.sol\":1080:1103  Voter(candidateID,true) */\n      iszero\n      iszero\n      dup2\n      mstore\n      pop\n        /* \"voting.sol\":1065:1071  voters */\n      0x04\n        /* \"voting.sol\":1072:1076  name */\n      dup6\n        /* \"voting.sol\":1065:1077  voters[name] */\n      mload(0x40)\n      tag_37\n      swap2\n      swap1\n      tag_38\n      jump\t// in\n    tag_37:\n      swap1\n      dup2\n      mstore\n      0x20\n      add\n      mload(0x40)\n      dup1\n      swap2\n      sub\n      swap1\n      keccak256\n        /* \"voting.sol\":1065:1103  voters[name] = Voter(candidateID,true) */\n      0x00\n      dup3\n      add\n      mload\n      dup2\n      0x00\n      add\n      sstore\n      0x20\n      dup3\n      add\n      mload\n      dup2\n      0x01\n      add\n      exp(0x0100, 0x00)\n      dup2\n      sload\n      dup2\n      0xff\n      mul\n      not\n      and\n      swap1\n      dup4\n      iszero\n      iszero\n      mul\n      or\n      swap1\n      sstore\n      pop\n      swap1\n      pop\n      pop\n        /* \"voting.sol\":1016:1117  {\r... */\n      pop\n        /* \"voting.sol\":915:1117  function voterEnrollment(string memory name,uint candidateID) public onlyAdmin returns(string memory){\r... */\n      swap3\n      swap2\n      pop\n      pop\n      jump\t// out\n        /* \"voting.sol\":586:909  function candidateEnrollment(string memory name,string memory description) public onlyAdmin returns(string memory){\r... */\n    tag_16:\n        /* \"voting.sol\":686:699  string memory */\n      0x60\n        /* \"voting.sol\":535:540  admin */\n      0x02\n      0x00\n      swap1\n      sload\n      swap1\n      0x0100\n      exp\n      swap1\n      div\n      0xffffffffffffffffffffffffffffffffffffffff\n      and\n        /* \"voting.sol\":521:540  msg.sender == admin */\n      0xffffffffffffffffffffffffffffffffffffffff\n      and\n        /* \"voting.sol\":521:531  msg.sender */\n      caller\n        /* \"voting.sol\":521:540  msg.sender == admin */\n      0xffffffffffffffffffffffffffffffffffffffff\n      and\n      eq\n        /* \"voting.sol\":513:560  require(msg.sender == admin,\"Access is Denied\") */\n      tag_40\n      jumpi\n      mload(0x40)\n      0x08c379a000000000000000000000000000000000000000000000000000000000\n      dup2\n      mstore\n      0x04\n      add\n      tag_41\n      swap1\n      tag_33\n      jump\t// in\n    tag_41:\n      mload(0x40)\n      dup1\n      swap2\n      sub\n      swap1\n      revert\n    tag_40:\n        /* \"voting.sol\":711:727  uint candidateID */\n      0x00\n        /* \"voting.sol\":730:744  noOfCandidates */\n      0x01\n      0x00\n        /* \"voting.sol\":730:746  noOfCandidates++ */\n      dup2\n      sload\n      dup1\n      swap3\n      swap2\n      swap1\n      tag_43\n      swap1\n      tag_36\n      jump\t// in\n    tag_43:\n      swap2\n      swap1\n      pop\n      sstore\n        /* \"voting.sol\":711:746  uint candidateID = noOfCandidates++ */\n      swap1\n      pop\n        /* \"voting.sol\":783:810  Candidate(name,description) */\n      mload(0x40)\n      dup1\n      0x40\n      add\n      0x40\n      mstore\n      dup1\n        /* \"voting.sol\":793:797  name */\n      dup6\n        /* \"voting.sol\":783:810  Candidate(name,description) */\n      dup2\n      mstore\n      0x20\n      add\n        /* \"voting.sol\":798:809  description */\n      dup5\n        /* \"voting.sol\":783:810  Candidate(name,description) */\n      dup2\n      mstore\n      pop\n        /* \"voting.sol\":757:767  candidates */\n      0x03\n        /* \"voting.sol\":757:780  candidates[candidateID] */\n      0x00\n        /* \"voting.sol\":768:779  candidateID */\n      dup4\n        /* \"voting.sol\":757:780  candidates[candidateID] */\n      dup2\n      mstore\n      0x20\n      add\n      swap1\n      dup2\n      mstore\n      0x20\n      add\n      0x00\n      keccak256\n        /* \"voting.sol\":757:810  candidates[candidateID] = Candidate(name,description) */\n      0x00\n      dup3\n      add\n      mload\n      dup2\n      0x00\n      add\n      swap1\n      dup1\n      mload\n      swap1\n      0x20\n      add\n      swap1\n      tag_44\n      swap3\n      swap2\n      swap1\n      tag_45\n      jump\t// in\n    tag_44:\n      pop\n      0x20\n      dup3\n      add\n      mload\n      dup2\n      0x01\n      add\n      swap1\n      dup1\n      mload\n      swap1\n      0x20\n      add\n      swap1\n      tag_46\n      swap3\n      swap2\n      swap1\n      tag_45\n      jump\t// in\n    tag_46:\n      pop\n      swap1\n      pop\n      pop\n        /* \"voting.sol\":821:901  return \"You will be added to candidate list once you are validated by the admin\" */\n      mload(0x40)\n      dup1\n      0x80\n      add\n      0x40\n      mstore\n      dup1\n      0x47\n      dup2\n      mstore\n      0x20\n      add\n      data_346ae9e229890c1b5467b3280ac50efb3a563831aa4e9bb9392fe53f7d7de7e2\n      0x47\n      swap2\n      codecopy\n      swap2\n      pop\n      pop\n        /* \"voting.sol\":586:909  function candidateEnrollment(string memory name,string memory description) public onlyAdmin returns(string memory){\r... */\n      swap3\n      swap2\n      pop\n      pop\n      jump\t// out\n        /* \"voting.sol\":149:194  mapping (uint => Candidate) public candidates */\n    tag_21:\n      mstore(0x20, 0x03)\n      dup1\n      0x00\n      mstore\n      keccak256(0x00, 0x40)\n      0x00\n      swap2\n      pop\n      swap1\n      pop\n      dup1\n      0x00\n      add\n      dup1\n      sload\n      tag_47\n      swap1\n      tag_48\n      jump\t// in\n    tag_47:\n      dup1\n      0x1f\n      add\n      0x20\n      dup1\n      swap2\n      div\n      mul\n      0x20\n      add\n      mload(0x40)\n      swap1\n      dup2\n      add\n      0x40\n      mstore\n      dup1\n      swap3\n      swap2\n      swap1\n      dup2\n      dup2\n      mstore\n      0x20\n      add\n      dup3\n      dup1\n      sload\n      tag_49\n      swap1\n      tag_48\n      jump\t// in\n    tag_49:\n      dup1\n      iszero\n      tag_50\n      jumpi\n      dup1\n      0x1f\n      lt\n      tag_51\n      jumpi\n      0x0100\n      dup1\n      dup4\n      sload\n      div\n      mul\n      dup4\n      mstore\n      swap2\n      0x20\n      add\n      swap2\n      jump(tag_50)\n    tag_51:\n      dup3\n      add\n      swap2\n      swap1\n      0x00\n      mstore\n      keccak256(0x00, 0x20)\n      swap1\n    tag_52:\n      dup2\n      sload\n      dup2\n      mstore\n      swap1\n      0x01\n      add\n      swap1\n      0x20\n      add\n      dup1\n      dup4\n      gt\n      tag_52\n      jumpi\n      dup3\n      swap1\n      sub\n      0x1f\n      and\n      dup3\n      add\n      swap2\n    tag_50:\n      pop\n      pop\n      pop\n      pop\n      pop\n      swap1\n      dup1\n      0x01\n      add\n      dup1\n      sload\n      tag_53\n      swap1\n      tag_48\n      jump\t// in\n    tag_53:\n      dup1\n      0x1f\n      add\n      0x20\n      dup1\n      swap2\n      div\n      mul\n      0x20\n      add\n      mload(0x40)\n      swap1\n      dup2\n      add\n      0x40\n      mstore\n      dup1\n      swap3\n      swap2\n      swap1\n      dup2\n      dup2\n      mstore\n      0x20\n      add\n      dup3\n      dup1\n      sload\n      tag_54\n      swap1\n      tag_48\n      jump\t// in\n    tag_54:\n      dup1\n      iszero\n      tag_55\n      jumpi\n      dup1\n      0x1f\n      lt\n      tag_56\n      jumpi\n      0x0100\n      dup1\n      dup4\n      sload\n      div\n      mul\n      dup4\n      mstore\n      swap2\n      0x20\n      add\n      swap2\n      jump(tag_55)\n    tag_56:\n      dup3\n      add\n      swap2\n      swap1\n      0x00\n      mstore\n      keccak256(0x00, 0x20)\n      swap1\n    tag_57:\n      dup2\n      sload\n      dup2\n      mstore\n      swap1\n      0x01\n      add\n      swap1\n      0x20\n      add\n      dup1\n      dup4\n      gt\n      tag_57\n      jumpi\n      dup3\n      swap1\n      sub\n      0x1f\n      and\n      dup3\n      add\n      swap2\n    tag_55:\n      pop\n      pop\n      pop\n      pop\n      pop\n      swap1\n      pop\n      dup3\n      jump\t// out\n        /* \"voting.sol\":201:240  mapping (string => Voter) public voters */\n    tag_27:\n      0x04\n      dup2\n      dup1\n      mload\n      0x20\n      dup2\n      add\n      dup3\n      add\n      dup1\n      mload\n      dup5\n      dup3\n      mstore\n      0x20\n      dup4\n      add\n      0x20\n      dup6\n      add\n      keccak256\n      dup2\n      dup4\n      mstore\n      dup1\n      swap6\n      pop\n      pop\n      pop\n      pop\n      pop\n      pop\n      0x00\n      swap2\n      pop\n      swap1\n      pop\n      dup1\n      0x00\n      add\n      sload\n      swap1\n      dup1\n      0x01\n      add\n      0x00\n      swap1\n      sload\n      swap1\n      0x0100\n      exp\n      swap1\n      div\n      0xff\n      and\n      swap1\n      pop\n      dup3\n      jump\t// out\n    tag_45:\n      dup3\n      dup1\n      sload\n      tag_58\n      swap1\n      tag_48\n      jump\t// in\n    tag_58:\n      swap1\n      0x00\n      mstore\n      keccak256(0x00, 0x20)\n      swap1\n      0x1f\n      add\n      0x20\n      swap1\n      div\n      dup2\n      add\n      swap3\n      dup3\n      tag_60\n      jumpi\n      0x00\n      dup6\n      sstore\n      jump(tag_59)\n    tag_60:\n      dup3\n      0x1f\n      lt\n      tag_61\n      jumpi\n      dup1\n      mload\n      not(0xff)\n      and\n      dup4\n      dup1\n      add\n      or\n      dup6\n      sstore\n      jump(tag_59)\n    tag_61:\n      dup3\n      dup1\n      add\n      0x01\n      add\n      dup6\n      sstore\n      dup3\n      iszero\n      tag_59\n      jumpi\n      swap2\n      dup3\n      add\n    tag_62:\n      dup3\n      dup2\n      gt\n      iszero\n      tag_63\n      jumpi\n      dup3\n      mload\n      dup3\n      sstore\n      swap2\n      0x20\n      add\n      swap2\n      swap1\n      0x01\n      add\n      swap1\n      jump(tag_62)\n    tag_63:\n    tag_59:\n      pop\n      swap1\n      pop\n      tag_64\n      swap2\n      swap1\n      tag_65\n      jump\t// in\n    tag_64:\n      pop\n      swap1\n      jump\t// out\n    tag_65:\n    tag_66:\n      dup1\n      dup3\n      gt\n      iszero\n      tag_67\n      jumpi\n      0x00\n      dup2\n      0x00\n      swap1\n      sstore\n      pop\n      0x01\n      add\n      jump(tag_66)\n    tag_67:\n      pop\n      swap1\n      jump\t// out\n        /* \"#utility.yul\":7:419   */\n    tag_69:\n        /* \"#utility.yul\":85:90   */\n      0x00\n        /* \"#utility.yul\":110:176   */\n      tag_71\n        /* \"#utility.yul\":126:175   */\n      tag_72\n        /* \"#utility.yul\":168:174   */\n      dup5\n        /* \"#utility.yul\":126:175   */\n      tag_73\n      jump\t// in\n    tag_72:\n        /* \"#utility.yul\":110:176   */\n      tag_74\n      jump\t// in\n    tag_71:\n        /* \"#utility.yul\":101:176   */\n      swap1\n      pop\n        /* \"#utility.yul\":199:205   */\n      dup3\n        /* \"#utility.yul\":192:197   */\n      dup2\n        /* \"#utility.yul\":185:206   */\n      mstore\n        /* \"#utility.yul\":237:241   */\n      0x20\n        /* \"#utility.yul\":230:235   */\n      dup2\n        /* \"#utility.yul\":226:242   */\n      add\n        /* \"#utility.yul\":275:278   */\n      dup5\n        /* \"#utility.yul\":266:272   */\n      dup5\n        /* \"#utility.yul\":261:264   */\n      dup5\n        /* \"#utility.yul\":257:273   */\n      add\n        /* \"#utility.yul\":254:279   */\n      gt\n        /* \"#utility.yul\":251:363   */\n      iszero\n      tag_75\n      jumpi\n        /* \"#utility.yul\":282:361   */\n      tag_76\n      tag_77\n      jump\t// in\n    tag_76:\n        /* \"#utility.yul\":251:363   */\n    tag_75:\n        /* \"#utility.yul\":372:413   */\n      tag_78\n        /* \"#utility.yul\":406:412   */\n      dup5\n        /* \"#utility.yul\":401:404   */\n      dup3\n        /* \"#utility.yul\":396:399   */\n      dup6\n        /* \"#utility.yul\":372:413   */\n      tag_79\n      jump\t// in\n    tag_78:\n        /* \"#utility.yul\":91:419   */\n      pop\n        /* \"#utility.yul\":7:419   */\n      swap4\n      swap3\n      pop\n      pop\n      pop\n      jump\t// out\n        /* \"#utility.yul\":439:779   */\n    tag_80:\n        /* \"#utility.yul\":495:500   */\n      0x00\n        /* \"#utility.yul\":544:547   */\n      dup3\n        /* \"#utility.yul\":537:541   */\n      0x1f\n        /* \"#utility.yul\":529:535   */\n      dup4\n        /* \"#utility.yul\":525:542   */\n      add\n        /* \"#utility.yul\":521:548   */\n      slt\n        /* \"#utility.yul\":511:633   */\n      tag_82\n      jumpi\n        /* \"#utility.yul\":552:631   */\n      tag_83\n      tag_84\n      jump\t// in\n    tag_83:\n        /* \"#utility.yul\":511:633   */\n    tag_82:\n        /* \"#utility.yul\":669:675   */\n      dup2\n        /* \"#utility.yul\":656:676   */\n      calldataload\n        /* \"#utility.yul\":694:773   */\n      tag_85\n        /* \"#utility.yul\":769:772   */\n      dup5\n        /* \"#utility.yul\":761:767   */\n      dup3\n        /* \"#utility.yul\":754:758   */\n      0x20\n        /* \"#utility.yul\":746:752   */\n      dup7\n        /* \"#utility.yul\":742:759   */\n      add\n        /* \"#utility.yul\":694:773   */\n      tag_69\n      jump\t// in\n    tag_85:\n        /* \"#utility.yul\":685:773   */\n      swap2\n      pop\n        /* \"#utility.yul\":501:779   */\n      pop\n        /* \"#utility.yul\":439:779   */\n      swap3\n      swap2\n      pop\n      pop\n      jump\t// out\n        /* \"#utility.yul\":785:924   */\n    tag_86:\n        /* \"#utility.yul\":831:836   */\n      0x00\n        /* \"#utility.yul\":869:875   */\n      dup2\n        /* \"#utility.yul\":856:876   */\n      calldataload\n        /* \"#utility.yul\":847:876   */\n      swap1\n      pop\n        /* \"#utility.yul\":885:918   */\n      tag_88\n        /* \"#utility.yul\":912:917   */\n      dup2\n        /* \"#utility.yul\":885:918   */\n      tag_89\n      jump\t// in\n    tag_88:\n        /* \"#utility.yul\":785:924   */\n      swap3\n      swap2\n      pop\n      pop\n      jump\t// out\n        /* \"#utility.yul\":930:1439   */\n    tag_26:\n        /* \"#utility.yul\":999:1005   */\n      0x00\n        /* \"#utility.yul\":1048:1050   */\n      0x20\n        /* \"#utility.yul\":1036:1045   */\n      dup3\n        /* \"#utility.yul\":1027:1034   */\n      dup5\n        /* \"#utility.yul\":1023:1046   */\n      sub\n        /* \"#utility.yul\":1019:1051   */\n      slt\n        /* \"#utility.yul\":1016:1135   */\n      iszero\n      tag_91\n      jumpi\n        /* \"#utility.yul\":1054:1133   */\n      tag_92\n      tag_93\n      jump\t// in\n    tag_92:\n        /* \"#utility.yul\":1016:1135   */\n    tag_91:\n        /* \"#utility.yul\":1202:1203   */\n      0x00\n        /* \"#utility.yul\":1191:1200   */\n      dup3\n        /* \"#utility.yul\":1187:1204   */\n      add\n        /* \"#utility.yul\":1174:1205   */\n      calldataload\n        /* \"#utility.yul\":1232:1250   */\n      0xffffffffffffffff\n        /* \"#utility.yul\":1224:1230   */\n      dup2\n        /* \"#utility.yul\":1221:1251   */\n      gt\n        /* \"#utility.yul\":1218:1335   */\n      iszero\n      tag_94\n      jumpi\n        /* \"#utility.yul\":1254:1333   */\n      tag_95\n      tag_96\n      jump\t// in\n    tag_95:\n        /* \"#utility.yul\":1218:1335   */\n    tag_94:\n        /* \"#utility.yul\":1359:1422   */\n      tag_97\n        /* \"#utility.yul\":1414:1421   */\n      dup5\n        /* \"#utility.yul\":1405:1411   */\n      dup3\n        /* \"#utility.yul\":1394:1403   */\n      dup6\n        /* \"#utility.yul\":1390:1412   */\n      add\n        /* \"#utility.yul\":1359:1422   */\n      tag_80\n      jump\t// in\n    tag_97:\n        /* \"#utility.yul\":1349:1422   */\n      swap2\n      pop\n        /* \"#utility.yul\":1145:1432   */\n      pop\n        /* \"#utility.yul\":930:1439   */\n      swap3\n      swap2\n      pop\n      pop\n      jump\t// out\n        /* \"#utility.yul\":1445:2279   */\n    tag_15:\n        /* \"#utility.yul\":1533:1539   */\n      0x00\n        /* \"#utility.yul\":1541:1547   */\n      dup1\n        /* \"#utility.yul\":1590:1592   */\n      0x40\n        /* \"#utility.yul\":1578:1587   */\n      dup4\n        /* \"#utility.yul\":1569:1576   */\n      dup6\n        /* \"#utility.yul\":1565:1588   */\n      sub\n        /* \"#utility.yul\":1561:1593   */\n      slt\n        /* \"#utility.yul\":1558:1677   */\n      iszero\n      tag_99\n      jumpi\n        /* \"#utility.yul\":1596:1675   */\n      tag_100\n      tag_93\n      jump\t// in\n    tag_100:\n        /* \"#utility.yul\":1558:1677   */\n    tag_99:\n        /* \"#utility.yul\":1744:1745   */\n      0x00\n        /* \"#utility.yul\":1733:1742   */\n      dup4\n        /* \"#utility.yul\":1729:1746   */\n      add\n        /* \"#utility.yul\":1716:1747   */\n      calldataload\n        /* \"#utility.yul\":1774:1792   */\n      0xffffffffffffffff\n        /* \"#utility.yul\":1766:1772   */\n      dup2\n        /* \"#utility.yul\":1763:1793   */\n      gt\n        /* \"#utility.yul\":1760:1877   */\n      iszero\n      tag_101\n      jumpi\n        /* \"#utility.yul\":1796:1875   */\n      tag_102\n      tag_96\n      jump\t// in\n    tag_102:\n        /* \"#utility.yul\":1760:1877   */\n    tag_101:\n        /* \"#utility.yul\":1901:1964   */\n      tag_103\n        /* \"#utility.yul\":1956:1963   */\n      dup6\n        /* \"#utility.yul\":1947:1953   */\n      dup3\n        /* \"#utility.yul\":1936:1945   */\n      dup7\n        /* \"#utility.yul\":1932:1954   */\n      add\n        /* \"#utility.yul\":1901:1964   */\n      tag_80\n      jump\t// in\n    tag_103:\n        /* \"#utility.yul\":1891:1964   */\n      swap3\n      pop\n        /* \"#utility.yul\":1687:1974   */\n      pop\n        /* \"#utility.yul\":2041:2043   */\n      0x20\n        /* \"#utility.yul\":2030:2039   */\n      dup4\n        /* \"#utility.yul\":2026:2044   */\n      add\n        /* \"#utility.yul\":2013:2045   */\n      calldataload\n        /* \"#utility.yul\":2072:2090   */\n      0xffffffffffffffff\n        /* \"#utility.yul\":2064:2070   */\n      dup2\n        /* \"#utility.yul\":2061:2091   */\n      gt\n        /* \"#utility.yul\":2058:2175   */\n      iszero\n      tag_104\n      jumpi\n        /* \"#utility.yul\":2094:2173   */\n      tag_105\n      tag_96\n      jump\t// in\n    tag_105:\n        /* \"#utility.yul\":2058:2175   */\n    tag_104:\n        /* \"#utility.yul\":2199:2262   */\n      tag_106\n        /* \"#utility.yul\":2254:2261   */\n      dup6\n        /* \"#utility.yul\":2245:2251   */\n      dup3\n        /* \"#utility.yul\":2234:2243   */\n      dup7\n        /* \"#utility.yul\":2230:2252   */\n      add\n        /* \"#utility.yul\":2199:2262   */\n      tag_80\n      jump\t// in\n    tag_106:\n        /* \"#utility.yul\":2189:2262   */\n      swap2\n      pop\n        /* \"#utility.yul\":1984:2272   */\n      pop\n        /* \"#utility.yul\":1445:2279   */\n      swap3\n      pop\n      swap3\n      swap1\n      pop\n      jump\t// out\n        /* \"#utility.yul\":2285:2939   */\n    tag_9:\n        /* \"#utility.yul\":2363:2369   */\n      0x00\n        /* \"#utility.yul\":2371:2377   */\n      dup1\n        /* \"#utility.yul\":2420:2422   */\n      0x40\n        /* \"#utility.yul\":2408:2417   */\n      dup4\n        /* \"#utility.yul\":2399:2406   */\n      dup6\n        /* \"#utility.yul\":2395:2418   */\n      sub\n        /* \"#utility.yul\":2391:2423   */\n      slt\n        /* \"#utility.yul\":2388:2507   */\n      iszero\n      tag_108\n      jumpi\n        /* \"#utility.yul\":2426:2505   */\n      tag_109\n      tag_93\n      jump\t// in\n    tag_109:\n        /* \"#utility.yul\":2388:2507   */\n    tag_108:\n        /* \"#utility.yul\":2574:2575   */\n      0x00\n        /* \"#utility.yul\":2563:2572   */\n      dup4\n        /* \"#utility.yul\":2559:2576   */\n      add\n        /* \"#utility.yul\":2546:2577   */\n      calldataload\n        /* \"#utility.yul\":2604:2622   */\n      0xffffffffffffffff\n        /* \"#utility.yul\":2596:2602   */\n      dup2\n        /* \"#utility.yul\":2593:2623   */\n      gt\n        /* \"#utility.yul\":2590:2707   */\n      iszero\n      tag_110\n      jumpi\n        /* \"#utility.yul\":2626:2705   */\n      tag_111\n      tag_96\n      jump\t// in\n    tag_111:\n        /* \"#utility.yul\":2590:2707   */\n    tag_110:\n        /* \"#utility.yul\":2731:2794   */\n      tag_112\n        /* \"#utility.yul\":2786:2793   */\n      dup6\n        /* \"#utility.yul\":2777:2783   */\n      dup3\n        /* \"#utility.yul\":2766:2775   */\n      dup7\n        /* \"#utility.yul\":2762:2784   */\n      add\n        /* \"#utility.yul\":2731:2794   */\n      tag_80\n      jump\t// in\n    tag_112:\n        /* \"#utility.yul\":2721:2794   */\n      swap3\n      pop\n        /* \"#utility.yul\":2517:2804   */\n      pop\n        /* \"#utility.yul\":2843:2845   */\n      0x20\n        /* \"#utility.yul\":2869:2922   */\n      tag_113\n        /* \"#utility.yul\":2914:2921   */\n      dup6\n        /* \"#utility.yul\":2905:2911   */\n      dup3\n        /* \"#utility.yul\":2894:2903   */\n      dup7\n        /* \"#utility.yul\":2890:2912   */\n      add\n        /* \"#utility.yul\":2869:2922   */\n      tag_86\n      jump\t// in\n    tag_113:\n        /* \"#utility.yul\":2859:2922   */\n      swap2\n      pop\n        /* \"#utility.yul\":2814:2932   */\n      pop\n        /* \"#utility.yul\":2285:2939   */\n      swap3\n      pop\n      swap3\n      swap1\n      pop\n      jump\t// out\n        /* \"#utility.yul\":2945:3274   */\n    tag_20:\n        /* \"#utility.yul\":3004:3010   */\n      0x00\n        /* \"#utility.yul\":3053:3055   */\n      0x20\n        /* \"#utility.yul\":3041:3050   */\n      dup3\n        /* \"#utility.yul\":3032:3039   */\n      dup5\n        /* \"#utility.yul\":3028:3051   */\n      sub\n        /* \"#utility.yul\":3024:3056   */\n      slt\n        /* \"#utility.yul\":3021:3140   */\n      iszero\n      tag_115\n      jumpi\n        /* \"#utility.yul\":3059:3138   */\n      tag_116\n      tag_93\n      jump\t// in\n    tag_116:\n        /* \"#utility.yul\":3021:3140   */\n    tag_115:\n        /* \"#utility.yul\":3179:3180   */\n      0x00\n        /* \"#utility.yul\":3204:3257   */\n      tag_117\n        /* \"#utility.yul\":3249:3256   */\n      dup5\n        /* \"#utility.yul\":3240:3246   */\n      dup3\n        /* \"#utility.yul\":3229:3238   */\n      dup6\n        /* \"#utility.yul\":3225:3247   */\n      add\n        /* \"#utility.yul\":3204:3257   */\n      tag_86\n      jump\t// in\n    tag_117:\n        /* \"#utility.yul\":3194:3257   */\n      swap2\n      pop\n        /* \"#utility.yul\":3150:3267   */\n      pop\n        /* \"#utility.yul\":2945:3274   */\n      swap3\n      swap2\n      pop\n      pop\n      jump\t// out\n        /* \"#utility.yul\":3280:3389   */\n    tag_118:\n        /* \"#utility.yul\":3361:3382   */\n      tag_120\n        /* \"#utility.yul\":3376:3381   */\n      dup2\n        /* \"#utility.yul\":3361:3382   */\n      tag_121\n      jump\t// in\n    tag_120:\n        /* \"#utility.yul\":3356:3359   */\n      dup3\n        /* \"#utility.yul\":3349:3383   */\n      mstore\n        /* \"#utility.yul\":3280:3389   */\n      pop\n      pop\n      jump\t// out\n        /* \"#utility.yul\":3395:3759   */\n    tag_122:\n        /* \"#utility.yul\":3483:3486   */\n      0x00\n        /* \"#utility.yul\":3511:3550   */\n      tag_124\n        /* \"#utility.yul\":3544:3549   */\n      dup3\n        /* \"#utility.yul\":3511:3550   */\n      tag_125\n      jump\t// in\n    tag_124:\n        /* \"#utility.yul\":3566:3637   */\n      tag_126\n        /* \"#utility.yul\":3630:3636   */\n      dup2\n        /* \"#utility.yul\":3625:3628   */\n      dup6\n        /* \"#utility.yul\":3566:3637   */\n      tag_127\n      jump\t// in\n    tag_126:\n        /* \"#utility.yul\":3559:3637   */\n      swap4\n      pop\n        /* \"#utility.yul\":3646:3698   */\n      tag_128\n        /* \"#utility.yul\":3691:3697   */\n      dup2\n        /* \"#utility.yul\":3686:3689   */\n      dup6\n        /* \"#utility.yul\":3679:3683   */\n      0x20\n        /* \"#utility.yul\":3672:3677   */\n      dup7\n        /* \"#utility.yul\":3668:3684   */\n      add\n        /* \"#utility.yul\":3646:3698   */\n      tag_129\n      jump\t// in\n    tag_128:\n        /* \"#utility.yul\":3723:3752   */\n      tag_130\n        /* \"#utility.yul\":3745:3751   */\n      dup2\n        /* \"#utility.yul\":3723:3752   */\n      tag_131\n      jump\t// in\n    tag_130:\n        /* \"#utility.yul\":3718:3721   */\n      dup5\n        /* \"#utility.yul\":3714:3753   */\n      add\n        /* \"#utility.yul\":3707:3753   */\n      swap2\n      pop\n        /* \"#utility.yul\":3487:3759   */\n      pop\n        /* \"#utility.yul\":3395:3759   */\n      swap3\n      swap2\n      pop\n      pop\n      jump\t// out\n        /* \"#utility.yul\":3765:4142   */\n    tag_132:\n        /* \"#utility.yul\":3871:3874   */\n      0x00\n        /* \"#utility.yul\":3899:3938   */\n      tag_134\n        /* \"#utility.yul\":3932:3937   */\n      dup3\n        /* \"#utility.yul\":3899:3938   */\n      tag_125\n      jump\t// in\n    tag_134:\n        /* \"#utility.yul\":3954:4043   */\n      tag_135\n        /* \"#utility.yul\":4036:4042   */\n      dup2\n        /* \"#utility.yul\":4031:4034   */\n      dup6\n        /* \"#utility.yul\":3954:4043   */\n      tag_136\n      jump\t// in\n    tag_135:\n        /* \"#utility.yul\":3947:4043   */\n      swap4\n      pop\n        /* \"#utility.yul\":4052:4104   */\n      tag_137\n        /* \"#utility.yul\":4097:4103   */\n      dup2\n        /* \"#utility.yul\":4092:4095   */\n      dup6\n        /* \"#utility.yul\":4085:4089   */\n      0x20\n        /* \"#utility.yul\":4078:4083   */\n      dup7\n        /* \"#utility.yul\":4074:4090   */\n      add\n        /* \"#utility.yul\":4052:4104   */\n      tag_129\n      jump\t// in\n    tag_137:\n        /* \"#utility.yul\":4129:4135   */\n      dup1\n        /* \"#utility.yul\":4124:4127   */\n      dup5\n        /* \"#utility.yul\":4120:4136   */\n      add\n        /* \"#utility.yul\":4113:4136   */\n      swap2\n      pop\n        /* \"#utility.yul\":3875:4142   */\n      pop\n        /* \"#utility.yul\":3765:4142   */\n      swap3\n      swap2\n      pop\n      pop\n      jump\t// out\n        /* \"#utility.yul\":4148:4514   */\n    tag_138:\n        /* \"#utility.yul\":4290:4293   */\n      0x00\n        /* \"#utility.yul\":4311:4378   */\n      tag_140\n        /* \"#utility.yul\":4375:4377   */\n      0x10\n        /* \"#utility.yul\":4370:4373   */\n      dup4\n        /* \"#utility.yul\":4311:4378   */\n      tag_127\n      jump\t// in\n    tag_140:\n        /* \"#utility.yul\":4304:4378   */\n      swap2\n      pop\n        /* \"#utility.yul\":4387:4480   */\n      tag_141\n        /* \"#utility.yul\":4476:4479   */\n      dup3\n        /* \"#utility.yul\":4387:4480   */\n      tag_142\n      jump\t// in\n    tag_141:\n        /* \"#utility.yul\":4505:4507   */\n      0x20\n        /* \"#utility.yul\":4500:4503   */\n      dup3\n        /* \"#utility.yul\":4496:4508   */\n      add\n        /* \"#utility.yul\":4489:4508   */\n      swap1\n      pop\n        /* \"#utility.yul\":4148:4514   */\n      swap2\n      swap1\n      pop\n      jump\t// out\n        /* \"#utility.yul\":4520:4638   */\n    tag_143:\n        /* \"#utility.yul\":4607:4631   */\n      tag_145\n        /* \"#utility.yul\":4625:4630   */\n      dup2\n        /* \"#utility.yul\":4607:4631   */\n      tag_146\n      jump\t// in\n    tag_145:\n        /* \"#utility.yul\":4602:4605   */\n      dup3\n        /* \"#utility.yul\":4595:4632   */\n      mstore\n        /* \"#utility.yul\":4520:4638   */\n      pop\n      pop\n      jump\t// out\n        /* \"#utility.yul\":4644:4919   */\n    tag_38:\n        /* \"#utility.yul\":4776:4779   */\n      0x00\n        /* \"#utility.yul\":4798:4893   */\n      tag_148\n        /* \"#utility.yul\":4889:4892   */\n      dup3\n        /* \"#utility.yul\":4880:4886   */\n      dup5\n        /* \"#utility.yul\":4798:4893   */\n      tag_132\n      jump\t// in\n    tag_148:\n        /* \"#utility.yul\":4791:4893   */\n      swap2\n      pop\n        /* \"#utility.yul\":4910:4913   */\n      dup2\n        /* \"#utility.yul\":4903:4913   */\n      swap1\n      pop\n        /* \"#utility.yul\":4644:4919   */\n      swap3\n      swap2\n      pop\n      pop\n      jump\t// out\n        /* \"#utility.yul\":4925:5238   */\n    tag_12:\n        /* \"#utility.yul\":5038:5042   */\n      0x00\n        /* \"#utility.yul\":5076:5078   */\n      0x20\n        /* \"#utility.yul\":5065:5074   */\n      dup3\n        /* \"#utility.yul\":5061:5079   */\n      add\n        /* \"#utility.yul\":5053:5079   */\n      swap1\n      pop\n        /* \"#utility.yul\":5125:5134   */\n      dup2\n        /* \"#utility.yul\":5119:5123   */\n      dup2\n        /* \"#utility.yul\":5115:5135   */\n      sub\n        /* \"#utility.yul\":5111:5112   */\n      0x00\n        /* \"#utility.yul\":5100:5109   */\n      dup4\n        /* \"#utility.yul\":5096:5113   */\n      add\n        /* \"#utility.yul\":5089:5136   */\n      mstore\n        /* \"#utility.yul\":5153:5231   */\n      tag_150\n        /* \"#utility.yul\":5226:5230   */\n      dup2\n        /* \"#utility.yul\":5217:5223   */\n      dup5\n        /* \"#utility.yul\":5153:5231   */\n      tag_122\n      jump\t// in\n    tag_150:\n        /* \"#utility.yul\":5145:5231   */\n      swap1\n      pop\n        /* \"#utility.yul\":4925:5238   */\n      swap3\n      swap2\n      pop\n      pop\n      jump\t// out\n        /* \"#utility.yul\":5244:5758   */\n    tag_23:\n        /* \"#utility.yul\":5405:5409   */\n      0x00\n        /* \"#utility.yul\":5443:5445   */\n      0x40\n        /* \"#utility.yul\":5432:5441   */\n      dup3\n        /* \"#utility.yul\":5428:5446   */\n      add\n        /* \"#utility.yul\":5420:5446   */\n      swap1\n      pop\n        /* \"#utility.yul\":5492:5501   */\n      dup2\n        /* \"#utility.yul\":5486:5490   */\n      dup2\n        /* \"#utility.yul\":5482:5502   */\n      sub\n        /* \"#utility.yul\":5478:5479   */\n      0x00\n        /* \"#utility.yul\":5467:5476   */\n      dup4\n        /* \"#utility.yul\":5463:5480   */\n      add\n        /* \"#utility.yul\":5456:5503   */\n      mstore\n        /* \"#utility.yul\":5520:5598   */\n      tag_152\n        /* \"#utility.yul\":5593:5597   */\n      dup2\n        /* \"#utility.yul\":5584:5590   */\n      dup6\n        /* \"#utility.yul\":5520:5598   */\n      tag_122\n      jump\t// in\n    tag_152:\n        /* \"#utility.yul\":5512:5598   */\n      swap1\n      pop\n        /* \"#utility.yul\":5645:5654   */\n      dup2\n        /* \"#utility.yul\":5639:5643   */\n      dup2\n        /* \"#utility.yul\":5635:5655   */\n      sub\n        /* \"#utility.yul\":5630:5632   */\n      0x20\n        /* \"#utility.yul\":5619:5628   */\n      dup4\n        /* \"#utility.yul\":5615:5633   */\n      add\n        /* \"#utility.yul\":5608:5656   */\n      mstore\n        /* \"#utility.yul\":5673:5751   */\n      tag_153\n        /* \"#utility.yul\":5746:5750   */\n      dup2\n        /* \"#utility.yul\":5737:5743   */\n      dup5\n        /* \"#utility.yul\":5673:5751   */\n      tag_122\n      jump\t// in\n    tag_153:\n        /* \"#utility.yul\":5665:5751   */\n      swap1\n      pop\n        /* \"#utility.yul\":5244:5758   */\n      swap4\n      swap3\n      pop\n      pop\n      pop\n      jump\t// out\n        /* \"#utility.yul\":5764:6183   */\n    tag_33:\n        /* \"#utility.yul\":5930:5934   */\n      0x00\n        /* \"#utility.yul\":5968:5970   */\n      0x20\n        /* \"#utility.yul\":5957:5966   */\n      dup3\n        /* \"#utility.yul\":5953:5971   */\n      add\n        /* \"#utility.yul\":5945:5971   */\n      swap1\n      pop\n        /* \"#utility.yul\":6017:6026   */\n      dup2\n        /* \"#utility.yul\":6011:6015   */\n      dup2\n        /* \"#utility.yul\":6007:6027   */\n      sub\n        /* \"#utility.yul\":6003:6004   */\n      0x00\n        /* \"#utility.yul\":5992:6001   */\n      dup4\n        /* \"#utility.yul\":5988:6005   */\n      add\n        /* \"#utility.yul\":5981:6028   */\n      mstore\n        /* \"#utility.yul\":6045:6176   */\n      tag_155\n        /* \"#utility.yul\":6171:6175   */\n      dup2\n        /* \"#utility.yul\":6045:6176   */\n      tag_138\n      jump\t// in\n    tag_155:\n        /* \"#utility.yul\":6037:6176   */\n      swap1\n      pop\n        /* \"#utility.yul\":5764:6183   */\n      swap2\n      swap1\n      pop\n      jump\t// out\n        /* \"#utility.yul\":6189:6509   */\n    tag_29:\n        /* \"#utility.yul\":6304:6308   */\n      0x00\n        /* \"#utility.yul\":6342:6344   */\n      0x40\n        /* \"#utility.yul\":6331:6340   */\n      dup3\n        /* \"#utility.yul\":6327:6345   */\n      add\n        /* \"#utility.yul\":6319:6345   */\n      swap1\n      pop\n        /* \"#utility.yul\":6355:6426   */\n      tag_157\n        /* \"#utility.yul\":6423:6424   */\n      0x00\n        /* \"#utility.yul\":6412:6421   */\n      dup4\n        /* \"#utility.yul\":6408:6425   */\n      add\n        /* \"#utility.yul\":6399:6405   */\n      dup6\n        /* \"#utility.yul\":6355:6426   */\n      tag_143\n      jump\t// in\n    tag_157:\n        /* \"#utility.yul\":6436:6502   */\n      tag_158\n        /* \"#utility.yul\":6498:6500   */\n      0x20\n        /* \"#utility.yul\":6487:6496   */\n      dup4\n        /* \"#utility.yul\":6483:6501   */\n      add\n        /* \"#utility.yul\":6474:6480   */\n      dup5\n        /* \"#utility.yul\":6436:6502   */\n      tag_118\n      jump\t// in\n    tag_158:\n        /* \"#utility.yul\":6189:6509   */\n      swap4\n      swap3\n      pop\n      pop\n      pop\n      jump\t// out\n        /* \"#utility.yul\":6515:6644   */\n    tag_74:\n        /* \"#utility.yul\":6549:6555   */\n      0x00\n        /* \"#utility.yul\":6576:6596   */\n      tag_160\n      tag_161\n      jump\t// in\n    tag_160:\n        /* \"#utility.yul\":6566:6596   */\n      swap1\n      pop\n        /* \"#utility.yul\":6605:6638   */\n      tag_162\n        /* \"#utility.yul\":6633:6637   */\n      dup3\n        /* \"#utility.yul\":6625:6631   */\n      dup3\n        /* \"#utility.yul\":6605:6638   */\n      tag_163\n      jump\t// in\n    tag_162:\n        /* \"#utility.yul\":6515:6644   */\n      swap2\n      swap1\n      pop\n      jump\t// out\n        /* \"#utility.yul\":6650:6725   */\n    tag_161:\n        /* \"#utility.yul\":6683:6689   */\n      0x00\n        /* \"#utility.yul\":6716:6718   */\n      0x40\n        /* \"#utility.yul\":6710:6719   */\n      mload\n        /* \"#utility.yul\":6700:6719   */\n      swap1\n      pop\n        /* \"#utility.yul\":6650:6725   */\n      swap1\n      jump\t// out\n        /* \"#utility.yul\":6731:7039   */\n    tag_73:\n        /* \"#utility.yul\":6793:6797   */\n      0x00\n        /* \"#utility.yul\":6883:6901   */\n      0xffffffffffffffff\n        /* \"#utility.yul\":6875:6881   */\n      dup3\n        /* \"#utility.yul\":6872:6902   */\n      gt\n        /* \"#utility.yul\":6869:6925   */\n      iszero\n      tag_166\n      jumpi\n        /* \"#utility.yul\":6905:6923   */\n      tag_167\n      tag_168\n      jump\t// in\n    tag_167:\n        /* \"#utility.yul\":6869:6925   */\n    tag_166:\n        /* \"#utility.yul\":6943:6972   */\n      tag_169\n        /* \"#utility.yul\":6965:6971   */\n      dup3\n        /* \"#utility.yul\":6943:6972   */\n      tag_131\n      jump\t// in\n    tag_169:\n        /* \"#utility.yul\":6935:6972   */\n      swap1\n      pop\n        /* \"#utility.yul\":7027:7031   */\n      0x20\n        /* \"#utility.yul\":7021:7025   */\n      dup2\n        /* \"#utility.yul\":7017:7032   */\n      add\n        /* \"#utility.yul\":7009:7032   */\n      swap1\n      pop\n        /* \"#utility.yul\":6731:7039   */\n      swap2\n      swap1\n      pop\n      jump\t// out\n        /* \"#utility.yul\":7045:7144   */\n    tag_125:\n        /* \"#utility.yul\":7097:7103   */\n      0x00\n        /* \"#utility.yul\":7131:7136   */\n      dup2\n        /* \"#utility.yul\":7125:7137   */\n      mload\n        /* \"#utility.yul\":7115:7137   */\n      swap1\n      pop\n        /* \"#utility.yul\":7045:7144   */\n      swap2\n      swap1\n      pop\n      jump\t// out\n        /* \"#utility.yul\":7150:7319   */\n    tag_127:\n        /* \"#utility.yul\":7234:7245   */\n      0x00\n        /* \"#utility.yul\":7268:7274   */\n      dup3\n        /* \"#utility.yul\":7263:7266   */\n      dup3\n        /* \"#utility.yul\":7256:7275   */\n      mstore\n        /* \"#utility.yul\":7308:7312   */\n      0x20\n        /* \"#utility.yul\":7303:7306   */\n      dup3\n        /* \"#utility.yul\":7299:7313   */\n      add\n        /* \"#utility.yul\":7284:7313   */\n      swap1\n      pop\n        /* \"#utility.yul\":7150:7319   */\n      swap3\n      swap2\n      pop\n      pop\n      jump\t// out\n        /* \"#utility.yul\":7325:7473   */\n    tag_136:\n        /* \"#utility.yul\":7427:7438   */\n      0x00\n        /* \"#utility.yul\":7464:7467   */\n      dup2\n        /* \"#utility.yul\":7449:7467   */\n      swap1\n      pop\n        /* \"#utility.yul\":7325:7473   */\n      swap3\n      swap2\n      pop\n      pop\n      jump\t// out\n        /* \"#utility.yul\":7479:7569   */\n    tag_121:\n        /* \"#utility.yul\":7513:7520   */\n      0x00\n        /* \"#utility.yul\":7556:7561   */\n      dup2\n        /* \"#utility.yul\":7549:7562   */\n      iszero\n        /* \"#utility.yul\":7542:7563   */\n      iszero\n        /* \"#utility.yul\":7531:7563   */\n      swap1\n      pop\n        /* \"#utility.yul\":7479:7569   */\n      swap2\n      swap1\n      pop\n      jump\t// out\n        /* \"#utility.yul\":7575:7652   */\n    tag_146:\n        /* \"#utility.yul\":7612:7619   */\n      0x00\n        /* \"#utility.yul\":7641:7646   */\n      dup2\n        /* \"#utility.yul\":7630:7646   */\n      swap1\n      pop\n        /* \"#utility.yul\":7575:7652   */\n      swap2\n      swap1\n      pop\n      jump\t// out\n        /* \"#utility.yul\":7658:7812   */\n    tag_79:\n        /* \"#utility.yul\":7742:7748   */\n      dup3\n        /* \"#utility.yul\":7737:7740   */\n      dup2\n        /* \"#utility.yul\":7732:7735   */\n      dup4\n        /* \"#utility.yul\":7719:7749   */\n      calldatacopy\n        /* \"#utility.yul\":7804:7805   */\n      0x00\n        /* \"#utility.yul\":7795:7801   */\n      dup4\n        /* \"#utility.yul\":7790:7793   */\n      dup4\n        /* \"#utility.yul\":7786:7802   */\n      add\n        /* \"#utility.yul\":7779:7806   */\n      mstore\n        /* \"#utility.yul\":7658:7812   */\n      pop\n      pop\n      pop\n      jump\t// out\n        /* \"#utility.yul\":7818:8125   */\n    tag_129:\n        /* \"#utility.yul\":7886:7887   */\n      0x00\n        /* \"#utility.yul\":7896:8009   */\n    tag_177:\n        /* \"#utility.yul\":7910:7916   */\n      dup4\n        /* \"#utility.yul\":7907:7908   */\n      dup2\n        /* \"#utility.yul\":7904:7917   */\n      lt\n        /* \"#utility.yul\":7896:8009   */\n      iszero\n      tag_179\n      jumpi\n        /* \"#utility.yul\":7995:7996   */\n      dup1\n        /* \"#utility.yul\":7990:7993   */\n      dup3\n        /* \"#utility.yul\":7986:7997   */\n      add\n        /* \"#utility.yul\":7980:7998   */\n      mload\n        /* \"#utility.yul\":7976:7977   */\n      dup2\n        /* \"#utility.yul\":7971:7974   */\n      dup5\n        /* \"#utility.yul\":7967:7978   */\n      add\n        /* \"#utility.yul\":7960:7999   */\n      mstore\n        /* \"#utility.yul\":7932:7934   */\n      0x20\n        /* \"#utility.yul\":7929:7930   */\n      dup2\n        /* \"#utility.yul\":7925:7935   */\n      add\n        /* \"#utility.yul\":7920:7935   */\n      swap1\n      pop\n        /* \"#utility.yul\":7896:8009   */\n      jump(tag_177)\n    tag_179:\n        /* \"#utility.yul\":8027:8033   */\n      dup4\n        /* \"#utility.yul\":8024:8025   */\n      dup2\n        /* \"#utility.yul\":8021:8034   */\n      gt\n        /* \"#utility.yul\":8018:8119   */\n      iszero\n      tag_180\n      jumpi\n        /* \"#utility.yul\":8107:8108   */\n      0x00\n        /* \"#utility.yul\":8098:8104   */\n      dup5\n        /* \"#utility.yul\":8093:8096   */\n      dup5\n        /* \"#utility.yul\":8089:8105   */\n      add\n        /* \"#utility.yul\":8082:8109   */\n      mstore\n        /* \"#utility.yul\":8018:8119   */\n    tag_180:\n        /* \"#utility.yul\":7867:8125   */\n      pop\n        /* \"#utility.yul\":7818:8125   */\n      pop\n      pop\n      pop\n      jump\t// out\n        /* \"#utility.yul\":8131:8451   */\n    tag_48:\n        /* \"#utility.yul\":8175:8181   */\n      0x00\n        /* \"#utility.yul\":8212:8213   */\n      0x02\n        /* \"#utility.yul\":8206:8210   */\n      dup3\n        /* \"#utility.yul\":8202:8214   */\n      div\n        /* \"#utility.yul\":8192:8214   */\n      swap1\n      pop\n        /* \"#utility.yul\":8259:8260   */\n      0x01\n        /* \"#utility.yul\":8253:8257   */\n      dup3\n        /* \"#utility.yul\":8249:8261   */\n      and\n        /* \"#utility.yul\":8280:8298   */\n      dup1\n        /* \"#utility.yul\":8270:8351   */\n      tag_182\n      jumpi\n        /* \"#utility.yul\":8336:8340   */\n      0x7f\n        /* \"#utility.yul\":8328:8334   */\n      dup3\n        /* \"#utility.yul\":8324:8341   */\n      and\n        /* \"#utility.yul\":8314:8341   */\n      swap2\n      pop\n        /* \"#utility.yul\":8270:8351   */\n    tag_182:\n        /* \"#utility.yul\":8398:8400   */\n      0x20\n        /* \"#utility.yul\":8390:8396   */\n      dup3\n        /* \"#utility.yul\":8387:8401   */\n      lt\n        /* \"#utility.yul\":8367:8385   */\n      dup2\n        /* \"#utility.yul\":8364:8402   */\n      eq\n        /* \"#utility.yul\":8361:8445   */\n      iszero\n      tag_183\n      jumpi\n        /* \"#utility.yul\":8417:8435   */\n      tag_184\n      tag_185\n      jump\t// in\n    tag_184:\n        /* \"#utility.yul\":8361:8445   */\n    tag_183:\n        /* \"#utility.yul\":8182:8451   */\n      pop\n        /* \"#utility.yul\":8131:8451   */\n      swap2\n      swap1\n      pop\n      jump\t// out\n        /* \"#utility.yul\":8457:8738   */\n    tag_163:\n        /* \"#utility.yul\":8540:8567   */\n      tag_187\n        /* \"#utility.yul\":8562:8566   */\n      dup3\n        /* \"#utility.yul\":8540:8567   */\n      tag_131\n      jump\t// in\n    tag_187:\n        /* \"#utility.yul\":8532:8538   */\n      dup2\n        /* \"#utility.yul\":8528:8568   */\n      add\n        /* \"#utility.yul\":8670:8676   */\n      dup2\n        /* \"#utility.yul\":8658:8668   */\n      dup2\n        /* \"#utility.yul\":8655:8677   */\n      lt\n        /* \"#utility.yul\":8634:8652   */\n      0xffffffffffffffff\n        /* \"#utility.yul\":8622:8632   */\n      dup3\n        /* \"#utility.yul\":8619:8653   */\n      gt\n        /* \"#utility.yul\":8616:8678   */\n      or\n        /* \"#utility.yul\":8613:8701   */\n      iszero\n      tag_188\n      jumpi\n        /* \"#utility.yul\":8681:8699   */\n      tag_189\n      tag_168\n      jump\t// in\n    tag_189:\n        /* \"#utility.yul\":8613:8701   */\n    tag_188:\n        /* \"#utility.yul\":8721:8731   */\n      dup1\n        /* \"#utility.yul\":8717:8719   */\n      0x40\n        /* \"#utility.yul\":8710:8732   */\n      mstore\n        /* \"#utility.yul\":8500:8738   */\n      pop\n        /* \"#utility.yul\":8457:8738   */\n      pop\n      pop\n      jump\t// out\n        /* \"#utility.yul\":8744:8977   */\n    tag_36:\n        /* \"#utility.yul\":8783:8786   */\n      0x00\n        /* \"#utility.yul\":8806:8830   */\n      tag_191\n        /* \"#utility.yul\":8824:8829   */\n      dup3\n        /* \"#utility.yul\":8806:8830   */\n      tag_146\n      jump\t// in\n    tag_191:\n        /* \"#utility.yul\":8797:8830   */\n      swap2\n      pop\n        /* \"#utility.yul\":8852:8918   */\n      0xffffffffffffffffffffffffffffffffffffffffffffffffffffffffffffffff\n        /* \"#utility.yul\":8845:8850   */\n      dup3\n        /* \"#utility.yul\":8842:8919   */\n      eq\n        /* \"#utility.yul\":8839:8942   */\n      iszero\n      tag_192\n      jumpi\n        /* \"#utility.yul\":8922:8940   */\n      tag_193\n      tag_194\n      jump\t// in\n    tag_193:\n        /* \"#utility.yul\":8839:8942   */\n    tag_192:\n        /* \"#utility.yul\":8969:8970   */\n      0x01\n        /* \"#utility.yul\":8962:8967   */\n      dup3\n        /* \"#utility.yul\":8958:8971   */\n      add\n        /* \"#utility.yul\":8951:8971   */\n      swap1\n      pop\n        /* \"#utility.yul\":8744:8977   */\n      swap2\n      swap1\n      pop\n      jump\t// out\n        /* \"#utility.yul\":8983:9163   */\n    tag_194:\n        /* \"#utility.yul\":9031:9108   */\n      0x4e487b7100000000000000000000000000000000000000000000000000000000\n        /* \"#utility.yul\":9028:9029   */\n      0x00\n        /* \"#utility.yul\":9021:9109   */\n      mstore\n        /* \"#utility.yul\":9128:9132   */\n      0x11\n        /* \"#utility.yul\":9125:9126   */\n      0x04\n        /* \"#utility.yul\":9118:9133   */\n      mstore\n        /* \"#utility.yul\":9152:9156   */\n      0x24\n        /* \"#utility.yul\":9149:9150   */\n      0x00\n        /* \"#utility.yul\":9142:9157   */\n      revert\n        /* \"#utility.yul\":9169:9349   */\n    tag_185:\n        /* \"#utility.yul\":9217:9294   */\n      0x4e487b7100000000000000000000000000000000000000000000000000000000\n        /* \"#utility.yul\":9214:9215   */\n      0x00\n        /* \"#utility.yul\":9207:9295   */\n      mstore\n        /* \"#utility.yul\":9314:9318   */\n      0x22\n        /* \"#utility.yul\":9311:9312   */\n      0x04\n        /* \"#utility.yul\":9304:9319   */\n      mstore\n        /* \"#utility.yul\":9338:9342   */\n      0x24\n        /* \"#utility.yul\":9335:9336   */\n      0x00\n        /* \"#utility.yul\":9328:9343   */\n      revert\n        /* \"#utility.yul\":9355:9535   */\n    tag_168:\n        /* \"#utility.yul\":9403:9480   */\n      0x4e487b7100000000000000000000000000000000000000000000000000000000\n        /* \"#utility.yul\":9400:9401   */\n      0x00\n        /* \"#utility.yul\":9393:9481   */\n      mstore\n        /* \"#utility.yul\":9500:9504   */\n      0x41\n        /* \"#utility.yul\":9497:9498   */\n      0x04\n        /* \"#utility.yul\":9490:9505   */\n      mstore\n        /* \"#utility.yul\":9524:9528   */\n      0x24\n        /* \"#utility.yul\":9521:9522   */\n      0x00\n        /* \"#utility.yul\":9514:9529   */\n      revert\n        /* \"#utility.yul\":9541:9658   */\n    tag_84:\n        /* \"#utility.yul\":9650:9651   */\n      0x00\n        /* \"#utility.yul\":9647:9648   */\n      dup1\n        /* \"#utility.yul\":9640:9652   */\n      revert\n        /* \"#utility.yul\":9664:9781   */\n    tag_77:\n        /* \"#utility.yul\":9773:9774   */\n      0x00\n        /* \"#utility.yul\":9770:9771   */\n      dup1\n        /* \"#utility.yul\":9763:9775   */\n      revert\n        /* \"#utility.yul\":9787:9904   */\n    tag_96:\n        /* \"#utility.yul\":9896:9897   */\n      0x00\n        /* \"#utility.yul\":9893:9894   */\n      dup1\n        /* \"#utility.yul\":9886:9898   */\n      revert\n        /* \"#utility.yul\":9910:10027   */\n    tag_93:\n        /* \"#utility.yul\":10019:10020   */\n      0x00\n        /* \"#utility.yul\":10016:10017   */\n      dup1\n        /* \"#utility.yul\":10009:10021   */\n      revert\n        /* \"#utility.yul\":10033:10135   */\n    tag_131:\n        /* \"#utility.yul\":10074:10080   */\n      0x00\n        /* \"#utility.yul\":10125:10127   */\n      0x1f\n        /* \"#utility.yul\":10121:10128   */\n      not\n        /* \"#utility.yul\":10116:10118   */\n      0x1f\n        /* \"#utility.yul\":10109:10114   */\n      dup4\n        /* \"#utility.yul\":10105:10119   */\n      add\n        /* \"#utility.yul\":10101:10129   */\n      and\n        /* \"#utility.yul\":10091:10129   */\n      swap1\n      pop\n        /* \"#utility.yul\":10033:10135   */\n      swap2\n      swap1\n      pop\n      jump\t// out\n        /* \"#utility.yul\":10141:10307   */\n    tag_142:\n        /* \"#utility.yul\":10281:10299   */\n      0x4163636573732069732044656e69656400000000000000000000000000000000\n        /* \"#utility.yul\":10277:10278   */\n      0x00\n        /* \"#utility.yul\":10269:10275   */\n      dup3\n        /* \"#utility.yul\":10265:10279   */\n      add\n        /* \"#utility.yul\":10258:10300   */\n      mstore\n        /* \"#utility.yul\":10141:10307   */\n      pop\n      jump\t// out\n        /* \"#utility.yul\":10313:10435   */\n    tag_89:\n        /* \"#utility.yul\":10386:10410   */\n      tag_205\n        /* \"#utility.yul\":10404:10409   */\n      dup2\n        /* \"#utility.yul\":10386:10410   */\n      tag_146\n      jump\t// in\n    tag_205:\n        /* \"#utility.yul\":10379:10384   */\n      dup2\n        /* \"#utility.yul\":10376:10411   */\n      eq\n        /* \"#utility.yul\":10366:10429   */\n      tag_206\n      jumpi\n        /* \"#utility.yul\":10425:10426   */\n      0x00\n        /* \"#utility.yul\":10422:10423   */\n      dup1\n        /* \"#utility.yul\":10415:10427   */\n      revert\n        /* \"#utility.yul\":10366:10429   */\n    tag_206:\n        /* \"#utility.yul\":10313:10435   */\n      pop\n      jump\t// out\n    stop\n    data_346ae9e229890c1b5467b3280ac50efb3a563831aa4e9bb9392fe53f7d7de7e2 596f752077696c6c20626520616464656420746f2063616e646964617465206c697374206f6e636520796f75206172652076616c696461746564206279207468652061646d696e\n\n    auxdata: 0xa2646970667358221220f98badda5e57da34b4641d5e239cd901093673816e1e9b652e3cc9f4ac817af364736f6c63430008070033\n}\n",
				"bytecode": {
					"linkReferences": {},
					"object": "608060405234801561001057600080fd5b5033600260006101000a81548173ffffffffffffffffffffffffffffffffffffffff021916908373ffffffffffffffffffffffffffffffffffffffff160217905550610b9e806100616000396000f3fe608060405234801561001057600080fd5b506004361061004c5760003560e01c80630fd94e641461005157806317678bc3146100815780633477ee2e146100b157806353fa2e64146100e2575b600080fd5b61006b600480360381019061006691906106c1565b610113565b604051610078919061080c565b60405180910390f35b61009b60048036038101906100969190610649565b610229565b6040516100a8919061080c565b60405180910390f35b6100cb60048036038101906100c6919061071d565b61035d565b6040516100d992919061082e565b60405180910390f35b6100fc60048036038101906100f79190610600565b610491565b60405161010a929190610885565b60405180910390f35b6060600260009054906101000a900473ffffffffffffffffffffffffffffffffffffffff1673ffffffffffffffffffffffffffffffffffffffff163373ffffffffffffffffffffffffffffffffffffffff16146101a5576040517f08c379a000000000000000000000000000000000000000000000000000000000815260040161019c90610865565b60405180910390fd5b60008060008154809291906101b9906109e6565b9190505590506040518060400160405280848152602001600115158152506004856040516101e791906107f5565b90815260200160405180910390206000820151816000015560208201518160010160006101000a81548160ff0219169083151502179055509050505092915050565b6060600260009054906101000a900473ffffffffffffffffffffffffffffffffffffffff1673ffffffffffffffffffffffffffffffffffffffff163373ffffffffffffffffffffffffffffffffffffffff16146102bb576040517f08c379a00000000000000000000000000000000000000000000000000000000081526004016102b290610865565b60405180910390fd5b6000600160008154809291906102d0906109e6565b91905055905060405180604001604052808581526020018481525060036000838152602001908152602001600020600082015181600001908051906020019061031a9291906104d8565b5060208201518160010190805190602001906103379291906104d8565b50905050604051806080016040528060478152602001610b226047913991505092915050565b600360205280600052604060002060009150905080600001805461038090610983565b80601f01602080910402602001604051908101604052809291908181526020018280546103ac90610983565b80156103f95780601f106103ce576101008083540402835291602001916103f9565b820191906000526020600020905b8154815290600101906020018083116103dc57829003601f168201915b50505050509080600101805461040e90610983565b80601f016020809104026020016040519081016040528092919081815260200182805461043a90610983565b80156104875780601f1061045c57610100808354040283529160200191610487565b820191906000526020600020905b81548152906001019060200180831161046a57829003601f168201915b5050505050905082565b6004818051602081018201805184825260208301602085012081835280955050505050506000915090508060000154908060010160009054906101000a900460ff16905082565b8280546104e490610983565b90600052602060002090601f016020900481019282610506576000855561054d565b82601f1061051f57805160ff191683800117855561054d565b8280016001018555821561054d579182015b8281111561054c578251825591602001919060010190610531565b5b50905061055a919061055e565b5090565b5b8082111561057757600081600090555060010161055f565b5090565b600061058e610589846108d3565b6108ae565b9050828152602081018484840111156105aa576105a9610ac1565b5b6105b5848285610941565b509392505050565b600082601f8301126105d2576105d1610abc565b5b81356105e284826020860161057b565b91505092915050565b6000813590506105fa81610b0a565b92915050565b60006020828403121561061657610615610acb565b5b600082013567ffffffffffffffff81111561063457610633610ac6565b5b610640848285016105bd565b91505092915050565b600080604083850312156106605761065f610acb565b5b600083013567ffffffffffffffff81111561067e5761067d610ac6565b5b61068a858286016105bd565b925050602083013567ffffffffffffffff8111156106ab576106aa610ac6565b5b6106b7858286016105bd565b9150509250929050565b600080604083850312156106d8576106d7610acb565b5b600083013567ffffffffffffffff8111156106f6576106f5610ac6565b5b610702858286016105bd565b9250506020610713858286016105eb565b9150509250929050565b60006020828403121561073357610732610acb565b5b6000610741848285016105eb565b91505092915050565b6107538161092b565b82525050565b600061076482610904565b61076e818561090f565b935061077e818560208601610950565b61078781610ad0565b840191505092915050565b600061079d82610904565b6107a78185610920565b93506107b7818560208601610950565b80840191505092915050565b60006107d060108361090f565b91506107db82610ae1565b602082019050919050565b6107ef81610937565b82525050565b60006108018284610792565b915081905092915050565b600060208201905081810360008301526108268184610759565b905092915050565b600060408201905081810360008301526108488185610759565b9050818103602083015261085c8184610759565b90509392505050565b6000602082019050818103600083015261087e816107c3565b9050919050565b600060408201905061089a60008301856107e6565b6108a7602083018461074a565b9392505050565b60006108b86108c9565b90506108c482826109b5565b919050565b6000604051905090565b600067ffffffffffffffff8211156108ee576108ed610a8d565b5b6108f782610ad0565b9050602081019050919050565b600081519050919050565b600082825260208201905092915050565b600081905092915050565b60008115159050919050565b6000819050919050565b82818337600083830152505050565b60005b8381101561096e578082015181840152602081019050610953565b8381111561097d576000848401525b50505050565b6000600282049050600182168061099b57607f821691505b602082108114156109af576109ae610a5e565b5b50919050565b6109be82610ad0565b810181811067ffffffffffffffff821117156109dd576109dc610a8d565b5b80604052505050565b60006109f182610937565b91507fffffffffffffffffffffffffffffffffffffffffffffffffffffffffffffffff821415610a2457610a23610a2f565b5b600182019050919050565b7f4e487b7100000000000000000000000000000000000000000000000000000000600052601160045260246000fd5b7f4e487b7100000000000000000000000000000000000000000000000000000000600052602260045260246000fd5b7f4e487b7100000000000000000000000000000000000000000000000000000000600052604160045260246000fd5b600080fd5b600080fd5b600080fd5b600080fd5b6000601f19601f8301169050919050565b7f4163636573732069732044656e69656400000000000000000000000000000000600082015250565b610b1381610937565b8114610b1e57600080fd5b5056fe596f752077696c6c20626520616464656420746f2063616e646964617465206c697374206f6e636520796f75206172652076616c696461746564206279207468652061646d696ea2646970667358221220f98badda5e57da34b4641d5e239cd901093673816e1e9b652e3cc9f4ac817af364736f6c63430008070033",
					"opcodes": "PUSH1 0x80 PUSH1 0x40 MSTORE CALLVALUE DUP1 ISZERO PUSH2 0x10 JUMPI PUSH1 0x0 DUP1 REVERT JUMPDEST POP CALLER PUSH1 0x2 PUSH1 0x0 PUSH2 0x100 EXP DUP2 SLOAD DUP2 PUSH20 0xFFFFFFFFFFFFFFFFFFFFFFFFFFFFFFFFFFFFFFFF MUL NOT AND SWAP1 DUP4 PUSH20 0xFFFFFFFFFFFFFFFFFFFFFFFFFFFFFFFFFFFFFFFF AND MUL OR SWAP1 SSTORE POP PUSH2 0xB9E DUP1 PUSH2 0x61 PUSH1 0x0 CODECOPY PUSH1 0x0 RETURN INVALID PUSH1 0x80 PUSH1 0x40 MSTORE CALLVALUE DUP1 ISZERO PUSH2 0x10 JUMPI PUSH1 0x0 DUP1 REVERT JUMPDEST POP PUSH1 0x4 CALLDATASIZE LT PUSH2 0x4C JUMPI PUSH1 0x0 CALLDATALOAD PUSH1 0xE0 SHR DUP1 PUSH4 0xFD94E64 EQ PUSH2 0x51 JUMPI DUP1 PUSH4 0x17678BC3 EQ PUSH2 0x81 JUMPI DUP1 PUSH4 0x3477EE2E EQ PUSH2 0xB1 JUMPI DUP1 PUSH4 0x53FA2E64 EQ PUSH2 0xE2 JUMPI JUMPDEST PUSH1 0x0 DUP1 REVERT JUMPDEST PUSH2 0x6B PUSH1 0x4 DUP1 CALLDATASIZE SUB DUP2 ADD SWAP1 PUSH2 0x66 SWAP2 SWAP1 PUSH2 0x6C1 JUMP JUMPDEST PUSH2 0x113 JUMP JUMPDEST PUSH1 0x40 MLOAD PUSH2 0x78 SWAP2 SWAP1 PUSH2 0x80C JUMP JUMPDEST PUSH1 0x40 MLOAD DUP1 SWAP2 SUB SWAP1 RETURN JUMPDEST PUSH2 0x9B PUSH1 0x4 DUP1 CALLDATASIZE SUB DUP2 ADD SWAP1 PUSH2 0x96 SWAP2 SWAP1 PUSH2 0x649 JUMP JUMPDEST PUSH2 0x229 JUMP JUMPDEST PUSH1 0x40 MLOAD PUSH2 0xA8 SWAP2 SWAP1 PUSH2 0x80C JUMP JUMPDEST PUSH1 0x40 MLOAD DUP1 SWAP2 SUB SWAP1 RETURN JUMPDEST PUSH2 0xCB PUSH1 0x4 DUP1 CALLDATASIZE SUB DUP2 ADD SWAP1 PUSH2 0xC6 SWAP2 SWAP1 PUSH2 0x71D JUMP JUMPDEST PUSH2 0x35D JUMP JUMPDEST PUSH1 0x40 MLOAD PUSH2 0xD9 SWAP3 SWAP2 SWAP1 PUSH2 0x82E JUMP JUMPDEST PUSH1 0x40 MLOAD DUP1 SWAP2 SUB SWAP1 RETURN JUMPDEST PUSH2 0xFC PUSH1 0x4 DUP1 CALLDATASIZE SUB DUP2 ADD SWAP1 PUSH2 0xF7 SWAP2 SWAP1 PUSH2 0x600 JUMP JUMPDEST PUSH2 0x491 JUMP JUMPDEST PUSH1 0x40 MLOAD PUSH2 0x10A SWAP3 SWAP2 SWAP1 PUSH2 0x885 JUMP JUMPDEST PUSH1 0x40 MLOAD DUP1 SWAP2 SUB SWAP1 RETURN JUMPDEST PUSH1 0x60 PUSH1 0x2 PUSH1 0x0 SWAP1 SLOAD SWAP1 PUSH2 0x100 EXP SWAP1 DIV PUSH20 0xFFFFFFFFFFFFFFFFFFFFFFFFFFFFFFFFFFFFFFFF AND PUSH20 0xFFFFFFFFFFFFFFFFFFFFFFFFFFFFFFFFFFFFFFFF AND CALLER PUSH20 0xFFFFFFFFFFFFFFFFFFFFFFFFFFFFFFFFFFFFFFFF AND EQ PUSH2 0x1A5 JUMPI PUSH1 0x40 MLOAD PUSH32 0x8C379A000000000000000000000000000000000000000000000000000000000 DUP2 MSTORE PUSH1 0x4 ADD PUSH2 0x19C SWAP1 PUSH2 0x865 JUMP JUMPDEST PUSH1 0x40 MLOAD DUP1 SWAP2 SUB SWAP1 REVERT JUMPDEST PUSH1 0x0 DUP1 PUSH1 0x0 DUP2 SLOAD DUP1 SWAP3 SWAP2 SWAP1 PUSH2 0x1B9 SWAP1 PUSH2 0x9E6 JUMP JUMPDEST SWAP2 SWAP1 POP SSTORE SWAP1 POP PUSH1 0x40 MLOAD DUP1 PUSH1 0x40 ADD PUSH1 0x40 MSTORE DUP1 DUP5 DUP2 MSTORE PUSH1 0x20 ADD PUSH1 0x1 ISZERO ISZERO DUP2 MSTORE POP PUSH1 0x4 DUP6 PUSH1 0x40 MLOAD PUSH2 0x1E7 SWAP2 SWAP1 PUSH2 0x7F5 JUMP JUMPDEST SWAP1 DUP2 MSTORE PUSH1 0x20 ADD PUSH1 0x40 MLOAD DUP1 SWAP2 SUB SWAP1 KECCAK256 PUSH1 0x0 DUP3 ADD MLOAD DUP2 PUSH1 0x0 ADD SSTORE PUSH1 0x20 DUP3 ADD MLOAD DUP2 PUSH1 0x1 ADD PUSH1 0x0 PUSH2 0x100 EXP DUP2 SLOAD DUP2 PUSH1 0xFF MUL NOT AND SWAP1 DUP4 ISZERO ISZERO MUL OR SWAP1 SSTORE POP SWAP1 POP POP POP SWAP3 SWAP2 POP POP JUMP JUMPDEST PUSH1 0x60 PUSH1 0x2 PUSH1 0x0 SWAP1 SLOAD SWAP1 PUSH2 0x100 EXP SWAP1 DIV PUSH20 0xFFFFFFFFFFFFFFFFFFFFFFFFFFFFFFFFFFFFFFFF AND PUSH20 0xFFFFFFFFFFFFFFFFFFFFFFFFFFFFFFFFFFFFFFFF AND CALLER PUSH20 0xFFFFFFFFFFFFFFFFFFFFFFFFFFFFFFFFFFFFFFFF AND EQ PUSH2 0x2BB JUMPI PUSH1 0x40 MLOAD PUSH32 0x8C379A000000000000000000000000000000000000000000000000000000000 DUP2 MSTORE PUSH1 0x4 ADD PUSH2 0x2B2 SWAP1 PUSH2 0x865 JUMP JUMPDEST PUSH1 0x40 MLOAD DUP1 SWAP2 SUB SWAP1 REVERT JUMPDEST PUSH1 0x0 PUSH1 0x1 PUSH1 0x0 DUP2 SLOAD DUP1 SWAP3 SWAP2 SWAP1 PUSH2 0x2D0 SWAP1 PUSH2 0x9E6 JUMP JUMPDEST SWAP2 SWAP1 POP SSTORE SWAP1 POP PUSH1 0x40 MLOAD DUP1 PUSH1 0x40 ADD PUSH1 0x40 MSTORE DUP1 DUP6 DUP2 MSTORE PUSH1 0x20 ADD DUP5 DUP2 MSTORE POP PUSH1 0x3 PUSH1 0x0 DUP4 DUP2 MSTORE PUSH1 0x20 ADD SWAP1 DUP2 MSTORE PUSH1 0x20 ADD PUSH1 0x0 KECCAK256 PUSH1 0x0 DUP3 ADD MLOAD DUP2 PUSH1 0x0 ADD SWAP1 DUP1 MLOAD SWAP1 PUSH1 0x20 ADD SWAP1 PUSH2 0x31A SWAP3 SWAP2 SWAP1 PUSH2 0x4D8 JUMP JUMPDEST POP PUSH1 0x20 DUP3 ADD MLOAD DUP2 PUSH1 0x1 ADD SWAP1 DUP1 MLOAD SWAP1 PUSH1 0x20 ADD SWAP1 PUSH2 0x337 SWAP3 SWAP2 SWAP1 PUSH2 0x4D8 JUMP JUMPDEST POP SWAP1 POP POP PUSH1 0x40 MLOAD DUP1 PUSH1 0x80 ADD PUSH1 0x40 MSTORE DUP1 PUSH1 0x47 DUP2 MSTORE PUSH1 0x20 ADD PUSH2 0xB22 PUSH1 0x47 SWAP2 CODECOPY SWAP2 POP POP SWAP3 SWAP2 POP POP JUMP JUMPDEST PUSH1 0x3 PUSH1 0x20 MSTORE DUP1 PUSH1 0x0 MSTORE PUSH1 0x40 PUSH1 0x0 KECCAK256 PUSH1 0x0 SWAP2 POP SWAP1 POP DUP1 PUSH1 0x0 ADD DUP1 SLOAD PUSH2 0x380 SWAP1 PUSH2 0x983 JUMP JUMPDEST DUP1 PUSH1 0x1F ADD PUSH1 0x20 DUP1 SWAP2 DIV MUL PUSH1 0x20 ADD PUSH1 0x40 MLOAD SWAP1 DUP2 ADD PUSH1 0x40 MSTORE DUP1 SWAP3 SWAP2 SWAP1 DUP2 DUP2 MSTORE PUSH1 0x20 ADD DUP3 DUP1 SLOAD PUSH2 0x3AC SWAP1 PUSH2 0x983 JUMP JUMPDEST DUP1 ISZERO PUSH2 0x3F9 JUMPI DUP1 PUSH1 0x1F LT PUSH2 0x3CE JUMPI PUSH2 0x100 DUP1 DUP4 SLOAD DIV MUL DUP4 MSTORE SWAP2 PUSH1 0x20 ADD SWAP2 PUSH2 0x3F9 JUMP JUMPDEST DUP3 ADD SWAP2 SWAP1 PUSH1 0x0 MSTORE PUSH1 0x20 PUSH1 0x0 KECCAK256 SWAP1 JUMPDEST DUP2 SLOAD DUP2 MSTORE SWAP1 PUSH1 0x1 ADD SWAP1 PUSH1 0x20 ADD DUP1 DUP4 GT PUSH2 0x3DC JUMPI DUP3 SWAP1 SUB PUSH1 0x1F AND DUP3 ADD SWAP2 JUMPDEST POP POP POP POP POP SWAP1 DUP1 PUSH1 0x1 ADD DUP1 SLOAD PUSH2 0x40E SWAP1 PUSH2 0x983 JUMP JUMPDEST DUP1 PUSH1 0x1F ADD PUSH1 0x20 DUP1 SWAP2 DIV MUL PUSH1 0x20 ADD PUSH1 0x40 MLOAD SWAP1 DUP2 ADD PUSH1 0x40 MSTORE DUP1 SWAP3 SWAP2 SWAP1 DUP2 DUP2 MSTORE PUSH1 0x20 ADD DUP3 DUP1 SLOAD PUSH2 0x43A SWAP1 PUSH2 0x983 JUMP JUMPDEST DUP1 ISZERO PUSH2 0x487 JUMPI DUP1 PUSH1 0x1F LT PUSH2 0x45C JUMPI PUSH2 0x100 DUP1 DUP4 SLOAD DIV MUL DUP4 MSTORE SWAP2 PUSH1 0x20 ADD SWAP2 PUSH2 0x487 JUMP JUMPDEST DUP3 ADD SWAP2 SWAP1 PUSH1 0x0 MSTORE PUSH1 0x20 PUSH1 0x0 KECCAK256 SWAP1 JUMPDEST DUP2 SLOAD DUP2 MSTORE SWAP1 PUSH1 0x1 ADD SWAP1 PUSH1 0x20 ADD DUP1 DUP4 GT PUSH2 0x46A JUMPI DUP3 SWAP1 SUB PUSH1 0x1F AND DUP3 ADD SWAP2 JUMPDEST POP POP POP POP POP SWAP1 POP DUP3 JUMP JUMPDEST PUSH1 0x4 DUP2 DUP1 MLOAD PUSH1 0x20 DUP2 ADD DUP3 ADD DUP1 MLOAD DUP5 DUP3 MSTORE PUSH1 0x20 DUP4 ADD PUSH1 0x20 DUP6 ADD KECCAK256 DUP2 DUP4 MSTORE DUP1 SWAP6 POP POP POP POP POP POP PUSH1 0x0 SWAP2 POP SWAP1 POP DUP1 PUSH1 0x0 ADD SLOAD SWAP1 DUP1 PUSH1 0x1 ADD PUSH1 0x0 SWAP1 SLOAD SWAP1 PUSH2 0x100 EXP SWAP1 DIV PUSH1 0xFF AND SWAP1 POP DUP3 JUMP JUMPDEST DUP3 DUP1 SLOAD PUSH2 0x4E4 SWAP1 PUSH2 0x983 JUMP JUMPDEST SWAP1 PUSH1 0x0 MSTORE PUSH1 0x20 PUSH1 0x0 KECCAK256 SWAP1 PUSH1 0x1F ADD PUSH1 0x20 SWAP1 DIV DUP2 ADD SWAP3 DUP3 PUSH2 0x506 JUMPI PUSH1 0x0 DUP6 SSTORE PUSH2 0x54D JUMP JUMPDEST DUP3 PUSH1 0x1F LT PUSH2 0x51F JUMPI DUP1 MLOAD PUSH1 0xFF NOT AND DUP4 DUP1 ADD OR DUP6 SSTORE PUSH2 0x54D JUMP JUMPDEST DUP3 DUP1 ADD PUSH1 0x1 ADD DUP6 SSTORE DUP3 ISZERO PUSH2 0x54D JUMPI SWAP2 DUP3 ADD JUMPDEST DUP3 DUP2 GT ISZERO PUSH2 0x54C JUMPI DUP3 MLOAD DUP3 SSTORE SWAP2 PUSH1 0x20 ADD SWAP2 SWAP1 PUSH1 0x1 ADD SWAP1 PUSH2 0x531 JUMP JUMPDEST JUMPDEST POP SWAP1 POP PUSH2 0x55A SWAP2 SWAP1 PUSH2 0x55E JUMP JUMPDEST POP SWAP1 JUMP JUMPDEST JUMPDEST DUP1 DUP3 GT ISZERO PUSH2 0x577 JUMPI PUSH1 0x0 DUP2 PUSH1 0x0 SWAP1 SSTORE POP PUSH1 0x1 ADD PUSH2 0x55F JUMP JUMPDEST POP SWAP1 JUMP JUMPDEST PUSH1 0x0 PUSH2 0x58E PUSH2 0x589 DUP5 PUSH2 0x8D3 JUMP JUMPDEST PUSH2 0x8AE JUMP JUMPDEST SWAP1 POP DUP3 DUP2 MSTORE PUSH1 0x20 DUP2 ADD DUP5 DUP5 DUP5 ADD GT ISZERO PUSH2 0x5AA JUMPI PUSH2 0x5A9 PUSH2 0xAC1 JUMP JUMPDEST JUMPDEST PUSH2 0x5B5 DUP5 DUP3 DUP6 PUSH2 0x941 JUMP JUMPDEST POP SWAP4 SWAP3 POP POP POP JUMP JUMPDEST PUSH1 0x0 DUP3 PUSH1 0x1F DUP4 ADD SLT PUSH2 0x5D2 JUMPI PUSH2 0x5D1 PUSH2 0xABC JUMP JUMPDEST JUMPDEST DUP2 CALLDATALOAD PUSH2 0x5E2 DUP5 DUP3 PUSH1 0x20 DUP7 ADD PUSH2 0x57B JUMP JUMPDEST SWAP2 POP POP SWAP3 SWAP2 POP POP JUMP JUMPDEST PUSH1 0x0 DUP2 CALLDATALOAD SWAP1 POP PUSH2 0x5FA DUP2 PUSH2 0xB0A JUMP JUMPDEST SWAP3 SWAP2 POP POP JUMP JUMPDEST PUSH1 0x0 PUSH1 0x20 DUP3 DUP5 SUB SLT ISZERO PUSH2 0x616 JUMPI PUSH2 0x615 PUSH2 0xACB JUMP JUMPDEST JUMPDEST PUSH1 0x0 DUP3 ADD CALLDATALOAD PUSH8 0xFFFFFFFFFFFFFFFF DUP2 GT ISZERO PUSH2 0x634 JUMPI PUSH2 0x633 PUSH2 0xAC6 JUMP JUMPDEST JUMPDEST PUSH2 0x640 DUP5 DUP3 DUP6 ADD PUSH2 0x5BD JUMP JUMPDEST SWAP2 POP POP SWAP3 SWAP2 POP POP JUMP JUMPDEST PUSH1 0x0 DUP1 PUSH1 0x40 DUP4 DUP6 SUB SLT ISZERO PUSH2 0x660 JUMPI PUSH2 0x65F PUSH2 0xACB JUMP JUMPDEST JUMPDEST PUSH1 0x0 DUP4 ADD CALLDATALOAD PUSH8 0xFFFFFFFFFFFFFFFF DUP2 GT ISZERO PUSH2 0x67E JUMPI PUSH2 0x67D PUSH2 0xAC6 JUMP JUMPDEST JUMPDEST PUSH2 0x68A DUP6 DUP3 DUP7 ADD PUSH2 0x5BD JUMP JUMPDEST SWAP3 POP POP PUSH1 0x20 DUP4 ADD CALLDATALOAD PUSH8 0xFFFFFFFFFFFFFFFF DUP2 GT ISZERO PUSH2 0x6AB JUMPI PUSH2 0x6AA PUSH2 0xAC6 JUMP JUMPDEST JUMPDEST PUSH2 0x6B7 DUP6 DUP3 DUP7 ADD PUSH2 0x5BD JUMP JUMPDEST SWAP2 POP POP SWAP3 POP SWAP3 SWAP1 POP JUMP JUMPDEST PUSH1 0x0 DUP1 PUSH1 0x40 DUP4 DUP6 SUB SLT ISZERO PUSH2 0x6D8 JUMPI PUSH2 0x6D7 PUSH2 0xACB JUMP JUMPDEST JUMPDEST PUSH1 0x0 DUP4 ADD CALLDATALOAD PUSH8 0xFFFFFFFFFFFFFFFF DUP2 GT ISZERO PUSH2 0x6F6 JUMPI PUSH2 0x6F5 PUSH2 0xAC6 JUMP JUMPDEST JUMPDEST PUSH2 0x702 DUP6 DUP3 DUP7 ADD PUSH2 0x5BD JUMP JUMPDEST SWAP3 POP POP PUSH1 0x20 PUSH2 0x713 DUP6 DUP3 DUP7 ADD PUSH2 0x5EB JUMP JUMPDEST SWAP2 POP POP SWAP3 POP SWAP3 SWAP1 POP JUMP JUMPDEST PUSH1 0x0 PUSH1 0x20 DUP3 DUP5 SUB SLT ISZERO PUSH2 0x733 JUMPI PUSH2 0x732 PUSH2 0xACB JUMP JUMPDEST JUMPDEST PUSH1 0x0 PUSH2 0x741 DUP5 DUP3 DUP6 ADD PUSH2 0x5EB JUMP JUMPDEST SWAP2 POP POP SWAP3 SWAP2 POP POP JUMP JUMPDEST PUSH2 0x753 DUP2 PUSH2 0x92B JUMP JUMPDEST DUP3 MSTORE POP POP JUMP JUMPDEST PUSH1 0x0 PUSH2 0x764 DUP3 PUSH2 0x904 JUMP JUMPDEST PUSH2 0x76E DUP2 DUP6 PUSH2 0x90F JUMP JUMPDEST SWAP4 POP PUSH2 0x77E DUP2 DUP6 PUSH1 0x20 DUP7 ADD PUSH2 0x950 JUMP JUMPDEST PUSH2 0x787 DUP2 PUSH2 0xAD0 JUMP JUMPDEST DUP5 ADD SWAP2 POP POP SWAP3 SWAP2 POP POP JUMP JUMPDEST PUSH1 0x0 PUSH2 0x79D DUP3 PUSH2 0x904 JUMP JUMPDEST PUSH2 0x7A7 DUP2 DUP6 PUSH2 0x920 JUMP JUMPDEST SWAP4 POP PUSH2 0x7B7 DUP2 DUP6 PUSH1 0x20 DUP7 ADD PUSH2 0x950 JUMP JUMPDEST DUP1 DUP5 ADD SWAP2 POP POP SWAP3 SWAP2 POP POP JUMP JUMPDEST PUSH1 0x0 PUSH2 0x7D0 PUSH1 0x10 DUP4 PUSH2 0x90F JUMP JUMPDEST SWAP2 POP PUSH2 0x7DB DUP3 PUSH2 0xAE1 JUMP JUMPDEST PUSH1 0x20 DUP3 ADD SWAP1 POP SWAP2 SWAP1 POP JUMP JUMPDEST PUSH2 0x7EF DUP2 PUSH2 0x937 JUMP JUMPDEST DUP3 MSTORE POP POP JUMP JUMPDEST PUSH1 0x0 PUSH2 0x801 DUP3 DUP5 PUSH2 0x792 JUMP JUMPDEST SWAP2 POP DUP2 SWAP1 POP SWAP3 SWAP2 POP POP JUMP JUMPDEST PUSH1 0x0 PUSH1 0x20 DUP3 ADD SWAP1 POP DUP2 DUP2 SUB PUSH1 0x0 DUP4 ADD MSTORE PUSH2 0x826 DUP2 DUP5 PUSH2 0x759 JUMP JUMPDEST SWAP1 POP SWAP3 SWAP2 POP POP JUMP JUMPDEST PUSH1 0x0 PUSH1 0x40 DUP3 ADD SWAP1 POP DUP2 DUP2 SUB PUSH1 0x0 DUP4 ADD MSTORE PUSH2 0x848 DUP2 DUP6 PUSH2 0x759 JUMP JUMPDEST SWAP1 POP DUP2 DUP2 SUB PUSH1 0x20 DUP4 ADD MSTORE PUSH2 0x85C DUP2 DUP5 PUSH2 0x759 JUMP JUMPDEST SWAP1 POP SWAP4 SWAP3 POP POP POP JUMP JUMPDEST PUSH1 0x0 PUSH1 0x20 DUP3 ADD SWAP1 POP DUP2 DUP2 SUB PUSH1 0x0 DUP4 ADD MSTORE PUSH2 0x87E DUP2 PUSH2 0x7C3 JUMP JUMPDEST SWAP1 POP SWAP2 SWAP1 POP JUMP JUMPDEST PUSH1 0x0 PUSH1 0x40 DUP3 ADD SWAP1 POP PUSH2 0x89A PUSH1 0x0 DUP4 ADD DUP6 PUSH2 0x7E6 JUMP JUMPDEST PUSH2 0x8A7 PUSH1 0x20 DUP4 ADD DUP5 PUSH2 0x74A JUMP JUMPDEST SWAP4 SWAP3 POP POP POP JUMP JUMPDEST PUSH1 0x0 PUSH2 0x8B8 PUSH2 0x8C9 JUMP JUMPDEST SWAP1 POP PUSH2 0x8C4 DUP3 DUP3 PUSH2 0x9B5 JUMP JUMPDEST SWAP2 SWAP1 POP JUMP JUMPDEST PUSH1 0x0 PUSH1 0x40 MLOAD SWAP1 POP SWAP1 JUMP JUMPDEST PUSH1 0x0 PUSH8 0xFFFFFFFFFFFFFFFF DUP3 GT ISZERO PUSH2 0x8EE JUMPI PUSH2 0x8ED PUSH2 0xA8D JUMP JUMPDEST JUMPDEST PUSH2 0x8F7 DUP3 PUSH2 0xAD0 JUMP JUMPDEST SWAP1 POP PUSH1 0x20 DUP2 ADD SWAP1 POP SWAP2 SWAP1 POP JUMP JUMPDEST PUSH1 0x0 DUP2 MLOAD SWAP1 POP SWAP2 SWAP1 POP JUMP JUMPDEST PUSH1 0x0 DUP3 DUP3 MSTORE PUSH1 0x20 DUP3 ADD SWAP1 POP SWAP3 SWAP2 POP POP JUMP JUMPDEST PUSH1 0x0 DUP2 SWAP1 POP SWAP3 SWAP2 POP POP JUMP JUMPDEST PUSH1 0x0 DUP2 ISZERO ISZERO SWAP1 POP SWAP2 SWAP1 POP JUMP JUMPDEST PUSH1 0x0 DUP2 SWAP1 POP SWAP2 SWAP1 POP JUMP JUMPDEST DUP3 DUP2 DUP4 CALLDATACOPY PUSH1 0x0 DUP4 DUP4 ADD MSTORE POP POP POP JUMP JUMPDEST PUSH1 0x0 JUMPDEST DUP4 DUP2 LT ISZERO PUSH2 0x96E JUMPI DUP1 DUP3 ADD MLOAD DUP2 DUP5 ADD MSTORE PUSH1 0x20 DUP2 ADD SWAP1 POP PUSH2 0x953 JUMP JUMPDEST DUP4 DUP2 GT ISZERO PUSH2 0x97D JUMPI PUSH1 0x0 DUP5 DUP5 ADD MSTORE JUMPDEST POP POP POP POP JUMP JUMPDEST PUSH1 0x0 PUSH1 0x2 DUP3 DIV SWAP1 POP PUSH1 0x1 DUP3 AND DUP1 PUSH2 0x99B JUMPI PUSH1 0x7F DUP3 AND SWAP2 POP JUMPDEST PUSH1 0x20 DUP3 LT DUP2 EQ ISZERO PUSH2 0x9AF JUMPI PUSH2 0x9AE PUSH2 0xA5E JUMP JUMPDEST JUMPDEST POP SWAP2 SWAP1 POP JUMP JUMPDEST PUSH2 0x9BE DUP3 PUSH2 0xAD0 JUMP JUMPDEST DUP2 ADD DUP2 DUP2 LT PUSH8 0xFFFFFFFFFFFFFFFF DUP3 GT OR ISZERO PUSH2 0x9DD JUMPI PUSH2 0x9DC PUSH2 0xA8D JUMP JUMPDEST JUMPDEST DUP1 PUSH1 0x40 MSTORE POP POP POP JUMP JUMPDEST PUSH1 0x0 PUSH2 0x9F1 DUP3 PUSH2 0x937 JUMP JUMPDEST SWAP2 POP PUSH32 0xFFFFFFFFFFFFFFFFFFFFFFFFFFFFFFFFFFFFFFFFFFFFFFFFFFFFFFFFFFFFFFFF DUP3 EQ ISZERO PUSH2 0xA24 JUMPI PUSH2 0xA23 PUSH2 0xA2F JUMP JUMPDEST JUMPDEST PUSH1 0x1 DUP3 ADD SWAP1 POP SWAP2 SWAP1 POP JUMP JUMPDEST PUSH32 0x4E487B7100000000000000000000000000000000000000000000000000000000 PUSH1 0x0 MSTORE PUSH1 0x11 PUSH1 0x4 MSTORE PUSH1 0x24 PUSH1 0x0 REVERT JUMPDEST PUSH32 0x4E487B7100000000000000000000000000000000000000000000000000000000 PUSH1 0x0 MSTORE PUSH1 0x22 PUSH1 0x4 MSTORE PUSH1 0x24 PUSH1 0x0 REVERT JUMPDEST PUSH32 0x4E487B7100000000000000000000000000000000000000000000000000000000 PUSH1 0x0 MSTORE PUSH1 0x41 PUSH1 0x4 MSTORE PUSH1 0x24 PUSH1 0x0 REVERT JUMPDEST PUSH1 0x0 DUP1 REVERT JUMPDEST PUSH1 0x0 DUP1 REVERT JUMPDEST PUSH1 0x0 DUP1 REVERT JUMPDEST PUSH1 0x0 DUP1 REVERT JUMPDEST PUSH1 0x0 PUSH1 0x1F NOT PUSH1 0x1F DUP4 ADD AND SWAP1 POP SWAP2 SWAP1 POP JUMP JUMPDEST PUSH32 0x4163636573732069732044656E69656400000000000000000000000000000000 PUSH1 0x0 DUP3 ADD MSTORE POP JUMP JUMPDEST PUSH2 0xB13 DUP2 PUSH2 0x937 JUMP JUMPDEST DUP2 EQ PUSH2 0xB1E JUMPI PUSH1 0x0 DUP1 REVERT JUMPDEST POP JUMP INVALID MSIZE PUSH16 0x752077696C6C20626520616464656420 PUSH21 0x6F2063616E646964617465206C697374206F6E6365 KECCAK256 PUSH26 0x6F75206172652076616C69646174656420627920746865206164 PUSH14 0x696EA2646970667358221220F98B 0xAD 0xDA 0x5E JUMPI 0xDA CALLVALUE 0xB4 PUSH5 0x1D5E239CD9 ADD MULMOD CALLDATASIZE PUSH20 0x816E1E9B652E3CC9F4AC817AF364736F6C634300 ADDMOD SMOD STOP CALLER "
				},
				"gasEstimates": {
					"creation": {
						"codeDepositCost": "594800",
						"executionCost": "24891",
						"totalCost": "619691"
					},
					"external": {
						"candidateEnrollment(string,string)": "infinite",
						"candidates(uint256)": "infinite",
						"voterEnrollment(string,uint256)": "infinite",
						"voters(string)": "infinite"
					}
				},
				"methodIdentifiers": {
					"candidateEnrollment(string,string)": "17678bc3",
					"candidates(uint256)": "3477ee2e",
					"voterEnrollment(string,uint256)": "0fd94e64",
					"voters(string)": "53fa2e64"
				}
			},
			"storageLayout": {
				"storage": [
					{
						"astId": 3,
						"contract": "voting.sol:Voting",
						"label": "noOfVoters",
						"offset": 0,
						"slot": "0",
						"type": "t_uint256"
					},
					{
						"astId": 5,
						"contract": "voting.sol:Voting",
						"label": "noOfCandidates",
						"offset": 0,
						"slot": "1",
						"type": "t_uint256"
					},
					{
						"astId": 7,
						"contract": "voting.sol:Voting",
						"label": "admin",
						"offset": 0,
						"slot": "2",
						"type": "t_address"
					},
					{
						"astId": 12,
						"contract": "voting.sol:Voting",
						"label": "candidates",
						"offset": 0,
						"slot": "3",
						"type": "t_mapping(t_uint256,t_struct(Candidate)22_storage)"
					},
					{
						"astId": 17,
						"contract": "voting.sol:Voting",
						"label": "voters",
						"offset": 0,
						"slot": "4",
						"type": "t_mapping(t_string_memory_ptr,t_struct(Voter)27_storage)"
					}
				],
				"types": {
					"t_address": {
						"encoding": "inplace",
						"label": "address",
						"numberOfBytes": "20"
					},
					"t_bool": {
						"encoding": "inplace",
						"label": "bool",
						"numberOfBytes": "1"
					},
					"t_mapping(t_string_memory_ptr,t_struct(Voter)27_storage)": {
						"encoding": "mapping",
						"key": "t_string_memory_ptr",
						"label": "mapping(string => struct Voting.Voter)",
						"numberOfBytes": "32",
						"value": "t_struct(Voter)27_storage"
					},
					"t_mapping(t_uint256,t_struct(Candidate)22_storage)": {
						"encoding": "mapping",
						"key": "t_uint256",
						"label": "mapping(uint256 => struct Voting.Candidate)",
						"numberOfBytes": "32",
						"value": "t_struct(Candidate)22_storage"
					},
					"t_string_memory_ptr": {
						"encoding": "bytes",
						"label": "string",
						"numberOfBytes": "32"
					},
					"t_string_storage": {
						"encoding": "bytes",
						"label": "string",
						"numberOfBytes": "32"
					},
					"t_struct(Candidate)22_storage": {
						"encoding": "inplace",
						"label": "struct Voting.Candidate",
						"members": [
							{
								"astId": 19,
								"contract": "voting.sol:Voting",
								"label": "candidate_name",
								"offset": 0,
								"slot": "0",
								"type": "t_string_storage"
							},
							{
								"astId": 21,
								"contract": "voting.sol:Voting",
								"label": "candidate_description",
								"offset": 0,
								"slot": "1",
								"type": "t_string_storage"
							}
						],
						"numberOfBytes": "64"
					},
					"t_struct(Voter)27_storage": {
						"encoding": "inplace",
						"label": "struct Voting.Voter",
						"members": [
							{
								"astId": 24,
								"contract": "voting.sol:Voting",
								"label": "candidate_id",
								"offset": 0,
								"slot": "0",
								"type": "t_uint256"
							},
							{
								"astId": 26,
								"contract": "voting.sol:Voting",
								"label": "hasVoted",
								"offset": 0,
								"slot": "1",
								"type": "t_bool"
							}
						],
						"numberOfBytes": "64"
					},
					"t_uint256": {
						"encoding": "inplace",
						"label": "uint256",
						"numberOfBytes": "32"
					}
				}
			},
			"userdoc": {
				"kind": "user",
				"methods": {},
				"version": 1
			}
		}
	}
}