{
	"voting.sol": {
		"Voting": {
			"abi": [
				{
					"inputs": [],
					"stateMutability": "nonpayable",
					"type": "constructor"
				},
				{
					"inputs": [
						{
							"internalType": "string",
							"name": "name",
							"type": "string"
						},
						{
							"internalType": "string",
							"name": "description",
							"type": "string"
						}
					],
					"name": "candidateEnrollment",
					"outputs": [
						{
							"internalType": "string",
							"name": "",
							"type": "string"
						}
					],
					"stateMutability": "nonpayable",
					"type": "function"
				},
				{
					"inputs": [
						{
							"internalType": "uint256",
							"name": "",
							"type": "uint256"
						}
					],
					"name": "candidates",
					"outputs": [
						{
							"internalType": "string",
							"name": "candidate_name",
							"type": "string"
						},
						{
							"internalType": "string",
							"name": "candidate_description",
							"type": "string"
						},
						{
							"internalType": "uint256",
							"name": "noOfVotes",
							"type": "uint256"
						}
					],
					"stateMutability": "view",
					"type": "function"
				},
				{
					"inputs": [],
					"name": "results",
					"outputs": [
						{
							"internalType": "string",
							"name": "",
							"type": "string"
						}
					],
					"stateMutability": "view",
					"type": "function"
				},
				{
					"inputs": [
						{
							"internalType": "string",
							"name": "name",
							"type": "string"
						},
						{
							"internalType": "uint256",
							"name": "candidateID",
							"type": "uint256"
						}
					],
					"name": "voterEnrollment",
					"outputs": [
						{
							"internalType": "string",
							"name": "",
							"type": "string"
						}
					],
					"stateMutability": "nonpayable",
					"type": "function"
				}
			],
			"devdoc": {
				"kind": "dev",
				"methods": {},
				"version": 1
			},
			"evm": {
				"assembly": "    /* \"voting.sol\":59:1713  contract Voting{\r... */\n  mstore(0x40, 0x80)\n    /* \"voting.sol\":444:494  constructor(){\r... */\n  callvalue\n  dup1\n  iszero\n  tag_1\n  jumpi\n  0x00\n  dup1\n  revert\ntag_1:\n  pop\n    /* \"voting.sol\":476:486  msg.sender */\n  caller\n    /* \"voting.sol\":468:473  admin */\n  0x02\n  0x00\n    /* \"voting.sol\":468:486  admin = msg.sender */\n  0x0100\n  exp\n  dup2\n  sload\n  dup2\n  0xffffffffffffffffffffffffffffffffffffffff\n  mul\n  not\n  and\n  swap1\n  dup4\n  0xffffffffffffffffffffffffffffffffffffffff\n  and\n  mul\n  or\n  swap1\n  sstore\n  pop\n    /* \"voting.sol\":59:1713  contract Voting{\r... */\n  dataSize(sub_0)\n  dup1\n  dataOffset(sub_0)\n  0x00\n  codecopy\n  0x00\n  return\nstop\n\nsub_0: assembly {\n        /* \"voting.sol\":59:1713  contract Voting{\r... */\n      mstore(0x40, 0x80)\n      callvalue\n      dup1\n      iszero\n      tag_1\n      jumpi\n      0x00\n      dup1\n      revert\n    tag_1:\n      pop\n      jumpi(tag_2, lt(calldatasize, 0x04))\n      shr(0xe0, calldataload(0x00))\n      dup1\n      0x0fd94e64\n      eq\n      tag_3\n      jumpi\n      dup1\n      0x17678bc3\n      eq\n      tag_4\n      jumpi\n      dup1\n      0x3477ee2e\n      eq\n      tag_5\n      jumpi\n      dup1\n      0xa48bdb7c\n      eq\n      tag_6\n      jumpi\n    tag_2:\n      0x00\n      dup1\n      revert\n        /* \"voting.sol\":935:1262  function voterEnrollment(string memory name,uint candidateID) public onlyAdmin returns(string memory){\r... */\n    tag_3:\n      tag_7\n      0x04\n      dup1\n      calldatasize\n      sub\n      dup2\n      add\n      swap1\n      tag_8\n      swap2\n      swap1\n      tag_9\n      jump\t// in\n    tag_8:\n      tag_10\n      jump\t// in\n    tag_7:\n      mload(0x40)\n      tag_11\n      swap2\n      swap1\n      tag_12\n      jump\t// in\n    tag_11:\n      mload(0x40)\n      dup1\n      swap2\n      sub\n      swap1\n      return\n        /* \"voting.sol\":604:929  function candidateEnrollment(string memory name,string memory description) public onlyAdmin returns(string memory){\r... */\n    tag_4:\n      tag_13\n      0x04\n      dup1\n      calldatasize\n      sub\n      dup2\n      add\n      swap1\n      tag_14\n      swap2\n      swap1\n      tag_15\n      jump\t// in\n    tag_14:\n      tag_16\n      jump\t// in\n    tag_13:\n      mload(0x40)\n      tag_17\n      swap2\n      swap1\n      tag_12\n      jump\t// in\n    tag_17:\n      mload(0x40)\n      dup1\n      swap2\n      sub\n      swap1\n      return\n        /* \"voting.sol\":149:194  mapping (uint => Candidate) public candidates */\n    tag_5:\n      tag_18\n      0x04\n      dup1\n      calldatasize\n      sub\n      dup2\n      add\n      swap1\n      tag_19\n      swap2\n      swap1\n      tag_20\n      jump\t// in\n    tag_19:\n      tag_21\n      jump\t// in\n    tag_18:\n      mload(0x40)\n      tag_22\n      swap4\n      swap3\n      swap2\n      swap1\n      tag_23\n      jump\t// in\n    tag_22:\n      mload(0x40)\n      dup1\n      swap2\n      sub\n      swap1\n      return\n        /* \"voting.sol\":1268:1704  function results() public onlyAdmin view returns (string memory){\r... */\n    tag_6:\n      tag_24\n      tag_25\n      jump\t// in\n    tag_24:\n      mload(0x40)\n      tag_26\n      swap2\n      swap1\n      tag_12\n      jump\t// in\n    tag_26:\n      mload(0x40)\n      dup1\n      swap2\n      sub\n      swap1\n      return\n        /* \"voting.sol\":935:1262  function voterEnrollment(string memory name,uint candidateID) public onlyAdmin returns(string memory){\r... */\n    tag_10:\n        /* \"voting.sol\":1022:1035  string memory */\n      0x60\n        /* \"voting.sol\":553:558  admin */\n      0x02\n      0x00\n      swap1\n      sload\n      swap1\n      0x0100\n      exp\n      swap1\n      div\n      0xffffffffffffffffffffffffffffffffffffffff\n      and\n        /* \"voting.sol\":539:558  msg.sender == admin */\n      0xffffffffffffffffffffffffffffffffffffffff\n      and\n        /* \"voting.sol\":539:549  msg.sender */\n      caller\n        /* \"voting.sol\":539:558  msg.sender == admin */\n      0xffffffffffffffffffffffffffffffffffffffff\n      and\n      eq\n        /* \"voting.sol\":531:578  require(msg.sender == admin,\"Access is Denied\") */\n      tag_28\n      jumpi\n      mload(0x40)\n      0x08c379a000000000000000000000000000000000000000000000000000000000\n      dup2\n      mstore\n      0x04\n      add\n      tag_29\n      swap1\n      tag_30\n      jump\t// in\n    tag_29:\n      mload(0x40)\n      dup1\n      swap2\n      sub\n      swap1\n      revert\n    tag_28:\n        /* \"voting.sol\":1080:1085  false */\n      0x00\n        /* \"voting.sol\":1055:1085  voters[name].hasVoted == false */\n      iszero\n      iszero\n        /* \"voting.sol\":1055:1061  voters */\n      0x04\n        /* \"voting.sol\":1062:1066  name */\n      dup5\n        /* \"voting.sol\":1055:1067  voters[name] */\n      mload(0x40)\n      tag_32\n      swap2\n      swap1\n      tag_33\n      jump\t// in\n    tag_32:\n      swap1\n      dup2\n      mstore\n      0x20\n      add\n      mload(0x40)\n      dup1\n      swap2\n      sub\n      swap1\n      keccak256\n        /* \"voting.sol\":1055:1076  voters[name].hasVoted */\n      0x01\n      add\n      0x00\n      swap1\n      sload\n      swap1\n      0x0100\n      exp\n      swap1\n      div\n      0xff\n      and\n        /* \"voting.sol\":1055:1085  voters[name].hasVoted == false */\n      iszero\n      iszero\n      eq\n        /* \"voting.sol\":1047:1086  require(voters[name].hasVoted == false) */\n      tag_34\n      jumpi\n      0x00\n      dup1\n      revert\n    tag_34:\n        /* \"voting.sol\":1099:1109  noOfVoters */\n      0x00\n      dup1\n        /* \"voting.sol\":1097:1109  ++noOfVoters */\n      dup2\n      sload\n      tag_35\n      swap1\n      tag_36\n      jump\t// in\n    tag_35:\n      swap2\n      swap1\n      pop\n      dup2\n      swap1\n      sstore\n      pop\n        /* \"voting.sol\":1135:1158  Voter(candidateID,true) */\n      mload(0x40)\n      dup1\n      0x40\n      add\n      0x40\n      mstore\n      dup1\n        /* \"voting.sol\":1141:1152  candidateID */\n      dup4\n        /* \"voting.sol\":1135:1158  Voter(candidateID,true) */\n      dup2\n      mstore\n      0x20\n      add\n        /* \"voting.sol\":1153:1157  true */\n      0x01\n        /* \"voting.sol\":1135:1158  Voter(candidateID,true) */\n      iszero\n      iszero\n      dup2\n      mstore\n      pop\n        /* \"voting.sol\":1120:1126  voters */\n      0x04\n        /* \"voting.sol\":1127:1131  name */\n      dup5\n        /* \"voting.sol\":1120:1132  voters[name] */\n      mload(0x40)\n      tag_37\n      swap2\n      swap1\n      tag_33\n      jump\t// in\n    tag_37:\n      swap1\n      dup2\n      mstore\n      0x20\n      add\n      mload(0x40)\n      dup1\n      swap2\n      sub\n      swap1\n      keccak256\n        /* \"voting.sol\":1120:1158  voters[name] = Voter(candidateID,true) */\n      0x00\n      dup3\n      add\n      mload\n      dup2\n      0x00\n      add\n      sstore\n      0x20\n      dup3\n      add\n      mload\n      dup2\n      0x01\n      add\n      exp(0x0100, 0x00)\n      dup2\n      sload\n      dup2\n      0xff\n      mul\n      not\n      and\n      swap1\n      dup4\n      iszero\n      iszero\n      mul\n      or\n      swap1\n      sstore\n      pop\n      swap1\n      pop\n      pop\n        /* \"voting.sol\":1206:1207  1 */\n      0x01\n        /* \"voting.sol\":1169:1179  candidates */\n      0x03\n        /* \"voting.sol\":1169:1192  candidates[candidateID] */\n      0x00\n        /* \"voting.sol\":1180:1191  candidateID */\n      dup5\n        /* \"voting.sol\":1169:1192  candidates[candidateID] */\n      dup2\n      mstore\n      0x20\n      add\n      swap1\n      dup2\n      mstore\n      0x20\n      add\n      0x00\n      keccak256\n        /* \"voting.sol\":1169:1202  candidates[candidateID].noOfVotes */\n      0x02\n      add\n      0x00\n        /* \"voting.sol\":1169:1207  candidates[candidateID].noOfVotes += 1 */\n      dup3\n      dup3\n      sload\n      tag_38\n      swap2\n      swap1\n      tag_39\n      jump\t// in\n    tag_38:\n      swap3\n      pop\n      pop\n      dup2\n      swap1\n      sstore\n      pop\n        /* \"voting.sol\":1218:1254  return \"You have successfully voted\" */\n      mload(0x40)\n      dup1\n      0x40\n      add\n      0x40\n      mstore\n      dup1\n      0x1b\n      dup2\n      mstore\n      0x20\n      add\n      0x596f752068617665207375636365737366756c6c7920766f7465640000000000\n      dup2\n      mstore\n      pop\n      swap1\n      pop\n        /* \"voting.sol\":935:1262  function voterEnrollment(string memory name,uint candidateID) public onlyAdmin returns(string memory){\r... */\n      swap3\n      swap2\n      pop\n      pop\n      jump\t// out\n        /* \"voting.sol\":604:929  function candidateEnrollment(string memory name,string memory description) public onlyAdmin returns(string memory){\r... */\n    tag_16:\n        /* \"voting.sol\":704:717  string memory */\n      0x60\n        /* \"voting.sol\":553:558  admin */\n      0x02\n      0x00\n      swap1\n      sload\n      swap1\n      0x0100\n      exp\n      swap1\n      div\n      0xffffffffffffffffffffffffffffffffffffffff\n      and\n        /* \"voting.sol\":539:558  msg.sender == admin */\n      0xffffffffffffffffffffffffffffffffffffffff\n      and\n        /* \"voting.sol\":539:549  msg.sender */\n      caller\n        /* \"voting.sol\":539:558  msg.sender == admin */\n      0xffffffffffffffffffffffffffffffffffffffff\n      and\n      eq\n        /* \"voting.sol\":531:578  require(msg.sender == admin,\"Access is Denied\") */\n      tag_41\n      jumpi\n      mload(0x40)\n      0x08c379a000000000000000000000000000000000000000000000000000000000\n      dup2\n      mstore\n      0x04\n      add\n      tag_42\n      swap1\n      tag_30\n      jump\t// in\n    tag_42:\n      mload(0x40)\n      dup1\n      swap2\n      sub\n      swap1\n      revert\n    tag_41:\n        /* \"voting.sol\":729:745  uint candidateID */\n      0x00\n        /* \"voting.sol\":748:762  noOfCandidates */\n      0x01\n      0x00\n        /* \"voting.sol\":748:764  noOfCandidates++ */\n      dup2\n      sload\n      dup1\n      swap3\n      swap2\n      swap1\n      tag_44\n      swap1\n      tag_36\n      jump\t// in\n    tag_44:\n      swap2\n      swap1\n      pop\n      sstore\n        /* \"voting.sol\":729:764  uint candidateID = noOfCandidates++ */\n      swap1\n      pop\n        /* \"voting.sol\":801:830  Candidate(name,description,0) */\n      mload(0x40)\n      dup1\n      0x60\n      add\n      0x40\n      mstore\n      dup1\n        /* \"voting.sol\":811:815  name */\n      dup6\n        /* \"voting.sol\":801:830  Candidate(name,description,0) */\n      dup2\n      mstore\n      0x20\n      add\n        /* \"voting.sol\":816:827  description */\n      dup5\n        /* \"voting.sol\":801:830  Candidate(name,description,0) */\n      dup2\n      mstore\n      0x20\n      add\n        /* \"voting.sol\":828:829  0 */\n      0x00\n        /* \"voting.sol\":801:830  Candidate(name,description,0) */\n      dup2\n      mstore\n      pop\n        /* \"voting.sol\":775:785  candidates */\n      0x03\n        /* \"voting.sol\":775:798  candidates[candidateID] */\n      0x00\n        /* \"voting.sol\":786:797  candidateID */\n      dup4\n        /* \"voting.sol\":775:798  candidates[candidateID] */\n      dup2\n      mstore\n      0x20\n      add\n      swap1\n      dup2\n      mstore\n      0x20\n      add\n      0x00\n      keccak256\n        /* \"voting.sol\":775:830  candidates[candidateID] = Candidate(name,description,0) */\n      0x00\n      dup3\n      add\n      mload\n      dup2\n      0x00\n      add\n      swap1\n      dup1\n      mload\n      swap1\n      0x20\n      add\n      swap1\n      tag_45\n      swap3\n      swap2\n      swap1\n      tag_46\n      jump\t// in\n    tag_45:\n      pop\n      0x20\n      dup3\n      add\n      mload\n      dup2\n      0x01\n      add\n      swap1\n      dup1\n      mload\n      swap1\n      0x20\n      add\n      swap1\n      tag_47\n      swap3\n      swap2\n      swap1\n      tag_46\n      jump\t// in\n    tag_47:\n      pop\n      0x40\n      dup3\n      add\n      mload\n      dup2\n      0x02\n      add\n      sstore\n      swap1\n      pop\n      pop\n        /* \"voting.sol\":841:921  return \"You will be added to candidate list once you are validated by the admin\" */\n      mload(0x40)\n      dup1\n      0x80\n      add\n      0x40\n      mstore\n      dup1\n      0x47\n      dup2\n      mstore\n      0x20\n      add\n      data_346ae9e229890c1b5467b3280ac50efb3a563831aa4e9bb9392fe53f7d7de7e2\n      0x47\n      swap2\n      codecopy\n      swap2\n      pop\n      pop\n        /* \"voting.sol\":604:929  function candidateEnrollment(string memory name,string memory description) public onlyAdmin returns(string memory){\r... */\n      swap3\n      swap2\n      pop\n      pop\n      jump\t// out\n        /* \"voting.sol\":149:194  mapping (uint => Candidate) public candidates */\n    tag_21:\n      mstore(0x20, 0x03)\n      dup1\n      0x00\n      mstore\n      keccak256(0x00, 0x40)\n      0x00\n      swap2\n      pop\n      swap1\n      pop\n      dup1\n      0x00\n      add\n      dup1\n      sload\n      tag_48\n      swap1\n      tag_49\n      jump\t// in\n    tag_48:\n      dup1\n      0x1f\n      add\n      0x20\n      dup1\n      swap2\n      div\n      mul\n      0x20\n      add\n      mload(0x40)\n      swap1\n      dup2\n      add\n      0x40\n      mstore\n      dup1\n      swap3\n      swap2\n      swap1\n      dup2\n      dup2\n      mstore\n      0x20\n      add\n      dup3\n      dup1\n      sload\n      tag_50\n      swap1\n      tag_49\n      jump\t// in\n    tag_50:\n      dup1\n      iszero\n      tag_51\n      jumpi\n      dup1\n      0x1f\n      lt\n      tag_52\n      jumpi\n      0x0100\n      dup1\n      dup4\n      sload\n      div\n      mul\n      dup4\n      mstore\n      swap2\n      0x20\n      add\n      swap2\n      jump(tag_51)\n    tag_52:\n      dup3\n      add\n      swap2\n      swap1\n      0x00\n      mstore\n      keccak256(0x00, 0x20)\n      swap1\n    tag_53:\n      dup2\n      sload\n      dup2\n      mstore\n      swap1\n      0x01\n      add\n      swap1\n      0x20\n      add\n      dup1\n      dup4\n      gt\n      tag_53\n      jumpi\n      dup3\n      swap1\n      sub\n      0x1f\n      and\n      dup3\n      add\n      swap2\n    tag_51:\n      pop\n      pop\n      pop\n      pop\n      pop\n      swap1\n      dup1\n      0x01\n      add\n      dup1\n      sload\n      tag_54\n      swap1\n      tag_49\n      jump\t// in\n    tag_54:\n      dup1\n      0x1f\n      add\n      0x20\n      dup1\n      swap2\n      div\n      mul\n      0x20\n      add\n      mload(0x40)\n      swap1\n      dup2\n      add\n      0x40\n      mstore\n      dup1\n      swap3\n      swap2\n      swap1\n      dup2\n      dup2\n      mstore\n      0x20\n      add\n      dup3\n      dup1\n      sload\n      tag_55\n      swap1\n      tag_49\n      jump\t// in\n    tag_55:\n      dup1\n      iszero\n      tag_56\n      jumpi\n      dup1\n      0x1f\n      lt\n      tag_57\n      jumpi\n      0x0100\n      dup1\n      dup4\n      sload\n      div\n      mul\n      dup4\n      mstore\n      swap2\n      0x20\n      add\n      swap2\n      jump(tag_56)\n    tag_57:\n      dup3\n      add\n      swap2\n      swap1\n      0x00\n      mstore\n      keccak256(0x00, 0x20)\n      swap1\n    tag_58:\n      dup2\n      sload\n      dup2\n      mstore\n      swap1\n      0x01\n      add\n      swap1\n      0x20\n      add\n      dup1\n      dup4\n      gt\n      tag_58\n      jumpi\n      dup3\n      swap1\n      sub\n      0x1f\n      and\n      dup3\n      add\n      swap2\n    tag_56:\n      pop\n      pop\n      pop\n      pop\n      pop\n      swap1\n      dup1\n      0x02\n      add\n      sload\n      swap1\n      pop\n      dup4\n      jump\t// out\n        /* \"voting.sol\":1268:1704  function results() public onlyAdmin view returns (string memory){\r... */\n    tag_25:\n        /* \"voting.sol\":1318:1331  string memory */\n      0x60\n        /* \"voting.sol\":553:558  admin */\n      0x02\n      0x00\n      swap1\n      sload\n      swap1\n      0x0100\n      exp\n      swap1\n      div\n      0xffffffffffffffffffffffffffffffffffffffff\n      and\n        /* \"voting.sol\":539:558  msg.sender == admin */\n      0xffffffffffffffffffffffffffffffffffffffff\n      and\n        /* \"voting.sol\":539:549  msg.sender */\n      caller\n        /* \"voting.sol\":539:558  msg.sender == admin */\n      0xffffffffffffffffffffffffffffffffffffffff\n      and\n      eq\n        /* \"voting.sol\":531:578  require(msg.sender == admin,\"Access is Denied\") */\n      tag_60\n      jumpi\n      mload(0x40)\n      0x08c379a000000000000000000000000000000000000000000000000000000000\n      dup2\n      mstore\n      0x04\n      add\n      tag_61\n      swap1\n      tag_30\n      jump\t// in\n    tag_61:\n      mload(0x40)\n      dup1\n      swap2\n      sub\n      swap1\n      revert\n    tag_60:\n        /* \"voting.sol\":1343:1360  uint largestVotes */\n      0x00\n        /* \"voting.sol\":1363:1373  candidates */\n      0x03\n        /* \"voting.sol\":1363:1376  candidates[0] */\n      0x00\n        /* \"voting.sol\":1374:1375  0 */\n      dup1\n        /* \"voting.sol\":1363:1376  candidates[0] */\n      dup2\n      mstore\n      0x20\n      add\n      swap1\n      dup2\n      mstore\n      0x20\n      add\n      0x00\n      keccak256\n        /* \"voting.sol\":1363:1386  candidates[0].noOfVotes */\n      0x02\n      add\n      sload\n        /* \"voting.sol\":1343:1386  uint largestVotes = candidates[0].noOfVotes */\n      swap1\n      pop\n        /* \"voting.sol\":1397:1413  uint candidateID */\n      0x00\n        /* \"voting.sol\":1428:1434  uint i */\n      dup1\n        /* \"voting.sol\":1437:1438  0 */\n      0x00\n        /* \"voting.sol\":1428:1438  uint i = 0 */\n      swap1\n      pop\n        /* \"voting.sol\":1424:1639  for(uint i = 0 ; i<noOfCandidates;i++) {\r... */\n    tag_63:\n        /* \"voting.sol\":1443:1457  noOfCandidates */\n      sload(0x01)\n        /* \"voting.sol\":1441:1442  i */\n      dup2\n        /* \"voting.sol\":1441:1457  i<noOfCandidates */\n      lt\n        /* \"voting.sol\":1424:1639  for(uint i = 0 ; i<noOfCandidates;i++) {\r... */\n      iszero\n      tag_64\n      jumpi\n        /* \"voting.sol\":1496:1506  candidates */\n      0x03\n        /* \"voting.sol\":1496:1509  candidates[i] */\n      0x00\n        /* \"voting.sol\":1507:1508  i */\n      dup3\n        /* \"voting.sol\":1496:1509  candidates[i] */\n      dup2\n      mstore\n      0x20\n      add\n      swap1\n      dup2\n      mstore\n      0x20\n      add\n      0x00\n      keccak256\n        /* \"voting.sol\":1496:1519  candidates[i].noOfVotes */\n      0x02\n      add\n      sload\n        /* \"voting.sol\":1481:1493  largestVotes */\n      dup4\n        /* \"voting.sol\":1481:1519  largestVotes < candidates[i].noOfVotes */\n      lt\n        /* \"voting.sol\":1478:1628  if(largestVotes < candidates[i].noOfVotes) {\r... */\n      iszero\n      tag_66\n      jumpi\n        /* \"voting.sol\":1555:1565  candidates */\n      0x03\n        /* \"voting.sol\":1555:1568  candidates[i] */\n      0x00\n        /* \"voting.sol\":1566:1567  i */\n      dup3\n        /* \"voting.sol\":1555:1568  candidates[i] */\n      dup2\n      mstore\n      0x20\n      add\n      swap1\n      dup2\n      mstore\n      0x20\n      add\n      0x00\n      keccak256\n        /* \"voting.sol\":1555:1578  candidates[i].noOfVotes */\n      0x02\n      add\n      sload\n        /* \"voting.sol\":1540:1578  largestVotes = candidates[i].noOfVotes */\n      swap3\n      pop\n        /* \"voting.sol\":1611:1612  i */\n      dup1\n        /* \"voting.sol\":1597:1612  candidateID = i */\n      swap2\n      pop\n        /* \"voting.sol\":1478:1628  if(largestVotes < candidates[i].noOfVotes) {\r... */\n    tag_66:\n        /* \"voting.sol\":1458:1461  i++ */\n      dup1\n      dup1\n      tag_67\n      swap1\n      tag_36\n      jump\t// in\n    tag_67:\n      swap2\n      pop\n      pop\n        /* \"voting.sol\":1424:1639  for(uint i = 0 ; i<noOfCandidates;i++) {\r... */\n      jump(tag_63)\n    tag_64:\n      pop\n        /* \"voting.sol\":1657:1667  candidates */\n      0x03\n        /* \"voting.sol\":1657:1680  candidates[candidateID] */\n      0x00\n        /* \"voting.sol\":1668:1679  candidateID */\n      dup3\n        /* \"voting.sol\":1657:1680  candidates[candidateID] */\n      dup2\n      mstore\n      0x20\n      add\n      swap1\n      dup2\n      mstore\n      0x20\n      add\n      0x00\n      keccak256\n        /* \"voting.sol\":1657:1695  candidates[candidateID].candidate_name */\n      0x00\n      add\n        /* \"voting.sol\":1649:1696  return (candidates[candidateID].candidate_name) */\n      dup1\n      sload\n      tag_68\n      swap1\n      tag_49\n      jump\t// in\n    tag_68:\n      dup1\n      0x1f\n      add\n      0x20\n      dup1\n      swap2\n      div\n      mul\n      0x20\n      add\n      mload(0x40)\n      swap1\n      dup2\n      add\n      0x40\n      mstore\n      dup1\n      swap3\n      swap2\n      swap1\n      dup2\n      dup2\n      mstore\n      0x20\n      add\n      dup3\n      dup1\n      sload\n      tag_69\n      swap1\n      tag_49\n      jump\t// in\n    tag_69:\n      dup1\n      iszero\n      tag_70\n      jumpi\n      dup1\n      0x1f\n      lt\n      tag_71\n      jumpi\n      0x0100\n      dup1\n      dup4\n      sload\n      div\n      mul\n      dup4\n      mstore\n      swap2\n      0x20\n      add\n      swap2\n      jump(tag_70)\n    tag_71:\n      dup3\n      add\n      swap2\n      swap1\n      0x00\n      mstore\n      keccak256(0x00, 0x20)\n      swap1\n    tag_72:\n      dup2\n      sload\n      dup2\n      mstore\n      swap1\n      0x01\n      add\n      swap1\n      0x20\n      add\n      dup1\n      dup4\n      gt\n      tag_72\n      jumpi\n      dup3\n      swap1\n      sub\n      0x1f\n      and\n      dup3\n      add\n      swap2\n    tag_70:\n      pop\n      pop\n      pop\n      pop\n      pop\n      swap3\n      pop\n      pop\n      pop\n        /* \"voting.sol\":1268:1704  function results() public onlyAdmin view returns (string memory){\r... */\n      swap1\n      jump\t// out\n    tag_46:\n      dup3\n      dup1\n      sload\n      tag_73\n      swap1\n      tag_49\n      jump\t// in\n    tag_73:\n      swap1\n      0x00\n      mstore\n      keccak256(0x00, 0x20)\n      swap1\n      0x1f\n      add\n      0x20\n      swap1\n      div\n      dup2\n      add\n      swap3\n      dup3\n      tag_75\n      jumpi\n      0x00\n      dup6\n      sstore\n      jump(tag_74)\n    tag_75:\n      dup3\n      0x1f\n      lt\n      tag_76\n      jumpi\n      dup1\n      mload\n      not(0xff)\n      and\n      dup4\n      dup1\n      add\n      or\n      dup6\n      sstore\n      jump(tag_74)\n    tag_76:\n      dup3\n      dup1\n      add\n      0x01\n      add\n      dup6\n      sstore\n      dup3\n      iszero\n      tag_74\n      jumpi\n      swap2\n      dup3\n      add\n    tag_77:\n      dup3\n      dup2\n      gt\n      iszero\n      tag_78\n      jumpi\n      dup3\n      mload\n      dup3\n      sstore\n      swap2\n      0x20\n      add\n      swap2\n      swap1\n      0x01\n      add\n      swap1\n      jump(tag_77)\n    tag_78:\n    tag_74:\n      pop\n      swap1\n      pop\n      tag_79\n      swap2\n      swap1\n      tag_80\n      jump\t// in\n    tag_79:\n      pop\n      swap1\n      jump\t// out\n    tag_80:\n    tag_81:\n      dup1\n      dup3\n      gt\n      iszero\n      tag_82\n      jumpi\n      0x00\n      dup2\n      0x00\n      swap1\n      sstore\n      pop\n      0x01\n      add\n      jump(tag_81)\n    tag_82:\n      pop\n      swap1\n      jump\t// out\n        /* \"#utility.yul\":7:419   */\n    tag_84:\n        /* \"#utility.yul\":85:90   */\n      0x00\n        /* \"#utility.yul\":110:176   */\n      tag_86\n        /* \"#utility.yul\":126:175   */\n      tag_87\n        /* \"#utility.yul\":168:174   */\n      dup5\n        /* \"#utility.yul\":126:175   */\n      tag_88\n      jump\t// in\n    tag_87:\n        /* \"#utility.yul\":110:176   */\n      tag_89\n      jump\t// in\n    tag_86:\n        /* \"#utility.yul\":101:176   */\n      swap1\n      pop\n        /* \"#utility.yul\":199:205   */\n      dup3\n        /* \"#utility.yul\":192:197   */\n      dup2\n        /* \"#utility.yul\":185:206   */\n      mstore\n        /* \"#utility.yul\":237:241   */\n      0x20\n        /* \"#utility.yul\":230:235   */\n      dup2\n        /* \"#utility.yul\":226:242   */\n      add\n        /* \"#utility.yul\":275:278   */\n      dup5\n        /* \"#utility.yul\":266:272   */\n      dup5\n        /* \"#utility.yul\":261:264   */\n      dup5\n        /* \"#utility.yul\":257:273   */\n      add\n        /* \"#utility.yul\":254:279   */\n      gt\n        /* \"#utility.yul\":251:363   */\n      iszero\n      tag_90\n      jumpi\n        /* \"#utility.yul\":282:361   */\n      tag_91\n      tag_92\n      jump\t// in\n    tag_91:\n        /* \"#utility.yul\":251:363   */\n    tag_90:\n        /* \"#utility.yul\":372:413   */\n      tag_93\n        /* \"#utility.yul\":406:412   */\n      dup5\n        /* \"#utility.yul\":401:404   */\n      dup3\n        /* \"#utility.yul\":396:399   */\n      dup6\n        /* \"#utility.yul\":372:413   */\n      tag_94\n      jump\t// in\n    tag_93:\n        /* \"#utility.yul\":91:419   */\n      pop\n        /* \"#utility.yul\":7:419   */\n      swap4\n      swap3\n      pop\n      pop\n      pop\n      jump\t// out\n        /* \"#utility.yul\":439:779   */\n    tag_95:\n        /* \"#utility.yul\":495:500   */\n      0x00\n        /* \"#utility.yul\":544:547   */\n      dup3\n        /* \"#utility.yul\":537:541   */\n      0x1f\n        /* \"#utility.yul\":529:535   */\n      dup4\n        /* \"#utility.yul\":525:542   */\n      add\n        /* \"#utility.yul\":521:548   */\n      slt\n        /* \"#utility.yul\":511:633   */\n      tag_97\n      jumpi\n        /* \"#utility.yul\":552:631   */\n      tag_98\n      tag_99\n      jump\t// in\n    tag_98:\n        /* \"#utility.yul\":511:633   */\n    tag_97:\n        /* \"#utility.yul\":669:675   */\n      dup2\n        /* \"#utility.yul\":656:676   */\n      calldataload\n        /* \"#utility.yul\":694:773   */\n      tag_100\n        /* \"#utility.yul\":769:772   */\n      dup5\n        /* \"#utility.yul\":761:767   */\n      dup3\n        /* \"#utility.yul\":754:758   */\n      0x20\n        /* \"#utility.yul\":746:752   */\n      dup7\n        /* \"#utility.yul\":742:759   */\n      add\n        /* \"#utility.yul\":694:773   */\n      tag_84\n      jump\t// in\n    tag_100:\n        /* \"#utility.yul\":685:773   */\n      swap2\n      pop\n        /* \"#utility.yul\":501:779   */\n      pop\n        /* \"#utility.yul\":439:779   */\n      swap3\n      swap2\n      pop\n      pop\n      jump\t// out\n        /* \"#utility.yul\":785:924   */\n    tag_101:\n        /* \"#utility.yul\":831:836   */\n      0x00\n        /* \"#utility.yul\":869:875   */\n      dup2\n        /* \"#utility.yul\":856:876   */\n      calldataload\n        /* \"#utility.yul\":847:876   */\n      swap1\n      pop\n        /* \"#utility.yul\":885:918   */\n      tag_103\n        /* \"#utility.yul\":912:917   */\n      dup2\n        /* \"#utility.yul\":885:918   */\n      tag_104\n      jump\t// in\n    tag_103:\n        /* \"#utility.yul\":785:924   */\n      swap3\n      swap2\n      pop\n      pop\n      jump\t// out\n        /* \"#utility.yul\":930:1764   */\n    tag_15:\n        /* \"#utility.yul\":1018:1024   */\n      0x00\n        /* \"#utility.yul\":1026:1032   */\n      dup1\n        /* \"#utility.yul\":1075:1077   */\n      0x40\n        /* \"#utility.yul\":1063:1072   */\n      dup4\n        /* \"#utility.yul\":1054:1061   */\n      dup6\n        /* \"#utility.yul\":1050:1073   */\n      sub\n        /* \"#utility.yul\":1046:1078   */\n      slt\n        /* \"#utility.yul\":1043:1162   */\n      iszero\n      tag_106\n      jumpi\n        /* \"#utility.yul\":1081:1160   */\n      tag_107\n      tag_108\n      jump\t// in\n    tag_107:\n        /* \"#utility.yul\":1043:1162   */\n    tag_106:\n        /* \"#utility.yul\":1229:1230   */\n      0x00\n        /* \"#utility.yul\":1218:1227   */\n      dup4\n        /* \"#utility.yul\":1214:1231   */\n      add\n        /* \"#utility.yul\":1201:1232   */\n      calldataload\n        /* \"#utility.yul\":1259:1277   */\n      0xffffffffffffffff\n        /* \"#utility.yul\":1251:1257   */\n      dup2\n        /* \"#utility.yul\":1248:1278   */\n      gt\n        /* \"#utility.yul\":1245:1362   */\n      iszero\n      tag_109\n      jumpi\n        /* \"#utility.yul\":1281:1360   */\n      tag_110\n      tag_111\n      jump\t// in\n    tag_110:\n        /* \"#utility.yul\":1245:1362   */\n    tag_109:\n        /* \"#utility.yul\":1386:1449   */\n      tag_112\n        /* \"#utility.yul\":1441:1448   */\n      dup6\n        /* \"#utility.yul\":1432:1438   */\n      dup3\n        /* \"#utility.yul\":1421:1430   */\n      dup7\n        /* \"#utility.yul\":1417:1439   */\n      add\n        /* \"#utility.yul\":1386:1449   */\n      tag_95\n      jump\t// in\n    tag_112:\n        /* \"#utility.yul\":1376:1449   */\n      swap3\n      pop\n        /* \"#utility.yul\":1172:1459   */\n      pop\n        /* \"#utility.yul\":1526:1528   */\n      0x20\n        /* \"#utility.yul\":1515:1524   */\n      dup4\n        /* \"#utility.yul\":1511:1529   */\n      add\n        /* \"#utility.yul\":1498:1530   */\n      calldataload\n        /* \"#utility.yul\":1557:1575   */\n      0xffffffffffffffff\n        /* \"#utility.yul\":1549:1555   */\n      dup2\n        /* \"#utility.yul\":1546:1576   */\n      gt\n        /* \"#utility.yul\":1543:1660   */\n      iszero\n      tag_113\n      jumpi\n        /* \"#utility.yul\":1579:1658   */\n      tag_114\n      tag_111\n      jump\t// in\n    tag_114:\n        /* \"#utility.yul\":1543:1660   */\n    tag_113:\n        /* \"#utility.yul\":1684:1747   */\n      tag_115\n        /* \"#utility.yul\":1739:1746   */\n      dup6\n        /* \"#utility.yul\":1730:1736   */\n      dup3\n        /* \"#utility.yul\":1719:1728   */\n      dup7\n        /* \"#utility.yul\":1715:1737   */\n      add\n        /* \"#utility.yul\":1684:1747   */\n      tag_95\n      jump\t// in\n    tag_115:\n        /* \"#utility.yul\":1674:1747   */\n      swap2\n      pop\n        /* \"#utility.yul\":1469:1757   */\n      pop\n        /* \"#utility.yul\":930:1764   */\n      swap3\n      pop\n      swap3\n      swap1\n      pop\n      jump\t// out\n        /* \"#utility.yul\":1770:2424   */\n    tag_9:\n        /* \"#utility.yul\":1848:1854   */\n      0x00\n        /* \"#utility.yul\":1856:1862   */\n      dup1\n        /* \"#utility.yul\":1905:1907   */\n      0x40\n        /* \"#utility.yul\":1893:1902   */\n      dup4\n        /* \"#utility.yul\":1884:1891   */\n      dup6\n        /* \"#utility.yul\":1880:1903   */\n      sub\n        /* \"#utility.yul\":1876:1908   */\n      slt\n        /* \"#utility.yul\":1873:1992   */\n      iszero\n      tag_117\n      jumpi\n        /* \"#utility.yul\":1911:1990   */\n      tag_118\n      tag_108\n      jump\t// in\n    tag_118:\n        /* \"#utility.yul\":1873:1992   */\n    tag_117:\n        /* \"#utility.yul\":2059:2060   */\n      0x00\n        /* \"#utility.yul\":2048:2057   */\n      dup4\n        /* \"#utility.yul\":2044:2061   */\n      add\n        /* \"#utility.yul\":2031:2062   */\n      calldataload\n        /* \"#utility.yul\":2089:2107   */\n      0xffffffffffffffff\n        /* \"#utility.yul\":2081:2087   */\n      dup2\n        /* \"#utility.yul\":2078:2108   */\n      gt\n        /* \"#utility.yul\":2075:2192   */\n      iszero\n      tag_119\n      jumpi\n        /* \"#utility.yul\":2111:2190   */\n      tag_120\n      tag_111\n      jump\t// in\n    tag_120:\n        /* \"#utility.yul\":2075:2192   */\n    tag_119:\n        /* \"#utility.yul\":2216:2279   */\n      tag_121\n        /* \"#utility.yul\":2271:2278   */\n      dup6\n        /* \"#utility.yul\":2262:2268   */\n      dup3\n        /* \"#utility.yul\":2251:2260   */\n      dup7\n        /* \"#utility.yul\":2247:2269   */\n      add\n        /* \"#utility.yul\":2216:2279   */\n      tag_95\n      jump\t// in\n    tag_121:\n        /* \"#utility.yul\":2206:2279   */\n      swap3\n      pop\n        /* \"#utility.yul\":2002:2289   */\n      pop\n        /* \"#utility.yul\":2328:2330   */\n      0x20\n        /* \"#utility.yul\":2354:2407   */\n      tag_122\n        /* \"#utility.yul\":2399:2406   */\n      dup6\n        /* \"#utility.yul\":2390:2396   */\n      dup3\n        /* \"#utility.yul\":2379:2388   */\n      dup7\n        /* \"#utility.yul\":2375:2397   */\n      add\n        /* \"#utility.yul\":2354:2407   */\n      tag_101\n      jump\t// in\n    tag_122:\n        /* \"#utility.yul\":2344:2407   */\n      swap2\n      pop\n        /* \"#utility.yul\":2299:2417   */\n      pop\n        /* \"#utility.yul\":1770:2424   */\n      swap3\n      pop\n      swap3\n      swap1\n      pop\n      jump\t// out\n        /* \"#utility.yul\":2430:2759   */\n    tag_20:\n        /* \"#utility.yul\":2489:2495   */\n      0x00\n        /* \"#utility.yul\":2538:2540   */\n      0x20\n        /* \"#utility.yul\":2526:2535   */\n      dup3\n        /* \"#utility.yul\":2517:2524   */\n      dup5\n        /* \"#utility.yul\":2513:2536   */\n      sub\n        /* \"#utility.yul\":2509:2541   */\n      slt\n        /* \"#utility.yul\":2506:2625   */\n      iszero\n      tag_124\n      jumpi\n        /* \"#utility.yul\":2544:2623   */\n      tag_125\n      tag_108\n      jump\t// in\n    tag_125:\n        /* \"#utility.yul\":2506:2625   */\n    tag_124:\n        /* \"#utility.yul\":2664:2665   */\n      0x00\n        /* \"#utility.yul\":2689:2742   */\n      tag_126\n        /* \"#utility.yul\":2734:2741   */\n      dup5\n        /* \"#utility.yul\":2725:2731   */\n      dup3\n        /* \"#utility.yul\":2714:2723   */\n      dup6\n        /* \"#utility.yul\":2710:2732   */\n      add\n        /* \"#utility.yul\":2689:2742   */\n      tag_101\n      jump\t// in\n    tag_126:\n        /* \"#utility.yul\":2679:2742   */\n      swap2\n      pop\n        /* \"#utility.yul\":2635:2752   */\n      pop\n        /* \"#utility.yul\":2430:2759   */\n      swap3\n      swap2\n      pop\n      pop\n      jump\t// out\n        /* \"#utility.yul\":2765:3129   */\n    tag_127:\n        /* \"#utility.yul\":2853:2856   */\n      0x00\n        /* \"#utility.yul\":2881:2920   */\n      tag_129\n        /* \"#utility.yul\":2914:2919   */\n      dup3\n        /* \"#utility.yul\":2881:2920   */\n      tag_130\n      jump\t// in\n    tag_129:\n        /* \"#utility.yul\":2936:3007   */\n      tag_131\n        /* \"#utility.yul\":3000:3006   */\n      dup2\n        /* \"#utility.yul\":2995:2998   */\n      dup6\n        /* \"#utility.yul\":2936:3007   */\n      tag_132\n      jump\t// in\n    tag_131:\n        /* \"#utility.yul\":2929:3007   */\n      swap4\n      pop\n        /* \"#utility.yul\":3016:3068   */\n      tag_133\n        /* \"#utility.yul\":3061:3067   */\n      dup2\n        /* \"#utility.yul\":3056:3059   */\n      dup6\n        /* \"#utility.yul\":3049:3053   */\n      0x20\n        /* \"#utility.yul\":3042:3047   */\n      dup7\n        /* \"#utility.yul\":3038:3054   */\n      add\n        /* \"#utility.yul\":3016:3068   */\n      tag_134\n      jump\t// in\n    tag_133:\n        /* \"#utility.yul\":3093:3122   */\n      tag_135\n        /* \"#utility.yul\":3115:3121   */\n      dup2\n        /* \"#utility.yul\":3093:3122   */\n      tag_136\n      jump\t// in\n    tag_135:\n        /* \"#utility.yul\":3088:3091   */\n      dup5\n        /* \"#utility.yul\":3084:3123   */\n      add\n        /* \"#utility.yul\":3077:3123   */\n      swap2\n      pop\n        /* \"#utility.yul\":2857:3129   */\n      pop\n        /* \"#utility.yul\":2765:3129   */\n      swap3\n      swap2\n      pop\n      pop\n      jump\t// out\n        /* \"#utility.yul\":3135:3512   */\n    tag_137:\n        /* \"#utility.yul\":3241:3244   */\n      0x00\n        /* \"#utility.yul\":3269:3308   */\n      tag_139\n        /* \"#utility.yul\":3302:3307   */\n      dup3\n        /* \"#utility.yul\":3269:3308   */\n      tag_130\n      jump\t// in\n    tag_139:\n        /* \"#utility.yul\":3324:3413   */\n      tag_140\n        /* \"#utility.yul\":3406:3412   */\n      dup2\n        /* \"#utility.yul\":3401:3404   */\n      dup6\n        /* \"#utility.yul\":3324:3413   */\n      tag_141\n      jump\t// in\n    tag_140:\n        /* \"#utility.yul\":3317:3413   */\n      swap4\n      pop\n        /* \"#utility.yul\":3422:3474   */\n      tag_142\n        /* \"#utility.yul\":3467:3473   */\n      dup2\n        /* \"#utility.yul\":3462:3465   */\n      dup6\n        /* \"#utility.yul\":3455:3459   */\n      0x20\n        /* \"#utility.yul\":3448:3453   */\n      dup7\n        /* \"#utility.yul\":3444:3460   */\n      add\n        /* \"#utility.yul\":3422:3474   */\n      tag_134\n      jump\t// in\n    tag_142:\n        /* \"#utility.yul\":3499:3505   */\n      dup1\n        /* \"#utility.yul\":3494:3497   */\n      dup5\n        /* \"#utility.yul\":3490:3506   */\n      add\n        /* \"#utility.yul\":3483:3506   */\n      swap2\n      pop\n        /* \"#utility.yul\":3245:3512   */\n      pop\n        /* \"#utility.yul\":3135:3512   */\n      swap3\n      swap2\n      pop\n      pop\n      jump\t// out\n        /* \"#utility.yul\":3518:3884   */\n    tag_143:\n        /* \"#utility.yul\":3660:3663   */\n      0x00\n        /* \"#utility.yul\":3681:3748   */\n      tag_145\n        /* \"#utility.yul\":3745:3747   */\n      0x10\n        /* \"#utility.yul\":3740:3743   */\n      dup4\n        /* \"#utility.yul\":3681:3748   */\n      tag_132\n      jump\t// in\n    tag_145:\n        /* \"#utility.yul\":3674:3748   */\n      swap2\n      pop\n        /* \"#utility.yul\":3757:3850   */\n      tag_146\n        /* \"#utility.yul\":3846:3849   */\n      dup3\n        /* \"#utility.yul\":3757:3850   */\n      tag_147\n      jump\t// in\n    tag_146:\n        /* \"#utility.yul\":3875:3877   */\n      0x20\n        /* \"#utility.yul\":3870:3873   */\n      dup3\n        /* \"#utility.yul\":3866:3878   */\n      add\n        /* \"#utility.yul\":3859:3878   */\n      swap1\n      pop\n        /* \"#utility.yul\":3518:3884   */\n      swap2\n      swap1\n      pop\n      jump\t// out\n        /* \"#utility.yul\":3890:4008   */\n    tag_148:\n        /* \"#utility.yul\":3977:4001   */\n      tag_150\n        /* \"#utility.yul\":3995:4000   */\n      dup2\n        /* \"#utility.yul\":3977:4001   */\n      tag_151\n      jump\t// in\n    tag_150:\n        /* \"#utility.yul\":3972:3975   */\n      dup3\n        /* \"#utility.yul\":3965:4002   */\n      mstore\n        /* \"#utility.yul\":3890:4008   */\n      pop\n      pop\n      jump\t// out\n        /* \"#utility.yul\":4014:4289   */\n    tag_33:\n        /* \"#utility.yul\":4146:4149   */\n      0x00\n        /* \"#utility.yul\":4168:4263   */\n      tag_153\n        /* \"#utility.yul\":4259:4262   */\n      dup3\n        /* \"#utility.yul\":4250:4256   */\n      dup5\n        /* \"#utility.yul\":4168:4263   */\n      tag_137\n      jump\t// in\n    tag_153:\n        /* \"#utility.yul\":4161:4263   */\n      swap2\n      pop\n        /* \"#utility.yul\":4280:4283   */\n      dup2\n        /* \"#utility.yul\":4273:4283   */\n      swap1\n      pop\n        /* \"#utility.yul\":4014:4289   */\n      swap3\n      swap2\n      pop\n      pop\n      jump\t// out\n        /* \"#utility.yul\":4295:4608   */\n    tag_12:\n        /* \"#utility.yul\":4408:4412   */\n      0x00\n        /* \"#utility.yul\":4446:4448   */\n      0x20\n        /* \"#utility.yul\":4435:4444   */\n      dup3\n        /* \"#utility.yul\":4431:4449   */\n      add\n        /* \"#utility.yul\":4423:4449   */\n      swap1\n      pop\n        /* \"#utility.yul\":4495:4504   */\n      dup2\n        /* \"#utility.yul\":4489:4493   */\n      dup2\n        /* \"#utility.yul\":4485:4505   */\n      sub\n        /* \"#utility.yul\":4481:4482   */\n      0x00\n        /* \"#utility.yul\":4470:4479   */\n      dup4\n        /* \"#utility.yul\":4466:4483   */\n      add\n        /* \"#utility.yul\":4459:4506   */\n      mstore\n        /* \"#utility.yul\":4523:4601   */\n      tag_155\n        /* \"#utility.yul\":4596:4600   */\n      dup2\n        /* \"#utility.yul\":4587:4593   */\n      dup5\n        /* \"#utility.yul\":4523:4601   */\n      tag_127\n      jump\t// in\n    tag_155:\n        /* \"#utility.yul\":4515:4601   */\n      swap1\n      pop\n        /* \"#utility.yul\":4295:4608   */\n      swap3\n      swap2\n      pop\n      pop\n      jump\t// out\n        /* \"#utility.yul\":4614:5238   */\n    tag_23:\n        /* \"#utility.yul\":4803:4807   */\n      0x00\n        /* \"#utility.yul\":4841:4843   */\n      0x60\n        /* \"#utility.yul\":4830:4839   */\n      dup3\n        /* \"#utility.yul\":4826:4844   */\n      add\n        /* \"#utility.yul\":4818:4844   */\n      swap1\n      pop\n        /* \"#utility.yul\":4890:4899   */\n      dup2\n        /* \"#utility.yul\":4884:4888   */\n      dup2\n        /* \"#utility.yul\":4880:4900   */\n      sub\n        /* \"#utility.yul\":4876:4877   */\n      0x00\n        /* \"#utility.yul\":4865:4874   */\n      dup4\n        /* \"#utility.yul\":4861:4878   */\n      add\n        /* \"#utility.yul\":4854:4901   */\n      mstore\n        /* \"#utility.yul\":4918:4996   */\n      tag_157\n        /* \"#utility.yul\":4991:4995   */\n      dup2\n        /* \"#utility.yul\":4982:4988   */\n      dup7\n        /* \"#utility.yul\":4918:4996   */\n      tag_127\n      jump\t// in\n    tag_157:\n        /* \"#utility.yul\":4910:4996   */\n      swap1\n      pop\n        /* \"#utility.yul\":5043:5052   */\n      dup2\n        /* \"#utility.yul\":5037:5041   */\n      dup2\n        /* \"#utility.yul\":5033:5053   */\n      sub\n        /* \"#utility.yul\":5028:5030   */\n      0x20\n        /* \"#utility.yul\":5017:5026   */\n      dup4\n        /* \"#utility.yul\":5013:5031   */\n      add\n        /* \"#utility.yul\":5006:5054   */\n      mstore\n        /* \"#utility.yul\":5071:5149   */\n      tag_158\n        /* \"#utility.yul\":5144:5148   */\n      dup2\n        /* \"#utility.yul\":5135:5141   */\n      dup6\n        /* \"#utility.yul\":5071:5149   */\n      tag_127\n      jump\t// in\n    tag_158:\n        /* \"#utility.yul\":5063:5149   */\n      swap1\n      pop\n        /* \"#utility.yul\":5159:5231   */\n      tag_159\n        /* \"#utility.yul\":5227:5229   */\n      0x40\n        /* \"#utility.yul\":5216:5225   */\n      dup4\n        /* \"#utility.yul\":5212:5230   */\n      add\n        /* \"#utility.yul\":5203:5209   */\n      dup5\n        /* \"#utility.yul\":5159:5231   */\n      tag_148\n      jump\t// in\n    tag_159:\n        /* \"#utility.yul\":4614:5238   */\n      swap5\n      swap4\n      pop\n      pop\n      pop\n      pop\n      jump\t// out\n        /* \"#utility.yul\":5244:5663   */\n    tag_30:\n        /* \"#utility.yul\":5410:5414   */\n      0x00\n        /* \"#utility.yul\":5448:5450   */\n      0x20\n        /* \"#utility.yul\":5437:5446   */\n      dup3\n        /* \"#utility.yul\":5433:5451   */\n      add\n        /* \"#utility.yul\":5425:5451   */\n      swap1\n      pop\n        /* \"#utility.yul\":5497:5506   */\n      dup2\n        /* \"#utility.yul\":5491:5495   */\n      dup2\n        /* \"#utility.yul\":5487:5507   */\n      sub\n        /* \"#utility.yul\":5483:5484   */\n      0x00\n        /* \"#utility.yul\":5472:5481   */\n      dup4\n        /* \"#utility.yul\":5468:5485   */\n      add\n        /* \"#utility.yul\":5461:5508   */\n      mstore\n        /* \"#utility.yul\":5525:5656   */\n      tag_161\n        /* \"#utility.yul\":5651:5655   */\n      dup2\n        /* \"#utility.yul\":5525:5656   */\n      tag_143\n      jump\t// in\n    tag_161:\n        /* \"#utility.yul\":5517:5656   */\n      swap1\n      pop\n        /* \"#utility.yul\":5244:5663   */\n      swap2\n      swap1\n      pop\n      jump\t// out\n        /* \"#utility.yul\":5669:5798   */\n    tag_89:\n        /* \"#utility.yul\":5703:5709   */\n      0x00\n        /* \"#utility.yul\":5730:5750   */\n      tag_163\n      tag_164\n      jump\t// in\n    tag_163:\n        /* \"#utility.yul\":5720:5750   */\n      swap1\n      pop\n        /* \"#utility.yul\":5759:5792   */\n      tag_165\n        /* \"#utility.yul\":5787:5791   */\n      dup3\n        /* \"#utility.yul\":5779:5785   */\n      dup3\n        /* \"#utility.yul\":5759:5792   */\n      tag_166\n      jump\t// in\n    tag_165:\n        /* \"#utility.yul\":5669:5798   */\n      swap2\n      swap1\n      pop\n      jump\t// out\n        /* \"#utility.yul\":5804:5879   */\n    tag_164:\n        /* \"#utility.yul\":5837:5843   */\n      0x00\n        /* \"#utility.yul\":5870:5872   */\n      0x40\n        /* \"#utility.yul\":5864:5873   */\n      mload\n        /* \"#utility.yul\":5854:5873   */\n      swap1\n      pop\n        /* \"#utility.yul\":5804:5879   */\n      swap1\n      jump\t// out\n        /* \"#utility.yul\":5885:6193   */\n    tag_88:\n        /* \"#utility.yul\":5947:5951   */\n      0x00\n        /* \"#utility.yul\":6037:6055   */\n      0xffffffffffffffff\n        /* \"#utility.yul\":6029:6035   */\n      dup3\n        /* \"#utility.yul\":6026:6056   */\n      gt\n        /* \"#utility.yul\":6023:6079   */\n      iszero\n      tag_169\n      jumpi\n        /* \"#utility.yul\":6059:6077   */\n      tag_170\n      tag_171\n      jump\t// in\n    tag_170:\n        /* \"#utility.yul\":6023:6079   */\n    tag_169:\n        /* \"#utility.yul\":6097:6126   */\n      tag_172\n        /* \"#utility.yul\":6119:6125   */\n      dup3\n        /* \"#utility.yul\":6097:6126   */\n      tag_136\n      jump\t// in\n    tag_172:\n        /* \"#utility.yul\":6089:6126   */\n      swap1\n      pop\n        /* \"#utility.yul\":6181:6185   */\n      0x20\n        /* \"#utility.yul\":6175:6179   */\n      dup2\n        /* \"#utility.yul\":6171:6186   */\n      add\n        /* \"#utility.yul\":6163:6186   */\n      swap1\n      pop\n        /* \"#utility.yul\":5885:6193   */\n      swap2\n      swap1\n      pop\n      jump\t// out\n        /* \"#utility.yul\":6199:6298   */\n    tag_130:\n        /* \"#utility.yul\":6251:6257   */\n      0x00\n        /* \"#utility.yul\":6285:6290   */\n      dup2\n        /* \"#utility.yul\":6279:6291   */\n      mload\n        /* \"#utility.yul\":6269:6291   */\n      swap1\n      pop\n        /* \"#utility.yul\":6199:6298   */\n      swap2\n      swap1\n      pop\n      jump\t// out\n        /* \"#utility.yul\":6304:6473   */\n    tag_132:\n        /* \"#utility.yul\":6388:6399   */\n      0x00\n        /* \"#utility.yul\":6422:6428   */\n      dup3\n        /* \"#utility.yul\":6417:6420   */\n      dup3\n        /* \"#utility.yul\":6410:6429   */\n      mstore\n        /* \"#utility.yul\":6462:6466   */\n      0x20\n        /* \"#utility.yul\":6457:6460   */\n      dup3\n        /* \"#utility.yul\":6453:6467   */\n      add\n        /* \"#utility.yul\":6438:6467   */\n      swap1\n      pop\n        /* \"#utility.yul\":6304:6473   */\n      swap3\n      swap2\n      pop\n      pop\n      jump\t// out\n        /* \"#utility.yul\":6479:6627   */\n    tag_141:\n        /* \"#utility.yul\":6581:6592   */\n      0x00\n        /* \"#utility.yul\":6618:6621   */\n      dup2\n        /* \"#utility.yul\":6603:6621   */\n      swap1\n      pop\n        /* \"#utility.yul\":6479:6627   */\n      swap3\n      swap2\n      pop\n      pop\n      jump\t// out\n        /* \"#utility.yul\":6633:6938   */\n    tag_39:\n        /* \"#utility.yul\":6673:6676   */\n      0x00\n        /* \"#utility.yul\":6692:6712   */\n      tag_177\n        /* \"#utility.yul\":6710:6711   */\n      dup3\n        /* \"#utility.yul\":6692:6712   */\n      tag_151\n      jump\t// in\n    tag_177:\n        /* \"#utility.yul\":6687:6712   */\n      swap2\n      pop\n        /* \"#utility.yul\":6726:6746   */\n      tag_178\n        /* \"#utility.yul\":6744:6745   */\n      dup4\n        /* \"#utility.yul\":6726:6746   */\n      tag_151\n      jump\t// in\n    tag_178:\n        /* \"#utility.yul\":6721:6746   */\n      swap3\n      pop\n        /* \"#utility.yul\":6880:6881   */\n      dup3\n        /* \"#utility.yul\":6812:6878   */\n      0xffffffffffffffffffffffffffffffffffffffffffffffffffffffffffffffff\n        /* \"#utility.yul\":6808:6882   */\n      sub\n        /* \"#utility.yul\":6805:6806   */\n      dup3\n        /* \"#utility.yul\":6802:6883   */\n      gt\n        /* \"#utility.yul\":6799:6906   */\n      iszero\n      tag_179\n      jumpi\n        /* \"#utility.yul\":6886:6904   */\n      tag_180\n      tag_181\n      jump\t// in\n    tag_180:\n        /* \"#utility.yul\":6799:6906   */\n    tag_179:\n        /* \"#utility.yul\":6930:6931   */\n      dup3\n        /* \"#utility.yul\":6927:6928   */\n      dup3\n        /* \"#utility.yul\":6923:6932   */\n      add\n        /* \"#utility.yul\":6916:6932   */\n      swap1\n      pop\n        /* \"#utility.yul\":6633:6938   */\n      swap3\n      swap2\n      pop\n      pop\n      jump\t// out\n        /* \"#utility.yul\":6944:7021   */\n    tag_151:\n        /* \"#utility.yul\":6981:6988   */\n      0x00\n        /* \"#utility.yul\":7010:7015   */\n      dup2\n        /* \"#utility.yul\":6999:7015   */\n      swap1\n      pop\n        /* \"#utility.yul\":6944:7021   */\n      swap2\n      swap1\n      pop\n      jump\t// out\n        /* \"#utility.yul\":7027:7181   */\n    tag_94:\n        /* \"#utility.yul\":7111:7117   */\n      dup3\n        /* \"#utility.yul\":7106:7109   */\n      dup2\n        /* \"#utility.yul\":7101:7104   */\n      dup4\n        /* \"#utility.yul\":7088:7118   */\n      calldatacopy\n        /* \"#utility.yul\":7173:7174   */\n      0x00\n        /* \"#utility.yul\":7164:7170   */\n      dup4\n        /* \"#utility.yul\":7159:7162   */\n      dup4\n        /* \"#utility.yul\":7155:7171   */\n      add\n        /* \"#utility.yul\":7148:7175   */\n      mstore\n        /* \"#utility.yul\":7027:7181   */\n      pop\n      pop\n      pop\n      jump\t// out\n        /* \"#utility.yul\":7187:7494   */\n    tag_134:\n        /* \"#utility.yul\":7255:7256   */\n      0x00\n        /* \"#utility.yul\":7265:7378   */\n    tag_185:\n        /* \"#utility.yul\":7279:7285   */\n      dup4\n        /* \"#utility.yul\":7276:7277   */\n      dup2\n        /* \"#utility.yul\":7273:7286   */\n      lt\n        /* \"#utility.yul\":7265:7378   */\n      iszero\n      tag_187\n      jumpi\n        /* \"#utility.yul\":7364:7365   */\n      dup1\n        /* \"#utility.yul\":7359:7362   */\n      dup3\n        /* \"#utility.yul\":7355:7366   */\n      add\n        /* \"#utility.yul\":7349:7367   */\n      mload\n        /* \"#utility.yul\":7345:7346   */\n      dup2\n        /* \"#utility.yul\":7340:7343   */\n      dup5\n        /* \"#utility.yul\":7336:7347   */\n      add\n        /* \"#utility.yul\":7329:7368   */\n      mstore\n        /* \"#utility.yul\":7301:7303   */\n      0x20\n        /* \"#utility.yul\":7298:7299   */\n      dup2\n        /* \"#utility.yul\":7294:7304   */\n      add\n        /* \"#utility.yul\":7289:7304   */\n      swap1\n      pop\n        /* \"#utility.yul\":7265:7378   */\n      jump(tag_185)\n    tag_187:\n        /* \"#utility.yul\":7396:7402   */\n      dup4\n        /* \"#utility.yul\":7393:7394   */\n      dup2\n        /* \"#utility.yul\":7390:7403   */\n      gt\n        /* \"#utility.yul\":7387:7488   */\n      iszero\n      tag_188\n      jumpi\n        /* \"#utility.yul\":7476:7477   */\n      0x00\n        /* \"#utility.yul\":7467:7473   */\n      dup5\n        /* \"#utility.yul\":7462:7465   */\n      dup5\n        /* \"#utility.yul\":7458:7474   */\n      add\n        /* \"#utility.yul\":7451:7478   */\n      mstore\n        /* \"#utility.yul\":7387:7488   */\n    tag_188:\n        /* \"#utility.yul\":7236:7494   */\n      pop\n        /* \"#utility.yul\":7187:7494   */\n      pop\n      pop\n      pop\n      jump\t// out\n        /* \"#utility.yul\":7500:7820   */\n    tag_49:\n        /* \"#utility.yul\":7544:7550   */\n      0x00\n        /* \"#utility.yul\":7581:7582   */\n      0x02\n        /* \"#utility.yul\":7575:7579   */\n      dup3\n        /* \"#utility.yul\":7571:7583   */\n      div\n        /* \"#utility.yul\":7561:7583   */\n      swap1\n      pop\n        /* \"#utility.yul\":7628:7629   */\n      0x01\n        /* \"#utility.yul\":7622:7626   */\n      dup3\n        /* \"#utility.yul\":7618:7630   */\n      and\n        /* \"#utility.yul\":7649:7667   */\n      dup1\n        /* \"#utility.yul\":7639:7720   */\n      tag_190\n      jumpi\n        /* \"#utility.yul\":7705:7709   */\n      0x7f\n        /* \"#utility.yul\":7697:7703   */\n      dup3\n        /* \"#utility.yul\":7693:7710   */\n      and\n        /* \"#utility.yul\":7683:7710   */\n      swap2\n      pop\n        /* \"#utility.yul\":7639:7720   */\n    tag_190:\n        /* \"#utility.yul\":7767:7769   */\n      0x20\n        /* \"#utility.yul\":7759:7765   */\n      dup3\n        /* \"#utility.yul\":7756:7770   */\n      lt\n        /* \"#utility.yul\":7736:7754   */\n      dup2\n        /* \"#utility.yul\":7733:7771   */\n      eq\n        /* \"#utility.yul\":7730:7814   */\n      iszero\n      tag_191\n      jumpi\n        /* \"#utility.yul\":7786:7804   */\n      tag_192\n      tag_193\n      jump\t// in\n    tag_192:\n        /* \"#utility.yul\":7730:7814   */\n    tag_191:\n        /* \"#utility.yul\":7551:7820   */\n      pop\n        /* \"#utility.yul\":7500:7820   */\n      swap2\n      swap1\n      pop\n      jump\t// out\n        /* \"#utility.yul\":7826:8107   */\n    tag_166:\n        /* \"#utility.yul\":7909:7936   */\n      tag_195\n        /* \"#utility.yul\":7931:7935   */\n      dup3\n        /* \"#utility.yul\":7909:7936   */\n      tag_136\n      jump\t// in\n    tag_195:\n        /* \"#utility.yul\":7901:7907   */\n      dup2\n        /* \"#utility.yul\":7897:7937   */\n      add\n        /* \"#utility.yul\":8039:8045   */\n      dup2\n        /* \"#utility.yul\":8027:8037   */\n      dup2\n        /* \"#utility.yul\":8024:8046   */\n      lt\n        /* \"#utility.yul\":8003:8021   */\n      0xffffffffffffffff\n        /* \"#utility.yul\":7991:8001   */\n      dup3\n        /* \"#utility.yul\":7988:8022   */\n      gt\n        /* \"#utility.yul\":7985:8047   */\n      or\n        /* \"#utility.yul\":7982:8070   */\n      iszero\n      tag_196\n      jumpi\n        /* \"#utility.yul\":8050:8068   */\n      tag_197\n      tag_171\n      jump\t// in\n    tag_197:\n        /* \"#utility.yul\":7982:8070   */\n    tag_196:\n        /* \"#utility.yul\":8090:8100   */\n      dup1\n        /* \"#utility.yul\":8086:8088   */\n      0x40\n        /* \"#utility.yul\":8079:8101   */\n      mstore\n        /* \"#utility.yul\":7869:8107   */\n      pop\n        /* \"#utility.yul\":7826:8107   */\n      pop\n      pop\n      jump\t// out\n        /* \"#utility.yul\":8113:8346   */\n    tag_36:\n        /* \"#utility.yul\":8152:8155   */\n      0x00\n        /* \"#utility.yul\":8175:8199   */\n      tag_199\n        /* \"#utility.yul\":8193:8198   */\n      dup3\n        /* \"#utility.yul\":8175:8199   */\n      tag_151\n      jump\t// in\n    tag_199:\n        /* \"#utility.yul\":8166:8199   */\n      swap2\n      pop\n        /* \"#utility.yul\":8221:8287   */\n      0xffffffffffffffffffffffffffffffffffffffffffffffffffffffffffffffff\n        /* \"#utility.yul\":8214:8219   */\n      dup3\n        /* \"#utility.yul\":8211:8288   */\n      eq\n        /* \"#utility.yul\":8208:8311   */\n      iszero\n      tag_200\n      jumpi\n        /* \"#utility.yul\":8291:8309   */\n      tag_201\n      tag_181\n      jump\t// in\n    tag_201:\n        /* \"#utility.yul\":8208:8311   */\n    tag_200:\n        /* \"#utility.yul\":8338:8339   */\n      0x01\n        /* \"#utility.yul\":8331:8336   */\n      dup3\n        /* \"#utility.yul\":8327:8340   */\n      add\n        /* \"#utility.yul\":8320:8340   */\n      swap1\n      pop\n        /* \"#utility.yul\":8113:8346   */\n      swap2\n      swap1\n      pop\n      jump\t// out\n        /* \"#utility.yul\":8352:8532   */\n    tag_181:\n        /* \"#utility.yul\":8400:8477   */\n      0x4e487b7100000000000000000000000000000000000000000000000000000000\n        /* \"#utility.yul\":8397:8398   */\n      0x00\n        /* \"#utility.yul\":8390:8478   */\n      mstore\n        /* \"#utility.yul\":8497:8501   */\n      0x11\n        /* \"#utility.yul\":8494:8495   */\n      0x04\n        /* \"#utility.yul\":8487:8502   */\n      mstore\n        /* \"#utility.yul\":8521:8525   */\n      0x24\n        /* \"#utility.yul\":8518:8519   */\n      0x00\n        /* \"#utility.yul\":8511:8526   */\n      revert\n        /* \"#utility.yul\":8538:8718   */\n    tag_193:\n        /* \"#utility.yul\":8586:8663   */\n      0x4e487b7100000000000000000000000000000000000000000000000000000000\n        /* \"#utility.yul\":8583:8584   */\n      0x00\n        /* \"#utility.yul\":8576:8664   */\n      mstore\n        /* \"#utility.yul\":8683:8687   */\n      0x22\n        /* \"#utility.yul\":8680:8681   */\n      0x04\n        /* \"#utility.yul\":8673:8688   */\n      mstore\n        /* \"#utility.yul\":8707:8711   */\n      0x24\n        /* \"#utility.yul\":8704:8705   */\n      0x00\n        /* \"#utility.yul\":8697:8712   */\n      revert\n        /* \"#utility.yul\":8724:8904   */\n    tag_171:\n        /* \"#utility.yul\":8772:8849   */\n      0x4e487b7100000000000000000000000000000000000000000000000000000000\n        /* \"#utility.yul\":8769:8770   */\n      0x00\n        /* \"#utility.yul\":8762:8850   */\n      mstore\n        /* \"#utility.yul\":8869:8873   */\n      0x41\n        /* \"#utility.yul\":8866:8867   */\n      0x04\n        /* \"#utility.yul\":8859:8874   */\n      mstore\n        /* \"#utility.yul\":8893:8897   */\n      0x24\n        /* \"#utility.yul\":8890:8891   */\n      0x00\n        /* \"#utility.yul\":8883:8898   */\n      revert\n        /* \"#utility.yul\":8910:9027   */\n    tag_99:\n        /* \"#utility.yul\":9019:9020   */\n      0x00\n        /* \"#utility.yul\":9016:9017   */\n      dup1\n        /* \"#utility.yul\":9009:9021   */\n      revert\n        /* \"#utility.yul\":9033:9150   */\n    tag_92:\n        /* \"#utility.yul\":9142:9143   */\n      0x00\n        /* \"#utility.yul\":9139:9140   */\n      dup1\n        /* \"#utility.yul\":9132:9144   */\n      revert\n        /* \"#utility.yul\":9156:9273   */\n    tag_111:\n        /* \"#utility.yul\":9265:9266   */\n      0x00\n        /* \"#utility.yul\":9262:9263   */\n      dup1\n        /* \"#utility.yul\":9255:9267   */\n      revert\n        /* \"#utility.yul\":9279:9396   */\n    tag_108:\n        /* \"#utility.yul\":9388:9389   */\n      0x00\n        /* \"#utility.yul\":9385:9386   */\n      dup1\n        /* \"#utility.yul\":9378:9390   */\n      revert\n        /* \"#utility.yul\":9402:9504   */\n    tag_136:\n        /* \"#utility.yul\":9443:9449   */\n      0x00\n        /* \"#utility.yul\":9494:9496   */\n      0x1f\n        /* \"#utility.yul\":9490:9497   */\n      not\n        /* \"#utility.yul\":9485:9487   */\n      0x1f\n        /* \"#utility.yul\":9478:9483   */\n      dup4\n        /* \"#utility.yul\":9474:9488   */\n      add\n        /* \"#utility.yul\":9470:9498   */\n      and\n        /* \"#utility.yul\":9460:9498   */\n      swap1\n      pop\n        /* \"#utility.yul\":9402:9504   */\n      swap2\n      swap1\n      pop\n      jump\t// out\n        /* \"#utility.yul\":9510:9676   */\n    tag_147:\n        /* \"#utility.yul\":9650:9668   */\n      0x4163636573732069732044656e69656400000000000000000000000000000000\n        /* \"#utility.yul\":9646:9647   */\n      0x00\n        /* \"#utility.yul\":9638:9644   */\n      dup3\n        /* \"#utility.yul\":9634:9648   */\n      add\n        /* \"#utility.yul\":9627:9669   */\n      mstore\n        /* \"#utility.yul\":9510:9676   */\n      pop\n      jump\t// out\n        /* \"#utility.yul\":9682:9804   */\n    tag_104:\n        /* \"#utility.yul\":9755:9779   */\n      tag_212\n        /* \"#utility.yul\":9773:9778   */\n      dup2\n        /* \"#utility.yul\":9755:9779   */\n      tag_151\n      jump\t// in\n    tag_212:\n        /* \"#utility.yul\":9748:9753   */\n      dup2\n        /* \"#utility.yul\":9745:9780   */\n      eq\n        /* \"#utility.yul\":9735:9798   */\n      tag_213\n      jumpi\n        /* \"#utility.yul\":9794:9795   */\n      0x00\n        /* \"#utility.yul\":9791:9792   */\n      dup1\n        /* \"#utility.yul\":9784:9796   */\n      revert\n        /* \"#utility.yul\":9735:9798   */\n    tag_213:\n        /* \"#utility.yul\":9682:9804   */\n      pop\n      jump\t// out\n    stop\n    data_346ae9e229890c1b5467b3280ac50efb3a563831aa4e9bb9392fe53f7d7de7e2 596f752077696c6c20626520616464656420746f2063616e646964617465206c697374206f6e636520796f75206172652076616c696461746564206279207468652061646d696e\n\n    auxdata: 0xa2646970667358221220b8d6c0af4df8796971b6f7f78c9f57b4eebd6b3d4819bae617bf0008a233190664736f6c63430008070033\n}\n",
				"bytecode": {
					"linkReferences": {},
					"object": "608060405234801561001057600080fd5b5033600260006101000a81548173ffffffffffffffffffffffffffffffffffffffff021916908373ffffffffffffffffffffffffffffffffffffffff160217905550610d86806100616000396000f3fe608060405234801561001057600080fd5b506004361061004c5760003560e01c80630fd94e641461005157806317678bc3146100815780633477ee2e146100b1578063a48bdb7c146100e3575b600080fd5b61006b60048036038101906100669190610889565b610101565b60405161007891906109c5565b60405180910390f35b61009b60048036038101906100969190610811565b6102b6565b6040516100a891906109c5565b60405180910390f35b6100cb60048036038101906100c691906108e5565b6103fb565b6040516100da939291906109e7565b60405180910390f35b6100eb610535565b6040516100f891906109c5565b60405180910390f35b6060600260009054906101000a900473ffffffffffffffffffffffffffffffffffffffff1673ffffffffffffffffffffffffffffffffffffffff163373ffffffffffffffffffffffffffffffffffffffff1614610193576040517f08c379a000000000000000000000000000000000000000000000000000000000815260040161018a90610a2c565b60405180910390fd5b600015156004846040516101a791906109ae565b908152602001604051809103902060010160009054906101000a900460ff161515146101d257600080fd5b60008081546101e090610bce565b9190508190555060405180604001604052808381526020016001151581525060048460405161020f91906109ae565b90815260200160405180910390206000820151816000015560208201518160010160006101000a81548160ff02191690831515021790555090505060016003600084815260200190815260200160002060020160008282546102719190610ac9565b925050819055506040518060400160405280601b81526020017f596f752068617665207375636365737366756c6c7920766f7465640000000000815250905092915050565b6060600260009054906101000a900473ffffffffffffffffffffffffffffffffffffffff1673ffffffffffffffffffffffffffffffffffffffff163373ffffffffffffffffffffffffffffffffffffffff1614610348576040517f08c379a000000000000000000000000000000000000000000000000000000000815260040161033f90610a2c565b60405180910390fd5b60006001600081548092919061035d90610bce565b919050559050604051806060016040528085815260200184815260200160008152506003600083815260200190815260200160002060008201518160000190805190602001906103ae9291906106e9565b5060208201518160010190805190602001906103cb9291906106e9565b5060408201518160020155905050604051806080016040528060478152602001610d0a6047913991505092915050565b600360205280600052604060002060009150905080600001805461041e90610b6b565b80601f016020809104026020016040519081016040528092919081815260200182805461044a90610b6b565b80156104975780601f1061046c57610100808354040283529160200191610497565b820191906000526020600020905b81548152906001019060200180831161047a57829003601f168201915b5050505050908060010180546104ac90610b6b565b80601f01602080910402602001604051908101604052809291908181526020018280546104d890610b6b565b80156105255780601f106104fa57610100808354040283529160200191610525565b820191906000526020600020905b81548152906001019060200180831161050857829003601f168201915b5050505050908060020154905083565b6060600260009054906101000a900473ffffffffffffffffffffffffffffffffffffffff1673ffffffffffffffffffffffffffffffffffffffff163373ffffffffffffffffffffffffffffffffffffffff16146105c7576040517f08c379a00000000000000000000000000000000000000000000000000000000081526004016105be90610a2c565b60405180910390fd5b600060036000808152602001908152602001600020600201549050600080600090505b60015481101561064257600360008281526020019081526020016000206002015483101561062f57600360008281526020019081526020016000206002015492508091505b808061063a90610bce565b9150506105ea565b5060036000828152602001908152602001600020600001805461066490610b6b565b80601f016020809104026020016040519081016040528092919081815260200182805461069090610b6b565b80156106dd5780601f106106b2576101008083540402835291602001916106dd565b820191906000526020600020905b8154815290600101906020018083116106c057829003601f168201915b50505050509250505090565b8280546106f590610b6b565b90600052602060002090601f016020900481019282610717576000855561075e565b82601f1061073057805160ff191683800117855561075e565b8280016001018555821561075e579182015b8281111561075d578251825591602001919060010190610742565b5b50905061076b919061076f565b5090565b5b80821115610788576000816000905550600101610770565b5090565b600061079f61079a84610a71565b610a4c565b9050828152602081018484840111156107bb576107ba610ca9565b5b6107c6848285610b29565b509392505050565b600082601f8301126107e3576107e2610ca4565b5b81356107f384826020860161078c565b91505092915050565b60008135905061080b81610cf2565b92915050565b6000806040838503121561082857610827610cb3565b5b600083013567ffffffffffffffff81111561084657610845610cae565b5b610852858286016107ce565b925050602083013567ffffffffffffffff81111561087357610872610cae565b5b61087f858286016107ce565b9150509250929050565b600080604083850312156108a05761089f610cb3565b5b600083013567ffffffffffffffff8111156108be576108bd610cae565b5b6108ca858286016107ce565b92505060206108db858286016107fc565b9150509250929050565b6000602082840312156108fb576108fa610cb3565b5b6000610909848285016107fc565b91505092915050565b600061091d82610aa2565b6109278185610aad565b9350610937818560208601610b38565b61094081610cb8565b840191505092915050565b600061095682610aa2565b6109608185610abe565b9350610970818560208601610b38565b80840191505092915050565b6000610989601083610aad565b915061099482610cc9565b602082019050919050565b6109a881610b1f565b82525050565b60006109ba828461094b565b915081905092915050565b600060208201905081810360008301526109df8184610912565b905092915050565b60006060820190508181036000830152610a018186610912565b90508181036020830152610a158185610912565b9050610a24604083018461099f565b949350505050565b60006020820190508181036000830152610a458161097c565b9050919050565b6000610a56610a67565b9050610a628282610b9d565b919050565b6000604051905090565b600067ffffffffffffffff821115610a8c57610a8b610c75565b5b610a9582610cb8565b9050602081019050919050565b600081519050919050565b600082825260208201905092915050565b600081905092915050565b6000610ad482610b1f565b9150610adf83610b1f565b9250827fffffffffffffffffffffffffffffffffffffffffffffffffffffffffffffffff03821115610b1457610b13610c17565b5b828201905092915050565b6000819050919050565b82818337600083830152505050565b60005b83811015610b56578082015181840152602081019050610b3b565b83811115610b65576000848401525b50505050565b60006002820490506001821680610b8357607f821691505b60208210811415610b9757610b96610c46565b5b50919050565b610ba682610cb8565b810181811067ffffffffffffffff82111715610bc557610bc4610c75565b5b80604052505050565b6000610bd982610b1f565b91507fffffffffffffffffffffffffffffffffffffffffffffffffffffffffffffffff821415610c0c57610c0b610c17565b5b600182019050919050565b7f4e487b7100000000000000000000000000000000000000000000000000000000600052601160045260246000fd5b7f4e487b7100000000000000000000000000000000000000000000000000000000600052602260045260246000fd5b7f4e487b7100000000000000000000000000000000000000000000000000000000600052604160045260246000fd5b600080fd5b600080fd5b600080fd5b600080fd5b6000601f19601f8301169050919050565b7f4163636573732069732044656e69656400000000000000000000000000000000600082015250565b610cfb81610b1f565b8114610d0657600080fd5b5056fe596f752077696c6c20626520616464656420746f2063616e646964617465206c697374206f6e636520796f75206172652076616c696461746564206279207468652061646d696ea2646970667358221220b8d6c0af4df8796971b6f7f78c9f57b4eebd6b3d4819bae617bf0008a233190664736f6c63430008070033",
					"opcodes": "PUSH1 0x80 PUSH1 0x40 MSTORE CALLVALUE DUP1 ISZERO PUSH2 0x10 JUMPI PUSH1 0x0 DUP1 REVERT JUMPDEST POP CALLER PUSH1 0x2 PUSH1 0x0 PUSH2 0x100 EXP DUP2 SLOAD DUP2 PUSH20 0xFFFFFFFFFFFFFFFFFFFFFFFFFFFFFFFFFFFFFFFF MUL NOT AND SWAP1 DUP4 PUSH20 0xFFFFFFFFFFFFFFFFFFFFFFFFFFFFFFFFFFFFFFFF AND MUL OR SWAP1 SSTORE POP PUSH2 0xD86 DUP1 PUSH2 0x61 PUSH1 0x0 CODECOPY PUSH1 0x0 RETURN INVALID PUSH1 0x80 PUSH1 0x40 MSTORE CALLVALUE DUP1 ISZERO PUSH2 0x10 JUMPI PUSH1 0x0 DUP1 REVERT JUMPDEST POP PUSH1 0x4 CALLDATASIZE LT PUSH2 0x4C JUMPI PUSH1 0x0 CALLDATALOAD PUSH1 0xE0 SHR DUP1 PUSH4 0xFD94E64 EQ PUSH2 0x51 JUMPI DUP1 PUSH4 0x17678BC3 EQ PUSH2 0x81 JUMPI DUP1 PUSH4 0x3477EE2E EQ PUSH2 0xB1 JUMPI DUP1 PUSH4 0xA48BDB7C EQ PUSH2 0xE3 JUMPI JUMPDEST PUSH1 0x0 DUP1 REVERT JUMPDEST PUSH2 0x6B PUSH1 0x4 DUP1 CALLDATASIZE SUB DUP2 ADD SWAP1 PUSH2 0x66 SWAP2 SWAP1 PUSH2 0x889 JUMP JUMPDEST PUSH2 0x101 JUMP JUMPDEST PUSH1 0x40 MLOAD PUSH2 0x78 SWAP2 SWAP1 PUSH2 0x9C5 JUMP JUMPDEST PUSH1 0x40 MLOAD DUP1 SWAP2 SUB SWAP1 RETURN JUMPDEST PUSH2 0x9B PUSH1 0x4 DUP1 CALLDATASIZE SUB DUP2 ADD SWAP1 PUSH2 0x96 SWAP2 SWAP1 PUSH2 0x811 JUMP JUMPDEST PUSH2 0x2B6 JUMP JUMPDEST PUSH1 0x40 MLOAD PUSH2 0xA8 SWAP2 SWAP1 PUSH2 0x9C5 JUMP JUMPDEST PUSH1 0x40 MLOAD DUP1 SWAP2 SUB SWAP1 RETURN JUMPDEST PUSH2 0xCB PUSH1 0x4 DUP1 CALLDATASIZE SUB DUP2 ADD SWAP1 PUSH2 0xC6 SWAP2 SWAP1 PUSH2 0x8E5 JUMP JUMPDEST PUSH2 0x3FB JUMP JUMPDEST PUSH1 0x40 MLOAD PUSH2 0xDA SWAP4 SWAP3 SWAP2 SWAP1 PUSH2 0x9E7 JUMP JUMPDEST PUSH1 0x40 MLOAD DUP1 SWAP2 SUB SWAP1 RETURN JUMPDEST PUSH2 0xEB PUSH2 0x535 JUMP JUMPDEST PUSH1 0x40 MLOAD PUSH2 0xF8 SWAP2 SWAP1 PUSH2 0x9C5 JUMP JUMPDEST PUSH1 0x40 MLOAD DUP1 SWAP2 SUB SWAP1 RETURN JUMPDEST PUSH1 0x60 PUSH1 0x2 PUSH1 0x0 SWAP1 SLOAD SWAP1 PUSH2 0x100 EXP SWAP1 DIV PUSH20 0xFFFFFFFFFFFFFFFFFFFFFFFFFFFFFFFFFFFFFFFF AND PUSH20 0xFFFFFFFFFFFFFFFFFFFFFFFFFFFFFFFFFFFFFFFF AND CALLER PUSH20 0xFFFFFFFFFFFFFFFFFFFFFFFFFFFFFFFFFFFFFFFF AND EQ PUSH2 0x193 JUMPI PUSH1 0x40 MLOAD PUSH32 0x8C379A000000000000000000000000000000000000000000000000000000000 DUP2 MSTORE PUSH1 0x4 ADD PUSH2 0x18A SWAP1 PUSH2 0xA2C JUMP JUMPDEST PUSH1 0x40 MLOAD DUP1 SWAP2 SUB SWAP1 REVERT JUMPDEST PUSH1 0x0 ISZERO ISZERO PUSH1 0x4 DUP5 PUSH1 0x40 MLOAD PUSH2 0x1A7 SWAP2 SWAP1 PUSH2 0x9AE JUMP JUMPDEST SWAP1 DUP2 MSTORE PUSH1 0x20 ADD PUSH1 0x40 MLOAD DUP1 SWAP2 SUB SWAP1 KECCAK256 PUSH1 0x1 ADD PUSH1 0x0 SWAP1 SLOAD SWAP1 PUSH2 0x100 EXP SWAP1 DIV PUSH1 0xFF AND ISZERO ISZERO EQ PUSH2 0x1D2 JUMPI PUSH1 0x0 DUP1 REVERT JUMPDEST PUSH1 0x0 DUP1 DUP2 SLOAD PUSH2 0x1E0 SWAP1 PUSH2 0xBCE JUMP JUMPDEST SWAP2 SWAP1 POP DUP2 SWAP1 SSTORE POP PUSH1 0x40 MLOAD DUP1 PUSH1 0x40 ADD PUSH1 0x40 MSTORE DUP1 DUP4 DUP2 MSTORE PUSH1 0x20 ADD PUSH1 0x1 ISZERO ISZERO DUP2 MSTORE POP PUSH1 0x4 DUP5 PUSH1 0x40 MLOAD PUSH2 0x20F SWAP2 SWAP1 PUSH2 0x9AE JUMP JUMPDEST SWAP1 DUP2 MSTORE PUSH1 0x20 ADD PUSH1 0x40 MLOAD DUP1 SWAP2 SUB SWAP1 KECCAK256 PUSH1 0x0 DUP3 ADD MLOAD DUP2 PUSH1 0x0 ADD SSTORE PUSH1 0x20 DUP3 ADD MLOAD DUP2 PUSH1 0x1 ADD PUSH1 0x0 PUSH2 0x100 EXP DUP2 SLOAD DUP2 PUSH1 0xFF MUL NOT AND SWAP1 DUP4 ISZERO ISZERO MUL OR SWAP1 SSTORE POP SWAP1 POP POP PUSH1 0x1 PUSH1 0x3 PUSH1 0x0 DUP5 DUP2 MSTORE PUSH1 0x20 ADD SWAP1 DUP2 MSTORE PUSH1 0x20 ADD PUSH1 0x0 KECCAK256 PUSH1 0x2 ADD PUSH1 0x0 DUP3 DUP3 SLOAD PUSH2 0x271 SWAP2 SWAP1 PUSH2 0xAC9 JUMP JUMPDEST SWAP3 POP POP DUP2 SWAP1 SSTORE POP PUSH1 0x40 MLOAD DUP1 PUSH1 0x40 ADD PUSH1 0x40 MSTORE DUP1 PUSH1 0x1B DUP2 MSTORE PUSH1 0x20 ADD PUSH32 0x596F752068617665207375636365737366756C6C7920766F7465640000000000 DUP2 MSTORE POP SWAP1 POP SWAP3 SWAP2 POP POP JUMP JUMPDEST PUSH1 0x60 PUSH1 0x2 PUSH1 0x0 SWAP1 SLOAD SWAP1 PUSH2 0x100 EXP SWAP1 DIV PUSH20 0xFFFFFFFFFFFFFFFFFFFFFFFFFFFFFFFFFFFFFFFF AND PUSH20 0xFFFFFFFFFFFFFFFFFFFFFFFFFFFFFFFFFFFFFFFF AND CALLER PUSH20 0xFFFFFFFFFFFFFFFFFFFFFFFFFFFFFFFFFFFFFFFF AND EQ PUSH2 0x348 JUMPI PUSH1 0x40 MLOAD PUSH32 0x8C379A000000000000000000000000000000000000000000000000000000000 DUP2 MSTORE PUSH1 0x4 ADD PUSH2 0x33F SWAP1 PUSH2 0xA2C JUMP JUMPDEST PUSH1 0x40 MLOAD DUP1 SWAP2 SUB SWAP1 REVERT JUMPDEST PUSH1 0x0 PUSH1 0x1 PUSH1 0x0 DUP2 SLOAD DUP1 SWAP3 SWAP2 SWAP1 PUSH2 0x35D SWAP1 PUSH2 0xBCE JUMP JUMPDEST SWAP2 SWAP1 POP SSTORE SWAP1 POP PUSH1 0x40 MLOAD DUP1 PUSH1 0x60 ADD PUSH1 0x40 MSTORE DUP1 DUP6 DUP2 MSTORE PUSH1 0x20 ADD DUP5 DUP2 MSTORE PUSH1 0x20 ADD PUSH1 0x0 DUP2 MSTORE POP PUSH1 0x3 PUSH1 0x0 DUP4 DUP2 MSTORE PUSH1 0x20 ADD SWAP1 DUP2 MSTORE PUSH1 0x20 ADD PUSH1 0x0 KECCAK256 PUSH1 0x0 DUP3 ADD MLOAD DUP2 PUSH1 0x0 ADD SWAP1 DUP1 MLOAD SWAP1 PUSH1 0x20 ADD SWAP1 PUSH2 0x3AE SWAP3 SWAP2 SWAP1 PUSH2 0x6E9 JUMP JUMPDEST POP PUSH1 0x20 DUP3 ADD MLOAD DUP2 PUSH1 0x1 ADD SWAP1 DUP1 MLOAD SWAP1 PUSH1 0x20 ADD SWAP1 PUSH2 0x3CB SWAP3 SWAP2 SWAP1 PUSH2 0x6E9 JUMP JUMPDEST POP PUSH1 0x40 DUP3 ADD MLOAD DUP2 PUSH1 0x2 ADD SSTORE SWAP1 POP POP PUSH1 0x40 MLOAD DUP1 PUSH1 0x80 ADD PUSH1 0x40 MSTORE DUP1 PUSH1 0x47 DUP2 MSTORE PUSH1 0x20 ADD PUSH2 0xD0A PUSH1 0x47 SWAP2 CODECOPY SWAP2 POP POP SWAP3 SWAP2 POP POP JUMP JUMPDEST PUSH1 0x3 PUSH1 0x20 MSTORE DUP1 PUSH1 0x0 MSTORE PUSH1 0x40 PUSH1 0x0 KECCAK256 PUSH1 0x0 SWAP2 POP SWAP1 POP DUP1 PUSH1 0x0 ADD DUP1 SLOAD PUSH2 0x41E SWAP1 PUSH2 0xB6B JUMP JUMPDEST DUP1 PUSH1 0x1F ADD PUSH1 0x20 DUP1 SWAP2 DIV MUL PUSH1 0x20 ADD PUSH1 0x40 MLOAD SWAP1 DUP2 ADD PUSH1 0x40 MSTORE DUP1 SWAP3 SWAP2 SWAP1 DUP2 DUP2 MSTORE PUSH1 0x20 ADD DUP3 DUP1 SLOAD PUSH2 0x44A SWAP1 PUSH2 0xB6B JUMP JUMPDEST DUP1 ISZERO PUSH2 0x497 JUMPI DUP1 PUSH1 0x1F LT PUSH2 0x46C JUMPI PUSH2 0x100 DUP1 DUP4 SLOAD DIV MUL DUP4 MSTORE SWAP2 PUSH1 0x20 ADD SWAP2 PUSH2 0x497 JUMP JUMPDEST DUP3 ADD SWAP2 SWAP1 PUSH1 0x0 MSTORE PUSH1 0x20 PUSH1 0x0 KECCAK256 SWAP1 JUMPDEST DUP2 SLOAD DUP2 MSTORE SWAP1 PUSH1 0x1 ADD SWAP1 PUSH1 0x20 ADD DUP1 DUP4 GT PUSH2 0x47A JUMPI DUP3 SWAP1 SUB PUSH1 0x1F AND DUP3 ADD SWAP2 JUMPDEST POP POP POP POP POP SWAP1 DUP1 PUSH1 0x1 ADD DUP1 SLOAD PUSH2 0x4AC SWAP1 PUSH2 0xB6B JUMP JUMPDEST DUP1 PUSH1 0x1F ADD PUSH1 0x20 DUP1 SWAP2 DIV MUL PUSH1 0x20 ADD PUSH1 0x40 MLOAD SWAP1 DUP2 ADD PUSH1 0x40 MSTORE DUP1 SWAP3 SWAP2 SWAP1 DUP2 DUP2 MSTORE PUSH1 0x20 ADD DUP3 DUP1 SLOAD PUSH2 0x4D8 SWAP1 PUSH2 0xB6B JUMP JUMPDEST DUP1 ISZERO PUSH2 0x525 JUMPI DUP1 PUSH1 0x1F LT PUSH2 0x4FA JUMPI PUSH2 0x100 DUP1 DUP4 SLOAD DIV MUL DUP4 MSTORE SWAP2 PUSH1 0x20 ADD SWAP2 PUSH2 0x525 JUMP JUMPDEST DUP3 ADD SWAP2 SWAP1 PUSH1 0x0 MSTORE PUSH1 0x20 PUSH1 0x0 KECCAK256 SWAP1 JUMPDEST DUP2 SLOAD DUP2 MSTORE SWAP1 PUSH1 0x1 ADD SWAP1 PUSH1 0x20 ADD DUP1 DUP4 GT PUSH2 0x508 JUMPI DUP3 SWAP1 SUB PUSH1 0x1F AND DUP3 ADD SWAP2 JUMPDEST POP POP POP POP POP SWAP1 DUP1 PUSH1 0x2 ADD SLOAD SWAP1 POP DUP4 JUMP JUMPDEST PUSH1 0x60 PUSH1 0x2 PUSH1 0x0 SWAP1 SLOAD SWAP1 PUSH2 0x100 EXP SWAP1 DIV PUSH20 0xFFFFFFFFFFFFFFFFFFFFFFFFFFFFFFFFFFFFFFFF AND PUSH20 0xFFFFFFFFFFFFFFFFFFFFFFFFFFFFFFFFFFFFFFFF AND CALLER PUSH20 0xFFFFFFFFFFFFFFFFFFFFFFFFFFFFFFFFFFFFFFFF AND EQ PUSH2 0x5C7 JUMPI PUSH1 0x40 MLOAD PUSH32 0x8C379A000000000000000000000000000000000000000000000000000000000 DUP2 MSTORE PUSH1 0x4 ADD PUSH2 0x5BE SWAP1 PUSH2 0xA2C JUMP JUMPDEST PUSH1 0x40 MLOAD DUP1 SWAP2 SUB SWAP1 REVERT JUMPDEST PUSH1 0x0 PUSH1 0x3 PUSH1 0x0 DUP1 DUP2 MSTORE PUSH1 0x20 ADD SWAP1 DUP2 MSTORE PUSH1 0x20 ADD PUSH1 0x0 KECCAK256 PUSH1 0x2 ADD SLOAD SWAP1 POP PUSH1 0x0 DUP1 PUSH1 0x0 SWAP1 POP JUMPDEST PUSH1 0x1 SLOAD DUP2 LT ISZERO PUSH2 0x642 JUMPI PUSH1 0x3 PUSH1 0x0 DUP3 DUP2 MSTORE PUSH1 0x20 ADD SWAP1 DUP2 MSTORE PUSH1 0x20 ADD PUSH1 0x0 KECCAK256 PUSH1 0x2 ADD SLOAD DUP4 LT ISZERO PUSH2 0x62F JUMPI PUSH1 0x3 PUSH1 0x0 DUP3 DUP2 MSTORE PUSH1 0x20 ADD SWAP1 DUP2 MSTORE PUSH1 0x20 ADD PUSH1 0x0 KECCAK256 PUSH1 0x2 ADD SLOAD SWAP3 POP DUP1 SWAP2 POP JUMPDEST DUP1 DUP1 PUSH2 0x63A SWAP1 PUSH2 0xBCE JUMP JUMPDEST SWAP2 POP POP PUSH2 0x5EA JUMP JUMPDEST POP PUSH1 0x3 PUSH1 0x0 DUP3 DUP2 MSTORE PUSH1 0x20 ADD SWAP1 DUP2 MSTORE PUSH1 0x20 ADD PUSH1 0x0 KECCAK256 PUSH1 0x0 ADD DUP1 SLOAD PUSH2 0x664 SWAP1 PUSH2 0xB6B JUMP JUMPDEST DUP1 PUSH1 0x1F ADD PUSH1 0x20 DUP1 SWAP2 DIV MUL PUSH1 0x20 ADD PUSH1 0x40 MLOAD SWAP1 DUP2 ADD PUSH1 0x40 MSTORE DUP1 SWAP3 SWAP2 SWAP1 DUP2 DUP2 MSTORE PUSH1 0x20 ADD DUP3 DUP1 SLOAD PUSH2 0x690 SWAP1 PUSH2 0xB6B JUMP JUMPDEST DUP1 ISZERO PUSH2 0x6DD JUMPI DUP1 PUSH1 0x1F LT PUSH2 0x6B2 JUMPI PUSH2 0x100 DUP1 DUP4 SLOAD DIV MUL DUP4 MSTORE SWAP2 PUSH1 0x20 ADD SWAP2 PUSH2 0x6DD JUMP JUMPDEST DUP3 ADD SWAP2 SWAP1 PUSH1 0x0 MSTORE PUSH1 0x20 PUSH1 0x0 KECCAK256 SWAP1 JUMPDEST DUP2 SLOAD DUP2 MSTORE SWAP1 PUSH1 0x1 ADD SWAP1 PUSH1 0x20 ADD DUP1 DUP4 GT PUSH2 0x6C0 JUMPI DUP3 SWAP1 SUB PUSH1 0x1F AND DUP3 ADD SWAP2 JUMPDEST POP POP POP POP POP SWAP3 POP POP POP SWAP1 JUMP JUMPDEST DUP3 DUP1 SLOAD PUSH2 0x6F5 SWAP1 PUSH2 0xB6B JUMP JUMPDEST SWAP1 PUSH1 0x0 MSTORE PUSH1 0x20 PUSH1 0x0 KECCAK256 SWAP1 PUSH1 0x1F ADD PUSH1 0x20 SWAP1 DIV DUP2 ADD SWAP3 DUP3 PUSH2 0x717 JUMPI PUSH1 0x0 DUP6 SSTORE PUSH2 0x75E JUMP JUMPDEST DUP3 PUSH1 0x1F LT PUSH2 0x730 JUMPI DUP1 MLOAD PUSH1 0xFF NOT AND DUP4 DUP1 ADD OR DUP6 SSTORE PUSH2 0x75E JUMP JUMPDEST DUP3 DUP1 ADD PUSH1 0x1 ADD DUP6 SSTORE DUP3 ISZERO PUSH2 0x75E JUMPI SWAP2 DUP3 ADD JUMPDEST DUP3 DUP2 GT ISZERO PUSH2 0x75D JUMPI DUP3 MLOAD DUP3 SSTORE SWAP2 PUSH1 0x20 ADD SWAP2 SWAP1 PUSH1 0x1 ADD SWAP1 PUSH2 0x742 JUMP JUMPDEST JUMPDEST POP SWAP1 POP PUSH2 0x76B SWAP2 SWAP1 PUSH2 0x76F JUMP JUMPDEST POP SWAP1 JUMP JUMPDEST JUMPDEST DUP1 DUP3 GT ISZERO PUSH2 0x788 JUMPI PUSH1 0x0 DUP2 PUSH1 0x0 SWAP1 SSTORE POP PUSH1 0x1 ADD PUSH2 0x770 JUMP JUMPDEST POP SWAP1 JUMP JUMPDEST PUSH1 0x0 PUSH2 0x79F PUSH2 0x79A DUP5 PUSH2 0xA71 JUMP JUMPDEST PUSH2 0xA4C JUMP JUMPDEST SWAP1 POP DUP3 DUP2 MSTORE PUSH1 0x20 DUP2 ADD DUP5 DUP5 DUP5 ADD GT ISZERO PUSH2 0x7BB JUMPI PUSH2 0x7BA PUSH2 0xCA9 JUMP JUMPDEST JUMPDEST PUSH2 0x7C6 DUP5 DUP3 DUP6 PUSH2 0xB29 JUMP JUMPDEST POP SWAP4 SWAP3 POP POP POP JUMP JUMPDEST PUSH1 0x0 DUP3 PUSH1 0x1F DUP4 ADD SLT PUSH2 0x7E3 JUMPI PUSH2 0x7E2 PUSH2 0xCA4 JUMP JUMPDEST JUMPDEST DUP2 CALLDATALOAD PUSH2 0x7F3 DUP5 DUP3 PUSH1 0x20 DUP7 ADD PUSH2 0x78C JUMP JUMPDEST SWAP2 POP POP SWAP3 SWAP2 POP POP JUMP JUMPDEST PUSH1 0x0 DUP2 CALLDATALOAD SWAP1 POP PUSH2 0x80B DUP2 PUSH2 0xCF2 JUMP JUMPDEST SWAP3 SWAP2 POP POP JUMP JUMPDEST PUSH1 0x0 DUP1 PUSH1 0x40 DUP4 DUP6 SUB SLT ISZERO PUSH2 0x828 JUMPI PUSH2 0x827 PUSH2 0xCB3 JUMP JUMPDEST JUMPDEST PUSH1 0x0 DUP4 ADD CALLDATALOAD PUSH8 0xFFFFFFFFFFFFFFFF DUP2 GT ISZERO PUSH2 0x846 JUMPI PUSH2 0x845 PUSH2 0xCAE JUMP JUMPDEST JUMPDEST PUSH2 0x852 DUP6 DUP3 DUP7 ADD PUSH2 0x7CE JUMP JUMPDEST SWAP3 POP POP PUSH1 0x20 DUP4 ADD CALLDATALOAD PUSH8 0xFFFFFFFFFFFFFFFF DUP2 GT ISZERO PUSH2 0x873 JUMPI PUSH2 0x872 PUSH2 0xCAE JUMP JUMPDEST JUMPDEST PUSH2 0x87F DUP6 DUP3 DUP7 ADD PUSH2 0x7CE JUMP JUMPDEST SWAP2 POP POP SWAP3 POP SWAP3 SWAP1 POP JUMP JUMPDEST PUSH1 0x0 DUP1 PUSH1 0x40 DUP4 DUP6 SUB SLT ISZERO PUSH2 0x8A0 JUMPI PUSH2 0x89F PUSH2 0xCB3 JUMP JUMPDEST JUMPDEST PUSH1 0x0 DUP4 ADD CALLDATALOAD PUSH8 0xFFFFFFFFFFFFFFFF DUP2 GT ISZERO PUSH2 0x8BE JUMPI PUSH2 0x8BD PUSH2 0xCAE JUMP JUMPDEST JUMPDEST PUSH2 0x8CA DUP6 DUP3 DUP7 ADD PUSH2 0x7CE JUMP JUMPDEST SWAP3 POP POP PUSH1 0x20 PUSH2 0x8DB DUP6 DUP3 DUP7 ADD PUSH2 0x7FC JUMP JUMPDEST SWAP2 POP POP SWAP3 POP SWAP3 SWAP1 POP JUMP JUMPDEST PUSH1 0x0 PUSH1 0x20 DUP3 DUP5 SUB SLT ISZERO PUSH2 0x8FB JUMPI PUSH2 0x8FA PUSH2 0xCB3 JUMP JUMPDEST JUMPDEST PUSH1 0x0 PUSH2 0x909 DUP5 DUP3 DUP6 ADD PUSH2 0x7FC JUMP JUMPDEST SWAP2 POP POP SWAP3 SWAP2 POP POP JUMP JUMPDEST PUSH1 0x0 PUSH2 0x91D DUP3 PUSH2 0xAA2 JUMP JUMPDEST PUSH2 0x927 DUP2 DUP6 PUSH2 0xAAD JUMP JUMPDEST SWAP4 POP PUSH2 0x937 DUP2 DUP6 PUSH1 0x20 DUP7 ADD PUSH2 0xB38 JUMP JUMPDEST PUSH2 0x940 DUP2 PUSH2 0xCB8 JUMP JUMPDEST DUP5 ADD SWAP2 POP POP SWAP3 SWAP2 POP POP JUMP JUMPDEST PUSH1 0x0 PUSH2 0x956 DUP3 PUSH2 0xAA2 JUMP JUMPDEST PUSH2 0x960 DUP2 DUP6 PUSH2 0xABE JUMP JUMPDEST SWAP4 POP PUSH2 0x970 DUP2 DUP6 PUSH1 0x20 DUP7 ADD PUSH2 0xB38 JUMP JUMPDEST DUP1 DUP5 ADD SWAP2 POP POP SWAP3 SWAP2 POP POP JUMP JUMPDEST PUSH1 0x0 PUSH2 0x989 PUSH1 0x10 DUP4 PUSH2 0xAAD JUMP JUMPDEST SWAP2 POP PUSH2 0x994 DUP3 PUSH2 0xCC9 JUMP JUMPDEST PUSH1 0x20 DUP3 ADD SWAP1 POP SWAP2 SWAP1 POP JUMP JUMPDEST PUSH2 0x9A8 DUP2 PUSH2 0xB1F JUMP JUMPDEST DUP3 MSTORE POP POP JUMP JUMPDEST PUSH1 0x0 PUSH2 0x9BA DUP3 DUP5 PUSH2 0x94B JUMP JUMPDEST SWAP2 POP DUP2 SWAP1 POP SWAP3 SWAP2 POP POP JUMP JUMPDEST PUSH1 0x0 PUSH1 0x20 DUP3 ADD SWAP1 POP DUP2 DUP2 SUB PUSH1 0x0 DUP4 ADD MSTORE PUSH2 0x9DF DUP2 DUP5 PUSH2 0x912 JUMP JUMPDEST SWAP1 POP SWAP3 SWAP2 POP POP JUMP JUMPDEST PUSH1 0x0 PUSH1 0x60 DUP3 ADD SWAP1 POP DUP2 DUP2 SUB PUSH1 0x0 DUP4 ADD MSTORE PUSH2 0xA01 DUP2 DUP7 PUSH2 0x912 JUMP JUMPDEST SWAP1 POP DUP2 DUP2 SUB PUSH1 0x20 DUP4 ADD MSTORE PUSH2 0xA15 DUP2 DUP6 PUSH2 0x912 JUMP JUMPDEST SWAP1 POP PUSH2 0xA24 PUSH1 0x40 DUP4 ADD DUP5 PUSH2 0x99F JUMP JUMPDEST SWAP5 SWAP4 POP POP POP POP JUMP JUMPDEST PUSH1 0x0 PUSH1 0x20 DUP3 ADD SWAP1 POP DUP2 DUP2 SUB PUSH1 0x0 DUP4 ADD MSTORE PUSH2 0xA45 DUP2 PUSH2 0x97C JUMP JUMPDEST SWAP1 POP SWAP2 SWAP1 POP JUMP JUMPDEST PUSH1 0x0 PUSH2 0xA56 PUSH2 0xA67 JUMP JUMPDEST SWAP1 POP PUSH2 0xA62 DUP3 DUP3 PUSH2 0xB9D JUMP JUMPDEST SWAP2 SWAP1 POP JUMP JUMPDEST PUSH1 0x0 PUSH1 0x40 MLOAD SWAP1 POP SWAP1 JUMP JUMPDEST PUSH1 0x0 PUSH8 0xFFFFFFFFFFFFFFFF DUP3 GT ISZERO PUSH2 0xA8C JUMPI PUSH2 0xA8B PUSH2 0xC75 JUMP JUMPDEST JUMPDEST PUSH2 0xA95 DUP3 PUSH2 0xCB8 JUMP JUMPDEST SWAP1 POP PUSH1 0x20 DUP2 ADD SWAP1 POP SWAP2 SWAP1 POP JUMP JUMPDEST PUSH1 0x0 DUP2 MLOAD SWAP1 POP SWAP2 SWAP1 POP JUMP JUMPDEST PUSH1 0x0 DUP3 DUP3 MSTORE PUSH1 0x20 DUP3 ADD SWAP1 POP SWAP3 SWAP2 POP POP JUMP JUMPDEST PUSH1 0x0 DUP2 SWAP1 POP SWAP3 SWAP2 POP POP JUMP JUMPDEST PUSH1 0x0 PUSH2 0xAD4 DUP3 PUSH2 0xB1F JUMP JUMPDEST SWAP2 POP PUSH2 0xADF DUP4 PUSH2 0xB1F JUMP JUMPDEST SWAP3 POP DUP3 PUSH32 0xFFFFFFFFFFFFFFFFFFFFFFFFFFFFFFFFFFFFFFFFFFFFFFFFFFFFFFFFFFFFFFFF SUB DUP3 GT ISZERO PUSH2 0xB14 JUMPI PUSH2 0xB13 PUSH2 0xC17 JUMP JUMPDEST JUMPDEST DUP3 DUP3 ADD SWAP1 POP SWAP3 SWAP2 POP POP JUMP JUMPDEST PUSH1 0x0 DUP2 SWAP1 POP SWAP2 SWAP1 POP JUMP JUMPDEST DUP3 DUP2 DUP4 CALLDATACOPY PUSH1 0x0 DUP4 DUP4 ADD MSTORE POP POP POP JUMP JUMPDEST PUSH1 0x0 JUMPDEST DUP4 DUP2 LT ISZERO PUSH2 0xB56 JUMPI DUP1 DUP3 ADD MLOAD DUP2 DUP5 ADD MSTORE PUSH1 0x20 DUP2 ADD SWAP1 POP PUSH2 0xB3B JUMP JUMPDEST DUP4 DUP2 GT ISZERO PUSH2 0xB65 JUMPI PUSH1 0x0 DUP5 DUP5 ADD MSTORE JUMPDEST POP POP POP POP JUMP JUMPDEST PUSH1 0x0 PUSH1 0x2 DUP3 DIV SWAP1 POP PUSH1 0x1 DUP3 AND DUP1 PUSH2 0xB83 JUMPI PUSH1 0x7F DUP3 AND SWAP2 POP JUMPDEST PUSH1 0x20 DUP3 LT DUP2 EQ ISZERO PUSH2 0xB97 JUMPI PUSH2 0xB96 PUSH2 0xC46 JUMP JUMPDEST JUMPDEST POP SWAP2 SWAP1 POP JUMP JUMPDEST PUSH2 0xBA6 DUP3 PUSH2 0xCB8 JUMP JUMPDEST DUP2 ADD DUP2 DUP2 LT PUSH8 0xFFFFFFFFFFFFFFFF DUP3 GT OR ISZERO PUSH2 0xBC5 JUMPI PUSH2 0xBC4 PUSH2 0xC75 JUMP JUMPDEST JUMPDEST DUP1 PUSH1 0x40 MSTORE POP POP POP JUMP JUMPDEST PUSH1 0x0 PUSH2 0xBD9 DUP3 PUSH2 0xB1F JUMP JUMPDEST SWAP2 POP PUSH32 0xFFFFFFFFFFFFFFFFFFFFFFFFFFFFFFFFFFFFFFFFFFFFFFFFFFFFFFFFFFFFFFFF DUP3 EQ ISZERO PUSH2 0xC0C JUMPI PUSH2 0xC0B PUSH2 0xC17 JUMP JUMPDEST JUMPDEST PUSH1 0x1 DUP3 ADD SWAP1 POP SWAP2 SWAP1 POP JUMP JUMPDEST PUSH32 0x4E487B7100000000000000000000000000000000000000000000000000000000 PUSH1 0x0 MSTORE PUSH1 0x11 PUSH1 0x4 MSTORE PUSH1 0x24 PUSH1 0x0 REVERT JUMPDEST PUSH32 0x4E487B7100000000000000000000000000000000000000000000000000000000 PUSH1 0x0 MSTORE PUSH1 0x22 PUSH1 0x4 MSTORE PUSH1 0x24 PUSH1 0x0 REVERT JUMPDEST PUSH32 0x4E487B7100000000000000000000000000000000000000000000000000000000 PUSH1 0x0 MSTORE PUSH1 0x41 PUSH1 0x4 MSTORE PUSH1 0x24 PUSH1 0x0 REVERT JUMPDEST PUSH1 0x0 DUP1 REVERT JUMPDEST PUSH1 0x0 DUP1 REVERT JUMPDEST PUSH1 0x0 DUP1 REVERT JUMPDEST PUSH1 0x0 DUP1 REVERT JUMPDEST PUSH1 0x0 PUSH1 0x1F NOT PUSH1 0x1F DUP4 ADD AND SWAP1 POP SWAP2 SWAP1 POP JUMP JUMPDEST PUSH32 0x4163636573732069732044656E69656400000000000000000000000000000000 PUSH1 0x0 DUP3 ADD MSTORE POP JUMP JUMPDEST PUSH2 0xCFB DUP2 PUSH2 0xB1F JUMP JUMPDEST DUP2 EQ PUSH2 0xD06 JUMPI PUSH1 0x0 DUP1 REVERT JUMPDEST POP JUMP INVALID MSIZE PUSH16 0x752077696C6C20626520616464656420 PUSH21 0x6F2063616E646964617465206C697374206F6E6365 KECCAK256 PUSH26 0x6F75206172652076616C69646174656420627920746865206164 PUSH14 0x696EA2646970667358221220B8D6 0xC0 0xAF 0x4D 0xF8 PUSH26 0x6971B6F7F78C9F57B4EEBD6B3D4819BAE617BF0008A233190664 PUSH20 0x6F6C634300080700330000000000000000000000 "
				},
				"gasEstimates": {
					"creation": {
						"codeDepositCost": "692400",
						"executionCost": "24994",
						"totalCost": "717394"
					},
					"external": {
						"candidateEnrollment(string,string)": "infinite",
						"candidates(uint256)": "infinite",
						"results()": "infinite",
						"voterEnrollment(string,uint256)": "infinite"
					}
				},
				"methodIdentifiers": {
					"candidateEnrollment(string,string)": "17678bc3",
					"candidates(uint256)": "3477ee2e",
					"results()": "a48bdb7c",
					"voterEnrollment(string,uint256)": "0fd94e64"
				}
			},
			"storageLayout": {
				"storage": [
					{
						"astId": 3,
						"contract": "voting.sol:Voting",
						"label": "noOfVoters",
						"offset": 0,
						"slot": "0",
						"type": "t_uint256"
					},
					{
						"astId": 5,
						"contract": "voting.sol:Voting",
						"label": "noOfCandidates",
						"offset": 0,
						"slot": "1",
						"type": "t_uint256"
					},
					{
						"astId": 7,
						"contract": "voting.sol:Voting",
						"label": "admin",
						"offset": 0,
						"slot": "2",
						"type": "t_address"
					},
					{
						"astId": 12,
						"contract": "voting.sol:Voting",
						"label": "candidates",
						"offset": 0,
						"slot": "3",
						"type": "t_mapping(t_uint256,t_struct(Candidate)24_storage)"
					},
					{
						"astId": 17,
						"contract": "voting.sol:Voting",
						"label": "voters",
						"offset": 0,
						"slot": "4",
						"type": "t_mapping(t_string_memory_ptr,t_struct(Voter)29_storage)"
					}
				],
				"types": {
					"t_address": {
						"encoding": "inplace",
						"label": "address",
						"numberOfBytes": "20"
					},
					"t_bool": {
						"encoding": "inplace",
						"label": "bool",
						"numberOfBytes": "1"
					},
					"t_mapping(t_string_memory_ptr,t_struct(Voter)29_storage)": {
						"encoding": "mapping",
						"key": "t_string_memory_ptr",
						"label": "mapping(string => struct Voting.Voter)",
						"numberOfBytes": "32",
						"value": "t_struct(Voter)29_storage"
					},
					"t_mapping(t_uint256,t_struct(Candidate)24_storage)": {
						"encoding": "mapping",
						"key": "t_uint256",
						"label": "mapping(uint256 => struct Voting.Candidate)",
						"numberOfBytes": "32",
						"value": "t_struct(Candidate)24_storage"
					},
					"t_string_memory_ptr": {
						"encoding": "bytes",
						"label": "string",
						"numberOfBytes": "32"
					},
					"t_string_storage": {
						"encoding": "bytes",
						"label": "string",
						"numberOfBytes": "32"
					},
					"t_struct(Candidate)24_storage": {
						"encoding": "inplace",
						"label": "struct Voting.Candidate",
						"members": [
							{
								"astId": 19,
								"contract": "voting.sol:Voting",
								"label": "candidate_name",
								"offset": 0,
								"slot": "0",
								"type": "t_string_storage"
							},
							{
								"astId": 21,
								"contract": "voting.sol:Voting",
								"label": "candidate_description",
								"offset": 0,
								"slot": "1",
								"type": "t_string_storage"
							},
							{
								"astId": 23,
								"contract": "voting.sol:Voting",
								"label": "noOfVotes",
								"offset": 0,
								"slot": "2",
								"type": "t_uint256"
							}
						],
						"numberOfBytes": "96"
					},
					"t_struct(Voter)29_storage": {
						"encoding": "inplace",
						"label": "struct Voting.Voter",
						"members": [
							{
								"astId": 26,
								"contract": "voting.sol:Voting",
								"label": "candidate_id",
								"offset": 0,
								"slot": "0",
								"type": "t_uint256"
							},
							{
								"astId": 28,
								"contract": "voting.sol:Voting",
								"label": "hasVoted",
								"offset": 0,
								"slot": "1",
								"type": "t_bool"
							}
						],
						"numberOfBytes": "64"
					},
					"t_uint256": {
						"encoding": "inplace",
						"label": "uint256",
						"numberOfBytes": "32"
					}
				}
			},
			"userdoc": {
				"kind": "user",
				"methods": {},
				"version": 1
			}
		}
	}
}