{
	"voting.sol": {
		"Voting": {
			"abi": [
				{
					"inputs": [],
					"stateMutability": "nonpayable",
					"type": "constructor"
				},
				{
					"inputs": [
						{
							"internalType": "string",
							"name": "name",
							"type": "string"
						},
						{
							"internalType": "string",
							"name": "description",
							"type": "string"
						}
					],
					"name": "candidateEnrollment",
					"outputs": [
						{
							"internalType": "string",
							"name": "",
							"type": "string"
						}
					],
					"stateMutability": "nonpayable",
					"type": "function"
				},
				{
					"inputs": [
						{
							"internalType": "string",
							"name": "name",
							"type": "string"
						}
					],
					"name": "candidateIDGenerator",
					"outputs": [],
					"stateMutability": "nonpayable",
					"type": "function"
				},
				{
					"inputs": [
						{
							"internalType": "uint256",
							"name": "",
							"type": "uint256"
						}
					],
					"name": "candidates",
					"outputs": [
						{
							"internalType": "string",
							"name": "candidate_name",
							"type": "string"
						},
						{
							"internalType": "string",
							"name": "candidate_description",
							"type": "string"
						},
						{
							"internalType": "uint256",
							"name": "noOfVotes",
							"type": "uint256"
						}
					],
					"stateMutability": "view",
					"type": "function"
				},
				{
					"inputs": [],
					"name": "results",
					"outputs": [
						{
							"internalType": "string",
							"name": "",
							"type": "string"
						}
					],
					"stateMutability": "view",
					"type": "function"
				},
				{
					"inputs": [
						{
							"internalType": "string",
							"name": "name",
							"type": "string"
						},
						{
							"internalType": "uint256",
							"name": "candidateID",
							"type": "uint256"
						}
					],
					"name": "voterEnrollment",
					"outputs": [
						{
							"internalType": "string",
							"name": "",
							"type": "string"
						}
					],
					"stateMutability": "nonpayable",
					"type": "function"
				}
			],
			"devdoc": {
				"kind": "dev",
				"methods": {},
				"version": 1
			},
			"evm": {
				"assembly": "    /* \"voting.sol\":59:2022  contract Voting{\r... */\n  mstore(0x40, 0x80)\n    /* \"voting.sol\":444:494  constructor(){\r... */\n  callvalue\n  dup1\n  iszero\n  tag_1\n  jumpi\n  0x00\n  dup1\n  revert\ntag_1:\n  pop\n    /* \"voting.sol\":476:486  msg.sender */\n  caller\n    /* \"voting.sol\":468:473  admin */\n  0x02\n  0x00\n    /* \"voting.sol\":468:486  admin = msg.sender */\n  0x0100\n  exp\n  dup2\n  sload\n  dup2\n  0xffffffffffffffffffffffffffffffffffffffff\n  mul\n  not\n  and\n  swap1\n  dup4\n  0xffffffffffffffffffffffffffffffffffffffff\n  and\n  mul\n  or\n  swap1\n  sstore\n  pop\n    /* \"voting.sol\":59:2022  contract Voting{\r... */\n  dataSize(sub_0)\n  dup1\n  dataOffset(sub_0)\n  0x00\n  codecopy\n  0x00\n  return\nstop\n\nsub_0: assembly {\n        /* \"voting.sol\":59:2022  contract Voting{\r... */\n      mstore(0x40, 0x80)\n      callvalue\n      dup1\n      iszero\n      tag_1\n      jumpi\n      0x00\n      dup1\n      revert\n    tag_1:\n      pop\n      jumpi(tag_2, lt(calldatasize, 0x04))\n      shr(0xe0, calldataload(0x00))\n      dup1\n      0x0fd94e64\n      eq\n      tag_3\n      jumpi\n      dup1\n      0x17678bc3\n      eq\n      tag_4\n      jumpi\n      dup1\n      0x3477ee2e\n      eq\n      tag_5\n      jumpi\n      dup1\n      0xa48bdb7c\n      eq\n      tag_6\n      jumpi\n      dup1\n      0xe96e5dc8\n      eq\n      tag_7\n      jumpi\n    tag_2:\n      0x00\n      dup1\n      revert\n        /* \"voting.sol\":935:1262  function voterEnrollment(string memory name,uint candidateID) public onlyAdmin returns(string memory){\r... */\n    tag_3:\n      tag_8\n      0x04\n      dup1\n      calldatasize\n      sub\n      dup2\n      add\n      swap1\n      tag_9\n      swap2\n      swap1\n      tag_10\n      jump\t// in\n    tag_9:\n      tag_11\n      jump\t// in\n    tag_8:\n      mload(0x40)\n      tag_12\n      swap2\n      swap1\n      tag_13\n      jump\t// in\n    tag_12:\n      mload(0x40)\n      dup1\n      swap2\n      sub\n      swap1\n      return\n        /* \"voting.sol\":604:929  function candidateEnrollment(string memory name,string memory description) public onlyAdmin returns(string memory){\r... */\n    tag_4:\n      tag_14\n      0x04\n      dup1\n      calldatasize\n      sub\n      dup2\n      add\n      swap1\n      tag_15\n      swap2\n      swap1\n      tag_16\n      jump\t// in\n    tag_15:\n      tag_17\n      jump\t// in\n    tag_14:\n      mload(0x40)\n      tag_18\n      swap2\n      swap1\n      tag_13\n      jump\t// in\n    tag_18:\n      mload(0x40)\n      dup1\n      swap2\n      sub\n      swap1\n      return\n        /* \"voting.sol\":149:194  mapping (uint => Candidate) public candidates */\n    tag_5:\n      tag_19\n      0x04\n      dup1\n      calldatasize\n      sub\n      dup2\n      add\n      swap1\n      tag_20\n      swap2\n      swap1\n      tag_21\n      jump\t// in\n    tag_20:\n      tag_22\n      jump\t// in\n    tag_19:\n      mload(0x40)\n      tag_23\n      swap4\n      swap3\n      swap2\n      swap1\n      tag_24\n      jump\t// in\n    tag_23:\n      mload(0x40)\n      dup1\n      swap2\n      sub\n      swap1\n      return\n        /* \"voting.sol\":1595:2019  function results() public onlyAdmin view returns (string memory){\r... */\n    tag_6:\n      tag_25\n      tag_26\n      jump\t// in\n    tag_25:\n      mload(0x40)\n      tag_27\n      swap2\n      swap1\n      tag_13\n      jump\t// in\n    tag_27:\n      mload(0x40)\n      dup1\n      swap2\n      sub\n      swap1\n      return\n        /* \"voting.sol\":1268:1589  function candidateIDGenerator(string memory name) public{\r... */\n    tag_7:\n      tag_28\n      0x04\n      dup1\n      calldatasize\n      sub\n      dup2\n      add\n      swap1\n      tag_29\n      swap2\n      swap1\n      tag_30\n      jump\t// in\n    tag_29:\n      tag_31\n      jump\t// in\n    tag_28:\n      stop\n        /* \"voting.sol\":935:1262  function voterEnrollment(string memory name,uint candidateID) public onlyAdmin returns(string memory){\r... */\n    tag_11:\n        /* \"voting.sol\":1022:1035  string memory */\n      0x60\n        /* \"voting.sol\":553:558  admin */\n      0x02\n      0x00\n      swap1\n      sload\n      swap1\n      0x0100\n      exp\n      swap1\n      div\n      0xffffffffffffffffffffffffffffffffffffffff\n      and\n        /* \"voting.sol\":539:558  msg.sender == admin */\n      0xffffffffffffffffffffffffffffffffffffffff\n      and\n        /* \"voting.sol\":539:549  msg.sender */\n      caller\n        /* \"voting.sol\":539:558  msg.sender == admin */\n      0xffffffffffffffffffffffffffffffffffffffff\n      and\n      eq\n        /* \"voting.sol\":531:578  require(msg.sender == admin,\"Access is Denied\") */\n      tag_33\n      jumpi\n      mload(0x40)\n      0x08c379a000000000000000000000000000000000000000000000000000000000\n      dup2\n      mstore\n      0x04\n      add\n      tag_34\n      swap1\n      tag_35\n      jump\t// in\n    tag_34:\n      mload(0x40)\n      dup1\n      swap2\n      sub\n      swap1\n      revert\n    tag_33:\n        /* \"voting.sol\":1080:1085  false */\n      0x00\n        /* \"voting.sol\":1055:1085  voters[name].hasVoted == false */\n      iszero\n      iszero\n        /* \"voting.sol\":1055:1061  voters */\n      0x04\n        /* \"voting.sol\":1062:1066  name */\n      dup5\n        /* \"voting.sol\":1055:1067  voters[name] */\n      mload(0x40)\n      tag_37\n      swap2\n      swap1\n      tag_38\n      jump\t// in\n    tag_37:\n      swap1\n      dup2\n      mstore\n      0x20\n      add\n      mload(0x40)\n      dup1\n      swap2\n      sub\n      swap1\n      keccak256\n        /* \"voting.sol\":1055:1076  voters[name].hasVoted */\n      0x01\n      add\n      0x00\n      swap1\n      sload\n      swap1\n      0x0100\n      exp\n      swap1\n      div\n      0xff\n      and\n        /* \"voting.sol\":1055:1085  voters[name].hasVoted == false */\n      iszero\n      iszero\n      eq\n        /* \"voting.sol\":1047:1086  require(voters[name].hasVoted == false) */\n      tag_39\n      jumpi\n      0x00\n      dup1\n      revert\n    tag_39:\n        /* \"voting.sol\":1099:1109  noOfVoters */\n      0x00\n      dup1\n        /* \"voting.sol\":1097:1109  ++noOfVoters */\n      dup2\n      sload\n      tag_40\n      swap1\n      tag_41\n      jump\t// in\n    tag_40:\n      swap2\n      swap1\n      pop\n      dup2\n      swap1\n      sstore\n      pop\n        /* \"voting.sol\":1135:1158  Voter(candidateID,true) */\n      mload(0x40)\n      dup1\n      0x40\n      add\n      0x40\n      mstore\n      dup1\n        /* \"voting.sol\":1141:1152  candidateID */\n      dup4\n        /* \"voting.sol\":1135:1158  Voter(candidateID,true) */\n      dup2\n      mstore\n      0x20\n      add\n        /* \"voting.sol\":1153:1157  true */\n      0x01\n        /* \"voting.sol\":1135:1158  Voter(candidateID,true) */\n      iszero\n      iszero\n      dup2\n      mstore\n      pop\n        /* \"voting.sol\":1120:1126  voters */\n      0x04\n        /* \"voting.sol\":1127:1131  name */\n      dup5\n        /* \"voting.sol\":1120:1132  voters[name] */\n      mload(0x40)\n      tag_42\n      swap2\n      swap1\n      tag_38\n      jump\t// in\n    tag_42:\n      swap1\n      dup2\n      mstore\n      0x20\n      add\n      mload(0x40)\n      dup1\n      swap2\n      sub\n      swap1\n      keccak256\n        /* \"voting.sol\":1120:1158  voters[name] = Voter(candidateID,true) */\n      0x00\n      dup3\n      add\n      mload\n      dup2\n      0x00\n      add\n      sstore\n      0x20\n      dup3\n      add\n      mload\n      dup2\n      0x01\n      add\n      exp(0x0100, 0x00)\n      dup2\n      sload\n      dup2\n      0xff\n      mul\n      not\n      and\n      swap1\n      dup4\n      iszero\n      iszero\n      mul\n      or\n      swap1\n      sstore\n      pop\n      swap1\n      pop\n      pop\n        /* \"voting.sol\":1206:1207  1 */\n      0x01\n        /* \"voting.sol\":1169:1179  candidates */\n      0x03\n        /* \"voting.sol\":1169:1192  candidates[candidateID] */\n      0x00\n        /* \"voting.sol\":1180:1191  candidateID */\n      dup5\n        /* \"voting.sol\":1169:1192  candidates[candidateID] */\n      dup2\n      mstore\n      0x20\n      add\n      swap1\n      dup2\n      mstore\n      0x20\n      add\n      0x00\n      keccak256\n        /* \"voting.sol\":1169:1202  candidates[candidateID].noOfVotes */\n      0x02\n      add\n      0x00\n        /* \"voting.sol\":1169:1207  candidates[candidateID].noOfVotes += 1 */\n      dup3\n      dup3\n      sload\n      tag_43\n      swap2\n      swap1\n      tag_44\n      jump\t// in\n    tag_43:\n      swap3\n      pop\n      pop\n      dup2\n      swap1\n      sstore\n      pop\n        /* \"voting.sol\":1218:1254  return \"You have successfully voted\" */\n      mload(0x40)\n      dup1\n      0x40\n      add\n      0x40\n      mstore\n      dup1\n      0x1b\n      dup2\n      mstore\n      0x20\n      add\n      0x596f752068617665207375636365737366756c6c7920766f7465640000000000\n      dup2\n      mstore\n      pop\n      swap1\n      pop\n        /* \"voting.sol\":935:1262  function voterEnrollment(string memory name,uint candidateID) public onlyAdmin returns(string memory){\r... */\n      swap3\n      swap2\n      pop\n      pop\n      jump\t// out\n        /* \"voting.sol\":604:929  function candidateEnrollment(string memory name,string memory description) public onlyAdmin returns(string memory){\r... */\n    tag_17:\n        /* \"voting.sol\":704:717  string memory */\n      0x60\n        /* \"voting.sol\":553:558  admin */\n      0x02\n      0x00\n      swap1\n      sload\n      swap1\n      0x0100\n      exp\n      swap1\n      div\n      0xffffffffffffffffffffffffffffffffffffffff\n      and\n        /* \"voting.sol\":539:558  msg.sender == admin */\n      0xffffffffffffffffffffffffffffffffffffffff\n      and\n        /* \"voting.sol\":539:549  msg.sender */\n      caller\n        /* \"voting.sol\":539:558  msg.sender == admin */\n      0xffffffffffffffffffffffffffffffffffffffff\n      and\n      eq\n        /* \"voting.sol\":531:578  require(msg.sender == admin,\"Access is Denied\") */\n      tag_46\n      jumpi\n      mload(0x40)\n      0x08c379a000000000000000000000000000000000000000000000000000000000\n      dup2\n      mstore\n      0x04\n      add\n      tag_47\n      swap1\n      tag_35\n      jump\t// in\n    tag_47:\n      mload(0x40)\n      dup1\n      swap2\n      sub\n      swap1\n      revert\n    tag_46:\n        /* \"voting.sol\":729:745  uint candidateID */\n      0x00\n        /* \"voting.sol\":748:762  noOfCandidates */\n      0x01\n      0x00\n        /* \"voting.sol\":748:764  noOfCandidates++ */\n      dup2\n      sload\n      dup1\n      swap3\n      swap2\n      swap1\n      tag_49\n      swap1\n      tag_41\n      jump\t// in\n    tag_49:\n      swap2\n      swap1\n      pop\n      sstore\n        /* \"voting.sol\":729:764  uint candidateID = noOfCandidates++ */\n      swap1\n      pop\n        /* \"voting.sol\":801:830  Candidate(name,description,0) */\n      mload(0x40)\n      dup1\n      0x60\n      add\n      0x40\n      mstore\n      dup1\n        /* \"voting.sol\":811:815  name */\n      dup6\n        /* \"voting.sol\":801:830  Candidate(name,description,0) */\n      dup2\n      mstore\n      0x20\n      add\n        /* \"voting.sol\":816:827  description */\n      dup5\n        /* \"voting.sol\":801:830  Candidate(name,description,0) */\n      dup2\n      mstore\n      0x20\n      add\n        /* \"voting.sol\":828:829  0 */\n      0x00\n        /* \"voting.sol\":801:830  Candidate(name,description,0) */\n      dup2\n      mstore\n      pop\n        /* \"voting.sol\":775:785  candidates */\n      0x03\n        /* \"voting.sol\":775:798  candidates[candidateID] */\n      0x00\n        /* \"voting.sol\":786:797  candidateID */\n      dup4\n        /* \"voting.sol\":775:798  candidates[candidateID] */\n      dup2\n      mstore\n      0x20\n      add\n      swap1\n      dup2\n      mstore\n      0x20\n      add\n      0x00\n      keccak256\n        /* \"voting.sol\":775:830  candidates[candidateID] = Candidate(name,description,0) */\n      0x00\n      dup3\n      add\n      mload\n      dup2\n      0x00\n      add\n      swap1\n      dup1\n      mload\n      swap1\n      0x20\n      add\n      swap1\n      tag_50\n      swap3\n      swap2\n      swap1\n      tag_51\n      jump\t// in\n    tag_50:\n      pop\n      0x20\n      dup3\n      add\n      mload\n      dup2\n      0x01\n      add\n      swap1\n      dup1\n      mload\n      swap1\n      0x20\n      add\n      swap1\n      tag_52\n      swap3\n      swap2\n      swap1\n      tag_51\n      jump\t// in\n    tag_52:\n      pop\n      0x40\n      dup3\n      add\n      mload\n      dup2\n      0x02\n      add\n      sstore\n      swap1\n      pop\n      pop\n        /* \"voting.sol\":841:921  return \"You will be added to candidate list once you are validated by the admin\" */\n      mload(0x40)\n      dup1\n      0x80\n      add\n      0x40\n      mstore\n      dup1\n      0x47\n      dup2\n      mstore\n      0x20\n      add\n      data_346ae9e229890c1b5467b3280ac50efb3a563831aa4e9bb9392fe53f7d7de7e2\n      0x47\n      swap2\n      codecopy\n      swap2\n      pop\n      pop\n        /* \"voting.sol\":604:929  function candidateEnrollment(string memory name,string memory description) public onlyAdmin returns(string memory){\r... */\n      swap3\n      swap2\n      pop\n      pop\n      jump\t// out\n        /* \"voting.sol\":149:194  mapping (uint => Candidate) public candidates */\n    tag_22:\n      mstore(0x20, 0x03)\n      dup1\n      0x00\n      mstore\n      keccak256(0x00, 0x40)\n      0x00\n      swap2\n      pop\n      swap1\n      pop\n      dup1\n      0x00\n      add\n      dup1\n      sload\n      tag_53\n      swap1\n      tag_54\n      jump\t// in\n    tag_53:\n      dup1\n      0x1f\n      add\n      0x20\n      dup1\n      swap2\n      div\n      mul\n      0x20\n      add\n      mload(0x40)\n      swap1\n      dup2\n      add\n      0x40\n      mstore\n      dup1\n      swap3\n      swap2\n      swap1\n      dup2\n      dup2\n      mstore\n      0x20\n      add\n      dup3\n      dup1\n      sload\n      tag_55\n      swap1\n      tag_54\n      jump\t// in\n    tag_55:\n      dup1\n      iszero\n      tag_56\n      jumpi\n      dup1\n      0x1f\n      lt\n      tag_57\n      jumpi\n      0x0100\n      dup1\n      dup4\n      sload\n      div\n      mul\n      dup4\n      mstore\n      swap2\n      0x20\n      add\n      swap2\n      jump(tag_56)\n    tag_57:\n      dup3\n      add\n      swap2\n      swap1\n      0x00\n      mstore\n      keccak256(0x00, 0x20)\n      swap1\n    tag_58:\n      dup2\n      sload\n      dup2\n      mstore\n      swap1\n      0x01\n      add\n      swap1\n      0x20\n      add\n      dup1\n      dup4\n      gt\n      tag_58\n      jumpi\n      dup3\n      swap1\n      sub\n      0x1f\n      and\n      dup3\n      add\n      swap2\n    tag_56:\n      pop\n      pop\n      pop\n      pop\n      pop\n      swap1\n      dup1\n      0x01\n      add\n      dup1\n      sload\n      tag_59\n      swap1\n      tag_54\n      jump\t// in\n    tag_59:\n      dup1\n      0x1f\n      add\n      0x20\n      dup1\n      swap2\n      div\n      mul\n      0x20\n      add\n      mload(0x40)\n      swap1\n      dup2\n      add\n      0x40\n      mstore\n      dup1\n      swap3\n      swap2\n      swap1\n      dup2\n      dup2\n      mstore\n      0x20\n      add\n      dup3\n      dup1\n      sload\n      tag_60\n      swap1\n      tag_54\n      jump\t// in\n    tag_60:\n      dup1\n      iszero\n      tag_61\n      jumpi\n      dup1\n      0x1f\n      lt\n      tag_62\n      jumpi\n      0x0100\n      dup1\n      dup4\n      sload\n      div\n      mul\n      dup4\n      mstore\n      swap2\n      0x20\n      add\n      swap2\n      jump(tag_61)\n    tag_62:\n      dup3\n      add\n      swap2\n      swap1\n      0x00\n      mstore\n      keccak256(0x00, 0x20)\n      swap1\n    tag_63:\n      dup2\n      sload\n      dup2\n      mstore\n      swap1\n      0x01\n      add\n      swap1\n      0x20\n      add\n      dup1\n      dup4\n      gt\n      tag_63\n      jumpi\n      dup3\n      swap1\n      sub\n      0x1f\n      and\n      dup3\n      add\n      swap2\n    tag_61:\n      pop\n      pop\n      pop\n      pop\n      pop\n      swap1\n      dup1\n      0x02\n      add\n      sload\n      swap1\n      pop\n      dup4\n      jump\t// out\n        /* \"voting.sol\":1595:2019  function results() public onlyAdmin view returns (string memory){\r... */\n    tag_26:\n        /* \"voting.sol\":1645:1658  string memory */\n      0x60\n        /* \"voting.sol\":553:558  admin */\n      0x02\n      0x00\n      swap1\n      sload\n      swap1\n      0x0100\n      exp\n      swap1\n      div\n      0xffffffffffffffffffffffffffffffffffffffff\n      and\n        /* \"voting.sol\":539:558  msg.sender == admin */\n      0xffffffffffffffffffffffffffffffffffffffff\n      and\n        /* \"voting.sol\":539:549  msg.sender */\n      caller\n        /* \"voting.sol\":539:558  msg.sender == admin */\n      0xffffffffffffffffffffffffffffffffffffffff\n      and\n      eq\n        /* \"voting.sol\":531:578  require(msg.sender == admin,\"Access is Denied\") */\n      tag_65\n      jumpi\n      mload(0x40)\n      0x08c379a000000000000000000000000000000000000000000000000000000000\n      dup2\n      mstore\n      0x04\n      add\n      tag_66\n      swap1\n      tag_35\n      jump\t// in\n    tag_66:\n      mload(0x40)\n      dup1\n      swap2\n      sub\n      swap1\n      revert\n    tag_65:\n        /* \"voting.sol\":1670:1683  uint maxVotes */\n      0x00\n        /* \"voting.sol\":1686:1696  candidates */\n      0x03\n        /* \"voting.sol\":1686:1699  candidates[0] */\n      0x00\n        /* \"voting.sol\":1697:1698  0 */\n      dup1\n        /* \"voting.sol\":1686:1699  candidates[0] */\n      dup2\n      mstore\n      0x20\n      add\n      swap1\n      dup2\n      mstore\n      0x20\n      add\n      0x00\n      keccak256\n        /* \"voting.sol\":1686:1709  candidates[0].noOfVotes */\n      0x02\n      add\n      sload\n        /* \"voting.sol\":1670:1709  uint maxVotes = candidates[0].noOfVotes */\n      swap1\n      pop\n        /* \"voting.sol\":1720:1736  uint candidateID */\n      0x00\n        /* \"voting.sol\":1751:1757  uint i */\n      dup1\n        /* \"voting.sol\":1760:1761  0 */\n      0x00\n        /* \"voting.sol\":1751:1761  uint i = 0 */\n      swap1\n      pop\n        /* \"voting.sol\":1747:1954  for(uint i = 0 ; i<noOfCandidates;i++) {\r... */\n    tag_68:\n        /* \"voting.sol\":1766:1780  noOfCandidates */\n      sload(0x01)\n        /* \"voting.sol\":1764:1765  i */\n      dup2\n        /* \"voting.sol\":1764:1780  i<noOfCandidates */\n      lt\n        /* \"voting.sol\":1747:1954  for(uint i = 0 ; i<noOfCandidates;i++) {\r... */\n      iszero\n      tag_69\n      jumpi\n        /* \"voting.sol\":1815:1825  candidates */\n      0x03\n        /* \"voting.sol\":1815:1828  candidates[i] */\n      0x00\n        /* \"voting.sol\":1826:1827  i */\n      dup3\n        /* \"voting.sol\":1815:1828  candidates[i] */\n      dup2\n      mstore\n      0x20\n      add\n      swap1\n      dup2\n      mstore\n      0x20\n      add\n      0x00\n      keccak256\n        /* \"voting.sol\":1815:1838  candidates[i].noOfVotes */\n      0x02\n      add\n      sload\n        /* \"voting.sol\":1804:1812  maxVotes */\n      dup4\n        /* \"voting.sol\":1804:1838  maxVotes < candidates[i].noOfVotes */\n      lt\n        /* \"voting.sol\":1801:1943  if(maxVotes < candidates[i].noOfVotes) {\r... */\n      iszero\n      tag_71\n      jumpi\n        /* \"voting.sol\":1870:1880  candidates */\n      0x03\n        /* \"voting.sol\":1870:1883  candidates[i] */\n      0x00\n        /* \"voting.sol\":1881:1882  i */\n      dup3\n        /* \"voting.sol\":1870:1883  candidates[i] */\n      dup2\n      mstore\n      0x20\n      add\n      swap1\n      dup2\n      mstore\n      0x20\n      add\n      0x00\n      keccak256\n        /* \"voting.sol\":1870:1893  candidates[i].noOfVotes */\n      0x02\n      add\n      sload\n        /* \"voting.sol\":1859:1893  maxVotes = candidates[i].noOfVotes */\n      swap3\n      pop\n        /* \"voting.sol\":1926:1927  i */\n      dup1\n        /* \"voting.sol\":1912:1927  candidateID = i */\n      swap2\n      pop\n        /* \"voting.sol\":1801:1943  if(maxVotes < candidates[i].noOfVotes) {\r... */\n    tag_71:\n        /* \"voting.sol\":1781:1784  i++ */\n      dup1\n      dup1\n      tag_72\n      swap1\n      tag_41\n      jump\t// in\n    tag_72:\n      swap2\n      pop\n      pop\n        /* \"voting.sol\":1747:1954  for(uint i = 0 ; i<noOfCandidates;i++) {\r... */\n      jump(tag_68)\n    tag_69:\n      pop\n        /* \"voting.sol\":1972:1982  candidates */\n      0x03\n        /* \"voting.sol\":1972:1995  candidates[candidateID] */\n      0x00\n        /* \"voting.sol\":1983:1994  candidateID */\n      dup3\n        /* \"voting.sol\":1972:1995  candidates[candidateID] */\n      dup2\n      mstore\n      0x20\n      add\n      swap1\n      dup2\n      mstore\n      0x20\n      add\n      0x00\n      keccak256\n        /* \"voting.sol\":1972:2010  candidates[candidateID].candidate_name */\n      0x00\n      add\n        /* \"voting.sol\":1964:2011  return (candidates[candidateID].candidate_name) */\n      dup1\n      sload\n      tag_73\n      swap1\n      tag_54\n      jump\t// in\n    tag_73:\n      dup1\n      0x1f\n      add\n      0x20\n      dup1\n      swap2\n      div\n      mul\n      0x20\n      add\n      mload(0x40)\n      swap1\n      dup2\n      add\n      0x40\n      mstore\n      dup1\n      swap3\n      swap2\n      swap1\n      dup2\n      dup2\n      mstore\n      0x20\n      add\n      dup3\n      dup1\n      sload\n      tag_74\n      swap1\n      tag_54\n      jump\t// in\n    tag_74:\n      dup1\n      iszero\n      tag_75\n      jumpi\n      dup1\n      0x1f\n      lt\n      tag_76\n      jumpi\n      0x0100\n      dup1\n      dup4\n      sload\n      div\n      mul\n      dup4\n      mstore\n      swap2\n      0x20\n      add\n      swap2\n      jump(tag_75)\n    tag_76:\n      dup3\n      add\n      swap2\n      swap1\n      0x00\n      mstore\n      keccak256(0x00, 0x20)\n      swap1\n    tag_77:\n      dup2\n      sload\n      dup2\n      mstore\n      swap1\n      0x01\n      add\n      swap1\n      0x20\n      add\n      dup1\n      dup4\n      gt\n      tag_77\n      jumpi\n      dup3\n      swap1\n      sub\n      0x1f\n      and\n      dup3\n      add\n      swap2\n    tag_75:\n      pop\n      pop\n      pop\n      pop\n      pop\n      swap3\n      pop\n      pop\n      pop\n        /* \"voting.sol\":1595:2019  function results() public onlyAdmin view returns (string memory){\r... */\n      swap1\n      jump\t// out\n        /* \"voting.sol\":1268:1589  function candidateIDGenerator(string memory name) public{\r... */\n    tag_31:\n        /* \"voting.sol\":1339:1345  uint i */\n      0x00\n        /* \"voting.sol\":1335:1582  for(uint i =0;i<noOfCandidates;i++){\r... */\n    tag_79:\n        /* \"voting.sol\":1351:1365  noOfCandidates */\n      sload(0x01)\n        /* \"voting.sol\":1349:1350  i */\n      dup2\n        /* \"voting.sol\":1349:1365  i<noOfCandidates */\n      lt\n        /* \"voting.sol\":1335:1582  for(uint i =0;i<noOfCandidates;i++){\r... */\n      iszero\n      tag_80\n      jumpi\n        /* \"voting.sol\":1385:1410  string memory findingName */\n      0x00\n        /* \"voting.sol\":1413:1423  candidates */\n      0x03\n        /* \"voting.sol\":1413:1426  candidates[i] */\n      0x00\n        /* \"voting.sol\":1424:1425  i */\n      dup4\n        /* \"voting.sol\":1413:1426  candidates[i] */\n      dup2\n      mstore\n      0x20\n      add\n      swap1\n      dup2\n      mstore\n      0x20\n      add\n      0x00\n      keccak256\n        /* \"voting.sol\":1413:1441  candidates[i].candidate_name */\n      0x00\n      add\n        /* \"voting.sol\":1385:1441  string memory findingName = candidates[i].candidate_name */\n      dup1\n      sload\n      tag_82\n      swap1\n      tag_54\n      jump\t// in\n    tag_82:\n      dup1\n      0x1f\n      add\n      0x20\n      dup1\n      swap2\n      div\n      mul\n      0x20\n      add\n      mload(0x40)\n      swap1\n      dup2\n      add\n      0x40\n      mstore\n      dup1\n      swap3\n      swap2\n      swap1\n      dup2\n      dup2\n      mstore\n      0x20\n      add\n      dup3\n      dup1\n      sload\n      tag_83\n      swap1\n      tag_54\n      jump\t// in\n    tag_83:\n      dup1\n      iszero\n      tag_84\n      jumpi\n      dup1\n      0x1f\n      lt\n      tag_85\n      jumpi\n      0x0100\n      dup1\n      dup4\n      sload\n      div\n      mul\n      dup4\n      mstore\n      swap2\n      0x20\n      add\n      swap2\n      jump(tag_84)\n    tag_85:\n      dup3\n      add\n      swap2\n      swap1\n      0x00\n      mstore\n      keccak256(0x00, 0x20)\n      swap1\n    tag_86:\n      dup2\n      sload\n      dup2\n      mstore\n      swap1\n      0x01\n      add\n      swap1\n      0x20\n      add\n      dup1\n      dup4\n      gt\n      tag_86\n      jumpi\n      dup3\n      swap1\n      sub\n      0x1f\n      and\n      dup3\n      add\n      swap2\n    tag_84:\n      pop\n      pop\n      pop\n      pop\n      pop\n      swap1\n      pop\n        /* \"voting.sol\":1530:1534  name */\n      dup3\n        /* \"voting.sol\":1513:1535  abi.encodePacked(name) */\n      add(0x20, mload(0x40))\n      tag_87\n      swap2\n      swap1\n      tag_38\n      jump\t// in\n    tag_87:\n      mload(0x40)\n      0x20\n      dup2\n      dup4\n      sub\n      sub\n      dup2\n      mstore\n      swap1\n      0x40\n      mstore\n        /* \"voting.sol\":1503:1536  keccak256(abi.encodePacked(name)) */\n      dup1\n      mload\n      swap1\n      0x20\n      add\n      keccak256\n        /* \"voting.sol\":1486:1497  findingName */\n      dup2\n        /* \"voting.sol\":1469:1498  abi.encodePacked(findingName) */\n      add(0x20, mload(0x40))\n      tag_88\n      swap2\n      swap1\n      tag_38\n      jump\t// in\n    tag_88:\n      mload(0x40)\n      0x20\n      dup2\n      dup4\n      sub\n      sub\n      dup2\n      mstore\n      swap1\n      0x40\n      mstore\n        /* \"voting.sol\":1459:1499  keccak256(abi.encodePacked(findingName)) */\n      dup1\n      mload\n      swap1\n      0x20\n      add\n      keccak256\n        /* \"voting.sol\":1459:1536  keccak256(abi.encodePacked(findingName)) == keccak256(abi.encodePacked(name)) */\n      pop\n      pop\n        /* \"voting.sol\":1370:1582  {\r... */\n      pop\n        /* \"voting.sol\":1366:1369  i++ */\n      dup1\n      dup1\n      tag_90\n      swap1\n      tag_41\n      jump\t// in\n    tag_90:\n      swap2\n      pop\n      pop\n        /* \"voting.sol\":1335:1582  for(uint i =0;i<noOfCandidates;i++){\r... */\n      jump(tag_79)\n    tag_80:\n      pop\n        /* \"voting.sol\":1268:1589  function candidateIDGenerator(string memory name) public{\r... */\n      pop\n      jump\t// out\n    tag_51:\n      dup3\n      dup1\n      sload\n      tag_91\n      swap1\n      tag_54\n      jump\t// in\n    tag_91:\n      swap1\n      0x00\n      mstore\n      keccak256(0x00, 0x20)\n      swap1\n      0x1f\n      add\n      0x20\n      swap1\n      div\n      dup2\n      add\n      swap3\n      dup3\n      tag_93\n      jumpi\n      0x00\n      dup6\n      sstore\n      jump(tag_92)\n    tag_93:\n      dup3\n      0x1f\n      lt\n      tag_94\n      jumpi\n      dup1\n      mload\n      not(0xff)\n      and\n      dup4\n      dup1\n      add\n      or\n      dup6\n      sstore\n      jump(tag_92)\n    tag_94:\n      dup3\n      dup1\n      add\n      0x01\n      add\n      dup6\n      sstore\n      dup3\n      iszero\n      tag_92\n      jumpi\n      swap2\n      dup3\n      add\n    tag_95:\n      dup3\n      dup2\n      gt\n      iszero\n      tag_96\n      jumpi\n      dup3\n      mload\n      dup3\n      sstore\n      swap2\n      0x20\n      add\n      swap2\n      swap1\n      0x01\n      add\n      swap1\n      jump(tag_95)\n    tag_96:\n    tag_92:\n      pop\n      swap1\n      pop\n      tag_97\n      swap2\n      swap1\n      tag_98\n      jump\t// in\n    tag_97:\n      pop\n      swap1\n      jump\t// out\n    tag_98:\n    tag_99:\n      dup1\n      dup3\n      gt\n      iszero\n      tag_100\n      jumpi\n      0x00\n      dup2\n      0x00\n      swap1\n      sstore\n      pop\n      0x01\n      add\n      jump(tag_99)\n    tag_100:\n      pop\n      swap1\n      jump\t// out\n        /* \"#utility.yul\":7:419   */\n    tag_102:\n        /* \"#utility.yul\":85:90   */\n      0x00\n        /* \"#utility.yul\":110:176   */\n      tag_104\n        /* \"#utility.yul\":126:175   */\n      tag_105\n        /* \"#utility.yul\":168:174   */\n      dup5\n        /* \"#utility.yul\":126:175   */\n      tag_106\n      jump\t// in\n    tag_105:\n        /* \"#utility.yul\":110:176   */\n      tag_107\n      jump\t// in\n    tag_104:\n        /* \"#utility.yul\":101:176   */\n      swap1\n      pop\n        /* \"#utility.yul\":199:205   */\n      dup3\n        /* \"#utility.yul\":192:197   */\n      dup2\n        /* \"#utility.yul\":185:206   */\n      mstore\n        /* \"#utility.yul\":237:241   */\n      0x20\n        /* \"#utility.yul\":230:235   */\n      dup2\n        /* \"#utility.yul\":226:242   */\n      add\n        /* \"#utility.yul\":275:278   */\n      dup5\n        /* \"#utility.yul\":266:272   */\n      dup5\n        /* \"#utility.yul\":261:264   */\n      dup5\n        /* \"#utility.yul\":257:273   */\n      add\n        /* \"#utility.yul\":254:279   */\n      gt\n        /* \"#utility.yul\":251:363   */\n      iszero\n      tag_108\n      jumpi\n        /* \"#utility.yul\":282:361   */\n      tag_109\n      tag_110\n      jump\t// in\n    tag_109:\n        /* \"#utility.yul\":251:363   */\n    tag_108:\n        /* \"#utility.yul\":372:413   */\n      tag_111\n        /* \"#utility.yul\":406:412   */\n      dup5\n        /* \"#utility.yul\":401:404   */\n      dup3\n        /* \"#utility.yul\":396:399   */\n      dup6\n        /* \"#utility.yul\":372:413   */\n      tag_112\n      jump\t// in\n    tag_111:\n        /* \"#utility.yul\":91:419   */\n      pop\n        /* \"#utility.yul\":7:419   */\n      swap4\n      swap3\n      pop\n      pop\n      pop\n      jump\t// out\n        /* \"#utility.yul\":439:779   */\n    tag_113:\n        /* \"#utility.yul\":495:500   */\n      0x00\n        /* \"#utility.yul\":544:547   */\n      dup3\n        /* \"#utility.yul\":537:541   */\n      0x1f\n        /* \"#utility.yul\":529:535   */\n      dup4\n        /* \"#utility.yul\":525:542   */\n      add\n        /* \"#utility.yul\":521:548   */\n      slt\n        /* \"#utility.yul\":511:633   */\n      tag_115\n      jumpi\n        /* \"#utility.yul\":552:631   */\n      tag_116\n      tag_117\n      jump\t// in\n    tag_116:\n        /* \"#utility.yul\":511:633   */\n    tag_115:\n        /* \"#utility.yul\":669:675   */\n      dup2\n        /* \"#utility.yul\":656:676   */\n      calldataload\n        /* \"#utility.yul\":694:773   */\n      tag_118\n        /* \"#utility.yul\":769:772   */\n      dup5\n        /* \"#utility.yul\":761:767   */\n      dup3\n        /* \"#utility.yul\":754:758   */\n      0x20\n        /* \"#utility.yul\":746:752   */\n      dup7\n        /* \"#utility.yul\":742:759   */\n      add\n        /* \"#utility.yul\":694:773   */\n      tag_102\n      jump\t// in\n    tag_118:\n        /* \"#utility.yul\":685:773   */\n      swap2\n      pop\n        /* \"#utility.yul\":501:779   */\n      pop\n        /* \"#utility.yul\":439:779   */\n      swap3\n      swap2\n      pop\n      pop\n      jump\t// out\n        /* \"#utility.yul\":785:924   */\n    tag_119:\n        /* \"#utility.yul\":831:836   */\n      0x00\n        /* \"#utility.yul\":869:875   */\n      dup2\n        /* \"#utility.yul\":856:876   */\n      calldataload\n        /* \"#utility.yul\":847:876   */\n      swap1\n      pop\n        /* \"#utility.yul\":885:918   */\n      tag_121\n        /* \"#utility.yul\":912:917   */\n      dup2\n        /* \"#utility.yul\":885:918   */\n      tag_122\n      jump\t// in\n    tag_121:\n        /* \"#utility.yul\":785:924   */\n      swap3\n      swap2\n      pop\n      pop\n      jump\t// out\n        /* \"#utility.yul\":930:1439   */\n    tag_30:\n        /* \"#utility.yul\":999:1005   */\n      0x00\n        /* \"#utility.yul\":1048:1050   */\n      0x20\n        /* \"#utility.yul\":1036:1045   */\n      dup3\n        /* \"#utility.yul\":1027:1034   */\n      dup5\n        /* \"#utility.yul\":1023:1046   */\n      sub\n        /* \"#utility.yul\":1019:1051   */\n      slt\n        /* \"#utility.yul\":1016:1135   */\n      iszero\n      tag_124\n      jumpi\n        /* \"#utility.yul\":1054:1133   */\n      tag_125\n      tag_126\n      jump\t// in\n    tag_125:\n        /* \"#utility.yul\":1016:1135   */\n    tag_124:\n        /* \"#utility.yul\":1202:1203   */\n      0x00\n        /* \"#utility.yul\":1191:1200   */\n      dup3\n        /* \"#utility.yul\":1187:1204   */\n      add\n        /* \"#utility.yul\":1174:1205   */\n      calldataload\n        /* \"#utility.yul\":1232:1250   */\n      0xffffffffffffffff\n        /* \"#utility.yul\":1224:1230   */\n      dup2\n        /* \"#utility.yul\":1221:1251   */\n      gt\n        /* \"#utility.yul\":1218:1335   */\n      iszero\n      tag_127\n      jumpi\n        /* \"#utility.yul\":1254:1333   */\n      tag_128\n      tag_129\n      jump\t// in\n    tag_128:\n        /* \"#utility.yul\":1218:1335   */\n    tag_127:\n        /* \"#utility.yul\":1359:1422   */\n      tag_130\n        /* \"#utility.yul\":1414:1421   */\n      dup5\n        /* \"#utility.yul\":1405:1411   */\n      dup3\n        /* \"#utility.yul\":1394:1403   */\n      dup6\n        /* \"#utility.yul\":1390:1412   */\n      add\n        /* \"#utility.yul\":1359:1422   */\n      tag_113\n      jump\t// in\n    tag_130:\n        /* \"#utility.yul\":1349:1422   */\n      swap2\n      pop\n        /* \"#utility.yul\":1145:1432   */\n      pop\n        /* \"#utility.yul\":930:1439   */\n      swap3\n      swap2\n      pop\n      pop\n      jump\t// out\n        /* \"#utility.yul\":1445:2279   */\n    tag_16:\n        /* \"#utility.yul\":1533:1539   */\n      0x00\n        /* \"#utility.yul\":1541:1547   */\n      dup1\n        /* \"#utility.yul\":1590:1592   */\n      0x40\n        /* \"#utility.yul\":1578:1587   */\n      dup4\n        /* \"#utility.yul\":1569:1576   */\n      dup6\n        /* \"#utility.yul\":1565:1588   */\n      sub\n        /* \"#utility.yul\":1561:1593   */\n      slt\n        /* \"#utility.yul\":1558:1677   */\n      iszero\n      tag_132\n      jumpi\n        /* \"#utility.yul\":1596:1675   */\n      tag_133\n      tag_126\n      jump\t// in\n    tag_133:\n        /* \"#utility.yul\":1558:1677   */\n    tag_132:\n        /* \"#utility.yul\":1744:1745   */\n      0x00\n        /* \"#utility.yul\":1733:1742   */\n      dup4\n        /* \"#utility.yul\":1729:1746   */\n      add\n        /* \"#utility.yul\":1716:1747   */\n      calldataload\n        /* \"#utility.yul\":1774:1792   */\n      0xffffffffffffffff\n        /* \"#utility.yul\":1766:1772   */\n      dup2\n        /* \"#utility.yul\":1763:1793   */\n      gt\n        /* \"#utility.yul\":1760:1877   */\n      iszero\n      tag_134\n      jumpi\n        /* \"#utility.yul\":1796:1875   */\n      tag_135\n      tag_129\n      jump\t// in\n    tag_135:\n        /* \"#utility.yul\":1760:1877   */\n    tag_134:\n        /* \"#utility.yul\":1901:1964   */\n      tag_136\n        /* \"#utility.yul\":1956:1963   */\n      dup6\n        /* \"#utility.yul\":1947:1953   */\n      dup3\n        /* \"#utility.yul\":1936:1945   */\n      dup7\n        /* \"#utility.yul\":1932:1954   */\n      add\n        /* \"#utility.yul\":1901:1964   */\n      tag_113\n      jump\t// in\n    tag_136:\n        /* \"#utility.yul\":1891:1964   */\n      swap3\n      pop\n        /* \"#utility.yul\":1687:1974   */\n      pop\n        /* \"#utility.yul\":2041:2043   */\n      0x20\n        /* \"#utility.yul\":2030:2039   */\n      dup4\n        /* \"#utility.yul\":2026:2044   */\n      add\n        /* \"#utility.yul\":2013:2045   */\n      calldataload\n        /* \"#utility.yul\":2072:2090   */\n      0xffffffffffffffff\n        /* \"#utility.yul\":2064:2070   */\n      dup2\n        /* \"#utility.yul\":2061:2091   */\n      gt\n        /* \"#utility.yul\":2058:2175   */\n      iszero\n      tag_137\n      jumpi\n        /* \"#utility.yul\":2094:2173   */\n      tag_138\n      tag_129\n      jump\t// in\n    tag_138:\n        /* \"#utility.yul\":2058:2175   */\n    tag_137:\n        /* \"#utility.yul\":2199:2262   */\n      tag_139\n        /* \"#utility.yul\":2254:2261   */\n      dup6\n        /* \"#utility.yul\":2245:2251   */\n      dup3\n        /* \"#utility.yul\":2234:2243   */\n      dup7\n        /* \"#utility.yul\":2230:2252   */\n      add\n        /* \"#utility.yul\":2199:2262   */\n      tag_113\n      jump\t// in\n    tag_139:\n        /* \"#utility.yul\":2189:2262   */\n      swap2\n      pop\n        /* \"#utility.yul\":1984:2272   */\n      pop\n        /* \"#utility.yul\":1445:2279   */\n      swap3\n      pop\n      swap3\n      swap1\n      pop\n      jump\t// out\n        /* \"#utility.yul\":2285:2939   */\n    tag_10:\n        /* \"#utility.yul\":2363:2369   */\n      0x00\n        /* \"#utility.yul\":2371:2377   */\n      dup1\n        /* \"#utility.yul\":2420:2422   */\n      0x40\n        /* \"#utility.yul\":2408:2417   */\n      dup4\n        /* \"#utility.yul\":2399:2406   */\n      dup6\n        /* \"#utility.yul\":2395:2418   */\n      sub\n        /* \"#utility.yul\":2391:2423   */\n      slt\n        /* \"#utility.yul\":2388:2507   */\n      iszero\n      tag_141\n      jumpi\n        /* \"#utility.yul\":2426:2505   */\n      tag_142\n      tag_126\n      jump\t// in\n    tag_142:\n        /* \"#utility.yul\":2388:2507   */\n    tag_141:\n        /* \"#utility.yul\":2574:2575   */\n      0x00\n        /* \"#utility.yul\":2563:2572   */\n      dup4\n        /* \"#utility.yul\":2559:2576   */\n      add\n        /* \"#utility.yul\":2546:2577   */\n      calldataload\n        /* \"#utility.yul\":2604:2622   */\n      0xffffffffffffffff\n        /* \"#utility.yul\":2596:2602   */\n      dup2\n        /* \"#utility.yul\":2593:2623   */\n      gt\n        /* \"#utility.yul\":2590:2707   */\n      iszero\n      tag_143\n      jumpi\n        /* \"#utility.yul\":2626:2705   */\n      tag_144\n      tag_129\n      jump\t// in\n    tag_144:\n        /* \"#utility.yul\":2590:2707   */\n    tag_143:\n        /* \"#utility.yul\":2731:2794   */\n      tag_145\n        /* \"#utility.yul\":2786:2793   */\n      dup6\n        /* \"#utility.yul\":2777:2783   */\n      dup3\n        /* \"#utility.yul\":2766:2775   */\n      dup7\n        /* \"#utility.yul\":2762:2784   */\n      add\n        /* \"#utility.yul\":2731:2794   */\n      tag_113\n      jump\t// in\n    tag_145:\n        /* \"#utility.yul\":2721:2794   */\n      swap3\n      pop\n        /* \"#utility.yul\":2517:2804   */\n      pop\n        /* \"#utility.yul\":2843:2845   */\n      0x20\n        /* \"#utility.yul\":2869:2922   */\n      tag_146\n        /* \"#utility.yul\":2914:2921   */\n      dup6\n        /* \"#utility.yul\":2905:2911   */\n      dup3\n        /* \"#utility.yul\":2894:2903   */\n      dup7\n        /* \"#utility.yul\":2890:2912   */\n      add\n        /* \"#utility.yul\":2869:2922   */\n      tag_119\n      jump\t// in\n    tag_146:\n        /* \"#utility.yul\":2859:2922   */\n      swap2\n      pop\n        /* \"#utility.yul\":2814:2932   */\n      pop\n        /* \"#utility.yul\":2285:2939   */\n      swap3\n      pop\n      swap3\n      swap1\n      pop\n      jump\t// out\n        /* \"#utility.yul\":2945:3274   */\n    tag_21:\n        /* \"#utility.yul\":3004:3010   */\n      0x00\n        /* \"#utility.yul\":3053:3055   */\n      0x20\n        /* \"#utility.yul\":3041:3050   */\n      dup3\n        /* \"#utility.yul\":3032:3039   */\n      dup5\n        /* \"#utility.yul\":3028:3051   */\n      sub\n        /* \"#utility.yul\":3024:3056   */\n      slt\n        /* \"#utility.yul\":3021:3140   */\n      iszero\n      tag_148\n      jumpi\n        /* \"#utility.yul\":3059:3138   */\n      tag_149\n      tag_126\n      jump\t// in\n    tag_149:\n        /* \"#utility.yul\":3021:3140   */\n    tag_148:\n        /* \"#utility.yul\":3179:3180   */\n      0x00\n        /* \"#utility.yul\":3204:3257   */\n      tag_150\n        /* \"#utility.yul\":3249:3256   */\n      dup5\n        /* \"#utility.yul\":3240:3246   */\n      dup3\n        /* \"#utility.yul\":3229:3238   */\n      dup6\n        /* \"#utility.yul\":3225:3247   */\n      add\n        /* \"#utility.yul\":3204:3257   */\n      tag_119\n      jump\t// in\n    tag_150:\n        /* \"#utility.yul\":3194:3257   */\n      swap2\n      pop\n        /* \"#utility.yul\":3150:3267   */\n      pop\n        /* \"#utility.yul\":2945:3274   */\n      swap3\n      swap2\n      pop\n      pop\n      jump\t// out\n        /* \"#utility.yul\":3280:3644   */\n    tag_151:\n        /* \"#utility.yul\":3368:3371   */\n      0x00\n        /* \"#utility.yul\":3396:3435   */\n      tag_153\n        /* \"#utility.yul\":3429:3434   */\n      dup3\n        /* \"#utility.yul\":3396:3435   */\n      tag_154\n      jump\t// in\n    tag_153:\n        /* \"#utility.yul\":3451:3522   */\n      tag_155\n        /* \"#utility.yul\":3515:3521   */\n      dup2\n        /* \"#utility.yul\":3510:3513   */\n      dup6\n        /* \"#utility.yul\":3451:3522   */\n      tag_156\n      jump\t// in\n    tag_155:\n        /* \"#utility.yul\":3444:3522   */\n      swap4\n      pop\n        /* \"#utility.yul\":3531:3583   */\n      tag_157\n        /* \"#utility.yul\":3576:3582   */\n      dup2\n        /* \"#utility.yul\":3571:3574   */\n      dup6\n        /* \"#utility.yul\":3564:3568   */\n      0x20\n        /* \"#utility.yul\":3557:3562   */\n      dup7\n        /* \"#utility.yul\":3553:3569   */\n      add\n        /* \"#utility.yul\":3531:3583   */\n      tag_158\n      jump\t// in\n    tag_157:\n        /* \"#utility.yul\":3608:3637   */\n      tag_159\n        /* \"#utility.yul\":3630:3636   */\n      dup2\n        /* \"#utility.yul\":3608:3637   */\n      tag_160\n      jump\t// in\n    tag_159:\n        /* \"#utility.yul\":3603:3606   */\n      dup5\n        /* \"#utility.yul\":3599:3638   */\n      add\n        /* \"#utility.yul\":3592:3638   */\n      swap2\n      pop\n        /* \"#utility.yul\":3372:3644   */\n      pop\n        /* \"#utility.yul\":3280:3644   */\n      swap3\n      swap2\n      pop\n      pop\n      jump\t// out\n        /* \"#utility.yul\":3650:4027   */\n    tag_161:\n        /* \"#utility.yul\":3756:3759   */\n      0x00\n        /* \"#utility.yul\":3784:3823   */\n      tag_163\n        /* \"#utility.yul\":3817:3822   */\n      dup3\n        /* \"#utility.yul\":3784:3823   */\n      tag_154\n      jump\t// in\n    tag_163:\n        /* \"#utility.yul\":3839:3928   */\n      tag_164\n        /* \"#utility.yul\":3921:3927   */\n      dup2\n        /* \"#utility.yul\":3916:3919   */\n      dup6\n        /* \"#utility.yul\":3839:3928   */\n      tag_165\n      jump\t// in\n    tag_164:\n        /* \"#utility.yul\":3832:3928   */\n      swap4\n      pop\n        /* \"#utility.yul\":3937:3989   */\n      tag_166\n        /* \"#utility.yul\":3982:3988   */\n      dup2\n        /* \"#utility.yul\":3977:3980   */\n      dup6\n        /* \"#utility.yul\":3970:3974   */\n      0x20\n        /* \"#utility.yul\":3963:3968   */\n      dup7\n        /* \"#utility.yul\":3959:3975   */\n      add\n        /* \"#utility.yul\":3937:3989   */\n      tag_158\n      jump\t// in\n    tag_166:\n        /* \"#utility.yul\":4014:4020   */\n      dup1\n        /* \"#utility.yul\":4009:4012   */\n      dup5\n        /* \"#utility.yul\":4005:4021   */\n      add\n        /* \"#utility.yul\":3998:4021   */\n      swap2\n      pop\n        /* \"#utility.yul\":3760:4027   */\n      pop\n        /* \"#utility.yul\":3650:4027   */\n      swap3\n      swap2\n      pop\n      pop\n      jump\t// out\n        /* \"#utility.yul\":4033:4399   */\n    tag_167:\n        /* \"#utility.yul\":4175:4178   */\n      0x00\n        /* \"#utility.yul\":4196:4263   */\n      tag_169\n        /* \"#utility.yul\":4260:4262   */\n      0x10\n        /* \"#utility.yul\":4255:4258   */\n      dup4\n        /* \"#utility.yul\":4196:4263   */\n      tag_156\n      jump\t// in\n    tag_169:\n        /* \"#utility.yul\":4189:4263   */\n      swap2\n      pop\n        /* \"#utility.yul\":4272:4365   */\n      tag_170\n        /* \"#utility.yul\":4361:4364   */\n      dup3\n        /* \"#utility.yul\":4272:4365   */\n      tag_171\n      jump\t// in\n    tag_170:\n        /* \"#utility.yul\":4390:4392   */\n      0x20\n        /* \"#utility.yul\":4385:4388   */\n      dup3\n        /* \"#utility.yul\":4381:4393   */\n      add\n        /* \"#utility.yul\":4374:4393   */\n      swap1\n      pop\n        /* \"#utility.yul\":4033:4399   */\n      swap2\n      swap1\n      pop\n      jump\t// out\n        /* \"#utility.yul\":4405:4523   */\n    tag_172:\n        /* \"#utility.yul\":4492:4516   */\n      tag_174\n        /* \"#utility.yul\":4510:4515   */\n      dup2\n        /* \"#utility.yul\":4492:4516   */\n      tag_175\n      jump\t// in\n    tag_174:\n        /* \"#utility.yul\":4487:4490   */\n      dup3\n        /* \"#utility.yul\":4480:4517   */\n      mstore\n        /* \"#utility.yul\":4405:4523   */\n      pop\n      pop\n      jump\t// out\n        /* \"#utility.yul\":4529:4804   */\n    tag_38:\n        /* \"#utility.yul\":4661:4664   */\n      0x00\n        /* \"#utility.yul\":4683:4778   */\n      tag_177\n        /* \"#utility.yul\":4774:4777   */\n      dup3\n        /* \"#utility.yul\":4765:4771   */\n      dup5\n        /* \"#utility.yul\":4683:4778   */\n      tag_161\n      jump\t// in\n    tag_177:\n        /* \"#utility.yul\":4676:4778   */\n      swap2\n      pop\n        /* \"#utility.yul\":4795:4798   */\n      dup2\n        /* \"#utility.yul\":4788:4798   */\n      swap1\n      pop\n        /* \"#utility.yul\":4529:4804   */\n      swap3\n      swap2\n      pop\n      pop\n      jump\t// out\n        /* \"#utility.yul\":4810:5123   */\n    tag_13:\n        /* \"#utility.yul\":4923:4927   */\n      0x00\n        /* \"#utility.yul\":4961:4963   */\n      0x20\n        /* \"#utility.yul\":4950:4959   */\n      dup3\n        /* \"#utility.yul\":4946:4964   */\n      add\n        /* \"#utility.yul\":4938:4964   */\n      swap1\n      pop\n        /* \"#utility.yul\":5010:5019   */\n      dup2\n        /* \"#utility.yul\":5004:5008   */\n      dup2\n        /* \"#utility.yul\":5000:5020   */\n      sub\n        /* \"#utility.yul\":4996:4997   */\n      0x00\n        /* \"#utility.yul\":4985:4994   */\n      dup4\n        /* \"#utility.yul\":4981:4998   */\n      add\n        /* \"#utility.yul\":4974:5021   */\n      mstore\n        /* \"#utility.yul\":5038:5116   */\n      tag_179\n        /* \"#utility.yul\":5111:5115   */\n      dup2\n        /* \"#utility.yul\":5102:5108   */\n      dup5\n        /* \"#utility.yul\":5038:5116   */\n      tag_151\n      jump\t// in\n    tag_179:\n        /* \"#utility.yul\":5030:5116   */\n      swap1\n      pop\n        /* \"#utility.yul\":4810:5123   */\n      swap3\n      swap2\n      pop\n      pop\n      jump\t// out\n        /* \"#utility.yul\":5129:5753   */\n    tag_24:\n        /* \"#utility.yul\":5318:5322   */\n      0x00\n        /* \"#utility.yul\":5356:5358   */\n      0x60\n        /* \"#utility.yul\":5345:5354   */\n      dup3\n        /* \"#utility.yul\":5341:5359   */\n      add\n        /* \"#utility.yul\":5333:5359   */\n      swap1\n      pop\n        /* \"#utility.yul\":5405:5414   */\n      dup2\n        /* \"#utility.yul\":5399:5403   */\n      dup2\n        /* \"#utility.yul\":5395:5415   */\n      sub\n        /* \"#utility.yul\":5391:5392   */\n      0x00\n        /* \"#utility.yul\":5380:5389   */\n      dup4\n        /* \"#utility.yul\":5376:5393   */\n      add\n        /* \"#utility.yul\":5369:5416   */\n      mstore\n        /* \"#utility.yul\":5433:5511   */\n      tag_181\n        /* \"#utility.yul\":5506:5510   */\n      dup2\n        /* \"#utility.yul\":5497:5503   */\n      dup7\n        /* \"#utility.yul\":5433:5511   */\n      tag_151\n      jump\t// in\n    tag_181:\n        /* \"#utility.yul\":5425:5511   */\n      swap1\n      pop\n        /* \"#utility.yul\":5558:5567   */\n      dup2\n        /* \"#utility.yul\":5552:5556   */\n      dup2\n        /* \"#utility.yul\":5548:5568   */\n      sub\n        /* \"#utility.yul\":5543:5545   */\n      0x20\n        /* \"#utility.yul\":5532:5541   */\n      dup4\n        /* \"#utility.yul\":5528:5546   */\n      add\n        /* \"#utility.yul\":5521:5569   */\n      mstore\n        /* \"#utility.yul\":5586:5664   */\n      tag_182\n        /* \"#utility.yul\":5659:5663   */\n      dup2\n        /* \"#utility.yul\":5650:5656   */\n      dup6\n        /* \"#utility.yul\":5586:5664   */\n      tag_151\n      jump\t// in\n    tag_182:\n        /* \"#utility.yul\":5578:5664   */\n      swap1\n      pop\n        /* \"#utility.yul\":5674:5746   */\n      tag_183\n        /* \"#utility.yul\":5742:5744   */\n      0x40\n        /* \"#utility.yul\":5731:5740   */\n      dup4\n        /* \"#utility.yul\":5727:5745   */\n      add\n        /* \"#utility.yul\":5718:5724   */\n      dup5\n        /* \"#utility.yul\":5674:5746   */\n      tag_172\n      jump\t// in\n    tag_183:\n        /* \"#utility.yul\":5129:5753   */\n      swap5\n      swap4\n      pop\n      pop\n      pop\n      pop\n      jump\t// out\n        /* \"#utility.yul\":5759:6178   */\n    tag_35:\n        /* \"#utility.yul\":5925:5929   */\n      0x00\n        /* \"#utility.yul\":5963:5965   */\n      0x20\n        /* \"#utility.yul\":5952:5961   */\n      dup3\n        /* \"#utility.yul\":5948:5966   */\n      add\n        /* \"#utility.yul\":5940:5966   */\n      swap1\n      pop\n        /* \"#utility.yul\":6012:6021   */\n      dup2\n        /* \"#utility.yul\":6006:6010   */\n      dup2\n        /* \"#utility.yul\":6002:6022   */\n      sub\n        /* \"#utility.yul\":5998:5999   */\n      0x00\n        /* \"#utility.yul\":5987:5996   */\n      dup4\n        /* \"#utility.yul\":5983:6000   */\n      add\n        /* \"#utility.yul\":5976:6023   */\n      mstore\n        /* \"#utility.yul\":6040:6171   */\n      tag_185\n        /* \"#utility.yul\":6166:6170   */\n      dup2\n        /* \"#utility.yul\":6040:6171   */\n      tag_167\n      jump\t// in\n    tag_185:\n        /* \"#utility.yul\":6032:6171   */\n      swap1\n      pop\n        /* \"#utility.yul\":5759:6178   */\n      swap2\n      swap1\n      pop\n      jump\t// out\n        /* \"#utility.yul\":6184:6313   */\n    tag_107:\n        /* \"#utility.yul\":6218:6224   */\n      0x00\n        /* \"#utility.yul\":6245:6265   */\n      tag_187\n      tag_188\n      jump\t// in\n    tag_187:\n        /* \"#utility.yul\":6235:6265   */\n      swap1\n      pop\n        /* \"#utility.yul\":6274:6307   */\n      tag_189\n        /* \"#utility.yul\":6302:6306   */\n      dup3\n        /* \"#utility.yul\":6294:6300   */\n      dup3\n        /* \"#utility.yul\":6274:6307   */\n      tag_190\n      jump\t// in\n    tag_189:\n        /* \"#utility.yul\":6184:6313   */\n      swap2\n      swap1\n      pop\n      jump\t// out\n        /* \"#utility.yul\":6319:6394   */\n    tag_188:\n        /* \"#utility.yul\":6352:6358   */\n      0x00\n        /* \"#utility.yul\":6385:6387   */\n      0x40\n        /* \"#utility.yul\":6379:6388   */\n      mload\n        /* \"#utility.yul\":6369:6388   */\n      swap1\n      pop\n        /* \"#utility.yul\":6319:6394   */\n      swap1\n      jump\t// out\n        /* \"#utility.yul\":6400:6708   */\n    tag_106:\n        /* \"#utility.yul\":6462:6466   */\n      0x00\n        /* \"#utility.yul\":6552:6570   */\n      0xffffffffffffffff\n        /* \"#utility.yul\":6544:6550   */\n      dup3\n        /* \"#utility.yul\":6541:6571   */\n      gt\n        /* \"#utility.yul\":6538:6594   */\n      iszero\n      tag_193\n      jumpi\n        /* \"#utility.yul\":6574:6592   */\n      tag_194\n      tag_195\n      jump\t// in\n    tag_194:\n        /* \"#utility.yul\":6538:6594   */\n    tag_193:\n        /* \"#utility.yul\":6612:6641   */\n      tag_196\n        /* \"#utility.yul\":6634:6640   */\n      dup3\n        /* \"#utility.yul\":6612:6641   */\n      tag_160\n      jump\t// in\n    tag_196:\n        /* \"#utility.yul\":6604:6641   */\n      swap1\n      pop\n        /* \"#utility.yul\":6696:6700   */\n      0x20\n        /* \"#utility.yul\":6690:6694   */\n      dup2\n        /* \"#utility.yul\":6686:6701   */\n      add\n        /* \"#utility.yul\":6678:6701   */\n      swap1\n      pop\n        /* \"#utility.yul\":6400:6708   */\n      swap2\n      swap1\n      pop\n      jump\t// out\n        /* \"#utility.yul\":6714:6813   */\n    tag_154:\n        /* \"#utility.yul\":6766:6772   */\n      0x00\n        /* \"#utility.yul\":6800:6805   */\n      dup2\n        /* \"#utility.yul\":6794:6806   */\n      mload\n        /* \"#utility.yul\":6784:6806   */\n      swap1\n      pop\n        /* \"#utility.yul\":6714:6813   */\n      swap2\n      swap1\n      pop\n      jump\t// out\n        /* \"#utility.yul\":6819:6988   */\n    tag_156:\n        /* \"#utility.yul\":6903:6914   */\n      0x00\n        /* \"#utility.yul\":6937:6943   */\n      dup3\n        /* \"#utility.yul\":6932:6935   */\n      dup3\n        /* \"#utility.yul\":6925:6944   */\n      mstore\n        /* \"#utility.yul\":6977:6981   */\n      0x20\n        /* \"#utility.yul\":6972:6975   */\n      dup3\n        /* \"#utility.yul\":6968:6982   */\n      add\n        /* \"#utility.yul\":6953:6982   */\n      swap1\n      pop\n        /* \"#utility.yul\":6819:6988   */\n      swap3\n      swap2\n      pop\n      pop\n      jump\t// out\n        /* \"#utility.yul\":6994:7142   */\n    tag_165:\n        /* \"#utility.yul\":7096:7107   */\n      0x00\n        /* \"#utility.yul\":7133:7136   */\n      dup2\n        /* \"#utility.yul\":7118:7136   */\n      swap1\n      pop\n        /* \"#utility.yul\":6994:7142   */\n      swap3\n      swap2\n      pop\n      pop\n      jump\t// out\n        /* \"#utility.yul\":7148:7453   */\n    tag_44:\n        /* \"#utility.yul\":7188:7191   */\n      0x00\n        /* \"#utility.yul\":7207:7227   */\n      tag_201\n        /* \"#utility.yul\":7225:7226   */\n      dup3\n        /* \"#utility.yul\":7207:7227   */\n      tag_175\n      jump\t// in\n    tag_201:\n        /* \"#utility.yul\":7202:7227   */\n      swap2\n      pop\n        /* \"#utility.yul\":7241:7261   */\n      tag_202\n        /* \"#utility.yul\":7259:7260   */\n      dup4\n        /* \"#utility.yul\":7241:7261   */\n      tag_175\n      jump\t// in\n    tag_202:\n        /* \"#utility.yul\":7236:7261   */\n      swap3\n      pop\n        /* \"#utility.yul\":7395:7396   */\n      dup3\n        /* \"#utility.yul\":7327:7393   */\n      0xffffffffffffffffffffffffffffffffffffffffffffffffffffffffffffffff\n        /* \"#utility.yul\":7323:7397   */\n      sub\n        /* \"#utility.yul\":7320:7321   */\n      dup3\n        /* \"#utility.yul\":7317:7398   */\n      gt\n        /* \"#utility.yul\":7314:7421   */\n      iszero\n      tag_203\n      jumpi\n        /* \"#utility.yul\":7401:7419   */\n      tag_204\n      tag_205\n      jump\t// in\n    tag_204:\n        /* \"#utility.yul\":7314:7421   */\n    tag_203:\n        /* \"#utility.yul\":7445:7446   */\n      dup3\n        /* \"#utility.yul\":7442:7443   */\n      dup3\n        /* \"#utility.yul\":7438:7447   */\n      add\n        /* \"#utility.yul\":7431:7447   */\n      swap1\n      pop\n        /* \"#utility.yul\":7148:7453   */\n      swap3\n      swap2\n      pop\n      pop\n      jump\t// out\n        /* \"#utility.yul\":7459:7536   */\n    tag_175:\n        /* \"#utility.yul\":7496:7503   */\n      0x00\n        /* \"#utility.yul\":7525:7530   */\n      dup2\n        /* \"#utility.yul\":7514:7530   */\n      swap1\n      pop\n        /* \"#utility.yul\":7459:7536   */\n      swap2\n      swap1\n      pop\n      jump\t// out\n        /* \"#utility.yul\":7542:7696   */\n    tag_112:\n        /* \"#utility.yul\":7626:7632   */\n      dup3\n        /* \"#utility.yul\":7621:7624   */\n      dup2\n        /* \"#utility.yul\":7616:7619   */\n      dup4\n        /* \"#utility.yul\":7603:7633   */\n      calldatacopy\n        /* \"#utility.yul\":7688:7689   */\n      0x00\n        /* \"#utility.yul\":7679:7685   */\n      dup4\n        /* \"#utility.yul\":7674:7677   */\n      dup4\n        /* \"#utility.yul\":7670:7686   */\n      add\n        /* \"#utility.yul\":7663:7690   */\n      mstore\n        /* \"#utility.yul\":7542:7696   */\n      pop\n      pop\n      pop\n      jump\t// out\n        /* \"#utility.yul\":7702:8009   */\n    tag_158:\n        /* \"#utility.yul\":7770:7771   */\n      0x00\n        /* \"#utility.yul\":7780:7893   */\n    tag_209:\n        /* \"#utility.yul\":7794:7800   */\n      dup4\n        /* \"#utility.yul\":7791:7792   */\n      dup2\n        /* \"#utility.yul\":7788:7801   */\n      lt\n        /* \"#utility.yul\":7780:7893   */\n      iszero\n      tag_211\n      jumpi\n        /* \"#utility.yul\":7879:7880   */\n      dup1\n        /* \"#utility.yul\":7874:7877   */\n      dup3\n        /* \"#utility.yul\":7870:7881   */\n      add\n        /* \"#utility.yul\":7864:7882   */\n      mload\n        /* \"#utility.yul\":7860:7861   */\n      dup2\n        /* \"#utility.yul\":7855:7858   */\n      dup5\n        /* \"#utility.yul\":7851:7862   */\n      add\n        /* \"#utility.yul\":7844:7883   */\n      mstore\n        /* \"#utility.yul\":7816:7818   */\n      0x20\n        /* \"#utility.yul\":7813:7814   */\n      dup2\n        /* \"#utility.yul\":7809:7819   */\n      add\n        /* \"#utility.yul\":7804:7819   */\n      swap1\n      pop\n        /* \"#utility.yul\":7780:7893   */\n      jump(tag_209)\n    tag_211:\n        /* \"#utility.yul\":7911:7917   */\n      dup4\n        /* \"#utility.yul\":7908:7909   */\n      dup2\n        /* \"#utility.yul\":7905:7918   */\n      gt\n        /* \"#utility.yul\":7902:8003   */\n      iszero\n      tag_212\n      jumpi\n        /* \"#utility.yul\":7991:7992   */\n      0x00\n        /* \"#utility.yul\":7982:7988   */\n      dup5\n        /* \"#utility.yul\":7977:7980   */\n      dup5\n        /* \"#utility.yul\":7973:7989   */\n      add\n        /* \"#utility.yul\":7966:7993   */\n      mstore\n        /* \"#utility.yul\":7902:8003   */\n    tag_212:\n        /* \"#utility.yul\":7751:8009   */\n      pop\n        /* \"#utility.yul\":7702:8009   */\n      pop\n      pop\n      pop\n      jump\t// out\n        /* \"#utility.yul\":8015:8335   */\n    tag_54:\n        /* \"#utility.yul\":8059:8065   */\n      0x00\n        /* \"#utility.yul\":8096:8097   */\n      0x02\n        /* \"#utility.yul\":8090:8094   */\n      dup3\n        /* \"#utility.yul\":8086:8098   */\n      div\n        /* \"#utility.yul\":8076:8098   */\n      swap1\n      pop\n        /* \"#utility.yul\":8143:8144   */\n      0x01\n        /* \"#utility.yul\":8137:8141   */\n      dup3\n        /* \"#utility.yul\":8133:8145   */\n      and\n        /* \"#utility.yul\":8164:8182   */\n      dup1\n        /* \"#utility.yul\":8154:8235   */\n      tag_214\n      jumpi\n        /* \"#utility.yul\":8220:8224   */\n      0x7f\n        /* \"#utility.yul\":8212:8218   */\n      dup3\n        /* \"#utility.yul\":8208:8225   */\n      and\n        /* \"#utility.yul\":8198:8225   */\n      swap2\n      pop\n        /* \"#utility.yul\":8154:8235   */\n    tag_214:\n        /* \"#utility.yul\":8282:8284   */\n      0x20\n        /* \"#utility.yul\":8274:8280   */\n      dup3\n        /* \"#utility.yul\":8271:8285   */\n      lt\n        /* \"#utility.yul\":8251:8269   */\n      dup2\n        /* \"#utility.yul\":8248:8286   */\n      eq\n        /* \"#utility.yul\":8245:8329   */\n      iszero\n      tag_215\n      jumpi\n        /* \"#utility.yul\":8301:8319   */\n      tag_216\n      tag_217\n      jump\t// in\n    tag_216:\n        /* \"#utility.yul\":8245:8329   */\n    tag_215:\n        /* \"#utility.yul\":8066:8335   */\n      pop\n        /* \"#utility.yul\":8015:8335   */\n      swap2\n      swap1\n      pop\n      jump\t// out\n        /* \"#utility.yul\":8341:8622   */\n    tag_190:\n        /* \"#utility.yul\":8424:8451   */\n      tag_219\n        /* \"#utility.yul\":8446:8450   */\n      dup3\n        /* \"#utility.yul\":8424:8451   */\n      tag_160\n      jump\t// in\n    tag_219:\n        /* \"#utility.yul\":8416:8422   */\n      dup2\n        /* \"#utility.yul\":8412:8452   */\n      add\n        /* \"#utility.yul\":8554:8560   */\n      dup2\n        /* \"#utility.yul\":8542:8552   */\n      dup2\n        /* \"#utility.yul\":8539:8561   */\n      lt\n        /* \"#utility.yul\":8518:8536   */\n      0xffffffffffffffff\n        /* \"#utility.yul\":8506:8516   */\n      dup3\n        /* \"#utility.yul\":8503:8537   */\n      gt\n        /* \"#utility.yul\":8500:8562   */\n      or\n        /* \"#utility.yul\":8497:8585   */\n      iszero\n      tag_220\n      jumpi\n        /* \"#utility.yul\":8565:8583   */\n      tag_221\n      tag_195\n      jump\t// in\n    tag_221:\n        /* \"#utility.yul\":8497:8585   */\n    tag_220:\n        /* \"#utility.yul\":8605:8615   */\n      dup1\n        /* \"#utility.yul\":8601:8603   */\n      0x40\n        /* \"#utility.yul\":8594:8616   */\n      mstore\n        /* \"#utility.yul\":8384:8622   */\n      pop\n        /* \"#utility.yul\":8341:8622   */\n      pop\n      pop\n      jump\t// out\n        /* \"#utility.yul\":8628:8861   */\n    tag_41:\n        /* \"#utility.yul\":8667:8670   */\n      0x00\n        /* \"#utility.yul\":8690:8714   */\n      tag_223\n        /* \"#utility.yul\":8708:8713   */\n      dup3\n        /* \"#utility.yul\":8690:8714   */\n      tag_175\n      jump\t// in\n    tag_223:\n        /* \"#utility.yul\":8681:8714   */\n      swap2\n      pop\n        /* \"#utility.yul\":8736:8802   */\n      0xffffffffffffffffffffffffffffffffffffffffffffffffffffffffffffffff\n        /* \"#utility.yul\":8729:8734   */\n      dup3\n        /* \"#utility.yul\":8726:8803   */\n      eq\n        /* \"#utility.yul\":8723:8826   */\n      iszero\n      tag_224\n      jumpi\n        /* \"#utility.yul\":8806:8824   */\n      tag_225\n      tag_205\n      jump\t// in\n    tag_225:\n        /* \"#utility.yul\":8723:8826   */\n    tag_224:\n        /* \"#utility.yul\":8853:8854   */\n      0x01\n        /* \"#utility.yul\":8846:8851   */\n      dup3\n        /* \"#utility.yul\":8842:8855   */\n      add\n        /* \"#utility.yul\":8835:8855   */\n      swap1\n      pop\n        /* \"#utility.yul\":8628:8861   */\n      swap2\n      swap1\n      pop\n      jump\t// out\n        /* \"#utility.yul\":8867:9047   */\n    tag_205:\n        /* \"#utility.yul\":8915:8992   */\n      0x4e487b7100000000000000000000000000000000000000000000000000000000\n        /* \"#utility.yul\":8912:8913   */\n      0x00\n        /* \"#utility.yul\":8905:8993   */\n      mstore\n        /* \"#utility.yul\":9012:9016   */\n      0x11\n        /* \"#utility.yul\":9009:9010   */\n      0x04\n        /* \"#utility.yul\":9002:9017   */\n      mstore\n        /* \"#utility.yul\":9036:9040   */\n      0x24\n        /* \"#utility.yul\":9033:9034   */\n      0x00\n        /* \"#utility.yul\":9026:9041   */\n      revert\n        /* \"#utility.yul\":9053:9233   */\n    tag_217:\n        /* \"#utility.yul\":9101:9178   */\n      0x4e487b7100000000000000000000000000000000000000000000000000000000\n        /* \"#utility.yul\":9098:9099   */\n      0x00\n        /* \"#utility.yul\":9091:9179   */\n      mstore\n        /* \"#utility.yul\":9198:9202   */\n      0x22\n        /* \"#utility.yul\":9195:9196   */\n      0x04\n        /* \"#utility.yul\":9188:9203   */\n      mstore\n        /* \"#utility.yul\":9222:9226   */\n      0x24\n        /* \"#utility.yul\":9219:9220   */\n      0x00\n        /* \"#utility.yul\":9212:9227   */\n      revert\n        /* \"#utility.yul\":9239:9419   */\n    tag_195:\n        /* \"#utility.yul\":9287:9364   */\n      0x4e487b7100000000000000000000000000000000000000000000000000000000\n        /* \"#utility.yul\":9284:9285   */\n      0x00\n        /* \"#utility.yul\":9277:9365   */\n      mstore\n        /* \"#utility.yul\":9384:9388   */\n      0x41\n        /* \"#utility.yul\":9381:9382   */\n      0x04\n        /* \"#utility.yul\":9374:9389   */\n      mstore\n        /* \"#utility.yul\":9408:9412   */\n      0x24\n        /* \"#utility.yul\":9405:9406   */\n      0x00\n        /* \"#utility.yul\":9398:9413   */\n      revert\n        /* \"#utility.yul\":9425:9542   */\n    tag_117:\n        /* \"#utility.yul\":9534:9535   */\n      0x00\n        /* \"#utility.yul\":9531:9532   */\n      dup1\n        /* \"#utility.yul\":9524:9536   */\n      revert\n        /* \"#utility.yul\":9548:9665   */\n    tag_110:\n        /* \"#utility.yul\":9657:9658   */\n      0x00\n        /* \"#utility.yul\":9654:9655   */\n      dup1\n        /* \"#utility.yul\":9647:9659   */\n      revert\n        /* \"#utility.yul\":9671:9788   */\n    tag_129:\n        /* \"#utility.yul\":9780:9781   */\n      0x00\n        /* \"#utility.yul\":9777:9778   */\n      dup1\n        /* \"#utility.yul\":9770:9782   */\n      revert\n        /* \"#utility.yul\":9794:9911   */\n    tag_126:\n        /* \"#utility.yul\":9903:9904   */\n      0x00\n        /* \"#utility.yul\":9900:9901   */\n      dup1\n        /* \"#utility.yul\":9893:9905   */\n      revert\n        /* \"#utility.yul\":9917:10019   */\n    tag_160:\n        /* \"#utility.yul\":9958:9964   */\n      0x00\n        /* \"#utility.yul\":10009:10011   */\n      0x1f\n        /* \"#utility.yul\":10005:10012   */\n      not\n        /* \"#utility.yul\":10000:10002   */\n      0x1f\n        /* \"#utility.yul\":9993:9998   */\n      dup4\n        /* \"#utility.yul\":9989:10003   */\n      add\n        /* \"#utility.yul\":9985:10013   */\n      and\n        /* \"#utility.yul\":9975:10013   */\n      swap1\n      pop\n        /* \"#utility.yul\":9917:10019   */\n      swap2\n      swap1\n      pop\n      jump\t// out\n        /* \"#utility.yul\":10025:10191   */\n    tag_171:\n        /* \"#utility.yul\":10165:10183   */\n      0x4163636573732069732044656e69656400000000000000000000000000000000\n        /* \"#utility.yul\":10161:10162   */\n      0x00\n        /* \"#utility.yul\":10153:10159   */\n      dup3\n        /* \"#utility.yul\":10149:10163   */\n      add\n        /* \"#utility.yul\":10142:10184   */\n      mstore\n        /* \"#utility.yul\":10025:10191   */\n      pop\n      jump\t// out\n        /* \"#utility.yul\":10197:10319   */\n    tag_122:\n        /* \"#utility.yul\":10270:10294   */\n      tag_236\n        /* \"#utility.yul\":10288:10293   */\n      dup2\n        /* \"#utility.yul\":10270:10294   */\n      tag_175\n      jump\t// in\n    tag_236:\n        /* \"#utility.yul\":10263:10268   */\n      dup2\n        /* \"#utility.yul\":10260:10295   */\n      eq\n        /* \"#utility.yul\":10250:10313   */\n      tag_237\n      jumpi\n        /* \"#utility.yul\":10309:10310   */\n      0x00\n        /* \"#utility.yul\":10306:10307   */\n      dup1\n        /* \"#utility.yul\":10299:10311   */\n      revert\n        /* \"#utility.yul\":10250:10313   */\n    tag_237:\n        /* \"#utility.yul\":10197:10319   */\n      pop\n      jump\t// out\n    stop\n    data_346ae9e229890c1b5467b3280ac50efb3a563831aa4e9bb9392fe53f7d7de7e2 596f752077696c6c20626520616464656420746f2063616e646964617465206c697374206f6e636520796f75206172652076616c696461746564206279207468652061646d696e\n\n    auxdata: 0xa264697066735822122075e054354a85a898ba94c3428f5c0154e51bf1c872a514198fa157eedb87676e64736f6c63430008070033\n}\n",
				"bytecode": {
					"linkReferences": {},
					"object": "608060405234801561001057600080fd5b5033600260006101000a81548173ffffffffffffffffffffffffffffffffffffffff021916908373ffffffffffffffffffffffffffffffffffffffff160217905550610f0e806100616000396000f3fe608060405234801561001057600080fd5b50600436106100575760003560e01c80630fd94e641461005c57806317678bc31461008c5780633477ee2e146100bc578063a48bdb7c146100ee578063e96e5dc81461010c575b600080fd5b61007660048036038101906100719190610a11565b610128565b6040516100839190610b4d565b60405180910390f35b6100a660048036038101906100a19190610999565b6102dd565b6040516100b39190610b4d565b60405180910390f35b6100d660048036038101906100d19190610a6d565b610422565b6040516100e593929190610b6f565b60405180910390f35b6100f661055c565b6040516101039190610b4d565b60405180910390f35b61012660048036038101906101219190610950565b610710565b005b6060600260009054906101000a900473ffffffffffffffffffffffffffffffffffffffff1673ffffffffffffffffffffffffffffffffffffffff163373ffffffffffffffffffffffffffffffffffffffff16146101ba576040517f08c379a00000000000000000000000000000000000000000000000000000000081526004016101b190610bb4565b60405180910390fd5b600015156004846040516101ce9190610b36565b908152602001604051809103902060010160009054906101000a900460ff161515146101f957600080fd5b600080815461020790610d56565b919050819055506040518060400160405280838152602001600115158152506004846040516102369190610b36565b90815260200160405180910390206000820151816000015560208201518160010160006101000a81548160ff02191690831515021790555090505060016003600084815260200190815260200160002060020160008282546102989190610c51565b925050819055506040518060400160405280601b81526020017f596f752068617665207375636365737366756c6c7920766f7465640000000000815250905092915050565b6060600260009054906101000a900473ffffffffffffffffffffffffffffffffffffffff1673ffffffffffffffffffffffffffffffffffffffff163373ffffffffffffffffffffffffffffffffffffffff161461036f576040517f08c379a000000000000000000000000000000000000000000000000000000000815260040161036690610bb4565b60405180910390fd5b60006001600081548092919061038490610d56565b919050559050604051806060016040528085815260200184815260200160008152506003600083815260200190815260200160002060008201518160000190805190602001906103d5929190610828565b5060208201518160010190805190602001906103f2929190610828565b5060408201518160020155905050604051806080016040528060478152602001610e926047913991505092915050565b600360205280600052604060002060009150905080600001805461044590610cf3565b80601f016020809104026020016040519081016040528092919081815260200182805461047190610cf3565b80156104be5780601f10610493576101008083540402835291602001916104be565b820191906000526020600020905b8154815290600101906020018083116104a157829003601f168201915b5050505050908060010180546104d390610cf3565b80601f01602080910402602001604051908101604052809291908181526020018280546104ff90610cf3565b801561054c5780601f106105215761010080835404028352916020019161054c565b820191906000526020600020905b81548152906001019060200180831161052f57829003601f168201915b5050505050908060020154905083565b6060600260009054906101000a900473ffffffffffffffffffffffffffffffffffffffff1673ffffffffffffffffffffffffffffffffffffffff163373ffffffffffffffffffffffffffffffffffffffff16146105ee576040517f08c379a00000000000000000000000000000000000000000000000000000000081526004016105e590610bb4565b60405180910390fd5b600060036000808152602001908152602001600020600201549050600080600090505b60015481101561066957600360008281526020019081526020016000206002015483101561065657600360008281526020019081526020016000206002015492508091505b808061066190610d56565b915050610611565b5060036000828152602001908152602001600020600001805461068b90610cf3565b80601f01602080910402602001604051908101604052809291908181526020018280546106b790610cf3565b80156107045780601f106106d957610100808354040283529160200191610704565b820191906000526020600020905b8154815290600101906020018083116106e757829003601f168201915b50505050509250505090565b60005b60015481101561082457600060036000838152602001908152602001600020600001805461074090610cf3565b80601f016020809104026020016040519081016040528092919081815260200182805461076c90610cf3565b80156107b95780601f1061078e576101008083540402835291602001916107b9565b820191906000526020600020905b81548152906001019060200180831161079c57829003601f168201915b50505050509050826040516020016107d19190610b36565b60405160208183030381529060405280519060200120816040516020016107f89190610b36565b60405160208183030381529060405280519060200120505050808061081c90610d56565b915050610713565b5050565b82805461083490610cf3565b90600052602060002090601f016020900481019282610856576000855561089d565b82601f1061086f57805160ff191683800117855561089d565b8280016001018555821561089d579182015b8281111561089c578251825591602001919060010190610881565b5b5090506108aa91906108ae565b5090565b5b808211156108c75760008160009055506001016108af565b5090565b60006108de6108d984610bf9565b610bd4565b9050828152602081018484840111156108fa576108f9610e31565b5b610905848285610cb1565b509392505050565b600082601f83011261092257610921610e2c565b5b81356109328482602086016108cb565b91505092915050565b60008135905061094a81610e7a565b92915050565b60006020828403121561096657610965610e3b565b5b600082013567ffffffffffffffff81111561098457610983610e36565b5b6109908482850161090d565b91505092915050565b600080604083850312156109b0576109af610e3b565b5b600083013567ffffffffffffffff8111156109ce576109cd610e36565b5b6109da8582860161090d565b925050602083013567ffffffffffffffff8111156109fb576109fa610e36565b5b610a078582860161090d565b9150509250929050565b60008060408385031215610a2857610a27610e3b565b5b600083013567ffffffffffffffff811115610a4657610a45610e36565b5b610a528582860161090d565b9250506020610a638582860161093b565b9150509250929050565b600060208284031215610a8357610a82610e3b565b5b6000610a918482850161093b565b91505092915050565b6000610aa582610c2a565b610aaf8185610c35565b9350610abf818560208601610cc0565b610ac881610e40565b840191505092915050565b6000610ade82610c2a565b610ae88185610c46565b9350610af8818560208601610cc0565b80840191505092915050565b6000610b11601083610c35565b9150610b1c82610e51565b602082019050919050565b610b3081610ca7565b82525050565b6000610b428284610ad3565b915081905092915050565b60006020820190508181036000830152610b678184610a9a565b905092915050565b60006060820190508181036000830152610b898186610a9a565b90508181036020830152610b9d8185610a9a565b9050610bac6040830184610b27565b949350505050565b60006020820190508181036000830152610bcd81610b04565b9050919050565b6000610bde610bef565b9050610bea8282610d25565b919050565b6000604051905090565b600067ffffffffffffffff821115610c1457610c13610dfd565b5b610c1d82610e40565b9050602081019050919050565b600081519050919050565b600082825260208201905092915050565b600081905092915050565b6000610c5c82610ca7565b9150610c6783610ca7565b9250827fffffffffffffffffffffffffffffffffffffffffffffffffffffffffffffffff03821115610c9c57610c9b610d9f565b5b828201905092915050565b6000819050919050565b82818337600083830152505050565b60005b83811015610cde578082015181840152602081019050610cc3565b83811115610ced576000848401525b50505050565b60006002820490506001821680610d0b57607f821691505b60208210811415610d1f57610d1e610dce565b5b50919050565b610d2e82610e40565b810181811067ffffffffffffffff82111715610d4d57610d4c610dfd565b5b80604052505050565b6000610d6182610ca7565b91507fffffffffffffffffffffffffffffffffffffffffffffffffffffffffffffffff821415610d9457610d93610d9f565b5b600182019050919050565b7f4e487b7100000000000000000000000000000000000000000000000000000000600052601160045260246000fd5b7f4e487b7100000000000000000000000000000000000000000000000000000000600052602260045260246000fd5b7f4e487b7100000000000000000000000000000000000000000000000000000000600052604160045260246000fd5b600080fd5b600080fd5b600080fd5b600080fd5b6000601f19601f8301169050919050565b7f4163636573732069732044656e69656400000000000000000000000000000000600082015250565b610e8381610ca7565b8114610e8e57600080fd5b5056fe596f752077696c6c20626520616464656420746f2063616e646964617465206c697374206f6e636520796f75206172652076616c696461746564206279207468652061646d696ea264697066735822122075e054354a85a898ba94c3428f5c0154e51bf1c872a514198fa157eedb87676e64736f6c63430008070033",
					"opcodes": "PUSH1 0x80 PUSH1 0x40 MSTORE CALLVALUE DUP1 ISZERO PUSH2 0x10 JUMPI PUSH1 0x0 DUP1 REVERT JUMPDEST POP CALLER PUSH1 0x2 PUSH1 0x0 PUSH2 0x100 EXP DUP2 SLOAD DUP2 PUSH20 0xFFFFFFFFFFFFFFFFFFFFFFFFFFFFFFFFFFFFFFFF MUL NOT AND SWAP1 DUP4 PUSH20 0xFFFFFFFFFFFFFFFFFFFFFFFFFFFFFFFFFFFFFFFF AND MUL OR SWAP1 SSTORE POP PUSH2 0xF0E DUP1 PUSH2 0x61 PUSH1 0x0 CODECOPY PUSH1 0x0 RETURN INVALID PUSH1 0x80 PUSH1 0x40 MSTORE CALLVALUE DUP1 ISZERO PUSH2 0x10 JUMPI PUSH1 0x0 DUP1 REVERT JUMPDEST POP PUSH1 0x4 CALLDATASIZE LT PUSH2 0x57 JUMPI PUSH1 0x0 CALLDATALOAD PUSH1 0xE0 SHR DUP1 PUSH4 0xFD94E64 EQ PUSH2 0x5C JUMPI DUP1 PUSH4 0x17678BC3 EQ PUSH2 0x8C JUMPI DUP1 PUSH4 0x3477EE2E EQ PUSH2 0xBC JUMPI DUP1 PUSH4 0xA48BDB7C EQ PUSH2 0xEE JUMPI DUP1 PUSH4 0xE96E5DC8 EQ PUSH2 0x10C JUMPI JUMPDEST PUSH1 0x0 DUP1 REVERT JUMPDEST PUSH2 0x76 PUSH1 0x4 DUP1 CALLDATASIZE SUB DUP2 ADD SWAP1 PUSH2 0x71 SWAP2 SWAP1 PUSH2 0xA11 JUMP JUMPDEST PUSH2 0x128 JUMP JUMPDEST PUSH1 0x40 MLOAD PUSH2 0x83 SWAP2 SWAP1 PUSH2 0xB4D JUMP JUMPDEST PUSH1 0x40 MLOAD DUP1 SWAP2 SUB SWAP1 RETURN JUMPDEST PUSH2 0xA6 PUSH1 0x4 DUP1 CALLDATASIZE SUB DUP2 ADD SWAP1 PUSH2 0xA1 SWAP2 SWAP1 PUSH2 0x999 JUMP JUMPDEST PUSH2 0x2DD JUMP JUMPDEST PUSH1 0x40 MLOAD PUSH2 0xB3 SWAP2 SWAP1 PUSH2 0xB4D JUMP JUMPDEST PUSH1 0x40 MLOAD DUP1 SWAP2 SUB SWAP1 RETURN JUMPDEST PUSH2 0xD6 PUSH1 0x4 DUP1 CALLDATASIZE SUB DUP2 ADD SWAP1 PUSH2 0xD1 SWAP2 SWAP1 PUSH2 0xA6D JUMP JUMPDEST PUSH2 0x422 JUMP JUMPDEST PUSH1 0x40 MLOAD PUSH2 0xE5 SWAP4 SWAP3 SWAP2 SWAP1 PUSH2 0xB6F JUMP JUMPDEST PUSH1 0x40 MLOAD DUP1 SWAP2 SUB SWAP1 RETURN JUMPDEST PUSH2 0xF6 PUSH2 0x55C JUMP JUMPDEST PUSH1 0x40 MLOAD PUSH2 0x103 SWAP2 SWAP1 PUSH2 0xB4D JUMP JUMPDEST PUSH1 0x40 MLOAD DUP1 SWAP2 SUB SWAP1 RETURN JUMPDEST PUSH2 0x126 PUSH1 0x4 DUP1 CALLDATASIZE SUB DUP2 ADD SWAP1 PUSH2 0x121 SWAP2 SWAP1 PUSH2 0x950 JUMP JUMPDEST PUSH2 0x710 JUMP JUMPDEST STOP JUMPDEST PUSH1 0x60 PUSH1 0x2 PUSH1 0x0 SWAP1 SLOAD SWAP1 PUSH2 0x100 EXP SWAP1 DIV PUSH20 0xFFFFFFFFFFFFFFFFFFFFFFFFFFFFFFFFFFFFFFFF AND PUSH20 0xFFFFFFFFFFFFFFFFFFFFFFFFFFFFFFFFFFFFFFFF AND CALLER PUSH20 0xFFFFFFFFFFFFFFFFFFFFFFFFFFFFFFFFFFFFFFFF AND EQ PUSH2 0x1BA JUMPI PUSH1 0x40 MLOAD PUSH32 0x8C379A000000000000000000000000000000000000000000000000000000000 DUP2 MSTORE PUSH1 0x4 ADD PUSH2 0x1B1 SWAP1 PUSH2 0xBB4 JUMP JUMPDEST PUSH1 0x40 MLOAD DUP1 SWAP2 SUB SWAP1 REVERT JUMPDEST PUSH1 0x0 ISZERO ISZERO PUSH1 0x4 DUP5 PUSH1 0x40 MLOAD PUSH2 0x1CE SWAP2 SWAP1 PUSH2 0xB36 JUMP JUMPDEST SWAP1 DUP2 MSTORE PUSH1 0x20 ADD PUSH1 0x40 MLOAD DUP1 SWAP2 SUB SWAP1 KECCAK256 PUSH1 0x1 ADD PUSH1 0x0 SWAP1 SLOAD SWAP1 PUSH2 0x100 EXP SWAP1 DIV PUSH1 0xFF AND ISZERO ISZERO EQ PUSH2 0x1F9 JUMPI PUSH1 0x0 DUP1 REVERT JUMPDEST PUSH1 0x0 DUP1 DUP2 SLOAD PUSH2 0x207 SWAP1 PUSH2 0xD56 JUMP JUMPDEST SWAP2 SWAP1 POP DUP2 SWAP1 SSTORE POP PUSH1 0x40 MLOAD DUP1 PUSH1 0x40 ADD PUSH1 0x40 MSTORE DUP1 DUP4 DUP2 MSTORE PUSH1 0x20 ADD PUSH1 0x1 ISZERO ISZERO DUP2 MSTORE POP PUSH1 0x4 DUP5 PUSH1 0x40 MLOAD PUSH2 0x236 SWAP2 SWAP1 PUSH2 0xB36 JUMP JUMPDEST SWAP1 DUP2 MSTORE PUSH1 0x20 ADD PUSH1 0x40 MLOAD DUP1 SWAP2 SUB SWAP1 KECCAK256 PUSH1 0x0 DUP3 ADD MLOAD DUP2 PUSH1 0x0 ADD SSTORE PUSH1 0x20 DUP3 ADD MLOAD DUP2 PUSH1 0x1 ADD PUSH1 0x0 PUSH2 0x100 EXP DUP2 SLOAD DUP2 PUSH1 0xFF MUL NOT AND SWAP1 DUP4 ISZERO ISZERO MUL OR SWAP1 SSTORE POP SWAP1 POP POP PUSH1 0x1 PUSH1 0x3 PUSH1 0x0 DUP5 DUP2 MSTORE PUSH1 0x20 ADD SWAP1 DUP2 MSTORE PUSH1 0x20 ADD PUSH1 0x0 KECCAK256 PUSH1 0x2 ADD PUSH1 0x0 DUP3 DUP3 SLOAD PUSH2 0x298 SWAP2 SWAP1 PUSH2 0xC51 JUMP JUMPDEST SWAP3 POP POP DUP2 SWAP1 SSTORE POP PUSH1 0x40 MLOAD DUP1 PUSH1 0x40 ADD PUSH1 0x40 MSTORE DUP1 PUSH1 0x1B DUP2 MSTORE PUSH1 0x20 ADD PUSH32 0x596F752068617665207375636365737366756C6C7920766F7465640000000000 DUP2 MSTORE POP SWAP1 POP SWAP3 SWAP2 POP POP JUMP JUMPDEST PUSH1 0x60 PUSH1 0x2 PUSH1 0x0 SWAP1 SLOAD SWAP1 PUSH2 0x100 EXP SWAP1 DIV PUSH20 0xFFFFFFFFFFFFFFFFFFFFFFFFFFFFFFFFFFFFFFFF AND PUSH20 0xFFFFFFFFFFFFFFFFFFFFFFFFFFFFFFFFFFFFFFFF AND CALLER PUSH20 0xFFFFFFFFFFFFFFFFFFFFFFFFFFFFFFFFFFFFFFFF AND EQ PUSH2 0x36F JUMPI PUSH1 0x40 MLOAD PUSH32 0x8C379A000000000000000000000000000000000000000000000000000000000 DUP2 MSTORE PUSH1 0x4 ADD PUSH2 0x366 SWAP1 PUSH2 0xBB4 JUMP JUMPDEST PUSH1 0x40 MLOAD DUP1 SWAP2 SUB SWAP1 REVERT JUMPDEST PUSH1 0x0 PUSH1 0x1 PUSH1 0x0 DUP2 SLOAD DUP1 SWAP3 SWAP2 SWAP1 PUSH2 0x384 SWAP1 PUSH2 0xD56 JUMP JUMPDEST SWAP2 SWAP1 POP SSTORE SWAP1 POP PUSH1 0x40 MLOAD DUP1 PUSH1 0x60 ADD PUSH1 0x40 MSTORE DUP1 DUP6 DUP2 MSTORE PUSH1 0x20 ADD DUP5 DUP2 MSTORE PUSH1 0x20 ADD PUSH1 0x0 DUP2 MSTORE POP PUSH1 0x3 PUSH1 0x0 DUP4 DUP2 MSTORE PUSH1 0x20 ADD SWAP1 DUP2 MSTORE PUSH1 0x20 ADD PUSH1 0x0 KECCAK256 PUSH1 0x0 DUP3 ADD MLOAD DUP2 PUSH1 0x0 ADD SWAP1 DUP1 MLOAD SWAP1 PUSH1 0x20 ADD SWAP1 PUSH2 0x3D5 SWAP3 SWAP2 SWAP1 PUSH2 0x828 JUMP JUMPDEST POP PUSH1 0x20 DUP3 ADD MLOAD DUP2 PUSH1 0x1 ADD SWAP1 DUP1 MLOAD SWAP1 PUSH1 0x20 ADD SWAP1 PUSH2 0x3F2 SWAP3 SWAP2 SWAP1 PUSH2 0x828 JUMP JUMPDEST POP PUSH1 0x40 DUP3 ADD MLOAD DUP2 PUSH1 0x2 ADD SSTORE SWAP1 POP POP PUSH1 0x40 MLOAD DUP1 PUSH1 0x80 ADD PUSH1 0x40 MSTORE DUP1 PUSH1 0x47 DUP2 MSTORE PUSH1 0x20 ADD PUSH2 0xE92 PUSH1 0x47 SWAP2 CODECOPY SWAP2 POP POP SWAP3 SWAP2 POP POP JUMP JUMPDEST PUSH1 0x3 PUSH1 0x20 MSTORE DUP1 PUSH1 0x0 MSTORE PUSH1 0x40 PUSH1 0x0 KECCAK256 PUSH1 0x0 SWAP2 POP SWAP1 POP DUP1 PUSH1 0x0 ADD DUP1 SLOAD PUSH2 0x445 SWAP1 PUSH2 0xCF3 JUMP JUMPDEST DUP1 PUSH1 0x1F ADD PUSH1 0x20 DUP1 SWAP2 DIV MUL PUSH1 0x20 ADD PUSH1 0x40 MLOAD SWAP1 DUP2 ADD PUSH1 0x40 MSTORE DUP1 SWAP3 SWAP2 SWAP1 DUP2 DUP2 MSTORE PUSH1 0x20 ADD DUP3 DUP1 SLOAD PUSH2 0x471 SWAP1 PUSH2 0xCF3 JUMP JUMPDEST DUP1 ISZERO PUSH2 0x4BE JUMPI DUP1 PUSH1 0x1F LT PUSH2 0x493 JUMPI PUSH2 0x100 DUP1 DUP4 SLOAD DIV MUL DUP4 MSTORE SWAP2 PUSH1 0x20 ADD SWAP2 PUSH2 0x4BE JUMP JUMPDEST DUP3 ADD SWAP2 SWAP1 PUSH1 0x0 MSTORE PUSH1 0x20 PUSH1 0x0 KECCAK256 SWAP1 JUMPDEST DUP2 SLOAD DUP2 MSTORE SWAP1 PUSH1 0x1 ADD SWAP1 PUSH1 0x20 ADD DUP1 DUP4 GT PUSH2 0x4A1 JUMPI DUP3 SWAP1 SUB PUSH1 0x1F AND DUP3 ADD SWAP2 JUMPDEST POP POP POP POP POP SWAP1 DUP1 PUSH1 0x1 ADD DUP1 SLOAD PUSH2 0x4D3 SWAP1 PUSH2 0xCF3 JUMP JUMPDEST DUP1 PUSH1 0x1F ADD PUSH1 0x20 DUP1 SWAP2 DIV MUL PUSH1 0x20 ADD PUSH1 0x40 MLOAD SWAP1 DUP2 ADD PUSH1 0x40 MSTORE DUP1 SWAP3 SWAP2 SWAP1 DUP2 DUP2 MSTORE PUSH1 0x20 ADD DUP3 DUP1 SLOAD PUSH2 0x4FF SWAP1 PUSH2 0xCF3 JUMP JUMPDEST DUP1 ISZERO PUSH2 0x54C JUMPI DUP1 PUSH1 0x1F LT PUSH2 0x521 JUMPI PUSH2 0x100 DUP1 DUP4 SLOAD DIV MUL DUP4 MSTORE SWAP2 PUSH1 0x20 ADD SWAP2 PUSH2 0x54C JUMP JUMPDEST DUP3 ADD SWAP2 SWAP1 PUSH1 0x0 MSTORE PUSH1 0x20 PUSH1 0x0 KECCAK256 SWAP1 JUMPDEST DUP2 SLOAD DUP2 MSTORE SWAP1 PUSH1 0x1 ADD SWAP1 PUSH1 0x20 ADD DUP1 DUP4 GT PUSH2 0x52F JUMPI DUP3 SWAP1 SUB PUSH1 0x1F AND DUP3 ADD SWAP2 JUMPDEST POP POP POP POP POP SWAP1 DUP1 PUSH1 0x2 ADD SLOAD SWAP1 POP DUP4 JUMP JUMPDEST PUSH1 0x60 PUSH1 0x2 PUSH1 0x0 SWAP1 SLOAD SWAP1 PUSH2 0x100 EXP SWAP1 DIV PUSH20 0xFFFFFFFFFFFFFFFFFFFFFFFFFFFFFFFFFFFFFFFF AND PUSH20 0xFFFFFFFFFFFFFFFFFFFFFFFFFFFFFFFFFFFFFFFF AND CALLER PUSH20 0xFFFFFFFFFFFFFFFFFFFFFFFFFFFFFFFFFFFFFFFF AND EQ PUSH2 0x5EE JUMPI PUSH1 0x40 MLOAD PUSH32 0x8C379A000000000000000000000000000000000000000000000000000000000 DUP2 MSTORE PUSH1 0x4 ADD PUSH2 0x5E5 SWAP1 PUSH2 0xBB4 JUMP JUMPDEST PUSH1 0x40 MLOAD DUP1 SWAP2 SUB SWAP1 REVERT JUMPDEST PUSH1 0x0 PUSH1 0x3 PUSH1 0x0 DUP1 DUP2 MSTORE PUSH1 0x20 ADD SWAP1 DUP2 MSTORE PUSH1 0x20 ADD PUSH1 0x0 KECCAK256 PUSH1 0x2 ADD SLOAD SWAP1 POP PUSH1 0x0 DUP1 PUSH1 0x0 SWAP1 POP JUMPDEST PUSH1 0x1 SLOAD DUP2 LT ISZERO PUSH2 0x669 JUMPI PUSH1 0x3 PUSH1 0x0 DUP3 DUP2 MSTORE PUSH1 0x20 ADD SWAP1 DUP2 MSTORE PUSH1 0x20 ADD PUSH1 0x0 KECCAK256 PUSH1 0x2 ADD SLOAD DUP4 LT ISZERO PUSH2 0x656 JUMPI PUSH1 0x3 PUSH1 0x0 DUP3 DUP2 MSTORE PUSH1 0x20 ADD SWAP1 DUP2 MSTORE PUSH1 0x20 ADD PUSH1 0x0 KECCAK256 PUSH1 0x2 ADD SLOAD SWAP3 POP DUP1 SWAP2 POP JUMPDEST DUP1 DUP1 PUSH2 0x661 SWAP1 PUSH2 0xD56 JUMP JUMPDEST SWAP2 POP POP PUSH2 0x611 JUMP JUMPDEST POP PUSH1 0x3 PUSH1 0x0 DUP3 DUP2 MSTORE PUSH1 0x20 ADD SWAP1 DUP2 MSTORE PUSH1 0x20 ADD PUSH1 0x0 KECCAK256 PUSH1 0x0 ADD DUP1 SLOAD PUSH2 0x68B SWAP1 PUSH2 0xCF3 JUMP JUMPDEST DUP1 PUSH1 0x1F ADD PUSH1 0x20 DUP1 SWAP2 DIV MUL PUSH1 0x20 ADD PUSH1 0x40 MLOAD SWAP1 DUP2 ADD PUSH1 0x40 MSTORE DUP1 SWAP3 SWAP2 SWAP1 DUP2 DUP2 MSTORE PUSH1 0x20 ADD DUP3 DUP1 SLOAD PUSH2 0x6B7 SWAP1 PUSH2 0xCF3 JUMP JUMPDEST DUP1 ISZERO PUSH2 0x704 JUMPI DUP1 PUSH1 0x1F LT PUSH2 0x6D9 JUMPI PUSH2 0x100 DUP1 DUP4 SLOAD DIV MUL DUP4 MSTORE SWAP2 PUSH1 0x20 ADD SWAP2 PUSH2 0x704 JUMP JUMPDEST DUP3 ADD SWAP2 SWAP1 PUSH1 0x0 MSTORE PUSH1 0x20 PUSH1 0x0 KECCAK256 SWAP1 JUMPDEST DUP2 SLOAD DUP2 MSTORE SWAP1 PUSH1 0x1 ADD SWAP1 PUSH1 0x20 ADD DUP1 DUP4 GT PUSH2 0x6E7 JUMPI DUP3 SWAP1 SUB PUSH1 0x1F AND DUP3 ADD SWAP2 JUMPDEST POP POP POP POP POP SWAP3 POP POP POP SWAP1 JUMP JUMPDEST PUSH1 0x0 JUMPDEST PUSH1 0x1 SLOAD DUP2 LT ISZERO PUSH2 0x824 JUMPI PUSH1 0x0 PUSH1 0x3 PUSH1 0x0 DUP4 DUP2 MSTORE PUSH1 0x20 ADD SWAP1 DUP2 MSTORE PUSH1 0x20 ADD PUSH1 0x0 KECCAK256 PUSH1 0x0 ADD DUP1 SLOAD PUSH2 0x740 SWAP1 PUSH2 0xCF3 JUMP JUMPDEST DUP1 PUSH1 0x1F ADD PUSH1 0x20 DUP1 SWAP2 DIV MUL PUSH1 0x20 ADD PUSH1 0x40 MLOAD SWAP1 DUP2 ADD PUSH1 0x40 MSTORE DUP1 SWAP3 SWAP2 SWAP1 DUP2 DUP2 MSTORE PUSH1 0x20 ADD DUP3 DUP1 SLOAD PUSH2 0x76C SWAP1 PUSH2 0xCF3 JUMP JUMPDEST DUP1 ISZERO PUSH2 0x7B9 JUMPI DUP1 PUSH1 0x1F LT PUSH2 0x78E JUMPI PUSH2 0x100 DUP1 DUP4 SLOAD DIV MUL DUP4 MSTORE SWAP2 PUSH1 0x20 ADD SWAP2 PUSH2 0x7B9 JUMP JUMPDEST DUP3 ADD SWAP2 SWAP1 PUSH1 0x0 MSTORE PUSH1 0x20 PUSH1 0x0 KECCAK256 SWAP1 JUMPDEST DUP2 SLOAD DUP2 MSTORE SWAP1 PUSH1 0x1 ADD SWAP1 PUSH1 0x20 ADD DUP1 DUP4 GT PUSH2 0x79C JUMPI DUP3 SWAP1 SUB PUSH1 0x1F AND DUP3 ADD SWAP2 JUMPDEST POP POP POP POP POP SWAP1 POP DUP3 PUSH1 0x40 MLOAD PUSH1 0x20 ADD PUSH2 0x7D1 SWAP2 SWAP1 PUSH2 0xB36 JUMP JUMPDEST PUSH1 0x40 MLOAD PUSH1 0x20 DUP2 DUP4 SUB SUB DUP2 MSTORE SWAP1 PUSH1 0x40 MSTORE DUP1 MLOAD SWAP1 PUSH1 0x20 ADD KECCAK256 DUP2 PUSH1 0x40 MLOAD PUSH1 0x20 ADD PUSH2 0x7F8 SWAP2 SWAP1 PUSH2 0xB36 JUMP JUMPDEST PUSH1 0x40 MLOAD PUSH1 0x20 DUP2 DUP4 SUB SUB DUP2 MSTORE SWAP1 PUSH1 0x40 MSTORE DUP1 MLOAD SWAP1 PUSH1 0x20 ADD KECCAK256 POP POP POP DUP1 DUP1 PUSH2 0x81C SWAP1 PUSH2 0xD56 JUMP JUMPDEST SWAP2 POP POP PUSH2 0x713 JUMP JUMPDEST POP POP JUMP JUMPDEST DUP3 DUP1 SLOAD PUSH2 0x834 SWAP1 PUSH2 0xCF3 JUMP JUMPDEST SWAP1 PUSH1 0x0 MSTORE PUSH1 0x20 PUSH1 0x0 KECCAK256 SWAP1 PUSH1 0x1F ADD PUSH1 0x20 SWAP1 DIV DUP2 ADD SWAP3 DUP3 PUSH2 0x856 JUMPI PUSH1 0x0 DUP6 SSTORE PUSH2 0x89D JUMP JUMPDEST DUP3 PUSH1 0x1F LT PUSH2 0x86F JUMPI DUP1 MLOAD PUSH1 0xFF NOT AND DUP4 DUP1 ADD OR DUP6 SSTORE PUSH2 0x89D JUMP JUMPDEST DUP3 DUP1 ADD PUSH1 0x1 ADD DUP6 SSTORE DUP3 ISZERO PUSH2 0x89D JUMPI SWAP2 DUP3 ADD JUMPDEST DUP3 DUP2 GT ISZERO PUSH2 0x89C JUMPI DUP3 MLOAD DUP3 SSTORE SWAP2 PUSH1 0x20 ADD SWAP2 SWAP1 PUSH1 0x1 ADD SWAP1 PUSH2 0x881 JUMP JUMPDEST JUMPDEST POP SWAP1 POP PUSH2 0x8AA SWAP2 SWAP1 PUSH2 0x8AE JUMP JUMPDEST POP SWAP1 JUMP JUMPDEST JUMPDEST DUP1 DUP3 GT ISZERO PUSH2 0x8C7 JUMPI PUSH1 0x0 DUP2 PUSH1 0x0 SWAP1 SSTORE POP PUSH1 0x1 ADD PUSH2 0x8AF JUMP JUMPDEST POP SWAP1 JUMP JUMPDEST PUSH1 0x0 PUSH2 0x8DE PUSH2 0x8D9 DUP5 PUSH2 0xBF9 JUMP JUMPDEST PUSH2 0xBD4 JUMP JUMPDEST SWAP1 POP DUP3 DUP2 MSTORE PUSH1 0x20 DUP2 ADD DUP5 DUP5 DUP5 ADD GT ISZERO PUSH2 0x8FA JUMPI PUSH2 0x8F9 PUSH2 0xE31 JUMP JUMPDEST JUMPDEST PUSH2 0x905 DUP5 DUP3 DUP6 PUSH2 0xCB1 JUMP JUMPDEST POP SWAP4 SWAP3 POP POP POP JUMP JUMPDEST PUSH1 0x0 DUP3 PUSH1 0x1F DUP4 ADD SLT PUSH2 0x922 JUMPI PUSH2 0x921 PUSH2 0xE2C JUMP JUMPDEST JUMPDEST DUP2 CALLDATALOAD PUSH2 0x932 DUP5 DUP3 PUSH1 0x20 DUP7 ADD PUSH2 0x8CB JUMP JUMPDEST SWAP2 POP POP SWAP3 SWAP2 POP POP JUMP JUMPDEST PUSH1 0x0 DUP2 CALLDATALOAD SWAP1 POP PUSH2 0x94A DUP2 PUSH2 0xE7A JUMP JUMPDEST SWAP3 SWAP2 POP POP JUMP JUMPDEST PUSH1 0x0 PUSH1 0x20 DUP3 DUP5 SUB SLT ISZERO PUSH2 0x966 JUMPI PUSH2 0x965 PUSH2 0xE3B JUMP JUMPDEST JUMPDEST PUSH1 0x0 DUP3 ADD CALLDATALOAD PUSH8 0xFFFFFFFFFFFFFFFF DUP2 GT ISZERO PUSH2 0x984 JUMPI PUSH2 0x983 PUSH2 0xE36 JUMP JUMPDEST JUMPDEST PUSH2 0x990 DUP5 DUP3 DUP6 ADD PUSH2 0x90D JUMP JUMPDEST SWAP2 POP POP SWAP3 SWAP2 POP POP JUMP JUMPDEST PUSH1 0x0 DUP1 PUSH1 0x40 DUP4 DUP6 SUB SLT ISZERO PUSH2 0x9B0 JUMPI PUSH2 0x9AF PUSH2 0xE3B JUMP JUMPDEST JUMPDEST PUSH1 0x0 DUP4 ADD CALLDATALOAD PUSH8 0xFFFFFFFFFFFFFFFF DUP2 GT ISZERO PUSH2 0x9CE JUMPI PUSH2 0x9CD PUSH2 0xE36 JUMP JUMPDEST JUMPDEST PUSH2 0x9DA DUP6 DUP3 DUP7 ADD PUSH2 0x90D JUMP JUMPDEST SWAP3 POP POP PUSH1 0x20 DUP4 ADD CALLDATALOAD PUSH8 0xFFFFFFFFFFFFFFFF DUP2 GT ISZERO PUSH2 0x9FB JUMPI PUSH2 0x9FA PUSH2 0xE36 JUMP JUMPDEST JUMPDEST PUSH2 0xA07 DUP6 DUP3 DUP7 ADD PUSH2 0x90D JUMP JUMPDEST SWAP2 POP POP SWAP3 POP SWAP3 SWAP1 POP JUMP JUMPDEST PUSH1 0x0 DUP1 PUSH1 0x40 DUP4 DUP6 SUB SLT ISZERO PUSH2 0xA28 JUMPI PUSH2 0xA27 PUSH2 0xE3B JUMP JUMPDEST JUMPDEST PUSH1 0x0 DUP4 ADD CALLDATALOAD PUSH8 0xFFFFFFFFFFFFFFFF DUP2 GT ISZERO PUSH2 0xA46 JUMPI PUSH2 0xA45 PUSH2 0xE36 JUMP JUMPDEST JUMPDEST PUSH2 0xA52 DUP6 DUP3 DUP7 ADD PUSH2 0x90D JUMP JUMPDEST SWAP3 POP POP PUSH1 0x20 PUSH2 0xA63 DUP6 DUP3 DUP7 ADD PUSH2 0x93B JUMP JUMPDEST SWAP2 POP POP SWAP3 POP SWAP3 SWAP1 POP JUMP JUMPDEST PUSH1 0x0 PUSH1 0x20 DUP3 DUP5 SUB SLT ISZERO PUSH2 0xA83 JUMPI PUSH2 0xA82 PUSH2 0xE3B JUMP JUMPDEST JUMPDEST PUSH1 0x0 PUSH2 0xA91 DUP5 DUP3 DUP6 ADD PUSH2 0x93B JUMP JUMPDEST SWAP2 POP POP SWAP3 SWAP2 POP POP JUMP JUMPDEST PUSH1 0x0 PUSH2 0xAA5 DUP3 PUSH2 0xC2A JUMP JUMPDEST PUSH2 0xAAF DUP2 DUP6 PUSH2 0xC35 JUMP JUMPDEST SWAP4 POP PUSH2 0xABF DUP2 DUP6 PUSH1 0x20 DUP7 ADD PUSH2 0xCC0 JUMP JUMPDEST PUSH2 0xAC8 DUP2 PUSH2 0xE40 JUMP JUMPDEST DUP5 ADD SWAP2 POP POP SWAP3 SWAP2 POP POP JUMP JUMPDEST PUSH1 0x0 PUSH2 0xADE DUP3 PUSH2 0xC2A JUMP JUMPDEST PUSH2 0xAE8 DUP2 DUP6 PUSH2 0xC46 JUMP JUMPDEST SWAP4 POP PUSH2 0xAF8 DUP2 DUP6 PUSH1 0x20 DUP7 ADD PUSH2 0xCC0 JUMP JUMPDEST DUP1 DUP5 ADD SWAP2 POP POP SWAP3 SWAP2 POP POP JUMP JUMPDEST PUSH1 0x0 PUSH2 0xB11 PUSH1 0x10 DUP4 PUSH2 0xC35 JUMP JUMPDEST SWAP2 POP PUSH2 0xB1C DUP3 PUSH2 0xE51 JUMP JUMPDEST PUSH1 0x20 DUP3 ADD SWAP1 POP SWAP2 SWAP1 POP JUMP JUMPDEST PUSH2 0xB30 DUP2 PUSH2 0xCA7 JUMP JUMPDEST DUP3 MSTORE POP POP JUMP JUMPDEST PUSH1 0x0 PUSH2 0xB42 DUP3 DUP5 PUSH2 0xAD3 JUMP JUMPDEST SWAP2 POP DUP2 SWAP1 POP SWAP3 SWAP2 POP POP JUMP JUMPDEST PUSH1 0x0 PUSH1 0x20 DUP3 ADD SWAP1 POP DUP2 DUP2 SUB PUSH1 0x0 DUP4 ADD MSTORE PUSH2 0xB67 DUP2 DUP5 PUSH2 0xA9A JUMP JUMPDEST SWAP1 POP SWAP3 SWAP2 POP POP JUMP JUMPDEST PUSH1 0x0 PUSH1 0x60 DUP3 ADD SWAP1 POP DUP2 DUP2 SUB PUSH1 0x0 DUP4 ADD MSTORE PUSH2 0xB89 DUP2 DUP7 PUSH2 0xA9A JUMP JUMPDEST SWAP1 POP DUP2 DUP2 SUB PUSH1 0x20 DUP4 ADD MSTORE PUSH2 0xB9D DUP2 DUP6 PUSH2 0xA9A JUMP JUMPDEST SWAP1 POP PUSH2 0xBAC PUSH1 0x40 DUP4 ADD DUP5 PUSH2 0xB27 JUMP JUMPDEST SWAP5 SWAP4 POP POP POP POP JUMP JUMPDEST PUSH1 0x0 PUSH1 0x20 DUP3 ADD SWAP1 POP DUP2 DUP2 SUB PUSH1 0x0 DUP4 ADD MSTORE PUSH2 0xBCD DUP2 PUSH2 0xB04 JUMP JUMPDEST SWAP1 POP SWAP2 SWAP1 POP JUMP JUMPDEST PUSH1 0x0 PUSH2 0xBDE PUSH2 0xBEF JUMP JUMPDEST SWAP1 POP PUSH2 0xBEA DUP3 DUP3 PUSH2 0xD25 JUMP JUMPDEST SWAP2 SWAP1 POP JUMP JUMPDEST PUSH1 0x0 PUSH1 0x40 MLOAD SWAP1 POP SWAP1 JUMP JUMPDEST PUSH1 0x0 PUSH8 0xFFFFFFFFFFFFFFFF DUP3 GT ISZERO PUSH2 0xC14 JUMPI PUSH2 0xC13 PUSH2 0xDFD JUMP JUMPDEST JUMPDEST PUSH2 0xC1D DUP3 PUSH2 0xE40 JUMP JUMPDEST SWAP1 POP PUSH1 0x20 DUP2 ADD SWAP1 POP SWAP2 SWAP1 POP JUMP JUMPDEST PUSH1 0x0 DUP2 MLOAD SWAP1 POP SWAP2 SWAP1 POP JUMP JUMPDEST PUSH1 0x0 DUP3 DUP3 MSTORE PUSH1 0x20 DUP3 ADD SWAP1 POP SWAP3 SWAP2 POP POP JUMP JUMPDEST PUSH1 0x0 DUP2 SWAP1 POP SWAP3 SWAP2 POP POP JUMP JUMPDEST PUSH1 0x0 PUSH2 0xC5C DUP3 PUSH2 0xCA7 JUMP JUMPDEST SWAP2 POP PUSH2 0xC67 DUP4 PUSH2 0xCA7 JUMP JUMPDEST SWAP3 POP DUP3 PUSH32 0xFFFFFFFFFFFFFFFFFFFFFFFFFFFFFFFFFFFFFFFFFFFFFFFFFFFFFFFFFFFFFFFF SUB DUP3 GT ISZERO PUSH2 0xC9C JUMPI PUSH2 0xC9B PUSH2 0xD9F JUMP JUMPDEST JUMPDEST DUP3 DUP3 ADD SWAP1 POP SWAP3 SWAP2 POP POP JUMP JUMPDEST PUSH1 0x0 DUP2 SWAP1 POP SWAP2 SWAP1 POP JUMP JUMPDEST DUP3 DUP2 DUP4 CALLDATACOPY PUSH1 0x0 DUP4 DUP4 ADD MSTORE POP POP POP JUMP JUMPDEST PUSH1 0x0 JUMPDEST DUP4 DUP2 LT ISZERO PUSH2 0xCDE JUMPI DUP1 DUP3 ADD MLOAD DUP2 DUP5 ADD MSTORE PUSH1 0x20 DUP2 ADD SWAP1 POP PUSH2 0xCC3 JUMP JUMPDEST DUP4 DUP2 GT ISZERO PUSH2 0xCED JUMPI PUSH1 0x0 DUP5 DUP5 ADD MSTORE JUMPDEST POP POP POP POP JUMP JUMPDEST PUSH1 0x0 PUSH1 0x2 DUP3 DIV SWAP1 POP PUSH1 0x1 DUP3 AND DUP1 PUSH2 0xD0B JUMPI PUSH1 0x7F DUP3 AND SWAP2 POP JUMPDEST PUSH1 0x20 DUP3 LT DUP2 EQ ISZERO PUSH2 0xD1F JUMPI PUSH2 0xD1E PUSH2 0xDCE JUMP JUMPDEST JUMPDEST POP SWAP2 SWAP1 POP JUMP JUMPDEST PUSH2 0xD2E DUP3 PUSH2 0xE40 JUMP JUMPDEST DUP2 ADD DUP2 DUP2 LT PUSH8 0xFFFFFFFFFFFFFFFF DUP3 GT OR ISZERO PUSH2 0xD4D JUMPI PUSH2 0xD4C PUSH2 0xDFD JUMP JUMPDEST JUMPDEST DUP1 PUSH1 0x40 MSTORE POP POP POP JUMP JUMPDEST PUSH1 0x0 PUSH2 0xD61 DUP3 PUSH2 0xCA7 JUMP JUMPDEST SWAP2 POP PUSH32 0xFFFFFFFFFFFFFFFFFFFFFFFFFFFFFFFFFFFFFFFFFFFFFFFFFFFFFFFFFFFFFFFF DUP3 EQ ISZERO PUSH2 0xD94 JUMPI PUSH2 0xD93 PUSH2 0xD9F JUMP JUMPDEST JUMPDEST PUSH1 0x1 DUP3 ADD SWAP1 POP SWAP2 SWAP1 POP JUMP JUMPDEST PUSH32 0x4E487B7100000000000000000000000000000000000000000000000000000000 PUSH1 0x0 MSTORE PUSH1 0x11 PUSH1 0x4 MSTORE PUSH1 0x24 PUSH1 0x0 REVERT JUMPDEST PUSH32 0x4E487B7100000000000000000000000000000000000000000000000000000000 PUSH1 0x0 MSTORE PUSH1 0x22 PUSH1 0x4 MSTORE PUSH1 0x24 PUSH1 0x0 REVERT JUMPDEST PUSH32 0x4E487B7100000000000000000000000000000000000000000000000000000000 PUSH1 0x0 MSTORE PUSH1 0x41 PUSH1 0x4 MSTORE PUSH1 0x24 PUSH1 0x0 REVERT JUMPDEST PUSH1 0x0 DUP1 REVERT JUMPDEST PUSH1 0x0 DUP1 REVERT JUMPDEST PUSH1 0x0 DUP1 REVERT JUMPDEST PUSH1 0x0 DUP1 REVERT JUMPDEST PUSH1 0x0 PUSH1 0x1F NOT PUSH1 0x1F DUP4 ADD AND SWAP1 POP SWAP2 SWAP1 POP JUMP JUMPDEST PUSH32 0x4163636573732069732044656E69656400000000000000000000000000000000 PUSH1 0x0 DUP3 ADD MSTORE POP JUMP JUMPDEST PUSH2 0xE83 DUP2 PUSH2 0xCA7 JUMP JUMPDEST DUP2 EQ PUSH2 0xE8E JUMPI PUSH1 0x0 DUP1 REVERT JUMPDEST POP JUMP INVALID MSIZE PUSH16 0x752077696C6C20626520616464656420 PUSH21 0x6F2063616E646964617465206C697374206F6E6365 KECCAK256 PUSH26 0x6F75206172652076616C69646174656420627920746865206164 PUSH14 0x696EA264697066735822122075E0 SLOAD CALLDATALOAD 0x4A DUP6 0xA8 SWAP9 0xBA SWAP5 0xC3 TIMESTAMP DUP16 0x5C ADD SLOAD 0xE5 SHL CALL 0xC8 PUSH19 0xA514198FA157EEDB87676E64736F6C63430008 SMOD STOP CALLER "
				},
				"gasEstimates": {
					"creation": {
						"codeDepositCost": "770800",
						"executionCost": "25071",
						"totalCost": "795871"
					},
					"external": {
						"candidateEnrollment(string,string)": "infinite",
						"candidateIDGenerator(string)": "infinite",
						"candidates(uint256)": "infinite",
						"results()": "infinite",
						"voterEnrollment(string,uint256)": "infinite"
					}
				},
				"methodIdentifiers": {
					"candidateEnrollment(string,string)": "17678bc3",
					"candidateIDGenerator(string)": "e96e5dc8",
					"candidates(uint256)": "3477ee2e",
					"results()": "a48bdb7c",
					"voterEnrollment(string,uint256)": "0fd94e64"
				}
			},
			"storageLayout": {
				"storage": [
					{
						"astId": 3,
						"contract": "voting.sol:Voting",
						"label": "noOfVoters",
						"offset": 0,
						"slot": "0",
						"type": "t_uint256"
					},
					{
						"astId": 5,
						"contract": "voting.sol:Voting",
						"label": "noOfCandidates",
						"offset": 0,
						"slot": "1",
						"type": "t_uint256"
					},
					{
						"astId": 7,
						"contract": "voting.sol:Voting",
						"label": "admin",
						"offset": 0,
						"slot": "2",
						"type": "t_address"
					},
					{
						"astId": 12,
						"contract": "voting.sol:Voting",
						"label": "candidates",
						"offset": 0,
						"slot": "3",
						"type": "t_mapping(t_uint256,t_struct(Candidate)24_storage)"
					},
					{
						"astId": 17,
						"contract": "voting.sol:Voting",
						"label": "voters",
						"offset": 0,
						"slot": "4",
						"type": "t_mapping(t_string_memory_ptr,t_struct(Voter)29_storage)"
					}
				],
				"types": {
					"t_address": {
						"encoding": "inplace",
						"label": "address",
						"numberOfBytes": "20"
					},
					"t_bool": {
						"encoding": "inplace",
						"label": "bool",
						"numberOfBytes": "1"
					},
					"t_mapping(t_string_memory_ptr,t_struct(Voter)29_storage)": {
						"encoding": "mapping",
						"key": "t_string_memory_ptr",
						"label": "mapping(string => struct Voting.Voter)",
						"numberOfBytes": "32",
						"value": "t_struct(Voter)29_storage"
					},
					"t_mapping(t_uint256,t_struct(Candidate)24_storage)": {
						"encoding": "mapping",
						"key": "t_uint256",
						"label": "mapping(uint256 => struct Voting.Candidate)",
						"numberOfBytes": "32",
						"value": "t_struct(Candidate)24_storage"
					},
					"t_string_memory_ptr": {
						"encoding": "bytes",
						"label": "string",
						"numberOfBytes": "32"
					},
					"t_string_storage": {
						"encoding": "bytes",
						"label": "string",
						"numberOfBytes": "32"
					},
					"t_struct(Candidate)24_storage": {
						"encoding": "inplace",
						"label": "struct Voting.Candidate",
						"members": [
							{
								"astId": 19,
								"contract": "voting.sol:Voting",
								"label": "candidate_name",
								"offset": 0,
								"slot": "0",
								"type": "t_string_storage"
							},
							{
								"astId": 21,
								"contract": "voting.sol:Voting",
								"label": "candidate_description",
								"offset": 0,
								"slot": "1",
								"type": "t_string_storage"
							},
							{
								"astId": 23,
								"contract": "voting.sol:Voting",
								"label": "noOfVotes",
								"offset": 0,
								"slot": "2",
								"type": "t_uint256"
							}
						],
						"numberOfBytes": "96"
					},
					"t_struct(Voter)29_storage": {
						"encoding": "inplace",
						"label": "struct Voting.Voter",
						"members": [
							{
								"astId": 26,
								"contract": "voting.sol:Voting",
								"label": "candidate_id",
								"offset": 0,
								"slot": "0",
								"type": "t_uint256"
							},
							{
								"astId": 28,
								"contract": "voting.sol:Voting",
								"label": "hasVoted",
								"offset": 0,
								"slot": "1",
								"type": "t_bool"
							}
						],
						"numberOfBytes": "64"
					},
					"t_uint256": {
						"encoding": "inplace",
						"label": "uint256",
						"numberOfBytes": "32"
					}
				}
			},
			"userdoc": {
				"kind": "user",
				"methods": {},
				"version": 1
			}
		}
	}
}