{
	"voting.sol": {
		"Voting": {
			"abi": [
				{
					"inputs": [],
					"stateMutability": "nonpayable",
					"type": "constructor"
				},
				{
					"inputs": [
						{
							"internalType": "string",
							"name": "name",
							"type": "string"
						},
						{
							"internalType": "string",
							"name": "description",
							"type": "string"
						}
					],
					"name": "candidateEnrollment",
					"outputs": [
						{
							"internalType": "string",
							"name": "",
							"type": "string"
						}
					],
					"stateMutability": "nonpayable",
					"type": "function"
				},
				{
					"inputs": [
						{
							"internalType": "uint256",
							"name": "",
							"type": "uint256"
						}
					],
					"name": "enrolledCandidates",
					"outputs": [
						{
							"internalType": "string",
							"name": "candidate_name",
							"type": "string"
						},
						{
							"internalType": "string",
							"name": "candidate_description",
							"type": "string"
						},
						{
							"internalType": "bool",
							"name": "isValid",
							"type": "bool"
						}
					],
					"stateMutability": "view",
					"type": "function"
				},
				{
					"inputs": [
						{
							"internalType": "uint256",
							"name": "",
							"type": "uint256"
						}
					],
					"name": "validCandidates",
					"outputs": [
						{
							"internalType": "string",
							"name": "candidate_name",
							"type": "string"
						},
						{
							"internalType": "string",
							"name": "candidate_description",
							"type": "string"
						},
						{
							"internalType": "bool",
							"name": "isValid",
							"type": "bool"
						}
					],
					"stateMutability": "view",
					"type": "function"
				}
			],
			"devdoc": {
				"kind": "dev",
				"methods": {},
				"version": 1
			},
			"evm": {
				"assembly": "    /* \"voting.sol\":59:1022  contract Voting{\r... */\n  mstore(0x40, 0x80)\n    /* \"voting.sol\":522:572  constructor(){\r... */\n  callvalue\n  dup1\n  iszero\n  tag_1\n  jumpi\n  0x00\n  dup1\n  revert\ntag_1:\n  pop\n    /* \"voting.sol\":554:564  msg.sender */\n  caller\n    /* \"voting.sol\":546:551  admin */\n  0x03\n  0x00\n    /* \"voting.sol\":546:564  admin = msg.sender */\n  0x0100\n  exp\n  dup2\n  sload\n  dup2\n  0xffffffffffffffffffffffffffffffffffffffff\n  mul\n  not\n  and\n  swap1\n  dup4\n  0xffffffffffffffffffffffffffffffffffffffff\n  and\n  mul\n  or\n  swap1\n  sstore\n  pop\n    /* \"voting.sol\":59:1022  contract Voting{\r... */\n  dataSize(sub_0)\n  dup1\n  dataOffset(sub_0)\n  0x00\n  codecopy\n  0x00\n  return\nstop\n\nsub_0: assembly {\n        /* \"voting.sol\":59:1022  contract Voting{\r... */\n      mstore(0x40, 0x80)\n      callvalue\n      dup1\n      iszero\n      tag_1\n      jumpi\n      0x00\n      dup1\n      revert\n    tag_1:\n      pop\n      jumpi(tag_2, lt(calldatasize, 0x04))\n      shr(0xe0, calldataload(0x00))\n      dup1\n      0x17678bc3\n      eq\n      tag_3\n      jumpi\n      dup1\n      0x7e336329\n      eq\n      tag_4\n      jumpi\n      dup1\n      0xb0d18814\n      eq\n      tag_5\n      jumpi\n    tag_2:\n      0x00\n      dup1\n      revert\n        /* \"voting.sol\":682:1019  function candidateEnrollment(string memory name,string memory description) public onlyAdmin returns(string memory){\r... */\n    tag_3:\n      tag_6\n      0x04\n      dup1\n      calldatasize\n      sub\n      dup2\n      add\n      swap1\n      tag_7\n      swap2\n      swap1\n      tag_8\n      jump\t// in\n    tag_7:\n      tag_9\n      jump\t// in\n    tag_6:\n      mload(0x40)\n      tag_10\n      swap2\n      swap1\n      tag_11\n      jump\t// in\n    tag_10:\n      mload(0x40)\n      dup1\n      swap2\n      sub\n      swap1\n      return\n        /* \"voting.sol\":180:233  mapping (uint => Candidate) public enrolledCandidates */\n    tag_4:\n      tag_12\n      0x04\n      dup1\n      calldatasize\n      sub\n      dup2\n      add\n      swap1\n      tag_13\n      swap2\n      swap1\n      tag_14\n      jump\t// in\n    tag_13:\n      tag_15\n      jump\t// in\n    tag_12:\n      mload(0x40)\n      tag_16\n      swap4\n      swap3\n      swap2\n      swap1\n      tag_17\n      jump\t// in\n    tag_16:\n      mload(0x40)\n      dup1\n      swap2\n      sub\n      swap1\n      return\n        /* \"voting.sol\":240:290  mapping (uint => Candidate) public validCandidates */\n    tag_5:\n      tag_18\n      0x04\n      dup1\n      calldatasize\n      sub\n      dup2\n      add\n      swap1\n      tag_19\n      swap2\n      swap1\n      tag_14\n      jump\t// in\n    tag_19:\n      tag_20\n      jump\t// in\n    tag_18:\n      mload(0x40)\n      tag_21\n      swap4\n      swap3\n      swap2\n      swap1\n      tag_17\n      jump\t// in\n    tag_21:\n      mload(0x40)\n      dup1\n      swap2\n      sub\n      swap1\n      return\n        /* \"voting.sol\":682:1019  function candidateEnrollment(string memory name,string memory description) public onlyAdmin returns(string memory){\r... */\n    tag_9:\n        /* \"voting.sol\":782:795  string memory */\n      0x60\n        /* \"voting.sol\":631:636  admin */\n      0x03\n      0x00\n      swap1\n      sload\n      swap1\n      0x0100\n      exp\n      swap1\n      div\n      0xffffffffffffffffffffffffffffffffffffffff\n      and\n        /* \"voting.sol\":617:636  msg.sender == admin */\n      0xffffffffffffffffffffffffffffffffffffffff\n      and\n        /* \"voting.sol\":617:627  msg.sender */\n      caller\n        /* \"voting.sol\":617:636  msg.sender == admin */\n      0xffffffffffffffffffffffffffffffffffffffff\n      and\n      eq\n        /* \"voting.sol\":609:656  require(msg.sender == admin,\"Access is Denied\") */\n      tag_23\n      jumpi\n      mload(0x40)\n      0x08c379a000000000000000000000000000000000000000000000000000000000\n      dup2\n      mstore\n      0x04\n      add\n      tag_24\n      swap1\n      tag_25\n      jump\t// in\n    tag_24:\n      mload(0x40)\n      dup1\n      swap2\n      sub\n      swap1\n      revert\n    tag_23:\n        /* \"voting.sol\":807:823  uint candidateID */\n      0x00\n        /* \"voting.sol\":826:840  noOfCandidates */\n      0x01\n      0x00\n        /* \"voting.sol\":826:842  noOfCandidates++ */\n      dup2\n      sload\n      dup1\n      swap3\n      swap2\n      swap1\n      tag_27\n      swap1\n      tag_28\n      jump\t// in\n    tag_27:\n      swap2\n      swap1\n      pop\n      sstore\n        /* \"voting.sol\":807:842  uint candidateID = noOfCandidates++ */\n      swap1\n      pop\n        /* \"voting.sol\":887:920  Candidate(name,description,false) */\n      mload(0x40)\n      dup1\n      0x60\n      add\n      0x40\n      mstore\n      dup1\n        /* \"voting.sol\":897:901  name */\n      dup6\n        /* \"voting.sol\":887:920  Candidate(name,description,false) */\n      dup2\n      mstore\n      0x20\n      add\n        /* \"voting.sol\":902:913  description */\n      dup5\n        /* \"voting.sol\":887:920  Candidate(name,description,false) */\n      dup2\n      mstore\n      0x20\n      add\n        /* \"voting.sol\":914:919  false */\n      0x00\n        /* \"voting.sol\":887:920  Candidate(name,description,false) */\n      iszero\n      iszero\n      dup2\n      mstore\n      pop\n        /* \"voting.sol\":853:871  enrolledCandidates */\n      0x04\n        /* \"voting.sol\":853:884  enrolledCandidates[candidateID] */\n      0x00\n        /* \"voting.sol\":872:883  candidateID */\n      dup4\n        /* \"voting.sol\":853:884  enrolledCandidates[candidateID] */\n      dup2\n      mstore\n      0x20\n      add\n      swap1\n      dup2\n      mstore\n      0x20\n      add\n      0x00\n      keccak256\n        /* \"voting.sol\":853:920  enrolledCandidates[candidateID] = Candidate(name,description,false) */\n      0x00\n      dup3\n      add\n      mload\n      dup2\n      0x00\n      add\n      swap1\n      dup1\n      mload\n      swap1\n      0x20\n      add\n      swap1\n      tag_29\n      swap3\n      swap2\n      swap1\n      tag_30\n      jump\t// in\n    tag_29:\n      pop\n      0x20\n      dup3\n      add\n      mload\n      dup2\n      0x01\n      add\n      swap1\n      dup1\n      mload\n      swap1\n      0x20\n      add\n      swap1\n      tag_31\n      swap3\n      swap2\n      swap1\n      tag_30\n      jump\t// in\n    tag_31:\n      pop\n      0x40\n      dup3\n      add\n      mload\n      dup2\n      0x02\n      add\n      exp(0x0100, 0x00)\n      dup2\n      sload\n      dup2\n      0xff\n      mul\n      not\n      and\n      swap1\n      dup4\n      iszero\n      iszero\n      mul\n      or\n      swap1\n      sstore\n      pop\n      swap1\n      pop\n      pop\n        /* \"voting.sol\":931:1011  return \"You will be added to candidate list once you are validated by the admin\" */\n      mload(0x40)\n      dup1\n      0x80\n      add\n      0x40\n      mstore\n      dup1\n      0x47\n      dup2\n      mstore\n      0x20\n      add\n      data_346ae9e229890c1b5467b3280ac50efb3a563831aa4e9bb9392fe53f7d7de7e2\n      0x47\n      swap2\n      codecopy\n      swap2\n      pop\n      pop\n        /* \"voting.sol\":682:1019  function candidateEnrollment(string memory name,string memory description) public onlyAdmin returns(string memory){\r... */\n      swap3\n      swap2\n      pop\n      pop\n      jump\t// out\n        /* \"voting.sol\":180:233  mapping (uint => Candidate) public enrolledCandidates */\n    tag_15:\n      mstore(0x20, 0x04)\n      dup1\n      0x00\n      mstore\n      keccak256(0x00, 0x40)\n      0x00\n      swap2\n      pop\n      swap1\n      pop\n      dup1\n      0x00\n      add\n      dup1\n      sload\n      tag_32\n      swap1\n      tag_33\n      jump\t// in\n    tag_32:\n      dup1\n      0x1f\n      add\n      0x20\n      dup1\n      swap2\n      div\n      mul\n      0x20\n      add\n      mload(0x40)\n      swap1\n      dup2\n      add\n      0x40\n      mstore\n      dup1\n      swap3\n      swap2\n      swap1\n      dup2\n      dup2\n      mstore\n      0x20\n      add\n      dup3\n      dup1\n      sload\n      tag_34\n      swap1\n      tag_33\n      jump\t// in\n    tag_34:\n      dup1\n      iszero\n      tag_35\n      jumpi\n      dup1\n      0x1f\n      lt\n      tag_36\n      jumpi\n      0x0100\n      dup1\n      dup4\n      sload\n      div\n      mul\n      dup4\n      mstore\n      swap2\n      0x20\n      add\n      swap2\n      jump(tag_35)\n    tag_36:\n      dup3\n      add\n      swap2\n      swap1\n      0x00\n      mstore\n      keccak256(0x00, 0x20)\n      swap1\n    tag_37:\n      dup2\n      sload\n      dup2\n      mstore\n      swap1\n      0x01\n      add\n      swap1\n      0x20\n      add\n      dup1\n      dup4\n      gt\n      tag_37\n      jumpi\n      dup3\n      swap1\n      sub\n      0x1f\n      and\n      dup3\n      add\n      swap2\n    tag_35:\n      pop\n      pop\n      pop\n      pop\n      pop\n      swap1\n      dup1\n      0x01\n      add\n      dup1\n      sload\n      tag_38\n      swap1\n      tag_33\n      jump\t// in\n    tag_38:\n      dup1\n      0x1f\n      add\n      0x20\n      dup1\n      swap2\n      div\n      mul\n      0x20\n      add\n      mload(0x40)\n      swap1\n      dup2\n      add\n      0x40\n      mstore\n      dup1\n      swap3\n      swap2\n      swap1\n      dup2\n      dup2\n      mstore\n      0x20\n      add\n      dup3\n      dup1\n      sload\n      tag_39\n      swap1\n      tag_33\n      jump\t// in\n    tag_39:\n      dup1\n      iszero\n      tag_40\n      jumpi\n      dup1\n      0x1f\n      lt\n      tag_41\n      jumpi\n      0x0100\n      dup1\n      dup4\n      sload\n      div\n      mul\n      dup4\n      mstore\n      swap2\n      0x20\n      add\n      swap2\n      jump(tag_40)\n    tag_41:\n      dup3\n      add\n      swap2\n      swap1\n      0x00\n      mstore\n      keccak256(0x00, 0x20)\n      swap1\n    tag_42:\n      dup2\n      sload\n      dup2\n      mstore\n      swap1\n      0x01\n      add\n      swap1\n      0x20\n      add\n      dup1\n      dup4\n      gt\n      tag_42\n      jumpi\n      dup3\n      swap1\n      sub\n      0x1f\n      and\n      dup3\n      add\n      swap2\n    tag_40:\n      pop\n      pop\n      pop\n      pop\n      pop\n      swap1\n      dup1\n      0x02\n      add\n      0x00\n      swap1\n      sload\n      swap1\n      0x0100\n      exp\n      swap1\n      div\n      0xff\n      and\n      swap1\n      pop\n      dup4\n      jump\t// out\n        /* \"voting.sol\":240:290  mapping (uint => Candidate) public validCandidates */\n    tag_20:\n      mstore(0x20, 0x05)\n      dup1\n      0x00\n      mstore\n      keccak256(0x00, 0x40)\n      0x00\n      swap2\n      pop\n      swap1\n      pop\n      dup1\n      0x00\n      add\n      dup1\n      sload\n      tag_43\n      swap1\n      tag_33\n      jump\t// in\n    tag_43:\n      dup1\n      0x1f\n      add\n      0x20\n      dup1\n      swap2\n      div\n      mul\n      0x20\n      add\n      mload(0x40)\n      swap1\n      dup2\n      add\n      0x40\n      mstore\n      dup1\n      swap3\n      swap2\n      swap1\n      dup2\n      dup2\n      mstore\n      0x20\n      add\n      dup3\n      dup1\n      sload\n      tag_44\n      swap1\n      tag_33\n      jump\t// in\n    tag_44:\n      dup1\n      iszero\n      tag_45\n      jumpi\n      dup1\n      0x1f\n      lt\n      tag_46\n      jumpi\n      0x0100\n      dup1\n      dup4\n      sload\n      div\n      mul\n      dup4\n      mstore\n      swap2\n      0x20\n      add\n      swap2\n      jump(tag_45)\n    tag_46:\n      dup3\n      add\n      swap2\n      swap1\n      0x00\n      mstore\n      keccak256(0x00, 0x20)\n      swap1\n    tag_47:\n      dup2\n      sload\n      dup2\n      mstore\n      swap1\n      0x01\n      add\n      swap1\n      0x20\n      add\n      dup1\n      dup4\n      gt\n      tag_47\n      jumpi\n      dup3\n      swap1\n      sub\n      0x1f\n      and\n      dup3\n      add\n      swap2\n    tag_45:\n      pop\n      pop\n      pop\n      pop\n      pop\n      swap1\n      dup1\n      0x01\n      add\n      dup1\n      sload\n      tag_48\n      swap1\n      tag_33\n      jump\t// in\n    tag_48:\n      dup1\n      0x1f\n      add\n      0x20\n      dup1\n      swap2\n      div\n      mul\n      0x20\n      add\n      mload(0x40)\n      swap1\n      dup2\n      add\n      0x40\n      mstore\n      dup1\n      swap3\n      swap2\n      swap1\n      dup2\n      dup2\n      mstore\n      0x20\n      add\n      dup3\n      dup1\n      sload\n      tag_49\n      swap1\n      tag_33\n      jump\t// in\n    tag_49:\n      dup1\n      iszero\n      tag_50\n      jumpi\n      dup1\n      0x1f\n      lt\n      tag_51\n      jumpi\n      0x0100\n      dup1\n      dup4\n      sload\n      div\n      mul\n      dup4\n      mstore\n      swap2\n      0x20\n      add\n      swap2\n      jump(tag_50)\n    tag_51:\n      dup3\n      add\n      swap2\n      swap1\n      0x00\n      mstore\n      keccak256(0x00, 0x20)\n      swap1\n    tag_52:\n      dup2\n      sload\n      dup2\n      mstore\n      swap1\n      0x01\n      add\n      swap1\n      0x20\n      add\n      dup1\n      dup4\n      gt\n      tag_52\n      jumpi\n      dup3\n      swap1\n      sub\n      0x1f\n      and\n      dup3\n      add\n      swap2\n    tag_50:\n      pop\n      pop\n      pop\n      pop\n      pop\n      swap1\n      dup1\n      0x02\n      add\n      0x00\n      swap1\n      sload\n      swap1\n      0x0100\n      exp\n      swap1\n      div\n      0xff\n      and\n      swap1\n      pop\n      dup4\n      jump\t// out\n    tag_30:\n      dup3\n      dup1\n      sload\n      tag_53\n      swap1\n      tag_33\n      jump\t// in\n    tag_53:\n      swap1\n      0x00\n      mstore\n      keccak256(0x00, 0x20)\n      swap1\n      0x1f\n      add\n      0x20\n      swap1\n      div\n      dup2\n      add\n      swap3\n      dup3\n      tag_55\n      jumpi\n      0x00\n      dup6\n      sstore\n      jump(tag_54)\n    tag_55:\n      dup3\n      0x1f\n      lt\n      tag_56\n      jumpi\n      dup1\n      mload\n      not(0xff)\n      and\n      dup4\n      dup1\n      add\n      or\n      dup6\n      sstore\n      jump(tag_54)\n    tag_56:\n      dup3\n      dup1\n      add\n      0x01\n      add\n      dup6\n      sstore\n      dup3\n      iszero\n      tag_54\n      jumpi\n      swap2\n      dup3\n      add\n    tag_57:\n      dup3\n      dup2\n      gt\n      iszero\n      tag_58\n      jumpi\n      dup3\n      mload\n      dup3\n      sstore\n      swap2\n      0x20\n      add\n      swap2\n      swap1\n      0x01\n      add\n      swap1\n      jump(tag_57)\n    tag_58:\n    tag_54:\n      pop\n      swap1\n      pop\n      tag_59\n      swap2\n      swap1\n      tag_60\n      jump\t// in\n    tag_59:\n      pop\n      swap1\n      jump\t// out\n    tag_60:\n    tag_61:\n      dup1\n      dup3\n      gt\n      iszero\n      tag_62\n      jumpi\n      0x00\n      dup2\n      0x00\n      swap1\n      sstore\n      pop\n      0x01\n      add\n      jump(tag_61)\n    tag_62:\n      pop\n      swap1\n      jump\t// out\n        /* \"#utility.yul\":7:419   */\n    tag_64:\n        /* \"#utility.yul\":85:90   */\n      0x00\n        /* \"#utility.yul\":110:176   */\n      tag_66\n        /* \"#utility.yul\":126:175   */\n      tag_67\n        /* \"#utility.yul\":168:174   */\n      dup5\n        /* \"#utility.yul\":126:175   */\n      tag_68\n      jump\t// in\n    tag_67:\n        /* \"#utility.yul\":110:176   */\n      tag_69\n      jump\t// in\n    tag_66:\n        /* \"#utility.yul\":101:176   */\n      swap1\n      pop\n        /* \"#utility.yul\":199:205   */\n      dup3\n        /* \"#utility.yul\":192:197   */\n      dup2\n        /* \"#utility.yul\":185:206   */\n      mstore\n        /* \"#utility.yul\":237:241   */\n      0x20\n        /* \"#utility.yul\":230:235   */\n      dup2\n        /* \"#utility.yul\":226:242   */\n      add\n        /* \"#utility.yul\":275:278   */\n      dup5\n        /* \"#utility.yul\":266:272   */\n      dup5\n        /* \"#utility.yul\":261:264   */\n      dup5\n        /* \"#utility.yul\":257:273   */\n      add\n        /* \"#utility.yul\":254:279   */\n      gt\n        /* \"#utility.yul\":251:363   */\n      iszero\n      tag_70\n      jumpi\n        /* \"#utility.yul\":282:361   */\n      tag_71\n      tag_72\n      jump\t// in\n    tag_71:\n        /* \"#utility.yul\":251:363   */\n    tag_70:\n        /* \"#utility.yul\":372:413   */\n      tag_73\n        /* \"#utility.yul\":406:412   */\n      dup5\n        /* \"#utility.yul\":401:404   */\n      dup3\n        /* \"#utility.yul\":396:399   */\n      dup6\n        /* \"#utility.yul\":372:413   */\n      tag_74\n      jump\t// in\n    tag_73:\n        /* \"#utility.yul\":91:419   */\n      pop\n        /* \"#utility.yul\":7:419   */\n      swap4\n      swap3\n      pop\n      pop\n      pop\n      jump\t// out\n        /* \"#utility.yul\":439:779   */\n    tag_75:\n        /* \"#utility.yul\":495:500   */\n      0x00\n        /* \"#utility.yul\":544:547   */\n      dup3\n        /* \"#utility.yul\":537:541   */\n      0x1f\n        /* \"#utility.yul\":529:535   */\n      dup4\n        /* \"#utility.yul\":525:542   */\n      add\n        /* \"#utility.yul\":521:548   */\n      slt\n        /* \"#utility.yul\":511:633   */\n      tag_77\n      jumpi\n        /* \"#utility.yul\":552:631   */\n      tag_78\n      tag_79\n      jump\t// in\n    tag_78:\n        /* \"#utility.yul\":511:633   */\n    tag_77:\n        /* \"#utility.yul\":669:675   */\n      dup2\n        /* \"#utility.yul\":656:676   */\n      calldataload\n        /* \"#utility.yul\":694:773   */\n      tag_80\n        /* \"#utility.yul\":769:772   */\n      dup5\n        /* \"#utility.yul\":761:767   */\n      dup3\n        /* \"#utility.yul\":754:758   */\n      0x20\n        /* \"#utility.yul\":746:752   */\n      dup7\n        /* \"#utility.yul\":742:759   */\n      add\n        /* \"#utility.yul\":694:773   */\n      tag_64\n      jump\t// in\n    tag_80:\n        /* \"#utility.yul\":685:773   */\n      swap2\n      pop\n        /* \"#utility.yul\":501:779   */\n      pop\n        /* \"#utility.yul\":439:779   */\n      swap3\n      swap2\n      pop\n      pop\n      jump\t// out\n        /* \"#utility.yul\":785:924   */\n    tag_81:\n        /* \"#utility.yul\":831:836   */\n      0x00\n        /* \"#utility.yul\":869:875   */\n      dup2\n        /* \"#utility.yul\":856:876   */\n      calldataload\n        /* \"#utility.yul\":847:876   */\n      swap1\n      pop\n        /* \"#utility.yul\":885:918   */\n      tag_83\n        /* \"#utility.yul\":912:917   */\n      dup2\n        /* \"#utility.yul\":885:918   */\n      tag_84\n      jump\t// in\n    tag_83:\n        /* \"#utility.yul\":785:924   */\n      swap3\n      swap2\n      pop\n      pop\n      jump\t// out\n        /* \"#utility.yul\":930:1764   */\n    tag_8:\n        /* \"#utility.yul\":1018:1024   */\n      0x00\n        /* \"#utility.yul\":1026:1032   */\n      dup1\n        /* \"#utility.yul\":1075:1077   */\n      0x40\n        /* \"#utility.yul\":1063:1072   */\n      dup4\n        /* \"#utility.yul\":1054:1061   */\n      dup6\n        /* \"#utility.yul\":1050:1073   */\n      sub\n        /* \"#utility.yul\":1046:1078   */\n      slt\n        /* \"#utility.yul\":1043:1162   */\n      iszero\n      tag_86\n      jumpi\n        /* \"#utility.yul\":1081:1160   */\n      tag_87\n      tag_88\n      jump\t// in\n    tag_87:\n        /* \"#utility.yul\":1043:1162   */\n    tag_86:\n        /* \"#utility.yul\":1229:1230   */\n      0x00\n        /* \"#utility.yul\":1218:1227   */\n      dup4\n        /* \"#utility.yul\":1214:1231   */\n      add\n        /* \"#utility.yul\":1201:1232   */\n      calldataload\n        /* \"#utility.yul\":1259:1277   */\n      0xffffffffffffffff\n        /* \"#utility.yul\":1251:1257   */\n      dup2\n        /* \"#utility.yul\":1248:1278   */\n      gt\n        /* \"#utility.yul\":1245:1362   */\n      iszero\n      tag_89\n      jumpi\n        /* \"#utility.yul\":1281:1360   */\n      tag_90\n      tag_91\n      jump\t// in\n    tag_90:\n        /* \"#utility.yul\":1245:1362   */\n    tag_89:\n        /* \"#utility.yul\":1386:1449   */\n      tag_92\n        /* \"#utility.yul\":1441:1448   */\n      dup6\n        /* \"#utility.yul\":1432:1438   */\n      dup3\n        /* \"#utility.yul\":1421:1430   */\n      dup7\n        /* \"#utility.yul\":1417:1439   */\n      add\n        /* \"#utility.yul\":1386:1449   */\n      tag_75\n      jump\t// in\n    tag_92:\n        /* \"#utility.yul\":1376:1449   */\n      swap3\n      pop\n        /* \"#utility.yul\":1172:1459   */\n      pop\n        /* \"#utility.yul\":1526:1528   */\n      0x20\n        /* \"#utility.yul\":1515:1524   */\n      dup4\n        /* \"#utility.yul\":1511:1529   */\n      add\n        /* \"#utility.yul\":1498:1530   */\n      calldataload\n        /* \"#utility.yul\":1557:1575   */\n      0xffffffffffffffff\n        /* \"#utility.yul\":1549:1555   */\n      dup2\n        /* \"#utility.yul\":1546:1576   */\n      gt\n        /* \"#utility.yul\":1543:1660   */\n      iszero\n      tag_93\n      jumpi\n        /* \"#utility.yul\":1579:1658   */\n      tag_94\n      tag_91\n      jump\t// in\n    tag_94:\n        /* \"#utility.yul\":1543:1660   */\n    tag_93:\n        /* \"#utility.yul\":1684:1747   */\n      tag_95\n        /* \"#utility.yul\":1739:1746   */\n      dup6\n        /* \"#utility.yul\":1730:1736   */\n      dup3\n        /* \"#utility.yul\":1719:1728   */\n      dup7\n        /* \"#utility.yul\":1715:1737   */\n      add\n        /* \"#utility.yul\":1684:1747   */\n      tag_75\n      jump\t// in\n    tag_95:\n        /* \"#utility.yul\":1674:1747   */\n      swap2\n      pop\n        /* \"#utility.yul\":1469:1757   */\n      pop\n        /* \"#utility.yul\":930:1764   */\n      swap3\n      pop\n      swap3\n      swap1\n      pop\n      jump\t// out\n        /* \"#utility.yul\":1770:2099   */\n    tag_14:\n        /* \"#utility.yul\":1829:1835   */\n      0x00\n        /* \"#utility.yul\":1878:1880   */\n      0x20\n        /* \"#utility.yul\":1866:1875   */\n      dup3\n        /* \"#utility.yul\":1857:1864   */\n      dup5\n        /* \"#utility.yul\":1853:1876   */\n      sub\n        /* \"#utility.yul\":1849:1881   */\n      slt\n        /* \"#utility.yul\":1846:1965   */\n      iszero\n      tag_97\n      jumpi\n        /* \"#utility.yul\":1884:1963   */\n      tag_98\n      tag_88\n      jump\t// in\n    tag_98:\n        /* \"#utility.yul\":1846:1965   */\n    tag_97:\n        /* \"#utility.yul\":2004:2005   */\n      0x00\n        /* \"#utility.yul\":2029:2082   */\n      tag_99\n        /* \"#utility.yul\":2074:2081   */\n      dup5\n        /* \"#utility.yul\":2065:2071   */\n      dup3\n        /* \"#utility.yul\":2054:2063   */\n      dup6\n        /* \"#utility.yul\":2050:2072   */\n      add\n        /* \"#utility.yul\":2029:2082   */\n      tag_81\n      jump\t// in\n    tag_99:\n        /* \"#utility.yul\":2019:2082   */\n      swap2\n      pop\n        /* \"#utility.yul\":1975:2092   */\n      pop\n        /* \"#utility.yul\":1770:2099   */\n      swap3\n      swap2\n      pop\n      pop\n      jump\t// out\n        /* \"#utility.yul\":2105:2214   */\n    tag_100:\n        /* \"#utility.yul\":2186:2207   */\n      tag_102\n        /* \"#utility.yul\":2201:2206   */\n      dup2\n        /* \"#utility.yul\":2186:2207   */\n      tag_103\n      jump\t// in\n    tag_102:\n        /* \"#utility.yul\":2181:2184   */\n      dup3\n        /* \"#utility.yul\":2174:2208   */\n      mstore\n        /* \"#utility.yul\":2105:2214   */\n      pop\n      pop\n      jump\t// out\n        /* \"#utility.yul\":2220:2584   */\n    tag_104:\n        /* \"#utility.yul\":2308:2311   */\n      0x00\n        /* \"#utility.yul\":2336:2375   */\n      tag_106\n        /* \"#utility.yul\":2369:2374   */\n      dup3\n        /* \"#utility.yul\":2336:2375   */\n      tag_107\n      jump\t// in\n    tag_106:\n        /* \"#utility.yul\":2391:2462   */\n      tag_108\n        /* \"#utility.yul\":2455:2461   */\n      dup2\n        /* \"#utility.yul\":2450:2453   */\n      dup6\n        /* \"#utility.yul\":2391:2462   */\n      tag_109\n      jump\t// in\n    tag_108:\n        /* \"#utility.yul\":2384:2462   */\n      swap4\n      pop\n        /* \"#utility.yul\":2471:2523   */\n      tag_110\n        /* \"#utility.yul\":2516:2522   */\n      dup2\n        /* \"#utility.yul\":2511:2514   */\n      dup6\n        /* \"#utility.yul\":2504:2508   */\n      0x20\n        /* \"#utility.yul\":2497:2502   */\n      dup7\n        /* \"#utility.yul\":2493:2509   */\n      add\n        /* \"#utility.yul\":2471:2523   */\n      tag_111\n      jump\t// in\n    tag_110:\n        /* \"#utility.yul\":2548:2577   */\n      tag_112\n        /* \"#utility.yul\":2570:2576   */\n      dup2\n        /* \"#utility.yul\":2548:2577   */\n      tag_113\n      jump\t// in\n    tag_112:\n        /* \"#utility.yul\":2543:2546   */\n      dup5\n        /* \"#utility.yul\":2539:2578   */\n      add\n        /* \"#utility.yul\":2532:2578   */\n      swap2\n      pop\n        /* \"#utility.yul\":2312:2584   */\n      pop\n        /* \"#utility.yul\":2220:2584   */\n      swap3\n      swap2\n      pop\n      pop\n      jump\t// out\n        /* \"#utility.yul\":2590:2956   */\n    tag_114:\n        /* \"#utility.yul\":2732:2735   */\n      0x00\n        /* \"#utility.yul\":2753:2820   */\n      tag_116\n        /* \"#utility.yul\":2817:2819   */\n      0x10\n        /* \"#utility.yul\":2812:2815   */\n      dup4\n        /* \"#utility.yul\":2753:2820   */\n      tag_109\n      jump\t// in\n    tag_116:\n        /* \"#utility.yul\":2746:2820   */\n      swap2\n      pop\n        /* \"#utility.yul\":2829:2922   */\n      tag_117\n        /* \"#utility.yul\":2918:2921   */\n      dup3\n        /* \"#utility.yul\":2829:2922   */\n      tag_118\n      jump\t// in\n    tag_117:\n        /* \"#utility.yul\":2947:2949   */\n      0x20\n        /* \"#utility.yul\":2942:2945   */\n      dup3\n        /* \"#utility.yul\":2938:2950   */\n      add\n        /* \"#utility.yul\":2931:2950   */\n      swap1\n      pop\n        /* \"#utility.yul\":2590:2956   */\n      swap2\n      swap1\n      pop\n      jump\t// out\n        /* \"#utility.yul\":2962:3275   */\n    tag_11:\n        /* \"#utility.yul\":3075:3079   */\n      0x00\n        /* \"#utility.yul\":3113:3115   */\n      0x20\n        /* \"#utility.yul\":3102:3111   */\n      dup3\n        /* \"#utility.yul\":3098:3116   */\n      add\n        /* \"#utility.yul\":3090:3116   */\n      swap1\n      pop\n        /* \"#utility.yul\":3162:3171   */\n      dup2\n        /* \"#utility.yul\":3156:3160   */\n      dup2\n        /* \"#utility.yul\":3152:3172   */\n      sub\n        /* \"#utility.yul\":3148:3149   */\n      0x00\n        /* \"#utility.yul\":3137:3146   */\n      dup4\n        /* \"#utility.yul\":3133:3150   */\n      add\n        /* \"#utility.yul\":3126:3173   */\n      mstore\n        /* \"#utility.yul\":3190:3268   */\n      tag_120\n        /* \"#utility.yul\":3263:3267   */\n      dup2\n        /* \"#utility.yul\":3254:3260   */\n      dup5\n        /* \"#utility.yul\":3190:3268   */\n      tag_104\n      jump\t// in\n    tag_120:\n        /* \"#utility.yul\":3182:3268   */\n      swap1\n      pop\n        /* \"#utility.yul\":2962:3275   */\n      swap3\n      swap2\n      pop\n      pop\n      jump\t// out\n        /* \"#utility.yul\":3281:3893   */\n    tag_17:\n        /* \"#utility.yul\":3464:3468   */\n      0x00\n        /* \"#utility.yul\":3502:3504   */\n      0x60\n        /* \"#utility.yul\":3491:3500   */\n      dup3\n        /* \"#utility.yul\":3487:3505   */\n      add\n        /* \"#utility.yul\":3479:3505   */\n      swap1\n      pop\n        /* \"#utility.yul\":3551:3560   */\n      dup2\n        /* \"#utility.yul\":3545:3549   */\n      dup2\n        /* \"#utility.yul\":3541:3561   */\n      sub\n        /* \"#utility.yul\":3537:3538   */\n      0x00\n        /* \"#utility.yul\":3526:3535   */\n      dup4\n        /* \"#utility.yul\":3522:3539   */\n      add\n        /* \"#utility.yul\":3515:3562   */\n      mstore\n        /* \"#utility.yul\":3579:3657   */\n      tag_122\n        /* \"#utility.yul\":3652:3656   */\n      dup2\n        /* \"#utility.yul\":3643:3649   */\n      dup7\n        /* \"#utility.yul\":3579:3657   */\n      tag_104\n      jump\t// in\n    tag_122:\n        /* \"#utility.yul\":3571:3657   */\n      swap1\n      pop\n        /* \"#utility.yul\":3704:3713   */\n      dup2\n        /* \"#utility.yul\":3698:3702   */\n      dup2\n        /* \"#utility.yul\":3694:3714   */\n      sub\n        /* \"#utility.yul\":3689:3691   */\n      0x20\n        /* \"#utility.yul\":3678:3687   */\n      dup4\n        /* \"#utility.yul\":3674:3692   */\n      add\n        /* \"#utility.yul\":3667:3715   */\n      mstore\n        /* \"#utility.yul\":3732:3810   */\n      tag_123\n        /* \"#utility.yul\":3805:3809   */\n      dup2\n        /* \"#utility.yul\":3796:3802   */\n      dup6\n        /* \"#utility.yul\":3732:3810   */\n      tag_104\n      jump\t// in\n    tag_123:\n        /* \"#utility.yul\":3724:3810   */\n      swap1\n      pop\n        /* \"#utility.yul\":3820:3886   */\n      tag_124\n        /* \"#utility.yul\":3882:3884   */\n      0x40\n        /* \"#utility.yul\":3871:3880   */\n      dup4\n        /* \"#utility.yul\":3867:3885   */\n      add\n        /* \"#utility.yul\":3858:3864   */\n      dup5\n        /* \"#utility.yul\":3820:3886   */\n      tag_100\n      jump\t// in\n    tag_124:\n        /* \"#utility.yul\":3281:3893   */\n      swap5\n      swap4\n      pop\n      pop\n      pop\n      pop\n      jump\t// out\n        /* \"#utility.yul\":3899:4318   */\n    tag_25:\n        /* \"#utility.yul\":4065:4069   */\n      0x00\n        /* \"#utility.yul\":4103:4105   */\n      0x20\n        /* \"#utility.yul\":4092:4101   */\n      dup3\n        /* \"#utility.yul\":4088:4106   */\n      add\n        /* \"#utility.yul\":4080:4106   */\n      swap1\n      pop\n        /* \"#utility.yul\":4152:4161   */\n      dup2\n        /* \"#utility.yul\":4146:4150   */\n      dup2\n        /* \"#utility.yul\":4142:4162   */\n      sub\n        /* \"#utility.yul\":4138:4139   */\n      0x00\n        /* \"#utility.yul\":4127:4136   */\n      dup4\n        /* \"#utility.yul\":4123:4140   */\n      add\n        /* \"#utility.yul\":4116:4163   */\n      mstore\n        /* \"#utility.yul\":4180:4311   */\n      tag_126\n        /* \"#utility.yul\":4306:4310   */\n      dup2\n        /* \"#utility.yul\":4180:4311   */\n      tag_114\n      jump\t// in\n    tag_126:\n        /* \"#utility.yul\":4172:4311   */\n      swap1\n      pop\n        /* \"#utility.yul\":3899:4318   */\n      swap2\n      swap1\n      pop\n      jump\t// out\n        /* \"#utility.yul\":4324:4453   */\n    tag_69:\n        /* \"#utility.yul\":4358:4364   */\n      0x00\n        /* \"#utility.yul\":4385:4405   */\n      tag_128\n      tag_129\n      jump\t// in\n    tag_128:\n        /* \"#utility.yul\":4375:4405   */\n      swap1\n      pop\n        /* \"#utility.yul\":4414:4447   */\n      tag_130\n        /* \"#utility.yul\":4442:4446   */\n      dup3\n        /* \"#utility.yul\":4434:4440   */\n      dup3\n        /* \"#utility.yul\":4414:4447   */\n      tag_131\n      jump\t// in\n    tag_130:\n        /* \"#utility.yul\":4324:4453   */\n      swap2\n      swap1\n      pop\n      jump\t// out\n        /* \"#utility.yul\":4459:4534   */\n    tag_129:\n        /* \"#utility.yul\":4492:4498   */\n      0x00\n        /* \"#utility.yul\":4525:4527   */\n      0x40\n        /* \"#utility.yul\":4519:4528   */\n      mload\n        /* \"#utility.yul\":4509:4528   */\n      swap1\n      pop\n        /* \"#utility.yul\":4459:4534   */\n      swap1\n      jump\t// out\n        /* \"#utility.yul\":4540:4848   */\n    tag_68:\n        /* \"#utility.yul\":4602:4606   */\n      0x00\n        /* \"#utility.yul\":4692:4710   */\n      0xffffffffffffffff\n        /* \"#utility.yul\":4684:4690   */\n      dup3\n        /* \"#utility.yul\":4681:4711   */\n      gt\n        /* \"#utility.yul\":4678:4734   */\n      iszero\n      tag_134\n      jumpi\n        /* \"#utility.yul\":4714:4732   */\n      tag_135\n      tag_136\n      jump\t// in\n    tag_135:\n        /* \"#utility.yul\":4678:4734   */\n    tag_134:\n        /* \"#utility.yul\":4752:4781   */\n      tag_137\n        /* \"#utility.yul\":4774:4780   */\n      dup3\n        /* \"#utility.yul\":4752:4781   */\n      tag_113\n      jump\t// in\n    tag_137:\n        /* \"#utility.yul\":4744:4781   */\n      swap1\n      pop\n        /* \"#utility.yul\":4836:4840   */\n      0x20\n        /* \"#utility.yul\":4830:4834   */\n      dup2\n        /* \"#utility.yul\":4826:4841   */\n      add\n        /* \"#utility.yul\":4818:4841   */\n      swap1\n      pop\n        /* \"#utility.yul\":4540:4848   */\n      swap2\n      swap1\n      pop\n      jump\t// out\n        /* \"#utility.yul\":4854:4953   */\n    tag_107:\n        /* \"#utility.yul\":4906:4912   */\n      0x00\n        /* \"#utility.yul\":4940:4945   */\n      dup2\n        /* \"#utility.yul\":4934:4946   */\n      mload\n        /* \"#utility.yul\":4924:4946   */\n      swap1\n      pop\n        /* \"#utility.yul\":4854:4953   */\n      swap2\n      swap1\n      pop\n      jump\t// out\n        /* \"#utility.yul\":4959:5128   */\n    tag_109:\n        /* \"#utility.yul\":5043:5054   */\n      0x00\n        /* \"#utility.yul\":5077:5083   */\n      dup3\n        /* \"#utility.yul\":5072:5075   */\n      dup3\n        /* \"#utility.yul\":5065:5084   */\n      mstore\n        /* \"#utility.yul\":5117:5121   */\n      0x20\n        /* \"#utility.yul\":5112:5115   */\n      dup3\n        /* \"#utility.yul\":5108:5122   */\n      add\n        /* \"#utility.yul\":5093:5122   */\n      swap1\n      pop\n        /* \"#utility.yul\":4959:5128   */\n      swap3\n      swap2\n      pop\n      pop\n      jump\t// out\n        /* \"#utility.yul\":5134:5224   */\n    tag_103:\n        /* \"#utility.yul\":5168:5175   */\n      0x00\n        /* \"#utility.yul\":5211:5216   */\n      dup2\n        /* \"#utility.yul\":5204:5217   */\n      iszero\n        /* \"#utility.yul\":5197:5218   */\n      iszero\n        /* \"#utility.yul\":5186:5218   */\n      swap1\n      pop\n        /* \"#utility.yul\":5134:5224   */\n      swap2\n      swap1\n      pop\n      jump\t// out\n        /* \"#utility.yul\":5230:5307   */\n    tag_141:\n        /* \"#utility.yul\":5267:5274   */\n      0x00\n        /* \"#utility.yul\":5296:5301   */\n      dup2\n        /* \"#utility.yul\":5285:5301   */\n      swap1\n      pop\n        /* \"#utility.yul\":5230:5307   */\n      swap2\n      swap1\n      pop\n      jump\t// out\n        /* \"#utility.yul\":5313:5467   */\n    tag_74:\n        /* \"#utility.yul\":5397:5403   */\n      dup3\n        /* \"#utility.yul\":5392:5395   */\n      dup2\n        /* \"#utility.yul\":5387:5390   */\n      dup4\n        /* \"#utility.yul\":5374:5404   */\n      calldatacopy\n        /* \"#utility.yul\":5459:5460   */\n      0x00\n        /* \"#utility.yul\":5450:5456   */\n      dup4\n        /* \"#utility.yul\":5445:5448   */\n      dup4\n        /* \"#utility.yul\":5441:5457   */\n      add\n        /* \"#utility.yul\":5434:5461   */\n      mstore\n        /* \"#utility.yul\":5313:5467   */\n      pop\n      pop\n      pop\n      jump\t// out\n        /* \"#utility.yul\":5473:5780   */\n    tag_111:\n        /* \"#utility.yul\":5541:5542   */\n      0x00\n        /* \"#utility.yul\":5551:5664   */\n    tag_145:\n        /* \"#utility.yul\":5565:5571   */\n      dup4\n        /* \"#utility.yul\":5562:5563   */\n      dup2\n        /* \"#utility.yul\":5559:5572   */\n      lt\n        /* \"#utility.yul\":5551:5664   */\n      iszero\n      tag_147\n      jumpi\n        /* \"#utility.yul\":5650:5651   */\n      dup1\n        /* \"#utility.yul\":5645:5648   */\n      dup3\n        /* \"#utility.yul\":5641:5652   */\n      add\n        /* \"#utility.yul\":5635:5653   */\n      mload\n        /* \"#utility.yul\":5631:5632   */\n      dup2\n        /* \"#utility.yul\":5626:5629   */\n      dup5\n        /* \"#utility.yul\":5622:5633   */\n      add\n        /* \"#utility.yul\":5615:5654   */\n      mstore\n        /* \"#utility.yul\":5587:5589   */\n      0x20\n        /* \"#utility.yul\":5584:5585   */\n      dup2\n        /* \"#utility.yul\":5580:5590   */\n      add\n        /* \"#utility.yul\":5575:5590   */\n      swap1\n      pop\n        /* \"#utility.yul\":5551:5664   */\n      jump(tag_145)\n    tag_147:\n        /* \"#utility.yul\":5682:5688   */\n      dup4\n        /* \"#utility.yul\":5679:5680   */\n      dup2\n        /* \"#utility.yul\":5676:5689   */\n      gt\n        /* \"#utility.yul\":5673:5774   */\n      iszero\n      tag_148\n      jumpi\n        /* \"#utility.yul\":5762:5763   */\n      0x00\n        /* \"#utility.yul\":5753:5759   */\n      dup5\n        /* \"#utility.yul\":5748:5751   */\n      dup5\n        /* \"#utility.yul\":5744:5760   */\n      add\n        /* \"#utility.yul\":5737:5764   */\n      mstore\n        /* \"#utility.yul\":5673:5774   */\n    tag_148:\n        /* \"#utility.yul\":5522:5780   */\n      pop\n        /* \"#utility.yul\":5473:5780   */\n      pop\n      pop\n      pop\n      jump\t// out\n        /* \"#utility.yul\":5786:6106   */\n    tag_33:\n        /* \"#utility.yul\":5830:5836   */\n      0x00\n        /* \"#utility.yul\":5867:5868   */\n      0x02\n        /* \"#utility.yul\":5861:5865   */\n      dup3\n        /* \"#utility.yul\":5857:5869   */\n      div\n        /* \"#utility.yul\":5847:5869   */\n      swap1\n      pop\n        /* \"#utility.yul\":5914:5915   */\n      0x01\n        /* \"#utility.yul\":5908:5912   */\n      dup3\n        /* \"#utility.yul\":5904:5916   */\n      and\n        /* \"#utility.yul\":5935:5953   */\n      dup1\n        /* \"#utility.yul\":5925:6006   */\n      tag_150\n      jumpi\n        /* \"#utility.yul\":5991:5995   */\n      0x7f\n        /* \"#utility.yul\":5983:5989   */\n      dup3\n        /* \"#utility.yul\":5979:5996   */\n      and\n        /* \"#utility.yul\":5969:5996   */\n      swap2\n      pop\n        /* \"#utility.yul\":5925:6006   */\n    tag_150:\n        /* \"#utility.yul\":6053:6055   */\n      0x20\n        /* \"#utility.yul\":6045:6051   */\n      dup3\n        /* \"#utility.yul\":6042:6056   */\n      lt\n        /* \"#utility.yul\":6022:6040   */\n      dup2\n        /* \"#utility.yul\":6019:6057   */\n      eq\n        /* \"#utility.yul\":6016:6100   */\n      iszero\n      tag_151\n      jumpi\n        /* \"#utility.yul\":6072:6090   */\n      tag_152\n      tag_153\n      jump\t// in\n    tag_152:\n        /* \"#utility.yul\":6016:6100   */\n    tag_151:\n        /* \"#utility.yul\":5837:6106   */\n      pop\n        /* \"#utility.yul\":5786:6106   */\n      swap2\n      swap1\n      pop\n      jump\t// out\n        /* \"#utility.yul\":6112:6393   */\n    tag_131:\n        /* \"#utility.yul\":6195:6222   */\n      tag_155\n        /* \"#utility.yul\":6217:6221   */\n      dup3\n        /* \"#utility.yul\":6195:6222   */\n      tag_113\n      jump\t// in\n    tag_155:\n        /* \"#utility.yul\":6187:6193   */\n      dup2\n        /* \"#utility.yul\":6183:6223   */\n      add\n        /* \"#utility.yul\":6325:6331   */\n      dup2\n        /* \"#utility.yul\":6313:6323   */\n      dup2\n        /* \"#utility.yul\":6310:6332   */\n      lt\n        /* \"#utility.yul\":6289:6307   */\n      0xffffffffffffffff\n        /* \"#utility.yul\":6277:6287   */\n      dup3\n        /* \"#utility.yul\":6274:6308   */\n      gt\n        /* \"#utility.yul\":6271:6333   */\n      or\n        /* \"#utility.yul\":6268:6356   */\n      iszero\n      tag_156\n      jumpi\n        /* \"#utility.yul\":6336:6354   */\n      tag_157\n      tag_136\n      jump\t// in\n    tag_157:\n        /* \"#utility.yul\":6268:6356   */\n    tag_156:\n        /* \"#utility.yul\":6376:6386   */\n      dup1\n        /* \"#utility.yul\":6372:6374   */\n      0x40\n        /* \"#utility.yul\":6365:6387   */\n      mstore\n        /* \"#utility.yul\":6155:6393   */\n      pop\n        /* \"#utility.yul\":6112:6393   */\n      pop\n      pop\n      jump\t// out\n        /* \"#utility.yul\":6399:6632   */\n    tag_28:\n        /* \"#utility.yul\":6438:6441   */\n      0x00\n        /* \"#utility.yul\":6461:6485   */\n      tag_159\n        /* \"#utility.yul\":6479:6484   */\n      dup3\n        /* \"#utility.yul\":6461:6485   */\n      tag_141\n      jump\t// in\n    tag_159:\n        /* \"#utility.yul\":6452:6485   */\n      swap2\n      pop\n        /* \"#utility.yul\":6507:6573   */\n      0xffffffffffffffffffffffffffffffffffffffffffffffffffffffffffffffff\n        /* \"#utility.yul\":6500:6505   */\n      dup3\n        /* \"#utility.yul\":6497:6574   */\n      eq\n        /* \"#utility.yul\":6494:6597   */\n      iszero\n      tag_160\n      jumpi\n        /* \"#utility.yul\":6577:6595   */\n      tag_161\n      tag_162\n      jump\t// in\n    tag_161:\n        /* \"#utility.yul\":6494:6597   */\n    tag_160:\n        /* \"#utility.yul\":6624:6625   */\n      0x01\n        /* \"#utility.yul\":6617:6622   */\n      dup3\n        /* \"#utility.yul\":6613:6626   */\n      add\n        /* \"#utility.yul\":6606:6626   */\n      swap1\n      pop\n        /* \"#utility.yul\":6399:6632   */\n      swap2\n      swap1\n      pop\n      jump\t// out\n        /* \"#utility.yul\":6638:6818   */\n    tag_162:\n        /* \"#utility.yul\":6686:6763   */\n      0x4e487b7100000000000000000000000000000000000000000000000000000000\n        /* \"#utility.yul\":6683:6684   */\n      0x00\n        /* \"#utility.yul\":6676:6764   */\n      mstore\n        /* \"#utility.yul\":6783:6787   */\n      0x11\n        /* \"#utility.yul\":6780:6781   */\n      0x04\n        /* \"#utility.yul\":6773:6788   */\n      mstore\n        /* \"#utility.yul\":6807:6811   */\n      0x24\n        /* \"#utility.yul\":6804:6805   */\n      0x00\n        /* \"#utility.yul\":6797:6812   */\n      revert\n        /* \"#utility.yul\":6824:7004   */\n    tag_153:\n        /* \"#utility.yul\":6872:6949   */\n      0x4e487b7100000000000000000000000000000000000000000000000000000000\n        /* \"#utility.yul\":6869:6870   */\n      0x00\n        /* \"#utility.yul\":6862:6950   */\n      mstore\n        /* \"#utility.yul\":6969:6973   */\n      0x22\n        /* \"#utility.yul\":6966:6967   */\n      0x04\n        /* \"#utility.yul\":6959:6974   */\n      mstore\n        /* \"#utility.yul\":6993:6997   */\n      0x24\n        /* \"#utility.yul\":6990:6991   */\n      0x00\n        /* \"#utility.yul\":6983:6998   */\n      revert\n        /* \"#utility.yul\":7010:7190   */\n    tag_136:\n        /* \"#utility.yul\":7058:7135   */\n      0x4e487b7100000000000000000000000000000000000000000000000000000000\n        /* \"#utility.yul\":7055:7056   */\n      0x00\n        /* \"#utility.yul\":7048:7136   */\n      mstore\n        /* \"#utility.yul\":7155:7159   */\n      0x41\n        /* \"#utility.yul\":7152:7153   */\n      0x04\n        /* \"#utility.yul\":7145:7160   */\n      mstore\n        /* \"#utility.yul\":7179:7183   */\n      0x24\n        /* \"#utility.yul\":7176:7177   */\n      0x00\n        /* \"#utility.yul\":7169:7184   */\n      revert\n        /* \"#utility.yul\":7196:7313   */\n    tag_79:\n        /* \"#utility.yul\":7305:7306   */\n      0x00\n        /* \"#utility.yul\":7302:7303   */\n      dup1\n        /* \"#utility.yul\":7295:7307   */\n      revert\n        /* \"#utility.yul\":7319:7436   */\n    tag_72:\n        /* \"#utility.yul\":7428:7429   */\n      0x00\n        /* \"#utility.yul\":7425:7426   */\n      dup1\n        /* \"#utility.yul\":7418:7430   */\n      revert\n        /* \"#utility.yul\":7442:7559   */\n    tag_91:\n        /* \"#utility.yul\":7551:7552   */\n      0x00\n        /* \"#utility.yul\":7548:7549   */\n      dup1\n        /* \"#utility.yul\":7541:7553   */\n      revert\n        /* \"#utility.yul\":7565:7682   */\n    tag_88:\n        /* \"#utility.yul\":7674:7675   */\n      0x00\n        /* \"#utility.yul\":7671:7672   */\n      dup1\n        /* \"#utility.yul\":7664:7676   */\n      revert\n        /* \"#utility.yul\":7688:7790   */\n    tag_113:\n        /* \"#utility.yul\":7729:7735   */\n      0x00\n        /* \"#utility.yul\":7780:7782   */\n      0x1f\n        /* \"#utility.yul\":7776:7783   */\n      not\n        /* \"#utility.yul\":7771:7773   */\n      0x1f\n        /* \"#utility.yul\":7764:7769   */\n      dup4\n        /* \"#utility.yul\":7760:7774   */\n      add\n        /* \"#utility.yul\":7756:7784   */\n      and\n        /* \"#utility.yul\":7746:7784   */\n      swap1\n      pop\n        /* \"#utility.yul\":7688:7790   */\n      swap2\n      swap1\n      pop\n      jump\t// out\n        /* \"#utility.yul\":7796:7962   */\n    tag_118:\n        /* \"#utility.yul\":7936:7954   */\n      0x4163636573732069732044656e69656400000000000000000000000000000000\n        /* \"#utility.yul\":7932:7933   */\n      0x00\n        /* \"#utility.yul\":7924:7930   */\n      dup3\n        /* \"#utility.yul\":7920:7934   */\n      add\n        /* \"#utility.yul\":7913:7955   */\n      mstore\n        /* \"#utility.yul\":7796:7962   */\n      pop\n      jump\t// out\n        /* \"#utility.yul\":7968:8090   */\n    tag_84:\n        /* \"#utility.yul\":8041:8065   */\n      tag_173\n        /* \"#utility.yul\":8059:8064   */\n      dup2\n        /* \"#utility.yul\":8041:8065   */\n      tag_141\n      jump\t// in\n    tag_173:\n        /* \"#utility.yul\":8034:8039   */\n      dup2\n        /* \"#utility.yul\":8031:8066   */\n      eq\n        /* \"#utility.yul\":8021:8084   */\n      tag_174\n      jumpi\n        /* \"#utility.yul\":8080:8081   */\n      0x00\n        /* \"#utility.yul\":8077:8078   */\n      dup1\n        /* \"#utility.yul\":8070:8082   */\n      revert\n        /* \"#utility.yul\":8021:8084   */\n    tag_174:\n        /* \"#utility.yul\":7968:8090   */\n      pop\n      jump\t// out\n    stop\n    data_346ae9e229890c1b5467b3280ac50efb3a563831aa4e9bb9392fe53f7d7de7e2 596f752077696c6c20626520616464656420746f2063616e646964617465206c697374206f6e636520796f75206172652076616c696461746564206279207468652061646d696e\n\n    auxdata: 0xa26469706673582212207bb2ca0fd2d7839c821431a326b64c37776f1e121decac7d950c3a014152429d64736f6c63430008070033\n}\n",
				"bytecode": {
					"linkReferences": {},
					"object": "608060405234801561001057600080fd5b5033600360006101000a81548173ffffffffffffffffffffffffffffffffffffffff021916908373ffffffffffffffffffffffffffffffffffffffff160217905550610a69806100616000396000f3fe608060405234801561001057600080fd5b50600436106100415760003560e01c806317678bc3146100465780637e33632914610076578063b0d18814146100a8575b600080fd5b610060600480360381019061005b91906105ed565b6100da565b60405161006d91906106fd565b60405180910390f35b610090600480360381019061008b9190610665565b610237565b60405161009f9392919061071f565b60405180910390f35b6100c260048036038101906100bd9190610665565b61037e565b6040516100d19392919061071f565b60405180910390f35b6060600360009054906101000a900473ffffffffffffffffffffffffffffffffffffffff1673ffffffffffffffffffffffffffffffffffffffff163373ffffffffffffffffffffffffffffffffffffffff161461016c576040517f08c379a000000000000000000000000000000000000000000000000000000000815260040161016390610764565b60405180910390fd5b600060016000815480929190610181906108b1565b9190505590506040518060600160405280858152602001848152602001600015158152506004600083815260200190815260200160002060008201518160000190805190602001906101d49291906104c5565b5060208201518160010190805190602001906101f19291906104c5565b5060408201518160020160006101000a81548160ff0219169083151502179055509050506040518060800160405280604781526020016109ed6047913991505092915050565b600460205280600052604060002060009150905080600001805461025a9061084e565b80601f01602080910402602001604051908101604052809291908181526020018280546102869061084e565b80156102d35780601f106102a8576101008083540402835291602001916102d3565b820191906000526020600020905b8154815290600101906020018083116102b657829003601f168201915b5050505050908060010180546102e89061084e565b80601f01602080910402602001604051908101604052809291908181526020018280546103149061084e565b80156103615780601f1061033657610100808354040283529160200191610361565b820191906000526020600020905b81548152906001019060200180831161034457829003601f168201915b5050505050908060020160009054906101000a900460ff16905083565b60056020528060005260406000206000915090508060000180546103a19061084e565b80601f01602080910402602001604051908101604052809291908181526020018280546103cd9061084e565b801561041a5780601f106103ef5761010080835404028352916020019161041a565b820191906000526020600020905b8154815290600101906020018083116103fd57829003601f168201915b50505050509080600101805461042f9061084e565b80601f016020809104026020016040519081016040528092919081815260200182805461045b9061084e565b80156104a85780601f1061047d576101008083540402835291602001916104a8565b820191906000526020600020905b81548152906001019060200180831161048b57829003601f168201915b5050505050908060020160009054906101000a900460ff16905083565b8280546104d19061084e565b90600052602060002090601f0160209004810192826104f3576000855561053a565b82601f1061050c57805160ff191683800117855561053a565b8280016001018555821561053a579182015b8281111561053957825182559160200191906001019061051e565b5b509050610547919061054b565b5090565b5b8082111561056457600081600090555060010161054c565b5090565b600061057b610576846107a9565b610784565b9050828152602081018484840111156105975761059661098c565b5b6105a284828561080c565b509392505050565b600082601f8301126105bf576105be610987565b5b81356105cf848260208601610568565b91505092915050565b6000813590506105e7816109d5565b92915050565b6000806040838503121561060457610603610996565b5b600083013567ffffffffffffffff81111561062257610621610991565b5b61062e858286016105aa565b925050602083013567ffffffffffffffff81111561064f5761064e610991565b5b61065b858286016105aa565b9150509250929050565b60006020828403121561067b5761067a610996565b5b6000610689848285016105d8565b91505092915050565b61069b816107f6565b82525050565b60006106ac826107da565b6106b681856107e5565b93506106c681856020860161081b565b6106cf8161099b565b840191505092915050565b60006106e76010836107e5565b91506106f2826109ac565b602082019050919050565b6000602082019050818103600083015261071781846106a1565b905092915050565b6000606082019050818103600083015261073981866106a1565b9050818103602083015261074d81856106a1565b905061075c6040830184610692565b949350505050565b6000602082019050818103600083015261077d816106da565b9050919050565b600061078e61079f565b905061079a8282610880565b919050565b6000604051905090565b600067ffffffffffffffff8211156107c4576107c3610958565b5b6107cd8261099b565b9050602081019050919050565b600081519050919050565b600082825260208201905092915050565b60008115159050919050565b6000819050919050565b82818337600083830152505050565b60005b8381101561083957808201518184015260208101905061081e565b83811115610848576000848401525b50505050565b6000600282049050600182168061086657607f821691505b6020821081141561087a57610879610929565b5b50919050565b6108898261099b565b810181811067ffffffffffffffff821117156108a8576108a7610958565b5b80604052505050565b60006108bc82610802565b91507fffffffffffffffffffffffffffffffffffffffffffffffffffffffffffffffff8214156108ef576108ee6108fa565b5b600182019050919050565b7f4e487b7100000000000000000000000000000000000000000000000000000000600052601160045260246000fd5b7f4e487b7100000000000000000000000000000000000000000000000000000000600052602260045260246000fd5b7f4e487b7100000000000000000000000000000000000000000000000000000000600052604160045260246000fd5b600080fd5b600080fd5b600080fd5b600080fd5b6000601f19601f8301169050919050565b7f4163636573732069732044656e69656400000000000000000000000000000000600082015250565b6109de81610802565b81146109e957600080fd5b5056fe596f752077696c6c20626520616464656420746f2063616e646964617465206c697374206f6e636520796f75206172652076616c696461746564206279207468652061646d696ea26469706673582212207bb2ca0fd2d7839c821431a326b64c37776f1e121decac7d950c3a014152429d64736f6c63430008070033",
					"opcodes": "PUSH1 0x80 PUSH1 0x40 MSTORE CALLVALUE DUP1 ISZERO PUSH2 0x10 JUMPI PUSH1 0x0 DUP1 REVERT JUMPDEST POP CALLER PUSH1 0x3 PUSH1 0x0 PUSH2 0x100 EXP DUP2 SLOAD DUP2 PUSH20 0xFFFFFFFFFFFFFFFFFFFFFFFFFFFFFFFFFFFFFFFF MUL NOT AND SWAP1 DUP4 PUSH20 0xFFFFFFFFFFFFFFFFFFFFFFFFFFFFFFFFFFFFFFFF AND MUL OR SWAP1 SSTORE POP PUSH2 0xA69 DUP1 PUSH2 0x61 PUSH1 0x0 CODECOPY PUSH1 0x0 RETURN INVALID PUSH1 0x80 PUSH1 0x40 MSTORE CALLVALUE DUP1 ISZERO PUSH2 0x10 JUMPI PUSH1 0x0 DUP1 REVERT JUMPDEST POP PUSH1 0x4 CALLDATASIZE LT PUSH2 0x41 JUMPI PUSH1 0x0 CALLDATALOAD PUSH1 0xE0 SHR DUP1 PUSH4 0x17678BC3 EQ PUSH2 0x46 JUMPI DUP1 PUSH4 0x7E336329 EQ PUSH2 0x76 JUMPI DUP1 PUSH4 0xB0D18814 EQ PUSH2 0xA8 JUMPI JUMPDEST PUSH1 0x0 DUP1 REVERT JUMPDEST PUSH2 0x60 PUSH1 0x4 DUP1 CALLDATASIZE SUB DUP2 ADD SWAP1 PUSH2 0x5B SWAP2 SWAP1 PUSH2 0x5ED JUMP JUMPDEST PUSH2 0xDA JUMP JUMPDEST PUSH1 0x40 MLOAD PUSH2 0x6D SWAP2 SWAP1 PUSH2 0x6FD JUMP JUMPDEST PUSH1 0x40 MLOAD DUP1 SWAP2 SUB SWAP1 RETURN JUMPDEST PUSH2 0x90 PUSH1 0x4 DUP1 CALLDATASIZE SUB DUP2 ADD SWAP1 PUSH2 0x8B SWAP2 SWAP1 PUSH2 0x665 JUMP JUMPDEST PUSH2 0x237 JUMP JUMPDEST PUSH1 0x40 MLOAD PUSH2 0x9F SWAP4 SWAP3 SWAP2 SWAP1 PUSH2 0x71F JUMP JUMPDEST PUSH1 0x40 MLOAD DUP1 SWAP2 SUB SWAP1 RETURN JUMPDEST PUSH2 0xC2 PUSH1 0x4 DUP1 CALLDATASIZE SUB DUP2 ADD SWAP1 PUSH2 0xBD SWAP2 SWAP1 PUSH2 0x665 JUMP JUMPDEST PUSH2 0x37E JUMP JUMPDEST PUSH1 0x40 MLOAD PUSH2 0xD1 SWAP4 SWAP3 SWAP2 SWAP1 PUSH2 0x71F JUMP JUMPDEST PUSH1 0x40 MLOAD DUP1 SWAP2 SUB SWAP1 RETURN JUMPDEST PUSH1 0x60 PUSH1 0x3 PUSH1 0x0 SWAP1 SLOAD SWAP1 PUSH2 0x100 EXP SWAP1 DIV PUSH20 0xFFFFFFFFFFFFFFFFFFFFFFFFFFFFFFFFFFFFFFFF AND PUSH20 0xFFFFFFFFFFFFFFFFFFFFFFFFFFFFFFFFFFFFFFFF AND CALLER PUSH20 0xFFFFFFFFFFFFFFFFFFFFFFFFFFFFFFFFFFFFFFFF AND EQ PUSH2 0x16C JUMPI PUSH1 0x40 MLOAD PUSH32 0x8C379A000000000000000000000000000000000000000000000000000000000 DUP2 MSTORE PUSH1 0x4 ADD PUSH2 0x163 SWAP1 PUSH2 0x764 JUMP JUMPDEST PUSH1 0x40 MLOAD DUP1 SWAP2 SUB SWAP1 REVERT JUMPDEST PUSH1 0x0 PUSH1 0x1 PUSH1 0x0 DUP2 SLOAD DUP1 SWAP3 SWAP2 SWAP1 PUSH2 0x181 SWAP1 PUSH2 0x8B1 JUMP JUMPDEST SWAP2 SWAP1 POP SSTORE SWAP1 POP PUSH1 0x40 MLOAD DUP1 PUSH1 0x60 ADD PUSH1 0x40 MSTORE DUP1 DUP6 DUP2 MSTORE PUSH1 0x20 ADD DUP5 DUP2 MSTORE PUSH1 0x20 ADD PUSH1 0x0 ISZERO ISZERO DUP2 MSTORE POP PUSH1 0x4 PUSH1 0x0 DUP4 DUP2 MSTORE PUSH1 0x20 ADD SWAP1 DUP2 MSTORE PUSH1 0x20 ADD PUSH1 0x0 KECCAK256 PUSH1 0x0 DUP3 ADD MLOAD DUP2 PUSH1 0x0 ADD SWAP1 DUP1 MLOAD SWAP1 PUSH1 0x20 ADD SWAP1 PUSH2 0x1D4 SWAP3 SWAP2 SWAP1 PUSH2 0x4C5 JUMP JUMPDEST POP PUSH1 0x20 DUP3 ADD MLOAD DUP2 PUSH1 0x1 ADD SWAP1 DUP1 MLOAD SWAP1 PUSH1 0x20 ADD SWAP1 PUSH2 0x1F1 SWAP3 SWAP2 SWAP1 PUSH2 0x4C5 JUMP JUMPDEST POP PUSH1 0x40 DUP3 ADD MLOAD DUP2 PUSH1 0x2 ADD PUSH1 0x0 PUSH2 0x100 EXP DUP2 SLOAD DUP2 PUSH1 0xFF MUL NOT AND SWAP1 DUP4 ISZERO ISZERO MUL OR SWAP1 SSTORE POP SWAP1 POP POP PUSH1 0x40 MLOAD DUP1 PUSH1 0x80 ADD PUSH1 0x40 MSTORE DUP1 PUSH1 0x47 DUP2 MSTORE PUSH1 0x20 ADD PUSH2 0x9ED PUSH1 0x47 SWAP2 CODECOPY SWAP2 POP POP SWAP3 SWAP2 POP POP JUMP JUMPDEST PUSH1 0x4 PUSH1 0x20 MSTORE DUP1 PUSH1 0x0 MSTORE PUSH1 0x40 PUSH1 0x0 KECCAK256 PUSH1 0x0 SWAP2 POP SWAP1 POP DUP1 PUSH1 0x0 ADD DUP1 SLOAD PUSH2 0x25A SWAP1 PUSH2 0x84E JUMP JUMPDEST DUP1 PUSH1 0x1F ADD PUSH1 0x20 DUP1 SWAP2 DIV MUL PUSH1 0x20 ADD PUSH1 0x40 MLOAD SWAP1 DUP2 ADD PUSH1 0x40 MSTORE DUP1 SWAP3 SWAP2 SWAP1 DUP2 DUP2 MSTORE PUSH1 0x20 ADD DUP3 DUP1 SLOAD PUSH2 0x286 SWAP1 PUSH2 0x84E JUMP JUMPDEST DUP1 ISZERO PUSH2 0x2D3 JUMPI DUP1 PUSH1 0x1F LT PUSH2 0x2A8 JUMPI PUSH2 0x100 DUP1 DUP4 SLOAD DIV MUL DUP4 MSTORE SWAP2 PUSH1 0x20 ADD SWAP2 PUSH2 0x2D3 JUMP JUMPDEST DUP3 ADD SWAP2 SWAP1 PUSH1 0x0 MSTORE PUSH1 0x20 PUSH1 0x0 KECCAK256 SWAP1 JUMPDEST DUP2 SLOAD DUP2 MSTORE SWAP1 PUSH1 0x1 ADD SWAP1 PUSH1 0x20 ADD DUP1 DUP4 GT PUSH2 0x2B6 JUMPI DUP3 SWAP1 SUB PUSH1 0x1F AND DUP3 ADD SWAP2 JUMPDEST POP POP POP POP POP SWAP1 DUP1 PUSH1 0x1 ADD DUP1 SLOAD PUSH2 0x2E8 SWAP1 PUSH2 0x84E JUMP JUMPDEST DUP1 PUSH1 0x1F ADD PUSH1 0x20 DUP1 SWAP2 DIV MUL PUSH1 0x20 ADD PUSH1 0x40 MLOAD SWAP1 DUP2 ADD PUSH1 0x40 MSTORE DUP1 SWAP3 SWAP2 SWAP1 DUP2 DUP2 MSTORE PUSH1 0x20 ADD DUP3 DUP1 SLOAD PUSH2 0x314 SWAP1 PUSH2 0x84E JUMP JUMPDEST DUP1 ISZERO PUSH2 0x361 JUMPI DUP1 PUSH1 0x1F LT PUSH2 0x336 JUMPI PUSH2 0x100 DUP1 DUP4 SLOAD DIV MUL DUP4 MSTORE SWAP2 PUSH1 0x20 ADD SWAP2 PUSH2 0x361 JUMP JUMPDEST DUP3 ADD SWAP2 SWAP1 PUSH1 0x0 MSTORE PUSH1 0x20 PUSH1 0x0 KECCAK256 SWAP1 JUMPDEST DUP2 SLOAD DUP2 MSTORE SWAP1 PUSH1 0x1 ADD SWAP1 PUSH1 0x20 ADD DUP1 DUP4 GT PUSH2 0x344 JUMPI DUP3 SWAP1 SUB PUSH1 0x1F AND DUP3 ADD SWAP2 JUMPDEST POP POP POP POP POP SWAP1 DUP1 PUSH1 0x2 ADD PUSH1 0x0 SWAP1 SLOAD SWAP1 PUSH2 0x100 EXP SWAP1 DIV PUSH1 0xFF AND SWAP1 POP DUP4 JUMP JUMPDEST PUSH1 0x5 PUSH1 0x20 MSTORE DUP1 PUSH1 0x0 MSTORE PUSH1 0x40 PUSH1 0x0 KECCAK256 PUSH1 0x0 SWAP2 POP SWAP1 POP DUP1 PUSH1 0x0 ADD DUP1 SLOAD PUSH2 0x3A1 SWAP1 PUSH2 0x84E JUMP JUMPDEST DUP1 PUSH1 0x1F ADD PUSH1 0x20 DUP1 SWAP2 DIV MUL PUSH1 0x20 ADD PUSH1 0x40 MLOAD SWAP1 DUP2 ADD PUSH1 0x40 MSTORE DUP1 SWAP3 SWAP2 SWAP1 DUP2 DUP2 MSTORE PUSH1 0x20 ADD DUP3 DUP1 SLOAD PUSH2 0x3CD SWAP1 PUSH2 0x84E JUMP JUMPDEST DUP1 ISZERO PUSH2 0x41A JUMPI DUP1 PUSH1 0x1F LT PUSH2 0x3EF JUMPI PUSH2 0x100 DUP1 DUP4 SLOAD DIV MUL DUP4 MSTORE SWAP2 PUSH1 0x20 ADD SWAP2 PUSH2 0x41A JUMP JUMPDEST DUP3 ADD SWAP2 SWAP1 PUSH1 0x0 MSTORE PUSH1 0x20 PUSH1 0x0 KECCAK256 SWAP1 JUMPDEST DUP2 SLOAD DUP2 MSTORE SWAP1 PUSH1 0x1 ADD SWAP1 PUSH1 0x20 ADD DUP1 DUP4 GT PUSH2 0x3FD JUMPI DUP3 SWAP1 SUB PUSH1 0x1F AND DUP3 ADD SWAP2 JUMPDEST POP POP POP POP POP SWAP1 DUP1 PUSH1 0x1 ADD DUP1 SLOAD PUSH2 0x42F SWAP1 PUSH2 0x84E JUMP JUMPDEST DUP1 PUSH1 0x1F ADD PUSH1 0x20 DUP1 SWAP2 DIV MUL PUSH1 0x20 ADD PUSH1 0x40 MLOAD SWAP1 DUP2 ADD PUSH1 0x40 MSTORE DUP1 SWAP3 SWAP2 SWAP1 DUP2 DUP2 MSTORE PUSH1 0x20 ADD DUP3 DUP1 SLOAD PUSH2 0x45B SWAP1 PUSH2 0x84E JUMP JUMPDEST DUP1 ISZERO PUSH2 0x4A8 JUMPI DUP1 PUSH1 0x1F LT PUSH2 0x47D JUMPI PUSH2 0x100 DUP1 DUP4 SLOAD DIV MUL DUP4 MSTORE SWAP2 PUSH1 0x20 ADD SWAP2 PUSH2 0x4A8 JUMP JUMPDEST DUP3 ADD SWAP2 SWAP1 PUSH1 0x0 MSTORE PUSH1 0x20 PUSH1 0x0 KECCAK256 SWAP1 JUMPDEST DUP2 SLOAD DUP2 MSTORE SWAP1 PUSH1 0x1 ADD SWAP1 PUSH1 0x20 ADD DUP1 DUP4 GT PUSH2 0x48B JUMPI DUP3 SWAP1 SUB PUSH1 0x1F AND DUP3 ADD SWAP2 JUMPDEST POP POP POP POP POP SWAP1 DUP1 PUSH1 0x2 ADD PUSH1 0x0 SWAP1 SLOAD SWAP1 PUSH2 0x100 EXP SWAP1 DIV PUSH1 0xFF AND SWAP1 POP DUP4 JUMP JUMPDEST DUP3 DUP1 SLOAD PUSH2 0x4D1 SWAP1 PUSH2 0x84E JUMP JUMPDEST SWAP1 PUSH1 0x0 MSTORE PUSH1 0x20 PUSH1 0x0 KECCAK256 SWAP1 PUSH1 0x1F ADD PUSH1 0x20 SWAP1 DIV DUP2 ADD SWAP3 DUP3 PUSH2 0x4F3 JUMPI PUSH1 0x0 DUP6 SSTORE PUSH2 0x53A JUMP JUMPDEST DUP3 PUSH1 0x1F LT PUSH2 0x50C JUMPI DUP1 MLOAD PUSH1 0xFF NOT AND DUP4 DUP1 ADD OR DUP6 SSTORE PUSH2 0x53A JUMP JUMPDEST DUP3 DUP1 ADD PUSH1 0x1 ADD DUP6 SSTORE DUP3 ISZERO PUSH2 0x53A JUMPI SWAP2 DUP3 ADD JUMPDEST DUP3 DUP2 GT ISZERO PUSH2 0x539 JUMPI DUP3 MLOAD DUP3 SSTORE SWAP2 PUSH1 0x20 ADD SWAP2 SWAP1 PUSH1 0x1 ADD SWAP1 PUSH2 0x51E JUMP JUMPDEST JUMPDEST POP SWAP1 POP PUSH2 0x547 SWAP2 SWAP1 PUSH2 0x54B JUMP JUMPDEST POP SWAP1 JUMP JUMPDEST JUMPDEST DUP1 DUP3 GT ISZERO PUSH2 0x564 JUMPI PUSH1 0x0 DUP2 PUSH1 0x0 SWAP1 SSTORE POP PUSH1 0x1 ADD PUSH2 0x54C JUMP JUMPDEST POP SWAP1 JUMP JUMPDEST PUSH1 0x0 PUSH2 0x57B PUSH2 0x576 DUP5 PUSH2 0x7A9 JUMP JUMPDEST PUSH2 0x784 JUMP JUMPDEST SWAP1 POP DUP3 DUP2 MSTORE PUSH1 0x20 DUP2 ADD DUP5 DUP5 DUP5 ADD GT ISZERO PUSH2 0x597 JUMPI PUSH2 0x596 PUSH2 0x98C JUMP JUMPDEST JUMPDEST PUSH2 0x5A2 DUP5 DUP3 DUP6 PUSH2 0x80C JUMP JUMPDEST POP SWAP4 SWAP3 POP POP POP JUMP JUMPDEST PUSH1 0x0 DUP3 PUSH1 0x1F DUP4 ADD SLT PUSH2 0x5BF JUMPI PUSH2 0x5BE PUSH2 0x987 JUMP JUMPDEST JUMPDEST DUP2 CALLDATALOAD PUSH2 0x5CF DUP5 DUP3 PUSH1 0x20 DUP7 ADD PUSH2 0x568 JUMP JUMPDEST SWAP2 POP POP SWAP3 SWAP2 POP POP JUMP JUMPDEST PUSH1 0x0 DUP2 CALLDATALOAD SWAP1 POP PUSH2 0x5E7 DUP2 PUSH2 0x9D5 JUMP JUMPDEST SWAP3 SWAP2 POP POP JUMP JUMPDEST PUSH1 0x0 DUP1 PUSH1 0x40 DUP4 DUP6 SUB SLT ISZERO PUSH2 0x604 JUMPI PUSH2 0x603 PUSH2 0x996 JUMP JUMPDEST JUMPDEST PUSH1 0x0 DUP4 ADD CALLDATALOAD PUSH8 0xFFFFFFFFFFFFFFFF DUP2 GT ISZERO PUSH2 0x622 JUMPI PUSH2 0x621 PUSH2 0x991 JUMP JUMPDEST JUMPDEST PUSH2 0x62E DUP6 DUP3 DUP7 ADD PUSH2 0x5AA JUMP JUMPDEST SWAP3 POP POP PUSH1 0x20 DUP4 ADD CALLDATALOAD PUSH8 0xFFFFFFFFFFFFFFFF DUP2 GT ISZERO PUSH2 0x64F JUMPI PUSH2 0x64E PUSH2 0x991 JUMP JUMPDEST JUMPDEST PUSH2 0x65B DUP6 DUP3 DUP7 ADD PUSH2 0x5AA JUMP JUMPDEST SWAP2 POP POP SWAP3 POP SWAP3 SWAP1 POP JUMP JUMPDEST PUSH1 0x0 PUSH1 0x20 DUP3 DUP5 SUB SLT ISZERO PUSH2 0x67B JUMPI PUSH2 0x67A PUSH2 0x996 JUMP JUMPDEST JUMPDEST PUSH1 0x0 PUSH2 0x689 DUP5 DUP3 DUP6 ADD PUSH2 0x5D8 JUMP JUMPDEST SWAP2 POP POP SWAP3 SWAP2 POP POP JUMP JUMPDEST PUSH2 0x69B DUP2 PUSH2 0x7F6 JUMP JUMPDEST DUP3 MSTORE POP POP JUMP JUMPDEST PUSH1 0x0 PUSH2 0x6AC DUP3 PUSH2 0x7DA JUMP JUMPDEST PUSH2 0x6B6 DUP2 DUP6 PUSH2 0x7E5 JUMP JUMPDEST SWAP4 POP PUSH2 0x6C6 DUP2 DUP6 PUSH1 0x20 DUP7 ADD PUSH2 0x81B JUMP JUMPDEST PUSH2 0x6CF DUP2 PUSH2 0x99B JUMP JUMPDEST DUP5 ADD SWAP2 POP POP SWAP3 SWAP2 POP POP JUMP JUMPDEST PUSH1 0x0 PUSH2 0x6E7 PUSH1 0x10 DUP4 PUSH2 0x7E5 JUMP JUMPDEST SWAP2 POP PUSH2 0x6F2 DUP3 PUSH2 0x9AC JUMP JUMPDEST PUSH1 0x20 DUP3 ADD SWAP1 POP SWAP2 SWAP1 POP JUMP JUMPDEST PUSH1 0x0 PUSH1 0x20 DUP3 ADD SWAP1 POP DUP2 DUP2 SUB PUSH1 0x0 DUP4 ADD MSTORE PUSH2 0x717 DUP2 DUP5 PUSH2 0x6A1 JUMP JUMPDEST SWAP1 POP SWAP3 SWAP2 POP POP JUMP JUMPDEST PUSH1 0x0 PUSH1 0x60 DUP3 ADD SWAP1 POP DUP2 DUP2 SUB PUSH1 0x0 DUP4 ADD MSTORE PUSH2 0x739 DUP2 DUP7 PUSH2 0x6A1 JUMP JUMPDEST SWAP1 POP DUP2 DUP2 SUB PUSH1 0x20 DUP4 ADD MSTORE PUSH2 0x74D DUP2 DUP6 PUSH2 0x6A1 JUMP JUMPDEST SWAP1 POP PUSH2 0x75C PUSH1 0x40 DUP4 ADD DUP5 PUSH2 0x692 JUMP JUMPDEST SWAP5 SWAP4 POP POP POP POP JUMP JUMPDEST PUSH1 0x0 PUSH1 0x20 DUP3 ADD SWAP1 POP DUP2 DUP2 SUB PUSH1 0x0 DUP4 ADD MSTORE PUSH2 0x77D DUP2 PUSH2 0x6DA JUMP JUMPDEST SWAP1 POP SWAP2 SWAP1 POP JUMP JUMPDEST PUSH1 0x0 PUSH2 0x78E PUSH2 0x79F JUMP JUMPDEST SWAP1 POP PUSH2 0x79A DUP3 DUP3 PUSH2 0x880 JUMP JUMPDEST SWAP2 SWAP1 POP JUMP JUMPDEST PUSH1 0x0 PUSH1 0x40 MLOAD SWAP1 POP SWAP1 JUMP JUMPDEST PUSH1 0x0 PUSH8 0xFFFFFFFFFFFFFFFF DUP3 GT ISZERO PUSH2 0x7C4 JUMPI PUSH2 0x7C3 PUSH2 0x958 JUMP JUMPDEST JUMPDEST PUSH2 0x7CD DUP3 PUSH2 0x99B JUMP JUMPDEST SWAP1 POP PUSH1 0x20 DUP2 ADD SWAP1 POP SWAP2 SWAP1 POP JUMP JUMPDEST PUSH1 0x0 DUP2 MLOAD SWAP1 POP SWAP2 SWAP1 POP JUMP JUMPDEST PUSH1 0x0 DUP3 DUP3 MSTORE PUSH1 0x20 DUP3 ADD SWAP1 POP SWAP3 SWAP2 POP POP JUMP JUMPDEST PUSH1 0x0 DUP2 ISZERO ISZERO SWAP1 POP SWAP2 SWAP1 POP JUMP JUMPDEST PUSH1 0x0 DUP2 SWAP1 POP SWAP2 SWAP1 POP JUMP JUMPDEST DUP3 DUP2 DUP4 CALLDATACOPY PUSH1 0x0 DUP4 DUP4 ADD MSTORE POP POP POP JUMP JUMPDEST PUSH1 0x0 JUMPDEST DUP4 DUP2 LT ISZERO PUSH2 0x839 JUMPI DUP1 DUP3 ADD MLOAD DUP2 DUP5 ADD MSTORE PUSH1 0x20 DUP2 ADD SWAP1 POP PUSH2 0x81E JUMP JUMPDEST DUP4 DUP2 GT ISZERO PUSH2 0x848 JUMPI PUSH1 0x0 DUP5 DUP5 ADD MSTORE JUMPDEST POP POP POP POP JUMP JUMPDEST PUSH1 0x0 PUSH1 0x2 DUP3 DIV SWAP1 POP PUSH1 0x1 DUP3 AND DUP1 PUSH2 0x866 JUMPI PUSH1 0x7F DUP3 AND SWAP2 POP JUMPDEST PUSH1 0x20 DUP3 LT DUP2 EQ ISZERO PUSH2 0x87A JUMPI PUSH2 0x879 PUSH2 0x929 JUMP JUMPDEST JUMPDEST POP SWAP2 SWAP1 POP JUMP JUMPDEST PUSH2 0x889 DUP3 PUSH2 0x99B JUMP JUMPDEST DUP2 ADD DUP2 DUP2 LT PUSH8 0xFFFFFFFFFFFFFFFF DUP3 GT OR ISZERO PUSH2 0x8A8 JUMPI PUSH2 0x8A7 PUSH2 0x958 JUMP JUMPDEST JUMPDEST DUP1 PUSH1 0x40 MSTORE POP POP POP JUMP JUMPDEST PUSH1 0x0 PUSH2 0x8BC DUP3 PUSH2 0x802 JUMP JUMPDEST SWAP2 POP PUSH32 0xFFFFFFFFFFFFFFFFFFFFFFFFFFFFFFFFFFFFFFFFFFFFFFFFFFFFFFFFFFFFFFFF DUP3 EQ ISZERO PUSH2 0x8EF JUMPI PUSH2 0x8EE PUSH2 0x8FA JUMP JUMPDEST JUMPDEST PUSH1 0x1 DUP3 ADD SWAP1 POP SWAP2 SWAP1 POP JUMP JUMPDEST PUSH32 0x4E487B7100000000000000000000000000000000000000000000000000000000 PUSH1 0x0 MSTORE PUSH1 0x11 PUSH1 0x4 MSTORE PUSH1 0x24 PUSH1 0x0 REVERT JUMPDEST PUSH32 0x4E487B7100000000000000000000000000000000000000000000000000000000 PUSH1 0x0 MSTORE PUSH1 0x22 PUSH1 0x4 MSTORE PUSH1 0x24 PUSH1 0x0 REVERT JUMPDEST PUSH32 0x4E487B7100000000000000000000000000000000000000000000000000000000 PUSH1 0x0 MSTORE PUSH1 0x41 PUSH1 0x4 MSTORE PUSH1 0x24 PUSH1 0x0 REVERT JUMPDEST PUSH1 0x0 DUP1 REVERT JUMPDEST PUSH1 0x0 DUP1 REVERT JUMPDEST PUSH1 0x0 DUP1 REVERT JUMPDEST PUSH1 0x0 DUP1 REVERT JUMPDEST PUSH1 0x0 PUSH1 0x1F NOT PUSH1 0x1F DUP4 ADD AND SWAP1 POP SWAP2 SWAP1 POP JUMP JUMPDEST PUSH32 0x4163636573732069732044656E69656400000000000000000000000000000000 PUSH1 0x0 DUP3 ADD MSTORE POP JUMP JUMPDEST PUSH2 0x9DE DUP2 PUSH2 0x802 JUMP JUMPDEST DUP2 EQ PUSH2 0x9E9 JUMPI PUSH1 0x0 DUP1 REVERT JUMPDEST POP JUMP INVALID MSIZE PUSH16 0x752077696C6C20626520616464656420 PUSH21 0x6F2063616E646964617465206C697374206F6E6365 KECCAK256 PUSH26 0x6F75206172652076616C69646174656420627920746865206164 PUSH14 0x696EA26469706673582212207BB2 0xCA 0xF 0xD2 0xD7 DUP4 SWAP13 DUP3 EQ BALANCE LOG3 0x26 0xB6 0x4C CALLDATACOPY PUSH24 0x6F1E121DECAC7D950C3A014152429D64736F6C6343000807 STOP CALLER "
				},
				"gasEstimates": {
					"creation": {
						"codeDepositCost": "533000",
						"executionCost": "24834",
						"totalCost": "557834"
					},
					"external": {
						"candidateEnrollment(string,string)": "infinite",
						"enrolledCandidates(uint256)": "infinite",
						"validCandidates(uint256)": "infinite"
					}
				},
				"methodIdentifiers": {
					"candidateEnrollment(string,string)": "17678bc3",
					"enrolledCandidates(uint256)": "7e336329",
					"validCandidates(uint256)": "b0d18814"
				}
			},
			"storageLayout": {
				"storage": [
					{
						"astId": 3,
						"contract": "voting.sol:Voting",
						"label": "noOfVoters",
						"offset": 0,
						"slot": "0",
						"type": "t_uint256"
					},
					{
						"astId": 5,
						"contract": "voting.sol:Voting",
						"label": "noOfCandidates",
						"offset": 0,
						"slot": "1",
						"type": "t_uint256"
					},
					{
						"astId": 7,
						"contract": "voting.sol:Voting",
						"label": "noOfValidCandidates",
						"offset": 0,
						"slot": "2",
						"type": "t_uint256"
					},
					{
						"astId": 9,
						"contract": "voting.sol:Voting",
						"label": "admin",
						"offset": 0,
						"slot": "3",
						"type": "t_address"
					},
					{
						"astId": 14,
						"contract": "voting.sol:Voting",
						"label": "enrolledCandidates",
						"offset": 0,
						"slot": "4",
						"type": "t_mapping(t_uint256,t_struct(Candidate)26_storage)"
					},
					{
						"astId": 19,
						"contract": "voting.sol:Voting",
						"label": "validCandidates",
						"offset": 0,
						"slot": "5",
						"type": "t_mapping(t_uint256,t_struct(Candidate)26_storage)"
					}
				],
				"types": {
					"t_address": {
						"encoding": "inplace",
						"label": "address",
						"numberOfBytes": "20"
					},
					"t_bool": {
						"encoding": "inplace",
						"label": "bool",
						"numberOfBytes": "1"
					},
					"t_mapping(t_uint256,t_struct(Candidate)26_storage)": {
						"encoding": "mapping",
						"key": "t_uint256",
						"label": "mapping(uint256 => struct Voting.Candidate)",
						"numberOfBytes": "32",
						"value": "t_struct(Candidate)26_storage"
					},
					"t_string_storage": {
						"encoding": "bytes",
						"label": "string",
						"numberOfBytes": "32"
					},
					"t_struct(Candidate)26_storage": {
						"encoding": "inplace",
						"label": "struct Voting.Candidate",
						"members": [
							{
								"astId": 21,
								"contract": "voting.sol:Voting",
								"label": "candidate_name",
								"offset": 0,
								"slot": "0",
								"type": "t_string_storage"
							},
							{
								"astId": 23,
								"contract": "voting.sol:Voting",
								"label": "candidate_description",
								"offset": 0,
								"slot": "1",
								"type": "t_string_storage"
							},
							{
								"astId": 25,
								"contract": "voting.sol:Voting",
								"label": "isValid",
								"offset": 0,
								"slot": "2",
								"type": "t_bool"
							}
						],
						"numberOfBytes": "96"
					},
					"t_uint256": {
						"encoding": "inplace",
						"label": "uint256",
						"numberOfBytes": "32"
					}
				}
			},
			"userdoc": {
				"kind": "user",
				"methods": {},
				"version": 1
			}
		}
	}
}