{
	"voting.sol": {
		"Voting": {
			"abi": [
				{
					"inputs": [],
					"stateMutability": "nonpayable",
					"type": "constructor"
				},
				{
					"inputs": [
						{
							"internalType": "string",
							"name": "name",
							"type": "string"
						},
						{
							"internalType": "string",
							"name": "description",
							"type": "string"
						}
					],
					"name": "candidateEnrollment",
					"outputs": [
						{
							"internalType": "string",
							"name": "",
							"type": "string"
						}
					],
					"stateMutability": "nonpayable",
					"type": "function"
				}
			],
			"devdoc": {
				"kind": "dev",
				"methods": {},
				"version": 1
			},
			"evm": {
				"assembly": "    /* \"voting.sol\":59:967  contract Voting{\r... */\n  mstore(0x40, 0x80)\n    /* \"voting.sol\":477:527  constructor(){\r... */\n  callvalue\n  dup1\n  iszero\n  tag_1\n  jumpi\n  0x00\n  dup1\n  revert\ntag_1:\n  pop\n    /* \"voting.sol\":509:519  msg.sender */\n  caller\n    /* \"voting.sol\":501:506  admin */\n  0x02\n  0x00\n    /* \"voting.sol\":501:519  admin = msg.sender */\n  0x0100\n  exp\n  dup2\n  sload\n  dup2\n  0xffffffffffffffffffffffffffffffffffffffff\n  mul\n  not\n  and\n  swap1\n  dup4\n  0xffffffffffffffffffffffffffffffffffffffff\n  and\n  mul\n  or\n  swap1\n  sstore\n  pop\n    /* \"voting.sol\":59:967  contract Voting{\r... */\n  dataSize(sub_0)\n  dup1\n  dataOffset(sub_0)\n  0x00\n  codecopy\n  0x00\n  return\nstop\n\nsub_0: assembly {\n        /* \"voting.sol\":59:967  contract Voting{\r... */\n      mstore(0x40, 0x80)\n      callvalue\n      dup1\n      iszero\n      tag_1\n      jumpi\n      0x00\n      dup1\n      revert\n    tag_1:\n      pop\n      jumpi(tag_2, lt(calldatasize, 0x04))\n      shr(0xe0, calldataload(0x00))\n      dup1\n      0x17678bc3\n      eq\n      tag_3\n      jumpi\n    tag_2:\n      0x00\n      dup1\n      revert\n        /* \"voting.sol\":637:964  function candidateEnrollment(string memory name,string memory description) public returns(string memory){\r... */\n    tag_3:\n      tag_4\n      0x04\n      dup1\n      calldatasize\n      sub\n      dup2\n      add\n      swap1\n      tag_5\n      swap2\n      swap1\n      tag_6\n      jump\t// in\n    tag_5:\n      tag_7\n      jump\t// in\n    tag_4:\n      mload(0x40)\n      tag_8\n      swap2\n      swap1\n      tag_9\n      jump\t// in\n    tag_8:\n      mload(0x40)\n      dup1\n      swap2\n      sub\n      swap1\n      return\n    tag_7:\n        /* \"voting.sol\":727:740  string memory */\n      0x60\n        /* \"voting.sol\":752:768  uint candidateID */\n      0x00\n        /* \"voting.sol\":771:785  noOfCandidates */\n      0x01\n      0x00\n        /* \"voting.sol\":771:787  noOfCandidates++ */\n      dup2\n      sload\n      dup1\n      swap3\n      swap2\n      swap1\n      tag_11\n      swap1\n      tag_12\n      jump\t// in\n    tag_11:\n      swap2\n      swap1\n      pop\n      sstore\n        /* \"voting.sol\":752:787  uint candidateID = noOfCandidates++ */\n      swap1\n      pop\n        /* \"voting.sol\":832:865  Candidate(name,description,false) */\n      mload(0x40)\n      dup1\n      0x60\n      add\n      0x40\n      mstore\n      dup1\n        /* \"voting.sol\":842:846  name */\n      dup6\n        /* \"voting.sol\":832:865  Candidate(name,description,false) */\n      dup2\n      mstore\n      0x20\n      add\n        /* \"voting.sol\":847:858  description */\n      dup5\n        /* \"voting.sol\":832:865  Candidate(name,description,false) */\n      dup2\n      mstore\n      0x20\n      add\n        /* \"voting.sol\":859:864  false */\n      0x00\n        /* \"voting.sol\":832:865  Candidate(name,description,false) */\n      iszero\n      iszero\n      dup2\n      mstore\n      pop\n        /* \"voting.sol\":798:816  enrolledCandidates */\n      0x03\n        /* \"voting.sol\":798:829  enrolledCandidates[candidateID] */\n      0x00\n        /* \"voting.sol\":817:828  candidateID */\n      dup4\n        /* \"voting.sol\":798:829  enrolledCandidates[candidateID] */\n      dup2\n      mstore\n      0x20\n      add\n      swap1\n      dup2\n      mstore\n      0x20\n      add\n      0x00\n      keccak256\n        /* \"voting.sol\":798:865  enrolledCandidates[candidateID] = Candidate(name,description,false) */\n      0x00\n      dup3\n      add\n      mload\n      dup2\n      0x00\n      add\n      swap1\n      dup1\n      mload\n      swap1\n      0x20\n      add\n      swap1\n      tag_13\n      swap3\n      swap2\n      swap1\n      tag_14\n      jump\t// in\n    tag_13:\n      pop\n      0x20\n      dup3\n      add\n      mload\n      dup2\n      0x01\n      add\n      swap1\n      dup1\n      mload\n      swap1\n      0x20\n      add\n      swap1\n      tag_15\n      swap3\n      swap2\n      swap1\n      tag_14\n      jump\t// in\n    tag_15:\n      pop\n      0x40\n      dup3\n      add\n      mload\n      dup2\n      0x02\n      add\n      exp(0x0100, 0x00)\n      dup2\n      sload\n      dup2\n      0xff\n      mul\n      not\n      and\n      swap1\n      dup4\n      iszero\n      iszero\n      mul\n      or\n      swap1\n      sstore\n      pop\n      swap1\n      pop\n      pop\n        /* \"voting.sol\":876:956  return \"You will be added to candidate list once you are validated by the admin\" */\n      mload(0x40)\n      dup1\n      0x80\n      add\n      0x40\n      mstore\n      dup1\n      0x47\n      dup2\n      mstore\n      0x20\n      add\n      data_346ae9e229890c1b5467b3280ac50efb3a563831aa4e9bb9392fe53f7d7de7e2\n      0x47\n      swap2\n      codecopy\n      swap2\n      pop\n      pop\n        /* \"voting.sol\":637:964  function candidateEnrollment(string memory name,string memory description) public returns(string memory){\r... */\n      swap3\n      swap2\n      pop\n      pop\n      jump\t// out\n    tag_14:\n      dup3\n      dup1\n      sload\n      tag_16\n      swap1\n      tag_17\n      jump\t// in\n    tag_16:\n      swap1\n      0x00\n      mstore\n      keccak256(0x00, 0x20)\n      swap1\n      0x1f\n      add\n      0x20\n      swap1\n      div\n      dup2\n      add\n      swap3\n      dup3\n      tag_19\n      jumpi\n      0x00\n      dup6\n      sstore\n      jump(tag_18)\n    tag_19:\n      dup3\n      0x1f\n      lt\n      tag_20\n      jumpi\n      dup1\n      mload\n      not(0xff)\n      and\n      dup4\n      dup1\n      add\n      or\n      dup6\n      sstore\n      jump(tag_18)\n    tag_20:\n      dup3\n      dup1\n      add\n      0x01\n      add\n      dup6\n      sstore\n      dup3\n      iszero\n      tag_18\n      jumpi\n      swap2\n      dup3\n      add\n    tag_21:\n      dup3\n      dup2\n      gt\n      iszero\n      tag_22\n      jumpi\n      dup3\n      mload\n      dup3\n      sstore\n      swap2\n      0x20\n      add\n      swap2\n      swap1\n      0x01\n      add\n      swap1\n      jump(tag_21)\n    tag_22:\n    tag_18:\n      pop\n      swap1\n      pop\n      tag_23\n      swap2\n      swap1\n      tag_24\n      jump\t// in\n    tag_23:\n      pop\n      swap1\n      jump\t// out\n    tag_24:\n    tag_25:\n      dup1\n      dup3\n      gt\n      iszero\n      tag_26\n      jumpi\n      0x00\n      dup2\n      0x00\n      swap1\n      sstore\n      pop\n      0x01\n      add\n      jump(tag_25)\n    tag_26:\n      pop\n      swap1\n      jump\t// out\n        /* \"#utility.yul\":7:419   */\n    tag_28:\n        /* \"#utility.yul\":85:90   */\n      0x00\n        /* \"#utility.yul\":110:176   */\n      tag_30\n        /* \"#utility.yul\":126:175   */\n      tag_31\n        /* \"#utility.yul\":168:174   */\n      dup5\n        /* \"#utility.yul\":126:175   */\n      tag_32\n      jump\t// in\n    tag_31:\n        /* \"#utility.yul\":110:176   */\n      tag_33\n      jump\t// in\n    tag_30:\n        /* \"#utility.yul\":101:176   */\n      swap1\n      pop\n        /* \"#utility.yul\":199:205   */\n      dup3\n        /* \"#utility.yul\":192:197   */\n      dup2\n        /* \"#utility.yul\":185:206   */\n      mstore\n        /* \"#utility.yul\":237:241   */\n      0x20\n        /* \"#utility.yul\":230:235   */\n      dup2\n        /* \"#utility.yul\":226:242   */\n      add\n        /* \"#utility.yul\":275:278   */\n      dup5\n        /* \"#utility.yul\":266:272   */\n      dup5\n        /* \"#utility.yul\":261:264   */\n      dup5\n        /* \"#utility.yul\":257:273   */\n      add\n        /* \"#utility.yul\":254:279   */\n      gt\n        /* \"#utility.yul\":251:363   */\n      iszero\n      tag_34\n      jumpi\n        /* \"#utility.yul\":282:361   */\n      tag_35\n      tag_36\n      jump\t// in\n    tag_35:\n        /* \"#utility.yul\":251:363   */\n    tag_34:\n        /* \"#utility.yul\":372:413   */\n      tag_37\n        /* \"#utility.yul\":406:412   */\n      dup5\n        /* \"#utility.yul\":401:404   */\n      dup3\n        /* \"#utility.yul\":396:399   */\n      dup6\n        /* \"#utility.yul\":372:413   */\n      tag_38\n      jump\t// in\n    tag_37:\n        /* \"#utility.yul\":91:419   */\n      pop\n        /* \"#utility.yul\":7:419   */\n      swap4\n      swap3\n      pop\n      pop\n      pop\n      jump\t// out\n        /* \"#utility.yul\":439:779   */\n    tag_39:\n        /* \"#utility.yul\":495:500   */\n      0x00\n        /* \"#utility.yul\":544:547   */\n      dup3\n        /* \"#utility.yul\":537:541   */\n      0x1f\n        /* \"#utility.yul\":529:535   */\n      dup4\n        /* \"#utility.yul\":525:542   */\n      add\n        /* \"#utility.yul\":521:548   */\n      slt\n        /* \"#utility.yul\":511:633   */\n      tag_41\n      jumpi\n        /* \"#utility.yul\":552:631   */\n      tag_42\n      tag_43\n      jump\t// in\n    tag_42:\n        /* \"#utility.yul\":511:633   */\n    tag_41:\n        /* \"#utility.yul\":669:675   */\n      dup2\n        /* \"#utility.yul\":656:676   */\n      calldataload\n        /* \"#utility.yul\":694:773   */\n      tag_44\n        /* \"#utility.yul\":769:772   */\n      dup5\n        /* \"#utility.yul\":761:767   */\n      dup3\n        /* \"#utility.yul\":754:758   */\n      0x20\n        /* \"#utility.yul\":746:752   */\n      dup7\n        /* \"#utility.yul\":742:759   */\n      add\n        /* \"#utility.yul\":694:773   */\n      tag_28\n      jump\t// in\n    tag_44:\n        /* \"#utility.yul\":685:773   */\n      swap2\n      pop\n        /* \"#utility.yul\":501:779   */\n      pop\n        /* \"#utility.yul\":439:779   */\n      swap3\n      swap2\n      pop\n      pop\n      jump\t// out\n        /* \"#utility.yul\":785:1619   */\n    tag_6:\n        /* \"#utility.yul\":873:879   */\n      0x00\n        /* \"#utility.yul\":881:887   */\n      dup1\n        /* \"#utility.yul\":930:932   */\n      0x40\n        /* \"#utility.yul\":918:927   */\n      dup4\n        /* \"#utility.yul\":909:916   */\n      dup6\n        /* \"#utility.yul\":905:928   */\n      sub\n        /* \"#utility.yul\":901:933   */\n      slt\n        /* \"#utility.yul\":898:1017   */\n      iszero\n      tag_46\n      jumpi\n        /* \"#utility.yul\":936:1015   */\n      tag_47\n      tag_48\n      jump\t// in\n    tag_47:\n        /* \"#utility.yul\":898:1017   */\n    tag_46:\n        /* \"#utility.yul\":1084:1085   */\n      0x00\n        /* \"#utility.yul\":1073:1082   */\n      dup4\n        /* \"#utility.yul\":1069:1086   */\n      add\n        /* \"#utility.yul\":1056:1087   */\n      calldataload\n        /* \"#utility.yul\":1114:1132   */\n      0xffffffffffffffff\n        /* \"#utility.yul\":1106:1112   */\n      dup2\n        /* \"#utility.yul\":1103:1133   */\n      gt\n        /* \"#utility.yul\":1100:1217   */\n      iszero\n      tag_49\n      jumpi\n        /* \"#utility.yul\":1136:1215   */\n      tag_50\n      tag_51\n      jump\t// in\n    tag_50:\n        /* \"#utility.yul\":1100:1217   */\n    tag_49:\n        /* \"#utility.yul\":1241:1304   */\n      tag_52\n        /* \"#utility.yul\":1296:1303   */\n      dup6\n        /* \"#utility.yul\":1287:1293   */\n      dup3\n        /* \"#utility.yul\":1276:1285   */\n      dup7\n        /* \"#utility.yul\":1272:1294   */\n      add\n        /* \"#utility.yul\":1241:1304   */\n      tag_39\n      jump\t// in\n    tag_52:\n        /* \"#utility.yul\":1231:1304   */\n      swap3\n      pop\n        /* \"#utility.yul\":1027:1314   */\n      pop\n        /* \"#utility.yul\":1381:1383   */\n      0x20\n        /* \"#utility.yul\":1370:1379   */\n      dup4\n        /* \"#utility.yul\":1366:1384   */\n      add\n        /* \"#utility.yul\":1353:1385   */\n      calldataload\n        /* \"#utility.yul\":1412:1430   */\n      0xffffffffffffffff\n        /* \"#utility.yul\":1404:1410   */\n      dup2\n        /* \"#utility.yul\":1401:1431   */\n      gt\n        /* \"#utility.yul\":1398:1515   */\n      iszero\n      tag_53\n      jumpi\n        /* \"#utility.yul\":1434:1513   */\n      tag_54\n      tag_51\n      jump\t// in\n    tag_54:\n        /* \"#utility.yul\":1398:1515   */\n    tag_53:\n        /* \"#utility.yul\":1539:1602   */\n      tag_55\n        /* \"#utility.yul\":1594:1601   */\n      dup6\n        /* \"#utility.yul\":1585:1591   */\n      dup3\n        /* \"#utility.yul\":1574:1583   */\n      dup7\n        /* \"#utility.yul\":1570:1592   */\n      add\n        /* \"#utility.yul\":1539:1602   */\n      tag_39\n      jump\t// in\n    tag_55:\n        /* \"#utility.yul\":1529:1602   */\n      swap2\n      pop\n        /* \"#utility.yul\":1324:1612   */\n      pop\n        /* \"#utility.yul\":785:1619   */\n      swap3\n      pop\n      swap3\n      swap1\n      pop\n      jump\t// out\n        /* \"#utility.yul\":1625:1989   */\n    tag_56:\n        /* \"#utility.yul\":1713:1716   */\n      0x00\n        /* \"#utility.yul\":1741:1780   */\n      tag_58\n        /* \"#utility.yul\":1774:1779   */\n      dup3\n        /* \"#utility.yul\":1741:1780   */\n      tag_59\n      jump\t// in\n    tag_58:\n        /* \"#utility.yul\":1796:1867   */\n      tag_60\n        /* \"#utility.yul\":1860:1866   */\n      dup2\n        /* \"#utility.yul\":1855:1858   */\n      dup6\n        /* \"#utility.yul\":1796:1867   */\n      tag_61\n      jump\t// in\n    tag_60:\n        /* \"#utility.yul\":1789:1867   */\n      swap4\n      pop\n        /* \"#utility.yul\":1876:1928   */\n      tag_62\n        /* \"#utility.yul\":1921:1927   */\n      dup2\n        /* \"#utility.yul\":1916:1919   */\n      dup6\n        /* \"#utility.yul\":1909:1913   */\n      0x20\n        /* \"#utility.yul\":1902:1907   */\n      dup7\n        /* \"#utility.yul\":1898:1914   */\n      add\n        /* \"#utility.yul\":1876:1928   */\n      tag_63\n      jump\t// in\n    tag_62:\n        /* \"#utility.yul\":1953:1982   */\n      tag_64\n        /* \"#utility.yul\":1975:1981   */\n      dup2\n        /* \"#utility.yul\":1953:1982   */\n      tag_65\n      jump\t// in\n    tag_64:\n        /* \"#utility.yul\":1948:1951   */\n      dup5\n        /* \"#utility.yul\":1944:1983   */\n      add\n        /* \"#utility.yul\":1937:1983   */\n      swap2\n      pop\n        /* \"#utility.yul\":1717:1989   */\n      pop\n        /* \"#utility.yul\":1625:1989   */\n      swap3\n      swap2\n      pop\n      pop\n      jump\t// out\n        /* \"#utility.yul\":1995:2308   */\n    tag_9:\n        /* \"#utility.yul\":2108:2112   */\n      0x00\n        /* \"#utility.yul\":2146:2148   */\n      0x20\n        /* \"#utility.yul\":2135:2144   */\n      dup3\n        /* \"#utility.yul\":2131:2149   */\n      add\n        /* \"#utility.yul\":2123:2149   */\n      swap1\n      pop\n        /* \"#utility.yul\":2195:2204   */\n      dup2\n        /* \"#utility.yul\":2189:2193   */\n      dup2\n        /* \"#utility.yul\":2185:2205   */\n      sub\n        /* \"#utility.yul\":2181:2182   */\n      0x00\n        /* \"#utility.yul\":2170:2179   */\n      dup4\n        /* \"#utility.yul\":2166:2183   */\n      add\n        /* \"#utility.yul\":2159:2206   */\n      mstore\n        /* \"#utility.yul\":2223:2301   */\n      tag_67\n        /* \"#utility.yul\":2296:2300   */\n      dup2\n        /* \"#utility.yul\":2287:2293   */\n      dup5\n        /* \"#utility.yul\":2223:2301   */\n      tag_56\n      jump\t// in\n    tag_67:\n        /* \"#utility.yul\":2215:2301   */\n      swap1\n      pop\n        /* \"#utility.yul\":1995:2308   */\n      swap3\n      swap2\n      pop\n      pop\n      jump\t// out\n        /* \"#utility.yul\":2314:2443   */\n    tag_33:\n        /* \"#utility.yul\":2348:2354   */\n      0x00\n        /* \"#utility.yul\":2375:2395   */\n      tag_69\n      tag_70\n      jump\t// in\n    tag_69:\n        /* \"#utility.yul\":2365:2395   */\n      swap1\n      pop\n        /* \"#utility.yul\":2404:2437   */\n      tag_71\n        /* \"#utility.yul\":2432:2436   */\n      dup3\n        /* \"#utility.yul\":2424:2430   */\n      dup3\n        /* \"#utility.yul\":2404:2437   */\n      tag_72\n      jump\t// in\n    tag_71:\n        /* \"#utility.yul\":2314:2443   */\n      swap2\n      swap1\n      pop\n      jump\t// out\n        /* \"#utility.yul\":2449:2524   */\n    tag_70:\n        /* \"#utility.yul\":2482:2488   */\n      0x00\n        /* \"#utility.yul\":2515:2517   */\n      0x40\n        /* \"#utility.yul\":2509:2518   */\n      mload\n        /* \"#utility.yul\":2499:2518   */\n      swap1\n      pop\n        /* \"#utility.yul\":2449:2524   */\n      swap1\n      jump\t// out\n        /* \"#utility.yul\":2530:2838   */\n    tag_32:\n        /* \"#utility.yul\":2592:2596   */\n      0x00\n        /* \"#utility.yul\":2682:2700   */\n      0xffffffffffffffff\n        /* \"#utility.yul\":2674:2680   */\n      dup3\n        /* \"#utility.yul\":2671:2701   */\n      gt\n        /* \"#utility.yul\":2668:2724   */\n      iszero\n      tag_75\n      jumpi\n        /* \"#utility.yul\":2704:2722   */\n      tag_76\n      tag_77\n      jump\t// in\n    tag_76:\n        /* \"#utility.yul\":2668:2724   */\n    tag_75:\n        /* \"#utility.yul\":2742:2771   */\n      tag_78\n        /* \"#utility.yul\":2764:2770   */\n      dup3\n        /* \"#utility.yul\":2742:2771   */\n      tag_65\n      jump\t// in\n    tag_78:\n        /* \"#utility.yul\":2734:2771   */\n      swap1\n      pop\n        /* \"#utility.yul\":2826:2830   */\n      0x20\n        /* \"#utility.yul\":2820:2824   */\n      dup2\n        /* \"#utility.yul\":2816:2831   */\n      add\n        /* \"#utility.yul\":2808:2831   */\n      swap1\n      pop\n        /* \"#utility.yul\":2530:2838   */\n      swap2\n      swap1\n      pop\n      jump\t// out\n        /* \"#utility.yul\":2844:2943   */\n    tag_59:\n        /* \"#utility.yul\":2896:2902   */\n      0x00\n        /* \"#utility.yul\":2930:2935   */\n      dup2\n        /* \"#utility.yul\":2924:2936   */\n      mload\n        /* \"#utility.yul\":2914:2936   */\n      swap1\n      pop\n        /* \"#utility.yul\":2844:2943   */\n      swap2\n      swap1\n      pop\n      jump\t// out\n        /* \"#utility.yul\":2949:3118   */\n    tag_61:\n        /* \"#utility.yul\":3033:3044   */\n      0x00\n        /* \"#utility.yul\":3067:3073   */\n      dup3\n        /* \"#utility.yul\":3062:3065   */\n      dup3\n        /* \"#utility.yul\":3055:3074   */\n      mstore\n        /* \"#utility.yul\":3107:3111   */\n      0x20\n        /* \"#utility.yul\":3102:3105   */\n      dup3\n        /* \"#utility.yul\":3098:3112   */\n      add\n        /* \"#utility.yul\":3083:3112   */\n      swap1\n      pop\n        /* \"#utility.yul\":2949:3118   */\n      swap3\n      swap2\n      pop\n      pop\n      jump\t// out\n        /* \"#utility.yul\":3124:3201   */\n    tag_81:\n        /* \"#utility.yul\":3161:3168   */\n      0x00\n        /* \"#utility.yul\":3190:3195   */\n      dup2\n        /* \"#utility.yul\":3179:3195   */\n      swap1\n      pop\n        /* \"#utility.yul\":3124:3201   */\n      swap2\n      swap1\n      pop\n      jump\t// out\n        /* \"#utility.yul\":3207:3361   */\n    tag_38:\n        /* \"#utility.yul\":3291:3297   */\n      dup3\n        /* \"#utility.yul\":3286:3289   */\n      dup2\n        /* \"#utility.yul\":3281:3284   */\n      dup4\n        /* \"#utility.yul\":3268:3298   */\n      calldatacopy\n        /* \"#utility.yul\":3353:3354   */\n      0x00\n        /* \"#utility.yul\":3344:3350   */\n      dup4\n        /* \"#utility.yul\":3339:3342   */\n      dup4\n        /* \"#utility.yul\":3335:3351   */\n      add\n        /* \"#utility.yul\":3328:3355   */\n      mstore\n        /* \"#utility.yul\":3207:3361   */\n      pop\n      pop\n      pop\n      jump\t// out\n        /* \"#utility.yul\":3367:3674   */\n    tag_63:\n        /* \"#utility.yul\":3435:3436   */\n      0x00\n        /* \"#utility.yul\":3445:3558   */\n    tag_85:\n        /* \"#utility.yul\":3459:3465   */\n      dup4\n        /* \"#utility.yul\":3456:3457   */\n      dup2\n        /* \"#utility.yul\":3453:3466   */\n      lt\n        /* \"#utility.yul\":3445:3558   */\n      iszero\n      tag_87\n      jumpi\n        /* \"#utility.yul\":3544:3545   */\n      dup1\n        /* \"#utility.yul\":3539:3542   */\n      dup3\n        /* \"#utility.yul\":3535:3546   */\n      add\n        /* \"#utility.yul\":3529:3547   */\n      mload\n        /* \"#utility.yul\":3525:3526   */\n      dup2\n        /* \"#utility.yul\":3520:3523   */\n      dup5\n        /* \"#utility.yul\":3516:3527   */\n      add\n        /* \"#utility.yul\":3509:3548   */\n      mstore\n        /* \"#utility.yul\":3481:3483   */\n      0x20\n        /* \"#utility.yul\":3478:3479   */\n      dup2\n        /* \"#utility.yul\":3474:3484   */\n      add\n        /* \"#utility.yul\":3469:3484   */\n      swap1\n      pop\n        /* \"#utility.yul\":3445:3558   */\n      jump(tag_85)\n    tag_87:\n        /* \"#utility.yul\":3576:3582   */\n      dup4\n        /* \"#utility.yul\":3573:3574   */\n      dup2\n        /* \"#utility.yul\":3570:3583   */\n      gt\n        /* \"#utility.yul\":3567:3668   */\n      iszero\n      tag_88\n      jumpi\n        /* \"#utility.yul\":3656:3657   */\n      0x00\n        /* \"#utility.yul\":3647:3653   */\n      dup5\n        /* \"#utility.yul\":3642:3645   */\n      dup5\n        /* \"#utility.yul\":3638:3654   */\n      add\n        /* \"#utility.yul\":3631:3658   */\n      mstore\n        /* \"#utility.yul\":3567:3668   */\n    tag_88:\n        /* \"#utility.yul\":3416:3674   */\n      pop\n        /* \"#utility.yul\":3367:3674   */\n      pop\n      pop\n      pop\n      jump\t// out\n        /* \"#utility.yul\":3680:4000   */\n    tag_17:\n        /* \"#utility.yul\":3724:3730   */\n      0x00\n        /* \"#utility.yul\":3761:3762   */\n      0x02\n        /* \"#utility.yul\":3755:3759   */\n      dup3\n        /* \"#utility.yul\":3751:3763   */\n      div\n        /* \"#utility.yul\":3741:3763   */\n      swap1\n      pop\n        /* \"#utility.yul\":3808:3809   */\n      0x01\n        /* \"#utility.yul\":3802:3806   */\n      dup3\n        /* \"#utility.yul\":3798:3810   */\n      and\n        /* \"#utility.yul\":3829:3847   */\n      dup1\n        /* \"#utility.yul\":3819:3900   */\n      tag_90\n      jumpi\n        /* \"#utility.yul\":3885:3889   */\n      0x7f\n        /* \"#utility.yul\":3877:3883   */\n      dup3\n        /* \"#utility.yul\":3873:3890   */\n      and\n        /* \"#utility.yul\":3863:3890   */\n      swap2\n      pop\n        /* \"#utility.yul\":3819:3900   */\n    tag_90:\n        /* \"#utility.yul\":3947:3949   */\n      0x20\n        /* \"#utility.yul\":3939:3945   */\n      dup3\n        /* \"#utility.yul\":3936:3950   */\n      lt\n        /* \"#utility.yul\":3916:3934   */\n      dup2\n        /* \"#utility.yul\":3913:3951   */\n      eq\n        /* \"#utility.yul\":3910:3994   */\n      iszero\n      tag_91\n      jumpi\n        /* \"#utility.yul\":3966:3984   */\n      tag_92\n      tag_93\n      jump\t// in\n    tag_92:\n        /* \"#utility.yul\":3910:3994   */\n    tag_91:\n        /* \"#utility.yul\":3731:4000   */\n      pop\n        /* \"#utility.yul\":3680:4000   */\n      swap2\n      swap1\n      pop\n      jump\t// out\n        /* \"#utility.yul\":4006:4287   */\n    tag_72:\n        /* \"#utility.yul\":4089:4116   */\n      tag_95\n        /* \"#utility.yul\":4111:4115   */\n      dup3\n        /* \"#utility.yul\":4089:4116   */\n      tag_65\n      jump\t// in\n    tag_95:\n        /* \"#utility.yul\":4081:4087   */\n      dup2\n        /* \"#utility.yul\":4077:4117   */\n      add\n        /* \"#utility.yul\":4219:4225   */\n      dup2\n        /* \"#utility.yul\":4207:4217   */\n      dup2\n        /* \"#utility.yul\":4204:4226   */\n      lt\n        /* \"#utility.yul\":4183:4201   */\n      0xffffffffffffffff\n        /* \"#utility.yul\":4171:4181   */\n      dup3\n        /* \"#utility.yul\":4168:4202   */\n      gt\n        /* \"#utility.yul\":4165:4227   */\n      or\n        /* \"#utility.yul\":4162:4250   */\n      iszero\n      tag_96\n      jumpi\n        /* \"#utility.yul\":4230:4248   */\n      tag_97\n      tag_77\n      jump\t// in\n    tag_97:\n        /* \"#utility.yul\":4162:4250   */\n    tag_96:\n        /* \"#utility.yul\":4270:4280   */\n      dup1\n        /* \"#utility.yul\":4266:4268   */\n      0x40\n        /* \"#utility.yul\":4259:4281   */\n      mstore\n        /* \"#utility.yul\":4049:4287   */\n      pop\n        /* \"#utility.yul\":4006:4287   */\n      pop\n      pop\n      jump\t// out\n        /* \"#utility.yul\":4293:4526   */\n    tag_12:\n        /* \"#utility.yul\":4332:4335   */\n      0x00\n        /* \"#utility.yul\":4355:4379   */\n      tag_99\n        /* \"#utility.yul\":4373:4378   */\n      dup3\n        /* \"#utility.yul\":4355:4379   */\n      tag_81\n      jump\t// in\n    tag_99:\n        /* \"#utility.yul\":4346:4379   */\n      swap2\n      pop\n        /* \"#utility.yul\":4401:4467   */\n      0xffffffffffffffffffffffffffffffffffffffffffffffffffffffffffffffff\n        /* \"#utility.yul\":4394:4399   */\n      dup3\n        /* \"#utility.yul\":4391:4468   */\n      eq\n        /* \"#utility.yul\":4388:4491   */\n      iszero\n      tag_100\n      jumpi\n        /* \"#utility.yul\":4471:4489   */\n      tag_101\n      tag_102\n      jump\t// in\n    tag_101:\n        /* \"#utility.yul\":4388:4491   */\n    tag_100:\n        /* \"#utility.yul\":4518:4519   */\n      0x01\n        /* \"#utility.yul\":4511:4516   */\n      dup3\n        /* \"#utility.yul\":4507:4520   */\n      add\n        /* \"#utility.yul\":4500:4520   */\n      swap1\n      pop\n        /* \"#utility.yul\":4293:4526   */\n      swap2\n      swap1\n      pop\n      jump\t// out\n        /* \"#utility.yul\":4532:4712   */\n    tag_102:\n        /* \"#utility.yul\":4580:4657   */\n      0x4e487b7100000000000000000000000000000000000000000000000000000000\n        /* \"#utility.yul\":4577:4578   */\n      0x00\n        /* \"#utility.yul\":4570:4658   */\n      mstore\n        /* \"#utility.yul\":4677:4681   */\n      0x11\n        /* \"#utility.yul\":4674:4675   */\n      0x04\n        /* \"#utility.yul\":4667:4682   */\n      mstore\n        /* \"#utility.yul\":4701:4705   */\n      0x24\n        /* \"#utility.yul\":4698:4699   */\n      0x00\n        /* \"#utility.yul\":4691:4706   */\n      revert\n        /* \"#utility.yul\":4718:4898   */\n    tag_93:\n        /* \"#utility.yul\":4766:4843   */\n      0x4e487b7100000000000000000000000000000000000000000000000000000000\n        /* \"#utility.yul\":4763:4764   */\n      0x00\n        /* \"#utility.yul\":4756:4844   */\n      mstore\n        /* \"#utility.yul\":4863:4867   */\n      0x22\n        /* \"#utility.yul\":4860:4861   */\n      0x04\n        /* \"#utility.yul\":4853:4868   */\n      mstore\n        /* \"#utility.yul\":4887:4891   */\n      0x24\n        /* \"#utility.yul\":4884:4885   */\n      0x00\n        /* \"#utility.yul\":4877:4892   */\n      revert\n        /* \"#utility.yul\":4904:5084   */\n    tag_77:\n        /* \"#utility.yul\":4952:5029   */\n      0x4e487b7100000000000000000000000000000000000000000000000000000000\n        /* \"#utility.yul\":4949:4950   */\n      0x00\n        /* \"#utility.yul\":4942:5030   */\n      mstore\n        /* \"#utility.yul\":5049:5053   */\n      0x41\n        /* \"#utility.yul\":5046:5047   */\n      0x04\n        /* \"#utility.yul\":5039:5054   */\n      mstore\n        /* \"#utility.yul\":5073:5077   */\n      0x24\n        /* \"#utility.yul\":5070:5071   */\n      0x00\n        /* \"#utility.yul\":5063:5078   */\n      revert\n        /* \"#utility.yul\":5090:5207   */\n    tag_43:\n        /* \"#utility.yul\":5199:5200   */\n      0x00\n        /* \"#utility.yul\":5196:5197   */\n      dup1\n        /* \"#utility.yul\":5189:5201   */\n      revert\n        /* \"#utility.yul\":5213:5330   */\n    tag_36:\n        /* \"#utility.yul\":5322:5323   */\n      0x00\n        /* \"#utility.yul\":5319:5320   */\n      dup1\n        /* \"#utility.yul\":5312:5324   */\n      revert\n        /* \"#utility.yul\":5336:5453   */\n    tag_51:\n        /* \"#utility.yul\":5445:5446   */\n      0x00\n        /* \"#utility.yul\":5442:5443   */\n      dup1\n        /* \"#utility.yul\":5435:5447   */\n      revert\n        /* \"#utility.yul\":5459:5576   */\n    tag_48:\n        /* \"#utility.yul\":5568:5569   */\n      0x00\n        /* \"#utility.yul\":5565:5566   */\n      dup1\n        /* \"#utility.yul\":5558:5570   */\n      revert\n        /* \"#utility.yul\":5582:5684   */\n    tag_65:\n        /* \"#utility.yul\":5623:5629   */\n      0x00\n        /* \"#utility.yul\":5674:5676   */\n      0x1f\n        /* \"#utility.yul\":5670:5677   */\n      not\n        /* \"#utility.yul\":5665:5667   */\n      0x1f\n        /* \"#utility.yul\":5658:5663   */\n      dup4\n        /* \"#utility.yul\":5654:5668   */\n      add\n        /* \"#utility.yul\":5650:5678   */\n      and\n        /* \"#utility.yul\":5640:5678   */\n      swap1\n      pop\n        /* \"#utility.yul\":5582:5684   */\n      swap2\n      swap1\n      pop\n      jump\t// out\n    stop\n    data_346ae9e229890c1b5467b3280ac50efb3a563831aa4e9bb9392fe53f7d7de7e2 596f752077696c6c20626520616464656420746f2063616e646964617465206c697374206f6e636520796f75206172652076616c696461746564206279207468652061646d696e\n\n    auxdata: 0xa264697066735822122090297a5884ac556cbff2e55310f218d58db8ba4f38030fa4c99785214b94e96064736f6c63430008070033\n}\n",
				"bytecode": {
					"linkReferences": {},
					"object": "608060405234801561001057600080fd5b5033600260006101000a81548173ffffffffffffffffffffffffffffffffffffffff021916908373ffffffffffffffffffffffffffffffffffffffff1602179055506105ac806100616000396000f3fe608060405234801561001057600080fd5b506004361061002b5760003560e01c806317678bc314610030575b600080fd5b61004a60048036038101906100459190610240565b610060565b60405161005791906102f1565b60405180910390f35b606060006001600081548092919061007790610434565b9190505590506040518060600160405280858152602001848152602001600015158152506003600083815260200190815260200160002060008201518160000190805190602001906100ca92919061012d565b5060208201518160010190805190602001906100e792919061012d565b5060408201518160020160006101000a81548160ff0219169083151502179055509050506040518060800160405280604781526020016105306047913991505092915050565b828054610139906103d1565b90600052602060002090601f01602090048101928261015b57600085556101a2565b82601f1061017457805160ff19168380011785556101a2565b828001600101855582156101a2579182015b828111156101a1578251825591602001919060010190610186565b5b5090506101af91906101b3565b5090565b5b808211156101cc5760008160009055506001016101b4565b5090565b60006101e36101de84610338565b610313565b9050828152602081018484840111156101ff576101fe61050f565b5b61020a84828561038f565b509392505050565b600082601f8301126102275761022661050a565b5b81356102378482602086016101d0565b91505092915050565b6000806040838503121561025757610256610519565b5b600083013567ffffffffffffffff81111561027557610274610514565b5b61028185828601610212565b925050602083013567ffffffffffffffff8111156102a2576102a1610514565b5b6102ae85828601610212565b9150509250929050565b60006102c382610369565b6102cd8185610374565b93506102dd81856020860161039e565b6102e68161051e565b840191505092915050565b6000602082019050818103600083015261030b81846102b8565b905092915050565b600061031d61032e565b90506103298282610403565b919050565b6000604051905090565b600067ffffffffffffffff821115610353576103526104db565b5b61035c8261051e565b9050602081019050919050565b600081519050919050565b600082825260208201905092915050565b6000819050919050565b82818337600083830152505050565b60005b838110156103bc5780820151818401526020810190506103a1565b838111156103cb576000848401525b50505050565b600060028204905060018216806103e957607f821691505b602082108114156103fd576103fc6104ac565b5b50919050565b61040c8261051e565b810181811067ffffffffffffffff8211171561042b5761042a6104db565b5b80604052505050565b600061043f82610385565b91507fffffffffffffffffffffffffffffffffffffffffffffffffffffffffffffffff8214156104725761047161047d565b5b600182019050919050565b7f4e487b7100000000000000000000000000000000000000000000000000000000600052601160045260246000fd5b7f4e487b7100000000000000000000000000000000000000000000000000000000600052602260045260246000fd5b7f4e487b7100000000000000000000000000000000000000000000000000000000600052604160045260246000fd5b600080fd5b600080fd5b600080fd5b600080fd5b6000601f19601f830116905091905056fe596f752077696c6c20626520616464656420746f2063616e646964617465206c697374206f6e636520796f75206172652076616c696461746564206279207468652061646d696ea264697066735822122090297a5884ac556cbff2e55310f218d58db8ba4f38030fa4c99785214b94e96064736f6c63430008070033",
					"opcodes": "PUSH1 0x80 PUSH1 0x40 MSTORE CALLVALUE DUP1 ISZERO PUSH2 0x10 JUMPI PUSH1 0x0 DUP1 REVERT JUMPDEST POP CALLER PUSH1 0x2 PUSH1 0x0 PUSH2 0x100 EXP DUP2 SLOAD DUP2 PUSH20 0xFFFFFFFFFFFFFFFFFFFFFFFFFFFFFFFFFFFFFFFF MUL NOT AND SWAP1 DUP4 PUSH20 0xFFFFFFFFFFFFFFFFFFFFFFFFFFFFFFFFFFFFFFFF AND MUL OR SWAP1 SSTORE POP PUSH2 0x5AC DUP1 PUSH2 0x61 PUSH1 0x0 CODECOPY PUSH1 0x0 RETURN INVALID PUSH1 0x80 PUSH1 0x40 MSTORE CALLVALUE DUP1 ISZERO PUSH2 0x10 JUMPI PUSH1 0x0 DUP1 REVERT JUMPDEST POP PUSH1 0x4 CALLDATASIZE LT PUSH2 0x2B JUMPI PUSH1 0x0 CALLDATALOAD PUSH1 0xE0 SHR DUP1 PUSH4 0x17678BC3 EQ PUSH2 0x30 JUMPI JUMPDEST PUSH1 0x0 DUP1 REVERT JUMPDEST PUSH2 0x4A PUSH1 0x4 DUP1 CALLDATASIZE SUB DUP2 ADD SWAP1 PUSH2 0x45 SWAP2 SWAP1 PUSH2 0x240 JUMP JUMPDEST PUSH2 0x60 JUMP JUMPDEST PUSH1 0x40 MLOAD PUSH2 0x57 SWAP2 SWAP1 PUSH2 0x2F1 JUMP JUMPDEST PUSH1 0x40 MLOAD DUP1 SWAP2 SUB SWAP1 RETURN JUMPDEST PUSH1 0x60 PUSH1 0x0 PUSH1 0x1 PUSH1 0x0 DUP2 SLOAD DUP1 SWAP3 SWAP2 SWAP1 PUSH2 0x77 SWAP1 PUSH2 0x434 JUMP JUMPDEST SWAP2 SWAP1 POP SSTORE SWAP1 POP PUSH1 0x40 MLOAD DUP1 PUSH1 0x60 ADD PUSH1 0x40 MSTORE DUP1 DUP6 DUP2 MSTORE PUSH1 0x20 ADD DUP5 DUP2 MSTORE PUSH1 0x20 ADD PUSH1 0x0 ISZERO ISZERO DUP2 MSTORE POP PUSH1 0x3 PUSH1 0x0 DUP4 DUP2 MSTORE PUSH1 0x20 ADD SWAP1 DUP2 MSTORE PUSH1 0x20 ADD PUSH1 0x0 KECCAK256 PUSH1 0x0 DUP3 ADD MLOAD DUP2 PUSH1 0x0 ADD SWAP1 DUP1 MLOAD SWAP1 PUSH1 0x20 ADD SWAP1 PUSH2 0xCA SWAP3 SWAP2 SWAP1 PUSH2 0x12D JUMP JUMPDEST POP PUSH1 0x20 DUP3 ADD MLOAD DUP2 PUSH1 0x1 ADD SWAP1 DUP1 MLOAD SWAP1 PUSH1 0x20 ADD SWAP1 PUSH2 0xE7 SWAP3 SWAP2 SWAP1 PUSH2 0x12D JUMP JUMPDEST POP PUSH1 0x40 DUP3 ADD MLOAD DUP2 PUSH1 0x2 ADD PUSH1 0x0 PUSH2 0x100 EXP DUP2 SLOAD DUP2 PUSH1 0xFF MUL NOT AND SWAP1 DUP4 ISZERO ISZERO MUL OR SWAP1 SSTORE POP SWAP1 POP POP PUSH1 0x40 MLOAD DUP1 PUSH1 0x80 ADD PUSH1 0x40 MSTORE DUP1 PUSH1 0x47 DUP2 MSTORE PUSH1 0x20 ADD PUSH2 0x530 PUSH1 0x47 SWAP2 CODECOPY SWAP2 POP POP SWAP3 SWAP2 POP POP JUMP JUMPDEST DUP3 DUP1 SLOAD PUSH2 0x139 SWAP1 PUSH2 0x3D1 JUMP JUMPDEST SWAP1 PUSH1 0x0 MSTORE PUSH1 0x20 PUSH1 0x0 KECCAK256 SWAP1 PUSH1 0x1F ADD PUSH1 0x20 SWAP1 DIV DUP2 ADD SWAP3 DUP3 PUSH2 0x15B JUMPI PUSH1 0x0 DUP6 SSTORE PUSH2 0x1A2 JUMP JUMPDEST DUP3 PUSH1 0x1F LT PUSH2 0x174 JUMPI DUP1 MLOAD PUSH1 0xFF NOT AND DUP4 DUP1 ADD OR DUP6 SSTORE PUSH2 0x1A2 JUMP JUMPDEST DUP3 DUP1 ADD PUSH1 0x1 ADD DUP6 SSTORE DUP3 ISZERO PUSH2 0x1A2 JUMPI SWAP2 DUP3 ADD JUMPDEST DUP3 DUP2 GT ISZERO PUSH2 0x1A1 JUMPI DUP3 MLOAD DUP3 SSTORE SWAP2 PUSH1 0x20 ADD SWAP2 SWAP1 PUSH1 0x1 ADD SWAP1 PUSH2 0x186 JUMP JUMPDEST JUMPDEST POP SWAP1 POP PUSH2 0x1AF SWAP2 SWAP1 PUSH2 0x1B3 JUMP JUMPDEST POP SWAP1 JUMP JUMPDEST JUMPDEST DUP1 DUP3 GT ISZERO PUSH2 0x1CC JUMPI PUSH1 0x0 DUP2 PUSH1 0x0 SWAP1 SSTORE POP PUSH1 0x1 ADD PUSH2 0x1B4 JUMP JUMPDEST POP SWAP1 JUMP JUMPDEST PUSH1 0x0 PUSH2 0x1E3 PUSH2 0x1DE DUP5 PUSH2 0x338 JUMP JUMPDEST PUSH2 0x313 JUMP JUMPDEST SWAP1 POP DUP3 DUP2 MSTORE PUSH1 0x20 DUP2 ADD DUP5 DUP5 DUP5 ADD GT ISZERO PUSH2 0x1FF JUMPI PUSH2 0x1FE PUSH2 0x50F JUMP JUMPDEST JUMPDEST PUSH2 0x20A DUP5 DUP3 DUP6 PUSH2 0x38F JUMP JUMPDEST POP SWAP4 SWAP3 POP POP POP JUMP JUMPDEST PUSH1 0x0 DUP3 PUSH1 0x1F DUP4 ADD SLT PUSH2 0x227 JUMPI PUSH2 0x226 PUSH2 0x50A JUMP JUMPDEST JUMPDEST DUP2 CALLDATALOAD PUSH2 0x237 DUP5 DUP3 PUSH1 0x20 DUP7 ADD PUSH2 0x1D0 JUMP JUMPDEST SWAP2 POP POP SWAP3 SWAP2 POP POP JUMP JUMPDEST PUSH1 0x0 DUP1 PUSH1 0x40 DUP4 DUP6 SUB SLT ISZERO PUSH2 0x257 JUMPI PUSH2 0x256 PUSH2 0x519 JUMP JUMPDEST JUMPDEST PUSH1 0x0 DUP4 ADD CALLDATALOAD PUSH8 0xFFFFFFFFFFFFFFFF DUP2 GT ISZERO PUSH2 0x275 JUMPI PUSH2 0x274 PUSH2 0x514 JUMP JUMPDEST JUMPDEST PUSH2 0x281 DUP6 DUP3 DUP7 ADD PUSH2 0x212 JUMP JUMPDEST SWAP3 POP POP PUSH1 0x20 DUP4 ADD CALLDATALOAD PUSH8 0xFFFFFFFFFFFFFFFF DUP2 GT ISZERO PUSH2 0x2A2 JUMPI PUSH2 0x2A1 PUSH2 0x514 JUMP JUMPDEST JUMPDEST PUSH2 0x2AE DUP6 DUP3 DUP7 ADD PUSH2 0x212 JUMP JUMPDEST SWAP2 POP POP SWAP3 POP SWAP3 SWAP1 POP JUMP JUMPDEST PUSH1 0x0 PUSH2 0x2C3 DUP3 PUSH2 0x369 JUMP JUMPDEST PUSH2 0x2CD DUP2 DUP6 PUSH2 0x374 JUMP JUMPDEST SWAP4 POP PUSH2 0x2DD DUP2 DUP6 PUSH1 0x20 DUP7 ADD PUSH2 0x39E JUMP JUMPDEST PUSH2 0x2E6 DUP2 PUSH2 0x51E JUMP JUMPDEST DUP5 ADD SWAP2 POP POP SWAP3 SWAP2 POP POP JUMP JUMPDEST PUSH1 0x0 PUSH1 0x20 DUP3 ADD SWAP1 POP DUP2 DUP2 SUB PUSH1 0x0 DUP4 ADD MSTORE PUSH2 0x30B DUP2 DUP5 PUSH2 0x2B8 JUMP JUMPDEST SWAP1 POP SWAP3 SWAP2 POP POP JUMP JUMPDEST PUSH1 0x0 PUSH2 0x31D PUSH2 0x32E JUMP JUMPDEST SWAP1 POP PUSH2 0x329 DUP3 DUP3 PUSH2 0x403 JUMP JUMPDEST SWAP2 SWAP1 POP JUMP JUMPDEST PUSH1 0x0 PUSH1 0x40 MLOAD SWAP1 POP SWAP1 JUMP JUMPDEST PUSH1 0x0 PUSH8 0xFFFFFFFFFFFFFFFF DUP3 GT ISZERO PUSH2 0x353 JUMPI PUSH2 0x352 PUSH2 0x4DB JUMP JUMPDEST JUMPDEST PUSH2 0x35C DUP3 PUSH2 0x51E JUMP JUMPDEST SWAP1 POP PUSH1 0x20 DUP2 ADD SWAP1 POP SWAP2 SWAP1 POP JUMP JUMPDEST PUSH1 0x0 DUP2 MLOAD SWAP1 POP SWAP2 SWAP1 POP JUMP JUMPDEST PUSH1 0x0 DUP3 DUP3 MSTORE PUSH1 0x20 DUP3 ADD SWAP1 POP SWAP3 SWAP2 POP POP JUMP JUMPDEST PUSH1 0x0 DUP2 SWAP1 POP SWAP2 SWAP1 POP JUMP JUMPDEST DUP3 DUP2 DUP4 CALLDATACOPY PUSH1 0x0 DUP4 DUP4 ADD MSTORE POP POP POP JUMP JUMPDEST PUSH1 0x0 JUMPDEST DUP4 DUP2 LT ISZERO PUSH2 0x3BC JUMPI DUP1 DUP3 ADD MLOAD DUP2 DUP5 ADD MSTORE PUSH1 0x20 DUP2 ADD SWAP1 POP PUSH2 0x3A1 JUMP JUMPDEST DUP4 DUP2 GT ISZERO PUSH2 0x3CB JUMPI PUSH1 0x0 DUP5 DUP5 ADD MSTORE JUMPDEST POP POP POP POP JUMP JUMPDEST PUSH1 0x0 PUSH1 0x2 DUP3 DIV SWAP1 POP PUSH1 0x1 DUP3 AND DUP1 PUSH2 0x3E9 JUMPI PUSH1 0x7F DUP3 AND SWAP2 POP JUMPDEST PUSH1 0x20 DUP3 LT DUP2 EQ ISZERO PUSH2 0x3FD JUMPI PUSH2 0x3FC PUSH2 0x4AC JUMP JUMPDEST JUMPDEST POP SWAP2 SWAP1 POP JUMP JUMPDEST PUSH2 0x40C DUP3 PUSH2 0x51E JUMP JUMPDEST DUP2 ADD DUP2 DUP2 LT PUSH8 0xFFFFFFFFFFFFFFFF DUP3 GT OR ISZERO PUSH2 0x42B JUMPI PUSH2 0x42A PUSH2 0x4DB JUMP JUMPDEST JUMPDEST DUP1 PUSH1 0x40 MSTORE POP POP POP JUMP JUMPDEST PUSH1 0x0 PUSH2 0x43F DUP3 PUSH2 0x385 JUMP JUMPDEST SWAP2 POP PUSH32 0xFFFFFFFFFFFFFFFFFFFFFFFFFFFFFFFFFFFFFFFFFFFFFFFFFFFFFFFFFFFFFFFF DUP3 EQ ISZERO PUSH2 0x472 JUMPI PUSH2 0x471 PUSH2 0x47D JUMP JUMPDEST JUMPDEST PUSH1 0x1 DUP3 ADD SWAP1 POP SWAP2 SWAP1 POP JUMP JUMPDEST PUSH32 0x4E487B7100000000000000000000000000000000000000000000000000000000 PUSH1 0x0 MSTORE PUSH1 0x11 PUSH1 0x4 MSTORE PUSH1 0x24 PUSH1 0x0 REVERT JUMPDEST PUSH32 0x4E487B7100000000000000000000000000000000000000000000000000000000 PUSH1 0x0 MSTORE PUSH1 0x22 PUSH1 0x4 MSTORE PUSH1 0x24 PUSH1 0x0 REVERT JUMPDEST PUSH32 0x4E487B7100000000000000000000000000000000000000000000000000000000 PUSH1 0x0 MSTORE PUSH1 0x41 PUSH1 0x4 MSTORE PUSH1 0x24 PUSH1 0x0 REVERT JUMPDEST PUSH1 0x0 DUP1 REVERT JUMPDEST PUSH1 0x0 DUP1 REVERT JUMPDEST PUSH1 0x0 DUP1 REVERT JUMPDEST PUSH1 0x0 DUP1 REVERT JUMPDEST PUSH1 0x0 PUSH1 0x1F NOT PUSH1 0x1F DUP4 ADD AND SWAP1 POP SWAP2 SWAP1 POP JUMP INVALID MSIZE PUSH16 0x752077696C6C20626520616464656420 PUSH21 0x6F2063616E646964617465206C697374206F6E6365 KECCAK256 PUSH26 0x6F75206172652076616C69646174656420627920746865206164 PUSH14 0x696EA26469706673582212209029 PUSH27 0x5884AC556CBFF2E55310F218D58DB8BA4F38030FA4C99785214B94 0xE9 PUSH1 0x64 PUSH20 0x6F6C634300080700330000000000000000000000 "
				},
				"gasEstimates": {
					"creation": {
						"codeDepositCost": "290400",
						"executionCost": "24597",
						"totalCost": "314997"
					},
					"external": {
						"candidateEnrollment(string,string)": "infinite"
					}
				},
				"methodIdentifiers": {
					"candidateEnrollment(string,string)": "17678bc3"
				}
			},
			"storageLayout": {
				"storage": [
					{
						"astId": 3,
						"contract": "voting.sol:Voting",
						"label": "noOfVoters",
						"offset": 0,
						"slot": "0",
						"type": "t_uint256"
					},
					{
						"astId": 5,
						"contract": "voting.sol:Voting",
						"label": "noOfCandidates",
						"offset": 0,
						"slot": "1",
						"type": "t_uint256"
					},
					{
						"astId": 7,
						"contract": "voting.sol:Voting",
						"label": "admin",
						"offset": 0,
						"slot": "2",
						"type": "t_address"
					},
					{
						"astId": 12,
						"contract": "voting.sol:Voting",
						"label": "enrolledCandidates",
						"offset": 0,
						"slot": "3",
						"type": "t_mapping(t_uint256,t_struct(Candidate)24_storage)"
					},
					{
						"astId": 17,
						"contract": "voting.sol:Voting",
						"label": "validCandidates",
						"offset": 0,
						"slot": "4",
						"type": "t_mapping(t_uint256,t_struct(Candidate)24_storage)"
					}
				],
				"types": {
					"t_address": {
						"encoding": "inplace",
						"label": "address",
						"numberOfBytes": "20"
					},
					"t_bool": {
						"encoding": "inplace",
						"label": "bool",
						"numberOfBytes": "1"
					},
					"t_mapping(t_uint256,t_struct(Candidate)24_storage)": {
						"encoding": "mapping",
						"key": "t_uint256",
						"label": "mapping(uint256 => struct Voting.Candidate)",
						"numberOfBytes": "32",
						"value": "t_struct(Candidate)24_storage"
					},
					"t_string_storage": {
						"encoding": "bytes",
						"label": "string",
						"numberOfBytes": "32"
					},
					"t_struct(Candidate)24_storage": {
						"encoding": "inplace",
						"label": "struct Voting.Candidate",
						"members": [
							{
								"astId": 19,
								"contract": "voting.sol:Voting",
								"label": "candidate_name",
								"offset": 0,
								"slot": "0",
								"type": "t_string_storage"
							},
							{
								"astId": 21,
								"contract": "voting.sol:Voting",
								"label": "candidate_description",
								"offset": 0,
								"slot": "1",
								"type": "t_string_storage"
							},
							{
								"astId": 23,
								"contract": "voting.sol:Voting",
								"label": "isValid",
								"offset": 0,
								"slot": "2",
								"type": "t_bool"
							}
						],
						"numberOfBytes": "96"
					},
					"t_uint256": {
						"encoding": "inplace",
						"label": "uint256",
						"numberOfBytes": "32"
					}
				}
			},
			"userdoc": {
				"kind": "user",
				"methods": {},
				"version": 1
			}
		}
	}
}