{
	"voting.sol": {
		"Voting": {
			"abi": [
				{
					"inputs": [],
					"stateMutability": "nonpayable",
					"type": "constructor"
				},
				{
					"inputs": [
						{
							"internalType": "string",
							"name": "name",
							"type": "string"
						},
						{
							"internalType": "string",
							"name": "description",
							"type": "string"
						}
					],
					"name": "candidateEnrollment",
					"outputs": [
						{
							"internalType": "string",
							"name": "",
							"type": "string"
						}
					],
					"stateMutability": "nonpayable",
					"type": "function"
				},
				{
					"inputs": [
						{
							"internalType": "uint256",
							"name": "",
							"type": "uint256"
						}
					],
					"name": "enrolledCandidates",
					"outputs": [
						{
							"internalType": "string",
							"name": "candidate_name",
							"type": "string"
						},
						{
							"internalType": "string",
							"name": "candidate_description",
							"type": "string"
						}
					],
					"stateMutability": "view",
					"type": "function"
				}
			],
			"devdoc": {
				"kind": "dev",
				"methods": {},
				"version": 1
			},
			"evm": {
				"assembly": "    /* \"voting.sol\":59:882  contract Voting{\r... */\n  mstore(0x40, 0x80)\n    /* \"voting.sol\":388:438  constructor(){\r... */\n  callvalue\n  dup1\n  iszero\n  tag_1\n  jumpi\n  0x00\n  dup1\n  revert\ntag_1:\n  pop\n    /* \"voting.sol\":420:430  msg.sender */\n  caller\n    /* \"voting.sol\":412:417  admin */\n  0x02\n  0x00\n    /* \"voting.sol\":412:430  admin = msg.sender */\n  0x0100\n  exp\n  dup2\n  sload\n  dup2\n  0xffffffffffffffffffffffffffffffffffffffff\n  mul\n  not\n  and\n  swap1\n  dup4\n  0xffffffffffffffffffffffffffffffffffffffff\n  and\n  mul\n  or\n  swap1\n  sstore\n  pop\n    /* \"voting.sol\":59:882  contract Voting{\r... */\n  dataSize(sub_0)\n  dup1\n  dataOffset(sub_0)\n  0x00\n  codecopy\n  0x00\n  return\nstop\n\nsub_0: assembly {\n        /* \"voting.sol\":59:882  contract Voting{\r... */\n      mstore(0x40, 0x80)\n      callvalue\n      dup1\n      iszero\n      tag_1\n      jumpi\n      0x00\n      dup1\n      revert\n    tag_1:\n      pop\n      jumpi(tag_2, lt(calldatasize, 0x04))\n      shr(0xe0, calldataload(0x00))\n      dup1\n      0x17678bc3\n      eq\n      tag_3\n      jumpi\n      dup1\n      0x7e336329\n      eq\n      tag_4\n      jumpi\n    tag_2:\n      0x00\n      dup1\n      revert\n        /* \"voting.sol\":548:879  function candidateEnrollment(string memory name,string memory description) public onlyAdmin returns(string memory){\r... */\n    tag_3:\n      tag_5\n      0x04\n      dup1\n      calldatasize\n      sub\n      dup2\n      add\n      swap1\n      tag_6\n      swap2\n      swap1\n      tag_7\n      jump\t// in\n    tag_6:\n      tag_8\n      jump\t// in\n    tag_5:\n      mload(0x40)\n      tag_9\n      swap2\n      swap1\n      tag_10\n      jump\t// in\n    tag_9:\n      mload(0x40)\n      dup1\n      swap2\n      sub\n      swap1\n      return\n        /* \"voting.sol\":149:202  mapping (uint => Candidate) public enrolledCandidates */\n    tag_4:\n      tag_11\n      0x04\n      dup1\n      calldatasize\n      sub\n      dup2\n      add\n      swap1\n      tag_12\n      swap2\n      swap1\n      tag_13\n      jump\t// in\n    tag_12:\n      tag_14\n      jump\t// in\n    tag_11:\n      mload(0x40)\n      tag_15\n      swap3\n      swap2\n      swap1\n      tag_16\n      jump\t// in\n    tag_15:\n      mload(0x40)\n      dup1\n      swap2\n      sub\n      swap1\n      return\n        /* \"voting.sol\":548:879  function candidateEnrollment(string memory name,string memory description) public onlyAdmin returns(string memory){\r... */\n    tag_8:\n        /* \"voting.sol\":648:661  string memory */\n      0x60\n        /* \"voting.sol\":497:502  admin */\n      0x02\n      0x00\n      swap1\n      sload\n      swap1\n      0x0100\n      exp\n      swap1\n      div\n      0xffffffffffffffffffffffffffffffffffffffff\n      and\n        /* \"voting.sol\":483:502  msg.sender == admin */\n      0xffffffffffffffffffffffffffffffffffffffff\n      and\n        /* \"voting.sol\":483:493  msg.sender */\n      caller\n        /* \"voting.sol\":483:502  msg.sender == admin */\n      0xffffffffffffffffffffffffffffffffffffffff\n      and\n      eq\n        /* \"voting.sol\":475:522  require(msg.sender == admin,\"Access is Denied\") */\n      tag_18\n      jumpi\n      mload(0x40)\n      0x08c379a000000000000000000000000000000000000000000000000000000000\n      dup2\n      mstore\n      0x04\n      add\n      tag_19\n      swap1\n      tag_20\n      jump\t// in\n    tag_19:\n      mload(0x40)\n      dup1\n      swap2\n      sub\n      swap1\n      revert\n    tag_18:\n        /* \"voting.sol\":673:689  uint candidateID */\n      0x00\n        /* \"voting.sol\":692:706  noOfCandidates */\n      0x01\n      0x00\n        /* \"voting.sol\":692:708  noOfCandidates++ */\n      dup2\n      sload\n      dup1\n      swap3\n      swap2\n      swap1\n      tag_22\n      swap1\n      tag_23\n      jump\t// in\n    tag_22:\n      swap2\n      swap1\n      pop\n      sstore\n        /* \"voting.sol\":673:708  uint candidateID = noOfCandidates++ */\n      swap1\n      pop\n        /* \"voting.sol\":753:780  Candidate(name,description) */\n      mload(0x40)\n      dup1\n      0x40\n      add\n      0x40\n      mstore\n      dup1\n        /* \"voting.sol\":763:767  name */\n      dup6\n        /* \"voting.sol\":753:780  Candidate(name,description) */\n      dup2\n      mstore\n      0x20\n      add\n        /* \"voting.sol\":768:779  description */\n      dup5\n        /* \"voting.sol\":753:780  Candidate(name,description) */\n      dup2\n      mstore\n      pop\n        /* \"voting.sol\":719:737  enrolledCandidates */\n      0x03\n        /* \"voting.sol\":719:750  enrolledCandidates[candidateID] */\n      0x00\n        /* \"voting.sol\":738:749  candidateID */\n      dup4\n        /* \"voting.sol\":719:750  enrolledCandidates[candidateID] */\n      dup2\n      mstore\n      0x20\n      add\n      swap1\n      dup2\n      mstore\n      0x20\n      add\n      0x00\n      keccak256\n        /* \"voting.sol\":719:780  enrolledCandidates[candidateID] = Candidate(name,description) */\n      0x00\n      dup3\n      add\n      mload\n      dup2\n      0x00\n      add\n      swap1\n      dup1\n      mload\n      swap1\n      0x20\n      add\n      swap1\n      tag_24\n      swap3\n      swap2\n      swap1\n      tag_25\n      jump\t// in\n    tag_24:\n      pop\n      0x20\n      dup3\n      add\n      mload\n      dup2\n      0x01\n      add\n      swap1\n      dup1\n      mload\n      swap1\n      0x20\n      add\n      swap1\n      tag_26\n      swap3\n      swap2\n      swap1\n      tag_25\n      jump\t// in\n    tag_26:\n      pop\n      swap1\n      pop\n      pop\n        /* \"voting.sol\":791:871  return \"You will be added to candidate list once you are validated by the admin\" */\n      mload(0x40)\n      dup1\n      0x80\n      add\n      0x40\n      mstore\n      dup1\n      0x47\n      dup2\n      mstore\n      0x20\n      add\n      data_346ae9e229890c1b5467b3280ac50efb3a563831aa4e9bb9392fe53f7d7de7e2\n      0x47\n      swap2\n      codecopy\n      swap2\n      pop\n      pop\n        /* \"voting.sol\":548:879  function candidateEnrollment(string memory name,string memory description) public onlyAdmin returns(string memory){\r... */\n      swap3\n      swap2\n      pop\n      pop\n      jump\t// out\n        /* \"voting.sol\":149:202  mapping (uint => Candidate) public enrolledCandidates */\n    tag_14:\n      mstore(0x20, 0x03)\n      dup1\n      0x00\n      mstore\n      keccak256(0x00, 0x40)\n      0x00\n      swap2\n      pop\n      swap1\n      pop\n      dup1\n      0x00\n      add\n      dup1\n      sload\n      tag_27\n      swap1\n      tag_28\n      jump\t// in\n    tag_27:\n      dup1\n      0x1f\n      add\n      0x20\n      dup1\n      swap2\n      div\n      mul\n      0x20\n      add\n      mload(0x40)\n      swap1\n      dup2\n      add\n      0x40\n      mstore\n      dup1\n      swap3\n      swap2\n      swap1\n      dup2\n      dup2\n      mstore\n      0x20\n      add\n      dup3\n      dup1\n      sload\n      tag_29\n      swap1\n      tag_28\n      jump\t// in\n    tag_29:\n      dup1\n      iszero\n      tag_30\n      jumpi\n      dup1\n      0x1f\n      lt\n      tag_31\n      jumpi\n      0x0100\n      dup1\n      dup4\n      sload\n      div\n      mul\n      dup4\n      mstore\n      swap2\n      0x20\n      add\n      swap2\n      jump(tag_30)\n    tag_31:\n      dup3\n      add\n      swap2\n      swap1\n      0x00\n      mstore\n      keccak256(0x00, 0x20)\n      swap1\n    tag_32:\n      dup2\n      sload\n      dup2\n      mstore\n      swap1\n      0x01\n      add\n      swap1\n      0x20\n      add\n      dup1\n      dup4\n      gt\n      tag_32\n      jumpi\n      dup3\n      swap1\n      sub\n      0x1f\n      and\n      dup3\n      add\n      swap2\n    tag_30:\n      pop\n      pop\n      pop\n      pop\n      pop\n      swap1\n      dup1\n      0x01\n      add\n      dup1\n      sload\n      tag_33\n      swap1\n      tag_28\n      jump\t// in\n    tag_33:\n      dup1\n      0x1f\n      add\n      0x20\n      dup1\n      swap2\n      div\n      mul\n      0x20\n      add\n      mload(0x40)\n      swap1\n      dup2\n      add\n      0x40\n      mstore\n      dup1\n      swap3\n      swap2\n      swap1\n      dup2\n      dup2\n      mstore\n      0x20\n      add\n      dup3\n      dup1\n      sload\n      tag_34\n      swap1\n      tag_28\n      jump\t// in\n    tag_34:\n      dup1\n      iszero\n      tag_35\n      jumpi\n      dup1\n      0x1f\n      lt\n      tag_36\n      jumpi\n      0x0100\n      dup1\n      dup4\n      sload\n      div\n      mul\n      dup4\n      mstore\n      swap2\n      0x20\n      add\n      swap2\n      jump(tag_35)\n    tag_36:\n      dup3\n      add\n      swap2\n      swap1\n      0x00\n      mstore\n      keccak256(0x00, 0x20)\n      swap1\n    tag_37:\n      dup2\n      sload\n      dup2\n      mstore\n      swap1\n      0x01\n      add\n      swap1\n      0x20\n      add\n      dup1\n      dup4\n      gt\n      tag_37\n      jumpi\n      dup3\n      swap1\n      sub\n      0x1f\n      and\n      dup3\n      add\n      swap2\n    tag_35:\n      pop\n      pop\n      pop\n      pop\n      pop\n      swap1\n      pop\n      dup3\n      jump\t// out\n    tag_25:\n      dup3\n      dup1\n      sload\n      tag_38\n      swap1\n      tag_28\n      jump\t// in\n    tag_38:\n      swap1\n      0x00\n      mstore\n      keccak256(0x00, 0x20)\n      swap1\n      0x1f\n      add\n      0x20\n      swap1\n      div\n      dup2\n      add\n      swap3\n      dup3\n      tag_40\n      jumpi\n      0x00\n      dup6\n      sstore\n      jump(tag_39)\n    tag_40:\n      dup3\n      0x1f\n      lt\n      tag_41\n      jumpi\n      dup1\n      mload\n      not(0xff)\n      and\n      dup4\n      dup1\n      add\n      or\n      dup6\n      sstore\n      jump(tag_39)\n    tag_41:\n      dup3\n      dup1\n      add\n      0x01\n      add\n      dup6\n      sstore\n      dup3\n      iszero\n      tag_39\n      jumpi\n      swap2\n      dup3\n      add\n    tag_42:\n      dup3\n      dup2\n      gt\n      iszero\n      tag_43\n      jumpi\n      dup3\n      mload\n      dup3\n      sstore\n      swap2\n      0x20\n      add\n      swap2\n      swap1\n      0x01\n      add\n      swap1\n      jump(tag_42)\n    tag_43:\n    tag_39:\n      pop\n      swap1\n      pop\n      tag_44\n      swap2\n      swap1\n      tag_45\n      jump\t// in\n    tag_44:\n      pop\n      swap1\n      jump\t// out\n    tag_45:\n    tag_46:\n      dup1\n      dup3\n      gt\n      iszero\n      tag_47\n      jumpi\n      0x00\n      dup2\n      0x00\n      swap1\n      sstore\n      pop\n      0x01\n      add\n      jump(tag_46)\n    tag_47:\n      pop\n      swap1\n      jump\t// out\n        /* \"#utility.yul\":7:419   */\n    tag_49:\n        /* \"#utility.yul\":85:90   */\n      0x00\n        /* \"#utility.yul\":110:176   */\n      tag_51\n        /* \"#utility.yul\":126:175   */\n      tag_52\n        /* \"#utility.yul\":168:174   */\n      dup5\n        /* \"#utility.yul\":126:175   */\n      tag_53\n      jump\t// in\n    tag_52:\n        /* \"#utility.yul\":110:176   */\n      tag_54\n      jump\t// in\n    tag_51:\n        /* \"#utility.yul\":101:176   */\n      swap1\n      pop\n        /* \"#utility.yul\":199:205   */\n      dup3\n        /* \"#utility.yul\":192:197   */\n      dup2\n        /* \"#utility.yul\":185:206   */\n      mstore\n        /* \"#utility.yul\":237:241   */\n      0x20\n        /* \"#utility.yul\":230:235   */\n      dup2\n        /* \"#utility.yul\":226:242   */\n      add\n        /* \"#utility.yul\":275:278   */\n      dup5\n        /* \"#utility.yul\":266:272   */\n      dup5\n        /* \"#utility.yul\":261:264   */\n      dup5\n        /* \"#utility.yul\":257:273   */\n      add\n        /* \"#utility.yul\":254:279   */\n      gt\n        /* \"#utility.yul\":251:363   */\n      iszero\n      tag_55\n      jumpi\n        /* \"#utility.yul\":282:361   */\n      tag_56\n      tag_57\n      jump\t// in\n    tag_56:\n        /* \"#utility.yul\":251:363   */\n    tag_55:\n        /* \"#utility.yul\":372:413   */\n      tag_58\n        /* \"#utility.yul\":406:412   */\n      dup5\n        /* \"#utility.yul\":401:404   */\n      dup3\n        /* \"#utility.yul\":396:399   */\n      dup6\n        /* \"#utility.yul\":372:413   */\n      tag_59\n      jump\t// in\n    tag_58:\n        /* \"#utility.yul\":91:419   */\n      pop\n        /* \"#utility.yul\":7:419   */\n      swap4\n      swap3\n      pop\n      pop\n      pop\n      jump\t// out\n        /* \"#utility.yul\":439:779   */\n    tag_60:\n        /* \"#utility.yul\":495:500   */\n      0x00\n        /* \"#utility.yul\":544:547   */\n      dup3\n        /* \"#utility.yul\":537:541   */\n      0x1f\n        /* \"#utility.yul\":529:535   */\n      dup4\n        /* \"#utility.yul\":525:542   */\n      add\n        /* \"#utility.yul\":521:548   */\n      slt\n        /* \"#utility.yul\":511:633   */\n      tag_62\n      jumpi\n        /* \"#utility.yul\":552:631   */\n      tag_63\n      tag_64\n      jump\t// in\n    tag_63:\n        /* \"#utility.yul\":511:633   */\n    tag_62:\n        /* \"#utility.yul\":669:675   */\n      dup2\n        /* \"#utility.yul\":656:676   */\n      calldataload\n        /* \"#utility.yul\":694:773   */\n      tag_65\n        /* \"#utility.yul\":769:772   */\n      dup5\n        /* \"#utility.yul\":761:767   */\n      dup3\n        /* \"#utility.yul\":754:758   */\n      0x20\n        /* \"#utility.yul\":746:752   */\n      dup7\n        /* \"#utility.yul\":742:759   */\n      add\n        /* \"#utility.yul\":694:773   */\n      tag_49\n      jump\t// in\n    tag_65:\n        /* \"#utility.yul\":685:773   */\n      swap2\n      pop\n        /* \"#utility.yul\":501:779   */\n      pop\n        /* \"#utility.yul\":439:779   */\n      swap3\n      swap2\n      pop\n      pop\n      jump\t// out\n        /* \"#utility.yul\":785:924   */\n    tag_66:\n        /* \"#utility.yul\":831:836   */\n      0x00\n        /* \"#utility.yul\":869:875   */\n      dup2\n        /* \"#utility.yul\":856:876   */\n      calldataload\n        /* \"#utility.yul\":847:876   */\n      swap1\n      pop\n        /* \"#utility.yul\":885:918   */\n      tag_68\n        /* \"#utility.yul\":912:917   */\n      dup2\n        /* \"#utility.yul\":885:918   */\n      tag_69\n      jump\t// in\n    tag_68:\n        /* \"#utility.yul\":785:924   */\n      swap3\n      swap2\n      pop\n      pop\n      jump\t// out\n        /* \"#utility.yul\":930:1764   */\n    tag_7:\n        /* \"#utility.yul\":1018:1024   */\n      0x00\n        /* \"#utility.yul\":1026:1032   */\n      dup1\n        /* \"#utility.yul\":1075:1077   */\n      0x40\n        /* \"#utility.yul\":1063:1072   */\n      dup4\n        /* \"#utility.yul\":1054:1061   */\n      dup6\n        /* \"#utility.yul\":1050:1073   */\n      sub\n        /* \"#utility.yul\":1046:1078   */\n      slt\n        /* \"#utility.yul\":1043:1162   */\n      iszero\n      tag_71\n      jumpi\n        /* \"#utility.yul\":1081:1160   */\n      tag_72\n      tag_73\n      jump\t// in\n    tag_72:\n        /* \"#utility.yul\":1043:1162   */\n    tag_71:\n        /* \"#utility.yul\":1229:1230   */\n      0x00\n        /* \"#utility.yul\":1218:1227   */\n      dup4\n        /* \"#utility.yul\":1214:1231   */\n      add\n        /* \"#utility.yul\":1201:1232   */\n      calldataload\n        /* \"#utility.yul\":1259:1277   */\n      0xffffffffffffffff\n        /* \"#utility.yul\":1251:1257   */\n      dup2\n        /* \"#utility.yul\":1248:1278   */\n      gt\n        /* \"#utility.yul\":1245:1362   */\n      iszero\n      tag_74\n      jumpi\n        /* \"#utility.yul\":1281:1360   */\n      tag_75\n      tag_76\n      jump\t// in\n    tag_75:\n        /* \"#utility.yul\":1245:1362   */\n    tag_74:\n        /* \"#utility.yul\":1386:1449   */\n      tag_77\n        /* \"#utility.yul\":1441:1448   */\n      dup6\n        /* \"#utility.yul\":1432:1438   */\n      dup3\n        /* \"#utility.yul\":1421:1430   */\n      dup7\n        /* \"#utility.yul\":1417:1439   */\n      add\n        /* \"#utility.yul\":1386:1449   */\n      tag_60\n      jump\t// in\n    tag_77:\n        /* \"#utility.yul\":1376:1449   */\n      swap3\n      pop\n        /* \"#utility.yul\":1172:1459   */\n      pop\n        /* \"#utility.yul\":1526:1528   */\n      0x20\n        /* \"#utility.yul\":1515:1524   */\n      dup4\n        /* \"#utility.yul\":1511:1529   */\n      add\n        /* \"#utility.yul\":1498:1530   */\n      calldataload\n        /* \"#utility.yul\":1557:1575   */\n      0xffffffffffffffff\n        /* \"#utility.yul\":1549:1555   */\n      dup2\n        /* \"#utility.yul\":1546:1576   */\n      gt\n        /* \"#utility.yul\":1543:1660   */\n      iszero\n      tag_78\n      jumpi\n        /* \"#utility.yul\":1579:1658   */\n      tag_79\n      tag_76\n      jump\t// in\n    tag_79:\n        /* \"#utility.yul\":1543:1660   */\n    tag_78:\n        /* \"#utility.yul\":1684:1747   */\n      tag_80\n        /* \"#utility.yul\":1739:1746   */\n      dup6\n        /* \"#utility.yul\":1730:1736   */\n      dup3\n        /* \"#utility.yul\":1719:1728   */\n      dup7\n        /* \"#utility.yul\":1715:1737   */\n      add\n        /* \"#utility.yul\":1684:1747   */\n      tag_60\n      jump\t// in\n    tag_80:\n        /* \"#utility.yul\":1674:1747   */\n      swap2\n      pop\n        /* \"#utility.yul\":1469:1757   */\n      pop\n        /* \"#utility.yul\":930:1764   */\n      swap3\n      pop\n      swap3\n      swap1\n      pop\n      jump\t// out\n        /* \"#utility.yul\":1770:2099   */\n    tag_13:\n        /* \"#utility.yul\":1829:1835   */\n      0x00\n        /* \"#utility.yul\":1878:1880   */\n      0x20\n        /* \"#utility.yul\":1866:1875   */\n      dup3\n        /* \"#utility.yul\":1857:1864   */\n      dup5\n        /* \"#utility.yul\":1853:1876   */\n      sub\n        /* \"#utility.yul\":1849:1881   */\n      slt\n        /* \"#utility.yul\":1846:1965   */\n      iszero\n      tag_82\n      jumpi\n        /* \"#utility.yul\":1884:1963   */\n      tag_83\n      tag_73\n      jump\t// in\n    tag_83:\n        /* \"#utility.yul\":1846:1965   */\n    tag_82:\n        /* \"#utility.yul\":2004:2005   */\n      0x00\n        /* \"#utility.yul\":2029:2082   */\n      tag_84\n        /* \"#utility.yul\":2074:2081   */\n      dup5\n        /* \"#utility.yul\":2065:2071   */\n      dup3\n        /* \"#utility.yul\":2054:2063   */\n      dup6\n        /* \"#utility.yul\":2050:2072   */\n      add\n        /* \"#utility.yul\":2029:2082   */\n      tag_66\n      jump\t// in\n    tag_84:\n        /* \"#utility.yul\":2019:2082   */\n      swap2\n      pop\n        /* \"#utility.yul\":1975:2092   */\n      pop\n        /* \"#utility.yul\":1770:2099   */\n      swap3\n      swap2\n      pop\n      pop\n      jump\t// out\n        /* \"#utility.yul\":2105:2469   */\n    tag_85:\n        /* \"#utility.yul\":2193:2196   */\n      0x00\n        /* \"#utility.yul\":2221:2260   */\n      tag_87\n        /* \"#utility.yul\":2254:2259   */\n      dup3\n        /* \"#utility.yul\":2221:2260   */\n      tag_88\n      jump\t// in\n    tag_87:\n        /* \"#utility.yul\":2276:2347   */\n      tag_89\n        /* \"#utility.yul\":2340:2346   */\n      dup2\n        /* \"#utility.yul\":2335:2338   */\n      dup6\n        /* \"#utility.yul\":2276:2347   */\n      tag_90\n      jump\t// in\n    tag_89:\n        /* \"#utility.yul\":2269:2347   */\n      swap4\n      pop\n        /* \"#utility.yul\":2356:2408   */\n      tag_91\n        /* \"#utility.yul\":2401:2407   */\n      dup2\n        /* \"#utility.yul\":2396:2399   */\n      dup6\n        /* \"#utility.yul\":2389:2393   */\n      0x20\n        /* \"#utility.yul\":2382:2387   */\n      dup7\n        /* \"#utility.yul\":2378:2394   */\n      add\n        /* \"#utility.yul\":2356:2408   */\n      tag_92\n      jump\t// in\n    tag_91:\n        /* \"#utility.yul\":2433:2462   */\n      tag_93\n        /* \"#utility.yul\":2455:2461   */\n      dup2\n        /* \"#utility.yul\":2433:2462   */\n      tag_94\n      jump\t// in\n    tag_93:\n        /* \"#utility.yul\":2428:2431   */\n      dup5\n        /* \"#utility.yul\":2424:2463   */\n      add\n        /* \"#utility.yul\":2417:2463   */\n      swap2\n      pop\n        /* \"#utility.yul\":2197:2469   */\n      pop\n        /* \"#utility.yul\":2105:2469   */\n      swap3\n      swap2\n      pop\n      pop\n      jump\t// out\n        /* \"#utility.yul\":2475:2841   */\n    tag_95:\n        /* \"#utility.yul\":2617:2620   */\n      0x00\n        /* \"#utility.yul\":2638:2705   */\n      tag_97\n        /* \"#utility.yul\":2702:2704   */\n      0x10\n        /* \"#utility.yul\":2697:2700   */\n      dup4\n        /* \"#utility.yul\":2638:2705   */\n      tag_90\n      jump\t// in\n    tag_97:\n        /* \"#utility.yul\":2631:2705   */\n      swap2\n      pop\n        /* \"#utility.yul\":2714:2807   */\n      tag_98\n        /* \"#utility.yul\":2803:2806   */\n      dup3\n        /* \"#utility.yul\":2714:2807   */\n      tag_99\n      jump\t// in\n    tag_98:\n        /* \"#utility.yul\":2832:2834   */\n      0x20\n        /* \"#utility.yul\":2827:2830   */\n      dup3\n        /* \"#utility.yul\":2823:2835   */\n      add\n        /* \"#utility.yul\":2816:2835   */\n      swap1\n      pop\n        /* \"#utility.yul\":2475:2841   */\n      swap2\n      swap1\n      pop\n      jump\t// out\n        /* \"#utility.yul\":2847:3160   */\n    tag_10:\n        /* \"#utility.yul\":2960:2964   */\n      0x00\n        /* \"#utility.yul\":2998:3000   */\n      0x20\n        /* \"#utility.yul\":2987:2996   */\n      dup3\n        /* \"#utility.yul\":2983:3001   */\n      add\n        /* \"#utility.yul\":2975:3001   */\n      swap1\n      pop\n        /* \"#utility.yul\":3047:3056   */\n      dup2\n        /* \"#utility.yul\":3041:3045   */\n      dup2\n        /* \"#utility.yul\":3037:3057   */\n      sub\n        /* \"#utility.yul\":3033:3034   */\n      0x00\n        /* \"#utility.yul\":3022:3031   */\n      dup4\n        /* \"#utility.yul\":3018:3035   */\n      add\n        /* \"#utility.yul\":3011:3058   */\n      mstore\n        /* \"#utility.yul\":3075:3153   */\n      tag_101\n        /* \"#utility.yul\":3148:3152   */\n      dup2\n        /* \"#utility.yul\":3139:3145   */\n      dup5\n        /* \"#utility.yul\":3075:3153   */\n      tag_85\n      jump\t// in\n    tag_101:\n        /* \"#utility.yul\":3067:3153   */\n      swap1\n      pop\n        /* \"#utility.yul\":2847:3160   */\n      swap3\n      swap2\n      pop\n      pop\n      jump\t// out\n        /* \"#utility.yul\":3166:3680   */\n    tag_16:\n        /* \"#utility.yul\":3327:3331   */\n      0x00\n        /* \"#utility.yul\":3365:3367   */\n      0x40\n        /* \"#utility.yul\":3354:3363   */\n      dup3\n        /* \"#utility.yul\":3350:3368   */\n      add\n        /* \"#utility.yul\":3342:3368   */\n      swap1\n      pop\n        /* \"#utility.yul\":3414:3423   */\n      dup2\n        /* \"#utility.yul\":3408:3412   */\n      dup2\n        /* \"#utility.yul\":3404:3424   */\n      sub\n        /* \"#utility.yul\":3400:3401   */\n      0x00\n        /* \"#utility.yul\":3389:3398   */\n      dup4\n        /* \"#utility.yul\":3385:3402   */\n      add\n        /* \"#utility.yul\":3378:3425   */\n      mstore\n        /* \"#utility.yul\":3442:3520   */\n      tag_103\n        /* \"#utility.yul\":3515:3519   */\n      dup2\n        /* \"#utility.yul\":3506:3512   */\n      dup6\n        /* \"#utility.yul\":3442:3520   */\n      tag_85\n      jump\t// in\n    tag_103:\n        /* \"#utility.yul\":3434:3520   */\n      swap1\n      pop\n        /* \"#utility.yul\":3567:3576   */\n      dup2\n        /* \"#utility.yul\":3561:3565   */\n      dup2\n        /* \"#utility.yul\":3557:3577   */\n      sub\n        /* \"#utility.yul\":3552:3554   */\n      0x20\n        /* \"#utility.yul\":3541:3550   */\n      dup4\n        /* \"#utility.yul\":3537:3555   */\n      add\n        /* \"#utility.yul\":3530:3578   */\n      mstore\n        /* \"#utility.yul\":3595:3673   */\n      tag_104\n        /* \"#utility.yul\":3668:3672   */\n      dup2\n        /* \"#utility.yul\":3659:3665   */\n      dup5\n        /* \"#utility.yul\":3595:3673   */\n      tag_85\n      jump\t// in\n    tag_104:\n        /* \"#utility.yul\":3587:3673   */\n      swap1\n      pop\n        /* \"#utility.yul\":3166:3680   */\n      swap4\n      swap3\n      pop\n      pop\n      pop\n      jump\t// out\n        /* \"#utility.yul\":3686:4105   */\n    tag_20:\n        /* \"#utility.yul\":3852:3856   */\n      0x00\n        /* \"#utility.yul\":3890:3892   */\n      0x20\n        /* \"#utility.yul\":3879:3888   */\n      dup3\n        /* \"#utility.yul\":3875:3893   */\n      add\n        /* \"#utility.yul\":3867:3893   */\n      swap1\n      pop\n        /* \"#utility.yul\":3939:3948   */\n      dup2\n        /* \"#utility.yul\":3933:3937   */\n      dup2\n        /* \"#utility.yul\":3929:3949   */\n      sub\n        /* \"#utility.yul\":3925:3926   */\n      0x00\n        /* \"#utility.yul\":3914:3923   */\n      dup4\n        /* \"#utility.yul\":3910:3927   */\n      add\n        /* \"#utility.yul\":3903:3950   */\n      mstore\n        /* \"#utility.yul\":3967:4098   */\n      tag_106\n        /* \"#utility.yul\":4093:4097   */\n      dup2\n        /* \"#utility.yul\":3967:4098   */\n      tag_95\n      jump\t// in\n    tag_106:\n        /* \"#utility.yul\":3959:4098   */\n      swap1\n      pop\n        /* \"#utility.yul\":3686:4105   */\n      swap2\n      swap1\n      pop\n      jump\t// out\n        /* \"#utility.yul\":4111:4240   */\n    tag_54:\n        /* \"#utility.yul\":4145:4151   */\n      0x00\n        /* \"#utility.yul\":4172:4192   */\n      tag_108\n      tag_109\n      jump\t// in\n    tag_108:\n        /* \"#utility.yul\":4162:4192   */\n      swap1\n      pop\n        /* \"#utility.yul\":4201:4234   */\n      tag_110\n        /* \"#utility.yul\":4229:4233   */\n      dup3\n        /* \"#utility.yul\":4221:4227   */\n      dup3\n        /* \"#utility.yul\":4201:4234   */\n      tag_111\n      jump\t// in\n    tag_110:\n        /* \"#utility.yul\":4111:4240   */\n      swap2\n      swap1\n      pop\n      jump\t// out\n        /* \"#utility.yul\":4246:4321   */\n    tag_109:\n        /* \"#utility.yul\":4279:4285   */\n      0x00\n        /* \"#utility.yul\":4312:4314   */\n      0x40\n        /* \"#utility.yul\":4306:4315   */\n      mload\n        /* \"#utility.yul\":4296:4315   */\n      swap1\n      pop\n        /* \"#utility.yul\":4246:4321   */\n      swap1\n      jump\t// out\n        /* \"#utility.yul\":4327:4635   */\n    tag_53:\n        /* \"#utility.yul\":4389:4393   */\n      0x00\n        /* \"#utility.yul\":4479:4497   */\n      0xffffffffffffffff\n        /* \"#utility.yul\":4471:4477   */\n      dup3\n        /* \"#utility.yul\":4468:4498   */\n      gt\n        /* \"#utility.yul\":4465:4521   */\n      iszero\n      tag_114\n      jumpi\n        /* \"#utility.yul\":4501:4519   */\n      tag_115\n      tag_116\n      jump\t// in\n    tag_115:\n        /* \"#utility.yul\":4465:4521   */\n    tag_114:\n        /* \"#utility.yul\":4539:4568   */\n      tag_117\n        /* \"#utility.yul\":4561:4567   */\n      dup3\n        /* \"#utility.yul\":4539:4568   */\n      tag_94\n      jump\t// in\n    tag_117:\n        /* \"#utility.yul\":4531:4568   */\n      swap1\n      pop\n        /* \"#utility.yul\":4623:4627   */\n      0x20\n        /* \"#utility.yul\":4617:4621   */\n      dup2\n        /* \"#utility.yul\":4613:4628   */\n      add\n        /* \"#utility.yul\":4605:4628   */\n      swap1\n      pop\n        /* \"#utility.yul\":4327:4635   */\n      swap2\n      swap1\n      pop\n      jump\t// out\n        /* \"#utility.yul\":4641:4740   */\n    tag_88:\n        /* \"#utility.yul\":4693:4699   */\n      0x00\n        /* \"#utility.yul\":4727:4732   */\n      dup2\n        /* \"#utility.yul\":4721:4733   */\n      mload\n        /* \"#utility.yul\":4711:4733   */\n      swap1\n      pop\n        /* \"#utility.yul\":4641:4740   */\n      swap2\n      swap1\n      pop\n      jump\t// out\n        /* \"#utility.yul\":4746:4915   */\n    tag_90:\n        /* \"#utility.yul\":4830:4841   */\n      0x00\n        /* \"#utility.yul\":4864:4870   */\n      dup3\n        /* \"#utility.yul\":4859:4862   */\n      dup3\n        /* \"#utility.yul\":4852:4871   */\n      mstore\n        /* \"#utility.yul\":4904:4908   */\n      0x20\n        /* \"#utility.yul\":4899:4902   */\n      dup3\n        /* \"#utility.yul\":4895:4909   */\n      add\n        /* \"#utility.yul\":4880:4909   */\n      swap1\n      pop\n        /* \"#utility.yul\":4746:4915   */\n      swap3\n      swap2\n      pop\n      pop\n      jump\t// out\n        /* \"#utility.yul\":4921:4998   */\n    tag_120:\n        /* \"#utility.yul\":4958:4965   */\n      0x00\n        /* \"#utility.yul\":4987:4992   */\n      dup2\n        /* \"#utility.yul\":4976:4992   */\n      swap1\n      pop\n        /* \"#utility.yul\":4921:4998   */\n      swap2\n      swap1\n      pop\n      jump\t// out\n        /* \"#utility.yul\":5004:5158   */\n    tag_59:\n        /* \"#utility.yul\":5088:5094   */\n      dup3\n        /* \"#utility.yul\":5083:5086   */\n      dup2\n        /* \"#utility.yul\":5078:5081   */\n      dup4\n        /* \"#utility.yul\":5065:5095   */\n      calldatacopy\n        /* \"#utility.yul\":5150:5151   */\n      0x00\n        /* \"#utility.yul\":5141:5147   */\n      dup4\n        /* \"#utility.yul\":5136:5139   */\n      dup4\n        /* \"#utility.yul\":5132:5148   */\n      add\n        /* \"#utility.yul\":5125:5152   */\n      mstore\n        /* \"#utility.yul\":5004:5158   */\n      pop\n      pop\n      pop\n      jump\t// out\n        /* \"#utility.yul\":5164:5471   */\n    tag_92:\n        /* \"#utility.yul\":5232:5233   */\n      0x00\n        /* \"#utility.yul\":5242:5355   */\n    tag_124:\n        /* \"#utility.yul\":5256:5262   */\n      dup4\n        /* \"#utility.yul\":5253:5254   */\n      dup2\n        /* \"#utility.yul\":5250:5263   */\n      lt\n        /* \"#utility.yul\":5242:5355   */\n      iszero\n      tag_126\n      jumpi\n        /* \"#utility.yul\":5341:5342   */\n      dup1\n        /* \"#utility.yul\":5336:5339   */\n      dup3\n        /* \"#utility.yul\":5332:5343   */\n      add\n        /* \"#utility.yul\":5326:5344   */\n      mload\n        /* \"#utility.yul\":5322:5323   */\n      dup2\n        /* \"#utility.yul\":5317:5320   */\n      dup5\n        /* \"#utility.yul\":5313:5324   */\n      add\n        /* \"#utility.yul\":5306:5345   */\n      mstore\n        /* \"#utility.yul\":5278:5280   */\n      0x20\n        /* \"#utility.yul\":5275:5276   */\n      dup2\n        /* \"#utility.yul\":5271:5281   */\n      add\n        /* \"#utility.yul\":5266:5281   */\n      swap1\n      pop\n        /* \"#utility.yul\":5242:5355   */\n      jump(tag_124)\n    tag_126:\n        /* \"#utility.yul\":5373:5379   */\n      dup4\n        /* \"#utility.yul\":5370:5371   */\n      dup2\n        /* \"#utility.yul\":5367:5380   */\n      gt\n        /* \"#utility.yul\":5364:5465   */\n      iszero\n      tag_127\n      jumpi\n        /* \"#utility.yul\":5453:5454   */\n      0x00\n        /* \"#utility.yul\":5444:5450   */\n      dup5\n        /* \"#utility.yul\":5439:5442   */\n      dup5\n        /* \"#utility.yul\":5435:5451   */\n      add\n        /* \"#utility.yul\":5428:5455   */\n      mstore\n        /* \"#utility.yul\":5364:5465   */\n    tag_127:\n        /* \"#utility.yul\":5213:5471   */\n      pop\n        /* \"#utility.yul\":5164:5471   */\n      pop\n      pop\n      pop\n      jump\t// out\n        /* \"#utility.yul\":5477:5797   */\n    tag_28:\n        /* \"#utility.yul\":5521:5527   */\n      0x00\n        /* \"#utility.yul\":5558:5559   */\n      0x02\n        /* \"#utility.yul\":5552:5556   */\n      dup3\n        /* \"#utility.yul\":5548:5560   */\n      div\n        /* \"#utility.yul\":5538:5560   */\n      swap1\n      pop\n        /* \"#utility.yul\":5605:5606   */\n      0x01\n        /* \"#utility.yul\":5599:5603   */\n      dup3\n        /* \"#utility.yul\":5595:5607   */\n      and\n        /* \"#utility.yul\":5626:5644   */\n      dup1\n        /* \"#utility.yul\":5616:5697   */\n      tag_129\n      jumpi\n        /* \"#utility.yul\":5682:5686   */\n      0x7f\n        /* \"#utility.yul\":5674:5680   */\n      dup3\n        /* \"#utility.yul\":5670:5687   */\n      and\n        /* \"#utility.yul\":5660:5687   */\n      swap2\n      pop\n        /* \"#utility.yul\":5616:5697   */\n    tag_129:\n        /* \"#utility.yul\":5744:5746   */\n      0x20\n        /* \"#utility.yul\":5736:5742   */\n      dup3\n        /* \"#utility.yul\":5733:5747   */\n      lt\n        /* \"#utility.yul\":5713:5731   */\n      dup2\n        /* \"#utility.yul\":5710:5748   */\n      eq\n        /* \"#utility.yul\":5707:5791   */\n      iszero\n      tag_130\n      jumpi\n        /* \"#utility.yul\":5763:5781   */\n      tag_131\n      tag_132\n      jump\t// in\n    tag_131:\n        /* \"#utility.yul\":5707:5791   */\n    tag_130:\n        /* \"#utility.yul\":5528:5797   */\n      pop\n        /* \"#utility.yul\":5477:5797   */\n      swap2\n      swap1\n      pop\n      jump\t// out\n        /* \"#utility.yul\":5803:6084   */\n    tag_111:\n        /* \"#utility.yul\":5886:5913   */\n      tag_134\n        /* \"#utility.yul\":5908:5912   */\n      dup3\n        /* \"#utility.yul\":5886:5913   */\n      tag_94\n      jump\t// in\n    tag_134:\n        /* \"#utility.yul\":5878:5884   */\n      dup2\n        /* \"#utility.yul\":5874:5914   */\n      add\n        /* \"#utility.yul\":6016:6022   */\n      dup2\n        /* \"#utility.yul\":6004:6014   */\n      dup2\n        /* \"#utility.yul\":6001:6023   */\n      lt\n        /* \"#utility.yul\":5980:5998   */\n      0xffffffffffffffff\n        /* \"#utility.yul\":5968:5978   */\n      dup3\n        /* \"#utility.yul\":5965:5999   */\n      gt\n        /* \"#utility.yul\":5962:6024   */\n      or\n        /* \"#utility.yul\":5959:6047   */\n      iszero\n      tag_135\n      jumpi\n        /* \"#utility.yul\":6027:6045   */\n      tag_136\n      tag_116\n      jump\t// in\n    tag_136:\n        /* \"#utility.yul\":5959:6047   */\n    tag_135:\n        /* \"#utility.yul\":6067:6077   */\n      dup1\n        /* \"#utility.yul\":6063:6065   */\n      0x40\n        /* \"#utility.yul\":6056:6078   */\n      mstore\n        /* \"#utility.yul\":5846:6084   */\n      pop\n        /* \"#utility.yul\":5803:6084   */\n      pop\n      pop\n      jump\t// out\n        /* \"#utility.yul\":6090:6323   */\n    tag_23:\n        /* \"#utility.yul\":6129:6132   */\n      0x00\n        /* \"#utility.yul\":6152:6176   */\n      tag_138\n        /* \"#utility.yul\":6170:6175   */\n      dup3\n        /* \"#utility.yul\":6152:6176   */\n      tag_120\n      jump\t// in\n    tag_138:\n        /* \"#utility.yul\":6143:6176   */\n      swap2\n      pop\n        /* \"#utility.yul\":6198:6264   */\n      0xffffffffffffffffffffffffffffffffffffffffffffffffffffffffffffffff\n        /* \"#utility.yul\":6191:6196   */\n      dup3\n        /* \"#utility.yul\":6188:6265   */\n      eq\n        /* \"#utility.yul\":6185:6288   */\n      iszero\n      tag_139\n      jumpi\n        /* \"#utility.yul\":6268:6286   */\n      tag_140\n      tag_141\n      jump\t// in\n    tag_140:\n        /* \"#utility.yul\":6185:6288   */\n    tag_139:\n        /* \"#utility.yul\":6315:6316   */\n      0x01\n        /* \"#utility.yul\":6308:6313   */\n      dup3\n        /* \"#utility.yul\":6304:6317   */\n      add\n        /* \"#utility.yul\":6297:6317   */\n      swap1\n      pop\n        /* \"#utility.yul\":6090:6323   */\n      swap2\n      swap1\n      pop\n      jump\t// out\n        /* \"#utility.yul\":6329:6509   */\n    tag_141:\n        /* \"#utility.yul\":6377:6454   */\n      0x4e487b7100000000000000000000000000000000000000000000000000000000\n        /* \"#utility.yul\":6374:6375   */\n      0x00\n        /* \"#utility.yul\":6367:6455   */\n      mstore\n        /* \"#utility.yul\":6474:6478   */\n      0x11\n        /* \"#utility.yul\":6471:6472   */\n      0x04\n        /* \"#utility.yul\":6464:6479   */\n      mstore\n        /* \"#utility.yul\":6498:6502   */\n      0x24\n        /* \"#utility.yul\":6495:6496   */\n      0x00\n        /* \"#utility.yul\":6488:6503   */\n      revert\n        /* \"#utility.yul\":6515:6695   */\n    tag_132:\n        /* \"#utility.yul\":6563:6640   */\n      0x4e487b7100000000000000000000000000000000000000000000000000000000\n        /* \"#utility.yul\":6560:6561   */\n      0x00\n        /* \"#utility.yul\":6553:6641   */\n      mstore\n        /* \"#utility.yul\":6660:6664   */\n      0x22\n        /* \"#utility.yul\":6657:6658   */\n      0x04\n        /* \"#utility.yul\":6650:6665   */\n      mstore\n        /* \"#utility.yul\":6684:6688   */\n      0x24\n        /* \"#utility.yul\":6681:6682   */\n      0x00\n        /* \"#utility.yul\":6674:6689   */\n      revert\n        /* \"#utility.yul\":6701:6881   */\n    tag_116:\n        /* \"#utility.yul\":6749:6826   */\n      0x4e487b7100000000000000000000000000000000000000000000000000000000\n        /* \"#utility.yul\":6746:6747   */\n      0x00\n        /* \"#utility.yul\":6739:6827   */\n      mstore\n        /* \"#utility.yul\":6846:6850   */\n      0x41\n        /* \"#utility.yul\":6843:6844   */\n      0x04\n        /* \"#utility.yul\":6836:6851   */\n      mstore\n        /* \"#utility.yul\":6870:6874   */\n      0x24\n        /* \"#utility.yul\":6867:6868   */\n      0x00\n        /* \"#utility.yul\":6860:6875   */\n      revert\n        /* \"#utility.yul\":6887:7004   */\n    tag_64:\n        /* \"#utility.yul\":6996:6997   */\n      0x00\n        /* \"#utility.yul\":6993:6994   */\n      dup1\n        /* \"#utility.yul\":6986:6998   */\n      revert\n        /* \"#utility.yul\":7010:7127   */\n    tag_57:\n        /* \"#utility.yul\":7119:7120   */\n      0x00\n        /* \"#utility.yul\":7116:7117   */\n      dup1\n        /* \"#utility.yul\":7109:7121   */\n      revert\n        /* \"#utility.yul\":7133:7250   */\n    tag_76:\n        /* \"#utility.yul\":7242:7243   */\n      0x00\n        /* \"#utility.yul\":7239:7240   */\n      dup1\n        /* \"#utility.yul\":7232:7244   */\n      revert\n        /* \"#utility.yul\":7256:7373   */\n    tag_73:\n        /* \"#utility.yul\":7365:7366   */\n      0x00\n        /* \"#utility.yul\":7362:7363   */\n      dup1\n        /* \"#utility.yul\":7355:7367   */\n      revert\n        /* \"#utility.yul\":7379:7481   */\n    tag_94:\n        /* \"#utility.yul\":7420:7426   */\n      0x00\n        /* \"#utility.yul\":7471:7473   */\n      0x1f\n        /* \"#utility.yul\":7467:7474   */\n      not\n        /* \"#utility.yul\":7462:7464   */\n      0x1f\n        /* \"#utility.yul\":7455:7460   */\n      dup4\n        /* \"#utility.yul\":7451:7465   */\n      add\n        /* \"#utility.yul\":7447:7475   */\n      and\n        /* \"#utility.yul\":7437:7475   */\n      swap1\n      pop\n        /* \"#utility.yul\":7379:7481   */\n      swap2\n      swap1\n      pop\n      jump\t// out\n        /* \"#utility.yul\":7487:7653   */\n    tag_99:\n        /* \"#utility.yul\":7627:7645   */\n      0x4163636573732069732044656e69656400000000000000000000000000000000\n        /* \"#utility.yul\":7623:7624   */\n      0x00\n        /* \"#utility.yul\":7615:7621   */\n      dup3\n        /* \"#utility.yul\":7611:7625   */\n      add\n        /* \"#utility.yul\":7604:7646   */\n      mstore\n        /* \"#utility.yul\":7487:7653   */\n      pop\n      jump\t// out\n        /* \"#utility.yul\":7659:7781   */\n    tag_69:\n        /* \"#utility.yul\":7732:7756   */\n      tag_152\n        /* \"#utility.yul\":7750:7755   */\n      dup2\n        /* \"#utility.yul\":7732:7756   */\n      tag_120\n      jump\t// in\n    tag_152:\n        /* \"#utility.yul\":7725:7730   */\n      dup2\n        /* \"#utility.yul\":7722:7757   */\n      eq\n        /* \"#utility.yul\":7712:7775   */\n      tag_153\n      jumpi\n        /* \"#utility.yul\":7771:7772   */\n      0x00\n        /* \"#utility.yul\":7768:7769   */\n      dup1\n        /* \"#utility.yul\":7761:7773   */\n      revert\n        /* \"#utility.yul\":7712:7775   */\n    tag_153:\n        /* \"#utility.yul\":7659:7781   */\n      pop\n      jump\t// out\n    stop\n    data_346ae9e229890c1b5467b3280ac50efb3a563831aa4e9bb9392fe53f7d7de7e2 596f752077696c6c20626520616464656420746f2063616e646964617465206c697374206f6e636520796f75206172652076616c696461746564206279207468652061646d696e\n\n    auxdata: 0xa2646970667358221220d3f895a069d326f7e451e969ade1b90c47f67ea0bb02b11b63f9a8858658699964736f6c63430008070033\n}\n",
				"bytecode": {
					"linkReferences": {},
					"object": "608060405234801561001057600080fd5b5033600260006101000a81548173ffffffffffffffffffffffffffffffffffffffff021916908373ffffffffffffffffffffffffffffffffffffffff16021790555061087f806100616000396000f3fe608060405234801561001057600080fd5b50600436106100365760003560e01c806317678bc31461003b5780637e3363291461006b575b600080fd5b6100556004803603810190610050919061042c565b61009c565b604051610062919061052d565b60405180910390f35b610085600480360381019061008091906104a4565b6101d0565b60405161009392919061054f565b60405180910390f35b6060600260009054906101000a900473ffffffffffffffffffffffffffffffffffffffff1673ffffffffffffffffffffffffffffffffffffffff163373ffffffffffffffffffffffffffffffffffffffff161461012e576040517f08c379a000000000000000000000000000000000000000000000000000000000815260040161012590610586565b60405180910390fd5b600060016000815480929190610143906106c7565b91905055905060405180604001604052808581526020018481525060036000838152602001908152602001600020600082015181600001908051906020019061018d929190610304565b5060208201518160010190805190602001906101aa929190610304565b509050506040518060800160405280604781526020016108036047913991505092915050565b60036020528060005260406000206000915090508060000180546101f390610664565b80601f016020809104026020016040519081016040528092919081815260200182805461021f90610664565b801561026c5780601f106102415761010080835404028352916020019161026c565b820191906000526020600020905b81548152906001019060200180831161024f57829003601f168201915b50505050509080600101805461028190610664565b80601f01602080910402602001604051908101604052809291908181526020018280546102ad90610664565b80156102fa5780601f106102cf576101008083540402835291602001916102fa565b820191906000526020600020905b8154815290600101906020018083116102dd57829003601f168201915b5050505050905082565b82805461031090610664565b90600052602060002090601f0160209004810192826103325760008555610379565b82601f1061034b57805160ff1916838001178555610379565b82800160010185558215610379579182015b8281111561037857825182559160200191906001019061035d565b5b509050610386919061038a565b5090565b5b808211156103a357600081600090555060010161038b565b5090565b60006103ba6103b5846105cb565b6105a6565b9050828152602081018484840111156103d6576103d56107a2565b5b6103e1848285610622565b509392505050565b600082601f8301126103fe576103fd61079d565b5b813561040e8482602086016103a7565b91505092915050565b600081359050610426816107eb565b92915050565b60008060408385031215610443576104426107ac565b5b600083013567ffffffffffffffff811115610461576104606107a7565b5b61046d858286016103e9565b925050602083013567ffffffffffffffff81111561048e5761048d6107a7565b5b61049a858286016103e9565b9150509250929050565b6000602082840312156104ba576104b96107ac565b5b60006104c884828501610417565b91505092915050565b60006104dc826105fc565b6104e68185610607565b93506104f6818560208601610631565b6104ff816107b1565b840191505092915050565b6000610517601083610607565b9150610522826107c2565b602082019050919050565b6000602082019050818103600083015261054781846104d1565b905092915050565b6000604082019050818103600083015261056981856104d1565b9050818103602083015261057d81846104d1565b90509392505050565b6000602082019050818103600083015261059f8161050a565b9050919050565b60006105b06105c1565b90506105bc8282610696565b919050565b6000604051905090565b600067ffffffffffffffff8211156105e6576105e561076e565b5b6105ef826107b1565b9050602081019050919050565b600081519050919050565b600082825260208201905092915050565b6000819050919050565b82818337600083830152505050565b60005b8381101561064f578082015181840152602081019050610634565b8381111561065e576000848401525b50505050565b6000600282049050600182168061067c57607f821691505b602082108114156106905761068f61073f565b5b50919050565b61069f826107b1565b810181811067ffffffffffffffff821117156106be576106bd61076e565b5b80604052505050565b60006106d282610618565b91507fffffffffffffffffffffffffffffffffffffffffffffffffffffffffffffffff82141561070557610704610710565b5b600182019050919050565b7f4e487b7100000000000000000000000000000000000000000000000000000000600052601160045260246000fd5b7f4e487b7100000000000000000000000000000000000000000000000000000000600052602260045260246000fd5b7f4e487b7100000000000000000000000000000000000000000000000000000000600052604160045260246000fd5b600080fd5b600080fd5b600080fd5b600080fd5b6000601f19601f8301169050919050565b7f4163636573732069732044656e69656400000000000000000000000000000000600082015250565b6107f481610618565b81146107ff57600080fd5b5056fe596f752077696c6c20626520616464656420746f2063616e646964617465206c697374206f6e636520796f75206172652076616c696461746564206279207468652061646d696ea2646970667358221220d3f895a069d326f7e451e969ade1b90c47f67ea0bb02b11b63f9a8858658699964736f6c63430008070033",
					"opcodes": "PUSH1 0x80 PUSH1 0x40 MSTORE CALLVALUE DUP1 ISZERO PUSH2 0x10 JUMPI PUSH1 0x0 DUP1 REVERT JUMPDEST POP CALLER PUSH1 0x2 PUSH1 0x0 PUSH2 0x100 EXP DUP2 SLOAD DUP2 PUSH20 0xFFFFFFFFFFFFFFFFFFFFFFFFFFFFFFFFFFFFFFFF MUL NOT AND SWAP1 DUP4 PUSH20 0xFFFFFFFFFFFFFFFFFFFFFFFFFFFFFFFFFFFFFFFF AND MUL OR SWAP1 SSTORE POP PUSH2 0x87F DUP1 PUSH2 0x61 PUSH1 0x0 CODECOPY PUSH1 0x0 RETURN INVALID PUSH1 0x80 PUSH1 0x40 MSTORE CALLVALUE DUP1 ISZERO PUSH2 0x10 JUMPI PUSH1 0x0 DUP1 REVERT JUMPDEST POP PUSH1 0x4 CALLDATASIZE LT PUSH2 0x36 JUMPI PUSH1 0x0 CALLDATALOAD PUSH1 0xE0 SHR DUP1 PUSH4 0x17678BC3 EQ PUSH2 0x3B JUMPI DUP1 PUSH4 0x7E336329 EQ PUSH2 0x6B JUMPI JUMPDEST PUSH1 0x0 DUP1 REVERT JUMPDEST PUSH2 0x55 PUSH1 0x4 DUP1 CALLDATASIZE SUB DUP2 ADD SWAP1 PUSH2 0x50 SWAP2 SWAP1 PUSH2 0x42C JUMP JUMPDEST PUSH2 0x9C JUMP JUMPDEST PUSH1 0x40 MLOAD PUSH2 0x62 SWAP2 SWAP1 PUSH2 0x52D JUMP JUMPDEST PUSH1 0x40 MLOAD DUP1 SWAP2 SUB SWAP1 RETURN JUMPDEST PUSH2 0x85 PUSH1 0x4 DUP1 CALLDATASIZE SUB DUP2 ADD SWAP1 PUSH2 0x80 SWAP2 SWAP1 PUSH2 0x4A4 JUMP JUMPDEST PUSH2 0x1D0 JUMP JUMPDEST PUSH1 0x40 MLOAD PUSH2 0x93 SWAP3 SWAP2 SWAP1 PUSH2 0x54F JUMP JUMPDEST PUSH1 0x40 MLOAD DUP1 SWAP2 SUB SWAP1 RETURN JUMPDEST PUSH1 0x60 PUSH1 0x2 PUSH1 0x0 SWAP1 SLOAD SWAP1 PUSH2 0x100 EXP SWAP1 DIV PUSH20 0xFFFFFFFFFFFFFFFFFFFFFFFFFFFFFFFFFFFFFFFF AND PUSH20 0xFFFFFFFFFFFFFFFFFFFFFFFFFFFFFFFFFFFFFFFF AND CALLER PUSH20 0xFFFFFFFFFFFFFFFFFFFFFFFFFFFFFFFFFFFFFFFF AND EQ PUSH2 0x12E JUMPI PUSH1 0x40 MLOAD PUSH32 0x8C379A000000000000000000000000000000000000000000000000000000000 DUP2 MSTORE PUSH1 0x4 ADD PUSH2 0x125 SWAP1 PUSH2 0x586 JUMP JUMPDEST PUSH1 0x40 MLOAD DUP1 SWAP2 SUB SWAP1 REVERT JUMPDEST PUSH1 0x0 PUSH1 0x1 PUSH1 0x0 DUP2 SLOAD DUP1 SWAP3 SWAP2 SWAP1 PUSH2 0x143 SWAP1 PUSH2 0x6C7 JUMP JUMPDEST SWAP2 SWAP1 POP SSTORE SWAP1 POP PUSH1 0x40 MLOAD DUP1 PUSH1 0x40 ADD PUSH1 0x40 MSTORE DUP1 DUP6 DUP2 MSTORE PUSH1 0x20 ADD DUP5 DUP2 MSTORE POP PUSH1 0x3 PUSH1 0x0 DUP4 DUP2 MSTORE PUSH1 0x20 ADD SWAP1 DUP2 MSTORE PUSH1 0x20 ADD PUSH1 0x0 KECCAK256 PUSH1 0x0 DUP3 ADD MLOAD DUP2 PUSH1 0x0 ADD SWAP1 DUP1 MLOAD SWAP1 PUSH1 0x20 ADD SWAP1 PUSH2 0x18D SWAP3 SWAP2 SWAP1 PUSH2 0x304 JUMP JUMPDEST POP PUSH1 0x20 DUP3 ADD MLOAD DUP2 PUSH1 0x1 ADD SWAP1 DUP1 MLOAD SWAP1 PUSH1 0x20 ADD SWAP1 PUSH2 0x1AA SWAP3 SWAP2 SWAP1 PUSH2 0x304 JUMP JUMPDEST POP SWAP1 POP POP PUSH1 0x40 MLOAD DUP1 PUSH1 0x80 ADD PUSH1 0x40 MSTORE DUP1 PUSH1 0x47 DUP2 MSTORE PUSH1 0x20 ADD PUSH2 0x803 PUSH1 0x47 SWAP2 CODECOPY SWAP2 POP POP SWAP3 SWAP2 POP POP JUMP JUMPDEST PUSH1 0x3 PUSH1 0x20 MSTORE DUP1 PUSH1 0x0 MSTORE PUSH1 0x40 PUSH1 0x0 KECCAK256 PUSH1 0x0 SWAP2 POP SWAP1 POP DUP1 PUSH1 0x0 ADD DUP1 SLOAD PUSH2 0x1F3 SWAP1 PUSH2 0x664 JUMP JUMPDEST DUP1 PUSH1 0x1F ADD PUSH1 0x20 DUP1 SWAP2 DIV MUL PUSH1 0x20 ADD PUSH1 0x40 MLOAD SWAP1 DUP2 ADD PUSH1 0x40 MSTORE DUP1 SWAP3 SWAP2 SWAP1 DUP2 DUP2 MSTORE PUSH1 0x20 ADD DUP3 DUP1 SLOAD PUSH2 0x21F SWAP1 PUSH2 0x664 JUMP JUMPDEST DUP1 ISZERO PUSH2 0x26C JUMPI DUP1 PUSH1 0x1F LT PUSH2 0x241 JUMPI PUSH2 0x100 DUP1 DUP4 SLOAD DIV MUL DUP4 MSTORE SWAP2 PUSH1 0x20 ADD SWAP2 PUSH2 0x26C JUMP JUMPDEST DUP3 ADD SWAP2 SWAP1 PUSH1 0x0 MSTORE PUSH1 0x20 PUSH1 0x0 KECCAK256 SWAP1 JUMPDEST DUP2 SLOAD DUP2 MSTORE SWAP1 PUSH1 0x1 ADD SWAP1 PUSH1 0x20 ADD DUP1 DUP4 GT PUSH2 0x24F JUMPI DUP3 SWAP1 SUB PUSH1 0x1F AND DUP3 ADD SWAP2 JUMPDEST POP POP POP POP POP SWAP1 DUP1 PUSH1 0x1 ADD DUP1 SLOAD PUSH2 0x281 SWAP1 PUSH2 0x664 JUMP JUMPDEST DUP1 PUSH1 0x1F ADD PUSH1 0x20 DUP1 SWAP2 DIV MUL PUSH1 0x20 ADD PUSH1 0x40 MLOAD SWAP1 DUP2 ADD PUSH1 0x40 MSTORE DUP1 SWAP3 SWAP2 SWAP1 DUP2 DUP2 MSTORE PUSH1 0x20 ADD DUP3 DUP1 SLOAD PUSH2 0x2AD SWAP1 PUSH2 0x664 JUMP JUMPDEST DUP1 ISZERO PUSH2 0x2FA JUMPI DUP1 PUSH1 0x1F LT PUSH2 0x2CF JUMPI PUSH2 0x100 DUP1 DUP4 SLOAD DIV MUL DUP4 MSTORE SWAP2 PUSH1 0x20 ADD SWAP2 PUSH2 0x2FA JUMP JUMPDEST DUP3 ADD SWAP2 SWAP1 PUSH1 0x0 MSTORE PUSH1 0x20 PUSH1 0x0 KECCAK256 SWAP1 JUMPDEST DUP2 SLOAD DUP2 MSTORE SWAP1 PUSH1 0x1 ADD SWAP1 PUSH1 0x20 ADD DUP1 DUP4 GT PUSH2 0x2DD JUMPI DUP3 SWAP1 SUB PUSH1 0x1F AND DUP3 ADD SWAP2 JUMPDEST POP POP POP POP POP SWAP1 POP DUP3 JUMP JUMPDEST DUP3 DUP1 SLOAD PUSH2 0x310 SWAP1 PUSH2 0x664 JUMP JUMPDEST SWAP1 PUSH1 0x0 MSTORE PUSH1 0x20 PUSH1 0x0 KECCAK256 SWAP1 PUSH1 0x1F ADD PUSH1 0x20 SWAP1 DIV DUP2 ADD SWAP3 DUP3 PUSH2 0x332 JUMPI PUSH1 0x0 DUP6 SSTORE PUSH2 0x379 JUMP JUMPDEST DUP3 PUSH1 0x1F LT PUSH2 0x34B JUMPI DUP1 MLOAD PUSH1 0xFF NOT AND DUP4 DUP1 ADD OR DUP6 SSTORE PUSH2 0x379 JUMP JUMPDEST DUP3 DUP1 ADD PUSH1 0x1 ADD DUP6 SSTORE DUP3 ISZERO PUSH2 0x379 JUMPI SWAP2 DUP3 ADD JUMPDEST DUP3 DUP2 GT ISZERO PUSH2 0x378 JUMPI DUP3 MLOAD DUP3 SSTORE SWAP2 PUSH1 0x20 ADD SWAP2 SWAP1 PUSH1 0x1 ADD SWAP1 PUSH2 0x35D JUMP JUMPDEST JUMPDEST POP SWAP1 POP PUSH2 0x386 SWAP2 SWAP1 PUSH2 0x38A JUMP JUMPDEST POP SWAP1 JUMP JUMPDEST JUMPDEST DUP1 DUP3 GT ISZERO PUSH2 0x3A3 JUMPI PUSH1 0x0 DUP2 PUSH1 0x0 SWAP1 SSTORE POP PUSH1 0x1 ADD PUSH2 0x38B JUMP JUMPDEST POP SWAP1 JUMP JUMPDEST PUSH1 0x0 PUSH2 0x3BA PUSH2 0x3B5 DUP5 PUSH2 0x5CB JUMP JUMPDEST PUSH2 0x5A6 JUMP JUMPDEST SWAP1 POP DUP3 DUP2 MSTORE PUSH1 0x20 DUP2 ADD DUP5 DUP5 DUP5 ADD GT ISZERO PUSH2 0x3D6 JUMPI PUSH2 0x3D5 PUSH2 0x7A2 JUMP JUMPDEST JUMPDEST PUSH2 0x3E1 DUP5 DUP3 DUP6 PUSH2 0x622 JUMP JUMPDEST POP SWAP4 SWAP3 POP POP POP JUMP JUMPDEST PUSH1 0x0 DUP3 PUSH1 0x1F DUP4 ADD SLT PUSH2 0x3FE JUMPI PUSH2 0x3FD PUSH2 0x79D JUMP JUMPDEST JUMPDEST DUP2 CALLDATALOAD PUSH2 0x40E DUP5 DUP3 PUSH1 0x20 DUP7 ADD PUSH2 0x3A7 JUMP JUMPDEST SWAP2 POP POP SWAP3 SWAP2 POP POP JUMP JUMPDEST PUSH1 0x0 DUP2 CALLDATALOAD SWAP1 POP PUSH2 0x426 DUP2 PUSH2 0x7EB JUMP JUMPDEST SWAP3 SWAP2 POP POP JUMP JUMPDEST PUSH1 0x0 DUP1 PUSH1 0x40 DUP4 DUP6 SUB SLT ISZERO PUSH2 0x443 JUMPI PUSH2 0x442 PUSH2 0x7AC JUMP JUMPDEST JUMPDEST PUSH1 0x0 DUP4 ADD CALLDATALOAD PUSH8 0xFFFFFFFFFFFFFFFF DUP2 GT ISZERO PUSH2 0x461 JUMPI PUSH2 0x460 PUSH2 0x7A7 JUMP JUMPDEST JUMPDEST PUSH2 0x46D DUP6 DUP3 DUP7 ADD PUSH2 0x3E9 JUMP JUMPDEST SWAP3 POP POP PUSH1 0x20 DUP4 ADD CALLDATALOAD PUSH8 0xFFFFFFFFFFFFFFFF DUP2 GT ISZERO PUSH2 0x48E JUMPI PUSH2 0x48D PUSH2 0x7A7 JUMP JUMPDEST JUMPDEST PUSH2 0x49A DUP6 DUP3 DUP7 ADD PUSH2 0x3E9 JUMP JUMPDEST SWAP2 POP POP SWAP3 POP SWAP3 SWAP1 POP JUMP JUMPDEST PUSH1 0x0 PUSH1 0x20 DUP3 DUP5 SUB SLT ISZERO PUSH2 0x4BA JUMPI PUSH2 0x4B9 PUSH2 0x7AC JUMP JUMPDEST JUMPDEST PUSH1 0x0 PUSH2 0x4C8 DUP5 DUP3 DUP6 ADD PUSH2 0x417 JUMP JUMPDEST SWAP2 POP POP SWAP3 SWAP2 POP POP JUMP JUMPDEST PUSH1 0x0 PUSH2 0x4DC DUP3 PUSH2 0x5FC JUMP JUMPDEST PUSH2 0x4E6 DUP2 DUP6 PUSH2 0x607 JUMP JUMPDEST SWAP4 POP PUSH2 0x4F6 DUP2 DUP6 PUSH1 0x20 DUP7 ADD PUSH2 0x631 JUMP JUMPDEST PUSH2 0x4FF DUP2 PUSH2 0x7B1 JUMP JUMPDEST DUP5 ADD SWAP2 POP POP SWAP3 SWAP2 POP POP JUMP JUMPDEST PUSH1 0x0 PUSH2 0x517 PUSH1 0x10 DUP4 PUSH2 0x607 JUMP JUMPDEST SWAP2 POP PUSH2 0x522 DUP3 PUSH2 0x7C2 JUMP JUMPDEST PUSH1 0x20 DUP3 ADD SWAP1 POP SWAP2 SWAP1 POP JUMP JUMPDEST PUSH1 0x0 PUSH1 0x20 DUP3 ADD SWAP1 POP DUP2 DUP2 SUB PUSH1 0x0 DUP4 ADD MSTORE PUSH2 0x547 DUP2 DUP5 PUSH2 0x4D1 JUMP JUMPDEST SWAP1 POP SWAP3 SWAP2 POP POP JUMP JUMPDEST PUSH1 0x0 PUSH1 0x40 DUP3 ADD SWAP1 POP DUP2 DUP2 SUB PUSH1 0x0 DUP4 ADD MSTORE PUSH2 0x569 DUP2 DUP6 PUSH2 0x4D1 JUMP JUMPDEST SWAP1 POP DUP2 DUP2 SUB PUSH1 0x20 DUP4 ADD MSTORE PUSH2 0x57D DUP2 DUP5 PUSH2 0x4D1 JUMP JUMPDEST SWAP1 POP SWAP4 SWAP3 POP POP POP JUMP JUMPDEST PUSH1 0x0 PUSH1 0x20 DUP3 ADD SWAP1 POP DUP2 DUP2 SUB PUSH1 0x0 DUP4 ADD MSTORE PUSH2 0x59F DUP2 PUSH2 0x50A JUMP JUMPDEST SWAP1 POP SWAP2 SWAP1 POP JUMP JUMPDEST PUSH1 0x0 PUSH2 0x5B0 PUSH2 0x5C1 JUMP JUMPDEST SWAP1 POP PUSH2 0x5BC DUP3 DUP3 PUSH2 0x696 JUMP JUMPDEST SWAP2 SWAP1 POP JUMP JUMPDEST PUSH1 0x0 PUSH1 0x40 MLOAD SWAP1 POP SWAP1 JUMP JUMPDEST PUSH1 0x0 PUSH8 0xFFFFFFFFFFFFFFFF DUP3 GT ISZERO PUSH2 0x5E6 JUMPI PUSH2 0x5E5 PUSH2 0x76E JUMP JUMPDEST JUMPDEST PUSH2 0x5EF DUP3 PUSH2 0x7B1 JUMP JUMPDEST SWAP1 POP PUSH1 0x20 DUP2 ADD SWAP1 POP SWAP2 SWAP1 POP JUMP JUMPDEST PUSH1 0x0 DUP2 MLOAD SWAP1 POP SWAP2 SWAP1 POP JUMP JUMPDEST PUSH1 0x0 DUP3 DUP3 MSTORE PUSH1 0x20 DUP3 ADD SWAP1 POP SWAP3 SWAP2 POP POP JUMP JUMPDEST PUSH1 0x0 DUP2 SWAP1 POP SWAP2 SWAP1 POP JUMP JUMPDEST DUP3 DUP2 DUP4 CALLDATACOPY PUSH1 0x0 DUP4 DUP4 ADD MSTORE POP POP POP JUMP JUMPDEST PUSH1 0x0 JUMPDEST DUP4 DUP2 LT ISZERO PUSH2 0x64F JUMPI DUP1 DUP3 ADD MLOAD DUP2 DUP5 ADD MSTORE PUSH1 0x20 DUP2 ADD SWAP1 POP PUSH2 0x634 JUMP JUMPDEST DUP4 DUP2 GT ISZERO PUSH2 0x65E JUMPI PUSH1 0x0 DUP5 DUP5 ADD MSTORE JUMPDEST POP POP POP POP JUMP JUMPDEST PUSH1 0x0 PUSH1 0x2 DUP3 DIV SWAP1 POP PUSH1 0x1 DUP3 AND DUP1 PUSH2 0x67C JUMPI PUSH1 0x7F DUP3 AND SWAP2 POP JUMPDEST PUSH1 0x20 DUP3 LT DUP2 EQ ISZERO PUSH2 0x690 JUMPI PUSH2 0x68F PUSH2 0x73F JUMP JUMPDEST JUMPDEST POP SWAP2 SWAP1 POP JUMP JUMPDEST PUSH2 0x69F DUP3 PUSH2 0x7B1 JUMP JUMPDEST DUP2 ADD DUP2 DUP2 LT PUSH8 0xFFFFFFFFFFFFFFFF DUP3 GT OR ISZERO PUSH2 0x6BE JUMPI PUSH2 0x6BD PUSH2 0x76E JUMP JUMPDEST JUMPDEST DUP1 PUSH1 0x40 MSTORE POP POP POP JUMP JUMPDEST PUSH1 0x0 PUSH2 0x6D2 DUP3 PUSH2 0x618 JUMP JUMPDEST SWAP2 POP PUSH32 0xFFFFFFFFFFFFFFFFFFFFFFFFFFFFFFFFFFFFFFFFFFFFFFFFFFFFFFFFFFFFFFFF DUP3 EQ ISZERO PUSH2 0x705 JUMPI PUSH2 0x704 PUSH2 0x710 JUMP JUMPDEST JUMPDEST PUSH1 0x1 DUP3 ADD SWAP1 POP SWAP2 SWAP1 POP JUMP JUMPDEST PUSH32 0x4E487B7100000000000000000000000000000000000000000000000000000000 PUSH1 0x0 MSTORE PUSH1 0x11 PUSH1 0x4 MSTORE PUSH1 0x24 PUSH1 0x0 REVERT JUMPDEST PUSH32 0x4E487B7100000000000000000000000000000000000000000000000000000000 PUSH1 0x0 MSTORE PUSH1 0x22 PUSH1 0x4 MSTORE PUSH1 0x24 PUSH1 0x0 REVERT JUMPDEST PUSH32 0x4E487B7100000000000000000000000000000000000000000000000000000000 PUSH1 0x0 MSTORE PUSH1 0x41 PUSH1 0x4 MSTORE PUSH1 0x24 PUSH1 0x0 REVERT JUMPDEST PUSH1 0x0 DUP1 REVERT JUMPDEST PUSH1 0x0 DUP1 REVERT JUMPDEST PUSH1 0x0 DUP1 REVERT JUMPDEST PUSH1 0x0 DUP1 REVERT JUMPDEST PUSH1 0x0 PUSH1 0x1F NOT PUSH1 0x1F DUP4 ADD AND SWAP1 POP SWAP2 SWAP1 POP JUMP JUMPDEST PUSH32 0x4163636573732069732044656E69656400000000000000000000000000000000 PUSH1 0x0 DUP3 ADD MSTORE POP JUMP JUMPDEST PUSH2 0x7F4 DUP2 PUSH2 0x618 JUMP JUMPDEST DUP2 EQ PUSH2 0x7FF JUMPI PUSH1 0x0 DUP1 REVERT JUMPDEST POP JUMP INVALID MSIZE PUSH16 0x752077696C6C20626520616464656420 PUSH21 0x6F2063616E646964617465206C697374206F6E6365 KECCAK256 PUSH26 0x6F75206172652076616C69646174656420627920746865206164 PUSH14 0x696EA2646970667358221220D3F8 SWAP6 LOG0 PUSH10 0xD326F7E451E969ADE1B9 0xC SELFBALANCE 0xF6 PUSH31 0xA0BB02B11B63F9A8858658699964736F6C6343000807003300000000000000 "
				},
				"gasEstimates": {
					"creation": {
						"codeDepositCost": "435000",
						"executionCost": "24734",
						"totalCost": "459734"
					},
					"external": {
						"candidateEnrollment(string,string)": "infinite",
						"enrolledCandidates(uint256)": "infinite"
					}
				},
				"methodIdentifiers": {
					"candidateEnrollment(string,string)": "17678bc3",
					"enrolledCandidates(uint256)": "7e336329"
				}
			},
			"storageLayout": {
				"storage": [
					{
						"astId": 3,
						"contract": "voting.sol:Voting",
						"label": "noOfVoters",
						"offset": 0,
						"slot": "0",
						"type": "t_uint256"
					},
					{
						"astId": 5,
						"contract": "voting.sol:Voting",
						"label": "noOfCandidates",
						"offset": 0,
						"slot": "1",
						"type": "t_uint256"
					},
					{
						"astId": 7,
						"contract": "voting.sol:Voting",
						"label": "admin",
						"offset": 0,
						"slot": "2",
						"type": "t_address"
					},
					{
						"astId": 12,
						"contract": "voting.sol:Voting",
						"label": "enrolledCandidates",
						"offset": 0,
						"slot": "3",
						"type": "t_mapping(t_uint256,t_struct(Candidate)17_storage)"
					}
				],
				"types": {
					"t_address": {
						"encoding": "inplace",
						"label": "address",
						"numberOfBytes": "20"
					},
					"t_mapping(t_uint256,t_struct(Candidate)17_storage)": {
						"encoding": "mapping",
						"key": "t_uint256",
						"label": "mapping(uint256 => struct Voting.Candidate)",
						"numberOfBytes": "32",
						"value": "t_struct(Candidate)17_storage"
					},
					"t_string_storage": {
						"encoding": "bytes",
						"label": "string",
						"numberOfBytes": "32"
					},
					"t_struct(Candidate)17_storage": {
						"encoding": "inplace",
						"label": "struct Voting.Candidate",
						"members": [
							{
								"astId": 14,
								"contract": "voting.sol:Voting",
								"label": "candidate_name",
								"offset": 0,
								"slot": "0",
								"type": "t_string_storage"
							},
							{
								"astId": 16,
								"contract": "voting.sol:Voting",
								"label": "candidate_description",
								"offset": 0,
								"slot": "1",
								"type": "t_string_storage"
							}
						],
						"numberOfBytes": "64"
					},
					"t_uint256": {
						"encoding": "inplace",
						"label": "uint256",
						"numberOfBytes": "32"
					}
				}
			},
			"userdoc": {
				"kind": "user",
				"methods": {},
				"version": 1
			}
		}
	}
}