{
	"voting.sol": {
		"Voting": {
			"abi": [
				{
					"inputs": [],
					"stateMutability": "nonpayable",
					"type": "constructor"
				},
				{
					"inputs": [
						{
							"internalType": "string",
							"name": "name",
							"type": "string"
						},
						{
							"internalType": "string",
							"name": "description",
							"type": "string"
						}
					],
					"name": "candidateEnrollment",
					"outputs": [
						{
							"internalType": "string",
							"name": "",
							"type": "string"
						}
					],
					"stateMutability": "nonpayable",
					"type": "function"
				},
				{
					"inputs": [
						{
							"internalType": "string",
							"name": "name",
							"type": "string"
						}
					],
					"name": "candidateIDGenerator",
					"outputs": [
						{
							"internalType": "uint256",
							"name": "",
							"type": "uint256"
						}
					],
					"stateMutability": "view",
					"type": "function"
				},
				{
					"inputs": [
						{
							"internalType": "uint256",
							"name": "",
							"type": "uint256"
						}
					],
					"name": "candidates",
					"outputs": [
						{
							"internalType": "string",
							"name": "candidate_name",
							"type": "string"
						},
						{
							"internalType": "string",
							"name": "candidate_description",
							"type": "string"
						},
						{
							"internalType": "uint256",
							"name": "noOfVotes",
							"type": "uint256"
						}
					],
					"stateMutability": "view",
					"type": "function"
				},
				{
					"inputs": [],
					"name": "results",
					"outputs": [
						{
							"internalType": "string",
							"name": "",
							"type": "string"
						}
					],
					"stateMutability": "view",
					"type": "function"
				},
				{
					"inputs": [
						{
							"internalType": "string",
							"name": "name",
							"type": "string"
						},
						{
							"internalType": "uint256",
							"name": "candidateID",
							"type": "uint256"
						}
					],
					"name": "voterEnrollment",
					"outputs": [
						{
							"internalType": "string",
							"name": "",
							"type": "string"
						}
					],
					"stateMutability": "nonpayable",
					"type": "function"
				}
			],
			"devdoc": {
				"kind": "dev",
				"methods": {},
				"version": 1
			},
			"evm": {
				"assembly": "    /* \"voting.sol\":59:2050  contract Voting{\r... */\n  mstore(0x40, 0x80)\n    /* \"voting.sol\":444:494  constructor(){\r... */\n  callvalue\n  dup1\n  iszero\n  tag_1\n  jumpi\n  0x00\n  dup1\n  revert\ntag_1:\n  pop\n    /* \"voting.sol\":476:486  msg.sender */\n  caller\n    /* \"voting.sol\":468:473  admin */\n  0x02\n  0x00\n    /* \"voting.sol\":468:486  admin = msg.sender */\n  0x0100\n  exp\n  dup2\n  sload\n  dup2\n  0xffffffffffffffffffffffffffffffffffffffff\n  mul\n  not\n  and\n  swap1\n  dup4\n  0xffffffffffffffffffffffffffffffffffffffff\n  and\n  mul\n  or\n  swap1\n  sstore\n  pop\n    /* \"voting.sol\":59:2050  contract Voting{\r... */\n  dataSize(sub_0)\n  dup1\n  dataOffset(sub_0)\n  0x00\n  codecopy\n  0x00\n  return\nstop\n\nsub_0: assembly {\n        /* \"voting.sol\":59:2050  contract Voting{\r... */\n      mstore(0x40, 0x80)\n      callvalue\n      dup1\n      iszero\n      tag_1\n      jumpi\n      0x00\n      dup1\n      revert\n    tag_1:\n      pop\n      jumpi(tag_2, lt(calldatasize, 0x04))\n      shr(0xe0, calldataload(0x00))\n      dup1\n      0x0fd94e64\n      eq\n      tag_3\n      jumpi\n      dup1\n      0x17678bc3\n      eq\n      tag_4\n      jumpi\n      dup1\n      0x3477ee2e\n      eq\n      tag_5\n      jumpi\n      dup1\n      0xa48bdb7c\n      eq\n      tag_6\n      jumpi\n      dup1\n      0xe96e5dc8\n      eq\n      tag_7\n      jumpi\n    tag_2:\n      0x00\n      dup1\n      revert\n        /* \"voting.sol\":935:1262  function voterEnrollment(string memory name,uint candidateID) public onlyAdmin returns(string memory){\r... */\n    tag_3:\n      tag_8\n      0x04\n      dup1\n      calldatasize\n      sub\n      dup2\n      add\n      swap1\n      tag_9\n      swap2\n      swap1\n      tag_10\n      jump\t// in\n    tag_9:\n      tag_11\n      jump\t// in\n    tag_8:\n      mload(0x40)\n      tag_12\n      swap2\n      swap1\n      tag_13\n      jump\t// in\n    tag_12:\n      mload(0x40)\n      dup1\n      swap2\n      sub\n      swap1\n      return\n        /* \"voting.sol\":604:929  function candidateEnrollment(string memory name,string memory description) public onlyAdmin returns(string memory){\r... */\n    tag_4:\n      tag_14\n      0x04\n      dup1\n      calldatasize\n      sub\n      dup2\n      add\n      swap1\n      tag_15\n      swap2\n      swap1\n      tag_16\n      jump\t// in\n    tag_15:\n      tag_17\n      jump\t// in\n    tag_14:\n      mload(0x40)\n      tag_18\n      swap2\n      swap1\n      tag_13\n      jump\t// in\n    tag_18:\n      mload(0x40)\n      dup1\n      swap2\n      sub\n      swap1\n      return\n        /* \"voting.sol\":149:194  mapping (uint => Candidate) public candidates */\n    tag_5:\n      tag_19\n      0x04\n      dup1\n      calldatasize\n      sub\n      dup2\n      add\n      swap1\n      tag_20\n      swap2\n      swap1\n      tag_21\n      jump\t// in\n    tag_20:\n      tag_22\n      jump\t// in\n    tag_19:\n      mload(0x40)\n      tag_23\n      swap4\n      swap3\n      swap2\n      swap1\n      tag_24\n      jump\t// in\n    tag_23:\n      mload(0x40)\n      dup1\n      swap2\n      sub\n      swap1\n      return\n        /* \"voting.sol\":1623:2047  function results() public onlyAdmin view returns (string memory){\r... */\n    tag_6:\n      tag_25\n      tag_26\n      jump\t// in\n    tag_25:\n      mload(0x40)\n      tag_27\n      swap2\n      swap1\n      tag_13\n      jump\t// in\n    tag_27:\n      mload(0x40)\n      dup1\n      swap2\n      sub\n      swap1\n      return\n        /* \"voting.sol\":1268:1617  function candidateIDGenerator(string memory name) public view returns(uint){\r... */\n    tag_7:\n      tag_28\n      0x04\n      dup1\n      calldatasize\n      sub\n      dup2\n      add\n      swap1\n      tag_29\n      swap2\n      swap1\n      tag_30\n      jump\t// in\n    tag_29:\n      tag_31\n      jump\t// in\n    tag_28:\n      mload(0x40)\n      tag_32\n      swap2\n      swap1\n      tag_33\n      jump\t// in\n    tag_32:\n      mload(0x40)\n      dup1\n      swap2\n      sub\n      swap1\n      return\n        /* \"voting.sol\":935:1262  function voterEnrollment(string memory name,uint candidateID) public onlyAdmin returns(string memory){\r... */\n    tag_11:\n        /* \"voting.sol\":1022:1035  string memory */\n      0x60\n        /* \"voting.sol\":553:558  admin */\n      0x02\n      0x00\n      swap1\n      sload\n      swap1\n      0x0100\n      exp\n      swap1\n      div\n      0xffffffffffffffffffffffffffffffffffffffff\n      and\n        /* \"voting.sol\":539:558  msg.sender == admin */\n      0xffffffffffffffffffffffffffffffffffffffff\n      and\n        /* \"voting.sol\":539:549  msg.sender */\n      caller\n        /* \"voting.sol\":539:558  msg.sender == admin */\n      0xffffffffffffffffffffffffffffffffffffffff\n      and\n      eq\n        /* \"voting.sol\":531:578  require(msg.sender == admin,\"Access is Denied\") */\n      tag_35\n      jumpi\n      mload(0x40)\n      0x08c379a000000000000000000000000000000000000000000000000000000000\n      dup2\n      mstore\n      0x04\n      add\n      tag_36\n      swap1\n      tag_37\n      jump\t// in\n    tag_36:\n      mload(0x40)\n      dup1\n      swap2\n      sub\n      swap1\n      revert\n    tag_35:\n        /* \"voting.sol\":1080:1085  false */\n      0x00\n        /* \"voting.sol\":1055:1085  voters[name].hasVoted == false */\n      iszero\n      iszero\n        /* \"voting.sol\":1055:1061  voters */\n      0x04\n        /* \"voting.sol\":1062:1066  name */\n      dup5\n        /* \"voting.sol\":1055:1067  voters[name] */\n      mload(0x40)\n      tag_39\n      swap2\n      swap1\n      tag_40\n      jump\t// in\n    tag_39:\n      swap1\n      dup2\n      mstore\n      0x20\n      add\n      mload(0x40)\n      dup1\n      swap2\n      sub\n      swap1\n      keccak256\n        /* \"voting.sol\":1055:1076  voters[name].hasVoted */\n      0x01\n      add\n      0x00\n      swap1\n      sload\n      swap1\n      0x0100\n      exp\n      swap1\n      div\n      0xff\n      and\n        /* \"voting.sol\":1055:1085  voters[name].hasVoted == false */\n      iszero\n      iszero\n      eq\n        /* \"voting.sol\":1047:1086  require(voters[name].hasVoted == false) */\n      tag_41\n      jumpi\n      0x00\n      dup1\n      revert\n    tag_41:\n        /* \"voting.sol\":1099:1109  noOfVoters */\n      0x00\n      dup1\n        /* \"voting.sol\":1097:1109  ++noOfVoters */\n      dup2\n      sload\n      tag_42\n      swap1\n      tag_43\n      jump\t// in\n    tag_42:\n      swap2\n      swap1\n      pop\n      dup2\n      swap1\n      sstore\n      pop\n        /* \"voting.sol\":1135:1158  Voter(candidateID,true) */\n      mload(0x40)\n      dup1\n      0x40\n      add\n      0x40\n      mstore\n      dup1\n        /* \"voting.sol\":1141:1152  candidateID */\n      dup4\n        /* \"voting.sol\":1135:1158  Voter(candidateID,true) */\n      dup2\n      mstore\n      0x20\n      add\n        /* \"voting.sol\":1153:1157  true */\n      0x01\n        /* \"voting.sol\":1135:1158  Voter(candidateID,true) */\n      iszero\n      iszero\n      dup2\n      mstore\n      pop\n        /* \"voting.sol\":1120:1126  voters */\n      0x04\n        /* \"voting.sol\":1127:1131  name */\n      dup5\n        /* \"voting.sol\":1120:1132  voters[name] */\n      mload(0x40)\n      tag_44\n      swap2\n      swap1\n      tag_40\n      jump\t// in\n    tag_44:\n      swap1\n      dup2\n      mstore\n      0x20\n      add\n      mload(0x40)\n      dup1\n      swap2\n      sub\n      swap1\n      keccak256\n        /* \"voting.sol\":1120:1158  voters[name] = Voter(candidateID,true) */\n      0x00\n      dup3\n      add\n      mload\n      dup2\n      0x00\n      add\n      sstore\n      0x20\n      dup3\n      add\n      mload\n      dup2\n      0x01\n      add\n      exp(0x0100, 0x00)\n      dup2\n      sload\n      dup2\n      0xff\n      mul\n      not\n      and\n      swap1\n      dup4\n      iszero\n      iszero\n      mul\n      or\n      swap1\n      sstore\n      pop\n      swap1\n      pop\n      pop\n        /* \"voting.sol\":1206:1207  1 */\n      0x01\n        /* \"voting.sol\":1169:1179  candidates */\n      0x03\n        /* \"voting.sol\":1169:1192  candidates[candidateID] */\n      0x00\n        /* \"voting.sol\":1180:1191  candidateID */\n      dup5\n        /* \"voting.sol\":1169:1192  candidates[candidateID] */\n      dup2\n      mstore\n      0x20\n      add\n      swap1\n      dup2\n      mstore\n      0x20\n      add\n      0x00\n      keccak256\n        /* \"voting.sol\":1169:1202  candidates[candidateID].noOfVotes */\n      0x02\n      add\n      0x00\n        /* \"voting.sol\":1169:1207  candidates[candidateID].noOfVotes += 1 */\n      dup3\n      dup3\n      sload\n      tag_45\n      swap2\n      swap1\n      tag_46\n      jump\t// in\n    tag_45:\n      swap3\n      pop\n      pop\n      dup2\n      swap1\n      sstore\n      pop\n        /* \"voting.sol\":1218:1254  return \"You have successfully voted\" */\n      mload(0x40)\n      dup1\n      0x40\n      add\n      0x40\n      mstore\n      dup1\n      0x1b\n      dup2\n      mstore\n      0x20\n      add\n      0x596f752068617665207375636365737366756c6c7920766f7465640000000000\n      dup2\n      mstore\n      pop\n      swap1\n      pop\n        /* \"voting.sol\":935:1262  function voterEnrollment(string memory name,uint candidateID) public onlyAdmin returns(string memory){\r... */\n      swap3\n      swap2\n      pop\n      pop\n      jump\t// out\n        /* \"voting.sol\":604:929  function candidateEnrollment(string memory name,string memory description) public onlyAdmin returns(string memory){\r... */\n    tag_17:\n        /* \"voting.sol\":704:717  string memory */\n      0x60\n        /* \"voting.sol\":553:558  admin */\n      0x02\n      0x00\n      swap1\n      sload\n      swap1\n      0x0100\n      exp\n      swap1\n      div\n      0xffffffffffffffffffffffffffffffffffffffff\n      and\n        /* \"voting.sol\":539:558  msg.sender == admin */\n      0xffffffffffffffffffffffffffffffffffffffff\n      and\n        /* \"voting.sol\":539:549  msg.sender */\n      caller\n        /* \"voting.sol\":539:558  msg.sender == admin */\n      0xffffffffffffffffffffffffffffffffffffffff\n      and\n      eq\n        /* \"voting.sol\":531:578  require(msg.sender == admin,\"Access is Denied\") */\n      tag_48\n      jumpi\n      mload(0x40)\n      0x08c379a000000000000000000000000000000000000000000000000000000000\n      dup2\n      mstore\n      0x04\n      add\n      tag_49\n      swap1\n      tag_37\n      jump\t// in\n    tag_49:\n      mload(0x40)\n      dup1\n      swap2\n      sub\n      swap1\n      revert\n    tag_48:\n        /* \"voting.sol\":729:745  uint candidateID */\n      0x00\n        /* \"voting.sol\":748:762  noOfCandidates */\n      0x01\n      0x00\n        /* \"voting.sol\":748:764  noOfCandidates++ */\n      dup2\n      sload\n      dup1\n      swap3\n      swap2\n      swap1\n      tag_51\n      swap1\n      tag_43\n      jump\t// in\n    tag_51:\n      swap2\n      swap1\n      pop\n      sstore\n        /* \"voting.sol\":729:764  uint candidateID = noOfCandidates++ */\n      swap1\n      pop\n        /* \"voting.sol\":801:830  Candidate(name,description,0) */\n      mload(0x40)\n      dup1\n      0x60\n      add\n      0x40\n      mstore\n      dup1\n        /* \"voting.sol\":811:815  name */\n      dup6\n        /* \"voting.sol\":801:830  Candidate(name,description,0) */\n      dup2\n      mstore\n      0x20\n      add\n        /* \"voting.sol\":816:827  description */\n      dup5\n        /* \"voting.sol\":801:830  Candidate(name,description,0) */\n      dup2\n      mstore\n      0x20\n      add\n        /* \"voting.sol\":828:829  0 */\n      0x00\n        /* \"voting.sol\":801:830  Candidate(name,description,0) */\n      dup2\n      mstore\n      pop\n        /* \"voting.sol\":775:785  candidates */\n      0x03\n        /* \"voting.sol\":775:798  candidates[candidateID] */\n      0x00\n        /* \"voting.sol\":786:797  candidateID */\n      dup4\n        /* \"voting.sol\":775:798  candidates[candidateID] */\n      dup2\n      mstore\n      0x20\n      add\n      swap1\n      dup2\n      mstore\n      0x20\n      add\n      0x00\n      keccak256\n        /* \"voting.sol\":775:830  candidates[candidateID] = Candidate(name,description,0) */\n      0x00\n      dup3\n      add\n      mload\n      dup2\n      0x00\n      add\n      swap1\n      dup1\n      mload\n      swap1\n      0x20\n      add\n      swap1\n      tag_52\n      swap3\n      swap2\n      swap1\n      tag_53\n      jump\t// in\n    tag_52:\n      pop\n      0x20\n      dup3\n      add\n      mload\n      dup2\n      0x01\n      add\n      swap1\n      dup1\n      mload\n      swap1\n      0x20\n      add\n      swap1\n      tag_54\n      swap3\n      swap2\n      swap1\n      tag_53\n      jump\t// in\n    tag_54:\n      pop\n      0x40\n      dup3\n      add\n      mload\n      dup2\n      0x02\n      add\n      sstore\n      swap1\n      pop\n      pop\n        /* \"voting.sol\":841:921  return \"You will be added to candidate list once you are validated by the admin\" */\n      mload(0x40)\n      dup1\n      0x80\n      add\n      0x40\n      mstore\n      dup1\n      0x47\n      dup2\n      mstore\n      0x20\n      add\n      data_346ae9e229890c1b5467b3280ac50efb3a563831aa4e9bb9392fe53f7d7de7e2\n      0x47\n      swap2\n      codecopy\n      swap2\n      pop\n      pop\n        /* \"voting.sol\":604:929  function candidateEnrollment(string memory name,string memory description) public onlyAdmin returns(string memory){\r... */\n      swap3\n      swap2\n      pop\n      pop\n      jump\t// out\n        /* \"voting.sol\":149:194  mapping (uint => Candidate) public candidates */\n    tag_22:\n      mstore(0x20, 0x03)\n      dup1\n      0x00\n      mstore\n      keccak256(0x00, 0x40)\n      0x00\n      swap2\n      pop\n      swap1\n      pop\n      dup1\n      0x00\n      add\n      dup1\n      sload\n      tag_55\n      swap1\n      tag_56\n      jump\t// in\n    tag_55:\n      dup1\n      0x1f\n      add\n      0x20\n      dup1\n      swap2\n      div\n      mul\n      0x20\n      add\n      mload(0x40)\n      swap1\n      dup2\n      add\n      0x40\n      mstore\n      dup1\n      swap3\n      swap2\n      swap1\n      dup2\n      dup2\n      mstore\n      0x20\n      add\n      dup3\n      dup1\n      sload\n      tag_57\n      swap1\n      tag_56\n      jump\t// in\n    tag_57:\n      dup1\n      iszero\n      tag_58\n      jumpi\n      dup1\n      0x1f\n      lt\n      tag_59\n      jumpi\n      0x0100\n      dup1\n      dup4\n      sload\n      div\n      mul\n      dup4\n      mstore\n      swap2\n      0x20\n      add\n      swap2\n      jump(tag_58)\n    tag_59:\n      dup3\n      add\n      swap2\n      swap1\n      0x00\n      mstore\n      keccak256(0x00, 0x20)\n      swap1\n    tag_60:\n      dup2\n      sload\n      dup2\n      mstore\n      swap1\n      0x01\n      add\n      swap1\n      0x20\n      add\n      dup1\n      dup4\n      gt\n      tag_60\n      jumpi\n      dup3\n      swap1\n      sub\n      0x1f\n      and\n      dup3\n      add\n      swap2\n    tag_58:\n      pop\n      pop\n      pop\n      pop\n      pop\n      swap1\n      dup1\n      0x01\n      add\n      dup1\n      sload\n      tag_61\n      swap1\n      tag_56\n      jump\t// in\n    tag_61:\n      dup1\n      0x1f\n      add\n      0x20\n      dup1\n      swap2\n      div\n      mul\n      0x20\n      add\n      mload(0x40)\n      swap1\n      dup2\n      add\n      0x40\n      mstore\n      dup1\n      swap3\n      swap2\n      swap1\n      dup2\n      dup2\n      mstore\n      0x20\n      add\n      dup3\n      dup1\n      sload\n      tag_62\n      swap1\n      tag_56\n      jump\t// in\n    tag_62:\n      dup1\n      iszero\n      tag_63\n      jumpi\n      dup1\n      0x1f\n      lt\n      tag_64\n      jumpi\n      0x0100\n      dup1\n      dup4\n      sload\n      div\n      mul\n      dup4\n      mstore\n      swap2\n      0x20\n      add\n      swap2\n      jump(tag_63)\n    tag_64:\n      dup3\n      add\n      swap2\n      swap1\n      0x00\n      mstore\n      keccak256(0x00, 0x20)\n      swap1\n    tag_65:\n      dup2\n      sload\n      dup2\n      mstore\n      swap1\n      0x01\n      add\n      swap1\n      0x20\n      add\n      dup1\n      dup4\n      gt\n      tag_65\n      jumpi\n      dup3\n      swap1\n      sub\n      0x1f\n      and\n      dup3\n      add\n      swap2\n    tag_63:\n      pop\n      pop\n      pop\n      pop\n      pop\n      swap1\n      dup1\n      0x02\n      add\n      sload\n      swap1\n      pop\n      dup4\n      jump\t// out\n        /* \"voting.sol\":1623:2047  function results() public onlyAdmin view returns (string memory){\r... */\n    tag_26:\n        /* \"voting.sol\":1673:1686  string memory */\n      0x60\n        /* \"voting.sol\":553:558  admin */\n      0x02\n      0x00\n      swap1\n      sload\n      swap1\n      0x0100\n      exp\n      swap1\n      div\n      0xffffffffffffffffffffffffffffffffffffffff\n      and\n        /* \"voting.sol\":539:558  msg.sender == admin */\n      0xffffffffffffffffffffffffffffffffffffffff\n      and\n        /* \"voting.sol\":539:549  msg.sender */\n      caller\n        /* \"voting.sol\":539:558  msg.sender == admin */\n      0xffffffffffffffffffffffffffffffffffffffff\n      and\n      eq\n        /* \"voting.sol\":531:578  require(msg.sender == admin,\"Access is Denied\") */\n      tag_67\n      jumpi\n      mload(0x40)\n      0x08c379a000000000000000000000000000000000000000000000000000000000\n      dup2\n      mstore\n      0x04\n      add\n      tag_68\n      swap1\n      tag_37\n      jump\t// in\n    tag_68:\n      mload(0x40)\n      dup1\n      swap2\n      sub\n      swap1\n      revert\n    tag_67:\n        /* \"voting.sol\":1698:1711  uint maxVotes */\n      0x00\n        /* \"voting.sol\":1714:1724  candidates */\n      0x03\n        /* \"voting.sol\":1714:1727  candidates[0] */\n      0x00\n        /* \"voting.sol\":1725:1726  0 */\n      dup1\n        /* \"voting.sol\":1714:1727  candidates[0] */\n      dup2\n      mstore\n      0x20\n      add\n      swap1\n      dup2\n      mstore\n      0x20\n      add\n      0x00\n      keccak256\n        /* \"voting.sol\":1714:1737  candidates[0].noOfVotes */\n      0x02\n      add\n      sload\n        /* \"voting.sol\":1698:1737  uint maxVotes = candidates[0].noOfVotes */\n      swap1\n      pop\n        /* \"voting.sol\":1748:1764  uint candidateID */\n      0x00\n        /* \"voting.sol\":1779:1785  uint i */\n      dup1\n        /* \"voting.sol\":1788:1789  0 */\n      0x00\n        /* \"voting.sol\":1779:1789  uint i = 0 */\n      swap1\n      pop\n        /* \"voting.sol\":1775:1982  for(uint i = 0 ; i<noOfCandidates;i++) {\r... */\n    tag_70:\n        /* \"voting.sol\":1794:1808  noOfCandidates */\n      sload(0x01)\n        /* \"voting.sol\":1792:1793  i */\n      dup2\n        /* \"voting.sol\":1792:1808  i<noOfCandidates */\n      lt\n        /* \"voting.sol\":1775:1982  for(uint i = 0 ; i<noOfCandidates;i++) {\r... */\n      iszero\n      tag_71\n      jumpi\n        /* \"voting.sol\":1843:1853  candidates */\n      0x03\n        /* \"voting.sol\":1843:1856  candidates[i] */\n      0x00\n        /* \"voting.sol\":1854:1855  i */\n      dup3\n        /* \"voting.sol\":1843:1856  candidates[i] */\n      dup2\n      mstore\n      0x20\n      add\n      swap1\n      dup2\n      mstore\n      0x20\n      add\n      0x00\n      keccak256\n        /* \"voting.sol\":1843:1866  candidates[i].noOfVotes */\n      0x02\n      add\n      sload\n        /* \"voting.sol\":1832:1840  maxVotes */\n      dup4\n        /* \"voting.sol\":1832:1866  maxVotes < candidates[i].noOfVotes */\n      lt\n        /* \"voting.sol\":1829:1971  if(maxVotes < candidates[i].noOfVotes) {\r... */\n      iszero\n      tag_73\n      jumpi\n        /* \"voting.sol\":1898:1908  candidates */\n      0x03\n        /* \"voting.sol\":1898:1911  candidates[i] */\n      0x00\n        /* \"voting.sol\":1909:1910  i */\n      dup3\n        /* \"voting.sol\":1898:1911  candidates[i] */\n      dup2\n      mstore\n      0x20\n      add\n      swap1\n      dup2\n      mstore\n      0x20\n      add\n      0x00\n      keccak256\n        /* \"voting.sol\":1898:1921  candidates[i].noOfVotes */\n      0x02\n      add\n      sload\n        /* \"voting.sol\":1887:1921  maxVotes = candidates[i].noOfVotes */\n      swap3\n      pop\n        /* \"voting.sol\":1954:1955  i */\n      dup1\n        /* \"voting.sol\":1940:1955  candidateID = i */\n      swap2\n      pop\n        /* \"voting.sol\":1829:1971  if(maxVotes < candidates[i].noOfVotes) {\r... */\n    tag_73:\n        /* \"voting.sol\":1809:1812  i++ */\n      dup1\n      dup1\n      tag_74\n      swap1\n      tag_43\n      jump\t// in\n    tag_74:\n      swap2\n      pop\n      pop\n        /* \"voting.sol\":1775:1982  for(uint i = 0 ; i<noOfCandidates;i++) {\r... */\n      jump(tag_70)\n    tag_71:\n      pop\n        /* \"voting.sol\":2000:2010  candidates */\n      0x03\n        /* \"voting.sol\":2000:2023  candidates[candidateID] */\n      0x00\n        /* \"voting.sol\":2011:2022  candidateID */\n      dup3\n        /* \"voting.sol\":2000:2023  candidates[candidateID] */\n      dup2\n      mstore\n      0x20\n      add\n      swap1\n      dup2\n      mstore\n      0x20\n      add\n      0x00\n      keccak256\n        /* \"voting.sol\":2000:2038  candidates[candidateID].candidate_name */\n      0x00\n      add\n        /* \"voting.sol\":1992:2039  return (candidates[candidateID].candidate_name) */\n      dup1\n      sload\n      tag_75\n      swap1\n      tag_56\n      jump\t// in\n    tag_75:\n      dup1\n      0x1f\n      add\n      0x20\n      dup1\n      swap2\n      div\n      mul\n      0x20\n      add\n      mload(0x40)\n      swap1\n      dup2\n      add\n      0x40\n      mstore\n      dup1\n      swap3\n      swap2\n      swap1\n      dup2\n      dup2\n      mstore\n      0x20\n      add\n      dup3\n      dup1\n      sload\n      tag_76\n      swap1\n      tag_56\n      jump\t// in\n    tag_76:\n      dup1\n      iszero\n      tag_77\n      jumpi\n      dup1\n      0x1f\n      lt\n      tag_78\n      jumpi\n      0x0100\n      dup1\n      dup4\n      sload\n      div\n      mul\n      dup4\n      mstore\n      swap2\n      0x20\n      add\n      swap2\n      jump(tag_77)\n    tag_78:\n      dup3\n      add\n      swap2\n      swap1\n      0x00\n      mstore\n      keccak256(0x00, 0x20)\n      swap1\n    tag_79:\n      dup2\n      sload\n      dup2\n      mstore\n      swap1\n      0x01\n      add\n      swap1\n      0x20\n      add\n      dup1\n      dup4\n      gt\n      tag_79\n      jumpi\n      dup3\n      swap1\n      sub\n      0x1f\n      and\n      dup3\n      add\n      swap2\n    tag_77:\n      pop\n      pop\n      pop\n      pop\n      pop\n      swap3\n      pop\n      pop\n      pop\n        /* \"voting.sol\":1623:2047  function results() public onlyAdmin view returns (string memory){\r... */\n      swap1\n      jump\t// out\n        /* \"voting.sol\":1268:1617  function candidateIDGenerator(string memory name) public view returns(uint){\r... */\n    tag_31:\n        /* \"voting.sol\":1338:1342  uint */\n      0x00\n        /* \"voting.sol\":1358:1364  uint i */\n      dup1\n        /* \"voting.sol\":1366:1367  0 */\n      0x00\n        /* \"voting.sol\":1358:1367  uint i =0 */\n      swap1\n      pop\n        /* \"voting.sol\":1354:1610  for(uint i =0;i<noOfCandidates;i++){\r... */\n    tag_81:\n        /* \"voting.sol\":1370:1384  noOfCandidates */\n      sload(0x01)\n        /* \"voting.sol\":1368:1369  i */\n      dup2\n        /* \"voting.sol\":1368:1384  i<noOfCandidates */\n      lt\n        /* \"voting.sol\":1354:1610  for(uint i =0;i<noOfCandidates;i++){\r... */\n      iszero\n      tag_82\n      jumpi\n        /* \"voting.sol\":1404:1429  string memory findingName */\n      0x00\n        /* \"voting.sol\":1432:1442  candidates */\n      0x03\n        /* \"voting.sol\":1432:1445  candidates[i] */\n      0x00\n        /* \"voting.sol\":1443:1444  i */\n      dup4\n        /* \"voting.sol\":1432:1445  candidates[i] */\n      dup2\n      mstore\n      0x20\n      add\n      swap1\n      dup2\n      mstore\n      0x20\n      add\n      0x00\n      keccak256\n        /* \"voting.sol\":1432:1460  candidates[i].candidate_name */\n      0x00\n      add\n        /* \"voting.sol\":1404:1460  string memory findingName = candidates[i].candidate_name */\n      dup1\n      sload\n      tag_84\n      swap1\n      tag_56\n      jump\t// in\n    tag_84:\n      dup1\n      0x1f\n      add\n      0x20\n      dup1\n      swap2\n      div\n      mul\n      0x20\n      add\n      mload(0x40)\n      swap1\n      dup2\n      add\n      0x40\n      mstore\n      dup1\n      swap3\n      swap2\n      swap1\n      dup2\n      dup2\n      mstore\n      0x20\n      add\n      dup3\n      dup1\n      sload\n      tag_85\n      swap1\n      tag_56\n      jump\t// in\n    tag_85:\n      dup1\n      iszero\n      tag_86\n      jumpi\n      dup1\n      0x1f\n      lt\n      tag_87\n      jumpi\n      0x0100\n      dup1\n      dup4\n      sload\n      div\n      mul\n      dup4\n      mstore\n      swap2\n      0x20\n      add\n      swap2\n      jump(tag_86)\n    tag_87:\n      dup3\n      add\n      swap2\n      swap1\n      0x00\n      mstore\n      keccak256(0x00, 0x20)\n      swap1\n    tag_88:\n      dup2\n      sload\n      dup2\n      mstore\n      swap1\n      0x01\n      add\n      swap1\n      0x20\n      add\n      dup1\n      dup4\n      gt\n      tag_88\n      jumpi\n      dup3\n      swap1\n      sub\n      0x1f\n      and\n      dup3\n      add\n      swap2\n    tag_86:\n      pop\n      pop\n      pop\n      pop\n      pop\n      swap1\n      pop\n        /* \"voting.sol\":1549:1553  name */\n      dup4\n        /* \"voting.sol\":1532:1554  abi.encodePacked(name) */\n      add(0x20, mload(0x40))\n      tag_89\n      swap2\n      swap1\n      tag_40\n      jump\t// in\n    tag_89:\n      mload(0x40)\n      0x20\n      dup2\n      dup4\n      sub\n      sub\n      dup2\n      mstore\n      swap1\n      0x40\n      mstore\n        /* \"voting.sol\":1522:1555  keccak256(abi.encodePacked(name)) */\n      dup1\n      mload\n      swap1\n      0x20\n      add\n      keccak256\n        /* \"voting.sol\":1505:1516  findingName */\n      dup2\n        /* \"voting.sol\":1488:1517  abi.encodePacked(findingName) */\n      add(0x20, mload(0x40))\n      tag_90\n      swap2\n      swap1\n      tag_40\n      jump\t// in\n    tag_90:\n      mload(0x40)\n      0x20\n      dup2\n      dup4\n      sub\n      sub\n      dup2\n      mstore\n      swap1\n      0x40\n      mstore\n        /* \"voting.sol\":1478:1518  keccak256(abi.encodePacked(findingName)) */\n      dup1\n      mload\n      swap1\n      0x20\n      add\n      keccak256\n        /* \"voting.sol\":1478:1555  keccak256(abi.encodePacked(findingName)) == keccak256(abi.encodePacked(name)) */\n      eq\n        /* \"voting.sol\":1475:1599  if(keccak256(abi.encodePacked(findingName)) == keccak256(abi.encodePacked(name))){\r... */\n      iszero\n      tag_91\n      jumpi\n        /* \"voting.sol\":1582:1583  i */\n      dup2\n        /* \"voting.sol\":1575:1583  return i */\n      swap3\n      pop\n      pop\n      pop\n      jump(tag_80)\n        /* \"voting.sol\":1475:1599  if(keccak256(abi.encodePacked(findingName)) == keccak256(abi.encodePacked(name))){\r... */\n    tag_91:\n        /* \"voting.sol\":1389:1610  {\r... */\n      pop\n        /* \"voting.sol\":1385:1388  i++ */\n      dup1\n      dup1\n      tag_92\n      swap1\n      tag_43\n      jump\t// in\n    tag_92:\n      swap2\n      pop\n      pop\n        /* \"voting.sol\":1354:1610  for(uint i =0;i<noOfCandidates;i++){\r... */\n      jump(tag_81)\n    tag_82:\n      pop\n        /* \"voting.sol\":1268:1617  function candidateIDGenerator(string memory name) public view returns(uint){\r... */\n    tag_80:\n      swap2\n      swap1\n      pop\n      jump\t// out\n    tag_53:\n      dup3\n      dup1\n      sload\n      tag_93\n      swap1\n      tag_56\n      jump\t// in\n    tag_93:\n      swap1\n      0x00\n      mstore\n      keccak256(0x00, 0x20)\n      swap1\n      0x1f\n      add\n      0x20\n      swap1\n      div\n      dup2\n      add\n      swap3\n      dup3\n      tag_95\n      jumpi\n      0x00\n      dup6\n      sstore\n      jump(tag_94)\n    tag_95:\n      dup3\n      0x1f\n      lt\n      tag_96\n      jumpi\n      dup1\n      mload\n      not(0xff)\n      and\n      dup4\n      dup1\n      add\n      or\n      dup6\n      sstore\n      jump(tag_94)\n    tag_96:\n      dup3\n      dup1\n      add\n      0x01\n      add\n      dup6\n      sstore\n      dup3\n      iszero\n      tag_94\n      jumpi\n      swap2\n      dup3\n      add\n    tag_97:\n      dup3\n      dup2\n      gt\n      iszero\n      tag_98\n      jumpi\n      dup3\n      mload\n      dup3\n      sstore\n      swap2\n      0x20\n      add\n      swap2\n      swap1\n      0x01\n      add\n      swap1\n      jump(tag_97)\n    tag_98:\n    tag_94:\n      pop\n      swap1\n      pop\n      tag_99\n      swap2\n      swap1\n      tag_100\n      jump\t// in\n    tag_99:\n      pop\n      swap1\n      jump\t// out\n    tag_100:\n    tag_101:\n      dup1\n      dup3\n      gt\n      iszero\n      tag_102\n      jumpi\n      0x00\n      dup2\n      0x00\n      swap1\n      sstore\n      pop\n      0x01\n      add\n      jump(tag_101)\n    tag_102:\n      pop\n      swap1\n      jump\t// out\n        /* \"#utility.yul\":7:419   */\n    tag_104:\n        /* \"#utility.yul\":85:90   */\n      0x00\n        /* \"#utility.yul\":110:176   */\n      tag_106\n        /* \"#utility.yul\":126:175   */\n      tag_107\n        /* \"#utility.yul\":168:174   */\n      dup5\n        /* \"#utility.yul\":126:175   */\n      tag_108\n      jump\t// in\n    tag_107:\n        /* \"#utility.yul\":110:176   */\n      tag_109\n      jump\t// in\n    tag_106:\n        /* \"#utility.yul\":101:176   */\n      swap1\n      pop\n        /* \"#utility.yul\":199:205   */\n      dup3\n        /* \"#utility.yul\":192:197   */\n      dup2\n        /* \"#utility.yul\":185:206   */\n      mstore\n        /* \"#utility.yul\":237:241   */\n      0x20\n        /* \"#utility.yul\":230:235   */\n      dup2\n        /* \"#utility.yul\":226:242   */\n      add\n        /* \"#utility.yul\":275:278   */\n      dup5\n        /* \"#utility.yul\":266:272   */\n      dup5\n        /* \"#utility.yul\":261:264   */\n      dup5\n        /* \"#utility.yul\":257:273   */\n      add\n        /* \"#utility.yul\":254:279   */\n      gt\n        /* \"#utility.yul\":251:363   */\n      iszero\n      tag_110\n      jumpi\n        /* \"#utility.yul\":282:361   */\n      tag_111\n      tag_112\n      jump\t// in\n    tag_111:\n        /* \"#utility.yul\":251:363   */\n    tag_110:\n        /* \"#utility.yul\":372:413   */\n      tag_113\n        /* \"#utility.yul\":406:412   */\n      dup5\n        /* \"#utility.yul\":401:404   */\n      dup3\n        /* \"#utility.yul\":396:399   */\n      dup6\n        /* \"#utility.yul\":372:413   */\n      tag_114\n      jump\t// in\n    tag_113:\n        /* \"#utility.yul\":91:419   */\n      pop\n        /* \"#utility.yul\":7:419   */\n      swap4\n      swap3\n      pop\n      pop\n      pop\n      jump\t// out\n        /* \"#utility.yul\":439:779   */\n    tag_115:\n        /* \"#utility.yul\":495:500   */\n      0x00\n        /* \"#utility.yul\":544:547   */\n      dup3\n        /* \"#utility.yul\":537:541   */\n      0x1f\n        /* \"#utility.yul\":529:535   */\n      dup4\n        /* \"#utility.yul\":525:542   */\n      add\n        /* \"#utility.yul\":521:548   */\n      slt\n        /* \"#utility.yul\":511:633   */\n      tag_117\n      jumpi\n        /* \"#utility.yul\":552:631   */\n      tag_118\n      tag_119\n      jump\t// in\n    tag_118:\n        /* \"#utility.yul\":511:633   */\n    tag_117:\n        /* \"#utility.yul\":669:675   */\n      dup2\n        /* \"#utility.yul\":656:676   */\n      calldataload\n        /* \"#utility.yul\":694:773   */\n      tag_120\n        /* \"#utility.yul\":769:772   */\n      dup5\n        /* \"#utility.yul\":761:767   */\n      dup3\n        /* \"#utility.yul\":754:758   */\n      0x20\n        /* \"#utility.yul\":746:752   */\n      dup7\n        /* \"#utility.yul\":742:759   */\n      add\n        /* \"#utility.yul\":694:773   */\n      tag_104\n      jump\t// in\n    tag_120:\n        /* \"#utility.yul\":685:773   */\n      swap2\n      pop\n        /* \"#utility.yul\":501:779   */\n      pop\n        /* \"#utility.yul\":439:779   */\n      swap3\n      swap2\n      pop\n      pop\n      jump\t// out\n        /* \"#utility.yul\":785:924   */\n    tag_121:\n        /* \"#utility.yul\":831:836   */\n      0x00\n        /* \"#utility.yul\":869:875   */\n      dup2\n        /* \"#utility.yul\":856:876   */\n      calldataload\n        /* \"#utility.yul\":847:876   */\n      swap1\n      pop\n        /* \"#utility.yul\":885:918   */\n      tag_123\n        /* \"#utility.yul\":912:917   */\n      dup2\n        /* \"#utility.yul\":885:918   */\n      tag_124\n      jump\t// in\n    tag_123:\n        /* \"#utility.yul\":785:924   */\n      swap3\n      swap2\n      pop\n      pop\n      jump\t// out\n        /* \"#utility.yul\":930:1439   */\n    tag_30:\n        /* \"#utility.yul\":999:1005   */\n      0x00\n        /* \"#utility.yul\":1048:1050   */\n      0x20\n        /* \"#utility.yul\":1036:1045   */\n      dup3\n        /* \"#utility.yul\":1027:1034   */\n      dup5\n        /* \"#utility.yul\":1023:1046   */\n      sub\n        /* \"#utility.yul\":1019:1051   */\n      slt\n        /* \"#utility.yul\":1016:1135   */\n      iszero\n      tag_126\n      jumpi\n        /* \"#utility.yul\":1054:1133   */\n      tag_127\n      tag_128\n      jump\t// in\n    tag_127:\n        /* \"#utility.yul\":1016:1135   */\n    tag_126:\n        /* \"#utility.yul\":1202:1203   */\n      0x00\n        /* \"#utility.yul\":1191:1200   */\n      dup3\n        /* \"#utility.yul\":1187:1204   */\n      add\n        /* \"#utility.yul\":1174:1205   */\n      calldataload\n        /* \"#utility.yul\":1232:1250   */\n      0xffffffffffffffff\n        /* \"#utility.yul\":1224:1230   */\n      dup2\n        /* \"#utility.yul\":1221:1251   */\n      gt\n        /* \"#utility.yul\":1218:1335   */\n      iszero\n      tag_129\n      jumpi\n        /* \"#utility.yul\":1254:1333   */\n      tag_130\n      tag_131\n      jump\t// in\n    tag_130:\n        /* \"#utility.yul\":1218:1335   */\n    tag_129:\n        /* \"#utility.yul\":1359:1422   */\n      tag_132\n        /* \"#utility.yul\":1414:1421   */\n      dup5\n        /* \"#utility.yul\":1405:1411   */\n      dup3\n        /* \"#utility.yul\":1394:1403   */\n      dup6\n        /* \"#utility.yul\":1390:1412   */\n      add\n        /* \"#utility.yul\":1359:1422   */\n      tag_115\n      jump\t// in\n    tag_132:\n        /* \"#utility.yul\":1349:1422   */\n      swap2\n      pop\n        /* \"#utility.yul\":1145:1432   */\n      pop\n        /* \"#utility.yul\":930:1439   */\n      swap3\n      swap2\n      pop\n      pop\n      jump\t// out\n        /* \"#utility.yul\":1445:2279   */\n    tag_16:\n        /* \"#utility.yul\":1533:1539   */\n      0x00\n        /* \"#utility.yul\":1541:1547   */\n      dup1\n        /* \"#utility.yul\":1590:1592   */\n      0x40\n        /* \"#utility.yul\":1578:1587   */\n      dup4\n        /* \"#utility.yul\":1569:1576   */\n      dup6\n        /* \"#utility.yul\":1565:1588   */\n      sub\n        /* \"#utility.yul\":1561:1593   */\n      slt\n        /* \"#utility.yul\":1558:1677   */\n      iszero\n      tag_134\n      jumpi\n        /* \"#utility.yul\":1596:1675   */\n      tag_135\n      tag_128\n      jump\t// in\n    tag_135:\n        /* \"#utility.yul\":1558:1677   */\n    tag_134:\n        /* \"#utility.yul\":1744:1745   */\n      0x00\n        /* \"#utility.yul\":1733:1742   */\n      dup4\n        /* \"#utility.yul\":1729:1746   */\n      add\n        /* \"#utility.yul\":1716:1747   */\n      calldataload\n        /* \"#utility.yul\":1774:1792   */\n      0xffffffffffffffff\n        /* \"#utility.yul\":1766:1772   */\n      dup2\n        /* \"#utility.yul\":1763:1793   */\n      gt\n        /* \"#utility.yul\":1760:1877   */\n      iszero\n      tag_136\n      jumpi\n        /* \"#utility.yul\":1796:1875   */\n      tag_137\n      tag_131\n      jump\t// in\n    tag_137:\n        /* \"#utility.yul\":1760:1877   */\n    tag_136:\n        /* \"#utility.yul\":1901:1964   */\n      tag_138\n        /* \"#utility.yul\":1956:1963   */\n      dup6\n        /* \"#utility.yul\":1947:1953   */\n      dup3\n        /* \"#utility.yul\":1936:1945   */\n      dup7\n        /* \"#utility.yul\":1932:1954   */\n      add\n        /* \"#utility.yul\":1901:1964   */\n      tag_115\n      jump\t// in\n    tag_138:\n        /* \"#utility.yul\":1891:1964   */\n      swap3\n      pop\n        /* \"#utility.yul\":1687:1974   */\n      pop\n        /* \"#utility.yul\":2041:2043   */\n      0x20\n        /* \"#utility.yul\":2030:2039   */\n      dup4\n        /* \"#utility.yul\":2026:2044   */\n      add\n        /* \"#utility.yul\":2013:2045   */\n      calldataload\n        /* \"#utility.yul\":2072:2090   */\n      0xffffffffffffffff\n        /* \"#utility.yul\":2064:2070   */\n      dup2\n        /* \"#utility.yul\":2061:2091   */\n      gt\n        /* \"#utility.yul\":2058:2175   */\n      iszero\n      tag_139\n      jumpi\n        /* \"#utility.yul\":2094:2173   */\n      tag_140\n      tag_131\n      jump\t// in\n    tag_140:\n        /* \"#utility.yul\":2058:2175   */\n    tag_139:\n        /* \"#utility.yul\":2199:2262   */\n      tag_141\n        /* \"#utility.yul\":2254:2261   */\n      dup6\n        /* \"#utility.yul\":2245:2251   */\n      dup3\n        /* \"#utility.yul\":2234:2243   */\n      dup7\n        /* \"#utility.yul\":2230:2252   */\n      add\n        /* \"#utility.yul\":2199:2262   */\n      tag_115\n      jump\t// in\n    tag_141:\n        /* \"#utility.yul\":2189:2262   */\n      swap2\n      pop\n        /* \"#utility.yul\":1984:2272   */\n      pop\n        /* \"#utility.yul\":1445:2279   */\n      swap3\n      pop\n      swap3\n      swap1\n      pop\n      jump\t// out\n        /* \"#utility.yul\":2285:2939   */\n    tag_10:\n        /* \"#utility.yul\":2363:2369   */\n      0x00\n        /* \"#utility.yul\":2371:2377   */\n      dup1\n        /* \"#utility.yul\":2420:2422   */\n      0x40\n        /* \"#utility.yul\":2408:2417   */\n      dup4\n        /* \"#utility.yul\":2399:2406   */\n      dup6\n        /* \"#utility.yul\":2395:2418   */\n      sub\n        /* \"#utility.yul\":2391:2423   */\n      slt\n        /* \"#utility.yul\":2388:2507   */\n      iszero\n      tag_143\n      jumpi\n        /* \"#utility.yul\":2426:2505   */\n      tag_144\n      tag_128\n      jump\t// in\n    tag_144:\n        /* \"#utility.yul\":2388:2507   */\n    tag_143:\n        /* \"#utility.yul\":2574:2575   */\n      0x00\n        /* \"#utility.yul\":2563:2572   */\n      dup4\n        /* \"#utility.yul\":2559:2576   */\n      add\n        /* \"#utility.yul\":2546:2577   */\n      calldataload\n        /* \"#utility.yul\":2604:2622   */\n      0xffffffffffffffff\n        /* \"#utility.yul\":2596:2602   */\n      dup2\n        /* \"#utility.yul\":2593:2623   */\n      gt\n        /* \"#utility.yul\":2590:2707   */\n      iszero\n      tag_145\n      jumpi\n        /* \"#utility.yul\":2626:2705   */\n      tag_146\n      tag_131\n      jump\t// in\n    tag_146:\n        /* \"#utility.yul\":2590:2707   */\n    tag_145:\n        /* \"#utility.yul\":2731:2794   */\n      tag_147\n        /* \"#utility.yul\":2786:2793   */\n      dup6\n        /* \"#utility.yul\":2777:2783   */\n      dup3\n        /* \"#utility.yul\":2766:2775   */\n      dup7\n        /* \"#utility.yul\":2762:2784   */\n      add\n        /* \"#utility.yul\":2731:2794   */\n      tag_115\n      jump\t// in\n    tag_147:\n        /* \"#utility.yul\":2721:2794   */\n      swap3\n      pop\n        /* \"#utility.yul\":2517:2804   */\n      pop\n        /* \"#utility.yul\":2843:2845   */\n      0x20\n        /* \"#utility.yul\":2869:2922   */\n      tag_148\n        /* \"#utility.yul\":2914:2921   */\n      dup6\n        /* \"#utility.yul\":2905:2911   */\n      dup3\n        /* \"#utility.yul\":2894:2903   */\n      dup7\n        /* \"#utility.yul\":2890:2912   */\n      add\n        /* \"#utility.yul\":2869:2922   */\n      tag_121\n      jump\t// in\n    tag_148:\n        /* \"#utility.yul\":2859:2922   */\n      swap2\n      pop\n        /* \"#utility.yul\":2814:2932   */\n      pop\n        /* \"#utility.yul\":2285:2939   */\n      swap3\n      pop\n      swap3\n      swap1\n      pop\n      jump\t// out\n        /* \"#utility.yul\":2945:3274   */\n    tag_21:\n        /* \"#utility.yul\":3004:3010   */\n      0x00\n        /* \"#utility.yul\":3053:3055   */\n      0x20\n        /* \"#utility.yul\":3041:3050   */\n      dup3\n        /* \"#utility.yul\":3032:3039   */\n      dup5\n        /* \"#utility.yul\":3028:3051   */\n      sub\n        /* \"#utility.yul\":3024:3056   */\n      slt\n        /* \"#utility.yul\":3021:3140   */\n      iszero\n      tag_150\n      jumpi\n        /* \"#utility.yul\":3059:3138   */\n      tag_151\n      tag_128\n      jump\t// in\n    tag_151:\n        /* \"#utility.yul\":3021:3140   */\n    tag_150:\n        /* \"#utility.yul\":3179:3180   */\n      0x00\n        /* \"#utility.yul\":3204:3257   */\n      tag_152\n        /* \"#utility.yul\":3249:3256   */\n      dup5\n        /* \"#utility.yul\":3240:3246   */\n      dup3\n        /* \"#utility.yul\":3229:3238   */\n      dup6\n        /* \"#utility.yul\":3225:3247   */\n      add\n        /* \"#utility.yul\":3204:3257   */\n      tag_121\n      jump\t// in\n    tag_152:\n        /* \"#utility.yul\":3194:3257   */\n      swap2\n      pop\n        /* \"#utility.yul\":3150:3267   */\n      pop\n        /* \"#utility.yul\":2945:3274   */\n      swap3\n      swap2\n      pop\n      pop\n      jump\t// out\n        /* \"#utility.yul\":3280:3644   */\n    tag_153:\n        /* \"#utility.yul\":3368:3371   */\n      0x00\n        /* \"#utility.yul\":3396:3435   */\n      tag_155\n        /* \"#utility.yul\":3429:3434   */\n      dup3\n        /* \"#utility.yul\":3396:3435   */\n      tag_156\n      jump\t// in\n    tag_155:\n        /* \"#utility.yul\":3451:3522   */\n      tag_157\n        /* \"#utility.yul\":3515:3521   */\n      dup2\n        /* \"#utility.yul\":3510:3513   */\n      dup6\n        /* \"#utility.yul\":3451:3522   */\n      tag_158\n      jump\t// in\n    tag_157:\n        /* \"#utility.yul\":3444:3522   */\n      swap4\n      pop\n        /* \"#utility.yul\":3531:3583   */\n      tag_159\n        /* \"#utility.yul\":3576:3582   */\n      dup2\n        /* \"#utility.yul\":3571:3574   */\n      dup6\n        /* \"#utility.yul\":3564:3568   */\n      0x20\n        /* \"#utility.yul\":3557:3562   */\n      dup7\n        /* \"#utility.yul\":3553:3569   */\n      add\n        /* \"#utility.yul\":3531:3583   */\n      tag_160\n      jump\t// in\n    tag_159:\n        /* \"#utility.yul\":3608:3637   */\n      tag_161\n        /* \"#utility.yul\":3630:3636   */\n      dup2\n        /* \"#utility.yul\":3608:3637   */\n      tag_162\n      jump\t// in\n    tag_161:\n        /* \"#utility.yul\":3603:3606   */\n      dup5\n        /* \"#utility.yul\":3599:3638   */\n      add\n        /* \"#utility.yul\":3592:3638   */\n      swap2\n      pop\n        /* \"#utility.yul\":3372:3644   */\n      pop\n        /* \"#utility.yul\":3280:3644   */\n      swap3\n      swap2\n      pop\n      pop\n      jump\t// out\n        /* \"#utility.yul\":3650:4027   */\n    tag_163:\n        /* \"#utility.yul\":3756:3759   */\n      0x00\n        /* \"#utility.yul\":3784:3823   */\n      tag_165\n        /* \"#utility.yul\":3817:3822   */\n      dup3\n        /* \"#utility.yul\":3784:3823   */\n      tag_156\n      jump\t// in\n    tag_165:\n        /* \"#utility.yul\":3839:3928   */\n      tag_166\n        /* \"#utility.yul\":3921:3927   */\n      dup2\n        /* \"#utility.yul\":3916:3919   */\n      dup6\n        /* \"#utility.yul\":3839:3928   */\n      tag_167\n      jump\t// in\n    tag_166:\n        /* \"#utility.yul\":3832:3928   */\n      swap4\n      pop\n        /* \"#utility.yul\":3937:3989   */\n      tag_168\n        /* \"#utility.yul\":3982:3988   */\n      dup2\n        /* \"#utility.yul\":3977:3980   */\n      dup6\n        /* \"#utility.yul\":3970:3974   */\n      0x20\n        /* \"#utility.yul\":3963:3968   */\n      dup7\n        /* \"#utility.yul\":3959:3975   */\n      add\n        /* \"#utility.yul\":3937:3989   */\n      tag_160\n      jump\t// in\n    tag_168:\n        /* \"#utility.yul\":4014:4020   */\n      dup1\n        /* \"#utility.yul\":4009:4012   */\n      dup5\n        /* \"#utility.yul\":4005:4021   */\n      add\n        /* \"#utility.yul\":3998:4021   */\n      swap2\n      pop\n        /* \"#utility.yul\":3760:4027   */\n      pop\n        /* \"#utility.yul\":3650:4027   */\n      swap3\n      swap2\n      pop\n      pop\n      jump\t// out\n        /* \"#utility.yul\":4033:4399   */\n    tag_169:\n        /* \"#utility.yul\":4175:4178   */\n      0x00\n        /* \"#utility.yul\":4196:4263   */\n      tag_171\n        /* \"#utility.yul\":4260:4262   */\n      0x10\n        /* \"#utility.yul\":4255:4258   */\n      dup4\n        /* \"#utility.yul\":4196:4263   */\n      tag_158\n      jump\t// in\n    tag_171:\n        /* \"#utility.yul\":4189:4263   */\n      swap2\n      pop\n        /* \"#utility.yul\":4272:4365   */\n      tag_172\n        /* \"#utility.yul\":4361:4364   */\n      dup3\n        /* \"#utility.yul\":4272:4365   */\n      tag_173\n      jump\t// in\n    tag_172:\n        /* \"#utility.yul\":4390:4392   */\n      0x20\n        /* \"#utility.yul\":4385:4388   */\n      dup3\n        /* \"#utility.yul\":4381:4393   */\n      add\n        /* \"#utility.yul\":4374:4393   */\n      swap1\n      pop\n        /* \"#utility.yul\":4033:4399   */\n      swap2\n      swap1\n      pop\n      jump\t// out\n        /* \"#utility.yul\":4405:4523   */\n    tag_174:\n        /* \"#utility.yul\":4492:4516   */\n      tag_176\n        /* \"#utility.yul\":4510:4515   */\n      dup2\n        /* \"#utility.yul\":4492:4516   */\n      tag_177\n      jump\t// in\n    tag_176:\n        /* \"#utility.yul\":4487:4490   */\n      dup3\n        /* \"#utility.yul\":4480:4517   */\n      mstore\n        /* \"#utility.yul\":4405:4523   */\n      pop\n      pop\n      jump\t// out\n        /* \"#utility.yul\":4529:4804   */\n    tag_40:\n        /* \"#utility.yul\":4661:4664   */\n      0x00\n        /* \"#utility.yul\":4683:4778   */\n      tag_179\n        /* \"#utility.yul\":4774:4777   */\n      dup3\n        /* \"#utility.yul\":4765:4771   */\n      dup5\n        /* \"#utility.yul\":4683:4778   */\n      tag_163\n      jump\t// in\n    tag_179:\n        /* \"#utility.yul\":4676:4778   */\n      swap2\n      pop\n        /* \"#utility.yul\":4795:4798   */\n      dup2\n        /* \"#utility.yul\":4788:4798   */\n      swap1\n      pop\n        /* \"#utility.yul\":4529:4804   */\n      swap3\n      swap2\n      pop\n      pop\n      jump\t// out\n        /* \"#utility.yul\":4810:5123   */\n    tag_13:\n        /* \"#utility.yul\":4923:4927   */\n      0x00\n        /* \"#utility.yul\":4961:4963   */\n      0x20\n        /* \"#utility.yul\":4950:4959   */\n      dup3\n        /* \"#utility.yul\":4946:4964   */\n      add\n        /* \"#utility.yul\":4938:4964   */\n      swap1\n      pop\n        /* \"#utility.yul\":5010:5019   */\n      dup2\n        /* \"#utility.yul\":5004:5008   */\n      dup2\n        /* \"#utility.yul\":5000:5020   */\n      sub\n        /* \"#utility.yul\":4996:4997   */\n      0x00\n        /* \"#utility.yul\":4985:4994   */\n      dup4\n        /* \"#utility.yul\":4981:4998   */\n      add\n        /* \"#utility.yul\":4974:5021   */\n      mstore\n        /* \"#utility.yul\":5038:5116   */\n      tag_181\n        /* \"#utility.yul\":5111:5115   */\n      dup2\n        /* \"#utility.yul\":5102:5108   */\n      dup5\n        /* \"#utility.yul\":5038:5116   */\n      tag_153\n      jump\t// in\n    tag_181:\n        /* \"#utility.yul\":5030:5116   */\n      swap1\n      pop\n        /* \"#utility.yul\":4810:5123   */\n      swap3\n      swap2\n      pop\n      pop\n      jump\t// out\n        /* \"#utility.yul\":5129:5753   */\n    tag_24:\n        /* \"#utility.yul\":5318:5322   */\n      0x00\n        /* \"#utility.yul\":5356:5358   */\n      0x60\n        /* \"#utility.yul\":5345:5354   */\n      dup3\n        /* \"#utility.yul\":5341:5359   */\n      add\n        /* \"#utility.yul\":5333:5359   */\n      swap1\n      pop\n        /* \"#utility.yul\":5405:5414   */\n      dup2\n        /* \"#utility.yul\":5399:5403   */\n      dup2\n        /* \"#utility.yul\":5395:5415   */\n      sub\n        /* \"#utility.yul\":5391:5392   */\n      0x00\n        /* \"#utility.yul\":5380:5389   */\n      dup4\n        /* \"#utility.yul\":5376:5393   */\n      add\n        /* \"#utility.yul\":5369:5416   */\n      mstore\n        /* \"#utility.yul\":5433:5511   */\n      tag_183\n        /* \"#utility.yul\":5506:5510   */\n      dup2\n        /* \"#utility.yul\":5497:5503   */\n      dup7\n        /* \"#utility.yul\":5433:5511   */\n      tag_153\n      jump\t// in\n    tag_183:\n        /* \"#utility.yul\":5425:5511   */\n      swap1\n      pop\n        /* \"#utility.yul\":5558:5567   */\n      dup2\n        /* \"#utility.yul\":5552:5556   */\n      dup2\n        /* \"#utility.yul\":5548:5568   */\n      sub\n        /* \"#utility.yul\":5543:5545   */\n      0x20\n        /* \"#utility.yul\":5532:5541   */\n      dup4\n        /* \"#utility.yul\":5528:5546   */\n      add\n        /* \"#utility.yul\":5521:5569   */\n      mstore\n        /* \"#utility.yul\":5586:5664   */\n      tag_184\n        /* \"#utility.yul\":5659:5663   */\n      dup2\n        /* \"#utility.yul\":5650:5656   */\n      dup6\n        /* \"#utility.yul\":5586:5664   */\n      tag_153\n      jump\t// in\n    tag_184:\n        /* \"#utility.yul\":5578:5664   */\n      swap1\n      pop\n        /* \"#utility.yul\":5674:5746   */\n      tag_185\n        /* \"#utility.yul\":5742:5744   */\n      0x40\n        /* \"#utility.yul\":5731:5740   */\n      dup4\n        /* \"#utility.yul\":5727:5745   */\n      add\n        /* \"#utility.yul\":5718:5724   */\n      dup5\n        /* \"#utility.yul\":5674:5746   */\n      tag_174\n      jump\t// in\n    tag_185:\n        /* \"#utility.yul\":5129:5753   */\n      swap5\n      swap4\n      pop\n      pop\n      pop\n      pop\n      jump\t// out\n        /* \"#utility.yul\":5759:6178   */\n    tag_37:\n        /* \"#utility.yul\":5925:5929   */\n      0x00\n        /* \"#utility.yul\":5963:5965   */\n      0x20\n        /* \"#utility.yul\":5952:5961   */\n      dup3\n        /* \"#utility.yul\":5948:5966   */\n      add\n        /* \"#utility.yul\":5940:5966   */\n      swap1\n      pop\n        /* \"#utility.yul\":6012:6021   */\n      dup2\n        /* \"#utility.yul\":6006:6010   */\n      dup2\n        /* \"#utility.yul\":6002:6022   */\n      sub\n        /* \"#utility.yul\":5998:5999   */\n      0x00\n        /* \"#utility.yul\":5987:5996   */\n      dup4\n        /* \"#utility.yul\":5983:6000   */\n      add\n        /* \"#utility.yul\":5976:6023   */\n      mstore\n        /* \"#utility.yul\":6040:6171   */\n      tag_187\n        /* \"#utility.yul\":6166:6170   */\n      dup2\n        /* \"#utility.yul\":6040:6171   */\n      tag_169\n      jump\t// in\n    tag_187:\n        /* \"#utility.yul\":6032:6171   */\n      swap1\n      pop\n        /* \"#utility.yul\":5759:6178   */\n      swap2\n      swap1\n      pop\n      jump\t// out\n        /* \"#utility.yul\":6184:6406   */\n    tag_33:\n        /* \"#utility.yul\":6277:6281   */\n      0x00\n        /* \"#utility.yul\":6315:6317   */\n      0x20\n        /* \"#utility.yul\":6304:6313   */\n      dup3\n        /* \"#utility.yul\":6300:6318   */\n      add\n        /* \"#utility.yul\":6292:6318   */\n      swap1\n      pop\n        /* \"#utility.yul\":6328:6399   */\n      tag_189\n        /* \"#utility.yul\":6396:6397   */\n      0x00\n        /* \"#utility.yul\":6385:6394   */\n      dup4\n        /* \"#utility.yul\":6381:6398   */\n      add\n        /* \"#utility.yul\":6372:6378   */\n      dup5\n        /* \"#utility.yul\":6328:6399   */\n      tag_174\n      jump\t// in\n    tag_189:\n        /* \"#utility.yul\":6184:6406   */\n      swap3\n      swap2\n      pop\n      pop\n      jump\t// out\n        /* \"#utility.yul\":6412:6541   */\n    tag_109:\n        /* \"#utility.yul\":6446:6452   */\n      0x00\n        /* \"#utility.yul\":6473:6493   */\n      tag_191\n      tag_192\n      jump\t// in\n    tag_191:\n        /* \"#utility.yul\":6463:6493   */\n      swap1\n      pop\n        /* \"#utility.yul\":6502:6535   */\n      tag_193\n        /* \"#utility.yul\":6530:6534   */\n      dup3\n        /* \"#utility.yul\":6522:6528   */\n      dup3\n        /* \"#utility.yul\":6502:6535   */\n      tag_194\n      jump\t// in\n    tag_193:\n        /* \"#utility.yul\":6412:6541   */\n      swap2\n      swap1\n      pop\n      jump\t// out\n        /* \"#utility.yul\":6547:6622   */\n    tag_192:\n        /* \"#utility.yul\":6580:6586   */\n      0x00\n        /* \"#utility.yul\":6613:6615   */\n      0x40\n        /* \"#utility.yul\":6607:6616   */\n      mload\n        /* \"#utility.yul\":6597:6616   */\n      swap1\n      pop\n        /* \"#utility.yul\":6547:6622   */\n      swap1\n      jump\t// out\n        /* \"#utility.yul\":6628:6936   */\n    tag_108:\n        /* \"#utility.yul\":6690:6694   */\n      0x00\n        /* \"#utility.yul\":6780:6798   */\n      0xffffffffffffffff\n        /* \"#utility.yul\":6772:6778   */\n      dup3\n        /* \"#utility.yul\":6769:6799   */\n      gt\n        /* \"#utility.yul\":6766:6822   */\n      iszero\n      tag_197\n      jumpi\n        /* \"#utility.yul\":6802:6820   */\n      tag_198\n      tag_199\n      jump\t// in\n    tag_198:\n        /* \"#utility.yul\":6766:6822   */\n    tag_197:\n        /* \"#utility.yul\":6840:6869   */\n      tag_200\n        /* \"#utility.yul\":6862:6868   */\n      dup3\n        /* \"#utility.yul\":6840:6869   */\n      tag_162\n      jump\t// in\n    tag_200:\n        /* \"#utility.yul\":6832:6869   */\n      swap1\n      pop\n        /* \"#utility.yul\":6924:6928   */\n      0x20\n        /* \"#utility.yul\":6918:6922   */\n      dup2\n        /* \"#utility.yul\":6914:6929   */\n      add\n        /* \"#utility.yul\":6906:6929   */\n      swap1\n      pop\n        /* \"#utility.yul\":6628:6936   */\n      swap2\n      swap1\n      pop\n      jump\t// out\n        /* \"#utility.yul\":6942:7041   */\n    tag_156:\n        /* \"#utility.yul\":6994:7000   */\n      0x00\n        /* \"#utility.yul\":7028:7033   */\n      dup2\n        /* \"#utility.yul\":7022:7034   */\n      mload\n        /* \"#utility.yul\":7012:7034   */\n      swap1\n      pop\n        /* \"#utility.yul\":6942:7041   */\n      swap2\n      swap1\n      pop\n      jump\t// out\n        /* \"#utility.yul\":7047:7216   */\n    tag_158:\n        /* \"#utility.yul\":7131:7142   */\n      0x00\n        /* \"#utility.yul\":7165:7171   */\n      dup3\n        /* \"#utility.yul\":7160:7163   */\n      dup3\n        /* \"#utility.yul\":7153:7172   */\n      mstore\n        /* \"#utility.yul\":7205:7209   */\n      0x20\n        /* \"#utility.yul\":7200:7203   */\n      dup3\n        /* \"#utility.yul\":7196:7210   */\n      add\n        /* \"#utility.yul\":7181:7210   */\n      swap1\n      pop\n        /* \"#utility.yul\":7047:7216   */\n      swap3\n      swap2\n      pop\n      pop\n      jump\t// out\n        /* \"#utility.yul\":7222:7370   */\n    tag_167:\n        /* \"#utility.yul\":7324:7335   */\n      0x00\n        /* \"#utility.yul\":7361:7364   */\n      dup2\n        /* \"#utility.yul\":7346:7364   */\n      swap1\n      pop\n        /* \"#utility.yul\":7222:7370   */\n      swap3\n      swap2\n      pop\n      pop\n      jump\t// out\n        /* \"#utility.yul\":7376:7681   */\n    tag_46:\n        /* \"#utility.yul\":7416:7419   */\n      0x00\n        /* \"#utility.yul\":7435:7455   */\n      tag_205\n        /* \"#utility.yul\":7453:7454   */\n      dup3\n        /* \"#utility.yul\":7435:7455   */\n      tag_177\n      jump\t// in\n    tag_205:\n        /* \"#utility.yul\":7430:7455   */\n      swap2\n      pop\n        /* \"#utility.yul\":7469:7489   */\n      tag_206\n        /* \"#utility.yul\":7487:7488   */\n      dup4\n        /* \"#utility.yul\":7469:7489   */\n      tag_177\n      jump\t// in\n    tag_206:\n        /* \"#utility.yul\":7464:7489   */\n      swap3\n      pop\n        /* \"#utility.yul\":7623:7624   */\n      dup3\n        /* \"#utility.yul\":7555:7621   */\n      0xffffffffffffffffffffffffffffffffffffffffffffffffffffffffffffffff\n        /* \"#utility.yul\":7551:7625   */\n      sub\n        /* \"#utility.yul\":7548:7549   */\n      dup3\n        /* \"#utility.yul\":7545:7626   */\n      gt\n        /* \"#utility.yul\":7542:7649   */\n      iszero\n      tag_207\n      jumpi\n        /* \"#utility.yul\":7629:7647   */\n      tag_208\n      tag_209\n      jump\t// in\n    tag_208:\n        /* \"#utility.yul\":7542:7649   */\n    tag_207:\n        /* \"#utility.yul\":7673:7674   */\n      dup3\n        /* \"#utility.yul\":7670:7671   */\n      dup3\n        /* \"#utility.yul\":7666:7675   */\n      add\n        /* \"#utility.yul\":7659:7675   */\n      swap1\n      pop\n        /* \"#utility.yul\":7376:7681   */\n      swap3\n      swap2\n      pop\n      pop\n      jump\t// out\n        /* \"#utility.yul\":7687:7764   */\n    tag_177:\n        /* \"#utility.yul\":7724:7731   */\n      0x00\n        /* \"#utility.yul\":7753:7758   */\n      dup2\n        /* \"#utility.yul\":7742:7758   */\n      swap1\n      pop\n        /* \"#utility.yul\":7687:7764   */\n      swap2\n      swap1\n      pop\n      jump\t// out\n        /* \"#utility.yul\":7770:7924   */\n    tag_114:\n        /* \"#utility.yul\":7854:7860   */\n      dup3\n        /* \"#utility.yul\":7849:7852   */\n      dup2\n        /* \"#utility.yul\":7844:7847   */\n      dup4\n        /* \"#utility.yul\":7831:7861   */\n      calldatacopy\n        /* \"#utility.yul\":7916:7917   */\n      0x00\n        /* \"#utility.yul\":7907:7913   */\n      dup4\n        /* \"#utility.yul\":7902:7905   */\n      dup4\n        /* \"#utility.yul\":7898:7914   */\n      add\n        /* \"#utility.yul\":7891:7918   */\n      mstore\n        /* \"#utility.yul\":7770:7924   */\n      pop\n      pop\n      pop\n      jump\t// out\n        /* \"#utility.yul\":7930:8237   */\n    tag_160:\n        /* \"#utility.yul\":7998:7999   */\n      0x00\n        /* \"#utility.yul\":8008:8121   */\n    tag_213:\n        /* \"#utility.yul\":8022:8028   */\n      dup4\n        /* \"#utility.yul\":8019:8020   */\n      dup2\n        /* \"#utility.yul\":8016:8029   */\n      lt\n        /* \"#utility.yul\":8008:8121   */\n      iszero\n      tag_215\n      jumpi\n        /* \"#utility.yul\":8107:8108   */\n      dup1\n        /* \"#utility.yul\":8102:8105   */\n      dup3\n        /* \"#utility.yul\":8098:8109   */\n      add\n        /* \"#utility.yul\":8092:8110   */\n      mload\n        /* \"#utility.yul\":8088:8089   */\n      dup2\n        /* \"#utility.yul\":8083:8086   */\n      dup5\n        /* \"#utility.yul\":8079:8090   */\n      add\n        /* \"#utility.yul\":8072:8111   */\n      mstore\n        /* \"#utility.yul\":8044:8046   */\n      0x20\n        /* \"#utility.yul\":8041:8042   */\n      dup2\n        /* \"#utility.yul\":8037:8047   */\n      add\n        /* \"#utility.yul\":8032:8047   */\n      swap1\n      pop\n        /* \"#utility.yul\":8008:8121   */\n      jump(tag_213)\n    tag_215:\n        /* \"#utility.yul\":8139:8145   */\n      dup4\n        /* \"#utility.yul\":8136:8137   */\n      dup2\n        /* \"#utility.yul\":8133:8146   */\n      gt\n        /* \"#utility.yul\":8130:8231   */\n      iszero\n      tag_216\n      jumpi\n        /* \"#utility.yul\":8219:8220   */\n      0x00\n        /* \"#utility.yul\":8210:8216   */\n      dup5\n        /* \"#utility.yul\":8205:8208   */\n      dup5\n        /* \"#utility.yul\":8201:8217   */\n      add\n        /* \"#utility.yul\":8194:8221   */\n      mstore\n        /* \"#utility.yul\":8130:8231   */\n    tag_216:\n        /* \"#utility.yul\":7979:8237   */\n      pop\n        /* \"#utility.yul\":7930:8237   */\n      pop\n      pop\n      pop\n      jump\t// out\n        /* \"#utility.yul\":8243:8563   */\n    tag_56:\n        /* \"#utility.yul\":8287:8293   */\n      0x00\n        /* \"#utility.yul\":8324:8325   */\n      0x02\n        /* \"#utility.yul\":8318:8322   */\n      dup3\n        /* \"#utility.yul\":8314:8326   */\n      div\n        /* \"#utility.yul\":8304:8326   */\n      swap1\n      pop\n        /* \"#utility.yul\":8371:8372   */\n      0x01\n        /* \"#utility.yul\":8365:8369   */\n      dup3\n        /* \"#utility.yul\":8361:8373   */\n      and\n        /* \"#utility.yul\":8392:8410   */\n      dup1\n        /* \"#utility.yul\":8382:8463   */\n      tag_218\n      jumpi\n        /* \"#utility.yul\":8448:8452   */\n      0x7f\n        /* \"#utility.yul\":8440:8446   */\n      dup3\n        /* \"#utility.yul\":8436:8453   */\n      and\n        /* \"#utility.yul\":8426:8453   */\n      swap2\n      pop\n        /* \"#utility.yul\":8382:8463   */\n    tag_218:\n        /* \"#utility.yul\":8510:8512   */\n      0x20\n        /* \"#utility.yul\":8502:8508   */\n      dup3\n        /* \"#utility.yul\":8499:8513   */\n      lt\n        /* \"#utility.yul\":8479:8497   */\n      dup2\n        /* \"#utility.yul\":8476:8514   */\n      eq\n        /* \"#utility.yul\":8473:8557   */\n      iszero\n      tag_219\n      jumpi\n        /* \"#utility.yul\":8529:8547   */\n      tag_220\n      tag_221\n      jump\t// in\n    tag_220:\n        /* \"#utility.yul\":8473:8557   */\n    tag_219:\n        /* \"#utility.yul\":8294:8563   */\n      pop\n        /* \"#utility.yul\":8243:8563   */\n      swap2\n      swap1\n      pop\n      jump\t// out\n        /* \"#utility.yul\":8569:8850   */\n    tag_194:\n        /* \"#utility.yul\":8652:8679   */\n      tag_223\n        /* \"#utility.yul\":8674:8678   */\n      dup3\n        /* \"#utility.yul\":8652:8679   */\n      tag_162\n      jump\t// in\n    tag_223:\n        /* \"#utility.yul\":8644:8650   */\n      dup2\n        /* \"#utility.yul\":8640:8680   */\n      add\n        /* \"#utility.yul\":8782:8788   */\n      dup2\n        /* \"#utility.yul\":8770:8780   */\n      dup2\n        /* \"#utility.yul\":8767:8789   */\n      lt\n        /* \"#utility.yul\":8746:8764   */\n      0xffffffffffffffff\n        /* \"#utility.yul\":8734:8744   */\n      dup3\n        /* \"#utility.yul\":8731:8765   */\n      gt\n        /* \"#utility.yul\":8728:8790   */\n      or\n        /* \"#utility.yul\":8725:8813   */\n      iszero\n      tag_224\n      jumpi\n        /* \"#utility.yul\":8793:8811   */\n      tag_225\n      tag_199\n      jump\t// in\n    tag_225:\n        /* \"#utility.yul\":8725:8813   */\n    tag_224:\n        /* \"#utility.yul\":8833:8843   */\n      dup1\n        /* \"#utility.yul\":8829:8831   */\n      0x40\n        /* \"#utility.yul\":8822:8844   */\n      mstore\n        /* \"#utility.yul\":8612:8850   */\n      pop\n        /* \"#utility.yul\":8569:8850   */\n      pop\n      pop\n      jump\t// out\n        /* \"#utility.yul\":8856:9089   */\n    tag_43:\n        /* \"#utility.yul\":8895:8898   */\n      0x00\n        /* \"#utility.yul\":8918:8942   */\n      tag_227\n        /* \"#utility.yul\":8936:8941   */\n      dup3\n        /* \"#utility.yul\":8918:8942   */\n      tag_177\n      jump\t// in\n    tag_227:\n        /* \"#utility.yul\":8909:8942   */\n      swap2\n      pop\n        /* \"#utility.yul\":8964:9030   */\n      0xffffffffffffffffffffffffffffffffffffffffffffffffffffffffffffffff\n        /* \"#utility.yul\":8957:8962   */\n      dup3\n        /* \"#utility.yul\":8954:9031   */\n      eq\n        /* \"#utility.yul\":8951:9054   */\n      iszero\n      tag_228\n      jumpi\n        /* \"#utility.yul\":9034:9052   */\n      tag_229\n      tag_209\n      jump\t// in\n    tag_229:\n        /* \"#utility.yul\":8951:9054   */\n    tag_228:\n        /* \"#utility.yul\":9081:9082   */\n      0x01\n        /* \"#utility.yul\":9074:9079   */\n      dup3\n        /* \"#utility.yul\":9070:9083   */\n      add\n        /* \"#utility.yul\":9063:9083   */\n      swap1\n      pop\n        /* \"#utility.yul\":8856:9089   */\n      swap2\n      swap1\n      pop\n      jump\t// out\n        /* \"#utility.yul\":9095:9275   */\n    tag_209:\n        /* \"#utility.yul\":9143:9220   */\n      0x4e487b7100000000000000000000000000000000000000000000000000000000\n        /* \"#utility.yul\":9140:9141   */\n      0x00\n        /* \"#utility.yul\":9133:9221   */\n      mstore\n        /* \"#utility.yul\":9240:9244   */\n      0x11\n        /* \"#utility.yul\":9237:9238   */\n      0x04\n        /* \"#utility.yul\":9230:9245   */\n      mstore\n        /* \"#utility.yul\":9264:9268   */\n      0x24\n        /* \"#utility.yul\":9261:9262   */\n      0x00\n        /* \"#utility.yul\":9254:9269   */\n      revert\n        /* \"#utility.yul\":9281:9461   */\n    tag_221:\n        /* \"#utility.yul\":9329:9406   */\n      0x4e487b7100000000000000000000000000000000000000000000000000000000\n        /* \"#utility.yul\":9326:9327   */\n      0x00\n        /* \"#utility.yul\":9319:9407   */\n      mstore\n        /* \"#utility.yul\":9426:9430   */\n      0x22\n        /* \"#utility.yul\":9423:9424   */\n      0x04\n        /* \"#utility.yul\":9416:9431   */\n      mstore\n        /* \"#utility.yul\":9450:9454   */\n      0x24\n        /* \"#utility.yul\":9447:9448   */\n      0x00\n        /* \"#utility.yul\":9440:9455   */\n      revert\n        /* \"#utility.yul\":9467:9647   */\n    tag_199:\n        /* \"#utility.yul\":9515:9592   */\n      0x4e487b7100000000000000000000000000000000000000000000000000000000\n        /* \"#utility.yul\":9512:9513   */\n      0x00\n        /* \"#utility.yul\":9505:9593   */\n      mstore\n        /* \"#utility.yul\":9612:9616   */\n      0x41\n        /* \"#utility.yul\":9609:9610   */\n      0x04\n        /* \"#utility.yul\":9602:9617   */\n      mstore\n        /* \"#utility.yul\":9636:9640   */\n      0x24\n        /* \"#utility.yul\":9633:9634   */\n      0x00\n        /* \"#utility.yul\":9626:9641   */\n      revert\n        /* \"#utility.yul\":9653:9770   */\n    tag_119:\n        /* \"#utility.yul\":9762:9763   */\n      0x00\n        /* \"#utility.yul\":9759:9760   */\n      dup1\n        /* \"#utility.yul\":9752:9764   */\n      revert\n        /* \"#utility.yul\":9776:9893   */\n    tag_112:\n        /* \"#utility.yul\":9885:9886   */\n      0x00\n        /* \"#utility.yul\":9882:9883   */\n      dup1\n        /* \"#utility.yul\":9875:9887   */\n      revert\n        /* \"#utility.yul\":9899:10016   */\n    tag_131:\n        /* \"#utility.yul\":10008:10009   */\n      0x00\n        /* \"#utility.yul\":10005:10006   */\n      dup1\n        /* \"#utility.yul\":9998:10010   */\n      revert\n        /* \"#utility.yul\":10022:10139   */\n    tag_128:\n        /* \"#utility.yul\":10131:10132   */\n      0x00\n        /* \"#utility.yul\":10128:10129   */\n      dup1\n        /* \"#utility.yul\":10121:10133   */\n      revert\n        /* \"#utility.yul\":10145:10247   */\n    tag_162:\n        /* \"#utility.yul\":10186:10192   */\n      0x00\n        /* \"#utility.yul\":10237:10239   */\n      0x1f\n        /* \"#utility.yul\":10233:10240   */\n      not\n        /* \"#utility.yul\":10228:10230   */\n      0x1f\n        /* \"#utility.yul\":10221:10226   */\n      dup4\n        /* \"#utility.yul\":10217:10231   */\n      add\n        /* \"#utility.yul\":10213:10241   */\n      and\n        /* \"#utility.yul\":10203:10241   */\n      swap1\n      pop\n        /* \"#utility.yul\":10145:10247   */\n      swap2\n      swap1\n      pop\n      jump\t// out\n        /* \"#utility.yul\":10253:10419   */\n    tag_173:\n        /* \"#utility.yul\":10393:10411   */\n      0x4163636573732069732044656e69656400000000000000000000000000000000\n        /* \"#utility.yul\":10389:10390   */\n      0x00\n        /* \"#utility.yul\":10381:10387   */\n      dup3\n        /* \"#utility.yul\":10377:10391   */\n      add\n        /* \"#utility.yul\":10370:10412   */\n      mstore\n        /* \"#utility.yul\":10253:10419   */\n      pop\n      jump\t// out\n        /* \"#utility.yul\":10425:10547   */\n    tag_124:\n        /* \"#utility.yul\":10498:10522   */\n      tag_240\n        /* \"#utility.yul\":10516:10521   */\n      dup2\n        /* \"#utility.yul\":10498:10522   */\n      tag_177\n      jump\t// in\n    tag_240:\n        /* \"#utility.yul\":10491:10496   */\n      dup2\n        /* \"#utility.yul\":10488:10523   */\n      eq\n        /* \"#utility.yul\":10478:10541   */\n      tag_241\n      jumpi\n        /* \"#utility.yul\":10537:10538   */\n      0x00\n        /* \"#utility.yul\":10534:10535   */\n      dup1\n        /* \"#utility.yul\":10527:10539   */\n      revert\n        /* \"#utility.yul\":10478:10541   */\n    tag_241:\n        /* \"#utility.yul\":10425:10547   */\n      pop\n      jump\t// out\n    stop\n    data_346ae9e229890c1b5467b3280ac50efb3a563831aa4e9bb9392fe53f7d7de7e2 596f752077696c6c20626520616464656420746f2063616e646964617465206c697374206f6e636520796f75206172652076616c696461746564206279207468652061646d696e\n\n    auxdata: 0xa2646970667358221220a605bac6fa99cb2cfcf425810008298e9da143dfe73bdf8bce18415bf7dffac364736f6c63430008070033\n}\n",
				"bytecode": {
					"linkReferences": {},
					"object": "608060405234801561001057600080fd5b5033600260006101000a81548173ffffffffffffffffffffffffffffffffffffffff021916908373ffffffffffffffffffffffffffffffffffffffff160217905550610f53806100616000396000f3fe608060405234801561001057600080fd5b50600436106100575760003560e01c80630fd94e641461005c57806317678bc31461008c5780633477ee2e146100bc578063a48bdb7c146100ee578063e96e5dc81461010c575b600080fd5b61007660048036038101906100719190610a3b565b61013c565b6040516100839190610b77565b60405180910390f35b6100a660048036038101906100a191906109c3565b6102f1565b6040516100b39190610b77565b60405180910390f35b6100d660048036038101906100d19190610a97565b610436565b6040516100e593929190610b99565b60405180910390f35b6100f6610570565b6040516101039190610b77565b60405180910390f35b6101266004803603810190610121919061097a565b610724565b6040516101339190610bfe565b60405180910390f35b6060600260009054906101000a900473ffffffffffffffffffffffffffffffffffffffff1673ffffffffffffffffffffffffffffffffffffffff163373ffffffffffffffffffffffffffffffffffffffff16146101ce576040517f08c379a00000000000000000000000000000000000000000000000000000000081526004016101c590610bde565b60405180910390fd5b600015156004846040516101e29190610b60565b908152602001604051809103902060010160009054906101000a900460ff1615151461020d57600080fd5b600080815461021b90610d9b565b9190508190555060405180604001604052808381526020016001151581525060048460405161024a9190610b60565b90815260200160405180910390206000820151816000015560208201518160010160006101000a81548160ff02191690831515021790555090505060016003600084815260200190815260200160002060020160008282546102ac9190610c96565b925050819055506040518060400160405280601b81526020017f596f752068617665207375636365737366756c6c7920766f7465640000000000815250905092915050565b6060600260009054906101000a900473ffffffffffffffffffffffffffffffffffffffff1673ffffffffffffffffffffffffffffffffffffffff163373ffffffffffffffffffffffffffffffffffffffff1614610383576040517f08c379a000000000000000000000000000000000000000000000000000000000815260040161037a90610bde565b60405180910390fd5b60006001600081548092919061039890610d9b565b919050559050604051806060016040528085815260200184815260200160008152506003600083815260200190815260200160002060008201518160000190805190602001906103e9929190610852565b506020820151816001019080519060200190610406929190610852565b5060408201518160020155905050604051806080016040528060478152602001610ed76047913991505092915050565b600360205280600052604060002060009150905080600001805461045990610d38565b80601f016020809104026020016040519081016040528092919081815260200182805461048590610d38565b80156104d25780601f106104a7576101008083540402835291602001916104d2565b820191906000526020600020905b8154815290600101906020018083116104b557829003601f168201915b5050505050908060010180546104e790610d38565b80601f016020809104026020016040519081016040528092919081815260200182805461051390610d38565b80156105605780601f1061053557610100808354040283529160200191610560565b820191906000526020600020905b81548152906001019060200180831161054357829003601f168201915b5050505050908060020154905083565b6060600260009054906101000a900473ffffffffffffffffffffffffffffffffffffffff1673ffffffffffffffffffffffffffffffffffffffff163373ffffffffffffffffffffffffffffffffffffffff1614610602576040517f08c379a00000000000000000000000000000000000000000000000000000000081526004016105f990610bde565b60405180910390fd5b600060036000808152602001908152602001600020600201549050600080600090505b60015481101561067d57600360008281526020019081526020016000206002015483101561066a57600360008281526020019081526020016000206002015492508091505b808061067590610d9b565b915050610625565b5060036000828152602001908152602001600020600001805461069f90610d38565b80601f01602080910402602001604051908101604052809291908181526020018280546106cb90610d38565b80156107185780601f106106ed57610100808354040283529160200191610718565b820191906000526020600020905b8154815290600101906020018083116106fb57829003601f168201915b50505050509250505090565b600080600090505b60015481101561084b57600060036000838152602001908152602001600020600001805461075990610d38565b80601f016020809104026020016040519081016040528092919081815260200182805461078590610d38565b80156107d25780601f106107a7576101008083540402835291602001916107d2565b820191906000526020600020905b8154815290600101906020018083116107b557829003601f168201915b50505050509050836040516020016107ea9190610b60565b60405160208183030381529060405280519060200120816040516020016108119190610b60565b60405160208183030381529060405280519060200120141561083757819250505061084d565b50808061084390610d9b565b91505061072c565b505b919050565b82805461085e90610d38565b90600052602060002090601f01602090048101928261088057600085556108c7565b82601f1061089957805160ff19168380011785556108c7565b828001600101855582156108c7579182015b828111156108c65782518255916020019190600101906108ab565b5b5090506108d491906108d8565b5090565b5b808211156108f15760008160009055506001016108d9565b5090565b600061090861090384610c3e565b610c19565b90508281526020810184848401111561092457610923610e76565b5b61092f848285610cf6565b509392505050565b600082601f83011261094c5761094b610e71565b5b813561095c8482602086016108f5565b91505092915050565b60008135905061097481610ebf565b92915050565b6000602082840312156109905761098f610e80565b5b600082013567ffffffffffffffff8111156109ae576109ad610e7b565b5b6109ba84828501610937565b91505092915050565b600080604083850312156109da576109d9610e80565b5b600083013567ffffffffffffffff8111156109f8576109f7610e7b565b5b610a0485828601610937565b925050602083013567ffffffffffffffff811115610a2557610a24610e7b565b5b610a3185828601610937565b9150509250929050565b60008060408385031215610a5257610a51610e80565b5b600083013567ffffffffffffffff811115610a7057610a6f610e7b565b5b610a7c85828601610937565b9250506020610a8d85828601610965565b9150509250929050565b600060208284031215610aad57610aac610e80565b5b6000610abb84828501610965565b91505092915050565b6000610acf82610c6f565b610ad98185610c7a565b9350610ae9818560208601610d05565b610af281610e85565b840191505092915050565b6000610b0882610c6f565b610b128185610c8b565b9350610b22818560208601610d05565b80840191505092915050565b6000610b3b601083610c7a565b9150610b4682610e96565b602082019050919050565b610b5a81610cec565b82525050565b6000610b6c8284610afd565b915081905092915050565b60006020820190508181036000830152610b918184610ac4565b905092915050565b60006060820190508181036000830152610bb38186610ac4565b90508181036020830152610bc78185610ac4565b9050610bd66040830184610b51565b949350505050565b60006020820190508181036000830152610bf781610b2e565b9050919050565b6000602082019050610c136000830184610b51565b92915050565b6000610c23610c34565b9050610c2f8282610d6a565b919050565b6000604051905090565b600067ffffffffffffffff821115610c5957610c58610e42565b5b610c6282610e85565b9050602081019050919050565b600081519050919050565b600082825260208201905092915050565b600081905092915050565b6000610ca182610cec565b9150610cac83610cec565b9250827fffffffffffffffffffffffffffffffffffffffffffffffffffffffffffffffff03821115610ce157610ce0610de4565b5b828201905092915050565b6000819050919050565b82818337600083830152505050565b60005b83811015610d23578082015181840152602081019050610d08565b83811115610d32576000848401525b50505050565b60006002820490506001821680610d5057607f821691505b60208210811415610d6457610d63610e13565b5b50919050565b610d7382610e85565b810181811067ffffffffffffffff82111715610d9257610d91610e42565b5b80604052505050565b6000610da682610cec565b91507fffffffffffffffffffffffffffffffffffffffffffffffffffffffffffffffff821415610dd957610dd8610de4565b5b600182019050919050565b7f4e487b7100000000000000000000000000000000000000000000000000000000600052601160045260246000fd5b7f4e487b7100000000000000000000000000000000000000000000000000000000600052602260045260246000fd5b7f4e487b7100000000000000000000000000000000000000000000000000000000600052604160045260246000fd5b600080fd5b600080fd5b600080fd5b600080fd5b6000601f19601f8301169050919050565b7f4163636573732069732044656e69656400000000000000000000000000000000600082015250565b610ec881610cec565b8114610ed357600080fd5b5056fe596f752077696c6c20626520616464656420746f2063616e646964617465206c697374206f6e636520796f75206172652076616c696461746564206279207468652061646d696ea2646970667358221220a605bac6fa99cb2cfcf425810008298e9da143dfe73bdf8bce18415bf7dffac364736f6c63430008070033",
					"opcodes": "PUSH1 0x80 PUSH1 0x40 MSTORE CALLVALUE DUP1 ISZERO PUSH2 0x10 JUMPI PUSH1 0x0 DUP1 REVERT JUMPDEST POP CALLER PUSH1 0x2 PUSH1 0x0 PUSH2 0x100 EXP DUP2 SLOAD DUP2 PUSH20 0xFFFFFFFFFFFFFFFFFFFFFFFFFFFFFFFFFFFFFFFF MUL NOT AND SWAP1 DUP4 PUSH20 0xFFFFFFFFFFFFFFFFFFFFFFFFFFFFFFFFFFFFFFFF AND MUL OR SWAP1 SSTORE POP PUSH2 0xF53 DUP1 PUSH2 0x61 PUSH1 0x0 CODECOPY PUSH1 0x0 RETURN INVALID PUSH1 0x80 PUSH1 0x40 MSTORE CALLVALUE DUP1 ISZERO PUSH2 0x10 JUMPI PUSH1 0x0 DUP1 REVERT JUMPDEST POP PUSH1 0x4 CALLDATASIZE LT PUSH2 0x57 JUMPI PUSH1 0x0 CALLDATALOAD PUSH1 0xE0 SHR DUP1 PUSH4 0xFD94E64 EQ PUSH2 0x5C JUMPI DUP1 PUSH4 0x17678BC3 EQ PUSH2 0x8C JUMPI DUP1 PUSH4 0x3477EE2E EQ PUSH2 0xBC JUMPI DUP1 PUSH4 0xA48BDB7C EQ PUSH2 0xEE JUMPI DUP1 PUSH4 0xE96E5DC8 EQ PUSH2 0x10C JUMPI JUMPDEST PUSH1 0x0 DUP1 REVERT JUMPDEST PUSH2 0x76 PUSH1 0x4 DUP1 CALLDATASIZE SUB DUP2 ADD SWAP1 PUSH2 0x71 SWAP2 SWAP1 PUSH2 0xA3B JUMP JUMPDEST PUSH2 0x13C JUMP JUMPDEST PUSH1 0x40 MLOAD PUSH2 0x83 SWAP2 SWAP1 PUSH2 0xB77 JUMP JUMPDEST PUSH1 0x40 MLOAD DUP1 SWAP2 SUB SWAP1 RETURN JUMPDEST PUSH2 0xA6 PUSH1 0x4 DUP1 CALLDATASIZE SUB DUP2 ADD SWAP1 PUSH2 0xA1 SWAP2 SWAP1 PUSH2 0x9C3 JUMP JUMPDEST PUSH2 0x2F1 JUMP JUMPDEST PUSH1 0x40 MLOAD PUSH2 0xB3 SWAP2 SWAP1 PUSH2 0xB77 JUMP JUMPDEST PUSH1 0x40 MLOAD DUP1 SWAP2 SUB SWAP1 RETURN JUMPDEST PUSH2 0xD6 PUSH1 0x4 DUP1 CALLDATASIZE SUB DUP2 ADD SWAP1 PUSH2 0xD1 SWAP2 SWAP1 PUSH2 0xA97 JUMP JUMPDEST PUSH2 0x436 JUMP JUMPDEST PUSH1 0x40 MLOAD PUSH2 0xE5 SWAP4 SWAP3 SWAP2 SWAP1 PUSH2 0xB99 JUMP JUMPDEST PUSH1 0x40 MLOAD DUP1 SWAP2 SUB SWAP1 RETURN JUMPDEST PUSH2 0xF6 PUSH2 0x570 JUMP JUMPDEST PUSH1 0x40 MLOAD PUSH2 0x103 SWAP2 SWAP1 PUSH2 0xB77 JUMP JUMPDEST PUSH1 0x40 MLOAD DUP1 SWAP2 SUB SWAP1 RETURN JUMPDEST PUSH2 0x126 PUSH1 0x4 DUP1 CALLDATASIZE SUB DUP2 ADD SWAP1 PUSH2 0x121 SWAP2 SWAP1 PUSH2 0x97A JUMP JUMPDEST PUSH2 0x724 JUMP JUMPDEST PUSH1 0x40 MLOAD PUSH2 0x133 SWAP2 SWAP1 PUSH2 0xBFE JUMP JUMPDEST PUSH1 0x40 MLOAD DUP1 SWAP2 SUB SWAP1 RETURN JUMPDEST PUSH1 0x60 PUSH1 0x2 PUSH1 0x0 SWAP1 SLOAD SWAP1 PUSH2 0x100 EXP SWAP1 DIV PUSH20 0xFFFFFFFFFFFFFFFFFFFFFFFFFFFFFFFFFFFFFFFF AND PUSH20 0xFFFFFFFFFFFFFFFFFFFFFFFFFFFFFFFFFFFFFFFF AND CALLER PUSH20 0xFFFFFFFFFFFFFFFFFFFFFFFFFFFFFFFFFFFFFFFF AND EQ PUSH2 0x1CE JUMPI PUSH1 0x40 MLOAD PUSH32 0x8C379A000000000000000000000000000000000000000000000000000000000 DUP2 MSTORE PUSH1 0x4 ADD PUSH2 0x1C5 SWAP1 PUSH2 0xBDE JUMP JUMPDEST PUSH1 0x40 MLOAD DUP1 SWAP2 SUB SWAP1 REVERT JUMPDEST PUSH1 0x0 ISZERO ISZERO PUSH1 0x4 DUP5 PUSH1 0x40 MLOAD PUSH2 0x1E2 SWAP2 SWAP1 PUSH2 0xB60 JUMP JUMPDEST SWAP1 DUP2 MSTORE PUSH1 0x20 ADD PUSH1 0x40 MLOAD DUP1 SWAP2 SUB SWAP1 KECCAK256 PUSH1 0x1 ADD PUSH1 0x0 SWAP1 SLOAD SWAP1 PUSH2 0x100 EXP SWAP1 DIV PUSH1 0xFF AND ISZERO ISZERO EQ PUSH2 0x20D JUMPI PUSH1 0x0 DUP1 REVERT JUMPDEST PUSH1 0x0 DUP1 DUP2 SLOAD PUSH2 0x21B SWAP1 PUSH2 0xD9B JUMP JUMPDEST SWAP2 SWAP1 POP DUP2 SWAP1 SSTORE POP PUSH1 0x40 MLOAD DUP1 PUSH1 0x40 ADD PUSH1 0x40 MSTORE DUP1 DUP4 DUP2 MSTORE PUSH1 0x20 ADD PUSH1 0x1 ISZERO ISZERO DUP2 MSTORE POP PUSH1 0x4 DUP5 PUSH1 0x40 MLOAD PUSH2 0x24A SWAP2 SWAP1 PUSH2 0xB60 JUMP JUMPDEST SWAP1 DUP2 MSTORE PUSH1 0x20 ADD PUSH1 0x40 MLOAD DUP1 SWAP2 SUB SWAP1 KECCAK256 PUSH1 0x0 DUP3 ADD MLOAD DUP2 PUSH1 0x0 ADD SSTORE PUSH1 0x20 DUP3 ADD MLOAD DUP2 PUSH1 0x1 ADD PUSH1 0x0 PUSH2 0x100 EXP DUP2 SLOAD DUP2 PUSH1 0xFF MUL NOT AND SWAP1 DUP4 ISZERO ISZERO MUL OR SWAP1 SSTORE POP SWAP1 POP POP PUSH1 0x1 PUSH1 0x3 PUSH1 0x0 DUP5 DUP2 MSTORE PUSH1 0x20 ADD SWAP1 DUP2 MSTORE PUSH1 0x20 ADD PUSH1 0x0 KECCAK256 PUSH1 0x2 ADD PUSH1 0x0 DUP3 DUP3 SLOAD PUSH2 0x2AC SWAP2 SWAP1 PUSH2 0xC96 JUMP JUMPDEST SWAP3 POP POP DUP2 SWAP1 SSTORE POP PUSH1 0x40 MLOAD DUP1 PUSH1 0x40 ADD PUSH1 0x40 MSTORE DUP1 PUSH1 0x1B DUP2 MSTORE PUSH1 0x20 ADD PUSH32 0x596F752068617665207375636365737366756C6C7920766F7465640000000000 DUP2 MSTORE POP SWAP1 POP SWAP3 SWAP2 POP POP JUMP JUMPDEST PUSH1 0x60 PUSH1 0x2 PUSH1 0x0 SWAP1 SLOAD SWAP1 PUSH2 0x100 EXP SWAP1 DIV PUSH20 0xFFFFFFFFFFFFFFFFFFFFFFFFFFFFFFFFFFFFFFFF AND PUSH20 0xFFFFFFFFFFFFFFFFFFFFFFFFFFFFFFFFFFFFFFFF AND CALLER PUSH20 0xFFFFFFFFFFFFFFFFFFFFFFFFFFFFFFFFFFFFFFFF AND EQ PUSH2 0x383 JUMPI PUSH1 0x40 MLOAD PUSH32 0x8C379A000000000000000000000000000000000000000000000000000000000 DUP2 MSTORE PUSH1 0x4 ADD PUSH2 0x37A SWAP1 PUSH2 0xBDE JUMP JUMPDEST PUSH1 0x40 MLOAD DUP1 SWAP2 SUB SWAP1 REVERT JUMPDEST PUSH1 0x0 PUSH1 0x1 PUSH1 0x0 DUP2 SLOAD DUP1 SWAP3 SWAP2 SWAP1 PUSH2 0x398 SWAP1 PUSH2 0xD9B JUMP JUMPDEST SWAP2 SWAP1 POP SSTORE SWAP1 POP PUSH1 0x40 MLOAD DUP1 PUSH1 0x60 ADD PUSH1 0x40 MSTORE DUP1 DUP6 DUP2 MSTORE PUSH1 0x20 ADD DUP5 DUP2 MSTORE PUSH1 0x20 ADD PUSH1 0x0 DUP2 MSTORE POP PUSH1 0x3 PUSH1 0x0 DUP4 DUP2 MSTORE PUSH1 0x20 ADD SWAP1 DUP2 MSTORE PUSH1 0x20 ADD PUSH1 0x0 KECCAK256 PUSH1 0x0 DUP3 ADD MLOAD DUP2 PUSH1 0x0 ADD SWAP1 DUP1 MLOAD SWAP1 PUSH1 0x20 ADD SWAP1 PUSH2 0x3E9 SWAP3 SWAP2 SWAP1 PUSH2 0x852 JUMP JUMPDEST POP PUSH1 0x20 DUP3 ADD MLOAD DUP2 PUSH1 0x1 ADD SWAP1 DUP1 MLOAD SWAP1 PUSH1 0x20 ADD SWAP1 PUSH2 0x406 SWAP3 SWAP2 SWAP1 PUSH2 0x852 JUMP JUMPDEST POP PUSH1 0x40 DUP3 ADD MLOAD DUP2 PUSH1 0x2 ADD SSTORE SWAP1 POP POP PUSH1 0x40 MLOAD DUP1 PUSH1 0x80 ADD PUSH1 0x40 MSTORE DUP1 PUSH1 0x47 DUP2 MSTORE PUSH1 0x20 ADD PUSH2 0xED7 PUSH1 0x47 SWAP2 CODECOPY SWAP2 POP POP SWAP3 SWAP2 POP POP JUMP JUMPDEST PUSH1 0x3 PUSH1 0x20 MSTORE DUP1 PUSH1 0x0 MSTORE PUSH1 0x40 PUSH1 0x0 KECCAK256 PUSH1 0x0 SWAP2 POP SWAP1 POP DUP1 PUSH1 0x0 ADD DUP1 SLOAD PUSH2 0x459 SWAP1 PUSH2 0xD38 JUMP JUMPDEST DUP1 PUSH1 0x1F ADD PUSH1 0x20 DUP1 SWAP2 DIV MUL PUSH1 0x20 ADD PUSH1 0x40 MLOAD SWAP1 DUP2 ADD PUSH1 0x40 MSTORE DUP1 SWAP3 SWAP2 SWAP1 DUP2 DUP2 MSTORE PUSH1 0x20 ADD DUP3 DUP1 SLOAD PUSH2 0x485 SWAP1 PUSH2 0xD38 JUMP JUMPDEST DUP1 ISZERO PUSH2 0x4D2 JUMPI DUP1 PUSH1 0x1F LT PUSH2 0x4A7 JUMPI PUSH2 0x100 DUP1 DUP4 SLOAD DIV MUL DUP4 MSTORE SWAP2 PUSH1 0x20 ADD SWAP2 PUSH2 0x4D2 JUMP JUMPDEST DUP3 ADD SWAP2 SWAP1 PUSH1 0x0 MSTORE PUSH1 0x20 PUSH1 0x0 KECCAK256 SWAP1 JUMPDEST DUP2 SLOAD DUP2 MSTORE SWAP1 PUSH1 0x1 ADD SWAP1 PUSH1 0x20 ADD DUP1 DUP4 GT PUSH2 0x4B5 JUMPI DUP3 SWAP1 SUB PUSH1 0x1F AND DUP3 ADD SWAP2 JUMPDEST POP POP POP POP POP SWAP1 DUP1 PUSH1 0x1 ADD DUP1 SLOAD PUSH2 0x4E7 SWAP1 PUSH2 0xD38 JUMP JUMPDEST DUP1 PUSH1 0x1F ADD PUSH1 0x20 DUP1 SWAP2 DIV MUL PUSH1 0x20 ADD PUSH1 0x40 MLOAD SWAP1 DUP2 ADD PUSH1 0x40 MSTORE DUP1 SWAP3 SWAP2 SWAP1 DUP2 DUP2 MSTORE PUSH1 0x20 ADD DUP3 DUP1 SLOAD PUSH2 0x513 SWAP1 PUSH2 0xD38 JUMP JUMPDEST DUP1 ISZERO PUSH2 0x560 JUMPI DUP1 PUSH1 0x1F LT PUSH2 0x535 JUMPI PUSH2 0x100 DUP1 DUP4 SLOAD DIV MUL DUP4 MSTORE SWAP2 PUSH1 0x20 ADD SWAP2 PUSH2 0x560 JUMP JUMPDEST DUP3 ADD SWAP2 SWAP1 PUSH1 0x0 MSTORE PUSH1 0x20 PUSH1 0x0 KECCAK256 SWAP1 JUMPDEST DUP2 SLOAD DUP2 MSTORE SWAP1 PUSH1 0x1 ADD SWAP1 PUSH1 0x20 ADD DUP1 DUP4 GT PUSH2 0x543 JUMPI DUP3 SWAP1 SUB PUSH1 0x1F AND DUP3 ADD SWAP2 JUMPDEST POP POP POP POP POP SWAP1 DUP1 PUSH1 0x2 ADD SLOAD SWAP1 POP DUP4 JUMP JUMPDEST PUSH1 0x60 PUSH1 0x2 PUSH1 0x0 SWAP1 SLOAD SWAP1 PUSH2 0x100 EXP SWAP1 DIV PUSH20 0xFFFFFFFFFFFFFFFFFFFFFFFFFFFFFFFFFFFFFFFF AND PUSH20 0xFFFFFFFFFFFFFFFFFFFFFFFFFFFFFFFFFFFFFFFF AND CALLER PUSH20 0xFFFFFFFFFFFFFFFFFFFFFFFFFFFFFFFFFFFFFFFF AND EQ PUSH2 0x602 JUMPI PUSH1 0x40 MLOAD PUSH32 0x8C379A000000000000000000000000000000000000000000000000000000000 DUP2 MSTORE PUSH1 0x4 ADD PUSH2 0x5F9 SWAP1 PUSH2 0xBDE JUMP JUMPDEST PUSH1 0x40 MLOAD DUP1 SWAP2 SUB SWAP1 REVERT JUMPDEST PUSH1 0x0 PUSH1 0x3 PUSH1 0x0 DUP1 DUP2 MSTORE PUSH1 0x20 ADD SWAP1 DUP2 MSTORE PUSH1 0x20 ADD PUSH1 0x0 KECCAK256 PUSH1 0x2 ADD SLOAD SWAP1 POP PUSH1 0x0 DUP1 PUSH1 0x0 SWAP1 POP JUMPDEST PUSH1 0x1 SLOAD DUP2 LT ISZERO PUSH2 0x67D JUMPI PUSH1 0x3 PUSH1 0x0 DUP3 DUP2 MSTORE PUSH1 0x20 ADD SWAP1 DUP2 MSTORE PUSH1 0x20 ADD PUSH1 0x0 KECCAK256 PUSH1 0x2 ADD SLOAD DUP4 LT ISZERO PUSH2 0x66A JUMPI PUSH1 0x3 PUSH1 0x0 DUP3 DUP2 MSTORE PUSH1 0x20 ADD SWAP1 DUP2 MSTORE PUSH1 0x20 ADD PUSH1 0x0 KECCAK256 PUSH1 0x2 ADD SLOAD SWAP3 POP DUP1 SWAP2 POP JUMPDEST DUP1 DUP1 PUSH2 0x675 SWAP1 PUSH2 0xD9B JUMP JUMPDEST SWAP2 POP POP PUSH2 0x625 JUMP JUMPDEST POP PUSH1 0x3 PUSH1 0x0 DUP3 DUP2 MSTORE PUSH1 0x20 ADD SWAP1 DUP2 MSTORE PUSH1 0x20 ADD PUSH1 0x0 KECCAK256 PUSH1 0x0 ADD DUP1 SLOAD PUSH2 0x69F SWAP1 PUSH2 0xD38 JUMP JUMPDEST DUP1 PUSH1 0x1F ADD PUSH1 0x20 DUP1 SWAP2 DIV MUL PUSH1 0x20 ADD PUSH1 0x40 MLOAD SWAP1 DUP2 ADD PUSH1 0x40 MSTORE DUP1 SWAP3 SWAP2 SWAP1 DUP2 DUP2 MSTORE PUSH1 0x20 ADD DUP3 DUP1 SLOAD PUSH2 0x6CB SWAP1 PUSH2 0xD38 JUMP JUMPDEST DUP1 ISZERO PUSH2 0x718 JUMPI DUP1 PUSH1 0x1F LT PUSH2 0x6ED JUMPI PUSH2 0x100 DUP1 DUP4 SLOAD DIV MUL DUP4 MSTORE SWAP2 PUSH1 0x20 ADD SWAP2 PUSH2 0x718 JUMP JUMPDEST DUP3 ADD SWAP2 SWAP1 PUSH1 0x0 MSTORE PUSH1 0x20 PUSH1 0x0 KECCAK256 SWAP1 JUMPDEST DUP2 SLOAD DUP2 MSTORE SWAP1 PUSH1 0x1 ADD SWAP1 PUSH1 0x20 ADD DUP1 DUP4 GT PUSH2 0x6FB JUMPI DUP3 SWAP1 SUB PUSH1 0x1F AND DUP3 ADD SWAP2 JUMPDEST POP POP POP POP POP SWAP3 POP POP POP SWAP1 JUMP JUMPDEST PUSH1 0x0 DUP1 PUSH1 0x0 SWAP1 POP JUMPDEST PUSH1 0x1 SLOAD DUP2 LT ISZERO PUSH2 0x84B JUMPI PUSH1 0x0 PUSH1 0x3 PUSH1 0x0 DUP4 DUP2 MSTORE PUSH1 0x20 ADD SWAP1 DUP2 MSTORE PUSH1 0x20 ADD PUSH1 0x0 KECCAK256 PUSH1 0x0 ADD DUP1 SLOAD PUSH2 0x759 SWAP1 PUSH2 0xD38 JUMP JUMPDEST DUP1 PUSH1 0x1F ADD PUSH1 0x20 DUP1 SWAP2 DIV MUL PUSH1 0x20 ADD PUSH1 0x40 MLOAD SWAP1 DUP2 ADD PUSH1 0x40 MSTORE DUP1 SWAP3 SWAP2 SWAP1 DUP2 DUP2 MSTORE PUSH1 0x20 ADD DUP3 DUP1 SLOAD PUSH2 0x785 SWAP1 PUSH2 0xD38 JUMP JUMPDEST DUP1 ISZERO PUSH2 0x7D2 JUMPI DUP1 PUSH1 0x1F LT PUSH2 0x7A7 JUMPI PUSH2 0x100 DUP1 DUP4 SLOAD DIV MUL DUP4 MSTORE SWAP2 PUSH1 0x20 ADD SWAP2 PUSH2 0x7D2 JUMP JUMPDEST DUP3 ADD SWAP2 SWAP1 PUSH1 0x0 MSTORE PUSH1 0x20 PUSH1 0x0 KECCAK256 SWAP1 JUMPDEST DUP2 SLOAD DUP2 MSTORE SWAP1 PUSH1 0x1 ADD SWAP1 PUSH1 0x20 ADD DUP1 DUP4 GT PUSH2 0x7B5 JUMPI DUP3 SWAP1 SUB PUSH1 0x1F AND DUP3 ADD SWAP2 JUMPDEST POP POP POP POP POP SWAP1 POP DUP4 PUSH1 0x40 MLOAD PUSH1 0x20 ADD PUSH2 0x7EA SWAP2 SWAP1 PUSH2 0xB60 JUMP JUMPDEST PUSH1 0x40 MLOAD PUSH1 0x20 DUP2 DUP4 SUB SUB DUP2 MSTORE SWAP1 PUSH1 0x40 MSTORE DUP1 MLOAD SWAP1 PUSH1 0x20 ADD KECCAK256 DUP2 PUSH1 0x40 MLOAD PUSH1 0x20 ADD PUSH2 0x811 SWAP2 SWAP1 PUSH2 0xB60 JUMP JUMPDEST PUSH1 0x40 MLOAD PUSH1 0x20 DUP2 DUP4 SUB SUB DUP2 MSTORE SWAP1 PUSH1 0x40 MSTORE DUP1 MLOAD SWAP1 PUSH1 0x20 ADD KECCAK256 EQ ISZERO PUSH2 0x837 JUMPI DUP2 SWAP3 POP POP POP PUSH2 0x84D JUMP JUMPDEST POP DUP1 DUP1 PUSH2 0x843 SWAP1 PUSH2 0xD9B JUMP JUMPDEST SWAP2 POP POP PUSH2 0x72C JUMP JUMPDEST POP JUMPDEST SWAP2 SWAP1 POP JUMP JUMPDEST DUP3 DUP1 SLOAD PUSH2 0x85E SWAP1 PUSH2 0xD38 JUMP JUMPDEST SWAP1 PUSH1 0x0 MSTORE PUSH1 0x20 PUSH1 0x0 KECCAK256 SWAP1 PUSH1 0x1F ADD PUSH1 0x20 SWAP1 DIV DUP2 ADD SWAP3 DUP3 PUSH2 0x880 JUMPI PUSH1 0x0 DUP6 SSTORE PUSH2 0x8C7 JUMP JUMPDEST DUP3 PUSH1 0x1F LT PUSH2 0x899 JUMPI DUP1 MLOAD PUSH1 0xFF NOT AND DUP4 DUP1 ADD OR DUP6 SSTORE PUSH2 0x8C7 JUMP JUMPDEST DUP3 DUP1 ADD PUSH1 0x1 ADD DUP6 SSTORE DUP3 ISZERO PUSH2 0x8C7 JUMPI SWAP2 DUP3 ADD JUMPDEST DUP3 DUP2 GT ISZERO PUSH2 0x8C6 JUMPI DUP3 MLOAD DUP3 SSTORE SWAP2 PUSH1 0x20 ADD SWAP2 SWAP1 PUSH1 0x1 ADD SWAP1 PUSH2 0x8AB JUMP JUMPDEST JUMPDEST POP SWAP1 POP PUSH2 0x8D4 SWAP2 SWAP1 PUSH2 0x8D8 JUMP JUMPDEST POP SWAP1 JUMP JUMPDEST JUMPDEST DUP1 DUP3 GT ISZERO PUSH2 0x8F1 JUMPI PUSH1 0x0 DUP2 PUSH1 0x0 SWAP1 SSTORE POP PUSH1 0x1 ADD PUSH2 0x8D9 JUMP JUMPDEST POP SWAP1 JUMP JUMPDEST PUSH1 0x0 PUSH2 0x908 PUSH2 0x903 DUP5 PUSH2 0xC3E JUMP JUMPDEST PUSH2 0xC19 JUMP JUMPDEST SWAP1 POP DUP3 DUP2 MSTORE PUSH1 0x20 DUP2 ADD DUP5 DUP5 DUP5 ADD GT ISZERO PUSH2 0x924 JUMPI PUSH2 0x923 PUSH2 0xE76 JUMP JUMPDEST JUMPDEST PUSH2 0x92F DUP5 DUP3 DUP6 PUSH2 0xCF6 JUMP JUMPDEST POP SWAP4 SWAP3 POP POP POP JUMP JUMPDEST PUSH1 0x0 DUP3 PUSH1 0x1F DUP4 ADD SLT PUSH2 0x94C JUMPI PUSH2 0x94B PUSH2 0xE71 JUMP JUMPDEST JUMPDEST DUP2 CALLDATALOAD PUSH2 0x95C DUP5 DUP3 PUSH1 0x20 DUP7 ADD PUSH2 0x8F5 JUMP JUMPDEST SWAP2 POP POP SWAP3 SWAP2 POP POP JUMP JUMPDEST PUSH1 0x0 DUP2 CALLDATALOAD SWAP1 POP PUSH2 0x974 DUP2 PUSH2 0xEBF JUMP JUMPDEST SWAP3 SWAP2 POP POP JUMP JUMPDEST PUSH1 0x0 PUSH1 0x20 DUP3 DUP5 SUB SLT ISZERO PUSH2 0x990 JUMPI PUSH2 0x98F PUSH2 0xE80 JUMP JUMPDEST JUMPDEST PUSH1 0x0 DUP3 ADD CALLDATALOAD PUSH8 0xFFFFFFFFFFFFFFFF DUP2 GT ISZERO PUSH2 0x9AE JUMPI PUSH2 0x9AD PUSH2 0xE7B JUMP JUMPDEST JUMPDEST PUSH2 0x9BA DUP5 DUP3 DUP6 ADD PUSH2 0x937 JUMP JUMPDEST SWAP2 POP POP SWAP3 SWAP2 POP POP JUMP JUMPDEST PUSH1 0x0 DUP1 PUSH1 0x40 DUP4 DUP6 SUB SLT ISZERO PUSH2 0x9DA JUMPI PUSH2 0x9D9 PUSH2 0xE80 JUMP JUMPDEST JUMPDEST PUSH1 0x0 DUP4 ADD CALLDATALOAD PUSH8 0xFFFFFFFFFFFFFFFF DUP2 GT ISZERO PUSH2 0x9F8 JUMPI PUSH2 0x9F7 PUSH2 0xE7B JUMP JUMPDEST JUMPDEST PUSH2 0xA04 DUP6 DUP3 DUP7 ADD PUSH2 0x937 JUMP JUMPDEST SWAP3 POP POP PUSH1 0x20 DUP4 ADD CALLDATALOAD PUSH8 0xFFFFFFFFFFFFFFFF DUP2 GT ISZERO PUSH2 0xA25 JUMPI PUSH2 0xA24 PUSH2 0xE7B JUMP JUMPDEST JUMPDEST PUSH2 0xA31 DUP6 DUP3 DUP7 ADD PUSH2 0x937 JUMP JUMPDEST SWAP2 POP POP SWAP3 POP SWAP3 SWAP1 POP JUMP JUMPDEST PUSH1 0x0 DUP1 PUSH1 0x40 DUP4 DUP6 SUB SLT ISZERO PUSH2 0xA52 JUMPI PUSH2 0xA51 PUSH2 0xE80 JUMP JUMPDEST JUMPDEST PUSH1 0x0 DUP4 ADD CALLDATALOAD PUSH8 0xFFFFFFFFFFFFFFFF DUP2 GT ISZERO PUSH2 0xA70 JUMPI PUSH2 0xA6F PUSH2 0xE7B JUMP JUMPDEST JUMPDEST PUSH2 0xA7C DUP6 DUP3 DUP7 ADD PUSH2 0x937 JUMP JUMPDEST SWAP3 POP POP PUSH1 0x20 PUSH2 0xA8D DUP6 DUP3 DUP7 ADD PUSH2 0x965 JUMP JUMPDEST SWAP2 POP POP SWAP3 POP SWAP3 SWAP1 POP JUMP JUMPDEST PUSH1 0x0 PUSH1 0x20 DUP3 DUP5 SUB SLT ISZERO PUSH2 0xAAD JUMPI PUSH2 0xAAC PUSH2 0xE80 JUMP JUMPDEST JUMPDEST PUSH1 0x0 PUSH2 0xABB DUP5 DUP3 DUP6 ADD PUSH2 0x965 JUMP JUMPDEST SWAP2 POP POP SWAP3 SWAP2 POP POP JUMP JUMPDEST PUSH1 0x0 PUSH2 0xACF DUP3 PUSH2 0xC6F JUMP JUMPDEST PUSH2 0xAD9 DUP2 DUP6 PUSH2 0xC7A JUMP JUMPDEST SWAP4 POP PUSH2 0xAE9 DUP2 DUP6 PUSH1 0x20 DUP7 ADD PUSH2 0xD05 JUMP JUMPDEST PUSH2 0xAF2 DUP2 PUSH2 0xE85 JUMP JUMPDEST DUP5 ADD SWAP2 POP POP SWAP3 SWAP2 POP POP JUMP JUMPDEST PUSH1 0x0 PUSH2 0xB08 DUP3 PUSH2 0xC6F JUMP JUMPDEST PUSH2 0xB12 DUP2 DUP6 PUSH2 0xC8B JUMP JUMPDEST SWAP4 POP PUSH2 0xB22 DUP2 DUP6 PUSH1 0x20 DUP7 ADD PUSH2 0xD05 JUMP JUMPDEST DUP1 DUP5 ADD SWAP2 POP POP SWAP3 SWAP2 POP POP JUMP JUMPDEST PUSH1 0x0 PUSH2 0xB3B PUSH1 0x10 DUP4 PUSH2 0xC7A JUMP JUMPDEST SWAP2 POP PUSH2 0xB46 DUP3 PUSH2 0xE96 JUMP JUMPDEST PUSH1 0x20 DUP3 ADD SWAP1 POP SWAP2 SWAP1 POP JUMP JUMPDEST PUSH2 0xB5A DUP2 PUSH2 0xCEC JUMP JUMPDEST DUP3 MSTORE POP POP JUMP JUMPDEST PUSH1 0x0 PUSH2 0xB6C DUP3 DUP5 PUSH2 0xAFD JUMP JUMPDEST SWAP2 POP DUP2 SWAP1 POP SWAP3 SWAP2 POP POP JUMP JUMPDEST PUSH1 0x0 PUSH1 0x20 DUP3 ADD SWAP1 POP DUP2 DUP2 SUB PUSH1 0x0 DUP4 ADD MSTORE PUSH2 0xB91 DUP2 DUP5 PUSH2 0xAC4 JUMP JUMPDEST SWAP1 POP SWAP3 SWAP2 POP POP JUMP JUMPDEST PUSH1 0x0 PUSH1 0x60 DUP3 ADD SWAP1 POP DUP2 DUP2 SUB PUSH1 0x0 DUP4 ADD MSTORE PUSH2 0xBB3 DUP2 DUP7 PUSH2 0xAC4 JUMP JUMPDEST SWAP1 POP DUP2 DUP2 SUB PUSH1 0x20 DUP4 ADD MSTORE PUSH2 0xBC7 DUP2 DUP6 PUSH2 0xAC4 JUMP JUMPDEST SWAP1 POP PUSH2 0xBD6 PUSH1 0x40 DUP4 ADD DUP5 PUSH2 0xB51 JUMP JUMPDEST SWAP5 SWAP4 POP POP POP POP JUMP JUMPDEST PUSH1 0x0 PUSH1 0x20 DUP3 ADD SWAP1 POP DUP2 DUP2 SUB PUSH1 0x0 DUP4 ADD MSTORE PUSH2 0xBF7 DUP2 PUSH2 0xB2E JUMP JUMPDEST SWAP1 POP SWAP2 SWAP1 POP JUMP JUMPDEST PUSH1 0x0 PUSH1 0x20 DUP3 ADD SWAP1 POP PUSH2 0xC13 PUSH1 0x0 DUP4 ADD DUP5 PUSH2 0xB51 JUMP JUMPDEST SWAP3 SWAP2 POP POP JUMP JUMPDEST PUSH1 0x0 PUSH2 0xC23 PUSH2 0xC34 JUMP JUMPDEST SWAP1 POP PUSH2 0xC2F DUP3 DUP3 PUSH2 0xD6A JUMP JUMPDEST SWAP2 SWAP1 POP JUMP JUMPDEST PUSH1 0x0 PUSH1 0x40 MLOAD SWAP1 POP SWAP1 JUMP JUMPDEST PUSH1 0x0 PUSH8 0xFFFFFFFFFFFFFFFF DUP3 GT ISZERO PUSH2 0xC59 JUMPI PUSH2 0xC58 PUSH2 0xE42 JUMP JUMPDEST JUMPDEST PUSH2 0xC62 DUP3 PUSH2 0xE85 JUMP JUMPDEST SWAP1 POP PUSH1 0x20 DUP2 ADD SWAP1 POP SWAP2 SWAP1 POP JUMP JUMPDEST PUSH1 0x0 DUP2 MLOAD SWAP1 POP SWAP2 SWAP1 POP JUMP JUMPDEST PUSH1 0x0 DUP3 DUP3 MSTORE PUSH1 0x20 DUP3 ADD SWAP1 POP SWAP3 SWAP2 POP POP JUMP JUMPDEST PUSH1 0x0 DUP2 SWAP1 POP SWAP3 SWAP2 POP POP JUMP JUMPDEST PUSH1 0x0 PUSH2 0xCA1 DUP3 PUSH2 0xCEC JUMP JUMPDEST SWAP2 POP PUSH2 0xCAC DUP4 PUSH2 0xCEC JUMP JUMPDEST SWAP3 POP DUP3 PUSH32 0xFFFFFFFFFFFFFFFFFFFFFFFFFFFFFFFFFFFFFFFFFFFFFFFFFFFFFFFFFFFFFFFF SUB DUP3 GT ISZERO PUSH2 0xCE1 JUMPI PUSH2 0xCE0 PUSH2 0xDE4 JUMP JUMPDEST JUMPDEST DUP3 DUP3 ADD SWAP1 POP SWAP3 SWAP2 POP POP JUMP JUMPDEST PUSH1 0x0 DUP2 SWAP1 POP SWAP2 SWAP1 POP JUMP JUMPDEST DUP3 DUP2 DUP4 CALLDATACOPY PUSH1 0x0 DUP4 DUP4 ADD MSTORE POP POP POP JUMP JUMPDEST PUSH1 0x0 JUMPDEST DUP4 DUP2 LT ISZERO PUSH2 0xD23 JUMPI DUP1 DUP3 ADD MLOAD DUP2 DUP5 ADD MSTORE PUSH1 0x20 DUP2 ADD SWAP1 POP PUSH2 0xD08 JUMP JUMPDEST DUP4 DUP2 GT ISZERO PUSH2 0xD32 JUMPI PUSH1 0x0 DUP5 DUP5 ADD MSTORE JUMPDEST POP POP POP POP JUMP JUMPDEST PUSH1 0x0 PUSH1 0x2 DUP3 DIV SWAP1 POP PUSH1 0x1 DUP3 AND DUP1 PUSH2 0xD50 JUMPI PUSH1 0x7F DUP3 AND SWAP2 POP JUMPDEST PUSH1 0x20 DUP3 LT DUP2 EQ ISZERO PUSH2 0xD64 JUMPI PUSH2 0xD63 PUSH2 0xE13 JUMP JUMPDEST JUMPDEST POP SWAP2 SWAP1 POP JUMP JUMPDEST PUSH2 0xD73 DUP3 PUSH2 0xE85 JUMP JUMPDEST DUP2 ADD DUP2 DUP2 LT PUSH8 0xFFFFFFFFFFFFFFFF DUP3 GT OR ISZERO PUSH2 0xD92 JUMPI PUSH2 0xD91 PUSH2 0xE42 JUMP JUMPDEST JUMPDEST DUP1 PUSH1 0x40 MSTORE POP POP POP JUMP JUMPDEST PUSH1 0x0 PUSH2 0xDA6 DUP3 PUSH2 0xCEC JUMP JUMPDEST SWAP2 POP PUSH32 0xFFFFFFFFFFFFFFFFFFFFFFFFFFFFFFFFFFFFFFFFFFFFFFFFFFFFFFFFFFFFFFFF DUP3 EQ ISZERO PUSH2 0xDD9 JUMPI PUSH2 0xDD8 PUSH2 0xDE4 JUMP JUMPDEST JUMPDEST PUSH1 0x1 DUP3 ADD SWAP1 POP SWAP2 SWAP1 POP JUMP JUMPDEST PUSH32 0x4E487B7100000000000000000000000000000000000000000000000000000000 PUSH1 0x0 MSTORE PUSH1 0x11 PUSH1 0x4 MSTORE PUSH1 0x24 PUSH1 0x0 REVERT JUMPDEST PUSH32 0x4E487B7100000000000000000000000000000000000000000000000000000000 PUSH1 0x0 MSTORE PUSH1 0x22 PUSH1 0x4 MSTORE PUSH1 0x24 PUSH1 0x0 REVERT JUMPDEST PUSH32 0x4E487B7100000000000000000000000000000000000000000000000000000000 PUSH1 0x0 MSTORE PUSH1 0x41 PUSH1 0x4 MSTORE PUSH1 0x24 PUSH1 0x0 REVERT JUMPDEST PUSH1 0x0 DUP1 REVERT JUMPDEST PUSH1 0x0 DUP1 REVERT JUMPDEST PUSH1 0x0 DUP1 REVERT JUMPDEST PUSH1 0x0 DUP1 REVERT JUMPDEST PUSH1 0x0 PUSH1 0x1F NOT PUSH1 0x1F DUP4 ADD AND SWAP1 POP SWAP2 SWAP1 POP JUMP JUMPDEST PUSH32 0x4163636573732069732044656E69656400000000000000000000000000000000 PUSH1 0x0 DUP3 ADD MSTORE POP JUMP JUMPDEST PUSH2 0xEC8 DUP2 PUSH2 0xCEC JUMP JUMPDEST DUP2 EQ PUSH2 0xED3 JUMPI PUSH1 0x0 DUP1 REVERT JUMPDEST POP JUMP INVALID MSIZE PUSH16 0x752077696C6C20626520616464656420 PUSH21 0x6F2063616E646964617465206C697374206F6E6365 KECCAK256 PUSH26 0x6F75206172652076616C69646174656420627920746865206164 PUSH14 0x696EA2646970667358221220A605 0xBA 0xC6 STATICCALL SWAP10 0xCB 0x2C 0xFC DELEGATECALL 0x25 DUP2 STOP ADDMOD 0x29 DUP15 SWAP14 LOG1 NUMBER 0xDF 0xE7 EXTCODESIZE 0xDF DUP12 0xCE XOR COINBASE JUMPDEST 0xF7 0xDF STATICCALL 0xC3 PUSH5 0x736F6C6343 STOP ADDMOD SMOD STOP CALLER "
				},
				"gasEstimates": {
					"creation": {
						"codeDepositCost": "784600",
						"executionCost": "25084",
						"totalCost": "809684"
					},
					"external": {
						"candidateEnrollment(string,string)": "infinite",
						"candidateIDGenerator(string)": "infinite",
						"candidates(uint256)": "infinite",
						"results()": "infinite",
						"voterEnrollment(string,uint256)": "infinite"
					}
				},
				"methodIdentifiers": {
					"candidateEnrollment(string,string)": "17678bc3",
					"candidateIDGenerator(string)": "e96e5dc8",
					"candidates(uint256)": "3477ee2e",
					"results()": "a48bdb7c",
					"voterEnrollment(string,uint256)": "0fd94e64"
				}
			},
			"storageLayout": {
				"storage": [
					{
						"astId": 3,
						"contract": "voting.sol:Voting",
						"label": "noOfVoters",
						"offset": 0,
						"slot": "0",
						"type": "t_uint256"
					},
					{
						"astId": 5,
						"contract": "voting.sol:Voting",
						"label": "noOfCandidates",
						"offset": 0,
						"slot": "1",
						"type": "t_uint256"
					},
					{
						"astId": 7,
						"contract": "voting.sol:Voting",
						"label": "admin",
						"offset": 0,
						"slot": "2",
						"type": "t_address"
					},
					{
						"astId": 12,
						"contract": "voting.sol:Voting",
						"label": "candidates",
						"offset": 0,
						"slot": "3",
						"type": "t_mapping(t_uint256,t_struct(Candidate)24_storage)"
					},
					{
						"astId": 17,
						"contract": "voting.sol:Voting",
						"label": "voters",
						"offset": 0,
						"slot": "4",
						"type": "t_mapping(t_string_memory_ptr,t_struct(Voter)29_storage)"
					}
				],
				"types": {
					"t_address": {
						"encoding": "inplace",
						"label": "address",
						"numberOfBytes": "20"
					},
					"t_bool": {
						"encoding": "inplace",
						"label": "bool",
						"numberOfBytes": "1"
					},
					"t_mapping(t_string_memory_ptr,t_struct(Voter)29_storage)": {
						"encoding": "mapping",
						"key": "t_string_memory_ptr",
						"label": "mapping(string => struct Voting.Voter)",
						"numberOfBytes": "32",
						"value": "t_struct(Voter)29_storage"
					},
					"t_mapping(t_uint256,t_struct(Candidate)24_storage)": {
						"encoding": "mapping",
						"key": "t_uint256",
						"label": "mapping(uint256 => struct Voting.Candidate)",
						"numberOfBytes": "32",
						"value": "t_struct(Candidate)24_storage"
					},
					"t_string_memory_ptr": {
						"encoding": "bytes",
						"label": "string",
						"numberOfBytes": "32"
					},
					"t_string_storage": {
						"encoding": "bytes",
						"label": "string",
						"numberOfBytes": "32"
					},
					"t_struct(Candidate)24_storage": {
						"encoding": "inplace",
						"label": "struct Voting.Candidate",
						"members": [
							{
								"astId": 19,
								"contract": "voting.sol:Voting",
								"label": "candidate_name",
								"offset": 0,
								"slot": "0",
								"type": "t_string_storage"
							},
							{
								"astId": 21,
								"contract": "voting.sol:Voting",
								"label": "candidate_description",
								"offset": 0,
								"slot": "1",
								"type": "t_string_storage"
							},
							{
								"astId": 23,
								"contract": "voting.sol:Voting",
								"label": "noOfVotes",
								"offset": 0,
								"slot": "2",
								"type": "t_uint256"
							}
						],
						"numberOfBytes": "96"
					},
					"t_struct(Voter)29_storage": {
						"encoding": "inplace",
						"label": "struct Voting.Voter",
						"members": [
							{
								"astId": 26,
								"contract": "voting.sol:Voting",
								"label": "candidate_id",
								"offset": 0,
								"slot": "0",
								"type": "t_uint256"
							},
							{
								"astId": 28,
								"contract": "voting.sol:Voting",
								"label": "hasVoted",
								"offset": 0,
								"slot": "1",
								"type": "t_bool"
							}
						],
						"numberOfBytes": "64"
					},
					"t_uint256": {
						"encoding": "inplace",
						"label": "uint256",
						"numberOfBytes": "32"
					}
				}
			},
			"userdoc": {
				"kind": "user",
				"methods": {},
				"version": 1
			}
		}
	}
}